{
  "contractName": "Account",
  "abi": [
    {
      "constant": true,
      "inputs": [
        {
          "internalType": "uint256",
          "name": "",
          "type": "uint256"
        }
      ],
      "name": "castleToOwner",
      "outputs": [
        {
          "internalType": "address",
          "name": "",
          "type": "address"
        }
      ],
      "payable": false,
      "stateMutability": "view",
      "type": "function"
    },
    {
      "constant": true,
      "inputs": [
        {
          "internalType": "address",
          "name": "",
          "type": "address"
        }
      ],
      "name": "coinOwnerCount",
      "outputs": [
        {
          "internalType": "uint256",
          "name": "",
          "type": "uint256"
        }
      ],
      "payable": false,
      "stateMutability": "view",
      "type": "function"
    },
    {
      "constant": true,
      "inputs": [
        {
          "internalType": "address",
          "name": "",
          "type": "address"
        }
      ],
      "name": "foodOwnerCount",
      "outputs": [
        {
          "internalType": "uint256",
          "name": "",
          "type": "uint256"
        }
      ],
      "payable": false,
      "stateMutability": "view",
      "type": "function"
    },
    {
      "constant": true,
      "inputs": [
        {
          "internalType": "address",
          "name": "",
          "type": "address"
        }
      ],
      "name": "ironOwnerCount",
      "outputs": [
        {
          "internalType": "uint256",
          "name": "",
          "type": "uint256"
        }
      ],
      "payable": false,
      "stateMutability": "view",
      "type": "function"
    },
    {
      "constant": true,
      "inputs": [],
      "name": "kingdomAmount",
      "outputs": [
        {
          "internalType": "uint256",
          "name": "",
          "type": "uint256"
        }
      ],
      "payable": false,
      "stateMutability": "view",
      "type": "function"
    },
    {
      "constant": true,
      "inputs": [
        {
          "internalType": "address",
          "name": "",
          "type": "address"
        }
      ],
      "name": "ownerCastleCount",
      "outputs": [
        {
          "internalType": "uint256",
          "name": "",
          "type": "uint256"
        }
      ],
      "payable": false,
      "stateMutability": "view",
      "type": "function"
    },
    {
      "constant": true,
      "inputs": [
        {
          "internalType": "address",
          "name": "",
          "type": "address"
        }
      ],
      "name": "power",
      "outputs": [
        {
          "internalType": "uint256",
          "name": "",
          "type": "uint256"
        }
      ],
      "payable": false,
      "stateMutability": "view",
      "type": "function"
    },
    {
      "constant": true,
      "inputs": [
        {
          "internalType": "address",
          "name": "",
          "type": "address"
        }
      ],
      "name": "stoneOwnerCount",
      "outputs": [
        {
          "internalType": "uint256",
          "name": "",
          "type": "uint256"
        }
      ],
      "payable": false,
      "stateMutability": "view",
      "type": "function"
    },
    {
      "constant": true,
      "inputs": [
        {
          "internalType": "address",
          "name": "",
          "type": "address"
        }
      ],
      "name": "woodOwnerCount",
      "outputs": [
        {
          "internalType": "uint256",
          "name": "",
          "type": "uint256"
        }
      ],
      "payable": false,
      "stateMutability": "view",
      "type": "function"
    },
    {
      "constant": true,
      "inputs": [],
      "name": "checkUserAddress",
      "outputs": [
        {
          "internalType": "bool",
          "name": "",
          "type": "bool"
        }
      ],
      "payable": false,
      "stateMutability": "view",
      "type": "function"
    },
    {
      "constant": true,
      "inputs": [],
      "name": "getMyIdx",
      "outputs": [
        {
          "internalType": "uint256",
          "name": "",
          "type": "uint256"
        }
      ],
      "payable": false,
      "stateMutability": "view",
      "type": "function"
    },
    {
      "constant": true,
      "inputs": [
        {
          "internalType": "uint256",
          "name": "idx",
          "type": "uint256"
        }
      ],
      "name": "getUserPower",
      "outputs": [
        {
          "internalType": "uint256",
          "name": "",
          "type": "uint256"
        }
      ],
      "payable": false,
      "stateMutability": "view",
      "type": "function"
    },
    {
      "constant": true,
      "inputs": [],
      "name": "getKingdomAmount",
      "outputs": [
        {
          "internalType": "uint256",
          "name": "",
          "type": "uint256"
        }
      ],
      "payable": false,
      "stateMutability": "view",
      "type": "function"
    },
    {
      "constant": true,
      "inputs": [],
      "name": "getFoodAmount",
      "outputs": [
        {
          "internalType": "uint256",
          "name": "",
          "type": "uint256"
        }
      ],
      "payable": false,
      "stateMutability": "view",
      "type": "function"
    },
    {
      "constant": true,
      "inputs": [],
      "name": "getIronAmount",
      "outputs": [
        {
          "internalType": "uint256",
          "name": "",
          "type": "uint256"
        }
      ],
      "payable": false,
      "stateMutability": "view",
      "type": "function"
    },
    {
      "constant": true,
      "inputs": [],
      "name": "getStoneAmount",
      "outputs": [
        {
          "internalType": "uint256",
          "name": "",
          "type": "uint256"
        }
      ],
      "payable": false,
      "stateMutability": "view",
      "type": "function"
    },
    {
      "constant": true,
      "inputs": [],
      "name": "getCoinAmount",
      "outputs": [
        {
          "internalType": "uint256",
          "name": "",
          "type": "uint256"
        }
      ],
      "payable": false,
      "stateMutability": "view",
      "type": "function"
    },
    {
      "constant": true,
      "inputs": [],
      "name": "getWoodAmount",
      "outputs": [
        {
          "internalType": "uint256",
          "name": "",
          "type": "uint256"
        }
      ],
      "payable": false,
      "stateMutability": "view",
      "type": "function"
    }
  ],
  "bytecode": "0x60806040526010600955600954600a0a600a5534801561001e57600080fd5b506109488061002e6000396000f3fe608060405234801561001057600080fd5b50600436106101165760003560e01c8063867b84e2116100a2578063e428afa011610071578063e428afa0146103b1578063e5b285f214610409578063ef78b6dc14610461578063f4ab27f0146104b9578063fd8ccf271461052757610116565b8063867b84e2146102d75780638919a9ca1461032f578063c8b4eeff14610351578063ccf358a41461039357610116565b80635ad60993116100e95780635ad6099314610207578063623e9ba614610225578063789630be146102435780637e2b875b146102615780638226e5301461027f57610116565b8063194c717b1461011b5780631c980beb1461013957806346125f8414610157578063503371a5146101af575b600080fd5b610123610545565b6040518082815260200191505060405180910390f35b61014161054b565b6040518082815260200191505060405180910390f35b6101996004803603602081101561016d57600080fd5b81019080803573ffffffffffffffffffffffffffffffffffffffff169060200190929190505050610591565b6040518082815260200191505060405180910390f35b6101f1600480360360208110156101c557600080fd5b81019080803573ffffffffffffffffffffffffffffffffffffffff1690602001909291905050506105a9565b6040518082815260200191505060405180910390f35b61020f6105c1565b6040518082815260200191505060405180910390f35b61022d610608565b6040518082815260200191505060405180910390f35b61024b61064f565b6040518082815260200191505060405180910390f35b6102696106e6565b6040518082815260200191505060405180910390f35b6102c16004803603602081101561029557600080fd5b81019080803573ffffffffffffffffffffffffffffffffffffffff1690602001909291905050506106f0565b6040518082815260200191505060405180910390f35b610319600480360360208110156102ed57600080fd5b81019080803573ffffffffffffffffffffffffffffffffffffffff169060200190929190505050610708565b6040518082815260200191505060405180910390f35b610337610720565b604051808215151515815260200191505060405180910390f35b61037d6004803603602081101561036757600080fd5b810190808035906020019092919050505061077a565b6040518082815260200191505060405180910390f35b61039b61080a565b6040518082815260200191505060405180910390f35b6103f3600480360360208110156103c757600080fd5b81019080803573ffffffffffffffffffffffffffffffffffffffff169060200190929190505050610851565b6040518082815260200191505060405180910390f35b61044b6004803603602081101561041f57600080fd5b81019080803573ffffffffffffffffffffffffffffffffffffffff169060200190929190505050610869565b6040518082815260200191505060405180910390f35b6104a36004803603602081101561047757600080fd5b81019080803573ffffffffffffffffffffffffffffffffffffffff169060200190929190505050610881565b6040518082815260200191505060405180910390f35b6104e5600480360360208110156104cf57600080fd5b8101908080359060200190929190505050610899565b604051808273ffffffffffffffffffffffffffffffffffffffff1673ffffffffffffffffffffffffffffffffffffffff16815260200191505060405180910390f35b61052f6108cc565b6040518082815260200191505060405180910390f35b60065481565b60008060003373ffffffffffffffffffffffffffffffffffffffff1673ffffffffffffffffffffffffffffffffffffffff16815260200190815260200160002054905090565b60086020528060005260406000206000915090505481565b60056020528060005260406000206000915090505481565b6000600260003373ffffffffffffffffffffffffffffffffffffffff1673ffffffffffffffffffffffffffffffffffffffff16815260200190815260200160002054905090565b6000600360003373ffffffffffffffffffffffffffffffffffffffff1673ffffffffffffffffffffffffffffffffffffffff16815260200190815260200160002054905090565b600080600090505b6006548110156106dc573373ffffffffffffffffffffffffffffffffffffffff166007600083815260200190815260200160002060009054906101000a900473ffffffffffffffffffffffffffffffffffffffff1673ffffffffffffffffffffffffffffffffffffffff1614156106d157809150506106e3565b806001019050610657565b5060065490505b90565b6000600654905090565b60016020528060005260406000206000915090505481565b60046020528060005260406000206000915090505481565b600080600860003373ffffffffffffffffffffffffffffffffffffffff1673ffffffffffffffffffffffffffffffffffffffff1681526020019081526020016000205411156107725760019050610777565b600090505b90565b600060065482101561080057600560006007600085815260200190815260200160002060009054906101000a900473ffffffffffffffffffffffffffffffffffffffff1673ffffffffffffffffffffffffffffffffffffffff1673ffffffffffffffffffffffffffffffffffffffff168152602001908152602001600020549050610805565b600090505b919050565b6000600460003373ffffffffffffffffffffffffffffffffffffffff1673ffffffffffffffffffffffffffffffffffffffff16815260200190815260200160002054905090565b60006020528060005260406000206000915090505481565b60026020528060005260406000206000915090505481565b60036020528060005260406000206000915090505481565b60076020528060005260406000206000915054906101000a900473ffffffffffffffffffffffffffffffffffffffff1681565b6000600160003373ffffffffffffffffffffffffffffffffffffffff1673ffffffffffffffffffffffffffffffffffffffff1681526020019081526020016000205490509056fea265627a7a72315820a7240d69dd65eaaa788d48dcccc95ec9c3cf5988ee48befd103ae07c7e2f7b9464736f6c63430005100032",
  "source": "pragma solidity >=0.4.21 <0.7.0;\n\nimport \"./SafeMath.sol\";\n\ncontract Account {\n    using SafeMath for uint;\n\n    mapping (address => uint) public stoneOwnerCount;\n    mapping (address => uint) public ironOwnerCount;\n    mapping (address => uint) public foodOwnerCount;\n    mapping (address => uint) public coinOwnerCount;\n    mapping (address => uint) public woodOwnerCount;\n    mapping (address => uint) public power;\n    uint public kingdomAmount;\n\n    mapping (uint => address) public castleToOwner;\n    mapping (address => uint) public ownerCastleCount;\n\n    uint IdDigits = 16;\n    uint IdModulus = 10 ** IdDigits;\n\n    function checkUserAddress() public view returns(bool) {\n        if(ownerCastleCount[msg.sender] > 0) return true;\n        return false;\n    }\n\n    function getMyIdx() public view returns(uint) {\n        for (uint i=0; i<kingdomAmount; ++i) {\n            if(castleToOwner[i] == msg.sender) {\n                return i;\n            }\n        }\n        return kingdomAmount;\n    }\n\n    function getUserPower(uint idx) public view returns(uint) {\n        if(idx < kingdomAmount) {\n            return power[castleToOwner[idx]];\n        }\n        return 0;\n    }\n\n    function getKingdomAmount() public view returns(uint) {\n        return kingdomAmount;\n    }\n\n    // for web to create castle\n    function _initializeKingdom(address _owner) internal {\n        require(ownerCastleCount[_owner] == 0);\n        castleToOwner[kingdomAmount] = _owner;\n        kingdomAmount++;\n        ownerCastleCount[_owner]++;\n        foodOwnerCount[_owner] = 10000;\n        woodOwnerCount[_owner] = 10000;\n        stoneOwnerCount[_owner] = 10000;\n        ironOwnerCount[_owner] = 10000;\n        coinOwnerCount[_owner] = 10000;\n        power[_owner] = 0;\n    }\n\n    function _cost(address _owner, uint food, uint wood, uint iron, uint stone, uint coin) internal returns (bool){\n        if(foodOwnerCount[_owner]>=food && woodOwnerCount[_owner]>=wood && ironOwnerCount[_owner]>=iron && stoneOwnerCount[_owner]>=stone && coinOwnerCount[_owner]>=coin){\n            foodOwnerCount[_owner] = foodOwnerCount[_owner].sub(food);\n            woodOwnerCount[_owner] = woodOwnerCount[_owner].sub(wood);\n            ironOwnerCount[_owner] = ironOwnerCount[_owner].sub(iron);\n            stoneOwnerCount[_owner] = stoneOwnerCount[_owner].sub(stone);\n            coinOwnerCount[_owner] = coinOwnerCount[_owner].sub(coin);\n            return true;\n        }\n        return false;\n    }\n\n    function getFoodAmount() public view returns(uint) {\n        return foodOwnerCount[msg.sender];\n    }\n\n    function getIronAmount() public view returns(uint) {\n        return ironOwnerCount[msg.sender];\n    }\n\n    function getStoneAmount() public view returns(uint) {\n        return stoneOwnerCount[msg.sender];\n    }\n\n    function getCoinAmount() public view returns(uint) {\n        return coinOwnerCount[msg.sender];\n    }\n\n    function getWoodAmount() public view returns(uint) {\n        return woodOwnerCount[msg.sender];\n    }\n}",
  "sourcePath": "/Users/cyl/Downloads/NmlabFinal-main/contracts/Account.sol",
  "compiler": {
    "name": "solc",
    "version": "0.5.16+commit.9c3226ce.Emscripten.clang"
  },
  "schemaVersion": "3.4.1",
  "updatedAt": "2021-05-26T14:22:57.796Z",
  "devdoc": {
    "methods": {}
  },
  "userdoc": {
    "methods": {}
  }
}