{
  "contractName": "Account",
  "abi": [
    {
      "constant": true,
      "inputs": [
        {
          "internalType": "uint256",
          "name": "",
          "type": "uint256"
        }
      ],
      "name": "castleToOwner",
      "outputs": [
        {
          "internalType": "address",
          "name": "",
          "type": "address"
        }
      ],
      "payable": false,
      "stateMutability": "view",
      "type": "function"
    },
    {
      "constant": true,
      "inputs": [
        {
          "internalType": "address",
          "name": "",
          "type": "address"
        }
      ],
      "name": "coinOwnerCount",
      "outputs": [
        {
          "internalType": "uint256",
          "name": "",
          "type": "uint256"
        }
      ],
      "payable": false,
      "stateMutability": "view",
      "type": "function"
    },
    {
      "constant": true,
      "inputs": [
        {
          "internalType": "address",
          "name": "",
          "type": "address"
        }
      ],
      "name": "foodOwnerCount",
      "outputs": [
        {
          "internalType": "uint256",
          "name": "",
          "type": "uint256"
        }
      ],
      "payable": false,
      "stateMutability": "view",
      "type": "function"
    },
    {
      "constant": true,
      "inputs": [
        {
          "internalType": "address",
          "name": "",
          "type": "address"
        }
      ],
      "name": "health",
      "outputs": [
        {
          "internalType": "uint256",
          "name": "",
          "type": "uint256"
        }
      ],
      "payable": false,
      "stateMutability": "view",
      "type": "function"
    },
    {
      "constant": true,
      "inputs": [
        {
          "internalType": "address",
          "name": "",
          "type": "address"
        }
      ],
      "name": "ironOwnerCount",
      "outputs": [
        {
          "internalType": "uint256",
          "name": "",
          "type": "uint256"
        }
      ],
      "payable": false,
      "stateMutability": "view",
      "type": "function"
    },
    {
      "constant": true,
      "inputs": [],
      "name": "kingdomAmount",
      "outputs": [
        {
          "internalType": "uint256",
          "name": "",
          "type": "uint256"
        }
      ],
      "payable": false,
      "stateMutability": "view",
      "type": "function"
    },
    {
      "constant": true,
      "inputs": [
        {
          "internalType": "address",
          "name": "",
          "type": "address"
        }
      ],
      "name": "ownerCastleCount",
      "outputs": [
        {
          "internalType": "uint256",
          "name": "",
          "type": "uint256"
        }
      ],
      "payable": false,
      "stateMutability": "view",
      "type": "function"
    },
    {
      "constant": true,
      "inputs": [
        {
          "internalType": "address",
          "name": "",
          "type": "address"
        }
      ],
      "name": "power",
      "outputs": [
        {
          "internalType": "uint256",
          "name": "",
          "type": "uint256"
        }
      ],
      "payable": false,
      "stateMutability": "view",
      "type": "function"
    },
    {
      "constant": true,
      "inputs": [
        {
          "internalType": "address",
          "name": "",
          "type": "address"
        }
      ],
      "name": "spyPower",
      "outputs": [
        {
          "internalType": "uint256",
          "name": "",
          "type": "uint256"
        }
      ],
      "payable": false,
      "stateMutability": "view",
      "type": "function"
    },
    {
      "constant": true,
      "inputs": [
        {
          "internalType": "address",
          "name": "",
          "type": "address"
        }
      ],
      "name": "stoneOwnerCount",
      "outputs": [
        {
          "internalType": "uint256",
          "name": "",
          "type": "uint256"
        }
      ],
      "payable": false,
      "stateMutability": "view",
      "type": "function"
    },
    {
      "constant": true,
      "inputs": [
        {
          "internalType": "address",
          "name": "",
          "type": "address"
        }
      ],
      "name": "woodOwnerCount",
      "outputs": [
        {
          "internalType": "uint256",
          "name": "",
          "type": "uint256"
        }
      ],
      "payable": false,
      "stateMutability": "view",
      "type": "function"
    },
    {
      "constant": false,
      "inputs": [
        {
          "internalType": "bool",
          "name": "_isAttack",
          "type": "bool"
        },
        {
          "internalType": "address",
          "name": "_attacker",
          "type": "address"
        },
        {
          "internalType": "uint256",
          "name": "_attackstarttime",
          "type": "uint256"
        },
        {
          "internalType": "uint256",
          "name": "_attacktotaltime",
          "type": "uint256"
        }
      ],
      "name": "setAttackedInfo",
      "outputs": [],
      "payable": false,
      "stateMutability": "nonpayable",
      "type": "function"
    },
    {
      "constant": true,
      "inputs": [],
      "name": "getMarchTime",
      "outputs": [
        {
          "internalType": "uint256",
          "name": "",
          "type": "uint256"
        },
        {
          "internalType": "uint256",
          "name": "",
          "type": "uint256"
        }
      ],
      "payable": false,
      "stateMutability": "view",
      "type": "function"
    },
    {
      "constant": false,
      "inputs": [
        {
          "internalType": "address",
          "name": "_owner",
          "type": "address"
        }
      ],
      "name": "updateMarch",
      "outputs": [
        {
          "internalType": "uint256",
          "name": "",
          "type": "uint256"
        }
      ],
      "payable": false,
      "stateMutability": "nonpayable",
      "type": "function"
    },
    {
      "constant": true,
      "inputs": [],
      "name": "checkUserAddress",
      "outputs": [
        {
          "internalType": "bool",
          "name": "",
          "type": "bool"
        }
      ],
      "payable": false,
      "stateMutability": "view",
      "type": "function"
    },
    {
      "constant": true,
      "inputs": [
        {
          "internalType": "address",
          "name": "_owner",
          "type": "address"
        }
      ],
      "name": "getStoneOwnerCount",
      "outputs": [
        {
          "internalType": "uint256",
          "name": "",
          "type": "uint256"
        }
      ],
      "payable": false,
      "stateMutability": "view",
      "type": "function"
    },
    {
      "constant": false,
      "inputs": [
        {
          "internalType": "address",
          "name": "_owner",
          "type": "address"
        },
        {
          "internalType": "uint256",
          "name": "value",
          "type": "uint256"
        }
      ],
      "name": "setStoneOwnerCount",
      "outputs": [],
      "payable": false,
      "stateMutability": "nonpayable",
      "type": "function"
    },
    {
      "constant": true,
      "inputs": [
        {
          "internalType": "address",
          "name": "_owner",
          "type": "address"
        }
      ],
      "name": "getIronOwnerCount",
      "outputs": [
        {
          "internalType": "uint256",
          "name": "",
          "type": "uint256"
        }
      ],
      "payable": false,
      "stateMutability": "view",
      "type": "function"
    },
    {
      "constant": false,
      "inputs": [
        {
          "internalType": "address",
          "name": "_owner",
          "type": "address"
        },
        {
          "internalType": "uint256",
          "name": "value",
          "type": "uint256"
        }
      ],
      "name": "setIronOwnerCount",
      "outputs": [],
      "payable": false,
      "stateMutability": "nonpayable",
      "type": "function"
    },
    {
      "constant": true,
      "inputs": [
        {
          "internalType": "address",
          "name": "_owner",
          "type": "address"
        }
      ],
      "name": "getFoodOwnerCount",
      "outputs": [
        {
          "internalType": "uint256",
          "name": "",
          "type": "uint256"
        }
      ],
      "payable": false,
      "stateMutability": "view",
      "type": "function"
    },
    {
      "constant": false,
      "inputs": [
        {
          "internalType": "address",
          "name": "_owner",
          "type": "address"
        },
        {
          "internalType": "uint256",
          "name": "value",
          "type": "uint256"
        }
      ],
      "name": "setFoodOwnerCount",
      "outputs": [],
      "payable": false,
      "stateMutability": "nonpayable",
      "type": "function"
    },
    {
      "constant": true,
      "inputs": [
        {
          "internalType": "address",
          "name": "_owner",
          "type": "address"
        }
      ],
      "name": "getCoinOwnerCount",
      "outputs": [
        {
          "internalType": "uint256",
          "name": "",
          "type": "uint256"
        }
      ],
      "payable": false,
      "stateMutability": "view",
      "type": "function"
    },
    {
      "constant": false,
      "inputs": [
        {
          "internalType": "address",
          "name": "_owner",
          "type": "address"
        },
        {
          "internalType": "uint256",
          "name": "value",
          "type": "uint256"
        }
      ],
      "name": "setCoinOwnerCount",
      "outputs": [],
      "payable": false,
      "stateMutability": "nonpayable",
      "type": "function"
    },
    {
      "constant": true,
      "inputs": [
        {
          "internalType": "address",
          "name": "_owner",
          "type": "address"
        }
      ],
      "name": "getWoodOwnerCount",
      "outputs": [
        {
          "internalType": "uint256",
          "name": "",
          "type": "uint256"
        }
      ],
      "payable": false,
      "stateMutability": "view",
      "type": "function"
    },
    {
      "constant": false,
      "inputs": [
        {
          "internalType": "address",
          "name": "_owner",
          "type": "address"
        },
        {
          "internalType": "uint256",
          "name": "value",
          "type": "uint256"
        }
      ],
      "name": "setWoodOwnerCount",
      "outputs": [],
      "payable": false,
      "stateMutability": "nonpayable",
      "type": "function"
    },
    {
      "constant": true,
      "inputs": [],
      "name": "getMyIdx",
      "outputs": [
        {
          "internalType": "uint256",
          "name": "",
          "type": "uint256"
        }
      ],
      "payable": false,
      "stateMutability": "view",
      "type": "function"
    },
    {
      "constant": true,
      "inputs": [
        {
          "internalType": "uint256",
          "name": "idx",
          "type": "uint256"
        }
      ],
      "name": "getUserPowerById",
      "outputs": [
        {
          "internalType": "uint256",
          "name": "",
          "type": "uint256"
        }
      ],
      "payable": false,
      "stateMutability": "view",
      "type": "function"
    },
    {
      "constant": true,
      "inputs": [
        {
          "internalType": "address",
          "name": "idx",
          "type": "address"
        }
      ],
      "name": "getUserPower",
      "outputs": [
        {
          "internalType": "uint256",
          "name": "",
          "type": "uint256"
        }
      ],
      "payable": false,
      "stateMutability": "view",
      "type": "function"
    },
    {
      "constant": false,
      "inputs": [
        {
          "internalType": "address",
          "name": "idx",
          "type": "address"
        },
        {
          "internalType": "uint256",
          "name": "value",
          "type": "uint256"
        }
      ],
      "name": "setUserPower",
      "outputs": [],
      "payable": false,
      "stateMutability": "nonpayable",
      "type": "function"
    },
    {
      "constant": true,
      "inputs": [
        {
          "internalType": "address",
          "name": "idx",
          "type": "address"
        }
      ],
      "name": "getUserHealth",
      "outputs": [
        {
          "internalType": "uint256",
          "name": "",
          "type": "uint256"
        }
      ],
      "payable": false,
      "stateMutability": "view",
      "type": "function"
    },
    {
      "constant": false,
      "inputs": [
        {
          "internalType": "address",
          "name": "idx",
          "type": "address"
        },
        {
          "internalType": "uint256",
          "name": "value",
          "type": "uint256"
        }
      ],
      "name": "setUserHealth",
      "outputs": [],
      "payable": false,
      "stateMutability": "nonpayable",
      "type": "function"
    },
    {
      "constant": true,
      "inputs": [
        {
          "internalType": "address",
          "name": "idx",
          "type": "address"
        }
      ],
      "name": "getUserSpyPower",
      "outputs": [
        {
          "internalType": "uint256",
          "name": "",
          "type": "uint256"
        }
      ],
      "payable": false,
      "stateMutability": "view",
      "type": "function"
    },
    {
      "constant": false,
      "inputs": [
        {
          "internalType": "address",
          "name": "idx",
          "type": "address"
        },
        {
          "internalType": "uint256",
          "name": "value",
          "type": "uint256"
        }
      ],
      "name": "setUserSpyPower",
      "outputs": [],
      "payable": false,
      "stateMutability": "nonpayable",
      "type": "function"
    },
    {
      "constant": true,
      "inputs": [],
      "name": "getKingdomAmount",
      "outputs": [
        {
          "internalType": "uint256",
          "name": "",
          "type": "uint256"
        }
      ],
      "payable": false,
      "stateMutability": "view",
      "type": "function"
    },
    {
      "constant": true,
      "inputs": [
        {
          "internalType": "uint256",
          "name": "id",
          "type": "uint256"
        }
      ],
      "name": "convertCastleToOwner",
      "outputs": [
        {
          "internalType": "address",
          "name": "",
          "type": "address"
        }
      ],
      "payable": false,
      "stateMutability": "view",
      "type": "function"
    },
    {
      "constant": false,
      "inputs": [
        {
          "internalType": "address",
          "name": "_owner",
          "type": "address"
        }
      ],
      "name": "initializeKingdom",
      "outputs": [],
      "payable": false,
      "stateMutability": "nonpayable",
      "type": "function"
    },
    {
      "constant": false,
      "inputs": [
        {
          "internalType": "address",
          "name": "_owner",
          "type": "address"
        },
        {
          "internalType": "uint256",
          "name": "food",
          "type": "uint256"
        },
        {
          "internalType": "uint256",
          "name": "wood",
          "type": "uint256"
        },
        {
          "internalType": "uint256",
          "name": "iron",
          "type": "uint256"
        },
        {
          "internalType": "uint256",
          "name": "stone",
          "type": "uint256"
        },
        {
          "internalType": "uint256",
          "name": "coin",
          "type": "uint256"
        }
      ],
      "name": "cost",
      "outputs": [
        {
          "internalType": "bool",
          "name": "",
          "type": "bool"
        }
      ],
      "payable": false,
      "stateMutability": "nonpayable",
      "type": "function"
    },
    {
      "constant": true,
      "inputs": [],
      "name": "getFoodAmount",
      "outputs": [
        {
          "internalType": "uint256",
          "name": "",
          "type": "uint256"
        }
      ],
      "payable": false,
      "stateMutability": "view",
      "type": "function"
    },
    {
      "constant": true,
      "inputs": [],
      "name": "getIronAmount",
      "outputs": [
        {
          "internalType": "uint256",
          "name": "",
          "type": "uint256"
        }
      ],
      "payable": false,
      "stateMutability": "view",
      "type": "function"
    },
    {
      "constant": true,
      "inputs": [],
      "name": "getStoneAmount",
      "outputs": [
        {
          "internalType": "uint256",
          "name": "",
          "type": "uint256"
        }
      ],
      "payable": false,
      "stateMutability": "view",
      "type": "function"
    },
    {
      "constant": true,
      "inputs": [],
      "name": "getCoinAmount",
      "outputs": [
        {
          "internalType": "uint256",
          "name": "",
          "type": "uint256"
        }
      ],
      "payable": false,
      "stateMutability": "view",
      "type": "function"
    },
    {
      "constant": true,
      "inputs": [],
      "name": "getWoodAmount",
      "outputs": [
        {
          "internalType": "uint256",
          "name": "",
          "type": "uint256"
        }
      ],
      "payable": false,
      "stateMutability": "view",
      "type": "function"
    }
  ],
  "bytecode": "0x60806040526000600b60006101000a81548160ff0219169083151502179055506010600e55600e54600a0a600f5534801561003957600080fd5b506121ae806100496000396000f3fe608060405234801561001057600080fd5b506004361061025e5760003560e01c806383ef9eb111610146578063e2d8ebee116100c3578063ef78b6dc11610087578063ef78b6dc14610ce9578063f064b42b14610d41578063f104f7cb14610d85578063f4ab27f014610daa578063f9d6c03b14610e18578063fd8ccf2714610e705761025e565b8063e2d8ebee14610b3b578063e428afa014610b93578063e5b285f214610beb578063e9933a4b14610c43578063e9df149814610c9b5761025e565b8063a50316ec1161010a578063a50316ec146109e5578063a580af0214610a33578063af7cd0e514610a81578063ccf358a414610acf578063e0a7cbdd14610aed5761025e565b806383ef9eb114610857578063867b84e2146108c557806388adb7e01461091d5780638919a9ca1461096b5780639e7230131461098d5761025e565b806356c8718b116101df5780636ed82fbb116101a35780636ed82fbb146106d15780636f60f1df14610729578063789630be146107815780637965de0a1461079f5780637e2b875b146107e15780638226e530146107ff5761025e565b806356c8718b146105975780635ad60993146105ef578063623e9ba61461060d57806364afdf071461062b5780636bf67718146106795761025e565b80633c426599116102265780633c426599146103e957806341d42330146104415780634454be421461049957806346125f84146104e7578063503371a51461053f5761025e565b806302931e5914610263578063087548a2146102bb578063194c717b1461031f5780631c980beb1461033d5780631e9ac0bf1461035b575b600080fd5b6102a56004803603602081101561027957600080fd5b81019080803573ffffffffffffffffffffffffffffffffffffffff169060200190929190505050610e8e565b6040518082815260200191505060405180910390f35b61031d600480360360808110156102d157600080fd5b81019080803515159060200190929190803573ffffffffffffffffffffffffffffffffffffffff1690602001909291908035906020019092919080359060200190929190505050610ed7565b005b610327610f46565b6040518082815260200191505060405180910390f35b610345610f4c565b6040518082815260200191505060405180910390f35b6103cf600480360360c081101561037157600080fd5b81019080803573ffffffffffffffffffffffffffffffffffffffff1690602001909291908035906020019092919080359060200190929190803590602001909291908035906020019092919080359060200190929190505050610f92565b604051808215151515815260200191505060405180910390f35b61042b600480360360208110156103ff57600080fd5b81019080803573ffffffffffffffffffffffffffffffffffffffff169060200190929190505050611406565b6040518082815260200191505060405180910390f35b6104836004803603602081101561045757600080fd5b81019080803573ffffffffffffffffffffffffffffffffffffffff16906020019092919050505061144e565b6040518082815260200191505060405180910390f35b6104e5600480360360408110156104af57600080fd5b81019080803573ffffffffffffffffffffffffffffffffffffffff16906020019092919080359060200190929190505050611497565b005b610529600480360360208110156104fd57600080fd5b81019080803573ffffffffffffffffffffffffffffffffffffffff1690602001909291905050506114df565b6040518082815260200191505060405180910390f35b6105816004803603602081101561055557600080fd5b81019080803573ffffffffffffffffffffffffffffffffffffffff1690602001909291905050506114f7565b6040518082815260200191505060405180910390f35b6105d9600480360360208110156105ad57600080fd5b81019080803573ffffffffffffffffffffffffffffffffffffffff16906020019092919050505061150f565b6040518082815260200191505060405180910390f35b6105f7611581565b6040518082815260200191505060405180910390f35b6106156115c8565b6040518082815260200191505060405180910390f35b6106776004803603604081101561064157600080fd5b81019080803573ffffffffffffffffffffffffffffffffffffffff1690602001909291908035906020019092919050505061160f565b005b6106bb6004803603602081101561068f57600080fd5b81019080803573ffffffffffffffffffffffffffffffffffffffff169060200190929190505050611657565b6040518082815260200191505060405180910390f35b610713600480360360208110156106e757600080fd5b81019080803573ffffffffffffffffffffffffffffffffffffffff1690602001909291905050506116a0565b6040518082815260200191505060405180910390f35b61076b6004803603602081101561073f57600080fd5b81019080803573ffffffffffffffffffffffffffffffffffffffff1690602001909291905050506116e9565b6040518082815260200191505060405180910390f35b610789611732565b6040518082815260200191505060405180910390f35b6107cb600480360360208110156107b557600080fd5b81019080803590602001909291905050506117c9565b6040518082815260200191505060405180910390f35b6107e9611859565b6040518082815260200191505060405180910390f35b6108416004803603602081101561081557600080fd5b81019080803573ffffffffffffffffffffffffffffffffffffffff169060200190929190505050611863565b6040518082815260200191505060405180910390f35b6108836004803603602081101561086d57600080fd5b810190808035906020019092919050505061187b565b604051808273ffffffffffffffffffffffffffffffffffffffff1673ffffffffffffffffffffffffffffffffffffffff16815260200191505060405180910390f35b610907600480360360208110156108db57600080fd5b81019080803573ffffffffffffffffffffffffffffffffffffffff1690602001909291905050506118b8565b6040518082815260200191505060405180910390f35b6109696004803603604081101561093357600080fd5b81019080803573ffffffffffffffffffffffffffffffffffffffff169060200190929190803590602001909291905050506118d0565b005b610973611918565b604051808215151515815260200191505060405180910390f35b6109cf600480360360208110156109a357600080fd5b81019080803573ffffffffffffffffffffffffffffffffffffffff169060200190929190505050611972565b6040518082815260200191505060405180910390f35b610a31600480360360408110156109fb57600080fd5b81019080803573ffffffffffffffffffffffffffffffffffffffff169060200190929190803590602001909291905050506119bb565b005b610a7f60048036036040811015610a4957600080fd5b81019080803573ffffffffffffffffffffffffffffffffffffffff16906020019092919080359060200190929190505050611a03565b005b610acd60048036036040811015610a9757600080fd5b81019080803573ffffffffffffffffffffffffffffffffffffffff16906020019092919080359060200190929190505050611a4b565b005b610ad7611a93565b6040518082815260200191505060405180910390f35b610b3960048036036040811015610b0357600080fd5b81019080803573ffffffffffffffffffffffffffffffffffffffff16906020019092919080359060200190929190505050611ada565b005b610b7d60048036036020811015610b5157600080fd5b81019080803573ffffffffffffffffffffffffffffffffffffffff169060200190929190505050611b22565b6040518082815260200191505060405180910390f35b610bd560048036036020811015610ba957600080fd5b81019080803573ffffffffffffffffffffffffffffffffffffffff169060200190929190505050611b3a565b6040518082815260200191505060405180910390f35b610c2d60048036036020811015610c0157600080fd5b81019080803573ffffffffffffffffffffffffffffffffffffffff169060200190929190505050611b52565b6040518082815260200191505060405180910390f35b610c8560048036036020811015610c5957600080fd5b81019080803573ffffffffffffffffffffffffffffffffffffffff169060200190929190505050611b6a565b6040518082815260200191505060405180910390f35b610ce760048036036040811015610cb157600080fd5b81019080803573ffffffffffffffffffffffffffffffffffffffff16906020019092919080359060200190929190505050611b82565b005b610d2b60048036036020811015610cff57600080fd5b81019080803573ffffffffffffffffffffffffffffffffffffffff169060200190929190505050611bc9565b6040518082815260200191505060405180910390f35b610d8360048036036020811015610d5757600080fd5b81019080803573ffffffffffffffffffffffffffffffffffffffff169060200190929190505050611be1565b005b610d8d611f11565b604051808381526020018281526020019250505060405180910390f35b610dd660048036036020811015610dc057600080fd5b8101908080359060200190929190505050611f24565b604051808273ffffffffffffffffffffffffffffffffffffffff1673ffffffffffffffffffffffffffffffffffffffff16815260200191505060405180910390f35b610e5a60048036036020811015610e2e57600080fd5b81019080803573ffffffffffffffffffffffffffffffffffffffff169060200190929190505050611f57565b6040518082815260200191505060405180910390f35b610e78611fa0565b6040518082815260200191505060405180910390f35b6000600560008373ffffffffffffffffffffffffffffffffffffffff1673ffffffffffffffffffffffffffffffffffffffff168152602001908152602001600020549050919050565b83600b60006101000a81548160ff02191690831515021790555082600b60016101000a81548173ffffffffffffffffffffffffffffffffffffffff021916908373ffffffffffffffffffffffffffffffffffffffff16021790555081600c8190555080600d8190555050505050565b60085481565b60008060003373ffffffffffffffffffffffffffffffffffffffff1673ffffffffffffffffffffffffffffffffffffffff16815260200190815260200160002054905090565b600085600260008973ffffffffffffffffffffffffffffffffffffffff1673ffffffffffffffffffffffffffffffffffffffff1681526020019081526020016000205410158015611022575084600460008973ffffffffffffffffffffffffffffffffffffffff1673ffffffffffffffffffffffffffffffffffffffff1681526020019081526020016000205410155b801561106d575083600160008973ffffffffffffffffffffffffffffffffffffffff1673ffffffffffffffffffffffffffffffffffffffff1681526020019081526020016000205410155b80156110b75750826000808973ffffffffffffffffffffffffffffffffffffffff1673ffffffffffffffffffffffffffffffffffffffff1681526020019081526020016000205410155b8015611102575081600360008973ffffffffffffffffffffffffffffffffffffffff1673ffffffffffffffffffffffffffffffffffffffff1681526020019081526020016000205410155b156113f75761115986600260008a73ffffffffffffffffffffffffffffffffffffffff1673ffffffffffffffffffffffffffffffffffffffff16815260200190815260200160002054611fe790919063ffffffff16565b600260008973ffffffffffffffffffffffffffffffffffffffff1673ffffffffffffffffffffffffffffffffffffffff168152602001908152602001600020819055506111ee85600460008a73ffffffffffffffffffffffffffffffffffffffff1673ffffffffffffffffffffffffffffffffffffffff16815260200190815260200160002054611fe790919063ffffffff16565b600460008973ffffffffffffffffffffffffffffffffffffffff1673ffffffffffffffffffffffffffffffffffffffff1681526020019081526020016000208190555061128384600160008a73ffffffffffffffffffffffffffffffffffffffff1673ffffffffffffffffffffffffffffffffffffffff16815260200190815260200160002054611fe790919063ffffffff16565b600160008973ffffffffffffffffffffffffffffffffffffffff1673ffffffffffffffffffffffffffffffffffffffff16815260200190815260200160002081905550611317836000808a73ffffffffffffffffffffffffffffffffffffffff1673ffffffffffffffffffffffffffffffffffffffff16815260200190815260200160002054611fe790919063ffffffff16565b6000808973ffffffffffffffffffffffffffffffffffffffff1673ffffffffffffffffffffffffffffffffffffffff168152602001908152602001600020819055506113ab82600360008a73ffffffffffffffffffffffffffffffffffffffff1673ffffffffffffffffffffffffffffffffffffffff16815260200190815260200160002054611fe790919063ffffffff16565b600360008973ffffffffffffffffffffffffffffffffffffffff1673ffffffffffffffffffffffffffffffffffffffff16815260200190815260200160002081905550600190506113fc565b600090505b9695505050505050565b60008060008373ffffffffffffffffffffffffffffffffffffffff1673ffffffffffffffffffffffffffffffffffffffff168152602001908152602001600020549050919050565b6000600260008373ffffffffffffffffffffffffffffffffffffffff1673ffffffffffffffffffffffffffffffffffffffff168152602001908152602001600020549050919050565b80600160008473ffffffffffffffffffffffffffffffffffffffff1673ffffffffffffffffffffffffffffffffffffffff168152602001908152602001600020819055505050565b600a6020528060005260406000206000915090505481565b60056020528060005260406000206000915090505481565b600080600c541415611524576000905061157c565b61153b600d54600c5461203190919063ffffffff16565b421061155a576000600c819055506000600d819055506000905061157c565b600061157542600d54600c5401611fe790919063ffffffff16565b9050809150505b919050565b6000600260003373ffffffffffffffffffffffffffffffffffffffff1673ffffffffffffffffffffffffffffffffffffffff16815260200190815260200160002054905090565b6000600360003373ffffffffffffffffffffffffffffffffffffffff1673ffffffffffffffffffffffffffffffffffffffff16815260200190815260200160002054905090565b80600460008473ffffffffffffffffffffffffffffffffffffffff1673ffffffffffffffffffffffffffffffffffffffff168152602001908152602001600020819055505050565b6000600760008373ffffffffffffffffffffffffffffffffffffffff1673ffffffffffffffffffffffffffffffffffffffff168152602001908152602001600020549050919050565b6000600360008373ffffffffffffffffffffffffffffffffffffffff1673ffffffffffffffffffffffffffffffffffffffff168152602001908152602001600020549050919050565b6000600460008373ffffffffffffffffffffffffffffffffffffffff1673ffffffffffffffffffffffffffffffffffffffff168152602001908152602001600020549050919050565b600080600090505b6008548110156117bf573373ffffffffffffffffffffffffffffffffffffffff166009600083815260200190815260200160002060009054906101000a900473ffffffffffffffffffffffffffffffffffffffff1673ffffffffffffffffffffffffffffffffffffffff1614156117b457809150506117c6565b80600101905061173a565b5060085490505b90565b600060085482101561184f57600560006009600085815260200190815260200160002060009054906101000a900473ffffffffffffffffffffffffffffffffffffffff1673ffffffffffffffffffffffffffffffffffffffff1673ffffffffffffffffffffffffffffffffffffffff168152602001908152602001600020549050611854565b600090505b919050565b6000600854905090565b60016020528060005260406000206000915090505481565b60006009600083815260200190815260200160002060009054906101000a900473ffffffffffffffffffffffffffffffffffffffff169050919050565b60046020528060005260406000206000915090505481565b80600560008473ffffffffffffffffffffffffffffffffffffffff1673ffffffffffffffffffffffffffffffffffffffff168152602001908152602001600020819055505050565b600080600a60003373ffffffffffffffffffffffffffffffffffffffff1673ffffffffffffffffffffffffffffffffffffffff16815260200190815260200160002054111561196a576001905061196f565b600090505b90565b6000600160008373ffffffffffffffffffffffffffffffffffffffff1673ffffffffffffffffffffffffffffffffffffffff168152602001908152602001600020549050919050565b80600660008473ffffffffffffffffffffffffffffffffffffffff1673ffffffffffffffffffffffffffffffffffffffff168152602001908152602001600020819055505050565b80600360008473ffffffffffffffffffffffffffffffffffffffff1673ffffffffffffffffffffffffffffffffffffffff168152602001908152602001600020819055505050565b80600260008473ffffffffffffffffffffffffffffffffffffffff1673ffffffffffffffffffffffffffffffffffffffff168152602001908152602001600020819055505050565b6000600460003373ffffffffffffffffffffffffffffffffffffffff1673ffffffffffffffffffffffffffffffffffffffff16815260200190815260200160002054905090565b80600760008473ffffffffffffffffffffffffffffffffffffffff1673ffffffffffffffffffffffffffffffffffffffff168152602001908152602001600020819055505050565b60066020528060005260406000206000915090505481565b60006020528060005260406000206000915090505481565b60026020528060005260406000206000915090505481565b60076020528060005260406000206000915090505481565b806000808473ffffffffffffffffffffffffffffffffffffffff1673ffffffffffffffffffffffffffffffffffffffff168152602001908152602001600020819055505050565b60036020528060005260406000206000915090505481565b6000600a60008373ffffffffffffffffffffffffffffffffffffffff1673ffffffffffffffffffffffffffffffffffffffff1681526020019081526020016000205414611c2d57600080fd5b8060096000600854815260200190815260200160002060006101000a81548173ffffffffffffffffffffffffffffffffffffffff021916908373ffffffffffffffffffffffffffffffffffffffff160217905550600860008154809291906001019190505550600a60008273ffffffffffffffffffffffffffffffffffffffff1673ffffffffffffffffffffffffffffffffffffffff16815260200190815260200160002060008154809291906001019190505550612710600260008373ffffffffffffffffffffffffffffffffffffffff1673ffffffffffffffffffffffffffffffffffffffff16815260200190815260200160002081905550612710600460008373ffffffffffffffffffffffffffffffffffffffff1673ffffffffffffffffffffffffffffffffffffffff168152602001908152602001600020819055506127106000808373ffffffffffffffffffffffffffffffffffffffff1673ffffffffffffffffffffffffffffffffffffffff16815260200190815260200160002081905550612710600160008373ffffffffffffffffffffffffffffffffffffffff1673ffffffffffffffffffffffffffffffffffffffff16815260200190815260200160002081905550612710600360008373ffffffffffffffffffffffffffffffffffffffff1673ffffffffffffffffffffffffffffffffffffffff168152602001908152602001600020819055506000600560008373ffffffffffffffffffffffffffffffffffffffff1673ffffffffffffffffffffffffffffffffffffffff168152602001908152602001600020819055506000600660008373ffffffffffffffffffffffffffffffffffffffff1673ffffffffffffffffffffffffffffffffffffffff168152602001908152602001600020819055506000600760008373ffffffffffffffffffffffffffffffffffffffff1673ffffffffffffffffffffffffffffffffffffffff1681526020019081526020016000208190555050565b600080600c544203600d54915091509091565b60096020528060005260406000206000915054906101000a900473ffffffffffffffffffffffffffffffffffffffff1681565b6000600660008373ffffffffffffffffffffffffffffffffffffffff1673ffffffffffffffffffffffffffffffffffffffff168152602001908152602001600020549050919050565b6000600160003373ffffffffffffffffffffffffffffffffffffffff1673ffffffffffffffffffffffffffffffffffffffff16815260200190815260200160002054905090565b600061202983836040518060400160405280601e81526020017f536166654d6174683a207375627472616374696f6e206f766572666c6f7700008152506120b9565b905092915050565b6000808284019050838110156120af576040517f08c379a000000000000000000000000000000000000000000000000000000000815260040180806020018281038252601b8152602001807f536166654d6174683a206164646974696f6e206f766572666c6f77000000000081525060200191505060405180910390fd5b8091505092915050565b6000838311158290612166576040517f08c379a00000000000000000000000000000000000000000000000000000000081526004018080602001828103825283818151815260200191508051906020019080838360005b8381101561212b578082015181840152602081019050612110565b50505050905090810190601f1680156121585780820380516001836020036101000a031916815260200191505b509250505060405180910390fd5b506000838503905080915050939250505056fea265627a7a72315820b4456f2db5a5dead440ae3f4d47cd2b9ae419406518a8909a77b646695a7540664736f6c63430005100032",
  "source": "pragma solidity >=0.4.21 <0.7.0;\n\nimport \"./SafeMath.sol\";\n\ncontract Account {\n    using SafeMath for uint;\n\n    mapping (address => uint) public stoneOwnerCount;\n    mapping (address => uint) public ironOwnerCount;\n    mapping (address => uint) public foodOwnerCount;\n    mapping (address => uint) public coinOwnerCount;\n    mapping (address => uint) public woodOwnerCount;\n    mapping (address => uint) public power;\n    mapping (address => uint) public health;\n    mapping (address => uint) public spyPower;\n    uint public kingdomAmount;\n\n    mapping (uint => address) public castleToOwner;\n    mapping (address => uint) public ownerCastleCount;\n\n    bool isAttacked = false;\n    address attackerAddress;\n    uint attackStartTime;\n    uint attackTotalTime;\n\n\n    uint IdDigits = 16;\n    uint IdModulus = 10 ** IdDigits;\n\n    function setAttackedInfo(bool _isAttack, address _attacker, uint _attackstarttime, uint _attacktotaltime) public {\n        isAttacked = _isAttack;\n        attackerAddress = _attacker;\n        attackStartTime = _attackstarttime;\n        attackTotalTime = _attacktotaltime;\n    }\n\n    function getMarchTime() public view returns(uint, uint) {\n        return ( now - attackStartTime, attackTotalTime ) ;\n    }\n\n    // // return 0 if success else return remaining time\n    function updateMarch(address _owner) public returns(uint) {\n        if (attackStartTime == 0) return 0;\n        if (now >= attackStartTime.add(attackTotalTime)) {\n            // uint num;\n            // num = ownerTotalMarchTime[_owner].div(  MarchInstance.levelOfMarch(_owner).mul(MarchInstance.createMarchTime()) );\n            // MarchInstance.setNumOfMarch(_owner, MarchInstance.numOfMarch(_owner) + (num));\n            attackStartTime = 0;\n            attackTotalTime = 0;\n            return 0;\n        }\n        else {\n            uint remainingTime = (attackStartTime + attackTotalTime).sub(now);\n            return remainingTime;\n        }\n    }\n\n    function checkUserAddress() public view returns(bool) {\n        if(ownerCastleCount[msg.sender] > 0) return true;\n        return false;\n    }\n\n    function getStoneOwnerCount(address _owner) public view returns(uint) {\n        return stoneOwnerCount[_owner];\n    }\n\n    function setStoneOwnerCount(address _owner, uint value) public {\n        stoneOwnerCount[_owner] = value;\n    }\n\n    function getIronOwnerCount(address _owner) public view returns(uint) {\n        return ironOwnerCount[_owner];\n    }\n\n    function setIronOwnerCount(address _owner, uint value) public {\n        ironOwnerCount[_owner] = value;\n    }\n\n    function getFoodOwnerCount(address _owner) public view returns(uint) {\n        return foodOwnerCount[_owner];\n    }\n\n    function setFoodOwnerCount(address _owner, uint value) public {\n        foodOwnerCount[_owner] = value;\n    }\n\n    function getCoinOwnerCount(address _owner) public view returns(uint) {\n        return coinOwnerCount[_owner];\n    }\n\n    function setCoinOwnerCount(address _owner, uint value) public {\n        coinOwnerCount[_owner] = value;\n    }\n\n    function getWoodOwnerCount(address _owner) public view returns(uint) {\n        return woodOwnerCount[_owner];\n    }\n\n    function setWoodOwnerCount(address _owner, uint value) public {\n        woodOwnerCount[_owner] = value;\n    }\n\n\n    function getMyIdx() public view returns(uint) {\n        for (uint i=0; i<kingdomAmount; ++i) {\n            if(castleToOwner[i] == msg.sender) {\n                return i;\n            }\n        }\n        return kingdomAmount;\n    }\n\n    function getUserPowerById(uint idx) public view returns(uint) {\n        if(idx < kingdomAmount) {\n            return power[castleToOwner[idx]];\n        }\n        return 0;\n    }\n\n    function getUserPower(address idx) public view returns(uint) {\n        return power[idx];\n    }\n\n    function setUserPower(address idx, uint value) public {\n        power[idx] = value;\n    }\n\n    function getUserHealth(address idx) public view returns(uint) {\n        return health[idx];\n    }\n\n    function setUserHealth(address idx, uint value) public {\n        health[idx] = value;\n    }\n\n    function getUserSpyPower(address idx) public view returns(uint) {\n        return spyPower[idx];\n    }\n\n    function setUserSpyPower(address idx, uint value) public {\n        spyPower[idx] = value;\n    }\n\n    function getKingdomAmount() public view returns(uint) {\n        return kingdomAmount;\n    }\n\n    function convertCastleToOwner(uint id) public view returns(address) {\n        return castleToOwner[id];\n    }\n\n    // for web to create castle\n    function initializeKingdom(address _owner) public {\n        require(ownerCastleCount[_owner] == 0);\n        castleToOwner[kingdomAmount] = _owner;\n        kingdomAmount++;\n        ownerCastleCount[_owner]++;\n        foodOwnerCount[_owner] = 10000;\n        woodOwnerCount[_owner] = 10000;\n        stoneOwnerCount[_owner] = 10000;\n        ironOwnerCount[_owner] = 10000;\n        coinOwnerCount[_owner] = 10000;\n        power[_owner] = 0;\n        health[_owner] = 0;\n        spyPower[_owner] = 0;\n    }\n\n    function cost(address _owner, uint food, uint wood, uint iron, uint stone, uint coin) public returns (bool){\n        if(foodOwnerCount[_owner]>=food && woodOwnerCount[_owner]>=wood && ironOwnerCount[_owner]>=iron && stoneOwnerCount[_owner]>=stone && coinOwnerCount[_owner]>=coin){\n            foodOwnerCount[_owner] = foodOwnerCount[_owner].sub(food);\n            woodOwnerCount[_owner] = woodOwnerCount[_owner].sub(wood);\n            ironOwnerCount[_owner] = ironOwnerCount[_owner].sub(iron);\n            stoneOwnerCount[_owner] = stoneOwnerCount[_owner].sub(stone);\n            coinOwnerCount[_owner] = coinOwnerCount[_owner].sub(coin);\n            return true;\n        }\n        return false;\n    }\n\n    function getFoodAmount() public view returns(uint) {\n        return foodOwnerCount[msg.sender];\n    }\n\n    function getIronAmount() public view returns(uint) {\n        return ironOwnerCount[msg.sender];\n    }\n\n    function getStoneAmount() public view returns(uint) {\n        return stoneOwnerCount[msg.sender];\n    }\n\n    function getCoinAmount() public view returns(uint) {\n        return coinOwnerCount[msg.sender];\n    }\n\n    function getWoodAmount() public view returns(uint) {\n        return woodOwnerCount[msg.sender];\n    }\n}",
  "sourcePath": "/Users/seanwang0823/NMLab_Final/contracts/Account.sol",
  "compiler": {
    "name": "solc",
    "version": "0.5.16+commit.9c3226ce.Emscripten.clang"
  },
  "schemaVersion": "3.4.0",
  "updatedAt": "2021-06-12T03:10:04.759Z",
  "networkType": "ethereum",
  "devdoc": {
    "methods": {}
  },
  "userdoc": {
    "methods": {}
  }
}