{
  "contractName": "Account",
  "abi": [
    {
      "constant": true,
      "inputs": [
        {
          "internalType": "uint256",
          "name": "",
          "type": "uint256"
        }
      ],
      "name": "castleToOwner",
      "outputs": [
        {
          "internalType": "address",
          "name": "",
          "type": "address"
        }
      ],
      "payable": false,
      "stateMutability": "view",
      "type": "function"
    },
    {
      "constant": true,
      "inputs": [
        {
          "internalType": "address",
          "name": "",
          "type": "address"
        }
      ],
      "name": "coinOwnerCount",
      "outputs": [
        {
          "internalType": "uint256",
          "name": "",
          "type": "uint256"
        }
      ],
      "payable": false,
      "stateMutability": "view",
      "type": "function"
    },
    {
      "constant": true,
      "inputs": [
        {
          "internalType": "address",
          "name": "",
          "type": "address"
        }
      ],
      "name": "foodOwnerCount",
      "outputs": [
        {
          "internalType": "uint256",
          "name": "",
          "type": "uint256"
        }
      ],
      "payable": false,
      "stateMutability": "view",
      "type": "function"
    },
    {
      "constant": true,
      "inputs": [
        {
          "internalType": "address",
          "name": "",
          "type": "address"
        }
      ],
      "name": "health",
      "outputs": [
        {
          "internalType": "uint256",
          "name": "",
          "type": "uint256"
        }
      ],
      "payable": false,
      "stateMutability": "view",
      "type": "function"
    },
    {
      "constant": true,
      "inputs": [
        {
          "internalType": "address",
          "name": "",
          "type": "address"
        }
      ],
      "name": "ironOwnerCount",
      "outputs": [
        {
          "internalType": "uint256",
          "name": "",
          "type": "uint256"
        }
      ],
      "payable": false,
      "stateMutability": "view",
      "type": "function"
    },
    {
      "constant": true,
      "inputs": [],
      "name": "kingdomAmount",
      "outputs": [
        {
          "internalType": "uint256",
          "name": "",
          "type": "uint256"
        }
      ],
      "payable": false,
      "stateMutability": "view",
      "type": "function"
    },
    {
      "constant": true,
      "inputs": [
        {
          "internalType": "address",
          "name": "",
          "type": "address"
        }
      ],
      "name": "ownerCastleCount",
      "outputs": [
        {
          "internalType": "uint256",
          "name": "",
          "type": "uint256"
        }
      ],
      "payable": false,
      "stateMutability": "view",
      "type": "function"
    },
    {
      "constant": true,
      "inputs": [
        {
          "internalType": "address",
          "name": "",
          "type": "address"
        }
      ],
      "name": "power",
      "outputs": [
        {
          "internalType": "uint256",
          "name": "",
          "type": "uint256"
        }
      ],
      "payable": false,
      "stateMutability": "view",
      "type": "function"
    },
    {
      "constant": true,
      "inputs": [
        {
          "internalType": "address",
          "name": "",
          "type": "address"
        }
      ],
      "name": "spyPower",
      "outputs": [
        {
          "internalType": "uint256",
          "name": "",
          "type": "uint256"
        }
      ],
      "payable": false,
      "stateMutability": "view",
      "type": "function"
    },
    {
      "constant": true,
      "inputs": [
        {
          "internalType": "address",
          "name": "",
          "type": "address"
        }
      ],
      "name": "stoneOwnerCount",
      "outputs": [
        {
          "internalType": "uint256",
          "name": "",
          "type": "uint256"
        }
      ],
      "payable": false,
      "stateMutability": "view",
      "type": "function"
    },
    {
      "constant": true,
      "inputs": [
        {
          "internalType": "address",
          "name": "",
          "type": "address"
        }
      ],
      "name": "woodOwnerCount",
      "outputs": [
        {
          "internalType": "uint256",
          "name": "",
          "type": "uint256"
        }
      ],
      "payable": false,
      "stateMutability": "view",
      "type": "function"
    },
    {
      "constant": true,
      "inputs": [],
      "name": "checkUserAddress",
      "outputs": [
        {
          "internalType": "bool",
          "name": "",
          "type": "bool"
        }
      ],
      "payable": false,
      "stateMutability": "view",
      "type": "function"
    },
    {
      "constant": true,
      "inputs": [],
      "name": "getMyIdx",
      "outputs": [
        {
          "internalType": "uint256",
          "name": "",
          "type": "uint256"
        }
      ],
      "payable": false,
      "stateMutability": "view",
      "type": "function"
    },
    {
      "constant": true,
      "inputs": [
        {
          "internalType": "uint256",
          "name": "idx",
          "type": "uint256"
        }
      ],
      "name": "getUserPower",
      "outputs": [
        {
          "internalType": "uint256",
          "name": "",
          "type": "uint256"
        }
      ],
      "payable": false,
      "stateMutability": "view",
      "type": "function"
    },
    {
      "constant": true,
      "inputs": [
        {
          "internalType": "uint256",
          "name": "idx",
          "type": "uint256"
        }
      ],
      "name": "getUserHealth",
      "outputs": [
        {
          "internalType": "uint256",
          "name": "",
          "type": "uint256"
        }
      ],
      "payable": false,
      "stateMutability": "view",
      "type": "function"
    },
    {
      "constant": true,
      "inputs": [
        {
          "internalType": "uint256",
          "name": "idx",
          "type": "uint256"
        }
      ],
      "name": "getUserSpyPower",
      "outputs": [
        {
          "internalType": "uint256",
          "name": "",
          "type": "uint256"
        }
      ],
      "payable": false,
      "stateMutability": "view",
      "type": "function"
    },
    {
      "constant": true,
      "inputs": [],
      "name": "getKingdomAmount",
      "outputs": [
        {
          "internalType": "uint256",
          "name": "",
          "type": "uint256"
        }
      ],
      "payable": false,
      "stateMutability": "view",
      "type": "function"
    },
    {
      "constant": true,
      "inputs": [],
      "name": "getFoodAmount",
      "outputs": [
        {
          "internalType": "uint256",
          "name": "",
          "type": "uint256"
        }
      ],
      "payable": false,
      "stateMutability": "view",
      "type": "function"
    },
    {
      "constant": true,
      "inputs": [],
      "name": "getIronAmount",
      "outputs": [
        {
          "internalType": "uint256",
          "name": "",
          "type": "uint256"
        }
      ],
      "payable": false,
      "stateMutability": "view",
      "type": "function"
    },
    {
      "constant": true,
      "inputs": [],
      "name": "getStoneAmount",
      "outputs": [
        {
          "internalType": "uint256",
          "name": "",
          "type": "uint256"
        }
      ],
      "payable": false,
      "stateMutability": "view",
      "type": "function"
    },
    {
      "constant": true,
      "inputs": [],
      "name": "getCoinAmount",
      "outputs": [
        {
          "internalType": "uint256",
          "name": "",
          "type": "uint256"
        }
      ],
      "payable": false,
      "stateMutability": "view",
      "type": "function"
    },
    {
      "constant": true,
      "inputs": [],
      "name": "getWoodAmount",
      "outputs": [
        {
          "internalType": "uint256",
          "name": "",
          "type": "uint256"
        }
      ],
      "payable": false,
      "stateMutability": "view",
      "type": "function"
    }
  ],
  "bytecode": "0x60806040526010600b55600b54600a0a600c5534801561001e57600080fd5b50610bf88061002e6000396000f3fe608060405234801561001057600080fd5b50600436106101425760003560e01c8063867b84e2116100b8578063e428afa01161007c578063e428afa0146104b9578063e5b285f214610511578063e9933a4b14610569578063ef78b6dc146105c1578063f4ab27f014610619578063fd8ccf271461068757610142565b8063867b84e2146103875780638919a9ca146103df578063c8b4eeff14610401578063ccf358a414610443578063e2d8ebee1461046157610142565b80635ad609931161010a5780635ad6099314610275578063623e9ba614610293578063789630be146102b15780637e2b875b146102cf5780638226e530146102ed578063834af9b61461034557610142565b8063194c717b146101475780631c980beb14610165578063323a46861461018357806346125f84146101c5578063503371a51461021d575b600080fd5b61014f6106a5565b6040518082815260200191505060405180910390f35b61016d6106ab565b6040518082815260200191505060405180910390f35b6101af6004803603602081101561019957600080fd5b81019080803590602001909291905050506106f1565b6040518082815260200191505060405180910390f35b610207600480360360208110156101db57600080fd5b81019080803573ffffffffffffffffffffffffffffffffffffffff169060200190929190505050610781565b6040518082815260200191505060405180910390f35b61025f6004803603602081101561023357600080fd5b81019080803573ffffffffffffffffffffffffffffffffffffffff169060200190929190505050610799565b6040518082815260200191505060405180910390f35b61027d6107b1565b6040518082815260200191505060405180910390f35b61029b6107f8565b6040518082815260200191505060405180910390f35b6102b961083f565b6040518082815260200191505060405180910390f35b6102d76108d6565b6040518082815260200191505060405180910390f35b61032f6004803603602081101561030357600080fd5b81019080803573ffffffffffffffffffffffffffffffffffffffff1690602001909291905050506108e0565b6040518082815260200191505060405180910390f35b6103716004803603602081101561035b57600080fd5b81019080803590602001909291905050506108f8565b6040518082815260200191505060405180910390f35b6103c96004803603602081101561039d57600080fd5b81019080803573ffffffffffffffffffffffffffffffffffffffff169060200190929190505050610988565b6040518082815260200191505060405180910390f35b6103e76109a0565b604051808215151515815260200191505060405180910390f35b61042d6004803603602081101561041757600080fd5b81019080803590602001909291905050506109fa565b6040518082815260200191505060405180910390f35b61044b610a8a565b6040518082815260200191505060405180910390f35b6104a36004803603602081101561047757600080fd5b81019080803573ffffffffffffffffffffffffffffffffffffffff169060200190929190505050610ad1565b6040518082815260200191505060405180910390f35b6104fb600480360360208110156104cf57600080fd5b81019080803573ffffffffffffffffffffffffffffffffffffffff169060200190929190505050610ae9565b6040518082815260200191505060405180910390f35b6105536004803603602081101561052757600080fd5b81019080803573ffffffffffffffffffffffffffffffffffffffff169060200190929190505050610b01565b6040518082815260200191505060405180910390f35b6105ab6004803603602081101561057f57600080fd5b81019080803573ffffffffffffffffffffffffffffffffffffffff169060200190929190505050610b19565b6040518082815260200191505060405180910390f35b610603600480360360208110156105d757600080fd5b81019080803573ffffffffffffffffffffffffffffffffffffffff169060200190929190505050610b31565b6040518082815260200191505060405180910390f35b6106456004803603602081101561062f57600080fd5b8101908080359060200190929190505050610b49565b604051808273ffffffffffffffffffffffffffffffffffffffff1673ffffffffffffffffffffffffffffffffffffffff16815260200191505060405180910390f35b61068f610b7c565b6040518082815260200191505060405180910390f35b60085481565b60008060003373ffffffffffffffffffffffffffffffffffffffff1673ffffffffffffffffffffffffffffffffffffffff16815260200190815260200160002054905090565b600060085482101561077757600760006009600085815260200190815260200160002060009054906101000a900473ffffffffffffffffffffffffffffffffffffffff1673ffffffffffffffffffffffffffffffffffffffff1673ffffffffffffffffffffffffffffffffffffffff16815260200190815260200160002054905061077c565b600090505b919050565b600a6020528060005260406000206000915090505481565b60056020528060005260406000206000915090505481565b6000600260003373ffffffffffffffffffffffffffffffffffffffff1673ffffffffffffffffffffffffffffffffffffffff16815260200190815260200160002054905090565b6000600360003373ffffffffffffffffffffffffffffffffffffffff1673ffffffffffffffffffffffffffffffffffffffff16815260200190815260200160002054905090565b600080600090505b6008548110156108cc573373ffffffffffffffffffffffffffffffffffffffff166009600083815260200190815260200160002060009054906101000a900473ffffffffffffffffffffffffffffffffffffffff1673ffffffffffffffffffffffffffffffffffffffff1614156108c157809150506108d3565b806001019050610847565b5060085490505b90565b6000600854905090565b60016020528060005260406000206000915090505481565b600060085482101561097e57600660006009600085815260200190815260200160002060009054906101000a900473ffffffffffffffffffffffffffffffffffffffff1673ffffffffffffffffffffffffffffffffffffffff1673ffffffffffffffffffffffffffffffffffffffff168152602001908152602001600020549050610983565b600090505b919050565b60046020528060005260406000206000915090505481565b600080600a60003373ffffffffffffffffffffffffffffffffffffffff1673ffffffffffffffffffffffffffffffffffffffff1681526020019081526020016000205411156109f257600190506109f7565b600090505b90565b6000600854821015610a8057600560006009600085815260200190815260200160002060009054906101000a900473ffffffffffffffffffffffffffffffffffffffff1673ffffffffffffffffffffffffffffffffffffffff1673ffffffffffffffffffffffffffffffffffffffff168152602001908152602001600020549050610a85565b600090505b919050565b6000600460003373ffffffffffffffffffffffffffffffffffffffff1673ffffffffffffffffffffffffffffffffffffffff16815260200190815260200160002054905090565b60066020528060005260406000206000915090505481565b60006020528060005260406000206000915090505481565b60026020528060005260406000206000915090505481565b60076020528060005260406000206000915090505481565b60036020528060005260406000206000915090505481565b60096020528060005260406000206000915054906101000a900473ffffffffffffffffffffffffffffffffffffffff1681565b6000600160003373ffffffffffffffffffffffffffffffffffffffff1673ffffffffffffffffffffffffffffffffffffffff1681526020019081526020016000205490509056fea265627a7a72315820a02ef9e684fa8721b27e3ad4ed17077ff0d2e1b46649c55f87cf92b7af66177664736f6c63430005100032",
  "source": "pragma solidity >=0.4.21 <0.7.0;\n\nimport \"./SafeMath.sol\";\n\ncontract Account {\n    using SafeMath for uint;\n\n    mapping (address => uint) public stoneOwnerCount;\n    mapping (address => uint) public ironOwnerCount;\n    mapping (address => uint) public foodOwnerCount;\n    mapping (address => uint) public coinOwnerCount;\n    mapping (address => uint) public woodOwnerCount;\n    mapping (address => uint) public power;\n    mapping (address => uint) public health;\n    mapping (address => uint) public spyPower;\n    uint public kingdomAmount;\n\n    mapping (uint => address) public castleToOwner;\n    mapping (address => uint) public ownerCastleCount;\n\n    uint IdDigits = 16;\n    uint IdModulus = 10 ** IdDigits;\n\n    function checkUserAddress() public view returns(bool) {\n        if(ownerCastleCount[msg.sender] > 0) return true;\n        return false;\n    }\n\n    function getMyIdx() public view returns(uint) {\n        for (uint i=0; i<kingdomAmount; ++i) {\n            if(castleToOwner[i] == msg.sender) {\n                return i;\n            }\n        }\n        return kingdomAmount;\n    }\n\n    function getUserPower(uint idx) public view returns(uint) {\n        if(idx < kingdomAmount) {\n            return power[castleToOwner[idx]];\n        }\n        return 0;\n    }\n\n    function getUserHealth(uint idx) public view returns(uint) {\n        if(idx < kingdomAmount) {\n            return health[castleToOwner[idx]];\n        }\n        return 0;\n    }\n\n    function getUserSpyPower(uint idx) public view returns(uint) {\n        if(idx < kingdomAmount) {\n            return spyPower[castleToOwner[idx]];\n        }\n        return 0;\n    }\n\n    function getKingdomAmount() public view returns(uint) {\n        return kingdomAmount;\n    }\n\n    // for web to create castle\n    function _initializeKingdom(address _owner) internal {\n        require(ownerCastleCount[_owner] == 0);\n        castleToOwner[kingdomAmount] = _owner;\n        kingdomAmount++;\n        ownerCastleCount[_owner]++;\n        foodOwnerCount[_owner] = 10000;\n        woodOwnerCount[_owner] = 10000;\n        stoneOwnerCount[_owner] = 10000;\n        ironOwnerCount[_owner] = 10000;\n        coinOwnerCount[_owner] = 10000;\n        power[_owner] = 0;\n        health[_owner] = 0;\n        spyPower[_owner] = 0;\n    }\n\n    function _cost(address _owner, uint food, uint wood, uint iron, uint stone, uint coin) internal returns (bool){\n        if(foodOwnerCount[_owner]>=food && woodOwnerCount[_owner]>=wood && ironOwnerCount[_owner]>=iron && stoneOwnerCount[_owner]>=stone && coinOwnerCount[_owner]>=coin){\n            foodOwnerCount[_owner] = foodOwnerCount[_owner].sub(food);\n            woodOwnerCount[_owner] = woodOwnerCount[_owner].sub(wood);\n            ironOwnerCount[_owner] = ironOwnerCount[_owner].sub(iron);\n            stoneOwnerCount[_owner] = stoneOwnerCount[_owner].sub(stone);\n            coinOwnerCount[_owner] = coinOwnerCount[_owner].sub(coin);\n            return true;\n        }\n        return false;\n    }\n\n    function getFoodAmount() public view returns(uint) {\n        return foodOwnerCount[msg.sender];\n    }\n\n    function getIronAmount() public view returns(uint) {\n        return ironOwnerCount[msg.sender];\n    }\n\n    function getStoneAmount() public view returns(uint) {\n        return stoneOwnerCount[msg.sender];\n    }\n\n    function getCoinAmount() public view returns(uint) {\n        return coinOwnerCount[msg.sender];\n    }\n\n    function getWoodAmount() public view returns(uint) {\n        return woodOwnerCount[msg.sender];\n    }\n}",
  "sourcePath": "/Users/seanwang0823/NMLab_Final/contracts/Resources.sol",
  "compiler": {
    "name": "solc",
    "version": "0.5.16+commit.9c3226ce.Emscripten.clang"
  },
  "schemaVersion": "3.4.0",
  "updatedAt": "2021-06-01T09:06:39.544Z",
  "devdoc": {
    "methods": {}
  },
  "userdoc": {
    "methods": {}
  }
}