{
  "contractName": "Barrack",
  "abi": [
    {
      "inputs": [
        {
          "internalType": "address",
          "name": "_building_address",
          "type": "address"
        },
        {
          "internalType": "address",
          "name": "_soldier_address",
          "type": "address"
        },
        {
          "internalType": "address",
          "name": "_spy_instance",
          "type": "address"
        },
        {
          "internalType": "address",
          "name": "_cannon_instance",
          "type": "address"
        },
        {
          "internalType": "address",
          "name": "_protector_instance",
          "type": "address"
        },
        {
          "internalType": "address",
          "name": "_wall_instance",
          "type": "address"
        },
        {
          "internalType": "address",
          "name": "_account_instance",
          "type": "address"
        }
      ],
      "payable": false,
      "stateMutability": "nonpayable",
      "type": "constructor"
    },
    {
      "constant": true,
      "inputs": [
        {
          "internalType": "address",
          "name": "",
          "type": "address"
        }
      ],
      "name": "ownerStartMarchTime",
      "outputs": [
        {
          "internalType": "uint256",
          "name": "",
          "type": "uint256"
        }
      ],
      "payable": false,
      "stateMutability": "view",
      "type": "function"
    },
    {
      "constant": true,
      "inputs": [
        {
          "internalType": "address",
          "name": "",
          "type": "address"
        }
      ],
      "name": "ownerTotalMarchTime",
      "outputs": [
        {
          "internalType": "uint256",
          "name": "",
          "type": "uint256"
        }
      ],
      "payable": false,
      "stateMutability": "view",
      "type": "function"
    },
    {
      "constant": false,
      "inputs": [
        {
          "internalType": "uint256",
          "name": "_x",
          "type": "uint256"
        },
        {
          "internalType": "uint256",
          "name": "_y",
          "type": "uint256"
        }
      ],
      "name": "createBarrack",
      "outputs": [],
      "payable": false,
      "stateMutability": "nonpayable",
      "type": "function"
    },
    {
      "constant": false,
      "inputs": [
        {
          "internalType": "string",
          "name": "a",
          "type": "string"
        },
        {
          "internalType": "string",
          "name": "b",
          "type": "string"
        }
      ],
      "name": "concatenate",
      "outputs": [
        {
          "internalType": "string",
          "name": "",
          "type": "string"
        }
      ],
      "payable": false,
      "stateMutability": "nonpayable",
      "type": "function"
    },
    {
      "constant": true,
      "inputs": [
        {
          "internalType": "address",
          "name": "_owner",
          "type": "address"
        }
      ],
      "name": "getSoldierAmount",
      "outputs": [
        {
          "internalType": "uint256",
          "name": "",
          "type": "uint256"
        }
      ],
      "payable": false,
      "stateMutability": "view",
      "type": "function"
    },
    {
      "constant": false,
      "inputs": [
        {
          "internalType": "uint256",
          "name": "number",
          "type": "uint256"
        }
      ],
      "name": "startCreateSoldier",
      "outputs": [
        {
          "internalType": "uint256",
          "name": "",
          "type": "uint256"
        }
      ],
      "payable": false,
      "stateMutability": "nonpayable",
      "type": "function"
    },
    {
      "constant": true,
      "inputs": [],
      "name": "getCreateSoldierTime",
      "outputs": [
        {
          "internalType": "uint256",
          "name": "",
          "type": "uint256"
        },
        {
          "internalType": "uint256",
          "name": "",
          "type": "uint256"
        }
      ],
      "payable": false,
      "stateMutability": "view",
      "type": "function"
    },
    {
      "constant": false,
      "inputs": [
        {
          "internalType": "address",
          "name": "_owner",
          "type": "address"
        }
      ],
      "name": "updateCreateSoldier",
      "outputs": [
        {
          "internalType": "uint256",
          "name": "",
          "type": "uint256"
        }
      ],
      "payable": false,
      "stateMutability": "nonpayable",
      "type": "function"
    },
    {
      "constant": true,
      "inputs": [
        {
          "internalType": "address",
          "name": "_owner",
          "type": "address"
        }
      ],
      "name": "getSpyAmount",
      "outputs": [
        {
          "internalType": "uint256",
          "name": "",
          "type": "uint256"
        }
      ],
      "payable": false,
      "stateMutability": "view",
      "type": "function"
    },
    {
      "constant": false,
      "inputs": [
        {
          "internalType": "uint256",
          "name": "number",
          "type": "uint256"
        }
      ],
      "name": "startCreateSpy",
      "outputs": [
        {
          "internalType": "uint256",
          "name": "",
          "type": "uint256"
        }
      ],
      "payable": false,
      "stateMutability": "nonpayable",
      "type": "function"
    },
    {
      "constant": true,
      "inputs": [],
      "name": "getCreateSpyTime",
      "outputs": [
        {
          "internalType": "uint256",
          "name": "",
          "type": "uint256"
        },
        {
          "internalType": "uint256",
          "name": "",
          "type": "uint256"
        }
      ],
      "payable": false,
      "stateMutability": "view",
      "type": "function"
    },
    {
      "constant": false,
      "inputs": [
        {
          "internalType": "address",
          "name": "_owner",
          "type": "address"
        }
      ],
      "name": "updateCreateSpy",
      "outputs": [
        {
          "internalType": "uint256",
          "name": "",
          "type": "uint256"
        }
      ],
      "payable": false,
      "stateMutability": "nonpayable",
      "type": "function"
    },
    {
      "constant": false,
      "inputs": [
        {
          "internalType": "uint256",
          "name": "_attackedCastleId",
          "type": "uint256"
        }
      ],
      "name": "startMarch",
      "outputs": [
        {
          "internalType": "uint256",
          "name": "",
          "type": "uint256"
        }
      ],
      "payable": false,
      "stateMutability": "nonpayable",
      "type": "function"
    },
    {
      "constant": true,
      "inputs": [],
      "name": "getMarchTime",
      "outputs": [
        {
          "internalType": "uint256",
          "name": "",
          "type": "uint256"
        },
        {
          "internalType": "uint256",
          "name": "",
          "type": "uint256"
        },
        {
          "internalType": "uint256",
          "name": "",
          "type": "uint256"
        }
      ],
      "payable": false,
      "stateMutability": "view",
      "type": "function"
    },
    {
      "constant": false,
      "inputs": [
        {
          "internalType": "address",
          "name": "_owner",
          "type": "address"
        }
      ],
      "name": "updateMarch",
      "outputs": [
        {
          "internalType": "uint256",
          "name": "",
          "type": "uint256"
        }
      ],
      "payable": false,
      "stateMutability": "nonpayable",
      "type": "function"
    },
    {
      "constant": false,
      "inputs": [
        {
          "internalType": "uint256",
          "name": "a",
          "type": "uint256"
        },
        {
          "internalType": "uint256",
          "name": "b",
          "type": "uint256"
        },
        {
          "internalType": "uint256",
          "name": "c",
          "type": "uint256"
        }
      ],
      "name": "is_annihilated",
      "outputs": [
        {
          "internalType": "bool",
          "name": "",
          "type": "bool"
        }
      ],
      "payable": false,
      "stateMutability": "nonpayable",
      "type": "function"
    },
    {
      "constant": false,
      "inputs": [
        {
          "internalType": "address",
          "name": "id",
          "type": "address"
        }
      ],
      "name": "annihilated",
      "outputs": [
        {
          "internalType": "bool",
          "name": "",
          "type": "bool"
        }
      ],
      "payable": false,
      "stateMutability": "nonpayable",
      "type": "function"
    },
    {
      "constant": false,
      "inputs": [
        {
          "internalType": "address",
          "name": "attack_id",
          "type": "address"
        },
        {
          "internalType": "address",
          "name": "defend_id",
          "type": "address"
        },
        {
          "internalType": "uint256",
          "name": "attacker_flag",
          "type": "uint256"
        },
        {
          "internalType": "uint256",
          "name": "defender_flag",
          "type": "uint256"
        },
        {
          "internalType": "uint256",
          "name": "attacker_q",
          "type": "uint256"
        },
        {
          "internalType": "uint256",
          "name": "defender_q",
          "type": "uint256"
        },
        {
          "internalType": "uint256",
          "name": "injure",
          "type": "uint256"
        }
      ],
      "name": "battle_army",
      "outputs": [
        {
          "internalType": "uint256",
          "name": "",
          "type": "uint256"
        },
        {
          "internalType": "uint256",
          "name": "",
          "type": "uint256"
        },
        {
          "internalType": "uint256",
          "name": "",
          "type": "uint256"
        }
      ],
      "payable": false,
      "stateMutability": "nonpayable",
      "type": "function"
    },
    {
      "constant": false,
      "inputs": [
        {
          "internalType": "address",
          "name": "_ownerId",
          "type": "address"
        },
        {
          "internalType": "address",
          "name": "_attackedCastleId",
          "type": "address"
        }
      ],
      "name": "attack",
      "outputs": [
        {
          "internalType": "uint256",
          "name": "",
          "type": "uint256"
        }
      ],
      "payable": false,
      "stateMutability": "nonpayable",
      "type": "function"
    },
    {
      "constant": false,
      "inputs": [
        {
          "internalType": "uint256",
          "name": "_ownerId",
          "type": "uint256"
        },
        {
          "internalType": "uint256",
          "name": "_attackedCastleId",
          "type": "uint256"
        }
      ],
      "name": "attack",
      "outputs": [],
      "payable": false,
      "stateMutability": "nonpayable",
      "type": "function"
    },
    {
      "constant": true,
      "inputs": [
        {
          "internalType": "uint256",
          "name": "_ownerId",
          "type": "uint256"
        },
        {
          "internalType": "uint256",
          "name": "_attackedCastleId",
          "type": "uint256"
        }
      ],
      "name": "sendSpy",
      "outputs": [
        {
          "internalType": "bool",
          "name": "",
          "type": "bool"
        }
      ],
      "payable": false,
      "stateMutability": "view",
      "type": "function"
    }
  ],
  "bytecode": "0x60806040526040518060400160405280600d81526020017fe688b0e9aca5e9968be5a78b0a000000000000000000000000000000000000008152506000908051906020019062000051929190620002a6565b503480156200005f57600080fd5b50604051620074c7380380620074c7833981810160405260e08110156200008557600080fd5b810190808051906020019092919080519060200190929190805190602001909291908051906020019092919080519060200190929190805190602001909291908051906020019092919050505086600360006101000a81548173ffffffffffffffffffffffffffffffffffffffff021916908373ffffffffffffffffffffffffffffffffffffffff16021790555085600460006101000a81548173ffffffffffffffffffffffffffffffffffffffff021916908373ffffffffffffffffffffffffffffffffffffffff16021790555084600760006101000a81548173ffffffffffffffffffffffffffffffffffffffff021916908373ffffffffffffffffffffffffffffffffffffffff16021790555082600560006101000a81548173ffffffffffffffffffffffffffffffffffffffff021916908373ffffffffffffffffffffffffffffffffffffffff16021790555083600660006101000a81548173ffffffffffffffffffffffffffffffffffffffff021916908373ffffffffffffffffffffffffffffffffffffffff16021790555080600860006101000a81548173ffffffffffffffffffffffffffffffffffffffff021916908373ffffffffffffffffffffffffffffffffffffffff16021790555081600960006101000a81548173ffffffffffffffffffffffffffffffffffffffff021916908373ffffffffffffffffffffffffffffffffffffffff1602179055505050505050505062000355565b828054600181600116156101000203166002900490600052602060002090601f016020900481019282601f10620002e957805160ff19168380011785556200031a565b828001600101855582156200031a579182015b8281111562000319578251825591602001919060010190620002fc565b5b5090506200032991906200032d565b5090565b6200035291905b808211156200034e57600081600090555060010162000334565b5090565b90565b61716280620003656000396000f3fe608060405234801561001057600080fd5b50600436106101375760003560e01c806378eb4df4116100b8578063e1fa76381161007c578063e1fa76381461075e578063e21843fd14610796578063ebf72492146107ee578063f104f7cb14610848578063f25a178214610874578063f6577c921461089957610137565b806378eb4df4146105f25780638c5f685414610634578063a4b1919d14610676578063b7c47d6e146106ce578063d345572b1461070657610137565b80633c48664c116100ff5780633c48664c1461042c57806347e870b2146104a457806351e45bf51461050057806356c8718b1461054257806369cddf1d1461059a57610137565b80630194b6131461013c578063058981e81461018c5780630acdea6f146101e45780631c1b625a14610209578063266001d314610261575b600080fd5b6101726004803603604081101561015257600080fd5b810190808035906020019092919080359060200190929190505050610951565b604051808215151515815260200191505060405180910390f35b6101ce600480360360208110156101a257600080fd5b81019080803573ffffffffffffffffffffffffffffffffffffffff169060200190929190505050610a11565b6040518082815260200191505060405180910390f35b6101ec610a29565b604051808381526020018281526020019250505060405180910390f35b61024b6004803603602081101561021f57600080fd5b81019080803573ffffffffffffffffffffffffffffffffffffffff169060200190929190505050610bea565b6040518082815260200191505060405180910390f35b6103b16004803603604081101561027757600080fd5b810190808035906020019064010000000081111561029457600080fd5b8201836020820111156102a657600080fd5b803590602001918460018302840111640100000000831117156102c857600080fd5b91908080601f016020809104026020016040519081016040528093929190818152602001838380828437600081840152601f19601f8201169050808301925050505050505091929192908035906020019064010000000081111561032b57600080fd5b82018360208201111561033d57600080fd5b8035906020019184600183028401116401000000008311171561035f57600080fd5b91908080601f016020809104026020016040519081016040528093929190818152602001838380828437600081840152601f19601f8201169050808301925050505050505091929192905050506116d6565b6040518080602001828103825283818151815260200191508051906020019080838360005b838110156103f15780820151818401526020810190506103d6565b50505050905090810190601f16801561041e5780820380516001836020036101000a031916815260200191505b509250505060405180910390f35b61048e6004803603604081101561044257600080fd5b81019080803573ffffffffffffffffffffffffffffffffffffffff169060200190929190803573ffffffffffffffffffffffffffffffffffffffff16906020019092919050505061179e565b6040518082815260200191505060405180910390f35b6104e6600480360360208110156104ba57600080fd5b81019080803573ffffffffffffffffffffffffffffffffffffffff169060200190929190505050613615565b604051808215151515815260200191505060405180910390f35b61052c6004803603602081101561051657600080fd5b81019080803590602001909291905050506138c1565b6040518082815260200191505060405180910390f35b6105846004803603602081101561055857600080fd5b81019080803573ffffffffffffffffffffffffffffffffffffffff169060200190929190505050613d50565b6040518082815260200191505060405180910390f35b6105dc600480360360208110156105b057600080fd5b81019080803573ffffffffffffffffffffffffffffffffffffffff169060200190929190505050613f6d565b6040518082815260200191505060405180910390f35b61061e6004803603602081101561060857600080fd5b8101908080359060200190929190505050614a59565b6040518082815260200191505060405180910390f35b6106606004803603602081101561064a57600080fd5b8101908080359060200190929190505050615035565b6040518082815260200191505060405180910390f35b6106b86004803603602081101561068c57600080fd5b81019080803573ffffffffffffffffffffffffffffffffffffffff169060200190929190505050615611565b6040518082815260200191505060405180910390f35b610704600480360360408110156106e457600080fd5b8101908080359060200190929190803590602001909291905050506156f4565b005b6107486004803603602081101561071c57600080fd5b81019080803573ffffffffffffffffffffffffffffffffffffffff169060200190929190505050615be8565b6040518082815260200191505060405180910390f35b6107946004803603604081101561077457600080fd5b810190808035906020019092919080359060200190929190505050615c00565b005b6107d8600480360360208110156107ac57600080fd5b81019080803573ffffffffffffffffffffffffffffffffffffffff169060200190929190505050615c04565b6040518082815260200191505060405180910390f35b61082e6004803603606081101561080457600080fd5b81019080803590602001909291908035906020019092919080359060200190929190505050615ce7565b604051808215151515815260200191505060405180910390f35b610850615d0a565b60405180848152602001838152602001828152602001935050505060405180910390f35b61087c615ddc565b604051808381526020018281526020019250505060405180910390f35b61092d600480360360e08110156108af57600080fd5b81019080803573ffffffffffffffffffffffffffffffffffffffff169060200190929190803573ffffffffffffffffffffffffffffffffffffffff1690602001909291908035906020019092919080359060200190929190803590602001909291908035906020019092919080359060200190929190505050615f9d565b60405180848152602001838152602001828152602001935050505060405180910390f35b6000600760009054906101000a900473ffffffffffffffffffffffffffffffffffffffff1673ffffffffffffffffffffffffffffffffffffffff16630194b61384846040518363ffffffff1660e01b8152600401808381526020018281526020019250505060206040518083038186803b1580156109ce57600080fd5b505afa1580156109e2573d6000803e3d6000fd5b505050506040513d60208110156109f857600080fd5b8101908080519060200190929190505050905092915050565b60026020528060005260406000206000915090505481565b600080600760009054906101000a900473ffffffffffffffffffffffffffffffffffffffff1673ffffffffffffffffffffffffffffffffffffffff16639073af81336040518263ffffffff1660e01b8152600401808273ffffffffffffffffffffffffffffffffffffffff1673ffffffffffffffffffffffffffffffffffffffff16815260200191505060206040518083038186803b158015610acb57600080fd5b505afa158015610adf573d6000803e3d6000fd5b505050506040513d6020811015610af557600080fd5b81019080805190602001909291905050504203600760009054906101000a900473ffffffffffffffffffffffffffffffffffffffff1673ffffffffffffffffffffffffffffffffffffffff1663b5c3e402336040518263ffffffff1660e01b8152600401808273ffffffffffffffffffffffffffffffffffffffff1673ffffffffffffffffffffffffffffffffffffffff16815260200191505060206040518083038186803b158015610ba757600080fd5b505afa158015610bbb573d6000803e3d6000fd5b505050506040513d6020811015610bd157600080fd5b8101908080519060200190929190505050915091509091565b600080600460009054906101000a900473ffffffffffffffffffffffffffffffffffffffff1673ffffffffffffffffffffffffffffffffffffffff16639073af81846040518263ffffffff1660e01b8152600401808273ffffffffffffffffffffffffffffffffffffffff1673ffffffffffffffffffffffffffffffffffffffff16815260200191505060206040518083038186803b158015610c8c57600080fd5b505afa158015610ca0573d6000803e3d6000fd5b505050506040513d6020811015610cb657600080fd5b81019080805190602001909291905050501415610cd657600090506116d1565b610e9b600460009054906101000a900473ffffffffffffffffffffffffffffffffffffffff1673ffffffffffffffffffffffffffffffffffffffff16630c2b6904846040518263ffffffff1660e01b8152600401808273ffffffffffffffffffffffffffffffffffffffff1673ffffffffffffffffffffffffffffffffffffffff16815260200191505060206040518083038186803b158015610d7857600080fd5b505afa158015610d8c573d6000803e3d6000fd5b505050506040513d6020811015610da257600080fd5b8101908080519060200190929190505050600460009054906101000a900473ffffffffffffffffffffffffffffffffffffffff1673ffffffffffffffffffffffffffffffffffffffff16639073af81856040518263ffffffff1660e01b8152600401808273ffffffffffffffffffffffffffffffffffffffff1673ffffffffffffffffffffffffffffffffffffffff16815260200191505060206040518083038186803b158015610e5257600080fd5b505afa158015610e66573d6000803e3d6000fd5b505050506040513d6020811015610e7c57600080fd5b8101908080519060200190929190505050616b0790919063ffffffff16565b421061150157600061111c611034600460009054906101000a900473ffffffffffffffffffffffffffffffffffffffff1673ffffffffffffffffffffffffffffffffffffffff166347dcb51c6040518163ffffffff1660e01b815260040160206040518083038186803b158015610f1157600080fd5b505afa158015610f25573d6000803e3d6000fd5b505050506040513d6020811015610f3b57600080fd5b8101908080519060200190929190505050600460009054906101000a900473ffffffffffffffffffffffffffffffffffffffff1673ffffffffffffffffffffffffffffffffffffffff166329058536876040518263ffffffff1660e01b8152600401808273ffffffffffffffffffffffffffffffffffffffff1673ffffffffffffffffffffffffffffffffffffffff16815260200191505060206040518083038186803b158015610feb57600080fd5b505afa158015610fff573d6000803e3d6000fd5b505050506040513d602081101561101557600080fd5b8101908080519060200190929190505050616b8f90919063ffffffff16565b600460009054906101000a900473ffffffffffffffffffffffffffffffffffffffff1673ffffffffffffffffffffffffffffffffffffffff16630c2b6904866040518263ffffffff1660e01b8152600401808273ffffffffffffffffffffffffffffffffffffffff1673ffffffffffffffffffffffffffffffffffffffff16815260200191505060206040518083038186803b1580156110d357600080fd5b505afa1580156110e7573d6000803e3d6000fd5b505050506040513d60208110156110fd57600080fd5b8101908080519060200190929190505050616c1590919063ffffffff16565b9050600460009054906101000a900473ffffffffffffffffffffffffffffffffffffffff1673ffffffffffffffffffffffffffffffffffffffff16633dabc4df8483600460009054906101000a900473ffffffffffffffffffffffffffffffffffffffff1673ffffffffffffffffffffffffffffffffffffffff16635697b21a886040518263ffffffff1660e01b8152600401808273ffffffffffffffffffffffffffffffffffffffff1673ffffffffffffffffffffffffffffffffffffffff16815260200191505060206040518083038186803b1580156111fd57600080fd5b505afa158015611211573d6000803e3d6000fd5b505050506040513d602081101561122757600080fd5b8101908080519060200190929190505050016040518363ffffffff1660e01b8152600401808373ffffffffffffffffffffffffffffffffffffffff1673ffffffffffffffffffffffffffffffffffffffff16815260200182815260200192505050600060405180830381600087803b1580156112a257600080fd5b505af11580156112b6573d6000803e3d6000fd5b50505050600460009054906101000a900473ffffffffffffffffffffffffffffffffffffffff1673ffffffffffffffffffffffffffffffffffffffff16638ed972028460006040518363ffffffff1660e01b8152600401808373ffffffffffffffffffffffffffffffffffffffff1673ffffffffffffffffffffffffffffffffffffffff16815260200182815260200192505050600060405180830381600087803b15801561136457600080fd5b505af1158015611378573d6000803e3d6000fd5b50505050600460009054906101000a900473ffffffffffffffffffffffffffffffffffffffff1673ffffffffffffffffffffffffffffffffffffffff16637e23dbd18460006040518363ffffffff1660e01b8152600401808373ffffffffffffffffffffffffffffffffffffffff1673ffffffffffffffffffffffffffffffffffffffff16815260200182815260200192505050600060405180830381600087803b15801561142657600080fd5b505af115801561143a573d6000803e3d6000fd5b50505050600460009054906101000a900473ffffffffffffffffffffffffffffffffffffffff1673ffffffffffffffffffffffffffffffffffffffff16632f47faeb846040518263ffffffff1660e01b8152600401808273ffffffffffffffffffffffffffffffffffffffff1673ffffffffffffffffffffffffffffffffffffffff168152602001915050600060405180830381600087803b1580156114df57600080fd5b505af11580156114f3573d6000803e3d6000fd5b5050505060009150506116d1565b60006116ca42600460009054906101000a900473ffffffffffffffffffffffffffffffffffffffff1673ffffffffffffffffffffffffffffffffffffffff16630c2b6904866040518263ffffffff1660e01b8152600401808273ffffffffffffffffffffffffffffffffffffffff1673ffffffffffffffffffffffffffffffffffffffff16815260200191505060206040518083038186803b1580156115a657600080fd5b505afa1580156115ba573d6000803e3d6000fd5b505050506040513d60208110156115d057600080fd5b8101908080519060200190929190505050600460009054906101000a900473ffffffffffffffffffffffffffffffffffffffff1673ffffffffffffffffffffffffffffffffffffffff16639073af81876040518263ffffffff1660e01b8152600401808273ffffffffffffffffffffffffffffffffffffffff1673ffffffffffffffffffffffffffffffffffffffff16815260200191505060206040518083038186803b15801561168057600080fd5b505afa158015611694573d6000803e3d6000fd5b505050506040513d60208110156116aa57600080fd5b810190808051906020019092919050505001616c5f90919063ffffffff16565b9050809150505b919050565b606082826040516020018083805190602001908083835b6020831061171057805182526020820191506020810190506020830392506116ed565b6001836020036101000a03801982511681845116808217855250505050505090500182805190602001908083835b60208310611761578051825260208201915060208101905060208303925061173e565b6001836020036101000a03801982511681845116808217855250505050505090500192505050604051602081830303815290604052905092915050565b6000806000806005600460009054906101000a900473ffffffffffffffffffffffffffffffffffffffff1673ffffffffffffffffffffffffffffffffffffffff166329058536886040518263ffffffff1660e01b8152600401808273ffffffffffffffffffffffffffffffffffffffff1673ffffffffffffffffffffffffffffffffffffffff16815260200191505060206040518083038186803b15801561184557600080fd5b505afa158015611859573d6000803e3d6000fd5b505050506040513d602081101561186f57600080fd5b810190808051906020019092919050505002603201905060006008600560009054906101000a900473ffffffffffffffffffffffffffffffffffffffff1673ffffffffffffffffffffffffffffffffffffffff1663b47711fa896040518263ffffffff1660e01b8152600401808273ffffffffffffffffffffffffffffffffffffffff1673ffffffffffffffffffffffffffffffffffffffff16815260200191505060206040518083038186803b15801561192957600080fd5b505afa15801561193d573d6000803e3d6000fd5b505050506040513d602081101561195357600080fd5b81019080805190602001909291905050500260500190506000600a600660009054906101000a900473ffffffffffffffffffffffffffffffffffffffff1673ffffffffffffffffffffffffffffffffffffffff1663d0bb9e908a6040518263ffffffff1660e01b8152600401808273ffffffffffffffffffffffffffffffffffffffff1673ffffffffffffffffffffffffffffffffffffffff16815260200191505060206040518083038186803b158015611a0d57600080fd5b505afa158015611a21573d6000803e3d6000fd5b505050506040513d6020811015611a3757600080fd5b810190808051906020019092919050505002606401905060006005600460009054906101000a900473ffffffffffffffffffffffffffffffffffffffff1673ffffffffffffffffffffffffffffffffffffffff1663290585368a6040518263ffffffff1660e01b8152600401808273ffffffffffffffffffffffffffffffffffffffff1673ffffffffffffffffffffffffffffffffffffffff16815260200191505060206040518083038186803b158015611af157600080fd5b505afa158015611b05573d6000803e3d6000fd5b505050506040513d6020811015611b1b57600080fd5b810190808051906020019092919050505002603201905060006008600560009054906101000a900473ffffffffffffffffffffffffffffffffffffffff1673ffffffffffffffffffffffffffffffffffffffff1663b47711fa8b6040518263ffffffff1660e01b8152600401808273ffffffffffffffffffffffffffffffffffffffff1673ffffffffffffffffffffffffffffffffffffffff16815260200191505060206040518083038186803b158015611bd557600080fd5b505afa158015611be9573d6000803e3d6000fd5b505050506040513d6020811015611bff57600080fd5b81019080805190602001909291905050500260500190506000600a600660009054906101000a900473ffffffffffffffffffffffffffffffffffffffff1673ffffffffffffffffffffffffffffffffffffffff1663d0bb9e908c6040518263ffffffff1660e01b8152600401808273ffffffffffffffffffffffffffffffffffffffff1673ffffffffffffffffffffffffffffffffffffffff16815260200191505060206040518083038186803b158015611cb957600080fd5b505afa158015611ccd573d6000803e3d6000fd5b505050506040513d6020811015611ce357600080fd5b81019080805190602001909291905050500260640190506000809050611f95600660009054906101000a900473ffffffffffffffffffffffffffffffffffffffff1673ffffffffffffffffffffffffffffffffffffffff1663fad28ce48d6040518263ffffffff1660e01b8152600401808273ffffffffffffffffffffffffffffffffffffffff1673ffffffffffffffffffffffffffffffffffffffff16815260200191505060206040518083038186803b158015611da157600080fd5b505afa158015611db5573d6000803e3d6000fd5b505050506040513d6020811015611dcb57600080fd5b8101908080519060200190929190505050600460009054906101000a900473ffffffffffffffffffffffffffffffffffffffff1673ffffffffffffffffffffffffffffffffffffffff1663a4b1919d8e6040518263ffffffff1660e01b8152600401808273ffffffffffffffffffffffffffffffffffffffff1673ffffffffffffffffffffffffffffffffffffffff16815260200191505060206040518083038186803b158015611e7b57600080fd5b505afa158015611e8f573d6000803e3d6000fd5b505050506040513d6020811015611ea557600080fd5b8101908080519060200190929190505050600560009054906101000a900473ffffffffffffffffffffffffffffffffffffffff1673ffffffffffffffffffffffffffffffffffffffff1663718963788f6040518263ffffffff1660e01b8152600401808273ffffffffffffffffffffffffffffffffffffffff1673ffffffffffffffffffffffffffffffffffffffff16815260200191505060206040518083038186803b158015611f5557600080fd5b505afa158015611f69573d6000803e3d6000fd5b505050506040513d6020811015611f7f57600080fd5b8101908080519060200190929190505050615ce7565b156120715761205660008054600181600116156101000203166002900480601f0160208091040260200160405190810160405280929190818152602001828054600181600116156101000203166002900480156120335780601f1061200857610100808354040283529160200191612033565b820191906000526020600020905b81548152906001019060200180831161201657829003601f168201915b505050505060405180606001604052806024815260200161710a602491396116d6565b6000908051906020019061206b929190616e2f565b50613605565b5b6014811015613604576120848c613615565b1561216d5761214560008054600181600116156101000203166002900480601f0160208091040260200160405190810160405280929190818152602001828054600181600116156101000203166002900480156121225780601f106120f757610100808354040283529160200191612122565b820191906000526020600020905b81548152906001019060200180831161210557829003601f168201915b50505050506040518060600160405280602d8152602001617088602d91396116d6565b6000908051906020019061215a929190616e2f565b506001995050505050505050505061360f565b6121768b613615565b1561225f5761223760008054600181600116156101000203166002900480601f0160208091040260200160405190810160405280929190818152602001828054600181600116156101000203166002900480156122145780601f106121e957610100808354040283529160200191612214565b820191906000526020600020905b8154815290600101906020018083116121f757829003601f168201915b5050505050604051806060016040528060338152602001616fc9603391396116d6565b6000908051906020019061224c929190616e2f565b506001995050505050505050505061360f565b600181019050600560009054906101000a900473ffffffffffffffffffffffffffffffffffffffff1673ffffffffffffffffffffffffffffffffffffffff1663718963788c6040518263ffffffff1660e01b8152600401808273ffffffffffffffffffffffffffffffffffffffff1673ffffffffffffffffffffffffffffffffffffffff16815260200191505060206040518083038186803b15801561230457600080fd5b505afa158015612318573d6000803e3d6000fd5b505050506040513d602081101561232e57600080fd5b8101908080519060200190929190505050985060008914612c325761242260008054600181600116156101000203166002900480601f0160208091040260200160405190810160405280929190818152602001828054600181600116156101000203166002900480156123e25780601f106123b7576101008083540402835291602001916123e2565b820191906000526020600020905b8154815290600101906020018083116123c557829003601f168201915b50505050506040518060400160405280601c81526020017f0ae695b5e696b9e5ae88e8a19be88085e584aae58588e694bbe6938a000000008152506116d6565b60009080519060200190612437929190616e2f565b50600460009054906101000a900473ffffffffffffffffffffffffffffffffffffffff1673ffffffffffffffffffffffffffffffffffffffff1663a4b1919d8d6040518263ffffffff1660e01b8152600401808273ffffffffffffffffffffffffffffffffffffffff1673ffffffffffffffffffffffffffffffffffffffff16815260200191505060206040518083038186803b1580156124d757600080fd5b505afa1580156124eb573d6000803e3d6000fd5b505050506040513d602081101561250157600080fd5b81019080805190602001909291905050509750600088146126ea576125f560008054600181600116156101000203166002900480601f0160208091040260200160405190810160405280929190818152602001828054600181600116156101000203166002900480156125b55780601f1061258a576101008083540402835291602001916125b5565b820191906000526020600020905b81548152906001019060200180831161259857829003601f168201915b50505050506040518060400160405280601981526020017f2ce694bbe6938ae980b2e68891e696b9e7a59ee6a78de6898b000000000000008152506116d6565b6000908051906020019061260a929190616e2f565b5061261c8b8d600060018d8d8d615f9d565b809950819a50829b50505050600460009054906101000a900473ffffffffffffffffffffffffffffffffffffffff1673ffffffffffffffffffffffffffffffffffffffff16633dabc4df8d8a6040518363ffffffff1660e01b8152600401808373ffffffffffffffffffffffffffffffffffffffff1673ffffffffffffffffffffffffffffffffffffffff16815260200182815260200192505050600060405180830381600087803b1580156126d157600080fd5b505af11580156126e5573d6000803e3d6000fd5b505050505b600560009054906101000a900473ffffffffffffffffffffffffffffffffffffffff1673ffffffffffffffffffffffffffffffffffffffff1663718963788d6040518263ffffffff1660e01b8152600401808273ffffffffffffffffffffffffffffffffffffffff1673ffffffffffffffffffffffffffffffffffffffff16815260200191505060206040518083038186803b15801561278957600080fd5b505afa15801561279d573d6000803e3d6000fd5b505050506040513d60208110156127b357600080fd5b81019080805190602001909291905050509750600089141580156127d8575060008814155b1561298d5761289960008054600181600116156101000203166002900480601f0160208091040260200160405190810160405280929190818152602001828054600181600116156101000203166002900480156128765780601f1061284b57610100808354040283529160200191612876565b820191906000526020600020905b81548152906001019060200180831161285957829003601f168201915b50505050506040518060600160405280603181526020016170d9603191396116d6565b600090805190602001906128ae929190616e2f565b506128bf8b8d6000808d8d8c615f9d565b809850819a50829b50505050600560009054906101000a900473ffffffffffffffffffffffffffffffffffffffff1673ffffffffffffffffffffffffffffffffffffffff1663dda0a3bf8d8a6040518363ffffffff1660e01b8152600401808373ffffffffffffffffffffffffffffffffffffffff1673ffffffffffffffffffffffffffffffffffffffff16815260200182815260200192505050600060405180830381600087803b15801561297457600080fd5b505af1158015612988573d6000803e3d6000fd5b505050505b600660009054906101000a900473ffffffffffffffffffffffffffffffffffffffff1673ffffffffffffffffffffffffffffffffffffffff1663fad28ce48d6040518263ffffffff1660e01b8152600401808273ffffffffffffffffffffffffffffffffffffffff1673ffffffffffffffffffffffffffffffffffffffff16815260200191505060206040518083038186803b158015612a2c57600080fd5b505afa158015612a40573d6000803e3d6000fd5b505050506040513d6020811015612a5657600080fd5b8101908080519060200190929190505050975060008914158015612a7b575060008814155b15612c3157612b3c60008054600181600116156101000203166002900480601f016020809104026020016040519081016040528092919081815260200182805460018160011615610100020316600290048015612b195780601f10612aee57610100808354040283529160200191612b19565b820191906000526020600020905b815481529060010190602001808311612afc57829003601f168201915b50505050506040518060600160405280602e8152602001616f21602e91396116d6565b60009080519060200190612b51929190616e2f565b50612b638b8d600060028d8d8b615f9d565b809750819a50829b50505050600660009054906101000a900473ffffffffffffffffffffffffffffffffffffffff1673ffffffffffffffffffffffffffffffffffffffff16632b16a5648d8a6040518363ffffffff1660e01b8152600401808373ffffffffffffffffffffffffffffffffffffffff1673ffffffffffffffffffffffffffffffffffffffff16815260200182815260200192505050600060405180830381600087803b158015612c1857600080fd5b505af1158015612c2c573d6000803e3d6000fd5b505050505b5b600460009054906101000a900473ffffffffffffffffffffffffffffffffffffffff1673ffffffffffffffffffffffffffffffffffffffff1663a4b1919d8d6040518263ffffffff1660e01b8152600401808273ffffffffffffffffffffffffffffffffffffffff1673ffffffffffffffffffffffffffffffffffffffff16815260200191505060206040518083038186803b158015612cd157600080fd5b505afa158015612ce5573d6000803e3d6000fd5b505050506040513d6020811015612cfb57600080fd5b81019080805190602001909291905050509850600089146135ff57612def60008054600181600116156101000203166002900480601f016020809104026020016040519081016040528092919081815260200182805460018160011615610100020316600290048015612daf5780601f10612d8457610100808354040283529160200191612daf565b820191906000526020600020905b815481529060010190602001808311612d9257829003601f168201915b50505050506040518060400160405280601681526020017f0ae68891e696b9e7a59ee6a78de6898be694bbe6938a000000000000000000008152506116d6565b60009080519060200190612e04929190616e2f565b50600460009054906101000a900473ffffffffffffffffffffffffffffffffffffffff1673ffffffffffffffffffffffffffffffffffffffff1663a4b1919d8c6040518263ffffffff1660e01b8152600401808273ffffffffffffffffffffffffffffffffffffffff1673ffffffffffffffffffffffffffffffffffffffff16815260200191505060206040518083038186803b158015612ea457600080fd5b505afa158015612eb8573d6000803e3d6000fd5b505050506040513d6020811015612ece57600080fd5b81019080805190602001909291905050509750600088146130b657612fc260008054600181600116156101000203166002900480601f016020809104026020016040519081016040528092919081815260200182805460018160011615610100020316600290048015612f825780601f10612f5757610100808354040283529160200191612f82565b820191906000526020600020905b815481529060010190602001808311612f6557829003601f168201915b50505050506040518060400160405280601681526020017f2ce694bbe6938ae695b5e696b9e7a59ee6a78de6898b000000000000000000008152506116d6565b60009080519060200190612fd7929190616e2f565b50612fe88c8c6001808d8d8a615f9d565b809650819a50829b50505050600460009054906101000a900473ffffffffffffffffffffffffffffffffffffffff1673ffffffffffffffffffffffffffffffffffffffff16633dabc4df8c8a6040518363ffffffff1660e01b8152600401808373ffffffffffffffffffffffffffffffffffffffff1673ffffffffffffffffffffffffffffffffffffffff16815260200182815260200192505050600060405180830381600087803b15801561309d57600080fd5b505af11580156130b1573d6000803e3d6000fd5b505050505b600560009054906101000a900473ffffffffffffffffffffffffffffffffffffffff1673ffffffffffffffffffffffffffffffffffffffff1663718963788c6040518263ffffffff1660e01b8152600401808273ffffffffffffffffffffffffffffffffffffffff1673ffffffffffffffffffffffffffffffffffffffff16815260200191505060206040518083038186803b15801561315557600080fd5b505afa158015613169573d6000803e3d6000fd5b505050506040513d602081101561317f57600080fd5b81019080805190602001909291905050509750600089141580156131a4575060008814155b1561335a5761326560008054600181600116156101000203166002900480601f0160208091040260200160405190810160405280929190818152602001828054600181600116156101000203166002900480156132425780601f1061321757610100808354040283529160200191613242565b820191906000526020600020905b81548152906001019060200180831161322557829003601f168201915b5050505050604051806060016040528060318152602001616f4f603191396116d6565b6000908051906020019061327a929190616e2f565b5061328c8c8c600160008d8d89615f9d565b809550819a50829b50505050600560009054906101000a900473ffffffffffffffffffffffffffffffffffffffff1673ffffffffffffffffffffffffffffffffffffffff1663dda0a3bf8c8a6040518363ffffffff1660e01b8152600401808373ffffffffffffffffffffffffffffffffffffffff1673ffffffffffffffffffffffffffffffffffffffff16815260200182815260200192505050600060405180830381600087803b15801561334157600080fd5b505af1158015613355573d6000803e3d6000fd5b505050505b600660009054906101000a900473ffffffffffffffffffffffffffffffffffffffff1673ffffffffffffffffffffffffffffffffffffffff1663fad28ce48c6040518263ffffffff1660e01b8152600401808273ffffffffffffffffffffffffffffffffffffffff1673ffffffffffffffffffffffffffffffffffffffff16815260200191505060206040518083038186803b1580156133f957600080fd5b505afa15801561340d573d6000803e3d6000fd5b505050506040513d602081101561342357600080fd5b8101908080519060200190929190505050975060008914158015613448575060008814155b156135fe5761350960008054600181600116156101000203166002900480601f0160208091040260200160405190810160405280929190818152602001828054600181600116156101000203166002900480156134e65780601f106134bb576101008083540402835291602001916134e6565b820191906000526020600020905b8154815290600101906020018083116134c957829003601f168201915b50505050506040518060600160405280602e8152602001616ffc602e91396116d6565b6000908051906020019061351e929190616e2f565b506135308c8c600160028d8d88615f9d565b809450819a50829b50505050600660009054906101000a900473ffffffffffffffffffffffffffffffffffffffff1673ffffffffffffffffffffffffffffffffffffffff16632b16a5648c8a6040518363ffffffff1660e01b8152600401808373ffffffffffffffffffffffffffffffffffffffff1673ffffffffffffffffffffffffffffffffffffffff16815260200182815260200192505050600060405180830381600087803b1580156135e557600080fd5b505af11580156135f9573d6000803e3d6000fd5b505050505b5b612072565b5b5050505050505050505b92915050565b600080600660009054906101000a900473ffffffffffffffffffffffffffffffffffffffff1673ffffffffffffffffffffffffffffffffffffffff1663fad28ce4846040518263ffffffff1660e01b8152600401808273ffffffffffffffffffffffffffffffffffffffff1673ffffffffffffffffffffffffffffffffffffffff16815260200191505060206040518083038186803b1580156136b757600080fd5b505afa1580156136cb573d6000803e3d6000fd5b505050506040513d60208110156136e157600080fd5b8101908080519060200190929190505050600560009054906101000a900473ffffffffffffffffffffffffffffffffffffffff1673ffffffffffffffffffffffffffffffffffffffff166371896378856040518263ffffffff1660e01b8152600401808273ffffffffffffffffffffffffffffffffffffffff1673ffffffffffffffffffffffffffffffffffffffff16815260200191505060206040518083038186803b15801561379157600080fd5b505afa1580156137a5573d6000803e3d6000fd5b505050506040513d60208110156137bb57600080fd5b8101908080519060200190929190505050600460009054906101000a900473ffffffffffffffffffffffffffffffffffffffff1673ffffffffffffffffffffffffffffffffffffffff1663a4b1919d866040518263ffffffff1660e01b8152600401808273ffffffffffffffffffffffffffffffffffffffff1673ffffffffffffffffffffffffffffffffffffffff16815260200191505060206040518083038186803b15801561386b57600080fd5b505afa15801561387f573d6000803e3d6000fd5b505050506040513d602081101561389557600080fd5b8101908080519060200190929190505050010114156138b757600190506138bc565b600090505b919050565b6000803390506000600860009054906101000a900473ffffffffffffffffffffffffffffffffffffffff1673ffffffffffffffffffffffffffffffffffffffff1663f4ab27f0856040518263ffffffff1660e01b81526004018082815260200191505060206040518083038186803b15801561393c57600080fd5b505afa158015613950573d6000803e3d6000fd5b505050506040513d602081101561396657600080fd5b810190808051906020019092919050505090506000600160008473ffffffffffffffffffffffffffffffffffffffff1673ffffffffffffffffffffffffffffffffffffffff16815260200190815260200160002054146139cb57600092505050613d4b565b6000600860009054906101000a900473ffffffffffffffffffffffffffffffffffffffff1673ffffffffffffffffffffffffffffffffffffffff16631e9ac0bf84606460006064600060646040518763ffffffff1660e01b8152600401808773ffffffffffffffffffffffffffffffffffffffff1673ffffffffffffffffffffffffffffffffffffffff1681526020018681526020018581526020018481526020018381526020018281526020019650505050505050602060405180830381600087803b158015613a9b57600080fd5b505af1158015613aaf573d6000803e3d6000fd5b505050506040513d6020811015613ac557600080fd5b81019080805190602001909291905050509050809050600015158115151415613af45760009350505050613d4b565b42600160008573ffffffffffffffffffffffffffffffffffffffff1673ffffffffffffffffffffffffffffffffffffffff168152602001908152602001600020819055506014600260008573ffffffffffffffffffffffffffffffffffffffff1673ffffffffffffffffffffffffffffffffffffffff16815260200190815260200160002081905550600860009054906101000a900473ffffffffffffffffffffffffffffffffffffffff1673ffffffffffffffffffffffffffffffffffffffff1663ec6daa3083600186600160008973ffffffffffffffffffffffffffffffffffffffff1673ffffffffffffffffffffffffffffffffffffffff16815260200190815260200160002054600260008a73ffffffffffffffffffffffffffffffffffffffff1673ffffffffffffffffffffffffffffffffffffffff168152602001908152602001600020546040518663ffffffff1660e01b8152600401808673ffffffffffffffffffffffffffffffffffffffff1673ffffffffffffffffffffffffffffffffffffffff168152602001851515151581526020018473ffffffffffffffffffffffffffffffffffffffff1673ffffffffffffffffffffffffffffffffffffffff16815260200183815260200182815260200195505050505050600060405180830381600087803b158015613ced57600080fd5b505af1158015613d01573d6000803e3d6000fd5b50505050600260008473ffffffffffffffffffffffffffffffffffffffff1673ffffffffffffffffffffffffffffffffffffffff1681526020019081526020016000205493505050505b919050565b600080600160008473ffffffffffffffffffffffffffffffffffffffff1673ffffffffffffffffffffffffffffffffffffffff168152602001908152602001600020541415613da25760009050613f68565b613e33600260008473ffffffffffffffffffffffffffffffffffffffff1673ffffffffffffffffffffffffffffffffffffffff16815260200190815260200160002054600160008573ffffffffffffffffffffffffffffffffffffffff1673ffffffffffffffffffffffffffffffffffffffff16815260200190815260200160002054616b0790919063ffffffff16565b4210613ecc576000600160008473ffffffffffffffffffffffffffffffffffffffff1673ffffffffffffffffffffffffffffffffffffffff168152602001908152602001600020819055506000600260008473ffffffffffffffffffffffffffffffffffffffff1673ffffffffffffffffffffffffffffffffffffffff1681526020019081526020016000208190555060009050613f68565b6000613f6142600260008673ffffffffffffffffffffffffffffffffffffffff1673ffffffffffffffffffffffffffffffffffffffff16815260200190815260200160002054600160008773ffffffffffffffffffffffffffffffffffffffff1673ffffffffffffffffffffffffffffffffffffffff1681526020019081526020016000205401616c5f90919063ffffffff16565b9050809150505b919050565b600080600760009054906101000a900473ffffffffffffffffffffffffffffffffffffffff1673ffffffffffffffffffffffffffffffffffffffff16639073af81846040518263ffffffff1660e01b8152600401808273ffffffffffffffffffffffffffffffffffffffff1673ffffffffffffffffffffffffffffffffffffffff16815260200191505060206040518083038186803b15801561400f57600080fd5b505afa158015614023573d6000803e3d6000fd5b505050506040513d602081101561403957600080fd5b810190808051906020019092919050505014156140595760009050614a54565b61421e600760009054906101000a900473ffffffffffffffffffffffffffffffffffffffff1673ffffffffffffffffffffffffffffffffffffffff1663b5c3e402846040518263ffffffff1660e01b8152600401808273ffffffffffffffffffffffffffffffffffffffff1673ffffffffffffffffffffffffffffffffffffffff16815260200191505060206040518083038186803b1580156140fb57600080fd5b505afa15801561410f573d6000803e3d6000fd5b505050506040513d602081101561412557600080fd5b8101908080519060200190929190505050600760009054906101000a900473ffffffffffffffffffffffffffffffffffffffff1673ffffffffffffffffffffffffffffffffffffffff16639073af81856040518263ffffffff1660e01b8152600401808273ffffffffffffffffffffffffffffffffffffffff1673ffffffffffffffffffffffffffffffffffffffff16815260200191505060206040518083038186803b1580156141d557600080fd5b505afa1580156141e9573d6000803e3d6000fd5b505050506040513d60208110156141ff57600080fd5b8101908080519060200190929190505050616b0790919063ffffffff16565b421061488457600061449f6143b7600760009054906101000a900473ffffffffffffffffffffffffffffffffffffffff1673ffffffffffffffffffffffffffffffffffffffff16634807c3d56040518163ffffffff1660e01b815260040160206040518083038186803b15801561429457600080fd5b505afa1580156142a8573d6000803e3d6000fd5b505050506040513d60208110156142be57600080fd5b8101908080519060200190929190505050600760009054906101000a900473ffffffffffffffffffffffffffffffffffffffff1673ffffffffffffffffffffffffffffffffffffffff1663de634152876040518263ffffffff1660e01b8152600401808273ffffffffffffffffffffffffffffffffffffffff1673ffffffffffffffffffffffffffffffffffffffff16815260200191505060206040518083038186803b15801561436e57600080fd5b505afa158015614382573d6000803e3d6000fd5b505050506040513d602081101561439857600080fd5b8101908080519060200190929190505050616b8f90919063ffffffff16565b600760009054906101000a900473ffffffffffffffffffffffffffffffffffffffff1673ffffffffffffffffffffffffffffffffffffffff1663b5c3e402866040518263ffffffff1660e01b8152600401808273ffffffffffffffffffffffffffffffffffffffff1673ffffffffffffffffffffffffffffffffffffffff16815260200191505060206040518083038186803b15801561445657600080fd5b505afa15801561446a573d6000803e3d6000fd5b505050506040513d602081101561448057600080fd5b8101908080519060200190929190505050616c1590919063ffffffff16565b9050600760009054906101000a900473ffffffffffffffffffffffffffffffffffffffff1673ffffffffffffffffffffffffffffffffffffffff16632d96a77b8483600760009054906101000a900473ffffffffffffffffffffffffffffffffffffffff1673ffffffffffffffffffffffffffffffffffffffff1663af3437ae886040518263ffffffff1660e01b8152600401808273ffffffffffffffffffffffffffffffffffffffff1673ffffffffffffffffffffffffffffffffffffffff16815260200191505060206040518083038186803b15801561458057600080fd5b505afa158015614594573d6000803e3d6000fd5b505050506040513d60208110156145aa57600080fd5b8101908080519060200190929190505050016040518363ffffffff1660e01b8152600401808373ffffffffffffffffffffffffffffffffffffffff1673ffffffffffffffffffffffffffffffffffffffff16815260200182815260200192505050600060405180830381600087803b15801561462557600080fd5b505af1158015614639573d6000803e3d6000fd5b50505050600760009054906101000a900473ffffffffffffffffffffffffffffffffffffffff1673ffffffffffffffffffffffffffffffffffffffff16638ed972028460006040518363ffffffff1660e01b8152600401808373ffffffffffffffffffffffffffffffffffffffff1673ffffffffffffffffffffffffffffffffffffffff16815260200182815260200192505050600060405180830381600087803b1580156146e757600080fd5b505af11580156146fb573d6000803e3d6000fd5b50505050600760009054906101000a900473ffffffffffffffffffffffffffffffffffffffff1673ffffffffffffffffffffffffffffffffffffffff1663801e95908460006040518363ffffffff1660e01b8152600401808373ffffffffffffffffffffffffffffffffffffffff1673ffffffffffffffffffffffffffffffffffffffff16815260200182815260200192505050600060405180830381600087803b1580156147a957600080fd5b505af11580156147bd573d6000803e3d6000fd5b50505050600760009054906101000a900473ffffffffffffffffffffffffffffffffffffffff1673ffffffffffffffffffffffffffffffffffffffff1663f6716496846040518263ffffffff1660e01b8152600401808273ffffffffffffffffffffffffffffffffffffffff1673ffffffffffffffffffffffffffffffffffffffff168152602001915050600060405180830381600087803b15801561486257600080fd5b505af1158015614876573d6000803e3d6000fd5b505050506000915050614a54565b6000614a4d42600760009054906101000a900473ffffffffffffffffffffffffffffffffffffffff1673ffffffffffffffffffffffffffffffffffffffff1663b5c3e402866040518263ffffffff1660e01b8152600401808273ffffffffffffffffffffffffffffffffffffffff1673ffffffffffffffffffffffffffffffffffffffff16815260200191505060206040518083038186803b15801561492957600080fd5b505afa15801561493d573d6000803e3d6000fd5b505050506040513d602081101561495357600080fd5b8101908080519060200190929190505050600760009054906101000a900473ffffffffffffffffffffffffffffffffffffffff1673ffffffffffffffffffffffffffffffffffffffff16639073af81876040518263ffffffff1660e01b8152600401808273ffffffffffffffffffffffffffffffffffffffff1673ffffffffffffffffffffffffffffffffffffffff16815260200191505060206040518083038186803b158015614a0357600080fd5b505afa158015614a17573d6000803e3d6000fd5b505050506040513d6020811015614a2d57600080fd5b810190808051906020019092919050505001616c5f90919063ffffffff16565b9050809150505b919050565b6000803390506000600760009054906101000a900473ffffffffffffffffffffffffffffffffffffffff1673ffffffffffffffffffffffffffffffffffffffff16639073af81836040518263ffffffff1660e01b8152600401808273ffffffffffffffffffffffffffffffffffffffff1673ffffffffffffffffffffffffffffffffffffffff16815260200191505060206040518083038186803b158015614b0057600080fd5b505afa158015614b14573d6000803e3d6000fd5b505050506040513d6020811015614b2a57600080fd5b810190808051906020019092919050505014614b4a576000915050615030565b600080600760009054906101000a900473ffffffffffffffffffffffffffffffffffffffff1673ffffffffffffffffffffffffffffffffffffffff1663a7e3cce184876040518363ffffffff1660e01b8152600401808373ffffffffffffffffffffffffffffffffffffffff1673ffffffffffffffffffffffffffffffffffffffff16815260200182815260200192505050602060405180830381600087803b158015614bf657600080fd5b505af1158015614c0a573d6000803e3d6000fd5b505050506040513d6020811015614c2057600080fd5b81019080805190602001909291905050509150600760009054906101000a900473ffffffffffffffffffffffffffffffffffffffff1673ffffffffffffffffffffffffffffffffffffffff1663de634152846040518263ffffffff1660e01b8152600401808273ffffffffffffffffffffffffffffffffffffffff1673ffffffffffffffffffffffffffffffffffffffff16815260200191505060206040518083038186803b158015614cd257600080fd5b505afa158015614ce6573d6000803e3d6000fd5b505050506040513d6020811015614cfc57600080fd5b81019080805190602001909291905050509050600015158215151415614d285760009350505050615030565b600760009054906101000a900473ffffffffffffffffffffffffffffffffffffffff1673ffffffffffffffffffffffffffffffffffffffff16638ed9720284426040518363ffffffff1660e01b8152600401808373ffffffffffffffffffffffffffffffffffffffff1673ffffffffffffffffffffffffffffffffffffffff16815260200182815260200192505050600060405180830381600087803b158015614dd157600080fd5b505af1158015614de5573d6000803e3d6000fd5b50505050600760009054906101000a900473ffffffffffffffffffffffffffffffffffffffff1673ffffffffffffffffffffffffffffffffffffffff1663801e9590848784600760009054906101000a900473ffffffffffffffffffffffffffffffffffffffff1673ffffffffffffffffffffffffffffffffffffffff16634807c3d56040518163ffffffff1660e01b815260040160206040518083038186803b158015614e9257600080fd5b505afa158015614ea6573d6000803e3d6000fd5b505050506040513d6020811015614ebc57600080fd5b810190808051906020019092919050505002026040518363ffffffff1660e01b8152600401808373ffffffffffffffffffffffffffffffffffffffff1673ffffffffffffffffffffffffffffffffffffffff16815260200182815260200192505050600060405180830381600087803b158015614f3857600080fd5b505af1158015614f4c573d6000803e3d6000fd5b50505050600760009054906101000a900473ffffffffffffffffffffffffffffffffffffffff1673ffffffffffffffffffffffffffffffffffffffff1663b5c3e402846040518263ffffffff1660e01b8152600401808273ffffffffffffffffffffffffffffffffffffffff1673ffffffffffffffffffffffffffffffffffffffff16815260200191505060206040518083038186803b158015614fef57600080fd5b505afa158015615003573d6000803e3d6000fd5b505050506040513d602081101561501957600080fd5b810190808051906020019092919050505093505050505b919050565b6000803390506000600460009054906101000a900473ffffffffffffffffffffffffffffffffffffffff1673ffffffffffffffffffffffffffffffffffffffff16639073af81836040518263ffffffff1660e01b8152600401808273ffffffffffffffffffffffffffffffffffffffff1673ffffffffffffffffffffffffffffffffffffffff16815260200191505060206040518083038186803b1580156150dc57600080fd5b505afa1580156150f0573d6000803e3d6000fd5b505050506040513d602081101561510657600080fd5b81019080805190602001909291905050501461512657600091505061560c565b600080600460009054906101000a900473ffffffffffffffffffffffffffffffffffffffff1673ffffffffffffffffffffffffffffffffffffffff1663551502d484876040518363ffffffff1660e01b8152600401808373ffffffffffffffffffffffffffffffffffffffff1673ffffffffffffffffffffffffffffffffffffffff16815260200182815260200192505050602060405180830381600087803b1580156151d257600080fd5b505af11580156151e6573d6000803e3d6000fd5b505050506040513d60208110156151fc57600080fd5b81019080805190602001909291905050509150600460009054906101000a900473ffffffffffffffffffffffffffffffffffffffff1673ffffffffffffffffffffffffffffffffffffffff166329058536846040518263ffffffff1660e01b8152600401808273ffffffffffffffffffffffffffffffffffffffff1673ffffffffffffffffffffffffffffffffffffffff16815260200191505060206040518083038186803b1580156152ae57600080fd5b505afa1580156152c2573d6000803e3d6000fd5b505050506040513d60208110156152d857600080fd5b81019080805190602001909291905050509050600015158215151415615304576000935050505061560c565b600460009054906101000a900473ffffffffffffffffffffffffffffffffffffffff1673ffffffffffffffffffffffffffffffffffffffff16638ed9720284426040518363ffffffff1660e01b8152600401808373ffffffffffffffffffffffffffffffffffffffff1673ffffffffffffffffffffffffffffffffffffffff16815260200182815260200192505050600060405180830381600087803b1580156153ad57600080fd5b505af11580156153c1573d6000803e3d6000fd5b50505050600460009054906101000a900473ffffffffffffffffffffffffffffffffffffffff1673ffffffffffffffffffffffffffffffffffffffff16637e23dbd1848784600460009054906101000a900473ffffffffffffffffffffffffffffffffffffffff1673ffffffffffffffffffffffffffffffffffffffff166347dcb51c6040518163ffffffff1660e01b815260040160206040518083038186803b15801561546e57600080fd5b505afa158015615482573d6000803e3d6000fd5b505050506040513d602081101561549857600080fd5b810190808051906020019092919050505002026040518363ffffffff1660e01b8152600401808373ffffffffffffffffffffffffffffffffffffffff1673ffffffffffffffffffffffffffffffffffffffff16815260200182815260200192505050600060405180830381600087803b15801561551457600080fd5b505af1158015615528573d6000803e3d6000fd5b50505050600460009054906101000a900473ffffffffffffffffffffffffffffffffffffffff1673ffffffffffffffffffffffffffffffffffffffff16630c2b6904846040518263ffffffff1660e01b8152600401808273ffffffffffffffffffffffffffffffffffffffff1673ffffffffffffffffffffffffffffffffffffffff16815260200191505060206040518083038186803b1580156155cb57600080fd5b505afa1580156155df573d6000803e3d6000fd5b505050506040513d60208110156155f557600080fd5b810190808051906020019092919050505093505050505b919050565b6000600460009054906101000a900473ffffffffffffffffffffffffffffffffffffffff1673ffffffffffffffffffffffffffffffffffffffff1663a4b1919d836040518263ffffffff1660e01b8152600401808273ffffffffffffffffffffffffffffffffffffffff1673ffffffffffffffffffffffffffffffffffffffff16815260200191505060206040518083038186803b1580156156b257600080fd5b505afa1580156156c6573d6000803e3d6000fd5b505050506040513d60208110156156dc57600080fd5b81019080805190602001909291905050509050919050565b600360009054906101000a900473ffffffffffffffffffffffffffffffffffffffff1673ffffffffffffffffffffffffffffffffffffffff166321241b3f3384846040518463ffffffff1660e01b8152600401808473ffffffffffffffffffffffffffffffffffffffff1673ffffffffffffffffffffffffffffffffffffffff16815260200180602001848152602001838152602001828103825260078152602001807f4261727261636b00000000000000000000000000000000000000000000000000815250602001945050505050602060405180830381600087803b1580156157de57600080fd5b505af11580156157f2573d6000803e3d6000fd5b505050506040513d602081101561580857600080fd5b810190808051906020019092919050505050600460009054906101000a900473ffffffffffffffffffffffffffffffffffffffff1673ffffffffffffffffffffffffffffffffffffffff16636f58051b3360016040518363ffffffff1660e01b8152600401808373ffffffffffffffffffffffffffffffffffffffff1673ffffffffffffffffffffffffffffffffffffffff16815260200182815260200192505050600060405180830381600087803b1580156158c457600080fd5b505af11580156158d8573d6000803e3d6000fd5b50505050600760009054906101000a900473ffffffffffffffffffffffffffffffffffffffff1673ffffffffffffffffffffffffffffffffffffffff16630de12cb33360016040518363ffffffff1660e01b8152600401808373ffffffffffffffffffffffffffffffffffffffff1673ffffffffffffffffffffffffffffffffffffffff16815260200182815260200192505050600060405180830381600087803b15801561598657600080fd5b505af115801561599a573d6000803e3d6000fd5b50505050600560009054906101000a900473ffffffffffffffffffffffffffffffffffffffff1673ffffffffffffffffffffffffffffffffffffffff166324ab6dc53360016040518363ffffffff1660e01b8152600401808373ffffffffffffffffffffffffffffffffffffffff1673ffffffffffffffffffffffffffffffffffffffff16815260200182815260200192505050600060405180830381600087803b158015615a4857600080fd5b505af1158015615a5c573d6000803e3d6000fd5b50505050600660009054906101000a900473ffffffffffffffffffffffffffffffffffffffff1673ffffffffffffffffffffffffffffffffffffffff16639e72a7e03360016040518363ffffffff1660e01b8152600401808373ffffffffffffffffffffffffffffffffffffffff1673ffffffffffffffffffffffffffffffffffffffff16815260200182815260200192505050600060405180830381600087803b158015615b0a57600080fd5b505af1158015615b1e573d6000803e3d6000fd5b50505050600960009054906101000a900473ffffffffffffffffffffffffffffffffffffffff1673ffffffffffffffffffffffffffffffffffffffff1663afbfd6443360016040518363ffffffff1660e01b8152600401808373ffffffffffffffffffffffffffffffffffffffff1673ffffffffffffffffffffffffffffffffffffffff16815260200182815260200192505050600060405180830381600087803b158015615bcc57600080fd5b505af1158015615be0573d6000803e3d6000fd5b505050505050565b60016020528060005260406000206000915090505481565b5050565b6000600760009054906101000a900473ffffffffffffffffffffffffffffffffffffffff1673ffffffffffffffffffffffffffffffffffffffff1663e21843fd836040518263ffffffff1660e01b8152600401808273ffffffffffffffffffffffffffffffffffffffff1673ffffffffffffffffffffffffffffffffffffffff16815260200191505060206040518083038186803b158015615ca557600080fd5b505afa158015615cb9573d6000803e3d6000fd5b505050506040513d6020811015615ccf57600080fd5b81019080805190602001909291905050509050919050565b60008082848601011415615cfe5760019050615d03565b600090505b9392505050565b6000806000600160003373ffffffffffffffffffffffffffffffffffffffff1673ffffffffffffffffffffffffffffffffffffffff16815260200190815260200160002054600160003373ffffffffffffffffffffffffffffffffffffffff1673ffffffffffffffffffffffffffffffffffffffff168152602001908152602001600020544203600260003373ffffffffffffffffffffffffffffffffffffffff1673ffffffffffffffffffffffffffffffffffffffff16815260200190815260200160002054925092509250909192565b600080600460009054906101000a900473ffffffffffffffffffffffffffffffffffffffff1673ffffffffffffffffffffffffffffffffffffffff16639073af81336040518263ffffffff1660e01b8152600401808273ffffffffffffffffffffffffffffffffffffffff1673ffffffffffffffffffffffffffffffffffffffff16815260200191505060206040518083038186803b158015615e7e57600080fd5b505afa158015615e92573d6000803e3d6000fd5b505050506040513d6020811015615ea857600080fd5b81019080805190602001909291905050504203600460009054906101000a900473ffffffffffffffffffffffffffffffffffffffff1673ffffffffffffffffffffffffffffffffffffffff16630c2b6904336040518263ffffffff1660e01b8152600401808273ffffffffffffffffffffffffffffffffffffffff1673ffffffffffffffffffffffffffffffffffffffff16815260200191505060206040518083038186803b158015615f5a57600080fd5b505afa158015615f6e573d6000803e3d6000fd5b505050506040513d6020811015615f8457600080fd5b8101908080519060200190929190505050915091509091565b6000806000615faa616eaf565b600081600001818152505060008160600181815250506000891415615fed5780600001516004026028018160200181815250506001816040018181525050616045565b600189141561601a578060000151600302601e018160200181815250506002816040018181525050616044565b6002891415616043578060000151600a0260640181602001818152505060018160400181815250505b5b5b600088141561607b57806060015160080260500181608001818152505080606001516002026014018160a00181815250506160e5565b60018814156160b15780606001516005026032018160800181815250508060600151600102600a018160a00181815250506160e4565b60028814156160e3578060600151600a0260640181608001818152505080606001516003026000018160a00181815250505b5b5b80602001518160a00151106161d9576161b060008054600181600116156101000203166002900480601f01602080910402602001604051908101604052809291908181526020018280546001816001161561010002031660029004801561618d5780601f106161625761010080835404028352916020019161618d565b820191906000526020600020905b81548152906001019060200180831161617057829003601f168201915b50505050506040518060600160405280603d815260200161704b603d91396116d6565b600090805190602001906161c5929190616e2f565b506000868682925093509350935050616afa565b80604001518160a00151826020015103028160c0018181525050806080015185146164555760008160c00151868161620d57fe5b061415616230578060c00151858161622157fe5b048160e001818152505061624b565b60018160c00151868161623f57fe5b04018160e00181815250505b8060e0015187106163605761632f60008054600181600116156101000203166002900480601f0160208091040260200160405190810160405280929190818152602001828054600181600116156101000203166002900480156162ef5780601f106162c4576101008083540402835291602001916162ef565b820191906000526020600020905b8154815290600101906020018083116162d257829003601f168201915b50505050506040518060400160405280601981526020017f0ae58f97e582b7e596aee4bd8de58f97e588b0e6938ae6aeba000000000000008152506116d6565b60009080519060200190616344929190616e2f565b508060e001518703965080608001519450600186039550616454565b8060c0015187028503945061642760008054600181600116156101000203166002900480601f0160208091040260200160405190810160405280929190818152602001828054600181600116156101000203166002900480156164045780601f106163d957610100808354040283529160200191616404565b820191906000526020600020905b8154815290600101906020018083116163e757829003601f168201915b5050505050604051806080016040528060498152602001616f80604991396116d6565b6000908051906020019061643c929190616e2f565b50600096506000868682925093509350935050616afa565b5b60008714156165605761653760008054600181600116156101000203166002900480601f0160208091040260200160405190810160405280929190818152602001828054600181600116156101000203166002900480156164f75780601f106164cc576101008083540402835291602001916164f7565b820191906000526020600020905b8154815290600101906020018083116164da57829003601f168201915b50505050506040518060400160405280600d81526020017f0ae980b2e694bbe7b590e69d9f000000000000000000000000000000000000008152506116d6565b6000908051906020019061654c929190616e2f565b506000868682925093509350935050616afa565b60008160c0015182608001518161657357fe5b06141561659b578060c0015181608001518161658b57fe5b04816101000181815250506165bb565b60018160c001518260800151816165ae57fe5b0401816101000181815250505b600081610100015188816165cb57fe5b041461691f578581610100015188816165e057fe5b04106166fc576166bf60008054600181600116156101000203166002900480601f01602080910402602001604051908101604052809291908181526020018280546001816001161561010002031660029004801561667f5780601f106166545761010080835404028352916020019161667f565b820191906000526020600020905b81548152906001019060200180831161666257829003601f168201915b50505050506040518060400160405280601081526020017f0ae998b2e5ae88e696b9e585a8e6bb85000000000000000000000000000000008152506116d6565b600090805190602001906166d4929190616e2f565b5085816101000151028703965060009550866000826080015181915093509350935050616afa565b6167d560008054600181600116156101000203166002900480601f0160208091040260200160405190810160405280929190818152602001828054600181600116156101000203166002900480156167955780601f1061676a57610100808354040283529160200191616795565b820191906000526020600020905b81548152906001019060200180831161677857829003601f168201915b50505050506040518060400160405280601b81526020017f0ae6b688e6bb85e998b2e5ae88e696b97878e5908de596aee4bd8d00000000008152506116d6565b600090805190602001906167ea929190616e2f565b5080610100015187816167f957fe5b0486039550806101000151878161680c57fe5b069650600087141561691e576168f160008054600181600116156101000203166002900480601f0160208091040260200160405190810160405280929190818152602001828054600181600116156101000203166002900480156168b15780601f10616886576101008083540402835291602001916168b1565b820191906000526020600020905b81548152906001019060200180831161689457829003601f168201915b50505050506040518060400160405280600d81526020017f0ae980b2e694bbe7b590e69d9f000000000000000000000000000000000000008152506116d6565b60009080519060200190616906929190616e2f565b50600086826080015182925093509350935050616afa565b5b8060c001518702850394506169e660008054600181600116156101000203166002900480601f0160208091040260200160405190810160405280929190818152602001828054600181600116156101000203166002900480156169c35780601f10616998576101008083540402835291602001916169c3565b820191906000526020600020905b8154815290600101906020018083116169a657829003601f168201915b50505050506040518060600160405280602481526020016170b5602491396116d6565b600090805190602001906169fb929190616e2f565b50616ad560008054600181600116156101000203166002900480601f016020809104026020016040519081016040528092919081815260200182805460018160011615610100020316600290048015616a955780601f10616a6a57610100808354040283529160200191616a95565b820191906000526020600020905b815481529060010190602001808311616a7857829003601f168201915b50505050506040518060400160405280600d81526020017f0ae980b2e694bbe7b590e69d9f000000000000000000000000000000000000008152506116d6565b60009080519060200190616aea929190616e2f565b5060009650868686935093509350505b9750975097945050505050565b600080828401905083811015616b85576040517f08c379a000000000000000000000000000000000000000000000000000000000815260040180806020018281038252601b8152602001807f536166654d6174683a206164646974696f6e206f766572666c6f77000000000081525060200191505060405180910390fd5b8091505092915050565b600080831415616ba25760009050616c0f565b6000828402905082848281616bb357fe5b0414616c0a576040517f08c379a000000000000000000000000000000000000000000000000000000000815260040180806020018281038252602181526020018061702a6021913960400191505060405180910390fd5b809150505b92915050565b6000616c5783836040518060400160405280601a81526020017f536166654d6174683a206469766973696f6e206279207a65726f000000000000815250616ca9565b905092915050565b6000616ca183836040518060400160405280601e81526020017f536166654d6174683a207375627472616374696f6e206f766572666c6f770000815250616d6f565b905092915050565b60008083118290616d55576040517f08c379a00000000000000000000000000000000000000000000000000000000081526004018080602001828103825283818151815260200191508051906020019080838360005b83811015616d1a578082015181840152602081019050616cff565b50505050905090810190601f168015616d475780820380516001836020036101000a031916815260200191505b509250505060405180910390fd5b506000838581616d6157fe5b049050809150509392505050565b6000838311158290616e1c576040517f08c379a00000000000000000000000000000000000000000000000000000000081526004018080602001828103825283818151815260200191508051906020019080838360005b83811015616de1578082015181840152602081019050616dc6565b50505050905090810190601f168015616e0e5780820380516001836020036101000a031916815260200191505b509250505060405180910390fd5b5060008385039050809150509392505050565b828054600181600116156101000203166002900490600052602060002090601f016020900481019282601f10616e7057805160ff1916838001178555616e9e565b82800160010185558215616e9e579182015b82811115616e9d578251825591602001919060010190616e82565b5b509050616eab9190616efb565b5090565b6040518061012001604052806000815260200160008152602001600081526020016000815260200160008152602001600081526020016000815260200160008152602001600081525090565b616f1d91905b80821115616f19576000816000905550600101616f01565b5090565b9056fe0ae5b09ae69c89e980b2e694bbe596aee4bd8defbc8ce7b9bce7ba8ce694bbe6938ae68891e696b9e781abe7a0b20ae5b09ae69c89e980b2e694bbe596aee4bd8defbc8ce7b9bce7ba8ce694bbe6938ae695b5e696b9e5ae88e8a19be880850ae980b2e694bbe696b9e585a8e9ab94e980b2e8a18ce694bbe6938aefbc8ce4bdbfe58f97e582b7e596aee4bd8de589a9e9a4987878e7949fe591bd0ae980b2e694bbe7b590e69d9fe695b5e696b9e5ae88e8bb8de981ade588b0e585a8e695b8e6aeb2e6bb85efbc8ce68891e696b9e980b2e694bbe78db2e58b9d0ae5b09ae69c89e980b2e694bbe596aee4bd8defbc8ce7b9bce7ba8ce694bbe6938ae695b5e696b9e781abe7a0b2536166654d6174683a206d756c7469706c69636174696f6e206f766572666c6f770ae68c87e5ae9ae585b5e7a8aee8adb7e794b2e9818ee9ab98efbc8ce980b2e694bbe88085e784a1e6b395e980a0e68890e69c89e69588e582b7e5aeb3e68891e696b9e981ade588b0e585a8e695b8e6aeb2e6bb85efbc8ce695b5e696b9e998b2e5ae88e68890e58a9f0ae998b2e5ae88e596aee4bd8de58f97e582b7efbc8ce589a9e9a4987878e7949fe591bd0ae5b09ae69c89e980b2e694bbe596aee4bd8defbc8ce7b9bce7ba8ce694bbe6938ae68891e696b9e5ae88e8a19be88085e998b2e5ae88e696b9e784a1e585b5e58a9befbc8ce980b2e694bbe696b9e78db2e58b9da265627a7a7231582084147bb78f6c49bffbadc6c7aa9bb29bce623f799b214336c40afa5a1a3139f464736f6c63430005100032",
  "source": "pragma solidity >=0.4.21 <0.7.0;\n\nimport \"./SafeMath.sol\";\nimport \"./BuildingFactory.sol\";\nimport \"./Soldier.sol\";\nimport \"./Spy.sol\";\nimport \"./Cannon.sol\";\nimport \"./Protector.sol\";\nimport \"./Wall.sol\";\n\ncontract Barrack {\n\n    using SafeMath for uint;\n    string battleLog = \"\\n\" ; \n\n    mapping (address => uint) public ownerStartMarchTime;\n    mapping (address => uint) public ownerTotalMarchTime;\n\n    BuildingFactory buildingInstance;\n    Soldier soldierInstance;\n    Protector ProtectorInstance;\n    Cannon CannonInstance;\n    Spy SpyInstance;\n    Account AccountInstance;\n    Wall WallInstance;\n    constructor(address _building_address, address _soldier_address, address _spy_instance, address _cannon_instance, address _protector_instance, address _wall_instance, address _account_instance) public {\n        buildingInstance = BuildingFactory(_building_address);\n        soldierInstance = Soldier(_soldier_address);\n        SpyInstance = Spy(_spy_instance);\n        ProtectorInstance = Protector(_protector_instance);\n        CannonInstance = Cannon(_cannon_instance);\n        AccountInstance = Account(_account_instance);\n        WallInstance = Wall(_wall_instance);\n    }\n\n    function createBarrack(uint _x, uint _y) public {\n        buildingInstance._createBuilding(msg.sender, \"Barrack\", _x, _y);\n        soldierInstance.setSoldierLevel(msg.sender, 1);\n        SpyInstance.setSpyLevel(msg.sender, 1);\n        ProtectorInstance.setProtectorLevel(msg.sender, 1);\n        CannonInstance.setCannonLevel(msg.sender, 1);\n        WallInstance.setWallLevel(msg.sender, 1);\n    }\n\n    function concatenate(string memory a, string memory b) public returns(string memory) {\n        return string(abi.encodePacked(a, b));\n    }\n\n    function getSoldierAmount(address _owner) public view returns(uint) {\n        return soldierInstance.getSoldierAmount(_owner);\n    }\n\n    // return 0 if failed (maybe already creating or not enough resource) otherwise return createtime\n    function startCreateSoldier(uint number) public returns(uint) {\n        address _owner = msg.sender;\n        if(soldierInstance.ownerStartCreateTime(_owner) != 0) return uint(0); // check if there is already creating soldiers\n        bool enoughResource;\n        uint lvOfSoldier;\n        enoughResource = soldierInstance._createSoldier(_owner, number);\n        lvOfSoldier =  soldierInstance.levelOfSoldier(_owner);\n        if(enoughResource == false) return uint(0);\n        soldierInstance.setStartCreateTime(_owner, uint(now));\n        soldierInstance.setCreateSoldierTime(_owner, soldierInstance.createSoldierTime() * lvOfSoldier * number);\n        return soldierInstance.ownerCreateSoldierTime(_owner);\n    }\n\n    function getCreateSoldierTime() public view returns(uint, uint) {\n        return ( now - soldierInstance.ownerStartCreateTime(msg.sender), soldierInstance.ownerCreateSoldierTime(msg.sender) ) ;\n    }\n\n    // // return 0 if success else return remaining time\n    function updateCreateSoldier(address _owner) public returns(uint) {\n        if (soldierInstance.ownerStartCreateTime(_owner) == 0) return 0;\n        if (now >= soldierInstance.ownerStartCreateTime(_owner).add(soldierInstance.ownerCreateSoldierTime(_owner))) {\n            uint num;\n            num = soldierInstance.ownerCreateSoldierTime(_owner).div(  soldierInstance.levelOfSoldier(_owner).mul(soldierInstance.createSoldierTime()) );\n            soldierInstance.setNumOfSoldier(_owner, soldierInstance.numOfSoldier(_owner) + (num));\n            soldierInstance.setStartCreateTime(_owner, 0);\n            soldierInstance.setCreateSoldierTime(_owner, 0);\n            soldierInstance._updatePower(_owner);\n            return 0;\n        }\n        else {\n            uint remainingTime = (soldierInstance.ownerStartCreateTime(_owner) + soldierInstance.ownerCreateSoldierTime(_owner)).sub(now);\n            return remainingTime;\n        }\n    }\n\n    function getSpyAmount(address _owner) public view returns(uint) {\n        return SpyInstance.getSpyAmount(_owner);\n    }\n\n    // return 0 if failed (maybe already creating or not enough resource) otherwise return createtime\n    function startCreateSpy(uint number) public returns(uint) {\n        address _owner = msg.sender;\n        if(SpyInstance.ownerStartCreateTime(_owner) != 0) return uint(0); // check if there is already creating spys\n        bool enoughResource;\n        uint lvOfSpy;\n        enoughResource = SpyInstance._createSpy(_owner, number);\n        lvOfSpy =  SpyInstance.levelOfSpy(_owner);\n        if(enoughResource == false) return uint(0);\n        SpyInstance.setStartCreateTime(_owner, uint(now));\n        SpyInstance.setCreateSpyTime(_owner, SpyInstance.createSpyTime() * lvOfSpy * number);\n        return SpyInstance.ownerCreateSpyTime(_owner);\n    }\n\n    function getCreateSpyTime() public view returns(uint, uint) {\n        return ( now - SpyInstance.ownerStartCreateTime(msg.sender), SpyInstance.ownerCreateSpyTime(msg.sender) ) ;\n    }\n\n    // // return 0 if success else return remaining time\n    function updateCreateSpy(address _owner) public returns(uint) {\n        if (SpyInstance.ownerStartCreateTime(_owner) == 0) return 0;\n        if (now >= SpyInstance.ownerStartCreateTime(_owner).add(SpyInstance.ownerCreateSpyTime(_owner))) {\n            uint num;\n            num = SpyInstance.ownerCreateSpyTime(_owner).div(  SpyInstance.levelOfSpy(_owner).mul(SpyInstance.createSpyTime()) );\n            SpyInstance.setNumOfSpy(_owner, SpyInstance.numOfSpy(_owner) + (num));\n            SpyInstance.setStartCreateTime(_owner, 0);\n            SpyInstance.setCreateSpyTime(_owner, 0);\n            SpyInstance._updateSpyPower(_owner);\n            return 0;\n        }\n        else {\n            uint remainingTime = (SpyInstance.ownerStartCreateTime(_owner) + SpyInstance.ownerCreateSpyTime(_owner)).sub(now);\n            return remainingTime;\n        }\n    }\n\n    // // return 0 if failed (maybe already creating or not enough resource) otherwise return createtime\n    \n    function attack(uint _ownerId, uint _attackedCastleId) public {\n        // soldierInstance.attack(_ownerId, _attackedCastleId);\n    }\n\n    function startMarch(uint _attackedCastleId) public returns(uint) {\n        address _owner = msg.sender;\n        address attackedAddress = AccountInstance.castleToOwner(_attackedCastleId);\n\n        \n        if(ownerStartMarchTime[_owner] != 0) return uint(0); // check if there is already Marching\n        bool enoughResource;\n        enoughResource = enoughResource = AccountInstance.cost(_owner, 100, uint(0), 100, uint(0), 100);\n        if(enoughResource == false) return uint(0);\n        ownerStartMarchTime[_owner] = uint(now);\n        ownerTotalMarchTime[_owner] = 20;\n        AccountInstance.setAttackedInfo(attackedAddress, true, _owner, ownerStartMarchTime[_owner], ownerTotalMarchTime[_owner]);\n        return ownerTotalMarchTime[_owner];\n    }\n\n    function getMarchTime() public view returns(uint, uint, uint) {\n        return ( ownerStartMarchTime[msg.sender], uint(now) - ownerStartMarchTime[msg.sender], ownerTotalMarchTime[msg.sender] ) ;\n    }\n\n    // // return 0 if success else return remaining time\n    function updateMarch(address _owner) public returns(uint) {\n        if (ownerStartMarchTime[_owner] == 0) return 0;\n        if (uint(now) >= ownerStartMarchTime[_owner].add(ownerTotalMarchTime[_owner])) {\n            // uint num;\n            // num = ownerTotalMarchTime[_owner].div(  MarchInstance.levelOfMarch(_owner).mul(MarchInstance.createMarchTime()) );\n            // MarchInstance.setNumOfMarch(_owner, MarchInstance.numOfMarch(_owner) + (num));\n            ownerStartMarchTime[_owner] = 0;\n            ownerTotalMarchTime[_owner] = 0;\n            return 0;\n        }\n        else {\n            uint remainingTime = (ownerStartMarchTime[_owner] + ownerTotalMarchTime[_owner]).sub(uint(now));\n            return remainingTime;\n        }\n    }\n    function is_annihilated(uint a , uint b , uint c) public returns(bool){\n        if(a+b+c==0)\n            return true ; \n        else \n            return false ; \n    }\n    function annihilated(address id)public returns(bool){\n        if(soldierInstance.getSoldierAmount(id)+ProtectorInstance.getProtectorAmount(id)+CannonInstance.getCannonAmount(id)==0){\n            return true;\n        }else\n            return false ; \n    }\n    struct battle_info{\n        uint attackerLevel   ;   \n        uint attackerDamage ; \n        uint attackerFrequency  ;\n        uint defenderLevel  ; \n        uint defenderHealth ; \n        uint defenderArmour ; \n        uint effectiveDamage  ;  \n        uint requireCulling  ; \n        uint requireKill   ; \n    }\n    //fuction battle_army() \n    //attack_id : id\n    //defend_id : id\n    //attacker/defender_flag   \n    //    :0 :1 :2\n    //attack_q :\n    //defender_q:\n    //injure:\n    function battle_army(address attack_id , address defend_id , uint attacker_flag , uint defender_flag, uint attacker_q, uint defender_q, uint injure ) public returns(uint,uint,uint){\n        battle_info memory info ; \n        info.attackerLevel = 0 ; \n        info.defenderLevel = 0 ; \n\n        if(attacker_flag == 0){\n            info.attackerDamage = 40 + 4 * info.attackerLevel ; \n            info.attackerFrequency = 1 ; \n        }else if (attacker_flag == 1 ){\n            info.attackerDamage = 30 + 3 * info.attackerLevel ; \n            info.attackerFrequency = 2 ; \n        }else if(attacker_flag ==2){\n            info.attackerDamage = 100 + 10 * info.attackerLevel ; \n            info.attackerFrequency = 1 ;\n        }\n        if(defender_flag == 0){\n            info.defenderHealth = 80 + 8 * info.defenderLevel ; \n            info.defenderArmour = 20 + 2 * info.defenderLevel ; \n        }else if (defender_flag == 1 ){\n            info.defenderHealth = 50 + 5 * info.defenderLevel ; \n            info.defenderArmour = 10 + 1 * info.defenderLevel ; \n        }else if(defender_flag ==2){\n            info.defenderHealth = 100 + 10 * info.defenderLevel ; \n            info.defenderArmour = 0 + 3 * info.defenderLevel ; \n        }\n        //\n        if(info.defenderArmour >= info.attackerDamage){\n            battleLog = concatenate(battleLog,\"\\n\") ; \n            return (0,defender_q,injure) ; \n        }else{\n            info.effectiveDamage = (info.attackerDamage - info.defenderArmour) * info.attackerFrequency ; \n        //  \n        //  \n            if(injure != info.defenderHealth ){\n                //ceiling\n                if(injure % info.effectiveDamage == 0 )\n                    info.requireCulling = injure / info.effectiveDamage ; \n                else    \n                    info.requireCulling = injure / info.effectiveDamage + 1; \n\n                //\n                if(attacker_q >= info.requireCulling){\n                    battleLog = concatenate(battleLog,\"\\n\") ; \n                    attacker_q -= info.requireCulling ;\n                    injure = info.defenderHealth ; \n                    defender_q -= 1 ; \n                //\n                }else{\n                    injure -= attacker_q * info.effectiveDamage ; \n                    //todo  \\n{not_yet_attack}{ownSoldierRemain}\n                    battleLog = concatenate(battleLog,\"\\nxx\\n\") ; \n                    attacker_q = 0  ;\n                    return(0,defender_q,injure);\n                }\n            }\n            //\n            if(attacker_q == 0){\n                battleLog = concatenate(battleLog,\"\\n\") ;\n                return (0,defender_q,injure) ; \n            }else{\n                if(info.defenderHealth % info.effectiveDamage == 0 )\n                    info.requireKill = info.defenderHealth / info.effectiveDamage ; \n                else    \n                    info.requireKill = info.defenderHealth / info.effectiveDamage + 1; \n                //\n                if( attacker_q / info.requireKill != 0 ){\n                    //\n                    if(attacker_q / info.requireKill >= defender_q){\n                        battleLog = concatenate(battleLog,\"\\n\") ;\n                        attacker_q -= info.requireKill * defender_q ; \n                        defender_q = 0 ; \n                        return (attacker_q , 0 , info.defenderHealth) ; \n                    }else{\n                        battleLog = concatenate(battleLog,\"\\nxx\") ;\n                        defender_q -= attacker_q / info.requireKill  ; \n                        attacker_q %=  info.requireKill  ;\n                    }\n                    if(attacker_q == 0){\n                        battleLog = concatenate(battleLog,\"\\n\") ;\n                        return (0,defender_q,info.defenderHealth) ;\n                    }\n                }    \n                //\n                injure -= attacker_q * info.effectiveDamage ;\n                battleLog = concatenate(battleLog,\"\\nxx\") ; \n                battleLog = concatenate(battleLog,\"\\n\") ;\n                attacker_q = 0 ; \n                return (attacker_q,defender_q,injure) ; \n                }\n                \n            }\n\n\n            \n    }\n/*\n    function battle_army(address attack_id , address defend_id , uint attacker_flag , uint defender_flag, uint attacker_q, uint defender_q, uint injure ) public returns(uint,uint,uint){\n        battle_info memory info ; \n        info.attackerLevel = 0 ; \n        info.defenderLevel = 0 ; \n\n        /*\n        uint attackerLevel = 0  ;   \n        uint attackerDamage ; \n        uint attackerFrequency  ;\n        uint defenderLevel = 0 ; \n        uint defenderHealth ; \n        uint defenderArmour ; \n        uint defenderInjure  ; \n        uint effectiveDamage = 0 ;  \n        uint requireCulling = 0 ; \n        uint requireKill = 0 ; \n        \n\n        // \n        // \n        if(attacker_flag == 0){\n            //attackerLevel = ProtectorInstance.levelOfProtector(attack_id) \b;\n            info.attackerDamage = 40 + 4 * info.attackerLevel ; \n            info.attackerFrequency = 1 ; \n        }else if (attacker_flag == 1 ){\n            //attackerLevel = soldierInstance.levelOfSoldier(attack_id) ; \n            info.attackerDamage = 30 + 3 * info.attackerLevel ; \n            info.attackerFrequency = 2 ; \n        }else if(attacker_flag ==2){\n            //attackerLevel = CannonInstance.levelOfCannon(attack_id) ; \n            info.attackerDamage = 100 + 10 * info.attackerLevel ; \n            info.attackerFrequency = 1 ;\n        }\n        if(defender_flag == 0){\n            //defenderLevel = ProtectorInstance.levelOfProtector(defend_id) \b;\n            info.defenderHealth = 80 + 8 * info.defenderLevel ; \n            info.defenderArmour = 20 + 2 * info.defenderLevel ; \n        }else if (defender_flag == 1 ){\n            //defenderLevel = soldierInstance.levelOfSoldier(defend_id) ; \n            info.defenderHealth = 50 + 5 * info.defenderLevel ; \n            info.defenderArmour = 10 + 1 * info.defenderLevel ; \n        }else if(defender_flag ==2){\n            //defendderLevel = CannonInstance.levelOfCannon(defend_id) ; \n            info.defenderHealth = 100 + 10 * info.defenderLevel ; \n            info.defenderArmour = 0 + 3 * info.defenderLevel ; \n        }\n        //\n        if(info.defenderArmour >= info.attackerDamage){\n            battleLog = concatenate(battleLog,\"\\n\") ; \n            return (0,defender_q,info.defenderInjure) ; \n        }else{\n            info.effectiveDamage = (info.attackerDamage - info.defenderArmour) * info.attackerFrequency ; \n        //  \n        //  \n            if(info.defenderInjure != info.defenderHealth ){\n                //ceiling\n                if(info.defenderInjure % info.effectiveDamage == 0 )\n                    info.requireCulling = info.defenderInjure / info.effectiveDamage ; \n                else    \n                    info.requireCulling = info.defenderInjure / info.effectiveDamage + 1; \n\n                //\n                if(attacker_q >= info.requireCulling){\n                    battleLog = concatenate(battleLog,\"\\n\") ; \n                    attacker_q -= info.requireCulling ;\n                    info.defenderInjure = info.defenderHealth ; \n                    defender_q -= 1 ; \n                //\n                }else{\n                    info.defenderInjure -= attacker_q * info.effectiveDamage ; \n                    //todo  \\n{not_yet_attack}{ownSoldierRemain}\n                    battleLog = concatenate(battleLog,\"\\nxx\") ; \n                    attacker_q = 0  ;\n                }\n            }\n            //\n            if(attacker_q == 0){\n                battleLog = concatenate(battleLog,\"\\n\") ;\n                return (0,defender_q,info.defenderInjure) ; \n            }else{\n                if(info.defenderHealth % info.effectiveDamage == 0 )\n                    info.requireKill = info.defenderHealth / info.effectiveDamage ; \n                else    \n                    info.requireKill = info.defenderHealth / info.effectiveDamage + 1; \n                //\n                if( attacker_q / info.requireKill != 0 ){\n                    //\n                    if(attacker_q / info.requireKill >= defender_q){\n                        battleLog = concatenate(battleLog,\"\\n\") ;\n                        attacker_q -= info.requireKill * defender_q ; \n                        defender_q = 0 ; \n                        return (attacker_q , 0 , info.defenderHealth) ; \n                    }else{\n                        battleLog = concatenate(battleLog,\"\\nxx\") ;\n                        defender_q -= attacker_q / info.requireKill  ; \n                        attacker_q %=  info.requireKill  ;\n                    }\n                    if(attacker_q == 0){\n                        return (0,defender_q,info.defenderHealth) ; \n                        battleLog = concatenate(battleLog,\"\\n\") ;\n                        //battlelog += \n                    }else{\n                        //\n                        info.defenderInjure -= attacker_q * info.effectiveDamage ;\n                        battleLog = concatenate(battleLog,\"\\nxx\") ; \n                        battleLog = concatenate(battleLog,\"\\n\") ;\n                        attacker_q = 0 ; \n                        return (attacker_q,defender_q,info.defenderInjure) ; \n                    }\n                }\n            }\n\n\n            \n        }\n    }*/\n\n\n\n\n\n    function attack(address _ownerId, address _attackedCastleId) public returns(uint){\n        //soldierInstance.attack(_ownerId, _attackedCastleId);\n        //uint ownSoldierQuantity = soldierInstance.getSoldierAmount(_ownerId);\n        uint dummyQuantityAttacker ; \n        uint dummyQuantityDefender ; \n        uint ownSoldierInjure = 50 + soldierInstance.levelOfSoldier(_ownerId) * 5  ; \n        //uint ownProtectorQuantity = ProtectorInstance.getProtectorAmount(_ownerId);  \n        uint ownProtectorInjure = 80 + ProtectorInstance.levelOfProtector(_ownerId) * 8  ;\n        //uint ownCannonQuantity = CannonInstance.getCannonAmount(_ownerId);  \n        uint ownCannonInjure = 100 + CannonInstance.levelOfCannon(_ownerId) * 10 ;\n        //uint rivalSoldierQuantity = soldierInstance.getSoldierAmount(_attackedCastleId);\n        uint rivalSoldierInjure = 50 + soldierInstance.levelOfSoldier(_attackedCastleId)  * 5 ;\n        //uint rivalProtectorQuantity = ProtectorInstance.getProtectorAmount(_attackedCastleId); \n        uint rivalProtectorInjure = 80 + ProtectorInstance.levelOfProtector(_attackedCastleId) * 8  ;\n        //uint rivalCannonQuantity = CannonInstance.getCannonAmount(_attackedCastleId);  \n        uint rivalCannonInjure = 100 + CannonInstance.levelOfCannon(_attackedCastleId) * 10 ;\n        //\n        uint round = 0 ;  \n\n        if( is_annihilated(CannonInstance.getCannonAmount(_attackedCastleId),soldierInstance.getSoldierAmount(_attackedCastleId),ProtectorInstance.getProtectorAmount(_attackedCastleId)) ){\n            battleLog = concatenate(battleLog,\"\") ; \n        }\n        else{\n        //a barricade is set in case of infinite loop can be removed if no bug is found\n        //otherwise two army fight until one is totally annihilateed\n            \n            while(round < 20  ){\n                if( annihilated(_ownerId) ){\n                    battleLog = concatenate(battleLog,\"\") ;\n                    return 1; \n                }else if(annihilated(_attackedCastleId)){\n                    battleLog = concatenate(battleLog,\"\") ;\n                    return 1; \n                }\n                round += 1 ; \n                //battleLog += {round}\n                //->->->->->\n\n                //protector\n                dummyQuantityAttacker = ProtectorInstance.getProtectorAmount(_attackedCastleId);\n                if( dummyQuantityAttacker != 0  ){\n                    battleLog = concatenate(battleLog,\"\\n\") ; \n                    dummyQuantityDefender = soldierInstance.getSoldierAmount(_ownerId) ; \n                    if( dummyQuantityDefender != 0 ){\n                        battleLog = concatenate(battleLog,\",\") ; \n                        (dummyQuantityAttacker,dummyQuantityDefender,ownSoldierInjure) = battle_army(_attackedCastleId,_ownerId,0,1,dummyQuantityAttacker,dummyQuantityDefender,ownSoldierInjure) ; \n                        soldierInstance.setNumOfSoldier(_ownerId,dummyQuantityDefender) ; \n                    }\n                    //   \n                    dummyQuantityDefender = ProtectorInstance.getProtectorAmount(_ownerId) ; \n                    if( dummyQuantityAttacker != 0 && dummyQuantityDefender != 0){       \n                        battleLog = concatenate(battleLog,\"\\n\") ; \n                        (dummyQuantityAttacker,dummyQuantityDefender,ownProtectorInjure) = battle_army(_attackedCastleId,_ownerId,0,0,dummyQuantityAttacker,dummyQuantityDefender,ownProtectorInjure) ;\n                        ProtectorInstance.setNumOfProtector(_ownerId,dummyQuantityDefender) ; \n                    }\n                    // \n                    dummyQuantityDefender = CannonInstance.getCannonAmount(_ownerId) ; \n                    if( dummyQuantityAttacker != 0 && dummyQuantityDefender != 0){    \n                        battleLog = concatenate(battleLog,\"\\n\") ;\n                        (dummyQuantityAttacker,dummyQuantityDefender,ownCannonInjure) = battle_army(_attackedCastleId,_ownerId,0,2,dummyQuantityAttacker,dummyQuantityDefender,ownCannonInjure) ;    \n                        CannonInstance.setNumOfCannon(_ownerId,dummyQuantityDefender) ; \n                    }\n                }\n                \n                dummyQuantityAttacker = soldierInstance.getSoldierAmount(_ownerId);\n                if( dummyQuantityAttacker != 0  ){\n                    battleLog = concatenate(battleLog,\"\\n\") ; \n                    dummyQuantityDefender = soldierInstance.getSoldierAmount(_attackedCastleId) ; \n                    if( dummyQuantityDefender != 0 ){\n                        battleLog = concatenate(battleLog,\",\") ; \n                        (dummyQuantityAttacker,dummyQuantityDefender,rivalSoldierInjure) = battle_army(_ownerId,_attackedCastleId,1,1,dummyQuantityAttacker,dummyQuantityDefender,rivalSoldierInjure) ; \n                        soldierInstance.setNumOfSoldier(_attackedCastleId,dummyQuantityDefender) ; \n                    }\n                    //   \n                    dummyQuantityDefender = ProtectorInstance.getProtectorAmount(_attackedCastleId) ; \n                    if( dummyQuantityAttacker != 0 && dummyQuantityDefender != 0){       \n                        battleLog = concatenate(battleLog,\"\\n\") ; \n                        (dummyQuantityAttacker,dummyQuantityDefender,rivalProtectorInjure) = battle_army(_ownerId,_attackedCastleId,1,0,dummyQuantityAttacker,dummyQuantityDefender,rivalProtectorInjure) ;\n                        ProtectorInstance.setNumOfProtector(_attackedCastleId,dummyQuantityDefender) ; \n                    }\n                    // \n                    dummyQuantityDefender = CannonInstance.getCannonAmount(_attackedCastleId) ; \n                    if( dummyQuantityAttacker != 0 && dummyQuantityDefender != 0){    \n                        battleLog = concatenate(battleLog,\"\\n\") ;\n                        (dummyQuantityAttacker,dummyQuantityDefender,rivalCannonInjure) = battle_army(_ownerId,_attackedCastleId,1,2,dummyQuantityAttacker,dummyQuantityDefender,rivalCannonInjure) ;    \n                        CannonInstance.setNumOfCannon(_attackedCastleId,dummyQuantityDefender) ; \n                    }\n                }\n                /*\n                if( rivalSoldierQuantity != 0){\n\n                }\n                if( ownProtectorQuantity != 0){\n\n                }\n                if( rivalCannonQuantity != 0){\n\n                }\n                if( ownCannonQuantity != 0){\n\n                }*/\n\n\n\n            }\n            \n\n        }\n    }\n\n    function sendSpy(uint _ownerId, uint _attackedCastleId) public view returns(bool) {\n        //returns TRUE if spy of myCastle > attackedCastle\n        \n        return SpyInstance.sendSpy(_ownerId, _attackedCastleId);\n    }\n\n}",
  "sourcePath": "/Users/danielshyu/Documents/final_game/NMLab_Final/contracts/Barrack.sol",
  "compiler": {
    "name": "solc",
    "version": "0.5.16+commit.9c3226ce.Emscripten.clang"
  },
  "schemaVersion": "3.4.1",
  "updatedAt": "2021-06-25T09:20:54.484Z",
  "devdoc": {
    "methods": {}
  },
  "userdoc": {
    "methods": {}
  }
}