{
  "contractName": "Barrack",
  "abi": [
    {
      "constant": false,
      "inputs": [
        {
          "internalType": "uint256",
          "name": "_ownerId",
          "type": "uint256"
        },
        {
          "internalType": "uint256",
          "name": "_attackedCastleId",
          "type": "uint256"
        }
      ],
      "name": "attack",
      "outputs": [],
      "payable": false,
      "stateMutability": "nonpayable",
      "type": "function"
    },
    {
      "constant": true,
      "inputs": [
        {
          "internalType": "uint256",
          "name": "",
          "type": "uint256"
        }
      ],
      "name": "buildingToOwner",
      "outputs": [
        {
          "internalType": "address",
          "name": "",
          "type": "address"
        }
      ],
      "payable": false,
      "stateMutability": "view",
      "type": "function"
    },
    {
      "constant": true,
      "inputs": [
        {
          "internalType": "uint256",
          "name": "",
          "type": "uint256"
        }
      ],
      "name": "buildings",
      "outputs": [
        {
          "internalType": "string",
          "name": "name",
          "type": "string"
        },
        {
          "internalType": "uint256",
          "name": "placeX",
          "type": "uint256"
        },
        {
          "internalType": "uint256",
          "name": "placeY",
          "type": "uint256"
        },
        {
          "internalType": "uint256",
          "name": "level",
          "type": "uint256"
        }
      ],
      "payable": false,
      "stateMutability": "view",
      "type": "function"
    },
    {
      "constant": true,
      "inputs": [
        {
          "internalType": "uint256",
          "name": "",
          "type": "uint256"
        }
      ],
      "name": "castleToOwner",
      "outputs": [
        {
          "internalType": "address",
          "name": "",
          "type": "address"
        }
      ],
      "payable": false,
      "stateMutability": "view",
      "type": "function"
    },
    {
      "constant": true,
      "inputs": [],
      "name": "checkUserAddress",
      "outputs": [
        {
          "internalType": "bool",
          "name": "",
          "type": "bool"
        }
      ],
      "payable": false,
      "stateMutability": "view",
      "type": "function"
    },
    {
      "constant": true,
      "inputs": [
        {
          "internalType": "address",
          "name": "",
          "type": "address"
        }
      ],
      "name": "coinOwnerCount",
      "outputs": [
        {
          "internalType": "uint256",
          "name": "",
          "type": "uint256"
        }
      ],
      "payable": false,
      "stateMutability": "view",
      "type": "function"
    },
    {
      "constant": true,
      "inputs": [],
      "name": "createSoldierTime",
      "outputs": [
        {
          "internalType": "uint256",
          "name": "",
          "type": "uint256"
        }
      ],
      "payable": false,
      "stateMutability": "view",
      "type": "function"
    },
    {
      "constant": true,
      "inputs": [
        {
          "internalType": "address",
          "name": "",
          "type": "address"
        }
      ],
      "name": "foodOwnerCount",
      "outputs": [
        {
          "internalType": "uint256",
          "name": "",
          "type": "uint256"
        }
      ],
      "payable": false,
      "stateMutability": "view",
      "type": "function"
    },
    {
      "constant": true,
      "inputs": [
        {
          "internalType": "uint256",
          "name": "idx",
          "type": "uint256"
        }
      ],
      "name": "getBuildingById",
      "outputs": [
        {
          "internalType": "bool",
          "name": "",
          "type": "bool"
        },
        {
          "internalType": "string",
          "name": "",
          "type": "string"
        },
        {
          "internalType": "uint256",
          "name": "",
          "type": "uint256"
        }
      ],
      "payable": false,
      "stateMutability": "view",
      "type": "function"
    },
    {
      "constant": true,
      "inputs": [
        {
          "internalType": "address",
          "name": "_owner",
          "type": "address"
        },
        {
          "internalType": "uint256",
          "name": "_placeX",
          "type": "uint256"
        },
        {
          "internalType": "uint256",
          "name": "_placeY",
          "type": "uint256"
        }
      ],
      "name": "getBuildingByOwner",
      "outputs": [
        {
          "internalType": "uint256",
          "name": "",
          "type": "uint256"
        },
        {
          "internalType": "string",
          "name": "",
          "type": "string"
        }
      ],
      "payable": false,
      "stateMutability": "view",
      "type": "function"
    },
    {
      "constant": true,
      "inputs": [
        {
          "internalType": "address",
          "name": "_owner",
          "type": "address"
        }
      ],
      "name": "getBuildingsByOwner",
      "outputs": [
        {
          "internalType": "uint256[]",
          "name": "",
          "type": "uint256[]"
        }
      ],
      "payable": false,
      "stateMutability": "view",
      "type": "function"
    },
    {
      "constant": true,
      "inputs": [],
      "name": "getBuildingsLen",
      "outputs": [
        {
          "internalType": "uint256",
          "name": "",
          "type": "uint256"
        }
      ],
      "payable": false,
      "stateMutability": "view",
      "type": "function"
    },
    {
      "constant": true,
      "inputs": [],
      "name": "getCoinAmount",
      "outputs": [
        {
          "internalType": "uint256",
          "name": "",
          "type": "uint256"
        }
      ],
      "payable": false,
      "stateMutability": "view",
      "type": "function"
    },
    {
      "constant": true,
      "inputs": [],
      "name": "getFoodAmount",
      "outputs": [
        {
          "internalType": "uint256",
          "name": "",
          "type": "uint256"
        }
      ],
      "payable": false,
      "stateMutability": "view",
      "type": "function"
    },
    {
      "constant": true,
      "inputs": [],
      "name": "getIronAmount",
      "outputs": [
        {
          "internalType": "uint256",
          "name": "",
          "type": "uint256"
        }
      ],
      "payable": false,
      "stateMutability": "view",
      "type": "function"
    },
    {
      "constant": true,
      "inputs": [],
      "name": "getKingdomAmount",
      "outputs": [
        {
          "internalType": "uint256",
          "name": "",
          "type": "uint256"
        }
      ],
      "payable": false,
      "stateMutability": "view",
      "type": "function"
    },
    {
      "constant": true,
      "inputs": [],
      "name": "getMyIdx",
      "outputs": [
        {
          "internalType": "uint256",
          "name": "",
          "type": "uint256"
        }
      ],
      "payable": false,
      "stateMutability": "view",
      "type": "function"
    },
    {
      "constant": true,
      "inputs": [
        {
          "internalType": "address",
          "name": "_owner",
          "type": "address"
        }
      ],
      "name": "getRemainingTime",
      "outputs": [
        {
          "internalType": "uint256",
          "name": "",
          "type": "uint256"
        }
      ],
      "payable": false,
      "stateMutability": "view",
      "type": "function"
    },
    {
      "constant": true,
      "inputs": [
        {
          "internalType": "address",
          "name": "_owner",
          "type": "address"
        }
      ],
      "name": "getSoldierAmount",
      "outputs": [
        {
          "internalType": "uint256",
          "name": "",
          "type": "uint256"
        }
      ],
      "payable": false,
      "stateMutability": "view",
      "type": "function"
    },
    {
      "constant": true,
      "inputs": [
        {
          "internalType": "address",
          "name": "_owner",
          "type": "address"
        },
        {
          "internalType": "string",
          "name": "_name",
          "type": "string"
        }
      ],
      "name": "getSpecificBuildingByOwner",
      "outputs": [
        {
          "internalType": "uint256[]",
          "name": "",
          "type": "uint256[]"
        }
      ],
      "payable": false,
      "stateMutability": "view",
      "type": "function"
    },
    {
      "constant": true,
      "inputs": [],
      "name": "getStoneAmount",
      "outputs": [
        {
          "internalType": "uint256",
          "name": "",
          "type": "uint256"
        }
      ],
      "payable": false,
      "stateMutability": "view",
      "type": "function"
    },
    {
      "constant": true,
      "inputs": [
        {
          "internalType": "address",
          "name": "_owner",
          "type": "address"
        }
      ],
      "name": "getUpgradingId",
      "outputs": [
        {
          "internalType": "uint256",
          "name": "",
          "type": "uint256"
        }
      ],
      "payable": false,
      "stateMutability": "view",
      "type": "function"
    },
    {
      "constant": true,
      "inputs": [
        {
          "internalType": "uint256",
          "name": "idx",
          "type": "uint256"
        }
      ],
      "name": "getUserHealth",
      "outputs": [
        {
          "internalType": "uint256",
          "name": "",
          "type": "uint256"
        }
      ],
      "payable": false,
      "stateMutability": "view",
      "type": "function"
    },
    {
      "constant": true,
      "inputs": [
        {
          "internalType": "uint256",
          "name": "idx",
          "type": "uint256"
        }
      ],
      "name": "getUserPower",
      "outputs": [
        {
          "internalType": "uint256",
          "name": "",
          "type": "uint256"
        }
      ],
      "payable": false,
      "stateMutability": "view",
      "type": "function"
    },
    {
      "constant": true,
      "inputs": [
        {
          "internalType": "uint256",
          "name": "idx",
          "type": "uint256"
        }
      ],
      "name": "getUserSpyPower",
      "outputs": [
        {
          "internalType": "uint256",
          "name": "",
          "type": "uint256"
        }
      ],
      "payable": false,
      "stateMutability": "view",
      "type": "function"
    },
    {
      "constant": true,
      "inputs": [],
      "name": "getWoodAmount",
      "outputs": [
        {
          "internalType": "uint256",
          "name": "",
          "type": "uint256"
        }
      ],
      "payable": false,
      "stateMutability": "view",
      "type": "function"
    },
    {
      "constant": true,
      "inputs": [
        {
          "internalType": "address",
          "name": "",
          "type": "address"
        }
      ],
      "name": "health",
      "outputs": [
        {
          "internalType": "uint256",
          "name": "",
          "type": "uint256"
        }
      ],
      "payable": false,
      "stateMutability": "view",
      "type": "function"
    },
    {
      "constant": true,
      "inputs": [
        {
          "internalType": "address",
          "name": "",
          "type": "address"
        }
      ],
      "name": "ironOwnerCount",
      "outputs": [
        {
          "internalType": "uint256",
          "name": "",
          "type": "uint256"
        }
      ],
      "payable": false,
      "stateMutability": "view",
      "type": "function"
    },
    {
      "constant": true,
      "inputs": [],
      "name": "kingdomAmount",
      "outputs": [
        {
          "internalType": "uint256",
          "name": "",
          "type": "uint256"
        }
      ],
      "payable": false,
      "stateMutability": "view",
      "type": "function"
    },
    {
      "constant": true,
      "inputs": [
        {
          "internalType": "address",
          "name": "",
          "type": "address"
        }
      ],
      "name": "levelOfSoldier",
      "outputs": [
        {
          "internalType": "uint256",
          "name": "",
          "type": "uint256"
        }
      ],
      "payable": false,
      "stateMutability": "view",
      "type": "function"
    },
    {
      "constant": true,
      "inputs": [],
      "name": "levelUpSoldierTime",
      "outputs": [
        {
          "internalType": "uint256",
          "name": "",
          "type": "uint256"
        }
      ],
      "payable": false,
      "stateMutability": "view",
      "type": "function"
    },
    {
      "constant": true,
      "inputs": [
        {
          "internalType": "address",
          "name": "",
          "type": "address"
        }
      ],
      "name": "numOfSoldier",
      "outputs": [
        {
          "internalType": "uint256",
          "name": "",
          "type": "uint256"
        }
      ],
      "payable": false,
      "stateMutability": "view",
      "type": "function"
    },
    {
      "constant": true,
      "inputs": [
        {
          "internalType": "address",
          "name": "",
          "type": "address"
        }
      ],
      "name": "ownerCastleCount",
      "outputs": [
        {
          "internalType": "uint256",
          "name": "",
          "type": "uint256"
        }
      ],
      "payable": false,
      "stateMutability": "view",
      "type": "function"
    },
    {
      "constant": true,
      "inputs": [
        {
          "internalType": "address",
          "name": "",
          "type": "address"
        }
      ],
      "name": "ownerCreateSoldierTime",
      "outputs": [
        {
          "internalType": "uint256",
          "name": "",
          "type": "uint256"
        }
      ],
      "payable": false,
      "stateMutability": "view",
      "type": "function"
    },
    {
      "constant": true,
      "inputs": [
        {
          "internalType": "address",
          "name": "",
          "type": "address"
        }
      ],
      "name": "ownerStartCreateTime",
      "outputs": [
        {
          "internalType": "uint256",
          "name": "",
          "type": "uint256"
        }
      ],
      "payable": false,
      "stateMutability": "view",
      "type": "function"
    },
    {
      "constant": true,
      "inputs": [
        {
          "internalType": "address",
          "name": "",
          "type": "address"
        }
      ],
      "name": "ownerStartLevelUpTime",
      "outputs": [
        {
          "internalType": "uint256",
          "name": "",
          "type": "uint256"
        }
      ],
      "payable": false,
      "stateMutability": "view",
      "type": "function"
    },
    {
      "constant": true,
      "inputs": [
        {
          "internalType": "address",
          "name": "",
          "type": "address"
        }
      ],
      "name": "power",
      "outputs": [
        {
          "internalType": "uint256",
          "name": "",
          "type": "uint256"
        }
      ],
      "payable": false,
      "stateMutability": "view",
      "type": "function"
    },
    {
      "constant": true,
      "inputs": [],
      "name": "soldierHealth",
      "outputs": [
        {
          "internalType": "uint256",
          "name": "",
          "type": "uint256"
        }
      ],
      "payable": false,
      "stateMutability": "view",
      "type": "function"
    },
    {
      "constant": true,
      "inputs": [],
      "name": "soldierPower",
      "outputs": [
        {
          "internalType": "uint256",
          "name": "",
          "type": "uint256"
        }
      ],
      "payable": false,
      "stateMutability": "view",
      "type": "function"
    },
    {
      "constant": true,
      "inputs": [
        {
          "internalType": "address",
          "name": "",
          "type": "address"
        }
      ],
      "name": "spyPower",
      "outputs": [
        {
          "internalType": "uint256",
          "name": "",
          "type": "uint256"
        }
      ],
      "payable": false,
      "stateMutability": "view",
      "type": "function"
    },
    {
      "constant": false,
      "inputs": [
        {
          "internalType": "address",
          "name": "_owner",
          "type": "address"
        },
        {
          "internalType": "uint256",
          "name": "_x",
          "type": "uint256"
        },
        {
          "internalType": "uint256",
          "name": "_y",
          "type": "uint256"
        }
      ],
      "name": "startBuild",
      "outputs": [
        {
          "internalType": "uint256",
          "name": "",
          "type": "uint256"
        }
      ],
      "payable": false,
      "stateMutability": "nonpayable",
      "type": "function"
    },
    {
      "constant": true,
      "inputs": [
        {
          "internalType": "address",
          "name": "",
          "type": "address"
        }
      ],
      "name": "stoneOwnerCount",
      "outputs": [
        {
          "internalType": "uint256",
          "name": "",
          "type": "uint256"
        }
      ],
      "payable": false,
      "stateMutability": "view",
      "type": "function"
    },
    {
      "constant": false,
      "inputs": [
        {
          "internalType": "address",
          "name": "_owner",
          "type": "address"
        }
      ],
      "name": "updateBuild",
      "outputs": [
        {
          "internalType": "uint256",
          "name": "",
          "type": "uint256"
        }
      ],
      "payable": false,
      "stateMutability": "nonpayable",
      "type": "function"
    },
    {
      "constant": true,
      "inputs": [
        {
          "internalType": "address",
          "name": "",
          "type": "address"
        }
      ],
      "name": "woodOwnerCount",
      "outputs": [
        {
          "internalType": "uint256",
          "name": "",
          "type": "uint256"
        }
      ],
      "payable": false,
      "stateMutability": "view",
      "type": "function"
    },
    {
      "constant": false,
      "inputs": [
        {
          "internalType": "uint16",
          "name": "_x",
          "type": "uint16"
        },
        {
          "internalType": "uint16",
          "name": "_y",
          "type": "uint16"
        }
      ],
      "name": "createBarrack",
      "outputs": [],
      "payable": false,
      "stateMutability": "nonpayable",
      "type": "function"
    },
    {
      "constant": false,
      "inputs": [
        {
          "internalType": "uint256",
          "name": "number",
          "type": "uint256"
        }
      ],
      "name": "startCreateSoldier",
      "outputs": [
        {
          "internalType": "uint256",
          "name": "",
          "type": "uint256"
        }
      ],
      "payable": false,
      "stateMutability": "nonpayable",
      "type": "function"
    },
    {
      "constant": true,
      "inputs": [],
      "name": "getCreateSoldierTime",
      "outputs": [
        {
          "internalType": "uint256",
          "name": "",
          "type": "uint256"
        },
        {
          "internalType": "uint256",
          "name": "",
          "type": "uint256"
        }
      ],
      "payable": false,
      "stateMutability": "view",
      "type": "function"
    },
    {
      "constant": false,
      "inputs": [
        {
          "internalType": "address",
          "name": "_owner",
          "type": "address"
        }
      ],
      "name": "updateCreateSoldier",
      "outputs": [
        {
          "internalType": "uint256",
          "name": "",
          "type": "uint256"
        }
      ],
      "payable": false,
      "stateMutability": "nonpayable",
      "type": "function"
    }
  ],
  "bytecode": "0x60806040526010600b55600b54600a0a600c55600a600d556064600f55600a602155600a6022556001602355600160245534801561003c57600080fd5b50614c828061004c6000396000f3fe608060405234801561001057600080fd5b50600436106102a05760003560e01c8063867b84e211610167578063db2ace2a116100ce578063ef78b6dc11610087578063ef78b6dc14611059578063f25a1782146110b1578063f4ab27f0146110d6578063f7a2466014611144578063fd8ccf2714611162578063ff4581f114611180576102a0565b8063db2ace2a14610e69578063e1fa763814610ec1578063e2d8ebee14610ef9578063e428afa014610f51578063e5b285f214610fa9578063e9933a4b14611001576102a0565b8063a706be8111610120578063a706be8114610d21578063aba19ece14610d3f578063ad1c89cc14610dab578063c8b4eeff14610dc9578063ccf358a414610e0b578063d78ea27814610e29576102a0565b8063867b84e214610b975780638919a9ca14610bef5780638c5f685414610c115780638e3c819214610c535780639073af8114610c71578063a4b1919d14610cc9576102a0565b8063503371a51161020b578063789630be116101c4578063789630be146109505780637e2b875b1461096e5780638226e5301461098c57806382a41828146109e4578063834af9b614610a7d578063842a89fa14610abf576102a0565b8063503371a51461079e5780635192b291146107f657806356074209146108645780635697b21a146108bc5780635ad6099314610914578063623e9ba614610932576102a0565b8063290585361161025d57806329058536146104a25780632c79c523146104fa578063323a46861461062a57806346125f841461066c57806347dcb51c146106c45780634c96a062146106e2576102a0565b80630c2b6904146102a55780630e85117a146102fd5780630f130a3914610355578063194c717b1461040e5780631c1b625a1461042c5780631c980beb14610484575b600080fd5b6102e7600480360360208110156102bb57600080fd5b81019080803573ffffffffffffffffffffffffffffffffffffffff1690602001909291905050506111d8565b6040518082815260200191505060405180910390f35b61033f6004803603602081101561031357600080fd5b81019080803573ffffffffffffffffffffffffffffffffffffffff1690602001909291905050506111f0565b6040518082815260200191505060405180910390f35b6103816004803603602081101561036b57600080fd5b810190808035906020019092919050505061136c565b604051808415151515815260200180602001838152602001828103825284818151815260200191508051906020019080838360005b838110156103d15780820151818401526020810190506103b6565b50505050905090810190601f1680156103fe5780820380516001836020036101000a031916815260200191505b5094505050505060405180910390f35b6104166114af565b6040518082815260200191505060405180910390f35b61046e6004803603602081101561044257600080fd5b81019080803573ffffffffffffffffffffffffffffffffffffffff1690602001909291905050506114b5565b6040518082815260200191505060405180910390f35b61048c61180a565b6040518082815260200191505060405180910390f35b6104e4600480360360208110156104b857600080fd5b81019080803573ffffffffffffffffffffffffffffffffffffffff169060200190929190505050611850565b6040518082815260200191505060405180910390f35b6105d36004803603604081101561051057600080fd5b81019080803573ffffffffffffffffffffffffffffffffffffffff1690602001909291908035906020019064010000000081111561054d57600080fd5b82018360208201111561055f57600080fd5b8035906020019184600183028401116401000000008311171561058157600080fd5b91908080601f016020809104026020016040519081016040528093929190818152602001838380828437600081840152601f19601f820116905080830192505050505050509192919290505050611868565b6040518080602001828103825283818151815260200191508051906020019060200280838360005b838110156106165780820151818401526020810190506105fb565b505050509050019250505060405180910390f35b6106566004803603602081101561064057600080fd5b8101908080359060200190929190505050611e96565b6040518082815260200191505060405180910390f35b6106ae6004803603602081101561068257600080fd5b81019080803573ffffffffffffffffffffffffffffffffffffffff169060200190929190505050611f26565b6040518082815260200191505060405180910390f35b6106cc611f3e565b6040518082815260200191505060405180910390f35b61070e600480360360208110156106f857600080fd5b8101908080359060200190929190505050611f44565b6040518080602001858152602001848152602001838152602001828103825286818151815260200191508051906020019080838360005b83811015610760578082015181840152602081019050610745565b50505050905090810190601f16801561078d5780820380516001836020036101000a031916815260200191505b509550505050505060405180910390f35b6107e0600480360360208110156107b457600080fd5b81019080803573ffffffffffffffffffffffffffffffffffffffff169060200190929190505050612019565b6040518082815260200191505060405180910390f35b6108226004803603602081101561080c57600080fd5b8101908080359060200190929190505050612031565b604051808273ffffffffffffffffffffffffffffffffffffffff1673ffffffffffffffffffffffffffffffffffffffff16815260200191505060405180910390f35b6108a66004803603602081101561087a57600080fd5b81019080803573ffffffffffffffffffffffffffffffffffffffff169060200190929190505050612064565b6040518082815260200191505060405180910390f35b6108fe600480360360208110156108d257600080fd5b81019080803573ffffffffffffffffffffffffffffffffffffffff1690602001909291905050506122be565b6040518082815260200191505060405180910390f35b61091c6122d6565b6040518082815260200191505060405180910390f35b61093a61231d565b6040518082815260200191505060405180910390f35b610958612364565b6040518082815260200191505060405180910390f35b6109766123fb565b6040518082815260200191505060405180910390f35b6109ce600480360360208110156109a257600080fd5b81019080803573ffffffffffffffffffffffffffffffffffffffff169060200190929190505050612405565b6040518082815260200191505060405180910390f35b610a26600480360360208110156109fa57600080fd5b81019080803573ffffffffffffffffffffffffffffffffffffffff16906020019092919050505061241d565b6040518080602001828103825283818151815260200191508051906020019060200280838360005b83811015610a69578082015181840152602081019050610a4e565b505050509050019250505060405180910390f35b610aa960048036036020811015610a9357600080fd5b81019080803590602001909291905050506126de565b6040518082815260200191505060405180910390f35b610b1560048036036060811015610ad557600080fd5b81019080803573ffffffffffffffffffffffffffffffffffffffff169060200190929190803590602001909291908035906020019092919050505061276e565b6040518083815260200180602001828103825283818151815260200191508051906020019080838360005b83811015610b5b578082015181840152602081019050610b40565b50505050905090810190601f168015610b885780820380516001836020036101000a031916815260200191505b50935050505060405180910390f35b610bd960048036036020811015610bad57600080fd5b81019080803573ffffffffffffffffffffffffffffffffffffffff169060200190929190505050612957565b6040518082815260200191505060405180910390f35b610bf761296f565b604051808215151515815260200191505060405180910390f35b610c3d60048036036020811015610c2757600080fd5b81019080803590602001909291905050506129c9565b6040518082815260200191505060405180910390f35b610c5b612b63565b6040518082815260200191505060405180910390f35b610cb360048036036020811015610c8757600080fd5b81019080803573ffffffffffffffffffffffffffffffffffffffff169060200190929190505050612b69565b6040518082815260200191505060405180910390f35b610d0b60048036036020811015610cdf57600080fd5b81019080803573ffffffffffffffffffffffffffffffffffffffff169060200190929190505050612b81565b6040518082815260200191505060405180910390f35b610d29612bca565b6040518082815260200191505060405180910390f35b610d9560048036036060811015610d5557600080fd5b81019080803573ffffffffffffffffffffffffffffffffffffffff1690602001909291908035906020019092919080359060200190929190505050612bd0565b6040518082815260200191505060405180910390f35b610db3612dfa565b6040518082815260200191505060405180910390f35b610df560048036036020811015610ddf57600080fd5b8101908080359060200190929190505050612e07565b6040518082815260200191505060405180910390f35b610e13612e97565b6040518082815260200191505060405180910390f35b610e6760048036036040811015610e3f57600080fd5b81019080803561ffff169060200190929190803561ffff169060200190929190505050612ede565b005b610eab60048036036020811015610e7f57600080fd5b81019080803573ffffffffffffffffffffffffffffffffffffffff169060200190929190505050612f71565b6040518082815260200191505060405180910390f35b610ef760048036036040811015610ed757600080fd5b810190808035906020019092919080359060200190929190505050612fba565b005b610f3b60048036036020811015610f0f57600080fd5b81019080803573ffffffffffffffffffffffffffffffffffffffff1690602001909291905050506130a5565b6040518082815260200191505060405180910390f35b610f9360048036036020811015610f6757600080fd5b81019080803573ffffffffffffffffffffffffffffffffffffffff1690602001909291905050506130bd565b6040518082815260200191505060405180910390f35b610feb60048036036020811015610fbf57600080fd5b81019080803573ffffffffffffffffffffffffffffffffffffffff1690602001909291905050506130d5565b6040518082815260200191505060405180910390f35b6110436004803603602081101561101757600080fd5b81019080803573ffffffffffffffffffffffffffffffffffffffff1690602001909291905050506130ed565b6040518082815260200191505060405180910390f35b61109b6004803603602081101561106f57600080fd5b81019080803573ffffffffffffffffffffffffffffffffffffffff169060200190929190505050613105565b6040518082815260200191505060405180910390f35b6110b961311d565b604051808381526020018281526020019250505060405180910390f35b611102600480360360208110156110ec57600080fd5b81019080803590602001909291905050506131aa565b604051808273ffffffffffffffffffffffffffffffffffffffff1673ffffffffffffffffffffffffffffffffffffffff16815260200191505060405180910390f35b61114c6131dd565b6040518082815260200191505060405180910390f35b61116a6131e3565b6040518082815260200191505060405180910390f35b6111c26004803603602081101561119657600080fd5b81019080803573ffffffffffffffffffffffffffffffffffffffff16906020019092919050505061322a565b6040518082815260200191505060405180910390f35b601f6020528060005260406000206000915090505481565b600080601260008473ffffffffffffffffffffffffffffffffffffffff1673ffffffffffffffffffffffffffffffffffffffff1681526020019081526020016000205490506000601160008573ffffffffffffffffffffffffffffffffffffffff1673ffffffffffffffffffffffffffffffffffffffff16815260200190815260200160002054141580156112e85750600d54600e828154811061129057fe5b90600052602060002090600402016003015402601160008573ffffffffffffffffffffffffffffffffffffffff1673ffffffffffffffffffffffffffffffffffffffff16815260200190815260200160002054014210155b156112f7576000915050611367565b600042600d54600e848154811061130a57fe5b90600052602060002090600402016003015402601160008773ffffffffffffffffffffffffffffffffffffffff1673ffffffffffffffffffffffffffffffffffffffff168152602001908152602001600020540103905080925050505b919050565b600060606000600e8054905084106113c6576000806040518060400160405280601381526020017f696e76616c6964206275696c64696e6720696400000000000000000000000000815250908090509250925092506114a8565b6001600e85815481106113d557fe5b9060005260206000209060040201600001600e86815481106113f357fe5b906000526020600020906004020160030154818054600181600116156101000203166002900480601f01602080910402602001604051908101604052809291908181526020018280546001816001161561010002031660029004801561149a5780601f1061146f5761010080835404028352916020019161149a565b820191906000526020600020905b81548152906001019060200180831161147d57829003601f168201915b505050505091509250925092505b9193909250565b60085481565b600080601e60008473ffffffffffffffffffffffffffffffffffffffff1673ffffffffffffffffffffffffffffffffffffffff1681526020019081526020016000205414156115075760009050611805565b611598601f60008473ffffffffffffffffffffffffffffffffffffffff1673ffffffffffffffffffffffffffffffffffffffff16815260200190815260200160002054601e60008573ffffffffffffffffffffffffffffffffffffffff1673ffffffffffffffffffffffffffffffffffffffff1681526020019081526020016000205461324190919063ffffffff16565b42106117695760006116456115f7602154601d60008773ffffffffffffffffffffffffffffffffffffffff1673ffffffffffffffffffffffffffffffffffffffff168152602001908152602001600020546132c990919063ffffffff16565b601f60008673ffffffffffffffffffffffffffffffffffffffff1673ffffffffffffffffffffffffffffffffffffffff1681526020019081526020016000205461334f90919063ffffffff16565b905080601c60008573ffffffffffffffffffffffffffffffffffffffff1673ffffffffffffffffffffffffffffffffffffffff1681526020019081526020016000205401601c60008573ffffffffffffffffffffffffffffffffffffffff1673ffffffffffffffffffffffffffffffffffffffff168152602001908152602001600020819055506000601e60008573ffffffffffffffffffffffffffffffffffffffff1673ffffffffffffffffffffffffffffffffffffffff168152602001908152602001600020819055506000601f60008573ffffffffffffffffffffffffffffffffffffffff1673ffffffffffffffffffffffffffffffffffffffff1681526020019081526020016000208190555061175f83613399565b6000915050611805565b60006117fe42601f60008673ffffffffffffffffffffffffffffffffffffffff1673ffffffffffffffffffffffffffffffffffffffff16815260200190815260200160002054601e60008773ffffffffffffffffffffffffffffffffffffffff1673ffffffffffffffffffffffffffffffffffffffff168152602001908152602001600020540161352c90919063ffffffff16565b9050809150505b919050565b60008060003373ffffffffffffffffffffffffffffffffffffffff1673ffffffffffffffffffffffffffffffffffffffff16815260200190815260200160002054905090565b601d6020528060005260406000206000915090505481565b606060008090506040518060400160405280600481526020017f4661726d00000000000000000000000000000000000000000000000000000000815250805190602001208380519060200120141561190157601460008573ffffffffffffffffffffffffffffffffffffffff1673ffffffffffffffffffffffffffffffffffffffff168152602001908152602001600020549050611d02565b6040518060400160405280600481526020017f4d696e6500000000000000000000000000000000000000000000000000000000815250805190602001208380519060200120141561199357601560008573ffffffffffffffffffffffffffffffffffffffff1673ffffffffffffffffffffffffffffffffffffffff168152602001908152602001600020549050611d01565b6040518060400160405280600581526020017f4d616e6f720000000000000000000000000000000000000000000000000000008152508051906020012083805190602001201415611a2557601660008573ffffffffffffffffffffffffffffffffffffffff1673ffffffffffffffffffffffffffffffffffffffff168152602001908152602001600020549050611d00565b6040518060400160405280600681526020017f51756172727900000000000000000000000000000000000000000000000000008152508051906020012083805190602001201415611ab757601760008573ffffffffffffffffffffffffffffffffffffffff1673ffffffffffffffffffffffffffffffffffffffff168152602001908152602001600020549050611cff565b6040518060400160405280600781526020017f5361776d696c6c000000000000000000000000000000000000000000000000008152508051906020012083805190602001201415611b4957601860008573ffffffffffffffffffffffffffffffffffffffff1673ffffffffffffffffffffffffffffffffffffffff168152602001908152602001600020549050611cfe565b6040518060400160405280600681526020017f43656c6c617200000000000000000000000000000000000000000000000000008152508051906020012083805190602001201415611bdb57601960008573ffffffffffffffffffffffffffffffffffffffff1673ffffffffffffffffffffffffffffffffffffffff168152602001908152602001600020549050611cfd565b6040518060400160405280600781526020017f4261727261636b000000000000000000000000000000000000000000000000008152508051906020012083805190602001201415611c6d57601a60008573ffffffffffffffffffffffffffffffffffffffff1673ffffffffffffffffffffffffffffffffffffffff168152602001908152602001600020549050611cfc565b6040518060400160405280600a81526020017f4c61626f7261746f7279000000000000000000000000000000000000000000008152508051906020012083805190602001201415611cfb57601b60008573ffffffffffffffffffffffffffffffffffffffff1673ffffffffffffffffffffffffffffffffffffffff1681526020019081526020016000205490505b5b5b5b5b5b5b5b606081604051908082528060200260200182016040528015611d335781602001602082028038833980820191505090505b509050600080905060008090505b600e80549050811015611e89578673ffffffffffffffffffffffffffffffffffffffff166010600083815260200190815260200160002060009054906101000a900473ffffffffffffffffffffffffffffffffffffffff1673ffffffffffffffffffffffffffffffffffffffff16148015611e4757508580519060200120600e8281548110611dcc57fe5b90600052602060002090600402016000016040518082805460018160011615610100020316600290048015611e385780601f10611e16576101008083540402835291820191611e38565b820191906000526020600020905b815481529060010190602001808311611e24575b50509150506040518091039020145b15611e7c5780838381518110611e5957fe5b602002602001018181525050611e7960018361324190919063ffffffff16565b91505b8080600101915050611d41565b5081935050505092915050565b6000600854821015611f1c57600760006009600085815260200190815260200160002060009054906101000a900473ffffffffffffffffffffffffffffffffffffffff1673ffffffffffffffffffffffffffffffffffffffff1673ffffffffffffffffffffffffffffffffffffffff168152602001908152602001600020549050611f21565b600090505b919050565b600a6020528060005260406000206000915090505481565b60215481565b600e8181548110611f5157fe5b9060005260206000209060040201600091509050806000018054600181600116156101000203166002900480601f016020809104026020016040519081016040528092919081815260200182805460018160011615610100020316600290048015611ffd5780601f10611fd257610100808354040283529160200191611ffd565b820191906000526020600020905b815481529060010190602001808311611fe057829003601f168201915b5050505050908060010154908060020154908060030154905084565b60056020528060005260406000206000915090505481565b60106020528060005260406000206000915054906101000a900473ffffffffffffffffffffffffffffffffffffffff1681565b600080601260008473ffffffffffffffffffffffffffffffffffffffff1673ffffffffffffffffffffffffffffffffffffffff1681526020019081526020016000205490506000601160008573ffffffffffffffffffffffffffffffffffffffff1673ffffffffffffffffffffffffffffffffffffffff168152602001908152602001600020541415801561215c5750600d54600e828154811061210457fe5b90600052602060002090600402016003015402601160008573ffffffffffffffffffffffffffffffffffffffff1673ffffffffffffffffffffffffffffffffffffffff16815260200190815260200160002054014210155b15612249576121936001600e838154811061217357fe5b90600052602060002090600402016003015461324190919063ffffffff16565b600e82815481106121a057fe5b9060005260206000209060040201600301819055506000601160008573ffffffffffffffffffffffffffffffffffffffff1673ffffffffffffffffffffffffffffffffffffffff168152602001908152602001600020819055506000601260008573ffffffffffffffffffffffffffffffffffffffff1673ffffffffffffffffffffffffffffffffffffffff1681526020019081526020016000208190555060009150506122b9565b600042600d54600e848154811061225c57fe5b90600052602060002090600402016003015402601160008773ffffffffffffffffffffffffffffffffffffffff1673ffffffffffffffffffffffffffffffffffffffff168152602001908152602001600020540103905080925050505b919050565b601c6020528060005260406000206000915090505481565b6000600260003373ffffffffffffffffffffffffffffffffffffffff1673ffffffffffffffffffffffffffffffffffffffff16815260200190815260200160002054905090565b6000600360003373ffffffffffffffffffffffffffffffffffffffff1673ffffffffffffffffffffffffffffffffffffffff16815260200190815260200160002054905090565b600080600090505b6008548110156123f1573373ffffffffffffffffffffffffffffffffffffffff166009600083815260200190815260200160002060009054906101000a900473ffffffffffffffffffffffffffffffffffffffff1673ffffffffffffffffffffffffffffffffffffffff1614156123e657809150506123f8565b80600101905061236c565b5060085490505b90565b6000600854905090565b60016020528060005260406000206000915090505481565b606080601a60008473ffffffffffffffffffffffffffffffffffffffff1673ffffffffffffffffffffffffffffffffffffffff16815260200190815260200160002054601960008573ffffffffffffffffffffffffffffffffffffffff1673ffffffffffffffffffffffffffffffffffffffff16815260200190815260200160002054601860008673ffffffffffffffffffffffffffffffffffffffff1673ffffffffffffffffffffffffffffffffffffffff16815260200190815260200160002054601760008773ffffffffffffffffffffffffffffffffffffffff1673ffffffffffffffffffffffffffffffffffffffff16815260200190815260200160002054601660008873ffffffffffffffffffffffffffffffffffffffff1673ffffffffffffffffffffffffffffffffffffffff16815260200190815260200160002054601560008973ffffffffffffffffffffffffffffffffffffffff1673ffffffffffffffffffffffffffffffffffffffff16815260200190815260200160002054601460008a73ffffffffffffffffffffffffffffffffffffffff1673ffffffffffffffffffffffffffffffffffffffff168152602001908152602001600020540101010101016040519080825280602002602001820160405280156126145781602001602082028038833980820191505090505b509050600080905060008090505b600e805490508110156126d3578473ffffffffffffffffffffffffffffffffffffffff166010600083815260200190815260200160002060009054906101000a900473ffffffffffffffffffffffffffffffffffffffff1673ffffffffffffffffffffffffffffffffffffffff1614156126c657808383815181106126a357fe5b6020026020010181815250506126c360018361324190919063ffffffff16565b91505b8080600101915050612622565b508192505050919050565b600060085482101561276457600660006009600085815260200190815260200160002060009054906101000a900473ffffffffffffffffffffffffffffffffffffffff1673ffffffffffffffffffffffffffffffffffffffff1673ffffffffffffffffffffffffffffffffffffffff168152602001908152602001600020549050612769565b600090505b919050565b6000606060008090505b600e8054905081101561290e578573ffffffffffffffffffffffffffffffffffffffff166010600083815260200190815260200160002060009054906101000a900473ffffffffffffffffffffffffffffffffffffffff1673ffffffffffffffffffffffffffffffffffffffff1614156129015784600e82815481106127fa57fe5b906000526020600020906004020160010154148015612836575083600e828154811061282257fe5b906000526020600020906004020160020154145b156129005780600e828154811061284957fe5b9060005260206000209060040201600001808054600181600116156101000203166002900480601f0160208091040260200160405190810160405280929190818152602001828054600181600116156101000203166002900480156128ef5780601f106128c4576101008083540402835291602001916128ef565b820191906000526020600020905b8154815290600101906020018083116128d257829003601f168201915b50505050509050925092505061294f565b5b8080600101915050612778565b60008090506040518060400160405280600481526020017f4e6f6e650000000000000000000000000000000000000000000000000000000081525092509250505b935093915050565b60046020528060005260406000206000915090505481565b600080600a60003373ffffffffffffffffffffffffffffffffffffffff1673ffffffffffffffffffffffffffffffffffffffff1681526020019081526020016000205411156129c157600190506129c6565b600090505b90565b6000803390506000601e60008373ffffffffffffffffffffffffffffffffffffffff1673ffffffffffffffffffffffffffffffffffffffff1681526020019081526020016000205414612a20576000915050612b5e565b600080612a2d8386613576565b9150601d60008473ffffffffffffffffffffffffffffffffffffffff1673ffffffffffffffffffffffffffffffffffffffff168152602001908152602001600020549050600015158215151415612a8a5760009350505050612b5e565b42601e60008573ffffffffffffffffffffffffffffffffffffffff1673ffffffffffffffffffffffffffffffffffffffff1681526020019081526020016000208190555084816021540202601f60008573ffffffffffffffffffffffffffffffffffffffff1673ffffffffffffffffffffffffffffffffffffffff16815260200190815260200160002081905550601f60008473ffffffffffffffffffffffffffffffffffffffff1673ffffffffffffffffffffffffffffffffffffffff1681526020019081526020016000205493505050505b919050565b60235481565b601e6020528060005260406000206000915090505481565b6000601c60008373ffffffffffffffffffffffffffffffffffffffff1673ffffffffffffffffffffffffffffffffffffffff168152602001908152602001600020549050919050565b60245481565b600080612bde85858561276e565b50809150506000811415612bf6576000915050612df3565b6040518060400160405280600681526020017f436173746c65000000000000000000000000000000000000000000000000000081525080519060200120600e8281548110612c4057fe5b90600052602060002090600402016000016040518082805460018160011615610100020316600290048015612cac5780601f10612c8a576101008083540402835291820191612cac565b820191906000526020600020905b815481529060010190602001808311612c98575b5050915050604051809103902050506000601160008773ffffffffffffffffffffffffffffffffffffffff1673ffffffffffffffffffffffffffffffffffffffff1681526020019081526020016000205414612d0c576000915050612df3565b80601260008773ffffffffffffffffffffffffffffffffffffffff1673ffffffffffffffffffffffffffffffffffffffff1681526020019081526020016000208190555042601160008773ffffffffffffffffffffffffffffffffffffffff1673ffffffffffffffffffffffffffffffffffffffff168152602001908152602001600020819055506000600f54600e8381548110612da657fe5b906000526020600020906004020160030154029050612dca86600083848586613676565b50600d54600e8381548110612ddb57fe5b90600052602060002090600402016003015402925050505b9392505050565b6000600e80549050905090565b6000600854821015612e8d57600560006009600085815260200190815260200160002060009054906101000a900473ffffffffffffffffffffffffffffffffffffffff1673ffffffffffffffffffffffffffffffffffffffff1673ffffffffffffffffffffffffffffffffffffffff168152602001908152602001600020549050612e92565b600090505b919050565b6000600460003373ffffffffffffffffffffffffffffffffffffffff1673ffffffffffffffffffffffffffffffffffffffff16815260200190815260200160002054905090565b612f27336040518060400160405280600781526020017f4261727261636b000000000000000000000000000000000000000000000000008152508461ffff168461ffff16613aea565b506001601d60003373ffffffffffffffffffffffffffffffffffffffff1673ffffffffffffffffffffffffffffffffffffffff168152602001908152602001600020819055505050565b6000601260008373ffffffffffffffffffffffffffffffffffffffff1673ffffffffffffffffffffffffffffffffffffffff168152602001908152602001600020549050919050565b6009600083815260200190815260200160002060009054906101000a900473ffffffffffffffffffffffffffffffffffffffff1673ffffffffffffffffffffffffffffffffffffffff163373ffffffffffffffffffffffffffffffffffffffff161461302557600080fd5b60006009600084815260200190815260200160002060009054906101000a900473ffffffffffffffffffffffffffffffffffffffff16905060006009600084815260200190815260200160002060009054906101000a900473ffffffffffffffffffffffffffffffffffffffff16905061309f828261445e565b50505050565b60066020528060005260406000206000915090505481565b60006020528060005260406000206000915090505481565b60026020528060005260406000206000915090505481565b60076020528060005260406000206000915090505481565b60036020528060005260406000206000915090505481565b600080601e60003373ffffffffffffffffffffffffffffffffffffffff1673ffffffffffffffffffffffffffffffffffffffff168152602001908152602001600020544203601f60003373ffffffffffffffffffffffffffffffffffffffff1673ffffffffffffffffffffffffffffffffffffffff16815260200190815260200160002054915091509091565b60096020528060005260406000206000915054906101000a900473ffffffffffffffffffffffffffffffffffffffff1681565b60225481565b6000600160003373ffffffffffffffffffffffffffffffffffffffff1673ffffffffffffffffffffffffffffffffffffffff16815260200190815260200160002054905090565b602080528060005260406000206000915090505481565b6000808284019050838110156132bf576040517f08c379a000000000000000000000000000000000000000000000000000000000815260040180806020018281038252601b8152602001807f536166654d6174683a206164646974696f6e206f766572666c6f77000000000081525060200191505060405180910390fd5b8091505092915050565b6000808314156132dc5760009050613349565b60008284029050828482816132ed57fe5b0414613344576040517f08c379a0000000000000000000000000000000000000000000000000000000008152600401808060200182810382526021815260200180614c2d6021913960400191505060405180910390fd5b809150505b92915050565b600061339183836040518060400160405280601a81526020017f536166654d6174683a206469766973696f6e206279207a65726f000000000000815250614a01565b905092915050565b602354601d60008373ffffffffffffffffffffffffffffffffffffffff1673ffffffffffffffffffffffffffffffffffffffff16815260200190815260200160002054601c60008473ffffffffffffffffffffffffffffffffffffffff1673ffffffffffffffffffffffffffffffffffffffff168152602001908152602001600020540202600560008373ffffffffffffffffffffffffffffffffffffffff1673ffffffffffffffffffffffffffffffffffffffff16815260200190815260200160002081905550602454601d60008373ffffffffffffffffffffffffffffffffffffffff1673ffffffffffffffffffffffffffffffffffffffff16815260200190815260200160002054601c60008473ffffffffffffffffffffffffffffffffffffffff1673ffffffffffffffffffffffffffffffffffffffff168152602001908152602001600020540202600660008373ffffffffffffffffffffffffffffffffffffffff1673ffffffffffffffffffffffffffffffffffffffff1681526020019081526020016000208190555050565b600061356e83836040518060400160405280601e81526020017f536166654d6174683a207375627472616374696f6e206f766572666c6f770000815250614ac7565b905092915050565b600080826005601d60008773ffffffffffffffffffffffffffffffffffffffff1673ffffffffffffffffffffffffffffffffffffffff16815260200190815260200160002054601902030290506000836005601d60008873ffffffffffffffffffffffffffffffffffffffff1673ffffffffffffffffffffffffffffffffffffffff16815260200190815260200160002054601902030290506000846005601d60008973ffffffffffffffffffffffffffffffffffffffff1673ffffffffffffffffffffffffffffffffffffffff168152602001908152602001600020546019020302905061366b8684600085600086613676565b935050505092915050565b600085600260008973ffffffffffffffffffffffffffffffffffffffff1673ffffffffffffffffffffffffffffffffffffffff1681526020019081526020016000205410158015613706575084600460008973ffffffffffffffffffffffffffffffffffffffff1673ffffffffffffffffffffffffffffffffffffffff1681526020019081526020016000205410155b8015613751575083600160008973ffffffffffffffffffffffffffffffffffffffff1673ffffffffffffffffffffffffffffffffffffffff1681526020019081526020016000205410155b801561379b5750826000808973ffffffffffffffffffffffffffffffffffffffff1673ffffffffffffffffffffffffffffffffffffffff1681526020019081526020016000205410155b80156137e6575081600360008973ffffffffffffffffffffffffffffffffffffffff1673ffffffffffffffffffffffffffffffffffffffff1681526020019081526020016000205410155b15613adb5761383d86600260008a73ffffffffffffffffffffffffffffffffffffffff1673ffffffffffffffffffffffffffffffffffffffff1681526020019081526020016000205461352c90919063ffffffff16565b600260008973ffffffffffffffffffffffffffffffffffffffff1673ffffffffffffffffffffffffffffffffffffffff168152602001908152602001600020819055506138d285600460008a73ffffffffffffffffffffffffffffffffffffffff1673ffffffffffffffffffffffffffffffffffffffff1681526020019081526020016000205461352c90919063ffffffff16565b600460008973ffffffffffffffffffffffffffffffffffffffff1673ffffffffffffffffffffffffffffffffffffffff1681526020019081526020016000208190555061396784600160008a73ffffffffffffffffffffffffffffffffffffffff1673ffffffffffffffffffffffffffffffffffffffff1681526020019081526020016000205461352c90919063ffffffff16565b600160008973ffffffffffffffffffffffffffffffffffffffff1673ffffffffffffffffffffffffffffffffffffffff168152602001908152602001600020819055506139fb836000808a73ffffffffffffffffffffffffffffffffffffffff1673ffffffffffffffffffffffffffffffffffffffff1681526020019081526020016000205461352c90919063ffffffff16565b6000808973ffffffffffffffffffffffffffffffffffffffff1673ffffffffffffffffffffffffffffffffffffffff16815260200190815260200160002081905550613a8f82600360008a73ffffffffffffffffffffffffffffffffffffffff1673ffffffffffffffffffffffffffffffffffffffff1681526020019081526020016000205461352c90919063ffffffff16565b600360008973ffffffffffffffffffffffffffffffffffffffff1673ffffffffffffffffffffffffffffffffffffffff1681526020019081526020016000208190555060019050613ae0565b600090505b9695505050505050565b600080600e805490501415613c1257600e60405180608001604052806040518060400160405280600f81526020017f66697273745f6275696c64696e67210000000000000000000000000000000000815250815260200160008152602001600081526020016103e8815250908060018154018082558091505090600182039060005260206000209060040201600090919290919091506000820151816000019080519060200190613b9c929190614b87565b5060208201518160010155604082015181600201556060820151816003015550505060006010600080815260200190815260200160002060006101000a81548173ffffffffffffffffffffffffffffffffffffffff021916908373ffffffffffffffffffffffffffffffffffffffff1602179055505b6000613cb36001600e60405180608001604052808981526020018881526020018781526020016001815250908060018154018082558091505090600182039060005260206000209060040201600090919290919091506000820151816000019080519060200190613c84929190614b87565b50602082015181600101556040820151816002015560608201518160030155505061352c90919063ffffffff16565b9050613ccc866000600f54600f54600f54600f54613676565b50856010600083815260200190815260200160002060006101000a81548173ffffffffffffffffffffffffffffffffffffffff021916908373ffffffffffffffffffffffffffffffffffffffff1602179055506040518060400160405280600481526020017f4661726d000000000000000000000000000000000000000000000000000000008152508051906020012085805190602001201415613e0557613dbd6001601460008973ffffffffffffffffffffffffffffffffffffffff1673ffffffffffffffffffffffffffffffffffffffff1681526020019081526020016000205461324190919063ffffffff16565b601460008873ffffffffffffffffffffffffffffffffffffffff1673ffffffffffffffffffffffffffffffffffffffff16815260200190815260200160002081905550614452565b6040518060400160405280600481526020017f4d696e65000000000000000000000000000000000000000000000000000000008152508051906020012085805190602001201415613eeb57613ea36001601560008973ffffffffffffffffffffffffffffffffffffffff1673ffffffffffffffffffffffffffffffffffffffff1681526020019081526020016000205461324190919063ffffffff16565b601560008873ffffffffffffffffffffffffffffffffffffffff1673ffffffffffffffffffffffffffffffffffffffff16815260200190815260200160002081905550614451565b6040518060400160405280600581526020017f4d616e6f720000000000000000000000000000000000000000000000000000008152508051906020012085805190602001201415613fd157613f896001601660008973ffffffffffffffffffffffffffffffffffffffff1673ffffffffffffffffffffffffffffffffffffffff1681526020019081526020016000205461324190919063ffffffff16565b601660008873ffffffffffffffffffffffffffffffffffffffff1673ffffffffffffffffffffffffffffffffffffffff16815260200190815260200160002081905550614450565b6040518060400160405280600681526020017f517561727279000000000000000000000000000000000000000000000000000081525080519060200120858051906020012014156140b75761406f6001601760008973ffffffffffffffffffffffffffffffffffffffff1673ffffffffffffffffffffffffffffffffffffffff1681526020019081526020016000205461324190919063ffffffff16565b601760008873ffffffffffffffffffffffffffffffffffffffff1673ffffffffffffffffffffffffffffffffffffffff1681526020019081526020016000208190555061444f565b6040518060400160405280600781526020017f5361776d696c6c00000000000000000000000000000000000000000000000000815250805190602001208580519060200120141561419d576141556001601860008973ffffffffffffffffffffffffffffffffffffffff1673ffffffffffffffffffffffffffffffffffffffff1681526020019081526020016000205461324190919063ffffffff16565b601860008873ffffffffffffffffffffffffffffffffffffffff1673ffffffffffffffffffffffffffffffffffffffff1681526020019081526020016000208190555061444e565b6040518060400160405280600681526020017f43656c6c6172000000000000000000000000000000000000000000000000000081525080519060200120858051906020012014156142835761423b6001601960008973ffffffffffffffffffffffffffffffffffffffff1673ffffffffffffffffffffffffffffffffffffffff1681526020019081526020016000205461324190919063ffffffff16565b601960008873ffffffffffffffffffffffffffffffffffffffff1673ffffffffffffffffffffffffffffffffffffffff1681526020019081526020016000208190555061444d565b6040518060400160405280600781526020017f4261727261636b000000000000000000000000000000000000000000000000008152508051906020012085805190602001201415614369576143216001601a60008973ffffffffffffffffffffffffffffffffffffffff1673ffffffffffffffffffffffffffffffffffffffff1681526020019081526020016000205461324190919063ffffffff16565b601a60008873ffffffffffffffffffffffffffffffffffffffff1673ffffffffffffffffffffffffffffffffffffffff1681526020019081526020016000208190555061444c565b6040518060400160405280600a81526020017f4c61626f7261746f727900000000000000000000000000000000000000000000815250805190602001208580519060200120141561444b576144076001601b60008973ffffffffffffffffffffffffffffffffffffffff1673ffffffffffffffffffffffffffffffffffffffff1681526020019081526020016000205461324190919063ffffffff16565b601b60008873ffffffffffffffffffffffffffffffffffffffff1673ffffffffffffffffffffffffffffffffffffffff168152602001908152602001600020819055505b5b5b5b5b5b5b5b80915050949350505050565b600080600560008473ffffffffffffffffffffffffffffffffffffffff1673ffffffffffffffffffffffffffffffffffffffff16815260200190815260200160002054600560008673ffffffffffffffffffffffffffffffffffffffff1673ffffffffffffffffffffffffffffffffffffffff1681526020019081526020016000205411156144f2578391508290506144f9565b8291508390505b60056004600260008473ffffffffffffffffffffffffffffffffffffffff1673ffffffffffffffffffffffffffffffffffffffff16815260200190815260200160002054028161454557fe5b04600260008473ffffffffffffffffffffffffffffffffffffffff1673ffffffffffffffffffffffffffffffffffffffff1681526020019081526020016000205401600260008473ffffffffffffffffffffffffffffffffffffffff1673ffffffffffffffffffffffffffffffffffffffff1681526020019081526020016000208190555060056004600360008473ffffffffffffffffffffffffffffffffffffffff1673ffffffffffffffffffffffffffffffffffffffff16815260200190815260200160002054028161461657fe5b04600360008473ffffffffffffffffffffffffffffffffffffffff1673ffffffffffffffffffffffffffffffffffffffff1681526020019081526020016000205401600360008473ffffffffffffffffffffffffffffffffffffffff1673ffffffffffffffffffffffffffffffffffffffff1681526020019081526020016000208190555060056004600260008473ffffffffffffffffffffffffffffffffffffffff1673ffffffffffffffffffffffffffffffffffffffff1681526020019081526020016000205402816146e757fe5b04600260008373ffffffffffffffffffffffffffffffffffffffff1673ffffffffffffffffffffffffffffffffffffffff1681526020019081526020016000205403600260008373ffffffffffffffffffffffffffffffffffffffff1673ffffffffffffffffffffffffffffffffffffffff1681526020019081526020016000208190555060056004600360008473ffffffffffffffffffffffffffffffffffffffff1673ffffffffffffffffffffffffffffffffffffffff1681526020019081526020016000205402816147b857fe5b04600360008373ffffffffffffffffffffffffffffffffffffffff1673ffffffffffffffffffffffffffffffffffffffff1681526020019081526020016000205403600360008373ffffffffffffffffffffffffffffffffffffffff1673ffffffffffffffffffffffffffffffffffffffff1681526020019081526020016000208190555060006002600560008473ffffffffffffffffffffffffffffffffffffffff1673ffffffffffffffffffffffffffffffffffffffff168152602001908152602001600020548161488857fe5b049050601d60008473ffffffffffffffffffffffffffffffffffffffff1673ffffffffffffffffffffffffffffffffffffffff1681526020019081526020016000205481600560008673ffffffffffffffffffffffffffffffffffffffff1673ffffffffffffffffffffffffffffffffffffffff16815260200190815260200160002054038161491457fe5b04601c60008573ffffffffffffffffffffffffffffffffffffffff1673ffffffffffffffffffffffffffffffffffffffff1681526020019081526020016000208190555060056004601c60008573ffffffffffffffffffffffffffffffffffffffff1673ffffffffffffffffffffffffffffffffffffffff1681526020019081526020016000205402816149a457fe5b04601c60008473ffffffffffffffffffffffffffffffffffffffff1673ffffffffffffffffffffffffffffffffffffffff168152602001908152602001600020819055506149f183613399565b6149fa82613399565b5050505050565b60008083118290614aad576040517f08c379a00000000000000000000000000000000000000000000000000000000081526004018080602001828103825283818151815260200191508051906020019080838360005b83811015614a72578082015181840152602081019050614a57565b50505050905090810190601f168015614a9f5780820380516001836020036101000a031916815260200191505b509250505060405180910390fd5b506000838581614ab957fe5b049050809150509392505050565b6000838311158290614b74576040517f08c379a00000000000000000000000000000000000000000000000000000000081526004018080602001828103825283818151815260200191508051906020019080838360005b83811015614b39578082015181840152602081019050614b1e565b50505050905090810190601f168015614b665780820380516001836020036101000a031916815260200191505b509250505060405180910390fd5b5060008385039050809150509392505050565b828054600181600116156101000203166002900490600052602060002090601f016020900481019282601f10614bc857805160ff1916838001178555614bf6565b82800160010185558215614bf6579182015b82811115614bf5578251825591602001919060010190614bda565b5b509050614c039190614c07565b5090565b614c2991905b80821115614c25576000816000905550600101614c0d565b5090565b9056fe536166654d6174683a206d756c7469706c69636174696f6e206f766572666c6f77a265627a7a72315820a2b4d9ddfe9f4d2f58b28b42b9063983df0d13e696ef1a04619d8a542a06a27564736f6c63430005100032",
  "source": "pragma solidity >=0.4.21 <0.7.0;\n\nimport \"./SafeMath.sol\";\nimport \"./BuildingFactory.sol\";\nimport \"./Soldier.sol\";\n\ncontract Barrack is BuildingFactory, Soldier {\n    \n    using SafeMath for uint;\n    using SafeMath for uint;\n\n    function createBarrack(uint16 _x, uint16 _y) public {\n        _createBuilding(msg.sender, \"Barrack\", _x, _y);\n        levelOfSoldier[msg.sender] = 1;\n    }\n\n    // return 0 if failed (maybe already creating or not enough resource) otherwise return createtime\n    function startCreateSoldier(uint number) public returns(uint) {\n        address _owner = msg.sender;\n        if(ownerStartCreateTime[_owner] != 0) return uint(0); // check if there is already creating soldiers\n        bool enoughResource;\n        uint lvOfSoldier;\n        enoughResource = _createSoldier(_owner, number);\n        lvOfSoldier =  levelOfSoldier[_owner];\n        if(enoughResource == false) return uint(0);\n        ownerStartCreateTime[_owner] = uint(now);\n        ownerCreateSoldierTime[_owner] = createSoldierTime * lvOfSoldier * number;\n        return ownerCreateSoldierTime[_owner];\n    }\n\n    function getCreateSoldierTime() public view returns(uint, uint) {\n        return ( now - ownerStartCreateTime[msg.sender], ownerCreateSoldierTime[msg.sender] ) ;\n    }\n\n    // // return 0 if success else return remaining time\n    function updateCreateSoldier(address _owner) public returns(uint) {\n        if (ownerStartCreateTime[_owner] == 0) return 0;\n        if (now >= ownerStartCreateTime[_owner].add(ownerCreateSoldierTime[_owner])) {\n            uint num;\n            num = ownerCreateSoldierTime[_owner].div(  levelOfSoldier[_owner].mul(createSoldierTime) );\n            numOfSoldier[_owner] = numOfSoldier[_owner] + (num);\n            ownerStartCreateTime[_owner] = 0;\n            ownerCreateSoldierTime[_owner] = 0;\n            _updatePower(_owner);\n            return 0;\n        }\n        else {\n            uint remainingTime = (ownerStartCreateTime[_owner] + ownerCreateSoldierTime[_owner]).sub(now);\n            return remainingTime;\n        }\n    }\n\n    // // return 0 if failed (maybe already creating or not enough resource) otherwise return leveluptime\n    // function startLevelUpSoldier(string memory _name) public returns(uint) {\n    //     address _owner = msg.sender;\n    //     if (ownerStartLevelUpTime[_owner] != 0) return uint(0);// check if there is already leveling up soldiers\n    //     bool enoughResource;\n    //     uint levelOfSoldier;\n    //     uint numOfSoldier;\n    //     if (keccak256(bytes(_name)) == keccak256(bytes(\"Cavalry\"))) {\n    //         enoughResource = _upgradeCavalry(_owner);\n    //         _name = \"Cavalry\";\n    //         levelOfSoldier = levelOfCavalry[_owner];\n    //         numOfSoldier = numOfCavalry[_owner];\n    //     }\n    //     // else if (keccak256(bytes(_name)) == keccak256(bytes(\"Pikemen\"))) {\n    //     //     enoughResource = _upgradePikemen(_owner);\n    //     //     _name = \"Pikemen\";\n    //     //     levelOfSoldier = levelOfPikemen[_owner];\n    //     //     numOfSoldier = numOfPikemen[_owner];\n    //     // }\n    //     // else if (keccak256(bytes(_name)) == keccak256(bytes(\"Infantry\"))) {\n    //     //     enoughResource = _upgradeInfantry(_owner);\n    //     //     _name = \"Infantry\";\n    //     //     levelOfSoldier = levelOfInfantry[_owner];\n    //     //     numOfSoldier = numOfInfantry[_owner];\n    //     // }\n    //     // else if (keccak256(bytes(_name)) == keccak256(bytes(\"Archer\"))) {\n    //     //     enoughResource = _upgradeArcher(_owner);\n    //     //     _name = \"Archer\";\n    //     //     levelOfSoldier = levelOfArcher[_owner];\n    //     //     numOfSoldier = numOfArcher[_owner];\n    //     // }\n    //     if(enoughResource == false) return uint(0);\n    //     ownerStartLevelUpTime[_owner] = now;\n    //     return levelUpSoldierTime * numOfSoldier * uint(levelOfSoldier);\n    // }\n\n    // function updateLevelUpSoldier(string memory _name, address _owner) public returns(uint) {\n    //     if (ownerStartLevelUpTime[_owner] == 0) return 0;\n    //     uint levelOfSoldier;\n    //     uint numOfSoldier;\n    //     if (keccak256(bytes(_name)) == keccak256(bytes(\"Cavalry\"))) {\n    //         levelOfSoldier = levelOfCavalry[_owner];\n    //         numOfSoldier = numOfCavalry[_owner];\n    //     }\n    //     // else if (keccak256(bytes(_name)) == keccak256(bytes(\"Pikemen\"))) {\n    //     //     levelOfSoldier = levelOfPikemen[_owner];\n    //     //     numOfSoldier = numOfPikemen[_owner];\n    //     // }\n    //     // else if (keccak256(bytes(_name)) == keccak256(bytes(\"Infantry\"))) {\n    //     //     levelOfSoldier = levelOfInfantry[_owner];\n    //     //     numOfSoldier = numOfInfantry[_owner];\n    //     // }\n    //     // else if (keccak256(bytes(_name)) == keccak256(bytes(\"Archer\"))) {\n    //     //     levelOfSoldier = levelOfArcher[_owner];\n    //     //     numOfSoldier = numOfArcher[_owner];\n    //     // }\n    //     if (now >= ownerStartLevelUpTime[_owner].add(levelUpSoldierTime * numOfSoldier * uint(levelOfSoldier))) {\n    //         if (keccak256(bytes(_name)) == keccak256(bytes(\"Cavalry\"))) {\n    //             levelOfCavalry[_owner]++;\n    //         }\n    //         else if (keccak256(bytes(_name)) == keccak256(bytes(\"Pikemen\"))) {\n    //             levelOfPikemen[_owner]++;\n    //         }\n    //         else if (keccak256(bytes(_name)) == keccak256(bytes(\"Infantry\"))) {\n    //             levelOfInfantry[_owner]++;\n    //         }\n    //         else if (keccak256(bytes(_name)) == keccak256(bytes(\"Archer\"))) {\n    //             levelOfArcher[_owner]++;\n    //         }\n    //         ownerStartLevelUpTime[_owner] = 0;\n    //         _updatePower(_owner);\n    //         return 0;\n    //     }\n    //     else {\n    //         uint remainingTime = levelUpSoldierTime * numOfSoldier * uint(levelOfSoldier) + ownerStartLevelUpTime[_owner] - now;\n    //         return remainingTime;\n    //     }\n    // }\n}",
  "sourcePath": "/Users/cyl/Desktop//NMlab_Final/contracts/Barrack.sol",
  "compiler": {
    "name": "solc",
    "version": "0.5.16+commit.9c3226ce.Emscripten.clang"
  },
  "schemaVersion": "3.4.1",
  "updatedAt": "2021-05-31T04:52:28.189Z",
  "networkType": "ethereum",
  "devdoc": {
    "methods": {}
  },
  "userdoc": {
    "methods": {}
  }
}