{
  "contractName": "Barrack",
  "abi": [
    {
      "inputs": [
        {
          "internalType": "address",
          "name": "_building_address",
          "type": "address"
        },
        {
          "internalType": "address",
          "name": "_soldier_address",
          "type": "address"
        },
        {
          "internalType": "address",
          "name": "_spy_instance",
          "type": "address"
        },
        {
          "internalType": "address",
          "name": "_cannon_instance",
          "type": "address"
        },
        {
          "internalType": "address",
          "name": "_protector_instance",
          "type": "address"
        },
        {
          "internalType": "address",
          "name": "_wall_instance",
          "type": "address"
        },
        {
          "internalType": "address",
          "name": "_account_instance",
          "type": "address"
        }
      ],
      "payable": false,
      "stateMutability": "nonpayable",
      "type": "constructor"
    },
    {
      "constant": true,
      "inputs": [
        {
          "internalType": "address",
          "name": "",
          "type": "address"
        }
      ],
      "name": "ownerStartMarchTime",
      "outputs": [
        {
          "internalType": "uint256",
          "name": "",
          "type": "uint256"
        }
      ],
      "payable": false,
      "stateMutability": "view",
      "type": "function"
    },
    {
      "constant": true,
      "inputs": [
        {
          "internalType": "address",
          "name": "",
          "type": "address"
        }
      ],
      "name": "ownerTotalMarchTime",
      "outputs": [
        {
          "internalType": "uint256",
          "name": "",
          "type": "uint256"
        }
      ],
      "payable": false,
      "stateMutability": "view",
      "type": "function"
    },
    {
      "constant": false,
      "inputs": [
        {
          "internalType": "uint256",
          "name": "_x",
          "type": "uint256"
        },
        {
          "internalType": "uint256",
          "name": "_y",
          "type": "uint256"
        }
      ],
      "name": "createBarrack",
      "outputs": [],
      "payable": false,
      "stateMutability": "nonpayable",
      "type": "function"
    },
    {
      "constant": true,
      "inputs": [
        {
          "internalType": "address",
          "name": "_owner",
          "type": "address"
        }
      ],
      "name": "getSoldierAmount",
      "outputs": [
        {
          "internalType": "uint256",
          "name": "",
          "type": "uint256"
        }
      ],
      "payable": false,
      "stateMutability": "view",
      "type": "function"
    },
    {
      "constant": false,
      "inputs": [
        {
          "internalType": "uint256",
          "name": "number",
          "type": "uint256"
        }
      ],
      "name": "startCreateSoldier",
      "outputs": [
        {
          "internalType": "uint256",
          "name": "",
          "type": "uint256"
        }
      ],
      "payable": false,
      "stateMutability": "nonpayable",
      "type": "function"
    },
    {
      "constant": true,
      "inputs": [],
      "name": "getCreateSoldierTime",
      "outputs": [
        {
          "internalType": "uint256",
          "name": "",
          "type": "uint256"
        },
        {
          "internalType": "uint256",
          "name": "",
          "type": "uint256"
        }
      ],
      "payable": false,
      "stateMutability": "view",
      "type": "function"
    },
    {
      "constant": false,
      "inputs": [
        {
          "internalType": "address",
          "name": "_owner",
          "type": "address"
        }
      ],
      "name": "updateCreateSoldier",
      "outputs": [
        {
          "internalType": "uint256",
          "name": "",
          "type": "uint256"
        }
      ],
      "payable": false,
      "stateMutability": "nonpayable",
      "type": "function"
    },
    {
      "constant": true,
      "inputs": [
        {
          "internalType": "address",
          "name": "_owner",
          "type": "address"
        }
      ],
      "name": "getSpyAmount",
      "outputs": [
        {
          "internalType": "uint256",
          "name": "",
          "type": "uint256"
        }
      ],
      "payable": false,
      "stateMutability": "view",
      "type": "function"
    },
    {
      "constant": false,
      "inputs": [
        {
          "internalType": "uint256",
          "name": "number",
          "type": "uint256"
        }
      ],
      "name": "startCreateSpy",
      "outputs": [
        {
          "internalType": "uint256",
          "name": "",
          "type": "uint256"
        }
      ],
      "payable": false,
      "stateMutability": "nonpayable",
      "type": "function"
    },
    {
      "constant": true,
      "inputs": [],
      "name": "getCreateSpyTime",
      "outputs": [
        {
          "internalType": "uint256",
          "name": "",
          "type": "uint256"
        },
        {
          "internalType": "uint256",
          "name": "",
          "type": "uint256"
        }
      ],
      "payable": false,
      "stateMutability": "view",
      "type": "function"
    },
    {
      "constant": false,
      "inputs": [
        {
          "internalType": "address",
          "name": "_owner",
          "type": "address"
        }
      ],
      "name": "updateCreateSpy",
      "outputs": [
        {
          "internalType": "uint256",
          "name": "",
          "type": "uint256"
        }
      ],
      "payable": false,
      "stateMutability": "nonpayable",
      "type": "function"
    },
    {
      "constant": true,
      "inputs": [
        {
          "internalType": "address",
          "name": "_owner",
          "type": "address"
        }
      ],
      "name": "getCannonAmount",
      "outputs": [
        {
          "internalType": "uint256",
          "name": "",
          "type": "uint256"
        }
      ],
      "payable": false,
      "stateMutability": "view",
      "type": "function"
    },
    {
      "constant": false,
      "inputs": [
        {
          "internalType": "uint256",
          "name": "number",
          "type": "uint256"
        }
      ],
      "name": "startCreateCannon",
      "outputs": [
        {
          "internalType": "uint256",
          "name": "",
          "type": "uint256"
        }
      ],
      "payable": false,
      "stateMutability": "nonpayable",
      "type": "function"
    },
    {
      "constant": true,
      "inputs": [],
      "name": "getCreateCannonTime",
      "outputs": [
        {
          "internalType": "uint256",
          "name": "",
          "type": "uint256"
        },
        {
          "internalType": "uint256",
          "name": "",
          "type": "uint256"
        }
      ],
      "payable": false,
      "stateMutability": "view",
      "type": "function"
    },
    {
      "constant": false,
      "inputs": [
        {
          "internalType": "address",
          "name": "_owner",
          "type": "address"
        }
      ],
      "name": "updateCreateCannon",
      "outputs": [
        {
          "internalType": "uint256",
          "name": "",
          "type": "uint256"
        }
      ],
      "payable": false,
      "stateMutability": "nonpayable",
      "type": "function"
    },
    {
      "constant": true,
      "inputs": [
        {
          "internalType": "address",
          "name": "_owner",
          "type": "address"
        }
      ],
      "name": "getProtectorAmount",
      "outputs": [
        {
          "internalType": "uint256",
          "name": "",
          "type": "uint256"
        }
      ],
      "payable": false,
      "stateMutability": "view",
      "type": "function"
    },
    {
      "constant": false,
      "inputs": [
        {
          "internalType": "uint256",
          "name": "number",
          "type": "uint256"
        }
      ],
      "name": "startCreateProtector",
      "outputs": [
        {
          "internalType": "uint256",
          "name": "",
          "type": "uint256"
        }
      ],
      "payable": false,
      "stateMutability": "nonpayable",
      "type": "function"
    },
    {
      "constant": true,
      "inputs": [],
      "name": "getCreateProtectorTime",
      "outputs": [
        {
          "internalType": "uint256",
          "name": "",
          "type": "uint256"
        },
        {
          "internalType": "uint256",
          "name": "",
          "type": "uint256"
        }
      ],
      "payable": false,
      "stateMutability": "view",
      "type": "function"
    },
    {
      "constant": false,
      "inputs": [
        {
          "internalType": "uint256",
          "name": "_ownerId",
          "type": "uint256"
        },
        {
          "internalType": "uint256",
          "name": "_attackedCastleId",
          "type": "uint256"
        }
      ],
      "name": "attack",
      "outputs": [],
      "payable": false,
      "stateMutability": "nonpayable",
      "type": "function"
    },
    {
      "constant": false,
      "inputs": [
        {
          "internalType": "uint256",
          "name": "_attackedCastleId",
          "type": "uint256"
        }
      ],
      "name": "startMarch",
      "outputs": [
        {
          "internalType": "uint256",
          "name": "",
          "type": "uint256"
        }
      ],
      "payable": false,
      "stateMutability": "nonpayable",
      "type": "function"
    },
    {
      "constant": true,
      "inputs": [],
      "name": "getMarchTime",
      "outputs": [
        {
          "internalType": "uint256",
          "name": "",
          "type": "uint256"
        },
        {
          "internalType": "uint256",
          "name": "",
          "type": "uint256"
        }
      ],
      "payable": false,
      "stateMutability": "view",
      "type": "function"
    },
    {
      "constant": false,
      "inputs": [
        {
          "internalType": "address",
          "name": "_owner",
          "type": "address"
        }
      ],
      "name": "updateMarch",
      "outputs": [
        {
          "internalType": "uint256",
          "name": "",
          "type": "uint256"
        }
      ],
      "payable": false,
      "stateMutability": "nonpayable",
      "type": "function"
    },
    {
      "constant": true,
      "inputs": [
        {
          "internalType": "uint256",
          "name": "_ownerId",
          "type": "uint256"
        },
        {
          "internalType": "uint256",
          "name": "_attackedCastleId",
          "type": "uint256"
        }
      ],
      "name": "sendSpy",
      "outputs": [
        {
          "internalType": "bool",
          "name": "",
          "type": "bool"
        }
      ],
      "payable": false,
      "stateMutability": "view",
      "type": "function"
    }
  ],
  "bytecode": "0x60806040523480156200001157600080fd5b5060405162005c8038038062005c80833981810160405260e08110156200003757600080fd5b810190808051906020019092919080519060200190929190805190602001909291908051906020019092919080519060200190929190805190602001909291908051906020019092919050505086600260006101000a81548173ffffffffffffffffffffffffffffffffffffffff021916908373ffffffffffffffffffffffffffffffffffffffff16021790555085600360006101000a81548173ffffffffffffffffffffffffffffffffffffffff021916908373ffffffffffffffffffffffffffffffffffffffff16021790555084600660006101000a81548173ffffffffffffffffffffffffffffffffffffffff021916908373ffffffffffffffffffffffffffffffffffffffff16021790555082600460006101000a81548173ffffffffffffffffffffffffffffffffffffffff021916908373ffffffffffffffffffffffffffffffffffffffff16021790555083600560006101000a81548173ffffffffffffffffffffffffffffffffffffffff021916908373ffffffffffffffffffffffffffffffffffffffff16021790555081600760006101000a81548173ffffffffffffffffffffffffffffffffffffffff021916908373ffffffffffffffffffffffffffffffffffffffff16021790555080600860006101000a81548173ffffffffffffffffffffffffffffffffffffffff021916908373ffffffffffffffffffffffffffffffffffffffff16021790555050505050505050615a1e80620002626000396000f3fe608060405234801561001057600080fd5b506004361061014d5760003560e01c8063a4b1919d116100c3578063e21843fd1161007c578063e21843fd146105f1578063f104f7cb14610649578063f25a17821461066e578063f5d9ef5a14610693578063fa83ce5c146106eb578063fad28ce41461072d5761014d565b8063a4b1919d14610487578063af1193c2146104df578063b60ff39614610504578063b7c47d6e14610529578063d345572b14610561578063e1fa7638146105b95761014d565b806356c8718b1161011557806356c8718b146102b95780635865c9451461031157806369cddf1d1461035357806371896378146103ab57806378eb4df4146104035780638c5f6854146104455761014d565b80630194b61314610152578063058981e8146101a25780630acdea6f146101fa5780631c1b625a1461021f57806351e45bf514610277575b600080fd5b6101886004803603604081101561016857600080fd5b810190808035906020019092919080359060200190929190505050610785565b604051808215151515815260200191505060405180910390f35b6101e4600480360360208110156101b857600080fd5b81019080803573ffffffffffffffffffffffffffffffffffffffff169060200190929190505050610845565b6040518082815260200191505060405180910390f35b61020261085d565b604051808381526020018281526020019250505060405180910390f35b6102616004803603602081101561023557600080fd5b81019080803573ffffffffffffffffffffffffffffffffffffffff169060200190929190505050610a1e565b6040518082815260200191505060405180910390f35b6102a36004803603602081101561028d57600080fd5b810190808035906020019092919050505061150a565b6040518082815260200191505060405180910390f35b6102fb600480360360208110156102cf57600080fd5b81019080803573ffffffffffffffffffffffffffffffffffffffff169060200190929190505050611996565b6040518082815260200191505060405180910390f35b61033d6004803603602081101561032757600080fd5b8101908080359060200190929190505050611baf565b6040518082815260200191505060405180910390f35b6103956004803603602081101561036957600080fd5b81019080803573ffffffffffffffffffffffffffffffffffffffff16906020019092919050505061218b565b6040518082815260200191505060405180910390f35b6103ed600480360360208110156103c157600080fd5b81019080803573ffffffffffffffffffffffffffffffffffffffff169060200190929190505050612c77565b6040518082815260200191505060405180910390f35b61042f6004803603602081101561041957600080fd5b8101908080359060200190929190505050612d5a565b6040518082815260200191505060405180910390f35b6104716004803603602081101561045b57600080fd5b8101908080359060200190929190505050613336565b6040518082815260200191505060405180910390f35b6104c96004803603602081101561049d57600080fd5b81019080803573ffffffffffffffffffffffffffffffffffffffff169060200190929190505050613912565b6040518082815260200191505060405180910390f35b6104e76139f5565b604051808381526020018281526020019250505060405180910390f35b61050c613bb6565b604051808381526020018281526020019250505060405180910390f35b61055f6004803603604081101561053f57600080fd5b810190808035906020019092919080359060200190929190505050613d77565b005b6105a36004803603602081101561057757600080fd5b81019080803573ffffffffffffffffffffffffffffffffffffffff1690602001909291905050506141a9565b6040518082815260200191505060405180910390f35b6105ef600480360360408110156105cf57600080fd5b8101908080359060200190929190803590602001909291905050506141c1565b005b6106336004803603602081101561060757600080fd5b81019080803573ffffffffffffffffffffffffffffffffffffffff1690602001909291905050506141c5565b6040518082815260200191505060405180910390f35b6106516142a8565b604051808381526020018281526020019250505060405180910390f35b610676614334565b604051808381526020018281526020019250505060405180910390f35b6106d5600480360360208110156106a957600080fd5b81019080803573ffffffffffffffffffffffffffffffffffffffff1690602001909291905050506144f5565b6040518082815260200191505060405180910390f35b6107176004803603602081101561070157600080fd5b8101908080359060200190929190505050614fe1565b6040518082815260200191505060405180910390f35b61076f6004803603602081101561074357600080fd5b81019080803573ffffffffffffffffffffffffffffffffffffffff1690602001909291905050506155bd565b6040518082815260200191505060405180910390f35b6000600660009054906101000a900473ffffffffffffffffffffffffffffffffffffffff1673ffffffffffffffffffffffffffffffffffffffff16630194b61384846040518363ffffffff1660e01b8152600401808381526020018281526020019250505060206040518083038186803b15801561080257600080fd5b505afa158015610816573d6000803e3d6000fd5b505050506040513d602081101561082c57600080fd5b8101908080519060200190929190505050905092915050565b60016020528060005260406000206000915090505481565b600080600660009054906101000a900473ffffffffffffffffffffffffffffffffffffffff1673ffffffffffffffffffffffffffffffffffffffff16639073af81336040518263ffffffff1660e01b8152600401808273ffffffffffffffffffffffffffffffffffffffff1673ffffffffffffffffffffffffffffffffffffffff16815260200191505060206040518083038186803b1580156108ff57600080fd5b505afa158015610913573d6000803e3d6000fd5b505050506040513d602081101561092957600080fd5b81019080805190602001909291905050504203600660009054906101000a900473ffffffffffffffffffffffffffffffffffffffff1673ffffffffffffffffffffffffffffffffffffffff1663b5c3e402336040518263ffffffff1660e01b8152600401808273ffffffffffffffffffffffffffffffffffffffff1673ffffffffffffffffffffffffffffffffffffffff16815260200191505060206040518083038186803b1580156109db57600080fd5b505afa1580156109ef573d6000803e3d6000fd5b505050506040513d6020811015610a0557600080fd5b8101908080519060200190929190505050915091509091565b600080600360009054906101000a900473ffffffffffffffffffffffffffffffffffffffff1673ffffffffffffffffffffffffffffffffffffffff16639073af81846040518263ffffffff1660e01b8152600401808273ffffffffffffffffffffffffffffffffffffffff1673ffffffffffffffffffffffffffffffffffffffff16815260200191505060206040518083038186803b158015610ac057600080fd5b505afa158015610ad4573d6000803e3d6000fd5b505050506040513d6020811015610aea57600080fd5b81019080805190602001909291905050501415610b0a5760009050611505565b610ccf600360009054906101000a900473ffffffffffffffffffffffffffffffffffffffff1673ffffffffffffffffffffffffffffffffffffffff16630c2b6904846040518263ffffffff1660e01b8152600401808273ffffffffffffffffffffffffffffffffffffffff1673ffffffffffffffffffffffffffffffffffffffff16815260200191505060206040518083038186803b158015610bac57600080fd5b505afa158015610bc0573d6000803e3d6000fd5b505050506040513d6020811015610bd657600080fd5b8101908080519060200190929190505050600360009054906101000a900473ffffffffffffffffffffffffffffffffffffffff1673ffffffffffffffffffffffffffffffffffffffff16639073af81856040518263ffffffff1660e01b8152600401808273ffffffffffffffffffffffffffffffffffffffff1673ffffffffffffffffffffffffffffffffffffffff16815260200191505060206040518083038186803b158015610c8657600080fd5b505afa158015610c9a573d6000803e3d6000fd5b505050506040513d6020811015610cb057600080fd5b81019080805190602001909291905050506156a090919063ffffffff16565b4210611335576000610f50610e68600360009054906101000a900473ffffffffffffffffffffffffffffffffffffffff1673ffffffffffffffffffffffffffffffffffffffff166347dcb51c6040518163ffffffff1660e01b815260040160206040518083038186803b158015610d4557600080fd5b505afa158015610d59573d6000803e3d6000fd5b505050506040513d6020811015610d6f57600080fd5b8101908080519060200190929190505050600360009054906101000a900473ffffffffffffffffffffffffffffffffffffffff1673ffffffffffffffffffffffffffffffffffffffff166329058536876040518263ffffffff1660e01b8152600401808273ffffffffffffffffffffffffffffffffffffffff1673ffffffffffffffffffffffffffffffffffffffff16815260200191505060206040518083038186803b158015610e1f57600080fd5b505afa158015610e33573d6000803e3d6000fd5b505050506040513d6020811015610e4957600080fd5b810190808051906020019092919050505061572890919063ffffffff16565b600360009054906101000a900473ffffffffffffffffffffffffffffffffffffffff1673ffffffffffffffffffffffffffffffffffffffff16630c2b6904866040518263ffffffff1660e01b8152600401808273ffffffffffffffffffffffffffffffffffffffff1673ffffffffffffffffffffffffffffffffffffffff16815260200191505060206040518083038186803b158015610f0757600080fd5b505afa158015610f1b573d6000803e3d6000fd5b505050506040513d6020811015610f3157600080fd5b81019080805190602001909291905050506157ae90919063ffffffff16565b9050600360009054906101000a900473ffffffffffffffffffffffffffffffffffffffff1673ffffffffffffffffffffffffffffffffffffffff16633dabc4df8483600360009054906101000a900473ffffffffffffffffffffffffffffffffffffffff1673ffffffffffffffffffffffffffffffffffffffff16635697b21a886040518263ffffffff1660e01b8152600401808273ffffffffffffffffffffffffffffffffffffffff1673ffffffffffffffffffffffffffffffffffffffff16815260200191505060206040518083038186803b15801561103157600080fd5b505afa158015611045573d6000803e3d6000fd5b505050506040513d602081101561105b57600080fd5b8101908080519060200190929190505050016040518363ffffffff1660e01b8152600401808373ffffffffffffffffffffffffffffffffffffffff1673ffffffffffffffffffffffffffffffffffffffff16815260200182815260200192505050600060405180830381600087803b1580156110d657600080fd5b505af11580156110ea573d6000803e3d6000fd5b50505050600360009054906101000a900473ffffffffffffffffffffffffffffffffffffffff1673ffffffffffffffffffffffffffffffffffffffff16638ed972028460006040518363ffffffff1660e01b8152600401808373ffffffffffffffffffffffffffffffffffffffff1673ffffffffffffffffffffffffffffffffffffffff16815260200182815260200192505050600060405180830381600087803b15801561119857600080fd5b505af11580156111ac573d6000803e3d6000fd5b50505050600360009054906101000a900473ffffffffffffffffffffffffffffffffffffffff1673ffffffffffffffffffffffffffffffffffffffff16637e23dbd18460006040518363ffffffff1660e01b8152600401808373ffffffffffffffffffffffffffffffffffffffff1673ffffffffffffffffffffffffffffffffffffffff16815260200182815260200192505050600060405180830381600087803b15801561125a57600080fd5b505af115801561126e573d6000803e3d6000fd5b50505050600360009054906101000a900473ffffffffffffffffffffffffffffffffffffffff1673ffffffffffffffffffffffffffffffffffffffff16632f47faeb846040518263ffffffff1660e01b8152600401808273ffffffffffffffffffffffffffffffffffffffff1673ffffffffffffffffffffffffffffffffffffffff168152602001915050600060405180830381600087803b15801561131357600080fd5b505af1158015611327573d6000803e3d6000fd5b505050506000915050611505565b60006114fe42600360009054906101000a900473ffffffffffffffffffffffffffffffffffffffff1673ffffffffffffffffffffffffffffffffffffffff16630c2b6904866040518263ffffffff1660e01b8152600401808273ffffffffffffffffffffffffffffffffffffffff1673ffffffffffffffffffffffffffffffffffffffff16815260200191505060206040518083038186803b1580156113da57600080fd5b505afa1580156113ee573d6000803e3d6000fd5b505050506040513d602081101561140457600080fd5b8101908080519060200190929190505050600360009054906101000a900473ffffffffffffffffffffffffffffffffffffffff1673ffffffffffffffffffffffffffffffffffffffff16639073af81876040518263ffffffff1660e01b8152600401808273ffffffffffffffffffffffffffffffffffffffff1673ffffffffffffffffffffffffffffffffffffffff16815260200191505060206040518083038186803b1580156114b457600080fd5b505afa1580156114c8573d6000803e3d6000fd5b505050506040513d60208110156114de57600080fd5b8101908080519060200190929190505050016157f890919063ffffffff16565b9050809150505b919050565b6000803390506000600860009054906101000a900473ffffffffffffffffffffffffffffffffffffffff1673ffffffffffffffffffffffffffffffffffffffff1663f4ab27f0856040518263ffffffff1660e01b81526004018082815260200191505060206040518083038186803b15801561158557600080fd5b505afa158015611599573d6000803e3d6000fd5b505050506040513d60208110156115af57600080fd5b8101908080519060200190929190505050905060008060008473ffffffffffffffffffffffffffffffffffffffff1673ffffffffffffffffffffffffffffffffffffffff168152602001908152602001600020541461161357600092505050611991565b6000600860009054906101000a900473ffffffffffffffffffffffffffffffffffffffff1673ffffffffffffffffffffffffffffffffffffffff16631e9ac0bf84606460006064600060646040518763ffffffff1660e01b8152600401808773ffffffffffffffffffffffffffffffffffffffff1673ffffffffffffffffffffffffffffffffffffffff1681526020018681526020018581526020018481526020018381526020018281526020019650505050505050602060405180830381600087803b1580156116e357600080fd5b505af11580156116f7573d6000803e3d6000fd5b505050506040513d602081101561170d57600080fd5b8101908080519060200190929190505050905080905060001515811515141561173c5760009350505050611991565b426000808573ffffffffffffffffffffffffffffffffffffffff1673ffffffffffffffffffffffffffffffffffffffff16815260200190815260200160002081905550600a600160008573ffffffffffffffffffffffffffffffffffffffff1673ffffffffffffffffffffffffffffffffffffffff16815260200190815260200160002081905550600860009054906101000a900473ffffffffffffffffffffffffffffffffffffffff1673ffffffffffffffffffffffffffffffffffffffff1663ec6daa30836001866000808973ffffffffffffffffffffffffffffffffffffffff1673ffffffffffffffffffffffffffffffffffffffff16815260200190815260200160002054600160008a73ffffffffffffffffffffffffffffffffffffffff1673ffffffffffffffffffffffffffffffffffffffff168152602001908152602001600020546040518663ffffffff1660e01b8152600401808673ffffffffffffffffffffffffffffffffffffffff1673ffffffffffffffffffffffffffffffffffffffff168152602001851515151581526020018473ffffffffffffffffffffffffffffffffffffffff1673ffffffffffffffffffffffffffffffffffffffff16815260200183815260200182815260200195505050505050600060405180830381600087803b15801561193357600080fd5b505af1158015611947573d6000803e3d6000fd5b50505050600160008473ffffffffffffffffffffffffffffffffffffffff1673ffffffffffffffffffffffffffffffffffffffff1681526020019081526020016000205493505050505b919050565b6000806000808473ffffffffffffffffffffffffffffffffffffffff1673ffffffffffffffffffffffffffffffffffffffff1681526020019081526020016000205414156119e75760009050611baa565b611a77600160008473ffffffffffffffffffffffffffffffffffffffff1673ffffffffffffffffffffffffffffffffffffffff168152602001908152602001600020546000808573ffffffffffffffffffffffffffffffffffffffff1673ffffffffffffffffffffffffffffffffffffffff168152602001908152602001600020546156a090919063ffffffff16565b4210611b0f5760008060008473ffffffffffffffffffffffffffffffffffffffff1673ffffffffffffffffffffffffffffffffffffffff168152602001908152602001600020819055506000600160008473ffffffffffffffffffffffffffffffffffffffff1673ffffffffffffffffffffffffffffffffffffffff1681526020019081526020016000208190555060009050611baa565b6000611ba342600160008673ffffffffffffffffffffffffffffffffffffffff1673ffffffffffffffffffffffffffffffffffffffff168152602001908152602001600020546000808773ffffffffffffffffffffffffffffffffffffffff1673ffffffffffffffffffffffffffffffffffffffff16815260200190815260200160002054016157f890919063ffffffff16565b9050809150505b919050565b6000803390506000600460009054906101000a900473ffffffffffffffffffffffffffffffffffffffff1673ffffffffffffffffffffffffffffffffffffffff16639073af81836040518263ffffffff1660e01b8152600401808273ffffffffffffffffffffffffffffffffffffffff1673ffffffffffffffffffffffffffffffffffffffff16815260200191505060206040518083038186803b158015611c5657600080fd5b505afa158015611c6a573d6000803e3d6000fd5b505050506040513d6020811015611c8057600080fd5b810190808051906020019092919050505014611ca0576000915050612186565b600080600460009054906101000a900473ffffffffffffffffffffffffffffffffffffffff1673ffffffffffffffffffffffffffffffffffffffff1663c0e8b76784876040518363ffffffff1660e01b8152600401808373ffffffffffffffffffffffffffffffffffffffff1673ffffffffffffffffffffffffffffffffffffffff16815260200182815260200192505050602060405180830381600087803b158015611d4c57600080fd5b505af1158015611d60573d6000803e3d6000fd5b505050506040513d6020811015611d7657600080fd5b81019080805190602001909291905050509150600460009054906101000a900473ffffffffffffffffffffffffffffffffffffffff1673ffffffffffffffffffffffffffffffffffffffff1663b47711fa846040518263ffffffff1660e01b8152600401808273ffffffffffffffffffffffffffffffffffffffff1673ffffffffffffffffffffffffffffffffffffffff16815260200191505060206040518083038186803b158015611e2857600080fd5b505afa158015611e3c573d6000803e3d6000fd5b505050506040513d6020811015611e5257600080fd5b81019080805190602001909291905050509050600015158215151415611e7e5760009350505050612186565b600460009054906101000a900473ffffffffffffffffffffffffffffffffffffffff1673ffffffffffffffffffffffffffffffffffffffff16638ed9720284426040518363ffffffff1660e01b8152600401808373ffffffffffffffffffffffffffffffffffffffff1673ffffffffffffffffffffffffffffffffffffffff16815260200182815260200192505050600060405180830381600087803b158015611f2757600080fd5b505af1158015611f3b573d6000803e3d6000fd5b50505050600460009054906101000a900473ffffffffffffffffffffffffffffffffffffffff1673ffffffffffffffffffffffffffffffffffffffff1663e9439b03848784600460009054906101000a900473ffffffffffffffffffffffffffffffffffffffff1673ffffffffffffffffffffffffffffffffffffffff1663a03e7df16040518163ffffffff1660e01b815260040160206040518083038186803b158015611fe857600080fd5b505afa158015611ffc573d6000803e3d6000fd5b505050506040513d602081101561201257600080fd5b810190808051906020019092919050505002026040518363ffffffff1660e01b8152600401808373ffffffffffffffffffffffffffffffffffffffff1673ffffffffffffffffffffffffffffffffffffffff16815260200182815260200192505050600060405180830381600087803b15801561208e57600080fd5b505af11580156120a2573d6000803e3d6000fd5b50505050600460009054906101000a900473ffffffffffffffffffffffffffffffffffffffff1673ffffffffffffffffffffffffffffffffffffffff1663e57d01f6846040518263ffffffff1660e01b8152600401808273ffffffffffffffffffffffffffffffffffffffff1673ffffffffffffffffffffffffffffffffffffffff16815260200191505060206040518083038186803b15801561214557600080fd5b505afa158015612159573d6000803e3d6000fd5b505050506040513d602081101561216f57600080fd5b810190808051906020019092919050505093505050505b919050565b600080600660009054906101000a900473ffffffffffffffffffffffffffffffffffffffff1673ffffffffffffffffffffffffffffffffffffffff16639073af81846040518263ffffffff1660e01b8152600401808273ffffffffffffffffffffffffffffffffffffffff1673ffffffffffffffffffffffffffffffffffffffff16815260200191505060206040518083038186803b15801561222d57600080fd5b505afa158015612241573d6000803e3d6000fd5b505050506040513d602081101561225757600080fd5b810190808051906020019092919050505014156122775760009050612c72565b61243c600660009054906101000a900473ffffffffffffffffffffffffffffffffffffffff1673ffffffffffffffffffffffffffffffffffffffff1663b5c3e402846040518263ffffffff1660e01b8152600401808273ffffffffffffffffffffffffffffffffffffffff1673ffffffffffffffffffffffffffffffffffffffff16815260200191505060206040518083038186803b15801561231957600080fd5b505afa15801561232d573d6000803e3d6000fd5b505050506040513d602081101561234357600080fd5b8101908080519060200190929190505050600660009054906101000a900473ffffffffffffffffffffffffffffffffffffffff1673ffffffffffffffffffffffffffffffffffffffff16639073af81856040518263ffffffff1660e01b8152600401808273ffffffffffffffffffffffffffffffffffffffff1673ffffffffffffffffffffffffffffffffffffffff16815260200191505060206040518083038186803b1580156123f357600080fd5b505afa158015612407573d6000803e3d6000fd5b505050506040513d602081101561241d57600080fd5b81019080805190602001909291905050506156a090919063ffffffff16565b4210612aa25760006126bd6125d5600660009054906101000a900473ffffffffffffffffffffffffffffffffffffffff1673ffffffffffffffffffffffffffffffffffffffff16634807c3d56040518163ffffffff1660e01b815260040160206040518083038186803b1580156124b257600080fd5b505afa1580156124c6573d6000803e3d6000fd5b505050506040513d60208110156124dc57600080fd5b8101908080519060200190929190505050600660009054906101000a900473ffffffffffffffffffffffffffffffffffffffff1673ffffffffffffffffffffffffffffffffffffffff1663de634152876040518263ffffffff1660e01b8152600401808273ffffffffffffffffffffffffffffffffffffffff1673ffffffffffffffffffffffffffffffffffffffff16815260200191505060206040518083038186803b15801561258c57600080fd5b505afa1580156125a0573d6000803e3d6000fd5b505050506040513d60208110156125b657600080fd5b810190808051906020019092919050505061572890919063ffffffff16565b600660009054906101000a900473ffffffffffffffffffffffffffffffffffffffff1673ffffffffffffffffffffffffffffffffffffffff1663b5c3e402866040518263ffffffff1660e01b8152600401808273ffffffffffffffffffffffffffffffffffffffff1673ffffffffffffffffffffffffffffffffffffffff16815260200191505060206040518083038186803b15801561267457600080fd5b505afa158015612688573d6000803e3d6000fd5b505050506040513d602081101561269e57600080fd5b81019080805190602001909291905050506157ae90919063ffffffff16565b9050600660009054906101000a900473ffffffffffffffffffffffffffffffffffffffff1673ffffffffffffffffffffffffffffffffffffffff16632d96a77b8483600660009054906101000a900473ffffffffffffffffffffffffffffffffffffffff1673ffffffffffffffffffffffffffffffffffffffff1663af3437ae886040518263ffffffff1660e01b8152600401808273ffffffffffffffffffffffffffffffffffffffff1673ffffffffffffffffffffffffffffffffffffffff16815260200191505060206040518083038186803b15801561279e57600080fd5b505afa1580156127b2573d6000803e3d6000fd5b505050506040513d60208110156127c857600080fd5b8101908080519060200190929190505050016040518363ffffffff1660e01b8152600401808373ffffffffffffffffffffffffffffffffffffffff1673ffffffffffffffffffffffffffffffffffffffff16815260200182815260200192505050600060405180830381600087803b15801561284357600080fd5b505af1158015612857573d6000803e3d6000fd5b50505050600660009054906101000a900473ffffffffffffffffffffffffffffffffffffffff1673ffffffffffffffffffffffffffffffffffffffff16638ed972028460006040518363ffffffff1660e01b8152600401808373ffffffffffffffffffffffffffffffffffffffff1673ffffffffffffffffffffffffffffffffffffffff16815260200182815260200192505050600060405180830381600087803b15801561290557600080fd5b505af1158015612919573d6000803e3d6000fd5b50505050600660009054906101000a900473ffffffffffffffffffffffffffffffffffffffff1673ffffffffffffffffffffffffffffffffffffffff1663801e95908460006040518363ffffffff1660e01b8152600401808373ffffffffffffffffffffffffffffffffffffffff1673ffffffffffffffffffffffffffffffffffffffff16815260200182815260200192505050600060405180830381600087803b1580156129c757600080fd5b505af11580156129db573d6000803e3d6000fd5b50505050600660009054906101000a900473ffffffffffffffffffffffffffffffffffffffff1673ffffffffffffffffffffffffffffffffffffffff1663f6716496846040518263ffffffff1660e01b8152600401808273ffffffffffffffffffffffffffffffffffffffff1673ffffffffffffffffffffffffffffffffffffffff168152602001915050600060405180830381600087803b158015612a8057600080fd5b505af1158015612a94573d6000803e3d6000fd5b505050506000915050612c72565b6000612c6b42600660009054906101000a900473ffffffffffffffffffffffffffffffffffffffff1673ffffffffffffffffffffffffffffffffffffffff1663b5c3e402866040518263ffffffff1660e01b8152600401808273ffffffffffffffffffffffffffffffffffffffff1673ffffffffffffffffffffffffffffffffffffffff16815260200191505060206040518083038186803b158015612b4757600080fd5b505afa158015612b5b573d6000803e3d6000fd5b505050506040513d6020811015612b7157600080fd5b8101908080519060200190929190505050600660009054906101000a900473ffffffffffffffffffffffffffffffffffffffff1673ffffffffffffffffffffffffffffffffffffffff16639073af81876040518263ffffffff1660e01b8152600401808273ffffffffffffffffffffffffffffffffffffffff1673ffffffffffffffffffffffffffffffffffffffff16815260200191505060206040518083038186803b158015612c2157600080fd5b505afa158015612c35573d6000803e3d6000fd5b505050506040513d6020811015612c4b57600080fd5b8101908080519060200190929190505050016157f890919063ffffffff16565b9050809150505b919050565b6000600460009054906101000a900473ffffffffffffffffffffffffffffffffffffffff1673ffffffffffffffffffffffffffffffffffffffff166371896378836040518263ffffffff1660e01b8152600401808273ffffffffffffffffffffffffffffffffffffffff1673ffffffffffffffffffffffffffffffffffffffff16815260200191505060206040518083038186803b158015612d1857600080fd5b505afa158015612d2c573d6000803e3d6000fd5b505050506040513d6020811015612d4257600080fd5b81019080805190602001909291905050509050919050565b6000803390506000600660009054906101000a900473ffffffffffffffffffffffffffffffffffffffff1673ffffffffffffffffffffffffffffffffffffffff16639073af81836040518263ffffffff1660e01b8152600401808273ffffffffffffffffffffffffffffffffffffffff1673ffffffffffffffffffffffffffffffffffffffff16815260200191505060206040518083038186803b158015612e0157600080fd5b505afa158015612e15573d6000803e3d6000fd5b505050506040513d6020811015612e2b57600080fd5b810190808051906020019092919050505014612e4b576000915050613331565b600080600660009054906101000a900473ffffffffffffffffffffffffffffffffffffffff1673ffffffffffffffffffffffffffffffffffffffff1663a7e3cce184876040518363ffffffff1660e01b8152600401808373ffffffffffffffffffffffffffffffffffffffff1673ffffffffffffffffffffffffffffffffffffffff16815260200182815260200192505050602060405180830381600087803b158015612ef757600080fd5b505af1158015612f0b573d6000803e3d6000fd5b505050506040513d6020811015612f2157600080fd5b81019080805190602001909291905050509150600660009054906101000a900473ffffffffffffffffffffffffffffffffffffffff1673ffffffffffffffffffffffffffffffffffffffff1663de634152846040518263ffffffff1660e01b8152600401808273ffffffffffffffffffffffffffffffffffffffff1673ffffffffffffffffffffffffffffffffffffffff16815260200191505060206040518083038186803b158015612fd357600080fd5b505afa158015612fe7573d6000803e3d6000fd5b505050506040513d6020811015612ffd57600080fd5b810190808051906020019092919050505090506000151582151514156130295760009350505050613331565b600660009054906101000a900473ffffffffffffffffffffffffffffffffffffffff1673ffffffffffffffffffffffffffffffffffffffff16638ed9720284426040518363ffffffff1660e01b8152600401808373ffffffffffffffffffffffffffffffffffffffff1673ffffffffffffffffffffffffffffffffffffffff16815260200182815260200192505050600060405180830381600087803b1580156130d257600080fd5b505af11580156130e6573d6000803e3d6000fd5b50505050600660009054906101000a900473ffffffffffffffffffffffffffffffffffffffff1673ffffffffffffffffffffffffffffffffffffffff1663801e9590848784600660009054906101000a900473ffffffffffffffffffffffffffffffffffffffff1673ffffffffffffffffffffffffffffffffffffffff16634807c3d56040518163ffffffff1660e01b815260040160206040518083038186803b15801561319357600080fd5b505afa1580156131a7573d6000803e3d6000fd5b505050506040513d60208110156131bd57600080fd5b810190808051906020019092919050505002026040518363ffffffff1660e01b8152600401808373ffffffffffffffffffffffffffffffffffffffff1673ffffffffffffffffffffffffffffffffffffffff16815260200182815260200192505050600060405180830381600087803b15801561323957600080fd5b505af115801561324d573d6000803e3d6000fd5b50505050600660009054906101000a900473ffffffffffffffffffffffffffffffffffffffff1673ffffffffffffffffffffffffffffffffffffffff1663b5c3e402846040518263ffffffff1660e01b8152600401808273ffffffffffffffffffffffffffffffffffffffff1673ffffffffffffffffffffffffffffffffffffffff16815260200191505060206040518083038186803b1580156132f057600080fd5b505afa158015613304573d6000803e3d6000fd5b505050506040513d602081101561331a57600080fd5b810190808051906020019092919050505093505050505b919050565b6000803390506000600360009054906101000a900473ffffffffffffffffffffffffffffffffffffffff1673ffffffffffffffffffffffffffffffffffffffff16639073af81836040518263ffffffff1660e01b8152600401808273ffffffffffffffffffffffffffffffffffffffff1673ffffffffffffffffffffffffffffffffffffffff16815260200191505060206040518083038186803b1580156133dd57600080fd5b505afa1580156133f1573d6000803e3d6000fd5b505050506040513d602081101561340757600080fd5b81019080805190602001909291905050501461342757600091505061390d565b600080600360009054906101000a900473ffffffffffffffffffffffffffffffffffffffff1673ffffffffffffffffffffffffffffffffffffffff1663551502d484876040518363ffffffff1660e01b8152600401808373ffffffffffffffffffffffffffffffffffffffff1673ffffffffffffffffffffffffffffffffffffffff16815260200182815260200192505050602060405180830381600087803b1580156134d357600080fd5b505af11580156134e7573d6000803e3d6000fd5b505050506040513d60208110156134fd57600080fd5b81019080805190602001909291905050509150600360009054906101000a900473ffffffffffffffffffffffffffffffffffffffff1673ffffffffffffffffffffffffffffffffffffffff166329058536846040518263ffffffff1660e01b8152600401808273ffffffffffffffffffffffffffffffffffffffff1673ffffffffffffffffffffffffffffffffffffffff16815260200191505060206040518083038186803b1580156135af57600080fd5b505afa1580156135c3573d6000803e3d6000fd5b505050506040513d60208110156135d957600080fd5b81019080805190602001909291905050509050600015158215151415613605576000935050505061390d565b600360009054906101000a900473ffffffffffffffffffffffffffffffffffffffff1673ffffffffffffffffffffffffffffffffffffffff16638ed9720284426040518363ffffffff1660e01b8152600401808373ffffffffffffffffffffffffffffffffffffffff1673ffffffffffffffffffffffffffffffffffffffff16815260200182815260200192505050600060405180830381600087803b1580156136ae57600080fd5b505af11580156136c2573d6000803e3d6000fd5b50505050600360009054906101000a900473ffffffffffffffffffffffffffffffffffffffff1673ffffffffffffffffffffffffffffffffffffffff16637e23dbd1848784600360009054906101000a900473ffffffffffffffffffffffffffffffffffffffff1673ffffffffffffffffffffffffffffffffffffffff166347dcb51c6040518163ffffffff1660e01b815260040160206040518083038186803b15801561376f57600080fd5b505afa158015613783573d6000803e3d6000fd5b505050506040513d602081101561379957600080fd5b810190808051906020019092919050505002026040518363ffffffff1660e01b8152600401808373ffffffffffffffffffffffffffffffffffffffff1673ffffffffffffffffffffffffffffffffffffffff16815260200182815260200192505050600060405180830381600087803b15801561381557600080fd5b505af1158015613829573d6000803e3d6000fd5b50505050600360009054906101000a900473ffffffffffffffffffffffffffffffffffffffff1673ffffffffffffffffffffffffffffffffffffffff16630c2b6904846040518263ffffffff1660e01b8152600401808273ffffffffffffffffffffffffffffffffffffffff1673ffffffffffffffffffffffffffffffffffffffff16815260200191505060206040518083038186803b1580156138cc57600080fd5b505afa1580156138e0573d6000803e3d6000fd5b505050506040513d60208110156138f657600080fd5b810190808051906020019092919050505093505050505b919050565b6000600360009054906101000a900473ffffffffffffffffffffffffffffffffffffffff1673ffffffffffffffffffffffffffffffffffffffff1663a4b1919d836040518263ffffffff1660e01b8152600401808273ffffffffffffffffffffffffffffffffffffffff1673ffffffffffffffffffffffffffffffffffffffff16815260200191505060206040518083038186803b1580156139b357600080fd5b505afa1580156139c7573d6000803e3d6000fd5b505050506040513d60208110156139dd57600080fd5b81019080805190602001909291905050509050919050565b600080600560009054906101000a900473ffffffffffffffffffffffffffffffffffffffff1673ffffffffffffffffffffffffffffffffffffffff16639073af81336040518263ffffffff1660e01b8152600401808273ffffffffffffffffffffffffffffffffffffffff1673ffffffffffffffffffffffffffffffffffffffff16815260200191505060206040518083038186803b158015613a9757600080fd5b505afa158015613aab573d6000803e3d6000fd5b505050506040513d6020811015613ac157600080fd5b81019080805190602001909291905050504203600560009054906101000a900473ffffffffffffffffffffffffffffffffffffffff1673ffffffffffffffffffffffffffffffffffffffff16638a8e016e336040518263ffffffff1660e01b8152600401808273ffffffffffffffffffffffffffffffffffffffff1673ffffffffffffffffffffffffffffffffffffffff16815260200191505060206040518083038186803b158015613b7357600080fd5b505afa158015613b87573d6000803e3d6000fd5b505050506040513d6020811015613b9d57600080fd5b8101908080519060200190929190505050915091509091565b600080600460009054906101000a900473ffffffffffffffffffffffffffffffffffffffff1673ffffffffffffffffffffffffffffffffffffffff16639073af81336040518263ffffffff1660e01b8152600401808273ffffffffffffffffffffffffffffffffffffffff1673ffffffffffffffffffffffffffffffffffffffff16815260200191505060206040518083038186803b158015613c5857600080fd5b505afa158015613c6c573d6000803e3d6000fd5b505050506040513d6020811015613c8257600080fd5b81019080805190602001909291905050504203600460009054906101000a900473ffffffffffffffffffffffffffffffffffffffff1673ffffffffffffffffffffffffffffffffffffffff1663e57d01f6336040518263ffffffff1660e01b8152600401808273ffffffffffffffffffffffffffffffffffffffff1673ffffffffffffffffffffffffffffffffffffffff16815260200191505060206040518083038186803b158015613d3457600080fd5b505afa158015613d48573d6000803e3d6000fd5b505050506040513d6020811015613d5e57600080fd5b8101908080519060200190929190505050915091509091565b600260009054906101000a900473ffffffffffffffffffffffffffffffffffffffff1673ffffffffffffffffffffffffffffffffffffffff166321241b3f3384846040518463ffffffff1660e01b8152600401808473ffffffffffffffffffffffffffffffffffffffff1673ffffffffffffffffffffffffffffffffffffffff16815260200180602001848152602001838152602001828103825260078152602001807f4261727261636b00000000000000000000000000000000000000000000000000815250602001945050505050602060405180830381600087803b158015613e6157600080fd5b505af1158015613e75573d6000803e3d6000fd5b505050506040513d6020811015613e8b57600080fd5b810190808051906020019092919050505050600360009054906101000a900473ffffffffffffffffffffffffffffffffffffffff1673ffffffffffffffffffffffffffffffffffffffff16636f58051b3360016040518363ffffffff1660e01b8152600401808373ffffffffffffffffffffffffffffffffffffffff1673ffffffffffffffffffffffffffffffffffffffff16815260200182815260200192505050600060405180830381600087803b158015613f4757600080fd5b505af1158015613f5b573d6000803e3d6000fd5b50505050600660009054906101000a900473ffffffffffffffffffffffffffffffffffffffff1673ffffffffffffffffffffffffffffffffffffffff16630de12cb33360016040518363ffffffff1660e01b8152600401808373ffffffffffffffffffffffffffffffffffffffff1673ffffffffffffffffffffffffffffffffffffffff16815260200182815260200192505050600060405180830381600087803b15801561400957600080fd5b505af115801561401d573d6000803e3d6000fd5b50505050600460009054906101000a900473ffffffffffffffffffffffffffffffffffffffff1673ffffffffffffffffffffffffffffffffffffffff166324ab6dc53360016040518363ffffffff1660e01b8152600401808373ffffffffffffffffffffffffffffffffffffffff1673ffffffffffffffffffffffffffffffffffffffff16815260200182815260200192505050600060405180830381600087803b1580156140cb57600080fd5b505af11580156140df573d6000803e3d6000fd5b50505050600560009054906101000a900473ffffffffffffffffffffffffffffffffffffffff1673ffffffffffffffffffffffffffffffffffffffff16639e72a7e03360016040518363ffffffff1660e01b8152600401808373ffffffffffffffffffffffffffffffffffffffff1673ffffffffffffffffffffffffffffffffffffffff16815260200182815260200192505050600060405180830381600087803b15801561418d57600080fd5b505af11580156141a1573d6000803e3d6000fd5b505050505050565b60006020528060005260406000206000915090505481565b5050565b6000600660009054906101000a900473ffffffffffffffffffffffffffffffffffffffff1673ffffffffffffffffffffffffffffffffffffffff1663e21843fd836040518263ffffffff1660e01b8152600401808273ffffffffffffffffffffffffffffffffffffffff1673ffffffffffffffffffffffffffffffffffffffff16815260200191505060206040518083038186803b15801561426657600080fd5b505afa15801561427a573d6000803e3d6000fd5b505050506040513d602081101561429057600080fd5b81019080805190602001909291905050509050919050565b6000806000803373ffffffffffffffffffffffffffffffffffffffff1673ffffffffffffffffffffffffffffffffffffffff168152602001908152602001600020544203600160003373ffffffffffffffffffffffffffffffffffffffff1673ffffffffffffffffffffffffffffffffffffffff16815260200190815260200160002054915091509091565b600080600360009054906101000a900473ffffffffffffffffffffffffffffffffffffffff1673ffffffffffffffffffffffffffffffffffffffff16639073af81336040518263ffffffff1660e01b8152600401808273ffffffffffffffffffffffffffffffffffffffff1673ffffffffffffffffffffffffffffffffffffffff16815260200191505060206040518083038186803b1580156143d657600080fd5b505afa1580156143ea573d6000803e3d6000fd5b505050506040513d602081101561440057600080fd5b81019080805190602001909291905050504203600360009054906101000a900473ffffffffffffffffffffffffffffffffffffffff1673ffffffffffffffffffffffffffffffffffffffff16630c2b6904336040518263ffffffff1660e01b8152600401808273ffffffffffffffffffffffffffffffffffffffff1673ffffffffffffffffffffffffffffffffffffffff16815260200191505060206040518083038186803b1580156144b257600080fd5b505afa1580156144c6573d6000803e3d6000fd5b505050506040513d60208110156144dc57600080fd5b8101908080519060200190929190505050915091509091565b600080600560009054906101000a900473ffffffffffffffffffffffffffffffffffffffff1673ffffffffffffffffffffffffffffffffffffffff16639073af81846040518263ffffffff1660e01b8152600401808273ffffffffffffffffffffffffffffffffffffffff1673ffffffffffffffffffffffffffffffffffffffff16815260200191505060206040518083038186803b15801561459757600080fd5b505afa1580156145ab573d6000803e3d6000fd5b505050506040513d60208110156145c157600080fd5b810190808051906020019092919050505014156145e15760009050614fdc565b6147a6600560009054906101000a900473ffffffffffffffffffffffffffffffffffffffff1673ffffffffffffffffffffffffffffffffffffffff16638a8e016e846040518263ffffffff1660e01b8152600401808273ffffffffffffffffffffffffffffffffffffffff1673ffffffffffffffffffffffffffffffffffffffff16815260200191505060206040518083038186803b15801561468357600080fd5b505afa158015614697573d6000803e3d6000fd5b505050506040513d60208110156146ad57600080fd5b8101908080519060200190929190505050600560009054906101000a900473ffffffffffffffffffffffffffffffffffffffff1673ffffffffffffffffffffffffffffffffffffffff16639073af81856040518263ffffffff1660e01b8152600401808273ffffffffffffffffffffffffffffffffffffffff1673ffffffffffffffffffffffffffffffffffffffff16815260200191505060206040518083038186803b15801561475d57600080fd5b505afa158015614771573d6000803e3d6000fd5b505050506040513d602081101561478757600080fd5b81019080805190602001909291905050506156a090919063ffffffff16565b4210614e0c576000614a2761493f600560009054906101000a900473ffffffffffffffffffffffffffffffffffffffff1673ffffffffffffffffffffffffffffffffffffffff1663f3b837566040518163ffffffff1660e01b815260040160206040518083038186803b15801561481c57600080fd5b505afa158015614830573d6000803e3d6000fd5b505050506040513d602081101561484657600080fd5b8101908080519060200190929190505050600560009054906101000a900473ffffffffffffffffffffffffffffffffffffffff1673ffffffffffffffffffffffffffffffffffffffff1663d0bb9e90876040518263ffffffff1660e01b8152600401808273ffffffffffffffffffffffffffffffffffffffff1673ffffffffffffffffffffffffffffffffffffffff16815260200191505060206040518083038186803b1580156148f657600080fd5b505afa15801561490a573d6000803e3d6000fd5b505050506040513d602081101561492057600080fd5b810190808051906020019092919050505061572890919063ffffffff16565b600560009054906101000a900473ffffffffffffffffffffffffffffffffffffffff1673ffffffffffffffffffffffffffffffffffffffff16638a8e016e866040518263ffffffff1660e01b8152600401808273ffffffffffffffffffffffffffffffffffffffff1673ffffffffffffffffffffffffffffffffffffffff16815260200191505060206040518083038186803b1580156149de57600080fd5b505afa1580156149f2573d6000803e3d6000fd5b505050506040513d6020811015614a0857600080fd5b81019080805190602001909291905050506157ae90919063ffffffff16565b9050600560009054906101000a900473ffffffffffffffffffffffffffffffffffffffff1673ffffffffffffffffffffffffffffffffffffffff16632b16a5648483600560009054906101000a900473ffffffffffffffffffffffffffffffffffffffff1673ffffffffffffffffffffffffffffffffffffffff166357f683d3886040518263ffffffff1660e01b8152600401808273ffffffffffffffffffffffffffffffffffffffff1673ffffffffffffffffffffffffffffffffffffffff16815260200191505060206040518083038186803b158015614b0857600080fd5b505afa158015614b1c573d6000803e3d6000fd5b505050506040513d6020811015614b3257600080fd5b8101908080519060200190929190505050016040518363ffffffff1660e01b8152600401808373ffffffffffffffffffffffffffffffffffffffff1673ffffffffffffffffffffffffffffffffffffffff16815260200182815260200192505050600060405180830381600087803b158015614bad57600080fd5b505af1158015614bc1573d6000803e3d6000fd5b50505050600560009054906101000a900473ffffffffffffffffffffffffffffffffffffffff1673ffffffffffffffffffffffffffffffffffffffff16638ed972028460006040518363ffffffff1660e01b8152600401808373ffffffffffffffffffffffffffffffffffffffff1673ffffffffffffffffffffffffffffffffffffffff16815260200182815260200192505050600060405180830381600087803b158015614c6f57600080fd5b505af1158015614c83573d6000803e3d6000fd5b50505050600560009054906101000a900473ffffffffffffffffffffffffffffffffffffffff1673ffffffffffffffffffffffffffffffffffffffff16636a209ea08460006040518363ffffffff1660e01b8152600401808373ffffffffffffffffffffffffffffffffffffffff1673ffffffffffffffffffffffffffffffffffffffff16815260200182815260200192505050600060405180830381600087803b158015614d3157600080fd5b505af1158015614d45573d6000803e3d6000fd5b50505050600560009054906101000a900473ffffffffffffffffffffffffffffffffffffffff1673ffffffffffffffffffffffffffffffffffffffff1663598b8e4e846040518263ffffffff1660e01b8152600401808273ffffffffffffffffffffffffffffffffffffffff1673ffffffffffffffffffffffffffffffffffffffff168152602001915050600060405180830381600087803b158015614dea57600080fd5b505af1158015614dfe573d6000803e3d6000fd5b505050506000915050614fdc565b6000614fd542600560009054906101000a900473ffffffffffffffffffffffffffffffffffffffff1673ffffffffffffffffffffffffffffffffffffffff16638a8e016e866040518263ffffffff1660e01b8152600401808273ffffffffffffffffffffffffffffffffffffffff1673ffffffffffffffffffffffffffffffffffffffff16815260200191505060206040518083038186803b158015614eb157600080fd5b505afa158015614ec5573d6000803e3d6000fd5b505050506040513d6020811015614edb57600080fd5b8101908080519060200190929190505050600560009054906101000a900473ffffffffffffffffffffffffffffffffffffffff1673ffffffffffffffffffffffffffffffffffffffff16639073af81876040518263ffffffff1660e01b8152600401808273ffffffffffffffffffffffffffffffffffffffff1673ffffffffffffffffffffffffffffffffffffffff16815260200191505060206040518083038186803b158015614f8b57600080fd5b505afa158015614f9f573d6000803e3d6000fd5b505050506040513d6020811015614fb557600080fd5b8101908080519060200190929190505050016157f890919063ffffffff16565b9050809150505b919050565b6000803390506000600560009054906101000a900473ffffffffffffffffffffffffffffffffffffffff1673ffffffffffffffffffffffffffffffffffffffff16639073af81836040518263ffffffff1660e01b8152600401808273ffffffffffffffffffffffffffffffffffffffff1673ffffffffffffffffffffffffffffffffffffffff16815260200191505060206040518083038186803b15801561508857600080fd5b505afa15801561509c573d6000803e3d6000fd5b505050506040513d60208110156150b257600080fd5b8101908080519060200190929190505050146150d25760009150506155b8565b600080600560009054906101000a900473ffffffffffffffffffffffffffffffffffffffff1673ffffffffffffffffffffffffffffffffffffffff1663efbbf17384876040518363ffffffff1660e01b8152600401808373ffffffffffffffffffffffffffffffffffffffff1673ffffffffffffffffffffffffffffffffffffffff16815260200182815260200192505050602060405180830381600087803b15801561517e57600080fd5b505af1158015615192573d6000803e3d6000fd5b505050506040513d60208110156151a857600080fd5b81019080805190602001909291905050509150600560009054906101000a900473ffffffffffffffffffffffffffffffffffffffff1673ffffffffffffffffffffffffffffffffffffffff1663d0bb9e90846040518263ffffffff1660e01b8152600401808273ffffffffffffffffffffffffffffffffffffffff1673ffffffffffffffffffffffffffffffffffffffff16815260200191505060206040518083038186803b15801561525a57600080fd5b505afa15801561526e573d6000803e3d6000fd5b505050506040513d602081101561528457600080fd5b810190808051906020019092919050505090506000151582151514156152b057600093505050506155b8565b600560009054906101000a900473ffffffffffffffffffffffffffffffffffffffff1673ffffffffffffffffffffffffffffffffffffffff16638ed9720284426040518363ffffffff1660e01b8152600401808373ffffffffffffffffffffffffffffffffffffffff1673ffffffffffffffffffffffffffffffffffffffff16815260200182815260200192505050600060405180830381600087803b15801561535957600080fd5b505af115801561536d573d6000803e3d6000fd5b50505050600560009054906101000a900473ffffffffffffffffffffffffffffffffffffffff1673ffffffffffffffffffffffffffffffffffffffff16636a209ea0848784600560009054906101000a900473ffffffffffffffffffffffffffffffffffffffff1673ffffffffffffffffffffffffffffffffffffffff1663f3b837566040518163ffffffff1660e01b815260040160206040518083038186803b15801561541a57600080fd5b505afa15801561542e573d6000803e3d6000fd5b505050506040513d602081101561544457600080fd5b810190808051906020019092919050505002026040518363ffffffff1660e01b8152600401808373ffffffffffffffffffffffffffffffffffffffff1673ffffffffffffffffffffffffffffffffffffffff16815260200182815260200192505050600060405180830381600087803b1580156154c057600080fd5b505af11580156154d4573d6000803e3d6000fd5b50505050600560009054906101000a900473ffffffffffffffffffffffffffffffffffffffff1673ffffffffffffffffffffffffffffffffffffffff16638a8e016e846040518263ffffffff1660e01b8152600401808273ffffffffffffffffffffffffffffffffffffffff1673ffffffffffffffffffffffffffffffffffffffff16815260200191505060206040518083038186803b15801561557757600080fd5b505afa15801561558b573d6000803e3d6000fd5b505050506040513d60208110156155a157600080fd5b810190808051906020019092919050505093505050505b919050565b6000600560009054906101000a900473ffffffffffffffffffffffffffffffffffffffff1673ffffffffffffffffffffffffffffffffffffffff1663fad28ce4836040518263ffffffff1660e01b8152600401808273ffffffffffffffffffffffffffffffffffffffff1673ffffffffffffffffffffffffffffffffffffffff16815260200191505060206040518083038186803b15801561565e57600080fd5b505afa158015615672573d6000803e3d6000fd5b505050506040513d602081101561568857600080fd5b81019080805190602001909291905050509050919050565b60008082840190508381101561571e576040517f08c379a000000000000000000000000000000000000000000000000000000000815260040180806020018281038252601b8152602001807f536166654d6174683a206164646974696f6e206f766572666c6f77000000000081525060200191505060405180910390fd5b8091505092915050565b60008083141561573b57600090506157a8565b600082840290508284828161574c57fe5b04146157a3576040517f08c379a00000000000000000000000000000000000000000000000000000000081526004018080602001828103825260218152602001806159c96021913960400191505060405180910390fd5b809150505b92915050565b60006157f083836040518060400160405280601a81526020017f536166654d6174683a206469766973696f6e206279207a65726f000000000000815250615842565b905092915050565b600061583a83836040518060400160405280601e81526020017f536166654d6174683a207375627472616374696f6e206f766572666c6f770000815250615908565b905092915050565b600080831182906158ee576040517f08c379a00000000000000000000000000000000000000000000000000000000081526004018080602001828103825283818151815260200191508051906020019080838360005b838110156158b3578082015181840152602081019050615898565b50505050905090810190601f1680156158e05780820380516001836020036101000a031916815260200191505b509250505060405180910390fd5b5060008385816158fa57fe5b049050809150509392505050565b60008383111582906159b5576040517f08c379a00000000000000000000000000000000000000000000000000000000081526004018080602001828103825283818151815260200191508051906020019080838360005b8381101561597a57808201518184015260208101905061595f565b50505050905090810190601f1680156159a75780820380516001836020036101000a031916815260200191505b509250505060405180910390fd5b506000838503905080915050939250505056fe536166654d6174683a206d756c7469706c69636174696f6e206f766572666c6f77a265627a7a7231582054ad2f11382ca512cc605507b8545a19eb00b8f77ee14e0cd796a548b7d508da64736f6c63430005100032",
  "source": "pragma solidity >=0.4.21 <0.7.0;\n\nimport \"./SafeMath.sol\";\nimport \"./BuildingFactory.sol\";\nimport \"./Soldier.sol\";\nimport \"./Spy.sol\";\nimport \"./Cannon.sol\";\nimport \"./Protector.sol\";\nimport \"./Wall.sol\";\n\ncontract Barrack {\n\n    using SafeMath for uint;\n\n    mapping (address => uint) public ownerStartMarchTime;\n    mapping (address => uint) public ownerTotalMarchTime;\n\n    BuildingFactory buildingInstance;\n    Soldier soldierInstance;\n    Protector ProtectorInstance;\n    Cannon CannonInstance;\n    Spy SpyInstance;\n    Wall WallInstance;\n    Account AccountInstance;\n    constructor(address _building_address, address _soldier_address, address _spy_instance, address _cannon_instance, address _protector_instance, address _wall_instance, address _account_instance) public {\n        buildingInstance = BuildingFactory(_building_address);\n        soldierInstance = Soldier(_soldier_address);\n        SpyInstance = Spy(_spy_instance);\n        ProtectorInstance = Protector(_protector_instance);\n        CannonInstance = Cannon(_cannon_instance);\n        WallInstance = Wall(_wall_instance);\n        AccountInstance = Account(_account_instance);\n    }\n\n    function createBarrack(uint _x, uint _y) public {\n        buildingInstance._createBuilding(msg.sender, \"Barrack\", _x, _y);\n        soldierInstance.setSoldierLevel(msg.sender, 1);\n        SpyInstance.setSpyLevel(msg.sender, 1);\n        ProtectorInstance.setProtectorLevel(msg.sender, 1);\n        CannonInstance.setCannonLevel(msg.sender, 1);\n    }\n\n    function getSoldierAmount(address _owner) public view returns(uint) {\n        return soldierInstance.getSoldierAmount(_owner);\n    }\n\n    // return 0 if failed (maybe already creating or not enough resource) otherwise return createtime\n    function startCreateSoldier(uint number) public returns(uint) {\n        address _owner = msg.sender;\n        if(soldierInstance.ownerStartCreateTime(_owner) != 0) return uint(0); // check if there is already creating soldiers\n        bool enoughResource;\n        uint lvOfSoldier;\n        enoughResource = soldierInstance._createSoldier(_owner, number);\n        lvOfSoldier =  soldierInstance.levelOfSoldier(_owner);\n        if(enoughResource == false) return uint(0);\n        soldierInstance.setStartCreateTime(_owner, uint(now));\n        soldierInstance.setCreateSoldierTime(_owner, soldierInstance.createSoldierTime() * lvOfSoldier * number);\n        return soldierInstance.ownerCreateSoldierTime(_owner);\n    }\n\n    function getCreateSoldierTime() public view returns(uint, uint) {\n        return ( now - soldierInstance.ownerStartCreateTime(msg.sender), soldierInstance.ownerCreateSoldierTime(msg.sender) ) ;\n    }\n\n    // // return 0 if success else return remaining time\n    function updateCreateSoldier(address _owner) public returns(uint) {\n        if (soldierInstance.ownerStartCreateTime(_owner) == 0) return 0;\n        if (now >= soldierInstance.ownerStartCreateTime(_owner).add(soldierInstance.ownerCreateSoldierTime(_owner))) {\n            uint num;\n            num = soldierInstance.ownerCreateSoldierTime(_owner).div(  soldierInstance.levelOfSoldier(_owner).mul(soldierInstance.createSoldierTime()) );\n            soldierInstance.setNumOfSoldier(_owner, soldierInstance.numOfSoldier(_owner) + (num));\n            soldierInstance.setStartCreateTime(_owner, 0);\n            soldierInstance.setCreateSoldierTime(_owner, 0);\n            soldierInstance._updatePower(_owner);\n            return 0;\n        }\n        else {\n            uint remainingTime = (soldierInstance.ownerStartCreateTime(_owner) + soldierInstance.ownerCreateSoldierTime(_owner)).sub(now);\n            return remainingTime;\n        }\n    }\n\n    function getSpyAmount(address _owner) public view returns(uint) {\n        return SpyInstance.getSpyAmount(_owner);\n    }\n\n    // return 0 if failed (maybe already creating or not enough resource) otherwise return createtime\n    function startCreateSpy(uint number) public returns(uint) {\n        address _owner = msg.sender;\n        if(SpyInstance.ownerStartCreateTime(_owner) != 0) return uint(0); // check if there is already creating spys\n        bool enoughResource;\n        uint lvOfSpy;\n        enoughResource = SpyInstance._createSpy(_owner, number);\n        lvOfSpy =  SpyInstance.levelOfSpy(_owner);\n        if(enoughResource == false) return uint(0);\n        SpyInstance.setStartCreateTime(_owner, uint(now));\n        SpyInstance.setCreateSpyTime(_owner, SpyInstance.createSpyTime() * lvOfSpy * number);\n        return SpyInstance.ownerCreateSpyTime(_owner);\n    }\n\n    function getCreateSpyTime() public view returns(uint, uint) {\n        return ( now - SpyInstance.ownerStartCreateTime(msg.sender), SpyInstance.ownerCreateSpyTime(msg.sender) ) ;\n    }\n\n    // // return 0 if success else return remaining time\n    function updateCreateSpy(address _owner) public returns(uint) {\n        if (SpyInstance.ownerStartCreateTime(_owner) == 0) return 0;\n        if (now >= SpyInstance.ownerStartCreateTime(_owner).add(SpyInstance.ownerCreateSpyTime(_owner))) {\n            uint num;\n            num = SpyInstance.ownerCreateSpyTime(_owner).div(  SpyInstance.levelOfSpy(_owner).mul(SpyInstance.createSpyTime()) );\n            SpyInstance.setNumOfSpy(_owner, SpyInstance.numOfSpy(_owner) + (num));\n            SpyInstance.setStartCreateTime(_owner, 0);\n            SpyInstance.setCreateSpyTime(_owner, 0);\n            SpyInstance._updateSpyPower(_owner);\n            return 0;\n        }\n        else {\n            uint remainingTime = (SpyInstance.ownerStartCreateTime(_owner) + SpyInstance.ownerCreateSpyTime(_owner)).sub(now);\n            return remainingTime;\n        }\n    }\n\n    function getCannonAmount(address _owner) public view returns(uint) {\n        return CannonInstance.getCannonAmount(_owner);\n    }\n\n    // return 0 if failed (maybe already creating or not enough resource) otherwise return createtime\n    function startCreateCannon(uint number) public returns(uint) {\n        address _owner = msg.sender;\n        if(CannonInstance.ownerStartCreateTime(_owner) != 0) return uint(0); // check if there is already creating Cannons\n        bool enoughResource;\n        uint lvOfCannon;\n        enoughResource = CannonInstance._createCannon(_owner, number);\n        lvOfCannon =  CannonInstance.levelOfCannon(_owner);\n        if(enoughResource == false) return uint(0);\n        CannonInstance.setStartCreateTime(_owner, uint(now));\n        CannonInstance.setCreateCannonTime(_owner, CannonInstance.createCannonTime() * lvOfCannon * number);\n        return CannonInstance.ownerCreateCannonTime(_owner);\n    }\n\n    function getCreateCannonTime() public view returns(uint, uint) {\n        return ( now - CannonInstance.ownerStartCreateTime(msg.sender), CannonInstance.ownerCreateCannonTime(msg.sender) ) ;\n    }\n\n    // // return 0 if success else return remaining time\n    function updateCreateCannon(address _owner) public returns(uint) {\n        if (CannonInstance.ownerStartCreateTime(_owner) == 0) return 0;\n        if (now >= CannonInstance.ownerStartCreateTime(_owner).add(CannonInstance.ownerCreateCannonTime(_owner))) {\n            uint num;\n            num = CannonInstance.ownerCreateCannonTime(_owner).div(  CannonInstance.levelOfCannon(_owner).mul(CannonInstance.createCannonTime()) );\n            CannonInstance.setNumOfCannon(_owner, CannonInstance.numOfCannon(_owner) + (num));\n            CannonInstance.setStartCreateTime(_owner, 0);\n            CannonInstance.setCreateCannonTime(_owner, 0);\n            CannonInstance._updateCannonPower(_owner);\n            return 0;\n        }\n        else {\n            uint remainingTime = (CannonInstance.ownerStartCreateTime(_owner) + CannonInstance.ownerCreateCannonTime(_owner)).sub(now);\n            return remainingTime;\n        }\n    }\n\n    function getProtectorAmount(address _owner) public view returns(uint) {\n        return ProtectorInstance.getProtectorAmount(_owner);\n    }\n\n    // return 0 if failed (maybe already creating or not enough resource) otherwise return createtime\n    function startCreateProtector(uint number) public returns(uint) {\n        address _owner = msg.sender;\n        if(ProtectorInstance.ownerStartCreateTime(_owner) != 0) return uint(0); // check if there is already creating Protectors\n        bool enoughResource;\n        uint lvOfProtector;\n        enoughResource = ProtectorInstance._createProtector(_owner, number);\n        lvOfProtector =  ProtectorInstance.levelOfProtector(_owner);\n        if(enoughResource == false) return uint(0);\n        ProtectorInstance.setStartCreateTime(_owner, uint(now));\n        ProtectorInstance.setCreateProtectorTime(_owner, ProtectorInstance.createProtectorTime() * lvOfProtector * number);\n        return ProtectorInstance.ownerCreateProtectorTime(_owner);\n    }\n\n    function getCreateProtectorTime() public view returns(uint, uint) {\n        return ( now - ProtectorInstance.ownerStartCreateTime(msg.sender), ProtectorInstance.ownerCreateProtectorTime(msg.sender) ) ;\n    }\n\n    // // return 0 if success else return remaining time\n    // function updateCreateProtector(address _owner) public returns(uint) {\n    //     if (ProtectorInstance.ownerStartCreateTime(_owner) == 0) return 0;\n    //     if (now >= ProtectorInstance.ownerStartCreateTime(_owner).add(ProtectorInstance.ownerCreateProtectorTime(_owner))) {\n    //         uint num;\n    //         num = ProtectorInstance.ownerCreateProtectorTime(_owner).div(  ProtectorInstance.levelOfProtector(_owner).mul(ProtectorInstance.createProtectorTime()) );\n    //         ProtectorInstance.setNumOfProtector(_owner, ProtectorInstance.numOfProtector(_owner) + (num));\n    //         ProtectorInstance.setStartCreateTime(_owner, 0);\n    //         ProtectorInstance.setCreateProtectorTime(_owner, 0);\n    //         ProtectorInstance._updateProtectorPower(_owner);\n    //         return 0;\n    //     }\n    //     else {\n    //         uint remainingTime = (ProtectorInstance.ownerStartCreateTime(_owner) + ProtectorInstance.ownerCreateProtectorTime(_owner)).sub(now);\n    //         return remainingTime;\n    //     }\n    // }\n\n    // // return 0 if failed (maybe already creating or not enough resource) otherwise return createtime\n    // function startCreateWall(uint number) public returns(uint) {\n    //     address _owner = msg.sender;\n    //     if(WallInstance.ownerStartCreateTime(_owner) != 0) return uint(0); // check if there is already creating Walls\n    //     bool enoughResource;\n    //     uint lvOfWall;\n    //     enoughResource = WallInstance._createWall(_owner, number);\n    //     lvOfWall =  WallInstance.levelOfWall(_owner);\n    //     if(enoughResource == false) return uint(0);\n    //     WallInstance.setStartCreateTime(_owner, uint(now));\n    //     WallInstance.setCreateWallTime(_owner, WallInstance.createWallTime() * lvOfWall * number);\n    //     return WallInstance.ownerCreateWallTime(_owner);\n    // }\n\n    // function getCreateWallTime() public view returns(uint, uint) {\n    //     return ( now - WallInstance.ownerStartCreateTime(msg.sender), WallInstance.ownerCreateWallTime(msg.sender) ) ;\n    // }\n\n    // // // return 0 if success else return remaining time\n    // function updateCreateWall(address _owner) public returns(uint) {\n    //     if (WallInstance.ownerStartCreateTime(_owner) == 0) return 0;\n    //     if (now >= WallInstance.ownerStartCreateTime(_owner).add(WallInstance.ownerCreateWallTime(_owner))) {\n    //         uint num;\n    //         num = WallInstance.ownerCreateWallTime(_owner).div(  WallInstance.levelOfWall(_owner).mul(WallInstance.createWallTime()) );\n    //         WallInstance.setNumOfWall(_owner, WallInstance.numOfWall(_owner) + (num));\n    //         WallInstance.setStartCreateTime(_owner, 0);\n    //         WallInstance.setCreateWallTime(_owner, 0);\n    //         // WallInstance._updateWallPower(_owner);\n    //         return 0;\n    //     }\n    //     else {\n    //         uint remainingTime = (WallInstance.ownerStartCreateTime(_owner) + WallInstance.ownerCreateWallTime(_owner)).sub(now);\n    //         return remainingTime;\n    //     }\n    // }\n\n\n\n    function attack(uint _ownerId, uint _attackedCastleId) public {\n        // soldierInstance.attack(_ownerId, _attackedCastleId);\n    }\n\n    function startMarch(uint _attackedCastleId) public returns(uint) {\n        address _owner = msg.sender;\n        address attackedAddress = AccountInstance.castleToOwner(_attackedCastleId);\n\n        \n        if(ownerStartMarchTime[_owner] != 0) return uint(0); // check if there is already Marching\n        bool enoughResource;\n        enoughResource = enoughResource = AccountInstance.cost(_owner, 100, uint(0), 100, uint(0), 100);\n        if(enoughResource == false) return uint(0);\n        ownerStartMarchTime[_owner] = uint(now);\n        ownerTotalMarchTime[_owner] = 10;\n        AccountInstance.setAttackedInfo(attackedAddress, true, _owner, ownerStartMarchTime[_owner], ownerTotalMarchTime[_owner]);\n        return ownerTotalMarchTime[_owner];\n    }\n\n    function getMarchTime() public view returns(uint, uint) {\n        return ( now - ownerStartMarchTime[msg.sender], ownerTotalMarchTime[msg.sender] ) ;\n    }\n\n    // // return 0 if success else return remaining time\n    function updateMarch(address _owner) public returns(uint) {\n        if (ownerStartMarchTime[_owner] == 0) return 0;\n        if (now >= ownerStartMarchTime[_owner].add(ownerTotalMarchTime[_owner])) {\n            // uint num;\n            // num = ownerTotalMarchTime[_owner].div(  MarchInstance.levelOfMarch(_owner).mul(MarchInstance.createMarchTime()) );\n            // MarchInstance.setNumOfMarch(_owner, MarchInstance.numOfMarch(_owner) + (num));\n            ownerStartMarchTime[_owner] = 0;\n            ownerTotalMarchTime[_owner] = 0;\n            return 0;\n        }\n        else {\n            uint remainingTime = (ownerStartMarchTime[_owner] + ownerTotalMarchTime[_owner]).sub(now);\n            return remainingTime;\n        }\n    }\n\n    function sendSpy(uint _ownerId, uint _attackedCastleId) public view returns(bool) {\n        //returns TRUE if spy of myCastle > attackedCastle\n        return SpyInstance.sendSpy(_ownerId, _attackedCastleId);\n    }\n\n}",
  "sourcePath": "/Users/seanwang0823/NMLab_Final/contracts/Barrack.sol",
  "compiler": {
    "name": "solc",
    "version": "0.5.16+commit.9c3226ce.Emscripten.clang"
  },
  "schemaVersion": "3.4.0",
  "updatedAt": "2021-06-20T03:59:32.129Z",
  "networkType": "ethereum",
  "devdoc": {
    "methods": {}
  },
  "userdoc": {
    "methods": {}
  }
}