{
  "contractName": "Barrack",
  "abi": [
    {
      "inputs": [
        {
          "internalType": "address",
          "name": "_building_address",
          "type": "address"
        },
        {
          "internalType": "address",
          "name": "_soldier_address",
          "type": "address"
        },
        {
          "internalType": "address",
          "name": "_spy_instance",
          "type": "address"
        },
        {
          "internalType": "address",
          "name": "_cannon_instance",
          "type": "address"
        },
        {
          "internalType": "address",
          "name": "_protector_instance",
          "type": "address"
        },
        {
          "internalType": "address",
          "name": "_wall_instance",
          "type": "address"
        },
        {
          "internalType": "address",
          "name": "_account_instance",
          "type": "address"
        }
      ],
      "payable": false,
      "stateMutability": "nonpayable",
      "type": "constructor"
    },
    {
      "constant": true,
      "inputs": [
        {
          "internalType": "address",
          "name": "",
          "type": "address"
        }
      ],
      "name": "ownerStartMarchTime",
      "outputs": [
        {
          "internalType": "uint256",
          "name": "",
          "type": "uint256"
        }
      ],
      "payable": false,
      "stateMutability": "view",
      "type": "function"
    },
    {
      "constant": true,
      "inputs": [
        {
          "internalType": "address",
          "name": "",
          "type": "address"
        }
      ],
      "name": "ownerTotalMarchTime",
      "outputs": [
        {
          "internalType": "uint256",
          "name": "",
          "type": "uint256"
        }
      ],
      "payable": false,
      "stateMutability": "view",
      "type": "function"
    },
    {
      "constant": false,
      "inputs": [
        {
          "internalType": "uint256",
          "name": "_x",
          "type": "uint256"
        },
        {
          "internalType": "uint256",
          "name": "_y",
          "type": "uint256"
        }
      ],
      "name": "createBarrack",
      "outputs": [],
      "payable": false,
      "stateMutability": "nonpayable",
      "type": "function"
    },
    {
      "constant": false,
      "inputs": [
        {
          "internalType": "string",
          "name": "a",
          "type": "string"
        },
        {
          "internalType": "string",
          "name": "b",
          "type": "string"
        }
      ],
      "name": "concatenate",
      "outputs": [
        {
          "internalType": "string",
          "name": "",
          "type": "string"
        }
      ],
      "payable": false,
      "stateMutability": "nonpayable",
      "type": "function"
    },
    {
      "constant": false,
      "inputs": [
        {
          "internalType": "uint256",
          "name": "_attackedCastleId",
          "type": "uint256"
        }
      ],
      "name": "startMarch",
      "outputs": [
        {
          "internalType": "uint256",
          "name": "",
          "type": "uint256"
        }
      ],
      "payable": false,
      "stateMutability": "nonpayable",
      "type": "function"
    },
    {
      "constant": true,
      "inputs": [],
      "name": "getMarchTime",
      "outputs": [
        {
          "internalType": "uint256",
          "name": "",
          "type": "uint256"
        },
        {
          "internalType": "uint256",
          "name": "",
          "type": "uint256"
        },
        {
          "internalType": "uint256",
          "name": "",
          "type": "uint256"
        }
      ],
      "payable": false,
      "stateMutability": "view",
      "type": "function"
    },
    {
      "constant": false,
      "inputs": [
        {
          "internalType": "uint256",
          "name": "a",
          "type": "uint256"
        },
        {
          "internalType": "uint256",
          "name": "b",
          "type": "uint256"
        },
        {
          "internalType": "uint256",
          "name": "c",
          "type": "uint256"
        }
      ],
      "name": "is_annihilated",
      "outputs": [
        {
          "internalType": "bool",
          "name": "",
          "type": "bool"
        }
      ],
      "payable": false,
      "stateMutability": "nonpayable",
      "type": "function"
    },
    {
      "constant": false,
      "inputs": [
        {
          "internalType": "address",
          "name": "id",
          "type": "address"
        }
      ],
      "name": "annihilated",
      "outputs": [
        {
          "internalType": "bool",
          "name": "",
          "type": "bool"
        }
      ],
      "payable": false,
      "stateMutability": "nonpayable",
      "type": "function"
    },
    {
      "constant": false,
      "inputs": [
        {
          "internalType": "address",
          "name": "attack_id",
          "type": "address"
        },
        {
          "internalType": "address",
          "name": "defend_id",
          "type": "address"
        },
        {
          "internalType": "uint256",
          "name": "attacker_flag",
          "type": "uint256"
        },
        {
          "internalType": "uint256",
          "name": "defender_flag",
          "type": "uint256"
        },
        {
          "internalType": "uint256",
          "name": "attacker_q",
          "type": "uint256"
        },
        {
          "internalType": "uint256",
          "name": "defender_q",
          "type": "uint256"
        },
        {
          "internalType": "uint256",
          "name": "injure",
          "type": "uint256"
        }
      ],
      "name": "battle_army",
      "outputs": [
        {
          "internalType": "uint256",
          "name": "",
          "type": "uint256"
        },
        {
          "internalType": "uint256",
          "name": "",
          "type": "uint256"
        },
        {
          "internalType": "uint256",
          "name": "",
          "type": "uint256"
        }
      ],
      "payable": false,
      "stateMutability": "nonpayable",
      "type": "function"
    },
    {
      "constant": false,
      "inputs": [
        {
          "internalType": "uint256",
          "name": "_owner",
          "type": "uint256"
        },
        {
          "internalType": "uint256",
          "name": "_attackedCastle",
          "type": "uint256"
        }
      ],
      "name": "attack",
      "outputs": [
        {
          "internalType": "uint256",
          "name": "",
          "type": "uint256"
        }
      ],
      "payable": false,
      "stateMutability": "nonpayable",
      "type": "function"
    },
    {
      "constant": false,
      "inputs": [],
      "name": "getBattleLog",
      "outputs": [
        {
          "internalType": "string",
          "name": "",
          "type": "string"
        }
      ],
      "payable": false,
      "stateMutability": "nonpayable",
      "type": "function"
    },
    {
      "constant": true,
      "inputs": [
        {
          "internalType": "uint256",
          "name": "_ownerId",
          "type": "uint256"
        },
        {
          "internalType": "uint256",
          "name": "_attackedCastleId",
          "type": "uint256"
        }
      ],
      "name": "sendSpy",
      "outputs": [
        {
          "internalType": "bool",
          "name": "",
          "type": "bool"
        }
      ],
      "payable": false,
      "stateMutability": "view",
      "type": "function"
    }
  ],
  "bytecode": "0x608060405234801561001057600080fd5b506040516200477938038062004779833981810160405260e081101561003557600080fd5b810190808051906020019092919080519060200190929190805190602001909291908051906020019092919080519060200190929190805190602001909291908051906020019092919050505086600360006101000a81548173ffffffffffffffffffffffffffffffffffffffff021916908373ffffffffffffffffffffffffffffffffffffffff16021790555085600460006101000a81548173ffffffffffffffffffffffffffffffffffffffff021916908373ffffffffffffffffffffffffffffffffffffffff16021790555084600760006101000a81548173ffffffffffffffffffffffffffffffffffffffff021916908373ffffffffffffffffffffffffffffffffffffffff16021790555082600560006101000a81548173ffffffffffffffffffffffffffffffffffffffff021916908373ffffffffffffffffffffffffffffffffffffffff16021790555083600660006101000a81548173ffffffffffffffffffffffffffffffffffffffff021916908373ffffffffffffffffffffffffffffffffffffffff16021790555080600860006101000a81548173ffffffffffffffffffffffffffffffffffffffff021916908373ffffffffffffffffffffffffffffffffffffffff16021790555081600960006101000a81548173ffffffffffffffffffffffffffffffffffffffff021916908373ffffffffffffffffffffffffffffffffffffffff1602179055505050505050505061451980620002606000396000f3fe608060405234801561001057600080fd5b50600436106100b45760003560e01c8063b7c47d6e11610071578063b7c47d6e1461044d578063d345572b14610485578063e1fa7638146104dd578063ebf7249214610529578063f104f7cb14610583578063f6577c92146105af576100b4565b80630194b613146100b9578063058981e814610109578063234a32a714610161578063266001d3146101e457806347e870b2146103af57806351e45bf51461040b575b600080fd5b6100ef600480360360408110156100cf57600080fd5b810190808035906020019092919080359060200190929190505050610667565b604051808215151515815260200191505060405180910390f35b61014b6004803603602081101561011f57600080fd5b81019080803573ffffffffffffffffffffffffffffffffffffffff169060200190929190505050610727565b6040518082815260200191505060405180910390f35b61016961073f565b6040518080602001828103825283818151815260200191508051906020019080838360005b838110156101a957808201518184015260208101905061018e565b50505050905090810190601f1680156101d65780820380516001836020036101000a031916815260200191505b509250505060405180910390f35b610334600480360360408110156101fa57600080fd5b810190808035906020019064010000000081111561021757600080fd5b82018360208201111561022957600080fd5b8035906020019184600183028401116401000000008311171561024b57600080fd5b91908080601f016020809104026020016040519081016040528093929190818152602001838380828437600081840152601f19601f820116905080830192505050505050509192919290803590602001906401000000008111156102ae57600080fd5b8201836020820111156102c057600080fd5b803590602001918460018302840111640100000000831117156102e257600080fd5b91908080601f016020809104026020016040519081016040528093929190818152602001838380828437600081840152601f19601f8201169050808301925050505050505091929192905050506107e1565b6040518080602001828103825283818151815260200191508051906020019080838360005b83811015610374578082015181840152602081019050610359565b50505050905090810190601f1680156103a15780820380516001836020036101000a031916815260200191505b509250505060405180910390f35b6103f1600480360360208110156103c557600080fd5b81019080803573ffffffffffffffffffffffffffffffffffffffff1690602001909291905050506108a9565b604051808215151515815260200191505060405180910390f35b6104376004803603602081101561042157600080fd5b8101908080359060200190929190505050610b55565b6040518082815260200191505060405180910390f35b6104836004803603604081101561046357600080fd5b810190808035906020019092919080359060200190929190505050610fe4565b005b6104c76004803603602081101561049b57600080fd5b81019080803573ffffffffffffffffffffffffffffffffffffffff1690602001909291905050506114d8565b6040518082815260200191505060405180910390f35b610513600480360360408110156104f357600080fd5b8101908080359060200190929190803590602001909291905050506114f0565b6040518082815260200191505060405180910390f35b6105696004803603606081101561053f57600080fd5b810190808035906020019092919080359060200190929190803590602001909291905050506135a8565b604051808215151515815260200191505060405180910390f35b61058b6135cb565b60405180848152602001838152602001828152602001935050505060405180910390f35b610643600480360360e08110156105c557600080fd5b81019080803573ffffffffffffffffffffffffffffffffffffffff169060200190929190803573ffffffffffffffffffffffffffffffffffffffff169060200190929190803590602001909291908035906020019092919080359060200190929190803590602001909291908035906020019092919050505061369d565b60405180848152602001838152602001828152602001935050505060405180910390f35b6000600760009054906101000a900473ffffffffffffffffffffffffffffffffffffffff1673ffffffffffffffffffffffffffffffffffffffff16630194b61384846040518363ffffffff1660e01b8152600401808381526020018281526020019250505060206040518083038186803b1580156106e457600080fd5b505afa1580156106f8573d6000803e3d6000fd5b505050506040513d602081101561070e57600080fd5b8101908080519060200190929190505050905092915050565b60026020528060005260406000206000915090505481565b606060008054600181600116156101000203166002900480601f0160208091040260200160405190810160405280929190818152602001828054600181600116156101000203166002900480156107d75780601f106107ac576101008083540402835291602001916107d7565b820191906000526020600020905b8154815290600101906020018083116107ba57829003601f168201915b5050505050905090565b606082826040516020018083805190602001908083835b6020831061081b57805182526020820191506020810190506020830392506107f8565b6001836020036101000a03801982511681845116808217855250505050505090500182805190602001908083835b6020831061086c5780518252602082019150602081019050602083039250610849565b6001836020036101000a03801982511681845116808217855250505050505090500192505050604051602081830303815290604052905092915050565b600080600660009054906101000a900473ffffffffffffffffffffffffffffffffffffffff1673ffffffffffffffffffffffffffffffffffffffff1663fad28ce4846040518263ffffffff1660e01b8152600401808273ffffffffffffffffffffffffffffffffffffffff1673ffffffffffffffffffffffffffffffffffffffff16815260200191505060206040518083038186803b15801561094b57600080fd5b505afa15801561095f573d6000803e3d6000fd5b505050506040513d602081101561097557600080fd5b8101908080519060200190929190505050600560009054906101000a900473ffffffffffffffffffffffffffffffffffffffff1673ffffffffffffffffffffffffffffffffffffffff166371896378856040518263ffffffff1660e01b8152600401808273ffffffffffffffffffffffffffffffffffffffff1673ffffffffffffffffffffffffffffffffffffffff16815260200191505060206040518083038186803b158015610a2557600080fd5b505afa158015610a39573d6000803e3d6000fd5b505050506040513d6020811015610a4f57600080fd5b8101908080519060200190929190505050600460009054906101000a900473ffffffffffffffffffffffffffffffffffffffff1673ffffffffffffffffffffffffffffffffffffffff1663a4b1919d866040518263ffffffff1660e01b8152600401808273ffffffffffffffffffffffffffffffffffffffff1673ffffffffffffffffffffffffffffffffffffffff16815260200191505060206040518083038186803b158015610aff57600080fd5b505afa158015610b13573d6000803e3d6000fd5b505050506040513d6020811015610b2957600080fd5b810190808051906020019092919050505001011415610b4b5760019050610b50565b600090505b919050565b6000803390506000600860009054906101000a900473ffffffffffffffffffffffffffffffffffffffff1673ffffffffffffffffffffffffffffffffffffffff1663f4ab27f0856040518263ffffffff1660e01b81526004018082815260200191505060206040518083038186803b158015610bd057600080fd5b505afa158015610be4573d6000803e3d6000fd5b505050506040513d6020811015610bfa57600080fd5b810190808051906020019092919050505090506000600160008473ffffffffffffffffffffffffffffffffffffffff1673ffffffffffffffffffffffffffffffffffffffff1681526020019081526020016000205414610c5f57600092505050610fdf565b6000600860009054906101000a900473ffffffffffffffffffffffffffffffffffffffff1673ffffffffffffffffffffffffffffffffffffffff16631e9ac0bf84606460006064600060646040518763ffffffff1660e01b8152600401808773ffffffffffffffffffffffffffffffffffffffff1673ffffffffffffffffffffffffffffffffffffffff1681526020018681526020018581526020018481526020018381526020018281526020019650505050505050602060405180830381600087803b158015610d2f57600080fd5b505af1158015610d43573d6000803e3d6000fd5b505050506040513d6020811015610d5957600080fd5b81019080805190602001909291905050509050809050600015158115151415610d885760009350505050610fdf565b42600160008573ffffffffffffffffffffffffffffffffffffffff1673ffffffffffffffffffffffffffffffffffffffff168152602001908152602001600020819055506014600260008573ffffffffffffffffffffffffffffffffffffffff1673ffffffffffffffffffffffffffffffffffffffff16815260200190815260200160002081905550600860009054906101000a900473ffffffffffffffffffffffffffffffffffffffff1673ffffffffffffffffffffffffffffffffffffffff1663ec6daa3083600186600160008973ffffffffffffffffffffffffffffffffffffffff1673ffffffffffffffffffffffffffffffffffffffff16815260200190815260200160002054600260008a73ffffffffffffffffffffffffffffffffffffffff1673ffffffffffffffffffffffffffffffffffffffff168152602001908152602001600020546040518663ffffffff1660e01b8152600401808673ffffffffffffffffffffffffffffffffffffffff1673ffffffffffffffffffffffffffffffffffffffff168152602001851515151581526020018473ffffffffffffffffffffffffffffffffffffffff1673ffffffffffffffffffffffffffffffffffffffff16815260200183815260200182815260200195505050505050600060405180830381600087803b158015610f8157600080fd5b505af1158015610f95573d6000803e3d6000fd5b50505050600260008473ffffffffffffffffffffffffffffffffffffffff1673ffffffffffffffffffffffffffffffffffffffff1681526020019081526020016000205493505050505b919050565b600360009054906101000a900473ffffffffffffffffffffffffffffffffffffffff1673ffffffffffffffffffffffffffffffffffffffff166321241b3f3384846040518463ffffffff1660e01b8152600401808473ffffffffffffffffffffffffffffffffffffffff1673ffffffffffffffffffffffffffffffffffffffff16815260200180602001848152602001838152602001828103825260078152602001807f4261727261636b00000000000000000000000000000000000000000000000000815250602001945050505050602060405180830381600087803b1580156110ce57600080fd5b505af11580156110e2573d6000803e3d6000fd5b505050506040513d60208110156110f857600080fd5b810190808051906020019092919050505050600460009054906101000a900473ffffffffffffffffffffffffffffffffffffffff1673ffffffffffffffffffffffffffffffffffffffff16636f58051b3360016040518363ffffffff1660e01b8152600401808373ffffffffffffffffffffffffffffffffffffffff1673ffffffffffffffffffffffffffffffffffffffff16815260200182815260200192505050600060405180830381600087803b1580156111b457600080fd5b505af11580156111c8573d6000803e3d6000fd5b50505050600760009054906101000a900473ffffffffffffffffffffffffffffffffffffffff1673ffffffffffffffffffffffffffffffffffffffff16630de12cb33360016040518363ffffffff1660e01b8152600401808373ffffffffffffffffffffffffffffffffffffffff1673ffffffffffffffffffffffffffffffffffffffff16815260200182815260200192505050600060405180830381600087803b15801561127657600080fd5b505af115801561128a573d6000803e3d6000fd5b50505050600560009054906101000a900473ffffffffffffffffffffffffffffffffffffffff1673ffffffffffffffffffffffffffffffffffffffff166324ab6dc53360016040518363ffffffff1660e01b8152600401808373ffffffffffffffffffffffffffffffffffffffff1673ffffffffffffffffffffffffffffffffffffffff16815260200182815260200192505050600060405180830381600087803b15801561133857600080fd5b505af115801561134c573d6000803e3d6000fd5b50505050600660009054906101000a900473ffffffffffffffffffffffffffffffffffffffff1673ffffffffffffffffffffffffffffffffffffffff16639e72a7e03360016040518363ffffffff1660e01b8152600401808373ffffffffffffffffffffffffffffffffffffffff1673ffffffffffffffffffffffffffffffffffffffff16815260200182815260200192505050600060405180830381600087803b1580156113fa57600080fd5b505af115801561140e573d6000803e3d6000fd5b50505050600960009054906101000a900473ffffffffffffffffffffffffffffffffffffffff1673ffffffffffffffffffffffffffffffffffffffff1663afbfd6443360016040518363ffffffff1660e01b8152600401808373ffffffffffffffffffffffffffffffffffffffff1673ffffffffffffffffffffffffffffffffffffffff16815260200182815260200192505050600060405180830381600087803b1580156114bc57600080fd5b505af11580156114d0573d6000803e3d6000fd5b505050505050565b60016020528060005260406000206000915090505481565b60006040518060400160405280600d81526020017fe688b0e9aca5e9968be5a78b0a000000000000000000000000000000000000008152506000908051906020019061153d929190614207565b506000600860009054906101000a900473ffffffffffffffffffffffffffffffffffffffff1673ffffffffffffffffffffffffffffffffffffffff1663f4ab27f0856040518263ffffffff1660e01b81526004018082815260200191505060206040518083038186803b1580156115b357600080fd5b505afa1580156115c7573d6000803e3d6000fd5b505050506040513d60208110156115dd57600080fd5b810190808051906020019092919050505090506000600860009054906101000a900473ffffffffffffffffffffffffffffffffffffffff1673ffffffffffffffffffffffffffffffffffffffff1663f4ab27f0856040518263ffffffff1660e01b81526004018082815260200191505060206040518083038186803b15801561166557600080fd5b505afa158015611679573d6000803e3d6000fd5b505050506040513d602081101561168f57600080fd5b810190808051906020019092919050505090506000600160008473ffffffffffffffffffffffffffffffffffffffff1673ffffffffffffffffffffffffffffffffffffffff168152602001908152602001600020819055506000600260008473ffffffffffffffffffffffffffffffffffffffff1673ffffffffffffffffffffffffffffffffffffffff1681526020019081526020016000208190555060008060006005600460009054906101000a900473ffffffffffffffffffffffffffffffffffffffff1673ffffffffffffffffffffffffffffffffffffffff166329058536876040518263ffffffff1660e01b8152600401808273ffffffffffffffffffffffffffffffffffffffff1673ffffffffffffffffffffffffffffffffffffffff16815260200191505060206040518083038186803b1580156117d257600080fd5b505afa1580156117e6573d6000803e3d6000fd5b505050506040513d60208110156117fc57600080fd5b810190808051906020019092919050505002603201905060006008600560009054906101000a900473ffffffffffffffffffffffffffffffffffffffff1673ffffffffffffffffffffffffffffffffffffffff1663b47711fa886040518263ffffffff1660e01b8152600401808273ffffffffffffffffffffffffffffffffffffffff1673ffffffffffffffffffffffffffffffffffffffff16815260200191505060206040518083038186803b1580156118b657600080fd5b505afa1580156118ca573d6000803e3d6000fd5b505050506040513d60208110156118e057600080fd5b81019080805190602001909291905050500260500190506000600a600660009054906101000a900473ffffffffffffffffffffffffffffffffffffffff1673ffffffffffffffffffffffffffffffffffffffff1663d0bb9e90896040518263ffffffff1660e01b8152600401808273ffffffffffffffffffffffffffffffffffffffff1673ffffffffffffffffffffffffffffffffffffffff16815260200191505060206040518083038186803b15801561199a57600080fd5b505afa1580156119ae573d6000803e3d6000fd5b505050506040513d60208110156119c457600080fd5b810190808051906020019092919050505002606401905060006005600460009054906101000a900473ffffffffffffffffffffffffffffffffffffffff1673ffffffffffffffffffffffffffffffffffffffff166329058536896040518263ffffffff1660e01b8152600401808273ffffffffffffffffffffffffffffffffffffffff1673ffffffffffffffffffffffffffffffffffffffff16815260200191505060206040518083038186803b158015611a7e57600080fd5b505afa158015611a92573d6000803e3d6000fd5b505050506040513d6020811015611aa857600080fd5b810190808051906020019092919050505002603201905060006008600560009054906101000a900473ffffffffffffffffffffffffffffffffffffffff1673ffffffffffffffffffffffffffffffffffffffff1663b47711fa8a6040518263ffffffff1660e01b8152600401808273ffffffffffffffffffffffffffffffffffffffff1673ffffffffffffffffffffffffffffffffffffffff16815260200191505060206040518083038186803b158015611b6257600080fd5b505afa158015611b76573d6000803e3d6000fd5b505050506040513d6020811015611b8c57600080fd5b81019080805190602001909291905050500260500190506000600a600660009054906101000a900473ffffffffffffffffffffffffffffffffffffffff1673ffffffffffffffffffffffffffffffffffffffff1663d0bb9e908b6040518263ffffffff1660e01b8152600401808273ffffffffffffffffffffffffffffffffffffffff1673ffffffffffffffffffffffffffffffffffffffff16815260200191505060206040518083038186803b158015611c4657600080fd5b505afa158015611c5a573d6000803e3d6000fd5b505050506040513d6020811015611c7057600080fd5b81019080805190602001909291905050500260640190506000809050611f22600660009054906101000a900473ffffffffffffffffffffffffffffffffffffffff1673ffffffffffffffffffffffffffffffffffffffff1663fad28ce48c6040518263ffffffff1660e01b8152600401808273ffffffffffffffffffffffffffffffffffffffff1673ffffffffffffffffffffffffffffffffffffffff16815260200191505060206040518083038186803b158015611d2e57600080fd5b505afa158015611d42573d6000803e3d6000fd5b505050506040513d6020811015611d5857600080fd5b8101908080519060200190929190505050600460009054906101000a900473ffffffffffffffffffffffffffffffffffffffff1673ffffffffffffffffffffffffffffffffffffffff1663a4b1919d8d6040518263ffffffff1660e01b8152600401808273ffffffffffffffffffffffffffffffffffffffff1673ffffffffffffffffffffffffffffffffffffffff16815260200191505060206040518083038186803b158015611e0857600080fd5b505afa158015611e1c573d6000803e3d6000fd5b505050506040513d6020811015611e3257600080fd5b8101908080519060200190929190505050600560009054906101000a900473ffffffffffffffffffffffffffffffffffffffff1673ffffffffffffffffffffffffffffffffffffffff1663718963788e6040518263ffffffff1660e01b8152600401808273ffffffffffffffffffffffffffffffffffffffff1673ffffffffffffffffffffffffffffffffffffffff16815260200191505060206040518083038186803b158015611ee257600080fd5b505afa158015611ef6573d6000803e3d6000fd5b505050506040513d6020811015611f0c57600080fd5b81019080805190602001909291905050506135a8565b15611ffe57611fe360008054600181600116156101000203166002900480601f016020809104026020016040519081016040528092919081815260200182805460018160011615610100020316600290048015611fc05780601f10611f9557610100808354040283529160200191611fc0565b820191906000526020600020905b815481529060010190602001808311611fa357829003601f168201915b50505050506040518060600160405280602481526020016144c1602491396107e1565b60009080519060200190611ff8929190614207565b50613596565b5b6014811015613595576120118b6108a9565b156120fc576120d260008054600181600116156101000203166002900480601f0160208091040260200160405190810160405280929190818152602001828054600181600116156101000203166002900480156120af5780601f10612084576101008083540402835291602001916120af565b820191906000526020600020905b81548152906001019060200180831161209257829003601f168201915b50505050506040518060600160405280602d815260200161443f602d91396107e1565b600090805190602001906120e7929190614207565b5060019b5050505050505050505050506135a2565b6121058a6108a9565b156121f0576121c660008054600181600116156101000203166002900480601f0160208091040260200160405190810160405280929190818152602001828054600181600116156101000203166002900480156121a35780601f10612178576101008083540402835291602001916121a3565b820191906000526020600020905b81548152906001019060200180831161218657829003601f168201915b50505050506040518060600160405280603381526020016143a1603391396107e1565b600090805190602001906121db929190614207565b5060019b5050505050505050505050506135a2565b600181019050600560009054906101000a900473ffffffffffffffffffffffffffffffffffffffff1673ffffffffffffffffffffffffffffffffffffffff1663718963788b6040518263ffffffff1660e01b8152600401808273ffffffffffffffffffffffffffffffffffffffff1673ffffffffffffffffffffffffffffffffffffffff16815260200191505060206040518083038186803b15801561229557600080fd5b505afa1580156122a9573d6000803e3d6000fd5b505050506040513d60208110156122bf57600080fd5b8101908080519060200190929190505050985060008914612bc3576123b360008054600181600116156101000203166002900480601f0160208091040260200160405190810160405280929190818152602001828054600181600116156101000203166002900480156123735780601f1061234857610100808354040283529160200191612373565b820191906000526020600020905b81548152906001019060200180831161235657829003601f168201915b50505050506040518060400160405280601c81526020017f0ae695b5e696b9e5ae88e8a19be88085e584aae58588e694bbe6938a000000008152506107e1565b600090805190602001906123c8929190614207565b50600460009054906101000a900473ffffffffffffffffffffffffffffffffffffffff1673ffffffffffffffffffffffffffffffffffffffff1663a4b1919d8c6040518263ffffffff1660e01b8152600401808273ffffffffffffffffffffffffffffffffffffffff1673ffffffffffffffffffffffffffffffffffffffff16815260200191505060206040518083038186803b15801561246857600080fd5b505afa15801561247c573d6000803e3d6000fd5b505050506040513d602081101561249257600080fd5b810190808051906020019092919050505097506000881461267b5761258660008054600181600116156101000203166002900480601f0160208091040260200160405190810160405280929190818152602001828054600181600116156101000203166002900480156125465780601f1061251b57610100808354040283529160200191612546565b820191906000526020600020905b81548152906001019060200180831161252957829003601f168201915b50505050506040518060400160405280601981526020017f2ce694bbe6938ae980b2e68891e696b9e7a59ee6a78de6898b000000000000008152506107e1565b6000908051906020019061259b929190614207565b506125ad8a8c600060018d8d8d61369d565b809950819a50829b50505050600460009054906101000a900473ffffffffffffffffffffffffffffffffffffffff1673ffffffffffffffffffffffffffffffffffffffff16633dabc4df8c8a6040518363ffffffff1660e01b8152600401808373ffffffffffffffffffffffffffffffffffffffff1673ffffffffffffffffffffffffffffffffffffffff16815260200182815260200192505050600060405180830381600087803b15801561266257600080fd5b505af1158015612676573d6000803e3d6000fd5b505050505b600560009054906101000a900473ffffffffffffffffffffffffffffffffffffffff1673ffffffffffffffffffffffffffffffffffffffff1663718963788c6040518263ffffffff1660e01b8152600401808273ffffffffffffffffffffffffffffffffffffffff1673ffffffffffffffffffffffffffffffffffffffff16815260200191505060206040518083038186803b15801561271a57600080fd5b505afa15801561272e573d6000803e3d6000fd5b505050506040513d602081101561274457600080fd5b8101908080519060200190929190505050975060008914158015612769575060008814155b1561291e5761282a60008054600181600116156101000203166002900480601f0160208091040260200160405190810160405280929190818152602001828054600181600116156101000203166002900480156128075780601f106127dc57610100808354040283529160200191612807565b820191906000526020600020905b8154815290600101906020018083116127ea57829003601f168201915b5050505050604051806060016040528060318152602001614490603191396107e1565b6000908051906020019061283f929190614207565b506128508a8c6000808d8d8c61369d565b809850819a50829b50505050600560009054906101000a900473ffffffffffffffffffffffffffffffffffffffff1673ffffffffffffffffffffffffffffffffffffffff1663dda0a3bf8c8a6040518363ffffffff1660e01b8152600401808373ffffffffffffffffffffffffffffffffffffffff1673ffffffffffffffffffffffffffffffffffffffff16815260200182815260200192505050600060405180830381600087803b15801561290557600080fd5b505af1158015612919573d6000803e3d6000fd5b505050505b600660009054906101000a900473ffffffffffffffffffffffffffffffffffffffff1673ffffffffffffffffffffffffffffffffffffffff1663fad28ce48c6040518263ffffffff1660e01b8152600401808273ffffffffffffffffffffffffffffffffffffffff1673ffffffffffffffffffffffffffffffffffffffff16815260200191505060206040518083038186803b1580156129bd57600080fd5b505afa1580156129d1573d6000803e3d6000fd5b505050506040513d60208110156129e757600080fd5b8101908080519060200190929190505050975060008914158015612a0c575060008814155b15612bc257612acd60008054600181600116156101000203166002900480601f016020809104026020016040519081016040528092919081815260200182805460018160011615610100020316600290048015612aaa5780601f10612a7f57610100808354040283529160200191612aaa565b820191906000526020600020905b815481529060010190602001808311612a8d57829003601f168201915b50505050506040518060600160405280602e81526020016142f9602e91396107e1565b60009080519060200190612ae2929190614207565b50612af48a8c600060028d8d8b61369d565b809750819a50829b50505050600660009054906101000a900473ffffffffffffffffffffffffffffffffffffffff1673ffffffffffffffffffffffffffffffffffffffff16632b16a5648c8a6040518363ffffffff1660e01b8152600401808373ffffffffffffffffffffffffffffffffffffffff1673ffffffffffffffffffffffffffffffffffffffff16815260200182815260200192505050600060405180830381600087803b158015612ba957600080fd5b505af1158015612bbd573d6000803e3d6000fd5b505050505b5b600460009054906101000a900473ffffffffffffffffffffffffffffffffffffffff1673ffffffffffffffffffffffffffffffffffffffff1663a4b1919d8c6040518263ffffffff1660e01b8152600401808273ffffffffffffffffffffffffffffffffffffffff1673ffffffffffffffffffffffffffffffffffffffff16815260200191505060206040518083038186803b158015612c6257600080fd5b505afa158015612c76573d6000803e3d6000fd5b505050506040513d6020811015612c8c57600080fd5b810190808051906020019092919050505098506000891461359057612d8060008054600181600116156101000203166002900480601f016020809104026020016040519081016040528092919081815260200182805460018160011615610100020316600290048015612d405780601f10612d1557610100808354040283529160200191612d40565b820191906000526020600020905b815481529060010190602001808311612d2357829003601f168201915b50505050506040518060400160405280601681526020017f0ae68891e696b9e7a59ee6a78de6898be694bbe6938a000000000000000000008152506107e1565b60009080519060200190612d95929190614207565b50600460009054906101000a900473ffffffffffffffffffffffffffffffffffffffff1673ffffffffffffffffffffffffffffffffffffffff1663a4b1919d8b6040518263ffffffff1660e01b8152600401808273ffffffffffffffffffffffffffffffffffffffff1673ffffffffffffffffffffffffffffffffffffffff16815260200191505060206040518083038186803b158015612e3557600080fd5b505afa158015612e49573d6000803e3d6000fd5b505050506040513d6020811015612e5f57600080fd5b810190808051906020019092919050505097506000881461304757612f5360008054600181600116156101000203166002900480601f016020809104026020016040519081016040528092919081815260200182805460018160011615610100020316600290048015612f135780601f10612ee857610100808354040283529160200191612f13565b820191906000526020600020905b815481529060010190602001808311612ef657829003601f168201915b50505050506040518060400160405280601681526020017f2ce694bbe6938ae695b5e696b9e7a59ee6a78de6898b000000000000000000008152506107e1565b60009080519060200190612f68929190614207565b50612f798b8b6001808d8d8a61369d565b809650819a50829b50505050600460009054906101000a900473ffffffffffffffffffffffffffffffffffffffff1673ffffffffffffffffffffffffffffffffffffffff16633dabc4df8b8a6040518363ffffffff1660e01b8152600401808373ffffffffffffffffffffffffffffffffffffffff1673ffffffffffffffffffffffffffffffffffffffff16815260200182815260200192505050600060405180830381600087803b15801561302e57600080fd5b505af1158015613042573d6000803e3d6000fd5b505050505b600560009054906101000a900473ffffffffffffffffffffffffffffffffffffffff1673ffffffffffffffffffffffffffffffffffffffff1663718963788b6040518263ffffffff1660e01b8152600401808273ffffffffffffffffffffffffffffffffffffffff1673ffffffffffffffffffffffffffffffffffffffff16815260200191505060206040518083038186803b1580156130e657600080fd5b505afa1580156130fa573d6000803e3d6000fd5b505050506040513d602081101561311057600080fd5b8101908080519060200190929190505050975060008914158015613135575060008814155b156132eb576131f660008054600181600116156101000203166002900480601f0160208091040260200160405190810160405280929190818152602001828054600181600116156101000203166002900480156131d35780601f106131a8576101008083540402835291602001916131d3565b820191906000526020600020905b8154815290600101906020018083116131b657829003601f168201915b5050505050604051806060016040528060318152602001614327603191396107e1565b6000908051906020019061320b929190614207565b5061321d8b8b600160008d8d8961369d565b809550819a50829b50505050600560009054906101000a900473ffffffffffffffffffffffffffffffffffffffff1673ffffffffffffffffffffffffffffffffffffffff1663dda0a3bf8b8a6040518363ffffffff1660e01b8152600401808373ffffffffffffffffffffffffffffffffffffffff1673ffffffffffffffffffffffffffffffffffffffff16815260200182815260200192505050600060405180830381600087803b1580156132d257600080fd5b505af11580156132e6573d6000803e3d6000fd5b505050505b600660009054906101000a900473ffffffffffffffffffffffffffffffffffffffff1673ffffffffffffffffffffffffffffffffffffffff1663fad28ce48b6040518263ffffffff1660e01b8152600401808273ffffffffffffffffffffffffffffffffffffffff1673ffffffffffffffffffffffffffffffffffffffff16815260200191505060206040518083038186803b15801561338a57600080fd5b505afa15801561339e573d6000803e3d6000fd5b505050506040513d60208110156133b457600080fd5b81019080805190602001909291905050509750600089141580156133d9575060008814155b1561358f5761349a60008054600181600116156101000203166002900480601f0160208091040260200160405190810160405280929190818152602001828054600181600116156101000203166002900480156134775780601f1061344c57610100808354040283529160200191613477565b820191906000526020600020905b81548152906001019060200180831161345a57829003601f168201915b50505050506040518060600160405280602e81526020016143d4602e91396107e1565b600090805190602001906134af929190614207565b506134c18b8b600160028d8d8861369d565b809450819a50829b50505050600660009054906101000a900473ffffffffffffffffffffffffffffffffffffffff1673ffffffffffffffffffffffffffffffffffffffff16632b16a5648b8a6040518363ffffffff1660e01b8152600401808373ffffffffffffffffffffffffffffffffffffffff1673ffffffffffffffffffffffffffffffffffffffff16815260200182815260200192505050600060405180830381600087803b15801561357657600080fd5b505af115801561358a573d6000803e3d6000fd5b505050505b5b611fff565b5b50505050505050505050505b92915050565b600080828486010114156135bf57600190506135c4565b600090505b9392505050565b6000806000600160003373ffffffffffffffffffffffffffffffffffffffff1673ffffffffffffffffffffffffffffffffffffffff16815260200190815260200160002054600160003373ffffffffffffffffffffffffffffffffffffffff1673ffffffffffffffffffffffffffffffffffffffff168152602001908152602001600020544203600260003373ffffffffffffffffffffffffffffffffffffffff1673ffffffffffffffffffffffffffffffffffffffff16815260200190815260200160002054925092509250909192565b60008060006136aa614287565b6000816000018181525050600081606001818152505060008914156136ed5780600001516004026028018160200181815250506001816040018181525050613745565b600189141561371a578060000151600302601e018160200181815250506002816040018181525050613744565b6002891415613743578060000151600a0260640181602001818152505060018160400181815250505b5b5b600088141561377b57806060015160080260500181608001818152505080606001516002026014018160a00181815250506137e5565b60018814156137b15780606001516005026032018160800181815250508060600151600102600a018160a00181815250506137e4565b60028814156137e3578060600151600a0260640181608001818152505080606001516003026000018160a00181815250505b5b5b80602001518160a00151106138d9576138b060008054600181600116156101000203166002900480601f01602080910402602001604051908101604052809291908181526020018280546001816001161561010002031660029004801561388d5780601f106138625761010080835404028352916020019161388d565b820191906000526020600020905b81548152906001019060200180831161387057829003601f168201915b50505050506040518060600160405280603d8152602001614402603d91396107e1565b600090805190602001906138c5929190614207565b5060008686829250935093509350506141fa565b80604001518160a00151826020015103028160c001818152505080608001518514613b555760008160c00151868161390d57fe5b061415613930578060c00151858161392157fe5b048160e001818152505061394b565b60018160c00151868161393f57fe5b04018160e00181815250505b8060e001518710613a6057613a2f60008054600181600116156101000203166002900480601f0160208091040260200160405190810160405280929190818152602001828054600181600116156101000203166002900480156139ef5780601f106139c4576101008083540402835291602001916139ef565b820191906000526020600020905b8154815290600101906020018083116139d257829003601f168201915b50505050506040518060400160405280601981526020017f0ae58f97e582b7e596aee4bd8de58f97e588b0e6938ae6aeba000000000000008152506107e1565b60009080519060200190613a44929190614207565b508060e001518703965080608001519450600186039550613b54565b8060c00151870285039450613b2760008054600181600116156101000203166002900480601f016020809104026020016040519081016040528092919081815260200182805460018160011615610100020316600290048015613b045780601f10613ad957610100808354040283529160200191613b04565b820191906000526020600020905b815481529060010190602001808311613ae757829003601f168201915b5050505050604051806080016040528060498152602001614358604991396107e1565b60009080519060200190613b3c929190614207565b506000965060008686829250935093509350506141fa565b5b6000871415613c6057613c3760008054600181600116156101000203166002900480601f016020809104026020016040519081016040528092919081815260200182805460018160011615610100020316600290048015613bf75780601f10613bcc57610100808354040283529160200191613bf7565b820191906000526020600020905b815481529060010190602001808311613bda57829003601f168201915b50505050506040518060400160405280600d81526020017f0ae980b2e694bbe7b590e69d9f000000000000000000000000000000000000008152506107e1565b60009080519060200190613c4c929190614207565b5060008686829250935093509350506141fa565b60008160c00151826080015181613c7357fe5b061415613c9b578060c00151816080015181613c8b57fe5b0481610100018181525050613cbb565b60018160c00151826080015181613cae57fe5b0401816101000181815250505b60008161010001518881613ccb57fe5b041461401f57858161010001518881613ce057fe5b0410613dfc57613dbf60008054600181600116156101000203166002900480601f016020809104026020016040519081016040528092919081815260200182805460018160011615610100020316600290048015613d7f5780601f10613d5457610100808354040283529160200191613d7f565b820191906000526020600020905b815481529060010190602001808311613d6257829003601f168201915b50505050506040518060400160405280601081526020017f0ae998b2e5ae88e696b9e585a8e6bb85000000000000000000000000000000008152506107e1565b60009080519060200190613dd4929190614207565b50858161010001510287039650600095508660008260800151819150935093509350506141fa565b613ed560008054600181600116156101000203166002900480601f016020809104026020016040519081016040528092919081815260200182805460018160011615610100020316600290048015613e955780601f10613e6a57610100808354040283529160200191613e95565b820191906000526020600020905b815481529060010190602001808311613e7857829003601f168201915b50505050506040518060400160405280601b81526020017f0ae6b688e6bb85e998b2e5ae88e696b97878e5908de596aee4bd8d00000000008152506107e1565b60009080519060200190613eea929190614207565b508061010001518781613ef957fe5b04860395508061010001518781613f0c57fe5b069650600087141561401e57613ff160008054600181600116156101000203166002900480601f016020809104026020016040519081016040528092919081815260200182805460018160011615610100020316600290048015613fb15780601f10613f8657610100808354040283529160200191613fb1565b820191906000526020600020905b815481529060010190602001808311613f9457829003601f168201915b50505050506040518060400160405280600d81526020017f0ae980b2e694bbe7b590e69d9f000000000000000000000000000000000000008152506107e1565b60009080519060200190614006929190614207565b506000868260800151829250935093509350506141fa565b5b8060c001518702850394506140e660008054600181600116156101000203166002900480601f0160208091040260200160405190810160405280929190818152602001828054600181600116156101000203166002900480156140c35780601f10614098576101008083540402835291602001916140c3565b820191906000526020600020905b8154815290600101906020018083116140a657829003601f168201915b505050505060405180606001604052806024815260200161446c602491396107e1565b600090805190602001906140fb929190614207565b506141d560008054600181600116156101000203166002900480601f0160208091040260200160405190810160405280929190818152602001828054600181600116156101000203166002900480156141955780601f1061416a57610100808354040283529160200191614195565b820191906000526020600020905b81548152906001019060200180831161417857829003601f168201915b50505050506040518060400160405280600d81526020017f0ae980b2e694bbe7b590e69d9f000000000000000000000000000000000000008152506107e1565b600090805190602001906141ea929190614207565b5060009650868686935093509350505b9750975097945050505050565b828054600181600116156101000203166002900490600052602060002090601f016020900481019282601f1061424857805160ff1916838001178555614276565b82800160010185558215614276579182015b8281111561427557825182559160200191906001019061425a565b5b50905061428391906142d3565b5090565b6040518061012001604052806000815260200160008152602001600081526020016000815260200160008152602001600081526020016000815260200160008152602001600081525090565b6142f591905b808211156142f15760008160009055506001016142d9565b5090565b9056fe0ae5b09ae69c89e980b2e694bbe596aee4bd8defbc8ce7b9bce7ba8ce694bbe6938ae68891e696b9e781abe7a0b20ae5b09ae69c89e980b2e694bbe596aee4bd8defbc8ce7b9bce7ba8ce694bbe6938ae695b5e696b9e5ae88e8a19be880850ae980b2e694bbe696b9e585a8e9ab94e980b2e8a18ce694bbe6938aefbc8ce4bdbfe58f97e582b7e596aee4bd8de589a9e9a4987878e7949fe591bd0ae980b2e694bbe7b590e69d9fe695b5e696b9e5ae88e8bb8de981ade588b0e585a8e695b8e6aeb2e6bb85efbc8ce68891e696b9e980b2e694bbe78db2e58b9d0ae5b09ae69c89e980b2e694bbe596aee4bd8defbc8ce7b9bce7ba8ce694bbe6938ae695b5e696b9e781abe7a0b20ae68c87e5ae9ae585b5e7a8aee8adb7e794b2e9818ee9ab98efbc8ce980b2e694bbe88085e784a1e6b395e980a0e68890e69c89e69588e582b7e5aeb3e68891e696b9e981ade588b0e585a8e695b8e6aeb2e6bb85efbc8ce695b5e696b9e998b2e5ae88e68890e58a9f0ae998b2e5ae88e596aee4bd8de58f97e582b7efbc8ce589a9e9a4987878e7949fe591bd0ae5b09ae69c89e980b2e694bbe596aee4bd8defbc8ce7b9bce7ba8ce694bbe6938ae68891e696b9e5ae88e8a19be88085e998b2e5ae88e696b9e784a1e585b5e58a9befbc8ce980b2e694bbe696b9e78db2e58b9da265627a7a7231582035d9eb681e06c39dd9968d812c13f8cb11e45cf5c48b5f26db80553eac63a80e64736f6c63430005100032",
  "source": "pragma solidity >=0.4.21 <0.7.0;\n\nimport \"./SafeMath.sol\";\nimport \"./BuildingFactory.sol\";\nimport \"./Soldier.sol\";\nimport \"./Spy.sol\";\nimport \"./Cannon.sol\";\nimport \"./Protector.sol\";\nimport \"./Wall.sol\";\n\ncontract Barrack {\n\n    using SafeMath for uint;\n    string battleLog; \n\n    mapping (address => uint) public ownerStartMarchTime;\n    mapping (address => uint) public ownerTotalMarchTime;\n\n    BuildingFactory buildingInstance;\n    Soldier soldierInstance;\n    Protector ProtectorInstance;\n    Cannon CannonInstance;\n    Spy SpyInstance;\n    Account AccountInstance;\n    Wall WallInstance;\n    constructor(address _building_address, address _soldier_address, address _spy_instance, address _cannon_instance, address _protector_instance, address _wall_instance, address _account_instance) public {\n        buildingInstance = BuildingFactory(_building_address);\n        soldierInstance = Soldier(_soldier_address);\n        SpyInstance = Spy(_spy_instance);\n        ProtectorInstance = Protector(_protector_instance);\n        CannonInstance = Cannon(_cannon_instance);\n        AccountInstance = Account(_account_instance);\n        WallInstance = Wall(_wall_instance);\n    }\n\n    function createBarrack(uint _x, uint _y) public {\n        buildingInstance._createBuilding(msg.sender, \"Barrack\", _x, _y);\n        soldierInstance.setSoldierLevel(msg.sender, 1);\n        SpyInstance.setSpyLevel(msg.sender, 1);\n        ProtectorInstance.setProtectorLevel(msg.sender, 1);\n        CannonInstance.setCannonLevel(msg.sender, 1);\n        WallInstance.setWallLevel(msg.sender, 1);\n    }\n\n    function concatenate(string memory a, string memory b) public returns(string memory) {\n        return string(abi.encodePacked(a, b));\n    }\n\n    \n\n    // // return 0 if failed (maybe already creating or not enough resource) otherwise return createtime\n    // function startCreateSoldier(uint number) public returns(uint) {\n    //     address _owner = msg.sender;\n    //     if(soldierInstance.ownerStartCreateTime(_owner) != 0) return uint(0); // check if there is already creating soldiers\n    //     bool enoughResource;\n    //     uint lvOfSoldier;\n    //     enoughResource = soldierInstance._createSoldier(_owner, number);\n    //     lvOfSoldier =  soldierInstance.levelOfSoldier(_owner);\n    //     if(enoughResource == false) return uint(0);\n    //     soldierInstance.setStartCreateTime(_owner, uint(now));\n    //     soldierInstance.setCreateSoldierTime(_owner, soldierInstance.createSoldierTime() * lvOfSoldier * number);\n    //     return soldierInstance.ownerCreateSoldierTime(_owner);\n    // }\n\n    // function getCreateSoldierTime() public view returns(uint, uint) {\n    //     return ( now - soldierInstance.ownerStartCreateTime(msg.sender), soldierInstance.ownerCreateSoldierTime(msg.sender) ) ;\n    // }\n\n    // // // return 0 if success else return remaining time\n    // function updateCreateSoldier(address _owner) public returns(uint) {\n    //     if (soldierInstance.ownerStartCreateTime(_owner) == 0) return 0;\n    //     if (now >= soldierInstance.ownerStartCreateTime(_owner).add(soldierInstance.ownerCreateSoldierTime(_owner))) {\n    //         uint num;\n    //         num = soldierInstance.ownerCreateSoldierTime(_owner).div(  soldierInstance.levelOfSoldier(_owner).mul(soldierInstance.createSoldierTime()) );\n    //         soldierInstance.setNumOfSoldier(_owner, soldierInstance.numOfSoldier(_owner) + (num));\n    //         soldierInstance.setStartCreateTime(_owner, 0);\n    //         soldierInstance.setCreateSoldierTime(_owner, 0);\n    //         soldierInstance._updatePower(_owner);\n    //         return 0;\n    //     }\n    //     else {\n    //         uint remainingTime = (soldierInstance.ownerStartCreateTime(_owner) + soldierInstance.ownerCreateSoldierTime(_owner)).sub(now);\n    //         return remainingTime;\n    //     }\n    // }\n    \n\n\n    // // return 0 if failed (maybe already creating or not enough resource) otherwise return createtime\n    /*\n    function attack(uint _ownerId, uint _attackedCastleId) public {\n        // soldierInstance.attack(_ownerId, _attackedCastleId);\n    }\n    */\n\n    function startMarch(uint _attackedCastleId) public returns(uint) {\n        address _owner = msg.sender;\n        address attackedAddress = AccountInstance.castleToOwner(_attackedCastleId);\n\n        \n        if(ownerStartMarchTime[_owner] != 0) return uint(0); // check if there is already Marching\n        bool enoughResource;\n        enoughResource = enoughResource = AccountInstance.cost(_owner, 100, uint(0), 100, uint(0), 100);\n        if(enoughResource == false) return uint(0);\n        ownerStartMarchTime[_owner] = uint(now);\n        ownerTotalMarchTime[_owner] = 20;\n        AccountInstance.setAttackedInfo(attackedAddress, true, _owner, ownerStartMarchTime[_owner], ownerTotalMarchTime[_owner]);\n        return ownerTotalMarchTime[_owner];\n    }\n\n    function getMarchTime() public view returns(uint, uint, uint) {\n        return ( ownerStartMarchTime[msg.sender], uint(now) - ownerStartMarchTime[msg.sender], ownerTotalMarchTime[msg.sender] ) ;\n    }\n\n    // // return 0 if success else return remaining time\n    /*\n    function updateMarch(address _owner) public returns(uint) {\n        if (ownerStartMarchTime[_owner] == 0) return 0;\n        if (uint(now) >= ownerStartMarchTime[_owner].add(ownerTotalMarchTime[_owner])) {\n            // uint num;\n            // num = ownerTotalMarchTime[_owner].div(  MarchInstance.levelOfMarch(_owner).mul(MarchInstance.createMarchTime()) );\n            // MarchInstance.setNumOfMarch(_owner, MarchInstance.numOfMarch(_owner) + (num));\n            ownerStartMarchTime[_owner] = 0;\n            ownerTotalMarchTime[_owner] = 0;\n            return 0;\n        }\n        else {\n            uint remainingTime = (ownerStartMarchTime[_owner] + ownerTotalMarchTime[_owner]).sub(uint(now));\n            return remainingTime;\n        }\n    }\n    */\n    function is_annihilated(uint a , uint b , uint c) public returns(bool){\n        if(a+b+c==0)\n            return true ; \n        else \n            return false ; \n    }\n    function annihilated(address id)public returns(bool){\n        if(soldierInstance.getSoldierAmount(id)+ProtectorInstance.getProtectorAmount(id)+CannonInstance.getCannonAmount(id)==0){\n            return true;\n        }else\n            return false ; \n    }\n    struct battle_info{\n        uint attackerLevel   ;   \n        uint attackerDamage ; \n        uint attackerFrequency  ;\n        uint defenderLevel  ; \n        uint defenderHealth ; \n        uint defenderArmour ; \n        uint effectiveDamage  ;  \n        uint requireCulling  ; \n        uint requireKill   ; \n    }\n    //fuction battle_army() \n    //attack_id : id\n    //defend_id : id\n    //attacker/defender_flag   \n    //    :0 :1 :2\n    //attack_q :\n    //defender_q:\n    //injure:\n    function battle_army(address attack_id , address defend_id , uint attacker_flag , uint defender_flag, uint attacker_q, uint defender_q, uint injure ) public returns(uint,uint,uint){\n        battle_info memory info ; \n        info.attackerLevel = 0 ; \n        info.defenderLevel = 0 ; \n\n        if(attacker_flag == 0){\n            info.attackerDamage = 40 + 4 * info.attackerLevel ; \n            info.attackerFrequency = 1 ; \n        }else if (attacker_flag == 1 ){\n            info.attackerDamage = 30 + 3 * info.attackerLevel ; \n            info.attackerFrequency = 2 ; \n        }else if(attacker_flag ==2){\n            info.attackerDamage = 100 + 10 * info.attackerLevel ; \n            info.attackerFrequency = 1 ;\n        }\n        if(defender_flag == 0){\n            info.defenderHealth = 80 + 8 * info.defenderLevel ; \n            info.defenderArmour = 20 + 2 * info.defenderLevel ; \n        }else if (defender_flag == 1 ){\n            info.defenderHealth = 50 + 5 * info.defenderLevel ; \n            info.defenderArmour = 10 + 1 * info.defenderLevel ; \n        }else if(defender_flag ==2){\n            info.defenderHealth = 100 + 10 * info.defenderLevel ; \n            info.defenderArmour = 0 + 3 * info.defenderLevel ; \n        }\n        //\n        if(info.defenderArmour >= info.attackerDamage){\n            battleLog = concatenate(battleLog,\"\\n\") ; \n            return (0,defender_q,injure) ; \n        }else{\n            info.effectiveDamage = (info.attackerDamage - info.defenderArmour) * info.attackerFrequency ; \n        //  \n        //  \n            if(injure != info.defenderHealth ){\n                //ceiling\n                if(injure % info.effectiveDamage == 0 )\n                    info.requireCulling = injure / info.effectiveDamage ; \n                else    \n                    info.requireCulling = injure / info.effectiveDamage + 1; \n\n                //\n                if(attacker_q >= info.requireCulling){\n                    battleLog = concatenate(battleLog,\"\\n\") ; \n                    attacker_q -= info.requireCulling ;\n                    injure = info.defenderHealth ; \n                    defender_q -= 1 ; \n                //\n                }else{\n                    injure -= attacker_q * info.effectiveDamage ; \n                    //todo  \\n{not_yet_attack}{ownSoldierRemain}\n                    battleLog = concatenate(battleLog,\"\\nxx\\n\") ; \n                    attacker_q = 0  ;\n                    return(0,defender_q,injure);\n                }\n            }\n            //\n            if(attacker_q == 0){\n                battleLog = concatenate(battleLog,\"\\n\") ;\n                return (0,defender_q,injure) ; \n            }else{\n                if(info.defenderHealth % info.effectiveDamage == 0 )\n                    info.requireKill = info.defenderHealth / info.effectiveDamage ; \n                else    \n                    info.requireKill = info.defenderHealth / info.effectiveDamage + 1; \n                //\n                if( attacker_q / info.requireKill != 0 ){\n                    //\n                    if(attacker_q / info.requireKill >= defender_q){\n                        battleLog = concatenate(battleLog,\"\\n\") ;\n                        attacker_q -= info.requireKill * defender_q ; \n                        defender_q = 0 ; \n                        return (attacker_q , 0 , info.defenderHealth) ; \n                    }else{\n                        battleLog = concatenate(battleLog,\"\\nxx\") ;\n                        defender_q -= attacker_q / info.requireKill  ; \n                        attacker_q %=  info.requireKill  ;\n                    }\n                    if(attacker_q == 0){\n                        battleLog = concatenate(battleLog,\"\\n\") ;\n                        return (0,defender_q,info.defenderHealth) ;\n                    }\n                }    \n                //\n                injure -= attacker_q * info.effectiveDamage ;\n                battleLog = concatenate(battleLog,\"\\nxx\") ; \n                battleLog = concatenate(battleLog,\"\\n\") ;\n                attacker_q = 0 ; \n                return (attacker_q,defender_q,injure) ; \n                }\n                \n            }\n\n\n            \n    }\n/*\n    function battle_army(address attack_id , address defend_id , uint attacker_flag , uint defender_flag, uint attacker_q, uint defender_q, uint injure ) public returns(uint,uint,uint){\n        battle_info memory info ; \n        info.attackerLevel = 0 ; \n        info.defenderLevel = 0 ; \n\n        /*\n        uint attackerLevel = 0  ;   \n        uint attackerDamage ; \n        uint attackerFrequency  ;\n        uint defenderLevel = 0 ; \n        uint defenderHealth ; \n        uint defenderArmour ; \n        uint defenderInjure  ; \n        uint effectiveDamage = 0 ;  \n        uint requireCulling = 0 ; \n        uint requireKill = 0 ; \n        \n\n        // \n        // \n        if(attacker_flag == 0){\n            //attackerLevel = ProtectorInstance.levelOfProtector(attack_id) \b;\n            info.attackerDamage = 40 + 4 * info.attackerLevel ; \n            info.attackerFrequency = 1 ; \n        }else if (attacker_flag == 1 ){\n            //attackerLevel = soldierInstance.levelOfSoldier(attack_id) ; \n            info.attackerDamage = 30 + 3 * info.attackerLevel ; \n            info.attackerFrequency = 2 ; \n        }else if(attacker_flag ==2){\n            //attackerLevel = CannonInstance.levelOfCannon(attack_id) ; \n            info.attackerDamage = 100 + 10 * info.attackerLevel ; \n            info.attackerFrequency = 1 ;\n        }\n        if(defender_flag == 0){\n            //defenderLevel = ProtectorInstance.levelOfProtector(defend_id) \b;\n            info.defenderHealth = 80 + 8 * info.defenderLevel ; \n            info.defenderArmour = 20 + 2 * info.defenderLevel ; \n        }else if (defender_flag == 1 ){\n            //defenderLevel = soldierInstance.levelOfSoldier(defend_id) ; \n            info.defenderHealth = 50 + 5 * info.defenderLevel ; \n            info.defenderArmour = 10 + 1 * info.defenderLevel ; \n        }else if(defender_flag ==2){\n            //defendderLevel = CannonInstance.levelOfCannon(defend_id) ; \n            info.defenderHealth = 100 + 10 * info.defenderLevel ; \n            info.defenderArmour = 0 + 3 * info.defenderLevel ; \n        }\n        //\n        if(info.defenderArmour >= info.attackerDamage){\n            battleLog = concatenate(battleLog,\"\\n\") ; \n            return (0,defender_q,info.defenderInjure) ; \n        }else{\n            info.effectiveDamage = (info.attackerDamage - info.defenderArmour) * info.attackerFrequency ; \n        //  \n        //  \n            if(info.defenderInjure != info.defenderHealth ){\n                //ceiling\n                if(info.defenderInjure % info.effectiveDamage == 0 )\n                    info.requireCulling = info.defenderInjure / info.effectiveDamage ; \n                else    \n                    info.requireCulling = info.defenderInjure / info.effectiveDamage + 1; \n\n                //\n                if(attacker_q >= info.requireCulling){\n                    battleLog = concatenate(battleLog,\"\\n\") ; \n                    attacker_q -= info.requireCulling ;\n                    info.defenderInjure = info.defenderHealth ; \n                    defender_q -= 1 ; \n                //\n                }else{\n                    info.defenderInjure -= attacker_q * info.effectiveDamage ; \n                    //todo  \\n{not_yet_attack}{ownSoldierRemain}\n                    battleLog = concatenate(battleLog,\"\\nxx\") ; \n                    attacker_q = 0  ;\n                }\n            }\n            //\n            if(attacker_q == 0){\n                battleLog = concatenate(battleLog,\"\\n\") ;\n                return (0,defender_q,info.defenderInjure) ; \n            }else{\n                if(info.defenderHealth % info.effectiveDamage == 0 )\n                    info.requireKill = info.defenderHealth / info.effectiveDamage ; \n                else    \n                    info.requireKill = info.defenderHealth / info.effectiveDamage + 1; \n                //\n                if( attacker_q / info.requireKill != 0 ){\n                    //\n                    if(attacker_q / info.requireKill >= defender_q){\n                        battleLog = concatenate(battleLog,\"\\n\") ;\n                        attacker_q -= info.requireKill * defender_q ; \n                        defender_q = 0 ; \n                        return (attacker_q , 0 , info.defenderHealth) ; \n                    }else{\n                        battleLog = concatenate(battleLog,\"\\nxx\") ;\n                        defender_q -= attacker_q / info.requireKill  ; \n                        attacker_q %=  info.requireKill  ;\n                    }\n                    if(attacker_q == 0){\n                        return (0,defender_q,info.defenderHealth) ; \n                        battleLog = concatenate(battleLog,\"\\n\") ;\n                        //battlelog += \n                    }else{\n                        //\n                        info.defenderInjure -= attacker_q * info.effectiveDamage ;\n                        battleLog = concatenate(battleLog,\"\\nxx\") ; \n                        battleLog = concatenate(battleLog,\"\\n\") ;\n                        attacker_q = 0 ; \n                        return (attacker_q,defender_q,info.defenderInjure) ; \n                    }\n                }\n            }\n\n\n            \n        }\n    }*/\n\n\n\n\n\n    function attack(uint _owner, uint _attackedCastle) public returns(uint){\n        //soldierInstance.attack(_ownerId, _attackedCastleId);\n        //uint ownSoldierQuantity = soldierInstance.getSoldierAmount(_ownerId);\n        battleLog = \"\\n\" ; \n        \n\n        address _ownerId = AccountInstance.castleToOwner(_owner) ;\n        address _attackedCastleId = AccountInstance.castleToOwner(_attackedCastle) ;\n        \n        ownerStartMarchTime[_ownerId] = 0;\n        ownerTotalMarchTime[_ownerId] = 0;\n\n        uint dummyQuantityAttacker ; \n        uint dummyQuantityDefender ; \n        uint ownSoldierInjure = 50 + soldierInstance.levelOfSoldier(_ownerId) * 5  ; \n        //uint ownProtectorQuantity = ProtectorInstance.getProtectorAmount(_ownerId);  \n        uint ownProtectorInjure = 80 + ProtectorInstance.levelOfProtector(_ownerId) * 8  ;\n        //uint ownCannonQuantity = CannonInstance.getCannonAmount(_ownerId);  \n        uint ownCannonInjure = 100 + CannonInstance.levelOfCannon(_ownerId) * 10 ;\n        //uint rivalSoldierQuantity = soldierInstance.getSoldierAmount(_attackedCastleId);\n        uint rivalSoldierInjure = 50 + soldierInstance.levelOfSoldier(_attackedCastleId)  * 5 ;\n        //uint rivalProtectorQuantity = ProtectorInstance.getProtectorAmount(_attackedCastleId); \n        uint rivalProtectorInjure = 80 + ProtectorInstance.levelOfProtector(_attackedCastleId) * 8  ;\n        //uint rivalCannonQuantity = CannonInstance.getCannonAmount(_attackedCastleId);  \n        uint rivalCannonInjure = 100 + CannonInstance.levelOfCannon(_attackedCastleId) * 10 ;\n        //\n        uint round = 0 ;  \n\n        if( is_annihilated(CannonInstance.getCannonAmount(_attackedCastleId),soldierInstance.getSoldierAmount(_attackedCastleId),ProtectorInstance.getProtectorAmount(_attackedCastleId)) ){\n            battleLog = concatenate(battleLog,\"\") ; \n        }\n        else{\n        //a barricade is set in case of infinite loop can be removed if no bug is found\n        //otherwise two army fight until one is totally annihilateed\n            \n            while(round < 20  ){\n                if( annihilated(_ownerId) ){\n                    battleLog = concatenate(battleLog,\"\") ;\n                    return 1; \n                }else if(annihilated(_attackedCastleId)){\n                    battleLog = concatenate(battleLog,\"\") ;\n                    return 1; \n                }\n                round += 1 ; \n                //battleLog += {round}\n                //->->->->->\n\n                //protector\n                dummyQuantityAttacker = ProtectorInstance.getProtectorAmount(_attackedCastleId);\n                if( dummyQuantityAttacker != 0  ){\n                    battleLog = concatenate(battleLog,\"\\n\") ; \n                    dummyQuantityDefender = soldierInstance.getSoldierAmount(_ownerId) ; \n                    if( dummyQuantityDefender != 0 ){\n                        battleLog = concatenate(battleLog,\",\") ; \n                        (dummyQuantityAttacker,dummyQuantityDefender,ownSoldierInjure) = battle_army(_attackedCastleId,_ownerId,0,1,dummyQuantityAttacker,dummyQuantityDefender,ownSoldierInjure) ; \n                        soldierInstance.setNumOfSoldier(_ownerId,dummyQuantityDefender) ; \n                    }\n                    //   \n                    dummyQuantityDefender = ProtectorInstance.getProtectorAmount(_ownerId) ; \n                    if( dummyQuantityAttacker != 0 && dummyQuantityDefender != 0){       \n                        battleLog = concatenate(battleLog,\"\\n\") ; \n                        (dummyQuantityAttacker,dummyQuantityDefender,ownProtectorInjure) = battle_army(_attackedCastleId,_ownerId,0,0,dummyQuantityAttacker,dummyQuantityDefender,ownProtectorInjure) ;\n                        ProtectorInstance.setNumOfProtector(_ownerId,dummyQuantityDefender) ; \n                    }\n                    // \n                    dummyQuantityDefender = CannonInstance.getCannonAmount(_ownerId) ; \n                    if( dummyQuantityAttacker != 0 && dummyQuantityDefender != 0){    \n                        battleLog = concatenate(battleLog,\"\\n\") ;\n                        (dummyQuantityAttacker,dummyQuantityDefender,ownCannonInjure) = battle_army(_attackedCastleId,_ownerId,0,2,dummyQuantityAttacker,dummyQuantityDefender,ownCannonInjure) ;    \n                        CannonInstance.setNumOfCannon(_ownerId,dummyQuantityDefender) ; \n                    }\n                }\n                \n                dummyQuantityAttacker = soldierInstance.getSoldierAmount(_ownerId);\n                if( dummyQuantityAttacker != 0  ){\n                    battleLog = concatenate(battleLog,\"\\n\") ; \n                    dummyQuantityDefender = soldierInstance.getSoldierAmount(_attackedCastleId) ; \n                    if( dummyQuantityDefender != 0 ){\n                        battleLog = concatenate(battleLog,\",\") ; \n                        (dummyQuantityAttacker,dummyQuantityDefender,rivalSoldierInjure) = battle_army(_ownerId,_attackedCastleId,1,1,dummyQuantityAttacker,dummyQuantityDefender,rivalSoldierInjure) ; \n                        soldierInstance.setNumOfSoldier(_attackedCastleId,dummyQuantityDefender) ; \n                    }\n                    //   \n                    dummyQuantityDefender = ProtectorInstance.getProtectorAmount(_attackedCastleId) ; \n                    if( dummyQuantityAttacker != 0 && dummyQuantityDefender != 0){       \n                        battleLog = concatenate(battleLog,\"\\n\") ; \n                        (dummyQuantityAttacker,dummyQuantityDefender,rivalProtectorInjure) = battle_army(_ownerId,_attackedCastleId,1,0,dummyQuantityAttacker,dummyQuantityDefender,rivalProtectorInjure) ;\n                        ProtectorInstance.setNumOfProtector(_attackedCastleId,dummyQuantityDefender) ; \n                    }\n                    // \n                    dummyQuantityDefender = CannonInstance.getCannonAmount(_attackedCastleId) ; \n                    if( dummyQuantityAttacker != 0 && dummyQuantityDefender != 0){    \n                        battleLog = concatenate(battleLog,\"\\n\") ;\n                        (dummyQuantityAttacker,dummyQuantityDefender,rivalCannonInjure) = battle_army(_ownerId,_attackedCastleId,1,2,dummyQuantityAttacker,dummyQuantityDefender,rivalCannonInjure) ;    \n                        CannonInstance.setNumOfCannon(_attackedCastleId,dummyQuantityDefender) ; \n                    }\n                }\n                /*\n                if( rivalSoldierQuantity != 0){\n\n                }\n                if( ownProtectorQuantity != 0){\n\n                }\n                if( rivalCannonQuantity != 0){\n\n                }\n                if( ownCannonQuantity != 0){\n\n                }*/\n\n\n\n            }\n            \n\n        }\n        \n            \n    }\n\n    function getBattleLog() public returns(string memory){\n        // string memory log = battleLog;\n        return battleLog;\n   }\n\n   function sendSpy(uint _ownerId, uint _attackedCastleId) public view returns(bool) {\n         //returns TRUE if spy of myCastle > attackedCastle\n\n         return SpyInstance.sendSpy(_ownerId, _attackedCastleId);\n             \n     }\n\n}",
  "sourcePath": "/Users/seanwang0823/NMLab_Final/contracts/Barrack.sol",
  "compiler": {
    "name": "solc",
    "version": "0.5.16+commit.9c3226ce.Emscripten.clang"
  },
  "schemaVersion": "3.4.0",
  "updatedAt": "2021-06-26T09:21:17.936Z",
  "devdoc": {
    "methods": {}
  },
  "userdoc": {
    "methods": {}
  }
}