{
  "contractName": "Barrack",
  "abi": [
    {
      "inputs": [
        {
          "internalType": "address",
          "name": "_building_address",
          "type": "address"
        },
        {
          "internalType": "address",
          "name": "_soldier_address",
          "type": "address"
        },
        {
          "internalType": "address",
          "name": "_spy_instance",
          "type": "address"
        },
        {
          "internalType": "address",
          "name": "_cannon_instance",
          "type": "address"
        },
        {
          "internalType": "address",
          "name": "_protector_instance",
          "type": "address"
        },
        {
          "internalType": "address",
          "name": "_wall_instance",
          "type": "address"
        },
        {
          "internalType": "address",
          "name": "_account_instance",
          "type": "address"
        }
      ],
      "payable": false,
      "stateMutability": "nonpayable",
      "type": "constructor"
    },
    {
      "constant": true,
      "inputs": [
        {
          "internalType": "address",
          "name": "",
          "type": "address"
        }
      ],
      "name": "ownerStartMarchTime",
      "outputs": [
        {
          "internalType": "uint256",
          "name": "",
          "type": "uint256"
        }
      ],
      "payable": false,
      "stateMutability": "view",
      "type": "function"
    },
    {
      "constant": true,
      "inputs": [
        {
          "internalType": "address",
          "name": "",
          "type": "address"
        }
      ],
      "name": "ownerTotalMarchTime",
      "outputs": [
        {
          "internalType": "uint256",
          "name": "",
          "type": "uint256"
        }
      ],
      "payable": false,
      "stateMutability": "view",
      "type": "function"
    },
    {
      "constant": false,
      "inputs": [
        {
          "internalType": "uint256",
          "name": "_x",
          "type": "uint256"
        },
        {
          "internalType": "uint256",
          "name": "_y",
          "type": "uint256"
        }
      ],
      "name": "createBarrack",
      "outputs": [],
      "payable": false,
      "stateMutability": "nonpayable",
      "type": "function"
    },
    {
      "constant": false,
      "inputs": [
        {
          "internalType": "string",
          "name": "a",
          "type": "string"
        },
        {
          "internalType": "string",
          "name": "b",
          "type": "string"
        }
      ],
      "name": "concatenate",
      "outputs": [
        {
          "internalType": "string",
          "name": "",
          "type": "string"
        }
      ],
      "payable": false,
      "stateMutability": "nonpayable",
      "type": "function"
    },
    {
      "constant": false,
      "inputs": [
        {
          "internalType": "uint256",
          "name": "_attackedCastleId",
          "type": "uint256"
        }
      ],
      "name": "startMarch",
      "outputs": [
        {
          "internalType": "uint256",
          "name": "",
          "type": "uint256"
        }
      ],
      "payable": false,
      "stateMutability": "nonpayable",
      "type": "function"
    },
    {
      "constant": true,
      "inputs": [],
      "name": "getMarchTime",
      "outputs": [
        {
          "internalType": "uint256",
          "name": "",
          "type": "uint256"
        },
        {
          "internalType": "uint256",
          "name": "",
          "type": "uint256"
        },
        {
          "internalType": "uint256",
          "name": "",
          "type": "uint256"
        }
      ],
      "payable": false,
      "stateMutability": "view",
      "type": "function"
    },
    {
      "constant": false,
      "inputs": [
        {
          "internalType": "uint256",
          "name": "a",
          "type": "uint256"
        },
        {
          "internalType": "uint256",
          "name": "b",
          "type": "uint256"
        },
        {
          "internalType": "uint256",
          "name": "c",
          "type": "uint256"
        }
      ],
      "name": "is_annihilated",
      "outputs": [
        {
          "internalType": "bool",
          "name": "",
          "type": "bool"
        }
      ],
      "payable": false,
      "stateMutability": "nonpayable",
      "type": "function"
    },
    {
      "constant": false,
      "inputs": [
        {
          "internalType": "address",
          "name": "id",
          "type": "address"
        }
      ],
      "name": "annihilated",
      "outputs": [
        {
          "internalType": "bool",
          "name": "",
          "type": "bool"
        }
      ],
      "payable": false,
      "stateMutability": "nonpayable",
      "type": "function"
    },
    {
      "constant": false,
      "inputs": [
        {
          "internalType": "address",
          "name": "attack_id",
          "type": "address"
        },
        {
          "internalType": "address",
          "name": "defend_id",
          "type": "address"
        },
        {
          "internalType": "uint256",
          "name": "attacker_flag",
          "type": "uint256"
        },
        {
          "internalType": "uint256",
          "name": "defender_flag",
          "type": "uint256"
        },
        {
          "internalType": "uint256",
          "name": "attacker_q",
          "type": "uint256"
        },
        {
          "internalType": "uint256",
          "name": "defender_q",
          "type": "uint256"
        },
        {
          "internalType": "uint256",
          "name": "injure",
          "type": "uint256"
        }
      ],
      "name": "battle_army",
      "outputs": [
        {
          "internalType": "uint256",
          "name": "",
          "type": "uint256"
        },
        {
          "internalType": "uint256",
          "name": "",
          "type": "uint256"
        },
        {
          "internalType": "uint256",
          "name": "",
          "type": "uint256"
        }
      ],
      "payable": false,
      "stateMutability": "nonpayable",
      "type": "function"
    },
    {
      "constant": false,
      "inputs": [
        {
          "internalType": "uint256",
          "name": "_owner",
          "type": "uint256"
        },
        {
          "internalType": "uint256",
          "name": "_attackedCastle",
          "type": "uint256"
        }
      ],
      "name": "attack",
      "outputs": [
        {
          "internalType": "uint256",
          "name": "",
          "type": "uint256"
        }
      ],
      "payable": false,
      "stateMutability": "nonpayable",
      "type": "function"
    },
    {
      "constant": false,
      "inputs": [],
      "name": "getBattleLog",
      "outputs": [
        {
          "internalType": "string",
          "name": "",
          "type": "string"
        }
      ],
      "payable": false,
      "stateMutability": "nonpayable",
      "type": "function"
    },
    {
      "constant": true,
      "inputs": [
        {
          "internalType": "uint256",
          "name": "_ownerId",
          "type": "uint256"
        },
        {
          "internalType": "uint256",
          "name": "_attackedCastleId",
          "type": "uint256"
        }
      ],
      "name": "sendSpy",
      "outputs": [
        {
          "internalType": "bool",
          "name": "",
          "type": "bool"
        }
      ],
      "payable": false,
      "stateMutability": "view",
      "type": "function"
    }
  ],
  "bytecode": "0x60806040523480156200001157600080fd5b506040516200747438038062007474833981810160405260e08110156200003757600080fd5b810190808051906020019092919080519060200190929190805190602001909291908051906020019092919080519060200190929190805190602001909291908051906020019092919050505086600360006101000a81548173ffffffffffffffffffffffffffffffffffffffff021916908373ffffffffffffffffffffffffffffffffffffffff16021790555085600460006101000a81548173ffffffffffffffffffffffffffffffffffffffff021916908373ffffffffffffffffffffffffffffffffffffffff16021790555084600760006101000a81548173ffffffffffffffffffffffffffffffffffffffff021916908373ffffffffffffffffffffffffffffffffffffffff16021790555082600560006101000a81548173ffffffffffffffffffffffffffffffffffffffff021916908373ffffffffffffffffffffffffffffffffffffffff16021790555083600660006101000a81548173ffffffffffffffffffffffffffffffffffffffff021916908373ffffffffffffffffffffffffffffffffffffffff16021790555080600860006101000a81548173ffffffffffffffffffffffffffffffffffffffff021916908373ffffffffffffffffffffffffffffffffffffffff16021790555081600960006101000a81548173ffffffffffffffffffffffffffffffffffffffff021916908373ffffffffffffffffffffffffffffffffffffffff1602179055505050505050505061721280620002626000396000f3fe608060405234801561001057600080fd5b50600436106100b45760003560e01c8063b7c47d6e11610071578063b7c47d6e1461044d578063d345572b14610485578063e1fa7638146104dd578063ebf7249214610529578063f104f7cb14610583578063f6577c92146105af576100b4565b80630194b613146100b9578063058981e814610109578063234a32a714610161578063266001d3146101e457806347e870b2146103af57806351e45bf51461040b575b600080fd5b6100ef600480360360408110156100cf57600080fd5b810190808035906020019092919080359060200190929190505050610667565b604051808215151515815260200191505060405180910390f35b61014b6004803603602081101561011f57600080fd5b81019080803573ffffffffffffffffffffffffffffffffffffffff169060200190929190505050610727565b6040518082815260200191505060405180910390f35b61016961073f565b6040518080602001828103825283818151815260200191508051906020019080838360005b838110156101a957808201518184015260208101905061018e565b50505050905090810190601f1680156101d65780820380516001836020036101000a031916815260200191505b509250505060405180910390f35b610334600480360360408110156101fa57600080fd5b810190808035906020019064010000000081111561021757600080fd5b82018360208201111561022957600080fd5b8035906020019184600183028401116401000000008311171561024b57600080fd5b91908080601f016020809104026020016040519081016040528093929190818152602001838380828437600081840152601f19601f820116905080830192505050505050509192919290803590602001906401000000008111156102ae57600080fd5b8201836020820111156102c057600080fd5b803590602001918460018302840111640100000000831117156102e257600080fd5b91908080601f016020809104026020016040519081016040528093929190818152602001838380828437600081840152601f19601f8201169050808301925050505050505091929192905050506107e1565b6040518080602001828103825283818151815260200191508051906020019080838360005b83811015610374578082015181840152602081019050610359565b50505050905090810190601f1680156103a15780820380516001836020036101000a031916815260200191505b509250505060405180910390f35b6103f1600480360360208110156103c557600080fd5b81019080803573ffffffffffffffffffffffffffffffffffffffff1690602001909291905050506108a9565b604051808215151515815260200191505060405180910390f35b6104376004803603602081101561042157600080fd5b8101908080359060200190929190505050610b55565b6040518082815260200191505060405180910390f35b6104836004803603604081101561046357600080fd5b810190808035906020019092919080359060200190929190505050610fe4565b005b6104c76004803603602081101561049b57600080fd5b81019080803573ffffffffffffffffffffffffffffffffffffffff1690602001909291905050506114d8565b6040518082815260200191505060405180910390f35b610513600480360360408110156104f357600080fd5b8101908080359060200190929190803590602001909291905050506114f0565b6040518082815260200191505060405180910390f35b6105696004803603606081101561053f57600080fd5b81019080803590602001909291908035906020019092919080359060200190929190505050615cdc565b604051808215151515815260200191505060405180910390f35b61058b615cff565b60405180848152602001838152602001828152602001935050505060405180910390f35b610643600480360360e08110156105c557600080fd5b81019080803573ffffffffffffffffffffffffffffffffffffffff169060200190929190803573ffffffffffffffffffffffffffffffffffffffff1690602001909291908035906020019092919080359060200190929190803590602001909291908035906020019092919080359060200190929190505050615dd1565b60405180848152602001838152602001828152602001935050505060405180910390f35b6000600760009054906101000a900473ffffffffffffffffffffffffffffffffffffffff1673ffffffffffffffffffffffffffffffffffffffff16630194b61384846040518363ffffffff1660e01b8152600401808381526020018281526020019250505060206040518083038186803b1580156106e457600080fd5b505afa1580156106f8573d6000803e3d6000fd5b505050506040513d602081101561070e57600080fd5b8101908080519060200190929190505050905092915050565b60026020528060005260406000206000915090505481565b606060008054600181600116156101000203166002900480601f0160208091040260200160405190810160405280929190818152602001828054600181600116156101000203166002900480156107d75780601f106107ac576101008083540402835291602001916107d7565b820191906000526020600020905b8154815290600101906020018083116107ba57829003601f168201915b5050505050905090565b606082826040516020018083805190602001908083835b6020831061081b57805182526020820191506020810190506020830392506107f8565b6001836020036101000a03801982511681845116808217855250505050505090500182805190602001908083835b6020831061086c5780518252602082019150602081019050602083039250610849565b6001836020036101000a03801982511681845116808217855250505050505090500192505050604051602081830303815290604052905092915050565b600080600660009054906101000a900473ffffffffffffffffffffffffffffffffffffffff1673ffffffffffffffffffffffffffffffffffffffff1663fad28ce4846040518263ffffffff1660e01b8152600401808273ffffffffffffffffffffffffffffffffffffffff1673ffffffffffffffffffffffffffffffffffffffff16815260200191505060206040518083038186803b15801561094b57600080fd5b505afa15801561095f573d6000803e3d6000fd5b505050506040513d602081101561097557600080fd5b8101908080519060200190929190505050600560009054906101000a900473ffffffffffffffffffffffffffffffffffffffff1673ffffffffffffffffffffffffffffffffffffffff166371896378856040518263ffffffff1660e01b8152600401808273ffffffffffffffffffffffffffffffffffffffff1673ffffffffffffffffffffffffffffffffffffffff16815260200191505060206040518083038186803b158015610a2557600080fd5b505afa158015610a39573d6000803e3d6000fd5b505050506040513d6020811015610a4f57600080fd5b8101908080519060200190929190505050600460009054906101000a900473ffffffffffffffffffffffffffffffffffffffff1673ffffffffffffffffffffffffffffffffffffffff1663a4b1919d866040518263ffffffff1660e01b8152600401808273ffffffffffffffffffffffffffffffffffffffff1673ffffffffffffffffffffffffffffffffffffffff16815260200191505060206040518083038186803b158015610aff57600080fd5b505afa158015610b13573d6000803e3d6000fd5b505050506040513d6020811015610b2957600080fd5b810190808051906020019092919050505001011415610b4b5760019050610b50565b600090505b919050565b6000803390506000600860009054906101000a900473ffffffffffffffffffffffffffffffffffffffff1673ffffffffffffffffffffffffffffffffffffffff1663f4ab27f0856040518263ffffffff1660e01b81526004018082815260200191505060206040518083038186803b158015610bd057600080fd5b505afa158015610be4573d6000803e3d6000fd5b505050506040513d6020811015610bfa57600080fd5b810190808051906020019092919050505090506000600160008473ffffffffffffffffffffffffffffffffffffffff1673ffffffffffffffffffffffffffffffffffffffff1681526020019081526020016000205414610c5f57600092505050610fdf565b6000600860009054906101000a900473ffffffffffffffffffffffffffffffffffffffff1673ffffffffffffffffffffffffffffffffffffffff16631e9ac0bf84606460006064600060646040518763ffffffff1660e01b8152600401808773ffffffffffffffffffffffffffffffffffffffff1673ffffffffffffffffffffffffffffffffffffffff1681526020018681526020018581526020018481526020018381526020018281526020019650505050505050602060405180830381600087803b158015610d2f57600080fd5b505af1158015610d43573d6000803e3d6000fd5b505050506040513d6020811015610d5957600080fd5b81019080805190602001909291905050509050809050600015158115151415610d885760009350505050610fdf565b42600160008573ffffffffffffffffffffffffffffffffffffffff1673ffffffffffffffffffffffffffffffffffffffff168152602001908152602001600020819055506014600260008573ffffffffffffffffffffffffffffffffffffffff1673ffffffffffffffffffffffffffffffffffffffff16815260200190815260200160002081905550600860009054906101000a900473ffffffffffffffffffffffffffffffffffffffff1673ffffffffffffffffffffffffffffffffffffffff1663ec6daa3083600186600160008973ffffffffffffffffffffffffffffffffffffffff1673ffffffffffffffffffffffffffffffffffffffff16815260200190815260200160002054600260008a73ffffffffffffffffffffffffffffffffffffffff1673ffffffffffffffffffffffffffffffffffffffff168152602001908152602001600020546040518663ffffffff1660e01b8152600401808673ffffffffffffffffffffffffffffffffffffffff1673ffffffffffffffffffffffffffffffffffffffff168152602001851515151581526020018473ffffffffffffffffffffffffffffffffffffffff1673ffffffffffffffffffffffffffffffffffffffff16815260200183815260200182815260200195505050505050600060405180830381600087803b158015610f8157600080fd5b505af1158015610f95573d6000803e3d6000fd5b50505050600260008473ffffffffffffffffffffffffffffffffffffffff1673ffffffffffffffffffffffffffffffffffffffff1681526020019081526020016000205493505050505b919050565b600360009054906101000a900473ffffffffffffffffffffffffffffffffffffffff1673ffffffffffffffffffffffffffffffffffffffff166321241b3f3384846040518463ffffffff1660e01b8152600401808473ffffffffffffffffffffffffffffffffffffffff1673ffffffffffffffffffffffffffffffffffffffff16815260200180602001848152602001838152602001828103825260078152602001807f4261727261636b00000000000000000000000000000000000000000000000000815250602001945050505050602060405180830381600087803b1580156110ce57600080fd5b505af11580156110e2573d6000803e3d6000fd5b505050506040513d60208110156110f857600080fd5b810190808051906020019092919050505050600460009054906101000a900473ffffffffffffffffffffffffffffffffffffffff1673ffffffffffffffffffffffffffffffffffffffff16636f58051b3360016040518363ffffffff1660e01b8152600401808373ffffffffffffffffffffffffffffffffffffffff1673ffffffffffffffffffffffffffffffffffffffff16815260200182815260200192505050600060405180830381600087803b1580156111b457600080fd5b505af11580156111c8573d6000803e3d6000fd5b50505050600760009054906101000a900473ffffffffffffffffffffffffffffffffffffffff1673ffffffffffffffffffffffffffffffffffffffff16630de12cb33360016040518363ffffffff1660e01b8152600401808373ffffffffffffffffffffffffffffffffffffffff1673ffffffffffffffffffffffffffffffffffffffff16815260200182815260200192505050600060405180830381600087803b15801561127657600080fd5b505af115801561128a573d6000803e3d6000fd5b50505050600560009054906101000a900473ffffffffffffffffffffffffffffffffffffffff1673ffffffffffffffffffffffffffffffffffffffff166324ab6dc53360016040518363ffffffff1660e01b8152600401808373ffffffffffffffffffffffffffffffffffffffff1673ffffffffffffffffffffffffffffffffffffffff16815260200182815260200192505050600060405180830381600087803b15801561133857600080fd5b505af115801561134c573d6000803e3d6000fd5b50505050600660009054906101000a900473ffffffffffffffffffffffffffffffffffffffff1673ffffffffffffffffffffffffffffffffffffffff16639e72a7e03360016040518363ffffffff1660e01b8152600401808373ffffffffffffffffffffffffffffffffffffffff1673ffffffffffffffffffffffffffffffffffffffff16815260200182815260200192505050600060405180830381600087803b1580156113fa57600080fd5b505af115801561140e573d6000803e3d6000fd5b50505050600960009054906101000a900473ffffffffffffffffffffffffffffffffffffffff1673ffffffffffffffffffffffffffffffffffffffff1663afbfd6443360016040518363ffffffff1660e01b8152600401808373ffffffffffffffffffffffffffffffffffffffff1673ffffffffffffffffffffffffffffffffffffffff16815260200182815260200192505050600060405180830381600087803b1580156114bc57600080fd5b505af11580156114d0573d6000803e3d6000fd5b505050505050565b60016020528060005260406000206000915090505481565b60006040518060400160405280600d81526020017fe688b0e9aca5e9968be5a78b0a000000000000000000000000000000000000008152506000908051906020019061153d929190616e70565b506000600860009054906101000a900473ffffffffffffffffffffffffffffffffffffffff1673ffffffffffffffffffffffffffffffffffffffff1663f4ab27f0856040518263ffffffff1660e01b81526004018082815260200191505060206040518083038186803b1580156115b357600080fd5b505afa1580156115c7573d6000803e3d6000fd5b505050506040513d60208110156115dd57600080fd5b810190808051906020019092919050505090506000600860009054906101000a900473ffffffffffffffffffffffffffffffffffffffff1673ffffffffffffffffffffffffffffffffffffffff1663f4ab27f0856040518263ffffffff1660e01b81526004018082815260200191505060206040518083038186803b15801561166557600080fd5b505afa158015611679573d6000803e3d6000fd5b505050506040513d602081101561168f57600080fd5b810190808051906020019092919050505090506000600160008473ffffffffffffffffffffffffffffffffffffffff1673ffffffffffffffffffffffffffffffffffffffff168152602001908152602001600020819055506000600260008473ffffffffffffffffffffffffffffffffffffffff1673ffffffffffffffffffffffffffffffffffffffff1681526020019081526020016000208190555060008060006005600460009054906101000a900473ffffffffffffffffffffffffffffffffffffffff1673ffffffffffffffffffffffffffffffffffffffff166329058536876040518263ffffffff1660e01b8152600401808273ffffffffffffffffffffffffffffffffffffffff1673ffffffffffffffffffffffffffffffffffffffff16815260200191505060206040518083038186803b1580156117d257600080fd5b505afa1580156117e6573d6000803e3d6000fd5b505050506040513d60208110156117fc57600080fd5b810190808051906020019092919050505002603201905060006008600560009054906101000a900473ffffffffffffffffffffffffffffffffffffffff1673ffffffffffffffffffffffffffffffffffffffff1663b47711fa886040518263ffffffff1660e01b8152600401808273ffffffffffffffffffffffffffffffffffffffff1673ffffffffffffffffffffffffffffffffffffffff16815260200191505060206040518083038186803b1580156118b657600080fd5b505afa1580156118ca573d6000803e3d6000fd5b505050506040513d60208110156118e057600080fd5b81019080805190602001909291905050500260500190506000600a600660009054906101000a900473ffffffffffffffffffffffffffffffffffffffff1673ffffffffffffffffffffffffffffffffffffffff1663d0bb9e90896040518263ffffffff1660e01b8152600401808273ffffffffffffffffffffffffffffffffffffffff1673ffffffffffffffffffffffffffffffffffffffff16815260200191505060206040518083038186803b15801561199a57600080fd5b505afa1580156119ae573d6000803e3d6000fd5b505050506040513d60208110156119c457600080fd5b810190808051906020019092919050505002606401905060006005600460009054906101000a900473ffffffffffffffffffffffffffffffffffffffff1673ffffffffffffffffffffffffffffffffffffffff166329058536896040518263ffffffff1660e01b8152600401808273ffffffffffffffffffffffffffffffffffffffff1673ffffffffffffffffffffffffffffffffffffffff16815260200191505060206040518083038186803b158015611a7e57600080fd5b505afa158015611a92573d6000803e3d6000fd5b505050506040513d6020811015611aa857600080fd5b810190808051906020019092919050505002603201905060006008600560009054906101000a900473ffffffffffffffffffffffffffffffffffffffff1673ffffffffffffffffffffffffffffffffffffffff1663b47711fa8a6040518263ffffffff1660e01b8152600401808273ffffffffffffffffffffffffffffffffffffffff1673ffffffffffffffffffffffffffffffffffffffff16815260200191505060206040518083038186803b158015611b6257600080fd5b505afa158015611b76573d6000803e3d6000fd5b505050506040513d6020811015611b8c57600080fd5b81019080805190602001909291905050500260500190506000600a600660009054906101000a900473ffffffffffffffffffffffffffffffffffffffff1673ffffffffffffffffffffffffffffffffffffffff1663d0bb9e908b6040518263ffffffff1660e01b8152600401808273ffffffffffffffffffffffffffffffffffffffff1673ffffffffffffffffffffffffffffffffffffffff16815260200191505060206040518083038186803b158015611c4657600080fd5b505afa158015611c5a573d6000803e3d6000fd5b505050506040513d6020811015611c7057600080fd5b81019080805190602001909291905050500260640190506000809050611f22600660009054906101000a900473ffffffffffffffffffffffffffffffffffffffff1673ffffffffffffffffffffffffffffffffffffffff1663fad28ce48c6040518263ffffffff1660e01b8152600401808273ffffffffffffffffffffffffffffffffffffffff1673ffffffffffffffffffffffffffffffffffffffff16815260200191505060206040518083038186803b158015611d2e57600080fd5b505afa158015611d42573d6000803e3d6000fd5b505050506040513d6020811015611d5857600080fd5b8101908080519060200190929190505050600460009054906101000a900473ffffffffffffffffffffffffffffffffffffffff1673ffffffffffffffffffffffffffffffffffffffff1663a4b1919d8d6040518263ffffffff1660e01b8152600401808273ffffffffffffffffffffffffffffffffffffffff1673ffffffffffffffffffffffffffffffffffffffff16815260200191505060206040518083038186803b158015611e0857600080fd5b505afa158015611e1c573d6000803e3d6000fd5b505050506040513d6020811015611e3257600080fd5b8101908080519060200190929190505050600560009054906101000a900473ffffffffffffffffffffffffffffffffffffffff1673ffffffffffffffffffffffffffffffffffffffff1663718963788e6040518263ffffffff1660e01b8152600401808273ffffffffffffffffffffffffffffffffffffffff1673ffffffffffffffffffffffffffffffffffffffff16815260200191505060206040518083038186803b158015611ee257600080fd5b505afa158015611ef6573d6000803e3d6000fd5b505050506040513d6020811015611f0c57600080fd5b8101908080519060200190929190505050615cdc565b15611ffe57611fe360008054600181600116156101000203166002900480601f016020809104026020016040519081016040528092919081815260200182805460018160011615610100020316600290048015611fc05780601f10611f9557610100808354040283529160200191611fc0565b820191906000526020600020905b815481529060010190602001808311611fa357829003601f168201915b50505050506040518060600160405280602481526020016171ba602491396107e1565b60009080519060200190611ff8929190616e70565b50615cca565b5b6014811015615cc9576120118b6108a9565b156120fc576120d260008054600181600116156101000203166002900480601f0160208091040260200160405190810160405280929190818152602001828054600181600116156101000203166002900480156120af5780601f10612084576101008083540402835291602001916120af565b820191906000526020600020905b81548152906001019060200180831161209257829003601f168201915b50505050506040518060600160405280602d815260200161715c602d91396107e1565b600090805190602001906120e7929190616e70565b5060019b505050505050505050505050615cd6565b6121058a6108a9565b156121f0576121c660008054600181600116156101000203166002900480601f0160208091040260200160405190810160405280929190818152602001828054600181600116156101000203166002900480156121a35780601f10612178576101008083540402835291602001916121a3565b820191906000526020600020905b81548152906001019060200180831161218657829003601f168201915b5050505050604051806060016040528060338152602001617059603391396107e1565b600090805190602001906121db929190616e70565b5060019b505050505050505050505050615cd6565b600181019050600560009054906101000a900473ffffffffffffffffffffffffffffffffffffffff1673ffffffffffffffffffffffffffffffffffffffff1663718963788b6040518263ffffffff1660e01b8152600401808273ffffffffffffffffffffffffffffffffffffffff1673ffffffffffffffffffffffffffffffffffffffff16815260200191505060206040518083038186803b15801561229557600080fd5b505afa1580156122a9573d6000803e3d6000fd5b505050506040513d60208110156122bf57600080fd5b8101908080519060200190929190505050985060008914612bc3576123b360008054600181600116156101000203166002900480601f0160208091040260200160405190810160405280929190818152602001828054600181600116156101000203166002900480156123735780601f1061234857610100808354040283529160200191612373565b820191906000526020600020905b81548152906001019060200180831161235657829003601f168201915b50505050506040518060400160405280601c81526020017f0ae695b5e696b9e5ae88e8a19be88085e584aae58588e694bbe6938a000000008152506107e1565b600090805190602001906123c8929190616e70565b50600460009054906101000a900473ffffffffffffffffffffffffffffffffffffffff1673ffffffffffffffffffffffffffffffffffffffff1663a4b1919d8c6040518263ffffffff1660e01b8152600401808273ffffffffffffffffffffffffffffffffffffffff1673ffffffffffffffffffffffffffffffffffffffff16815260200191505060206040518083038186803b15801561246857600080fd5b505afa15801561247c573d6000803e3d6000fd5b505050506040513d602081101561249257600080fd5b810190808051906020019092919050505097506000881461267b5761258660008054600181600116156101000203166002900480601f0160208091040260200160405190810160405280929190818152602001828054600181600116156101000203166002900480156125465780601f1061251b57610100808354040283529160200191612546565b820191906000526020600020905b81548152906001019060200180831161252957829003601f168201915b50505050506040518060400160405280601981526020017f2ce694bbe6938ae980b2e68891e696b9e7a59ee6a78de6898b000000000000008152506107e1565b6000908051906020019061259b929190616e70565b506125ad8a8c600060018d8d8d615dd1565b809950819a50829b50505050600460009054906101000a900473ffffffffffffffffffffffffffffffffffffffff1673ffffffffffffffffffffffffffffffffffffffff16633dabc4df8c8a6040518363ffffffff1660e01b8152600401808373ffffffffffffffffffffffffffffffffffffffff1673ffffffffffffffffffffffffffffffffffffffff16815260200182815260200192505050600060405180830381600087803b15801561266257600080fd5b505af1158015612676573d6000803e3d6000fd5b505050505b600560009054906101000a900473ffffffffffffffffffffffffffffffffffffffff1673ffffffffffffffffffffffffffffffffffffffff1663718963788c6040518263ffffffff1660e01b8152600401808273ffffffffffffffffffffffffffffffffffffffff1673ffffffffffffffffffffffffffffffffffffffff16815260200191505060206040518083038186803b15801561271a57600080fd5b505afa15801561272e573d6000803e3d6000fd5b505050506040513d602081101561274457600080fd5b8101908080519060200190929190505050975060008914158015612769575060008814155b1561291e5761282a60008054600181600116156101000203166002900480601f0160208091040260200160405190810160405280929190818152602001828054600181600116156101000203166002900480156128075780601f106127dc57610100808354040283529160200191612807565b820191906000526020600020905b8154815290600101906020018083116127ea57829003601f168201915b5050505050604051806060016040528060318152602001617189603191396107e1565b6000908051906020019061283f929190616e70565b506128508a8c6000808d8d8c615dd1565b809850819a50829b50505050600560009054906101000a900473ffffffffffffffffffffffffffffffffffffffff1673ffffffffffffffffffffffffffffffffffffffff1663dda0a3bf8c8a6040518363ffffffff1660e01b8152600401808373ffffffffffffffffffffffffffffffffffffffff1673ffffffffffffffffffffffffffffffffffffffff16815260200182815260200192505050600060405180830381600087803b15801561290557600080fd5b505af1158015612919573d6000803e3d6000fd5b505050505b600660009054906101000a900473ffffffffffffffffffffffffffffffffffffffff1673ffffffffffffffffffffffffffffffffffffffff1663fad28ce48c6040518263ffffffff1660e01b8152600401808273ffffffffffffffffffffffffffffffffffffffff1673ffffffffffffffffffffffffffffffffffffffff16815260200191505060206040518083038186803b1580156129bd57600080fd5b505afa1580156129d1573d6000803e3d6000fd5b505050506040513d60208110156129e757600080fd5b8101908080519060200190929190505050975060008914158015612a0c575060008814155b15612bc257612acd60008054600181600116156101000203166002900480601f016020809104026020016040519081016040528092919081815260200182805460018160011615610100020316600290048015612aaa5780601f10612a7f57610100808354040283529160200191612aaa565b820191906000526020600020905b815481529060010190602001808311612a8d57829003601f168201915b50505050506040518060600160405280602e8152602001616ffa602e91396107e1565b60009080519060200190612ae2929190616e70565b50612af48a8c600060028d8d8b615dd1565b809750819a50829b50505050600660009054906101000a900473ffffffffffffffffffffffffffffffffffffffff1673ffffffffffffffffffffffffffffffffffffffff16632b16a5648c8a6040518363ffffffff1660e01b8152600401808373ffffffffffffffffffffffffffffffffffffffff1673ffffffffffffffffffffffffffffffffffffffff16815260200182815260200192505050600060405180830381600087803b158015612ba957600080fd5b505af1158015612bbd573d6000803e3d6000fd5b505050505b5b600460009054906101000a900473ffffffffffffffffffffffffffffffffffffffff1673ffffffffffffffffffffffffffffffffffffffff1663a4b1919d8c6040518263ffffffff1660e01b8152600401808273ffffffffffffffffffffffffffffffffffffffff1673ffffffffffffffffffffffffffffffffffffffff16815260200191505060206040518083038186803b158015612c6257600080fd5b505afa158015612c76573d6000803e3d6000fd5b505050506040513d6020811015612c8c57600080fd5b810190808051906020019092919050505098506000891461359057612d8060008054600181600116156101000203166002900480601f016020809104026020016040519081016040528092919081815260200182805460018160011615610100020316600290048015612d405780601f10612d1557610100808354040283529160200191612d40565b820191906000526020600020905b815481529060010190602001808311612d2357829003601f168201915b50505050506040518060400160405280601681526020017f0ae68891e696b9e7a59ee6a78de6898be694bbe6938a000000000000000000008152506107e1565b60009080519060200190612d95929190616e70565b50600460009054906101000a900473ffffffffffffffffffffffffffffffffffffffff1673ffffffffffffffffffffffffffffffffffffffff1663a4b1919d8b6040518263ffffffff1660e01b8152600401808273ffffffffffffffffffffffffffffffffffffffff1673ffffffffffffffffffffffffffffffffffffffff16815260200191505060206040518083038186803b158015612e3557600080fd5b505afa158015612e49573d6000803e3d6000fd5b505050506040513d6020811015612e5f57600080fd5b810190808051906020019092919050505097506000881461304757612f5360008054600181600116156101000203166002900480601f016020809104026020016040519081016040528092919081815260200182805460018160011615610100020316600290048015612f135780601f10612ee857610100808354040283529160200191612f13565b820191906000526020600020905b815481529060010190602001808311612ef657829003601f168201915b50505050506040518060400160405280601681526020017f2ce694bbe6938ae695b5e696b9e7a59ee6a78de6898b000000000000000000008152506107e1565b60009080519060200190612f68929190616e70565b50612f798b8b6001808d8d8a615dd1565b809650819a50829b50505050600460009054906101000a900473ffffffffffffffffffffffffffffffffffffffff1673ffffffffffffffffffffffffffffffffffffffff16633dabc4df8b8a6040518363ffffffff1660e01b8152600401808373ffffffffffffffffffffffffffffffffffffffff1673ffffffffffffffffffffffffffffffffffffffff16815260200182815260200192505050600060405180830381600087803b15801561302e57600080fd5b505af1158015613042573d6000803e3d6000fd5b505050505b600560009054906101000a900473ffffffffffffffffffffffffffffffffffffffff1673ffffffffffffffffffffffffffffffffffffffff1663718963788b6040518263ffffffff1660e01b8152600401808273ffffffffffffffffffffffffffffffffffffffff1673ffffffffffffffffffffffffffffffffffffffff16815260200191505060206040518083038186803b1580156130e657600080fd5b505afa1580156130fa573d6000803e3d6000fd5b505050506040513d602081101561311057600080fd5b8101908080519060200190929190505050975060008914158015613135575060008814155b156132eb576131f660008054600181600116156101000203166002900480601f0160208091040260200160405190810160405280929190818152602001828054600181600116156101000203166002900480156131d35780601f106131a8576101008083540402835291602001916131d3565b820191906000526020600020905b8154815290600101906020018083116131b657829003601f168201915b5050505050604051806060016040528060318152602001617028603191396107e1565b6000908051906020019061320b929190616e70565b5061321d8b8b600160008d8d89615dd1565b809550819a50829b50505050600560009054906101000a900473ffffffffffffffffffffffffffffffffffffffff1673ffffffffffffffffffffffffffffffffffffffff1663dda0a3bf8b8a6040518363ffffffff1660e01b8152600401808373ffffffffffffffffffffffffffffffffffffffff1673ffffffffffffffffffffffffffffffffffffffff16815260200182815260200192505050600060405180830381600087803b1580156132d257600080fd5b505af11580156132e6573d6000803e3d6000fd5b505050505b600660009054906101000a900473ffffffffffffffffffffffffffffffffffffffff1673ffffffffffffffffffffffffffffffffffffffff1663fad28ce48b6040518263ffffffff1660e01b8152600401808273ffffffffffffffffffffffffffffffffffffffff1673ffffffffffffffffffffffffffffffffffffffff16815260200191505060206040518083038186803b15801561338a57600080fd5b505afa15801561339e573d6000803e3d6000fd5b505050506040513d60208110156133b457600080fd5b81019080805190602001909291905050509750600089141580156133d9575060008814155b1561358f5761349a60008054600181600116156101000203166002900480601f0160208091040260200160405190810160405280929190818152602001828054600181600116156101000203166002900480156134775780601f1061344c57610100808354040283529160200191613477565b820191906000526020600020905b81548152906001019060200180831161345a57829003601f168201915b50505050506040518060600160405280602e815260200161708c602e91396107e1565b600090805190602001906134af929190616e70565b506134c18b8b600160028d8d88615dd1565b809450819a50829b50505050600660009054906101000a900473ffffffffffffffffffffffffffffffffffffffff1673ffffffffffffffffffffffffffffffffffffffff16632b16a5648b8a6040518363ffffffff1660e01b8152600401808373ffffffffffffffffffffffffffffffffffffffff1673ffffffffffffffffffffffffffffffffffffffff16815260200182815260200192505050600060405180830381600087803b15801561357657600080fd5b505af115801561358a573d6000803e3d6000fd5b505050505b5b600460009054906101000a900473ffffffffffffffffffffffffffffffffffffffff1673ffffffffffffffffffffffffffffffffffffffff1663a4b1919d8b6040518263ffffffff1660e01b8152600401808273ffffffffffffffffffffffffffffffffffffffff1673ffffffffffffffffffffffffffffffffffffffff16815260200191505060206040518083038186803b15801561362f57600080fd5b505afa158015613643573d6000803e3d6000fd5b505050506040513d602081101561365957600080fd5b8101908080519060200190929190505050985060008914613f5d5761374d60008054600181600116156101000203166002900480601f01602080910402602001604051908101604052809291908181526020018280546001816001161561010002031660029004801561370d5780601f106136e25761010080835404028352916020019161370d565b820191906000526020600020905b8154815290600101906020018083116136f057829003601f168201915b50505050506040518060400160405280601681526020017f0ae695b5e696b9e7a59ee6a78de6898be694bbe6938a000000000000000000008152506107e1565b60009080519060200190613762929190616e70565b50600460009054906101000a900473ffffffffffffffffffffffffffffffffffffffff1673ffffffffffffffffffffffffffffffffffffffff1663a4b1919d8c6040518263ffffffff1660e01b8152600401808273ffffffffffffffffffffffffffffffffffffffff1673ffffffffffffffffffffffffffffffffffffffff16815260200191505060206040518083038186803b15801561380257600080fd5b505afa158015613816573d6000803e3d6000fd5b505050506040513d602081101561382c57600080fd5b8101908080519060200190929190505050975060008814613a145761392060008054600181600116156101000203166002900480601f0160208091040260200160405190810160405280929190818152602001828054600181600116156101000203166002900480156138e05780601f106138b5576101008083540402835291602001916138e0565b820191906000526020600020905b8154815290600101906020018083116138c357829003601f168201915b50505050506040518060400160405280601681526020017f2ce694bbe6938ae68891e696b9e7a59ee6a78de6898b000000000000000000008152506107e1565b60009080519060200190613935929190616e70565b506139468a8c6001808d8d8d615dd1565b809950819a50829b50505050600460009054906101000a900473ffffffffffffffffffffffffffffffffffffffff1673ffffffffffffffffffffffffffffffffffffffff16633dabc4df8c8a6040518363ffffffff1660e01b8152600401808373ffffffffffffffffffffffffffffffffffffffff1673ffffffffffffffffffffffffffffffffffffffff16815260200182815260200192505050600060405180830381600087803b1580156139fb57600080fd5b505af1158015613a0f573d6000803e3d6000fd5b505050505b600560009054906101000a900473ffffffffffffffffffffffffffffffffffffffff1673ffffffffffffffffffffffffffffffffffffffff1663718963788c6040518263ffffffff1660e01b8152600401808273ffffffffffffffffffffffffffffffffffffffff1673ffffffffffffffffffffffffffffffffffffffff16815260200191505060206040518083038186803b158015613ab357600080fd5b505afa158015613ac7573d6000803e3d6000fd5b505050506040513d6020811015613add57600080fd5b8101908080519060200190929190505050975060008914158015613b02575060008814155b15613cb857613bc360008054600181600116156101000203166002900480601f016020809104026020016040519081016040528092919081815260200182805460018160011615610100020316600290048015613ba05780601f10613b7557610100808354040283529160200191613ba0565b820191906000526020600020905b815481529060010190602001808311613b8357829003601f168201915b5050505050604051806060016040528060318152602001617189603191396107e1565b60009080519060200190613bd8929190616e70565b50613bea8b8b600160008d8d8c615dd1565b809850819a50829b50505050600560009054906101000a900473ffffffffffffffffffffffffffffffffffffffff1673ffffffffffffffffffffffffffffffffffffffff1663dda0a3bf8c8a6040518363ffffffff1660e01b8152600401808373ffffffffffffffffffffffffffffffffffffffff1673ffffffffffffffffffffffffffffffffffffffff16815260200182815260200192505050600060405180830381600087803b158015613c9f57600080fd5b505af1158015613cb3573d6000803e3d6000fd5b505050505b600660009054906101000a900473ffffffffffffffffffffffffffffffffffffffff1673ffffffffffffffffffffffffffffffffffffffff1663fad28ce48c6040518263ffffffff1660e01b8152600401808273ffffffffffffffffffffffffffffffffffffffff1673ffffffffffffffffffffffffffffffffffffffff16815260200191505060206040518083038186803b158015613d5757600080fd5b505afa158015613d6b573d6000803e3d6000fd5b505050506040513d6020811015613d8157600080fd5b8101908080519060200190929190505050975060008914158015613da6575060008814155b15613f5c57613e6760008054600181600116156101000203166002900480601f016020809104026020016040519081016040528092919081815260200182805460018160011615610100020316600290048015613e445780601f10613e1957610100808354040283529160200191613e44565b820191906000526020600020905b815481529060010190602001808311613e2757829003601f168201915b50505050506040518060600160405280602e8152602001616ffa602e91396107e1565b60009080519060200190613e7c929190616e70565b50613e8e8b8b600160028d8d8b615dd1565b809750819a50829b50505050600660009054906101000a900473ffffffffffffffffffffffffffffffffffffffff1673ffffffffffffffffffffffffffffffffffffffff16632b16a5648c8a6040518363ffffffff1660e01b8152600401808373ffffffffffffffffffffffffffffffffffffffff1673ffffffffffffffffffffffffffffffffffffffff16815260200182815260200192505050600060405180830381600087803b158015613f4357600080fd5b505af1158015613f57573d6000803e3d6000fd5b505050505b5b600560009054906101000a900473ffffffffffffffffffffffffffffffffffffffff1673ffffffffffffffffffffffffffffffffffffffff1663718963788c6040518263ffffffff1660e01b8152600401808273ffffffffffffffffffffffffffffffffffffffff1673ffffffffffffffffffffffffffffffffffffffff16815260200191505060206040518083038186803b158015613ffc57600080fd5b505afa158015614010573d6000803e3d6000fd5b505050506040513d602081101561402657600080fd5b810190808051906020019092919050505098506000891461492a5761411a60008054600181600116156101000203166002900480601f0160208091040260200160405190810160405280929190818152602001828054600181600116156101000203166002900480156140da5780601f106140af576101008083540402835291602001916140da565b820191906000526020600020905b8154815290600101906020018083116140bd57829003601f168201915b50505050506040518060400160405280601681526020017f0ae68891e696b9e5ae88e8a19be88085e694bbe6938a000000000000000000008152506107e1565b6000908051906020019061412f929190616e70565b50600460009054906101000a900473ffffffffffffffffffffffffffffffffffffffff1673ffffffffffffffffffffffffffffffffffffffff1663a4b1919d8b6040518263ffffffff1660e01b8152600401808273ffffffffffffffffffffffffffffffffffffffff1673ffffffffffffffffffffffffffffffffffffffff16815260200191505060206040518083038186803b1580156141cf57600080fd5b505afa1580156141e3573d6000803e3d6000fd5b505050506040513d60208110156141f957600080fd5b81019080805190602001909291905050509750600088146143e2576142ed60008054600181600116156101000203166002900480601f0160208091040260200160405190810160405280929190818152602001828054600181600116156101000203166002900480156142ad5780601f10614282576101008083540402835291602001916142ad565b820191906000526020600020905b81548152906001019060200180831161429057829003601f168201915b50505050506040518060400160405280601681526020017f2ce694bbe6938ae695b5e696b9e7a59ee6a78de6898b000000000000000000008152506107e1565b60009080519060200190614302929190616e70565b506143148b8b600060018d8d8a615dd1565b809650819a50829b50505050600460009054906101000a900473ffffffffffffffffffffffffffffffffffffffff1673ffffffffffffffffffffffffffffffffffffffff16633dabc4df8b8a6040518363ffffffff1660e01b8152600401808373ffffffffffffffffffffffffffffffffffffffff1673ffffffffffffffffffffffffffffffffffffffff16815260200182815260200192505050600060405180830381600087803b1580156143c957600080fd5b505af11580156143dd573d6000803e3d6000fd5b505050505b600560009054906101000a900473ffffffffffffffffffffffffffffffffffffffff1673ffffffffffffffffffffffffffffffffffffffff1663718963788b6040518263ffffffff1660e01b8152600401808273ffffffffffffffffffffffffffffffffffffffff1673ffffffffffffffffffffffffffffffffffffffff16815260200191505060206040518083038186803b15801561448157600080fd5b505afa158015614495573d6000803e3d6000fd5b505050506040513d60208110156144ab57600080fd5b81019080805190602001909291905050509750600089141580156144d0575060008814155b156146855761459160008054600181600116156101000203166002900480601f01602080910402602001604051908101604052809291908181526020018280546001816001161561010002031660029004801561456e5780601f106145435761010080835404028352916020019161456e565b820191906000526020600020905b81548152906001019060200180831161455157829003601f168201915b5050505050604051806060016040528060318152602001617028603191396107e1565b600090805190602001906145a6929190616e70565b506145b78b8b6000808d8d89615dd1565b809550819a50829b50505050600560009054906101000a900473ffffffffffffffffffffffffffffffffffffffff1673ffffffffffffffffffffffffffffffffffffffff1663dda0a3bf8b8a6040518363ffffffff1660e01b8152600401808373ffffffffffffffffffffffffffffffffffffffff1673ffffffffffffffffffffffffffffffffffffffff16815260200182815260200192505050600060405180830381600087803b15801561466c57600080fd5b505af1158015614680573d6000803e3d6000fd5b505050505b600660009054906101000a900473ffffffffffffffffffffffffffffffffffffffff1673ffffffffffffffffffffffffffffffffffffffff1663fad28ce48b6040518263ffffffff1660e01b8152600401808273ffffffffffffffffffffffffffffffffffffffff1673ffffffffffffffffffffffffffffffffffffffff16815260200191505060206040518083038186803b15801561472457600080fd5b505afa158015614738573d6000803e3d6000fd5b505050506040513d602081101561474e57600080fd5b8101908080519060200190929190505050975060008914158015614773575060008814155b156149295761483460008054600181600116156101000203166002900480601f0160208091040260200160405190810160405280929190818152602001828054600181600116156101000203166002900480156148115780601f106147e657610100808354040283529160200191614811565b820191906000526020600020905b8154815290600101906020018083116147f457829003601f168201915b50505050506040518060600160405280602e815260200161708c602e91396107e1565b60009080519060200190614849929190616e70565b5061485b8b8b600060028d8d88615dd1565b809450819a50829b50505050600660009054906101000a900473ffffffffffffffffffffffffffffffffffffffff1673ffffffffffffffffffffffffffffffffffffffff16632b16a5648b8a6040518363ffffffff1660e01b8152600401808373ffffffffffffffffffffffffffffffffffffffff1673ffffffffffffffffffffffffffffffffffffffff16815260200182815260200192505050600060405180830381600087803b15801561491057600080fd5b505af1158015614924573d6000803e3d6000fd5b505050505b5b600660009054906101000a900473ffffffffffffffffffffffffffffffffffffffff1673ffffffffffffffffffffffffffffffffffffffff1663fad28ce48b6040518263ffffffff1660e01b8152600401808273ffffffffffffffffffffffffffffffffffffffff1673ffffffffffffffffffffffffffffffffffffffff16815260200191505060206040518083038186803b1580156149c957600080fd5b505afa1580156149dd573d6000803e3d6000fd5b505050506040513d60208110156149f357600080fd5b81019080805190602001909291905050509850600089146152f757614ae760008054600181600116156101000203166002900480601f016020809104026020016040519081016040528092919081815260200182805460018160011615610100020316600290048015614aa75780601f10614a7c57610100808354040283529160200191614aa7565b820191906000526020600020905b815481529060010190602001808311614a8a57829003601f168201915b50505050506040518060400160405280601381526020017f0ae695b5e696b9e781abe7a0b2e694bbe6938a000000000000000000000000008152506107e1565b60009080519060200190614afc929190616e70565b50600460009054906101000a900473ffffffffffffffffffffffffffffffffffffffff1673ffffffffffffffffffffffffffffffffffffffff1663a4b1919d8c6040518263ffffffff1660e01b8152600401808273ffffffffffffffffffffffffffffffffffffffff1673ffffffffffffffffffffffffffffffffffffffff16815260200191505060206040518083038186803b158015614b9c57600080fd5b505afa158015614bb0573d6000803e3d6000fd5b505050506040513d6020811015614bc657600080fd5b8101908080519060200190929190505050975060008814614daf57614cba60008054600181600116156101000203166002900480601f016020809104026020016040519081016040528092919081815260200182805460018160011615610100020316600290048015614c7a5780601f10614c4f57610100808354040283529160200191614c7a565b820191906000526020600020905b815481529060010190602001808311614c5d57829003601f168201915b50505050506040518060400160405280601681526020017f2ce694bbe6938ae68891e696b9e7a59ee6a78de6898b000000000000000000008152506107e1565b60009080519060200190614ccf929190616e70565b50614ce18a8c600260018d8d8d615dd1565b809950819a50829b50505050600460009054906101000a900473ffffffffffffffffffffffffffffffffffffffff1673ffffffffffffffffffffffffffffffffffffffff16633dabc4df8c8a6040518363ffffffff1660e01b8152600401808373ffffffffffffffffffffffffffffffffffffffff1673ffffffffffffffffffffffffffffffffffffffff16815260200182815260200192505050600060405180830381600087803b158015614d9657600080fd5b505af1158015614daa573d6000803e3d6000fd5b505050505b600560009054906101000a900473ffffffffffffffffffffffffffffffffffffffff1673ffffffffffffffffffffffffffffffffffffffff1663718963788c6040518263ffffffff1660e01b8152600401808273ffffffffffffffffffffffffffffffffffffffff1673ffffffffffffffffffffffffffffffffffffffff16815260200191505060206040518083038186803b158015614e4e57600080fd5b505afa158015614e62573d6000803e3d6000fd5b505050506040513d6020811015614e7857600080fd5b8101908080519060200190929190505050975060008914158015614e9d575060008814155b1561505357614f5e60008054600181600116156101000203166002900480601f016020809104026020016040519081016040528092919081815260200182805460018160011615610100020316600290048015614f3b5780601f10614f1057610100808354040283529160200191614f3b565b820191906000526020600020905b815481529060010190602001808311614f1e57829003601f168201915b5050505050604051806060016040528060318152602001617189603191396107e1565b60009080519060200190614f73929190616e70565b50614f858b8b600260008d8d8c615dd1565b809850819a50829b50505050600560009054906101000a900473ffffffffffffffffffffffffffffffffffffffff1673ffffffffffffffffffffffffffffffffffffffff1663dda0a3bf8c8a6040518363ffffffff1660e01b8152600401808373ffffffffffffffffffffffffffffffffffffffff1673ffffffffffffffffffffffffffffffffffffffff16815260200182815260200192505050600060405180830381600087803b15801561503a57600080fd5b505af115801561504e573d6000803e3d6000fd5b505050505b600660009054906101000a900473ffffffffffffffffffffffffffffffffffffffff1673ffffffffffffffffffffffffffffffffffffffff1663fad28ce48c6040518263ffffffff1660e01b8152600401808273ffffffffffffffffffffffffffffffffffffffff1673ffffffffffffffffffffffffffffffffffffffff16815260200191505060206040518083038186803b1580156150f257600080fd5b505afa158015615106573d6000803e3d6000fd5b505050506040513d602081101561511c57600080fd5b8101908080519060200190929190505050975060008914158015615141575060008814155b156152f65761520260008054600181600116156101000203166002900480601f0160208091040260200160405190810160405280929190818152602001828054600181600116156101000203166002900480156151df5780601f106151b4576101008083540402835291602001916151df565b820191906000526020600020905b8154815290600101906020018083116151c257829003601f168201915b50505050506040518060600160405280602e8152602001616ffa602e91396107e1565b60009080519060200190615217929190616e70565b506152288b8b6002808d8d8b615dd1565b809750819a50829b50505050600660009054906101000a900473ffffffffffffffffffffffffffffffffffffffff1673ffffffffffffffffffffffffffffffffffffffff16632b16a5648c8a6040518363ffffffff1660e01b8152600401808373ffffffffffffffffffffffffffffffffffffffff1673ffffffffffffffffffffffffffffffffffffffff16815260200182815260200192505050600060405180830381600087803b1580156152dd57600080fd5b505af11580156152f1573d6000803e3d6000fd5b505050505b5b600660009054906101000a900473ffffffffffffffffffffffffffffffffffffffff1673ffffffffffffffffffffffffffffffffffffffff1663fad28ce48c6040518263ffffffff1660e01b8152600401808273ffffffffffffffffffffffffffffffffffffffff1673ffffffffffffffffffffffffffffffffffffffff16815260200191505060206040518083038186803b15801561539657600080fd5b505afa1580156153aa573d6000803e3d6000fd5b505050506040513d60208110156153c057600080fd5b8101908080519060200190929190505050985060008914615cc4576154b460008054600181600116156101000203166002900480601f0160208091040260200160405190810160405280929190818152602001828054600181600116156101000203166002900480156154745780601f1061544957610100808354040283529160200191615474565b820191906000526020600020905b81548152906001019060200180831161545757829003601f168201915b50505050506040518060400160405280601381526020017f0ae68891e696b9e781abe7a0b2e694bbe6938a000000000000000000000000008152506107e1565b600090805190602001906154c9929190616e70565b50600460009054906101000a900473ffffffffffffffffffffffffffffffffffffffff1673ffffffffffffffffffffffffffffffffffffffff1663a4b1919d8b6040518263ffffffff1660e01b8152600401808273ffffffffffffffffffffffffffffffffffffffff1673ffffffffffffffffffffffffffffffffffffffff16815260200191505060206040518083038186803b15801561556957600080fd5b505afa15801561557d573d6000803e3d6000fd5b505050506040513d602081101561559357600080fd5b810190808051906020019092919050505097506000881461577c5761568760008054600181600116156101000203166002900480601f0160208091040260200160405190810160405280929190818152602001828054600181600116156101000203166002900480156156475780601f1061561c57610100808354040283529160200191615647565b820191906000526020600020905b81548152906001019060200180831161562a57829003601f168201915b50505050506040518060400160405280601681526020017f2ce694bbe6938ae695b5e696b9e7a59ee6a78de6898b000000000000000000008152506107e1565b6000908051906020019061569c929190616e70565b506156ae8b8b600260018d8d8a615dd1565b809650819a50829b50505050600460009054906101000a900473ffffffffffffffffffffffffffffffffffffffff1673ffffffffffffffffffffffffffffffffffffffff16633dabc4df8b8a6040518363ffffffff1660e01b8152600401808373ffffffffffffffffffffffffffffffffffffffff1673ffffffffffffffffffffffffffffffffffffffff16815260200182815260200192505050600060405180830381600087803b15801561576357600080fd5b505af1158015615777573d6000803e3d6000fd5b505050505b600560009054906101000a900473ffffffffffffffffffffffffffffffffffffffff1673ffffffffffffffffffffffffffffffffffffffff1663718963788b6040518263ffffffff1660e01b8152600401808273ffffffffffffffffffffffffffffffffffffffff1673ffffffffffffffffffffffffffffffffffffffff16815260200191505060206040518083038186803b15801561581b57600080fd5b505afa15801561582f573d6000803e3d6000fd5b505050506040513d602081101561584557600080fd5b810190808051906020019092919050505097506000891415801561586a575060008814155b15615a205761592b60008054600181600116156101000203166002900480601f0160208091040260200160405190810160405280929190818152602001828054600181600116156101000203166002900480156159085780601f106158dd57610100808354040283529160200191615908565b820191906000526020600020905b8154815290600101906020018083116158eb57829003601f168201915b5050505050604051806060016040528060318152602001617028603191396107e1565b60009080519060200190615940929190616e70565b506159528b8b600260008d8d89615dd1565b809550819a50829b50505050600560009054906101000a900473ffffffffffffffffffffffffffffffffffffffff1673ffffffffffffffffffffffffffffffffffffffff1663dda0a3bf8b8a6040518363ffffffff1660e01b8152600401808373ffffffffffffffffffffffffffffffffffffffff1673ffffffffffffffffffffffffffffffffffffffff16815260200182815260200192505050600060405180830381600087803b158015615a0757600080fd5b505af1158015615a1b573d6000803e3d6000fd5b505050505b600660009054906101000a900473ffffffffffffffffffffffffffffffffffffffff1673ffffffffffffffffffffffffffffffffffffffff1663fad28ce48b6040518263ffffffff1660e01b8152600401808273ffffffffffffffffffffffffffffffffffffffff1673ffffffffffffffffffffffffffffffffffffffff16815260200191505060206040518083038186803b158015615abf57600080fd5b505afa158015615ad3573d6000803e3d6000fd5b505050506040513d6020811015615ae957600080fd5b8101908080519060200190929190505050975060008914158015615b0e575060008814155b15615cc357615bcf60008054600181600116156101000203166002900480601f016020809104026020016040519081016040528092919081815260200182805460018160011615610100020316600290048015615bac5780601f10615b8157610100808354040283529160200191615bac565b820191906000526020600020905b815481529060010190602001808311615b8f57829003601f168201915b50505050506040518060600160405280602e815260200161708c602e91396107e1565b60009080519060200190615be4929190616e70565b50615bf58b8b6002808d8d88615dd1565b809450819a50829b50505050600660009054906101000a900473ffffffffffffffffffffffffffffffffffffffff1673ffffffffffffffffffffffffffffffffffffffff16632b16a5648b8a6040518363ffffffff1660e01b8152600401808373ffffffffffffffffffffffffffffffffffffffff1673ffffffffffffffffffffffffffffffffffffffff16815260200182815260200192505050600060405180830381600087803b158015615caa57600080fd5b505af1158015615cbe573d6000803e3d6000fd5b505050505b5b611fff565b5b50505050505050505050505b92915050565b60008082848601011415615cf35760019050615cf8565b600090505b9392505050565b6000806000600160003373ffffffffffffffffffffffffffffffffffffffff1673ffffffffffffffffffffffffffffffffffffffff16815260200190815260200160002054600160003373ffffffffffffffffffffffffffffffffffffffff1673ffffffffffffffffffffffffffffffffffffffff168152602001908152602001600020544203600260003373ffffffffffffffffffffffffffffffffffffffff1673ffffffffffffffffffffffffffffffffffffffff16815260200190815260200160002054925092509250909192565b6000806000615dde616ef0565b600081600001818152505060008160600181815250506000891415615f0457600560009054906101000a900473ffffffffffffffffffffffffffffffffffffffff1673ffffffffffffffffffffffffffffffffffffffff1663b47711fa8c6040518263ffffffff1660e01b8152600401808273ffffffffffffffffffffffffffffffffffffffff1673ffffffffffffffffffffffffffffffffffffffff16815260200191505060206040518083038186803b158015615e9c57600080fd5b505afa158015615eb0573d6000803e3d6000fd5b505050506040513d6020811015615ec657600080fd5b810190808051906020019092919050505081600001818152505080600001516004026028018160200181815250506001816040018181525050616122565b600189141561601457600460009054906101000a900473ffffffffffffffffffffffffffffffffffffffff1673ffffffffffffffffffffffffffffffffffffffff1663290585368c6040518263ffffffff1660e01b8152600401808273ffffffffffffffffffffffffffffffffffffffff1673ffffffffffffffffffffffffffffffffffffffff16815260200191505060206040518083038186803b158015615fac57600080fd5b505afa158015615fc0573d6000803e3d6000fd5b505050506040513d6020811015615fd657600080fd5b81019080805190602001909291905050508160000181815250508060000151600302601e018160200181815250506002816040018181525050616121565b600289141561612057600660009054906101000a900473ffffffffffffffffffffffffffffffffffffffff1673ffffffffffffffffffffffffffffffffffffffff1663d0bb9e908c6040518263ffffffff1660e01b8152600401808273ffffffffffffffffffffffffffffffffffffffff1673ffffffffffffffffffffffffffffffffffffffff16815260200191505060206040518083038186803b1580156160bc57600080fd5b505afa1580156160d0573d6000803e3d6000fd5b505050506040513d60208110156160e657600080fd5b81019080805190602001909291905050508160000181815250508060000151600a0260640181602001818152505060018160400181815250505b5b5b600088141561623b57600560009054906101000a900473ffffffffffffffffffffffffffffffffffffffff1673ffffffffffffffffffffffffffffffffffffffff1663b47711fa8b6040518263ffffffff1660e01b8152600401808273ffffffffffffffffffffffffffffffffffffffff1673ffffffffffffffffffffffffffffffffffffffff16815260200191505060206040518083038186803b1580156161ca57600080fd5b505afa1580156161de573d6000803e3d6000fd5b505050506040513d60208110156161f457600080fd5b8101908080519060200190929190505050816060018181525050806060015160080260500181608001818152505080606001516002026014018160a001818152505061646b565b600188141561635457600460009054906101000a900473ffffffffffffffffffffffffffffffffffffffff1673ffffffffffffffffffffffffffffffffffffffff1663290585368b6040518263ffffffff1660e01b8152600401808273ffffffffffffffffffffffffffffffffffffffff1673ffffffffffffffffffffffffffffffffffffffff16815260200191505060206040518083038186803b1580156162e357600080fd5b505afa1580156162f7573d6000803e3d6000fd5b505050506040513d602081101561630d57600080fd5b810190808051906020019092919050505081606001818152505080606001516005026032018160800181815250508060600151600102600a018160a001818152505061646a565b600288141561646957600660009054906101000a900473ffffffffffffffffffffffffffffffffffffffff1673ffffffffffffffffffffffffffffffffffffffff1663d0bb9e908b6040518263ffffffff1660e01b8152600401808273ffffffffffffffffffffffffffffffffffffffff1673ffffffffffffffffffffffffffffffffffffffff16815260200191505060206040518083038186803b1580156163fc57600080fd5b505afa158015616410573d6000803e3d6000fd5b505050506040513d602081101561642657600080fd5b81019080805190602001909291905050508160600181815250508060600151600a0260640181608001818152505080606001516003026000018160a00181815250505b5b5b80602001518160a001511061655f5761653660008054600181600116156101000203166002900480601f0160208091040260200160405190810160405280929190818152602001828054600181600116156101000203166002900480156165135780601f106164e857610100808354040283529160200191616513565b820191906000526020600020905b8154815290600101906020018083116164f657829003601f168201915b50505050506040518060600160405280603d81526020016170ba603d91396107e1565b6000908051906020019061654b929190616e70565b506000868682925093509350935050616e63565b80604001518160a00151826020015103028160c0018181525050806080015185146167db5760008160c00151868161659357fe5b0614156165b6578060c0015185816165a757fe5b048160e00181815250506165d1565b60018160c0015186816165c557fe5b04018160e00181815250505b8060e0015187106166e6576166b560008054600181600116156101000203166002900480601f0160208091040260200160405190810160405280929190818152602001828054600181600116156101000203166002900480156166755780601f1061664a57610100808354040283529160200191616675565b820191906000526020600020905b81548152906001019060200180831161665857829003601f168201915b50505050506040518060400160405280601981526020017f0ae58f97e582b7e596aee4bd8de58f97e588b0e6938ae6aeba000000000000008152506107e1565b600090805190602001906166ca929190616e70565b508060e0015187039650806080015194506001860395506167da565b8060c001518702850394506167ad60008054600181600116156101000203166002900480601f01602080910402602001604051908101604052809291908181526020018280546001816001161561010002031660029004801561678a5780601f1061675f5761010080835404028352916020019161678a565b820191906000526020600020905b81548152906001019060200180831161676d57829003601f168201915b50505050506040518060a00160405280606581526020016170f7606591396107e1565b600090805190602001906167c2929190616e70565b50600096506000868682925093509350935050616e63565b5b60008714156168e6576168bd60008054600181600116156101000203166002900480601f01602080910402602001604051908101604052809291908181526020018280546001816001161561010002031660029004801561687d5780601f106168525761010080835404028352916020019161687d565b820191906000526020600020905b81548152906001019060200180831161686057829003601f168201915b50505050506040518060400160405280600d81526020017f0ae980b2e694bbe7b590e69d9f000000000000000000000000000000000000008152506107e1565b600090805190602001906168d2929190616e70565b506000868682925093509350935050616e63565b60008160c001518260800151816168f957fe5b061415616921578060c0015181608001518161691157fe5b0481610100018181525050616941565b60018160c0015182608001518161693457fe5b0401816101000181815250505b6000816101000151888161695157fe5b0414616c885785816101000151888161696657fe5b0410616a8257616a4560008054600181600116156101000203166002900480601f016020809104026020016040519081016040528092919081815260200182805460018160011615610100020316600290048015616a055780601f106169da57610100808354040283529160200191616a05565b820191906000526020600020905b8154815290600101906020018083116169e857829003601f168201915b50505050506040518060400160405280601081526020017f0ae998b2e5ae88e696b9e585a8e6bb85000000000000000000000000000000008152506107e1565b60009080519060200190616a5a929190616e70565b5085816101000151028703965060009550866000826080015181915093509350935050616e63565b616b3e60008054600181600116156101000203166002900480601f016020809104026020016040519081016040528092919081815260200182805460018160011615610100020316600290048015616b1b5780601f10616af057610100808354040283529160200191616b1b565b820191906000526020600020905b815481529060010190602001808311616afe57829003601f168201915b5050505050604051806060016040528060318152602001616fc9603191396107e1565b60009080519060200190616b53929190616e70565b508061010001518781616b6257fe5b04860395508061010001518781616b7557fe5b0696506000871415616c8757616c5a60008054600181600116156101000203166002900480601f016020809104026020016040519081016040528092919081815260200182805460018160011615610100020316600290048015616c1a5780601f10616bef57610100808354040283529160200191616c1a565b820191906000526020600020905b815481529060010190602001808311616bfd57829003601f168201915b50505050506040518060400160405280600d81526020017f0ae980b2e694bbe7b590e69d9f000000000000000000000000000000000000008152506107e1565b60009080519060200190616c6f929190616e70565b50600086826080015182925093509350935050616e63565b5b8060c00151870285039450616d4f60008054600181600116156101000203166002900480601f016020809104026020016040519081016040528092919081815260200182805460018160011615610100020316600290048015616d2c5780601f10616d0157610100808354040283529160200191616d2c565b820191906000526020600020905b815481529060010190602001808311616d0f57829003601f168201915b50505050506040518060a0016040528060678152602001616f62606791396107e1565b60009080519060200190616d64929190616e70565b50616e3e60008054600181600116156101000203166002900480601f016020809104026020016040519081016040528092919081815260200182805460018160011615610100020316600290048015616dfe5780601f10616dd357610100808354040283529160200191616dfe565b820191906000526020600020905b815481529060010190602001808311616de157829003601f168201915b50505050506040518060400160405280600d81526020017f0ae980b2e694bbe7b590e69d9f000000000000000000000000000000000000008152506107e1565b60009080519060200190616e53929190616e70565b5060009650868686935093509350505b9750975097945050505050565b828054600181600116156101000203166002900490600052602060002090601f016020900481019282601f10616eb157805160ff1916838001178555616edf565b82800160010185558215616edf579182015b82811115616ede578251825591602001919060010190616ec3565b5b509050616eec9190616f3c565b5090565b6040518061012001604052806000815260200160008152602001600081526020016000815260200160008152602001600081526020016000815260200160008152602001600081525090565b616f5e91905b80821115616f5a576000816000905550600101616f42565b5090565b9056fe0ae980b2e694bbe696b9e589a9e9a498e5a3abe585b5e99b86e4b8ade781abe58a9be694bbe6938ae4b880e4bd8de998b2e5ae88e596aee4bd8defbc8ce4bdbfe585b6e58f97e588b0e582b7e5aeb3efbc8ce4bd86e784a1e6b395e980a0e68890e6938ae6aeba0ae6b688e6bb85e998b2e5ae88e696b9e695b8e5908de596aee4bd8defbc8ce5b09ae69c89e6ae98e5ad98e983a8e99a8a0ae5b09ae69c89e980b2e694bbe596aee4bd8defbc8ce7b9bce7ba8ce694bbe6938ae68891e696b9e781abe7a0b20ae5b09ae69c89e980b2e694bbe596aee4bd8defbc8ce7b9bce7ba8ce694bbe6938ae695b5e696b9e5ae88e8a19be88085e695b5e696b9e5ae88e8bb8de981ade588b0e585a8e695b8e6aeb2e6bb85efbc8ce68891e696b9e980b2e694bbe78db2e58b9d0ae5b09ae69c89e980b2e694bbe596aee4bd8defbc8ce7b9bce7ba8ce694bbe6938ae695b5e696b9e781abe7a0b20ae68c87e5ae9ae585b5e7a8aee8adb7e794b2e9818ee9ab98efbc8ce980b2e694bbe88085e784a1e6b395e980a0e68890e69c89e69588e582b7e5aeb30ae980b2e694bbe696b9e585a8e9ab94e980b2e8a18ce694bbe6938aefbc8ce58385e4bdbfe4b880e4bd8de596aee4bd8de58f97e588b0e582b7e5aeb3efbc8ce784a1e6b395e980a0e68890e69c89e69588e6938ae6aeba0ae980b2e694bbe7b590e69d9fe68891e696b9e981ade588b0e585a8e695b8e6aeb2e6bb85efbc8ce695b5e696b9e998b2e5ae88e68890e58a9f0ae5b09ae69c89e980b2e694bbe596aee4bd8defbc8ce7b9bce7ba8ce694bbe6938ae68891e696b9e5ae88e8a19be88085e998b2e5ae88e696b9e784a1e585b5e58a9befbc8ce980b2e694bbe696b9e78db2e58b9da265627a7a72315820b7a46d658b7663d560a0cd3373b33d58314e865cc8a74f15bfda3e04f38380a864736f6c63430005100032",
  "source": "pragma solidity >=0.4.21 <0.7.0;\n\nimport \"./SafeMath.sol\";\nimport \"./BuildingFactory.sol\";\nimport \"./Soldier.sol\";\nimport \"./Spy.sol\";\nimport \"./Cannon.sol\";\nimport \"./Protector.sol\";\nimport \"./Wall.sol\";\n\ncontract Barrack {\n\n    using SafeMath for uint;\n    string battleLog; \n\n    mapping (address => uint) public ownerStartMarchTime;\n    mapping (address => uint) public ownerTotalMarchTime;\n\n    BuildingFactory buildingInstance;\n    Soldier soldierInstance;\n    Protector ProtectorInstance;\n    Cannon CannonInstance;\n    Spy SpyInstance;\n    Account AccountInstance;\n    Wall WallInstance;\n    constructor(address _building_address, address _soldier_address, address _spy_instance, address _cannon_instance, address _protector_instance, address _wall_instance, address _account_instance) public {\n        buildingInstance = BuildingFactory(_building_address);\n        soldierInstance = Soldier(_soldier_address);\n        SpyInstance = Spy(_spy_instance);\n        ProtectorInstance = Protector(_protector_instance);\n        CannonInstance = Cannon(_cannon_instance);\n        AccountInstance = Account(_account_instance);\n        WallInstance = Wall(_wall_instance);\n    }\n\n    function createBarrack(uint _x, uint _y) public {\n        buildingInstance._createBuilding(msg.sender, \"Barrack\", _x, _y);\n        soldierInstance.setSoldierLevel(msg.sender, 1);\n        SpyInstance.setSpyLevel(msg.sender, 1);\n        ProtectorInstance.setProtectorLevel(msg.sender, 1);\n        CannonInstance.setCannonLevel(msg.sender, 1);\n        WallInstance.setWallLevel(msg.sender, 1);\n    }\n\n    function concatenate(string memory a, string memory b) public returns(string memory) {\n        return string(abi.encodePacked(a, b));\n    }\n\n    \n\n    // // return 0 if failed (maybe already creating or not enough resource) otherwise return createtime\n    // function startCreateSoldier(uint number) public returns(uint) {\n    //     address _owner = msg.sender;\n    //     if(soldierInstance.ownerStartCreateTime(_owner) != 0) return uint(0); // check if there is already creating soldiers\n    //     bool enoughResource;\n    //     uint lvOfSoldier;\n    //     enoughResource = soldierInstance._createSoldier(_owner, number);\n    //     lvOfSoldier =  soldierInstance.levelOfSoldier(_owner);\n    //     if(enoughResource == false) return uint(0);\n    //     soldierInstance.setStartCreateTime(_owner, uint(now));\n    //     soldierInstance.setCreateSoldierTime(_owner, soldierInstance.createSoldierTime() * lvOfSoldier * number);\n    //     return soldierInstance.ownerCreateSoldierTime(_owner);\n    // }\n\n    // function getCreateSoldierTime() public view returns(uint, uint) {\n    //     return ( now - soldierInstance.ownerStartCreateTime(msg.sender), soldierInstance.ownerCreateSoldierTime(msg.sender) ) ;\n    // }\n\n    // // // return 0 if success else return remaining time\n    // function updateCreateSoldier(address _owner) public returns(uint) {\n    //     if (soldierInstance.ownerStartCreateTime(_owner) == 0) return 0;\n    //     if (now >= soldierInstance.ownerStartCreateTime(_owner).add(soldierInstance.ownerCreateSoldierTime(_owner))) {\n    //         uint num;\n    //         num = soldierInstance.ownerCreateSoldierTime(_owner).div(  soldierInstance.levelOfSoldier(_owner).mul(soldierInstance.createSoldierTime()) );\n    //         soldierInstance.setNumOfSoldier(_owner, soldierInstance.numOfSoldier(_owner) + (num));\n    //         soldierInstance.setStartCreateTime(_owner, 0);\n    //         soldierInstance.setCreateSoldierTime(_owner, 0);\n    //         soldierInstance._updatePower(_owner);\n    //         return 0;\n    //     }\n    //     else {\n    //         uint remainingTime = (soldierInstance.ownerStartCreateTime(_owner) + soldierInstance.ownerCreateSoldierTime(_owner)).sub(now);\n    //         return remainingTime;\n    //     }\n    // }\n    \n\n\n    // // return 0 if failed (maybe already creating or not enough resource) otherwise return createtime\n    /*\n    function attack(uint _ownerId, uint _attackedCastleId) public {\n        // soldierInstance.attack(_ownerId, _attackedCastleId);\n    }\n    */\n\n    function startMarch(uint _attackedCastleId) public returns(uint) {\n        address _owner = msg.sender;\n        address attackedAddress = AccountInstance.castleToOwner(_attackedCastleId);\n\n        \n        if(ownerStartMarchTime[_owner] != 0) return uint(0); // check if there is already Marching\n        bool enoughResource;\n        enoughResource = enoughResource = AccountInstance.cost(_owner, 100, uint(0), 100, uint(0), 100);\n        if(enoughResource == false) return uint(0);\n        ownerStartMarchTime[_owner] = uint(now);\n        ownerTotalMarchTime[_owner] = 20;\n        AccountInstance.setAttackedInfo(attackedAddress, true, _owner, ownerStartMarchTime[_owner], ownerTotalMarchTime[_owner]);\n        return ownerTotalMarchTime[_owner];\n    }\n\n    function getMarchTime() public view returns(uint, uint, uint) {\n        return ( ownerStartMarchTime[msg.sender], uint(now) - ownerStartMarchTime[msg.sender], ownerTotalMarchTime[msg.sender] ) ;\n    }\n\n    // // return 0 if success else return remaining time\n    /*\n    function updateMarch(address _owner) public returns(uint) {\n        if (ownerStartMarchTime[_owner] == 0) return 0;\n        if (uint(now) >= ownerStartMarchTime[_owner].add(ownerTotalMarchTime[_owner])) {\n            // uint num;\n            // num = ownerTotalMarchTime[_owner].div(  MarchInstance.levelOfMarch(_owner).mul(MarchInstance.createMarchTime()) );\n            // MarchInstance.setNumOfMarch(_owner, MarchInstance.numOfMarch(_owner) + (num));\n            ownerStartMarchTime[_owner] = 0;\n            ownerTotalMarchTime[_owner] = 0;\n            return 0;\n        }\n        else {\n            uint remainingTime = (ownerStartMarchTime[_owner] + ownerTotalMarchTime[_owner]).sub(uint(now));\n            return remainingTime;\n        }\n    }\n    */\n    function is_annihilated(uint a , uint b , uint c) public returns(bool){\n        if(a+b+c==0)\n            return true ; \n        else \n            return false ; \n    }\n    function annihilated(address id)public returns(bool){\n        if(soldierInstance.getSoldierAmount(id)+ProtectorInstance.getProtectorAmount(id)+CannonInstance.getCannonAmount(id)==0){\n            return true;\n        }else\n            return false ; \n    }\n    struct battle_info{\n        uint attackerLevel   ;   \n        uint attackerDamage ; \n        uint attackerFrequency  ;\n        uint defenderLevel  ; \n        uint defenderHealth ; \n        uint defenderArmour ; \n        uint effectiveDamage  ;  \n        uint requireCulling  ; \n        uint requireKill   ; \n    }\n    //fuction battle_army() \n    //attack_id : id\n    //defend_id : id\n    //attacker/defender_flag   \n    //    :0 :1 :2\n    //attack_q :\n    //defender_q:\n    //injure:\n    function battle_army(address attack_id , address defend_id , uint attacker_flag , uint defender_flag, uint attacker_q, uint defender_q, uint injure ) public returns(uint,uint,uint){\n        battle_info memory info ; \n        info.attackerLevel = 0; \n        info.defenderLevel = 0 ; \n\n        if(attacker_flag == 0){\n            info.attackerLevel = ProtectorInstance.levelOfProtector(attack_id) ; \n            info.attackerDamage = 40 + 4 * info.attackerLevel ; \n            info.attackerFrequency = 1 ; \n        }else if (attacker_flag == 1 ){\n            info.attackerLevel = soldierInstance.levelOfSoldier(attack_id) ; \n            info.attackerDamage = 30 + 3 * info.attackerLevel ; \n            info.attackerFrequency = 2 ; \n        }else if(attacker_flag ==2){\n            info.attackerLevel = CannonInstance.levelOfCannon(attack_id) ; \n            info.attackerDamage = 100 + 10 * info.attackerLevel ; \n            info.attackerFrequency = 1 ;\n        }\n        if(defender_flag == 0){\n            info.defenderLevel = ProtectorInstance.levelOfProtector(defend_id) ; \n            info.defenderHealth = 80 + 8 * info.defenderLevel ; \n            info.defenderArmour = 20 + 2 * info.defenderLevel ; \n        }else if (defender_flag == 1 ){\n            info.defenderLevel = soldierInstance.levelOfSoldier(defend_id) ; \n            info.defenderHealth = 50 + 5 * info.defenderLevel ; \n            info.defenderArmour = 10 + 1 * info.defenderLevel ; \n        }else if(defender_flag ==2){\n            info.defenderLevel = CannonInstance.levelOfCannon(defend_id) ; \n            info.defenderHealth = 100 + 10 * info.defenderLevel ; \n            info.defenderArmour = 0 + 3 * info.defenderLevel ; \n        }\n        //\n        if(info.defenderArmour >= info.attackerDamage){\n            battleLog = concatenate(battleLog,\"\\n\") ; \n            return (0,defender_q,injure) ; \n        }else{\n            info.effectiveDamage = (info.attackerDamage - info.defenderArmour) * info.attackerFrequency ; \n        //  \n        //  \n            if(injure != info.defenderHealth ){\n                //ceiling\n                if(injure % info.effectiveDamage == 0 )\n                    info.requireCulling = injure / info.effectiveDamage ; \n                else    \n                    info.requireCulling = injure / info.effectiveDamage + 1; \n\n                //\n                if(attacker_q >= info.requireCulling){\n                    battleLog = concatenate(battleLog,\"\\n\") ; \n                    attacker_q -= info.requireCulling ;\n                    injure = info.defenderHealth ; \n                    defender_q -= 1 ; \n                //\n                }else{\n                    injure -= attacker_q * info.effectiveDamage ; \n                    //todo  \\n{not_yet_attack}{ownSoldierRemain}\n                    battleLog = concatenate(battleLog,\"\\n\\n\") ; \n                    attacker_q = 0  ;\n                    return(0,defender_q,injure);\n                }\n            }\n            //\n            if(attacker_q == 0){\n                battleLog = concatenate(battleLog,\"\\n\") ;\n                return (0,defender_q,injure) ; \n            }else{\n                if(info.defenderHealth % info.effectiveDamage == 0 )\n                    info.requireKill = info.defenderHealth / info.effectiveDamage ; \n                else    \n                    info.requireKill = info.defenderHealth / info.effectiveDamage + 1; \n                //\n                if( attacker_q / info.requireKill != 0 ){\n                    //\n                    if(attacker_q / info.requireKill >= defender_q){\n                        battleLog = concatenate(battleLog,\"\\n\") ;\n                        attacker_q -= info.requireKill * defender_q ; \n                        defender_q = 0 ; \n                        return (attacker_q , 0 , info.defenderHealth) ; \n                    }else{\n                        battleLog = concatenate(battleLog,\"\\n\") ;\n                        defender_q -= attacker_q / info.requireKill  ; \n                        attacker_q %=  info.requireKill  ;\n                    }\n                    if(attacker_q == 0){\n                        battleLog = concatenate(battleLog,\"\\n\") ;\n                        return (0,defender_q,info.defenderHealth) ;\n                    }\n                }    \n                //\n                injure -= attacker_q * info.effectiveDamage ;\n                battleLog = concatenate(battleLog,\"\\n\") ; \n                battleLog = concatenate(battleLog,\"\\n\") ;\n                attacker_q = 0 ; \n                return (attacker_q,defender_q,injure) ; \n                }\n                \n            }\n\n\n            \n    }\n/*\n    function battle_army(address attack_id , address defend_id , uint attacker_flag , uint defender_flag, uint attacker_q, uint defender_q, uint injure ) public returns(uint,uint,uint){\n        battle_info memory info ; \n        info.attackerLevel = 0 ; \n        info.defenderLevel = 0 ; \n\n        /*\n        uint attackerLevel = 0  ;   \n        uint attackerDamage ; \n        uint attackerFrequency  ;\n        uint defenderLevel = 0 ; \n        uint defenderHealth ; \n        uint defenderArmour ; \n        uint defenderInjure  ; \n        uint effectiveDamage = 0 ;  \n        uint requireCulling = 0 ; \n        uint requireKill = 0 ; \n        \n\n        // \n        // \n        if(attacker_flag == 0){\n            //attackerLevel = ProtectorInstance.levelOfProtector(attack_id) \b;\n            info.attackerDamage = 40 + 4 * info.attackerLevel ; \n            info.attackerFrequency = 1 ; \n        }else if (attacker_flag == 1 ){\n            //attackerLevel = soldierInstance.levelOfSoldier(attack_id) ; \n            info.attackerDamage = 30 + 3 * info.attackerLevel ; \n            info.attackerFrequency = 2 ; \n        }else if(attacker_flag ==2){\n            //attackerLevel = CannonInstance.levelOfCannon(attack_id) ; \n            info.attackerDamage = 100 + 10 * info.attackerLevel ; \n            info.attackerFrequency = 1 ;\n        }\n        if(defender_flag == 0){\n            //defenderLevel = ProtectorInstance.levelOfProtector(defend_id) \b;\n            info.defenderHealth = 80 + 8 * info.defenderLevel ; \n            info.defenderArmour = 20 + 2 * info.defenderLevel ; \n        }else if (defender_flag == 1 ){\n            //defenderLevel = soldierInstance.levelOfSoldier(defend_id) ; \n            info.defenderHealth = 50 + 5 * info.defenderLevel ; \n            info.defenderArmour = 10 + 1 * info.defenderLevel ; \n        }else if(defender_flag ==2){\n            //defendderLevel = CannonInstance.levelOfCannon(defend_id) ; \n            info.defenderHealth = 100 + 10 * info.defenderLevel ; \n            info.defenderArmour = 0 + 3 * info.defenderLevel ; \n        }\n        //\n        if(info.defenderArmour >= info.attackerDamage){\n            battleLog = concatenate(battleLog,\"\\n\") ; \n            return (0,defender_q,info.defenderInjure) ; \n        }else{\n            info.effectiveDamage = (info.attackerDamage - info.defenderArmour) * info.attackerFrequency ; \n        //  \n        //  \n            if(info.defenderInjure != info.defenderHealth ){\n                //ceiling\n                if(info.defenderInjure % info.effectiveDamage == 0 )\n                    info.requireCulling = info.defenderInjure / info.effectiveDamage ; \n                else    \n                    info.requireCulling = info.defenderInjure / info.effectiveDamage + 1; \n\n                //\n                if(attacker_q >= info.requireCulling){\n                    battleLog = concatenate(battleLog,\"\\n\") ; \n                    attacker_q -= info.requireCulling ;\n                    info.defenderInjure = info.defenderHealth ; \n                    defender_q -= 1 ; \n                //\n                }else{\n                    info.defenderInjure -= attacker_q * info.effectiveDamage ; \n                    //todo  \\n{not_yet_attack}{ownSoldierRemain}\n                    battleLog = concatenate(battleLog,\"\\nxx\") ; \n                    attacker_q = 0  ;\n                }\n            }\n            //\n            if(attacker_q == 0){\n                battleLog = concatenate(battleLog,\"\\n\") ;\n                return (0,defender_q,info.defenderInjure) ; \n            }else{\n                if(info.defenderHealth % info.effectiveDamage == 0 )\n                    info.requireKill = info.defenderHealth / info.effectiveDamage ; \n                else    \n                    info.requireKill = info.defenderHealth / info.effectiveDamage + 1; \n                //\n                if( attacker_q / info.requireKill != 0 ){\n                    //\n                    if(attacker_q / info.requireKill >= defender_q){\n                        battleLog = concatenate(battleLog,\"\\n\") ;\n                        attacker_q -= info.requireKill * defender_q ; \n                        defender_q = 0 ; \n                        return (attacker_q , 0 , info.defenderHealth) ; \n                    }else{\n                        battleLog = concatenate(battleLog,\"\\nxx\") ;\n                        defender_q -= attacker_q / info.requireKill  ; \n                        attacker_q %=  info.requireKill  ;\n                    }\n                    if(attacker_q == 0){\n                        return (0,defender_q,info.defenderHealth) ; \n                        battleLog = concatenate(battleLog,\"\\n\") ;\n                        //battlelog += \n                    }else{\n                        //\n                        info.defenderInjure -= attacker_q * info.effectiveDamage ;\n                        battleLog = concatenate(battleLog,\"\\nxx\") ; \n                        battleLog = concatenate(battleLog,\"\\n\") ;\n                        attacker_q = 0 ; \n                        return (attacker_q,defender_q,info.defenderInjure) ; \n                    }\n                }\n            }\n\n\n            \n        }\n    }*/\n\n\n\n\n\n    function attack(uint _owner, uint _attackedCastle) public returns(uint){\n        //soldierInstance.attack(_ownerId, _attackedCastleId);\n        //uint ownSoldierQuantity = soldierInstance.getSoldierAmount(_ownerId);\n        battleLog = \"\\n\" ; \n        \n\n        address _ownerId = AccountInstance.castleToOwner(_owner) ;\n        address _attackedCastleId = AccountInstance.castleToOwner(_attackedCastle) ;\n        \n        ownerStartMarchTime[_ownerId] = 0;\n        ownerTotalMarchTime[_ownerId] = 0;\n\n        uint dummyQuantityAttacker ; \n        uint dummyQuantityDefender ; \n        uint ownSoldierInjure = 50 + soldierInstance.levelOfSoldier(_ownerId) * 5  ; \n        //uint ownProtectorQuantity = ProtectorInstance.getProtectorAmount(_ownerId);  \n        uint ownProtectorInjure = 80 + ProtectorInstance.levelOfProtector(_ownerId) * 8  ;\n        //uint ownCannonQuantity = CannonInstance.getCannonAmount(_ownerId);  \n        uint ownCannonInjure = 100 + CannonInstance.levelOfCannon(_ownerId) * 10 ;\n        //uint rivalSoldierQuantity = soldierInstance.getSoldierAmount(_attackedCastleId);\n        uint rivalSoldierInjure = 50 + soldierInstance.levelOfSoldier(_attackedCastleId)  * 5 ;\n        //uint rivalProtectorQuantity = ProtectorInstance.getProtectorAmount(_attackedCastleId); \n        uint rivalProtectorInjure = 80 + ProtectorInstance.levelOfProtector(_attackedCastleId) * 8  ;\n        //uint rivalCannonQuantity = CannonInstance.getCannonAmount(_attackedCastleId);  \n        uint rivalCannonInjure = 100 + CannonInstance.levelOfCannon(_attackedCastleId) * 10 ;\n        //\n        uint round = 0 ;  \n\n        if( is_annihilated(CannonInstance.getCannonAmount(_attackedCastleId),soldierInstance.getSoldierAmount(_attackedCastleId),ProtectorInstance.getProtectorAmount(_attackedCastleId)) ){\n            battleLog = concatenate(battleLog,\"\") ; \n        }\n        else{\n        //a barricade is set in case of infinite loop can be removed if no bug is found\n        //otherwise two army fight until one is totally annihilateed\n            \n            while(round < 20  ){\n                if( annihilated(_ownerId) ){\n                    battleLog = concatenate(battleLog,\"\") ;\n                    return 1; \n                }else if(annihilated(_attackedCastleId)){\n                    battleLog = concatenate(battleLog,\"\") ;\n                    return 1; \n                }\n                round += 1 ; \n                //battleLog += {round}\n                //->->->->->\n\n                //protector\n                dummyQuantityAttacker = ProtectorInstance.getProtectorAmount(_attackedCastleId);\n                if( dummyQuantityAttacker != 0  ){\n                    battleLog = concatenate(battleLog,\"\\n\") ; \n                    dummyQuantityDefender = soldierInstance.getSoldierAmount(_ownerId) ; \n                    if( dummyQuantityDefender != 0 ){\n                        battleLog = concatenate(battleLog,\",\") ; \n                        (dummyQuantityAttacker,dummyQuantityDefender,ownSoldierInjure) = battle_army(_attackedCastleId,_ownerId,0,1,dummyQuantityAttacker,dummyQuantityDefender,ownSoldierInjure) ; \n                        soldierInstance.setNumOfSoldier(_ownerId,dummyQuantityDefender) ; \n                    }\n                    //   \n                    dummyQuantityDefender = ProtectorInstance.getProtectorAmount(_ownerId) ; \n                    if( dummyQuantityAttacker != 0 && dummyQuantityDefender != 0){       \n                        battleLog = concatenate(battleLog,\"\\n\") ; \n                        (dummyQuantityAttacker,dummyQuantityDefender,ownProtectorInjure) = battle_army(_attackedCastleId,_ownerId,0,0,dummyQuantityAttacker,dummyQuantityDefender,ownProtectorInjure) ;\n                        ProtectorInstance.setNumOfProtector(_ownerId,dummyQuantityDefender) ; \n                    }\n                    // \n                    dummyQuantityDefender = CannonInstance.getCannonAmount(_ownerId) ; \n                    if( dummyQuantityAttacker != 0 && dummyQuantityDefender != 0){    \n                        battleLog = concatenate(battleLog,\"\\n\") ;\n                        (dummyQuantityAttacker,dummyQuantityDefender,ownCannonInjure) = battle_army(_attackedCastleId,_ownerId,0,2,dummyQuantityAttacker,dummyQuantityDefender,ownCannonInjure) ;    \n                        CannonInstance.setNumOfCannon(_ownerId,dummyQuantityDefender) ; \n                    }\n                }\n                \n                dummyQuantityAttacker = soldierInstance.getSoldierAmount(_ownerId);\n                if( dummyQuantityAttacker != 0  ){\n                    battleLog = concatenate(battleLog,\"\\n\") ; \n                    dummyQuantityDefender = soldierInstance.getSoldierAmount(_attackedCastleId) ; \n                    if( dummyQuantityDefender != 0 ){\n                        battleLog = concatenate(battleLog,\",\") ; \n                        (dummyQuantityAttacker,dummyQuantityDefender,rivalSoldierInjure) = battle_army(_ownerId,_attackedCastleId,1,1,dummyQuantityAttacker,dummyQuantityDefender,rivalSoldierInjure) ; \n                        soldierInstance.setNumOfSoldier(_attackedCastleId,dummyQuantityDefender) ; \n                    }\n                    //   \n                    dummyQuantityDefender = ProtectorInstance.getProtectorAmount(_attackedCastleId) ; \n                    if( dummyQuantityAttacker != 0 && dummyQuantityDefender != 0){       \n                        battleLog = concatenate(battleLog,\"\\n\") ; \n                        (dummyQuantityAttacker,dummyQuantityDefender,rivalProtectorInjure) = battle_army(_ownerId,_attackedCastleId,1,0,dummyQuantityAttacker,dummyQuantityDefender,rivalProtectorInjure) ;\n                        ProtectorInstance.setNumOfProtector(_attackedCastleId,dummyQuantityDefender) ; \n                    }\n                    // \n                    dummyQuantityDefender = CannonInstance.getCannonAmount(_attackedCastleId) ; \n                    if( dummyQuantityAttacker != 0 && dummyQuantityDefender != 0){    \n                        battleLog = concatenate(battleLog,\"\\n\") ;\n                        (dummyQuantityAttacker,dummyQuantityDefender,rivalCannonInjure) = battle_army(_ownerId,_attackedCastleId,1,2,dummyQuantityAttacker,dummyQuantityDefender,rivalCannonInjure) ;    \n                        CannonInstance.setNumOfCannon(_attackedCastleId,dummyQuantityDefender) ; \n                    }\n                }\n\n                //3\n                dummyQuantityAttacker = soldierInstance.getSoldierAmount(_attackedCastleId);\n                if( dummyQuantityAttacker != 0  ){\n                    battleLog = concatenate(battleLog,\"\\n\") ; \n                    dummyQuantityDefender = soldierInstance.getSoldierAmount(_ownerId) ; \n                    if( dummyQuantityDefender != 0 ){\n                        battleLog = concatenate(battleLog,\",\") ; \n                        (dummyQuantityAttacker,dummyQuantityDefender,ownSoldierInjure) = battle_army(_attackedCastleId,_ownerId,1,1,dummyQuantityAttacker,dummyQuantityDefender,ownSoldierInjure) ; \n                        soldierInstance.setNumOfSoldier(_ownerId,dummyQuantityDefender) ; \n                    }\n                    //   \n                    dummyQuantityDefender = ProtectorInstance.getProtectorAmount(_ownerId) ; \n                    if( dummyQuantityAttacker != 0 && dummyQuantityDefender != 0){       \n                        battleLog = concatenate(battleLog,\"\\n\") ; \n                        (dummyQuantityAttacker,dummyQuantityDefender,ownProtectorInjure) = battle_army(_ownerId,_attackedCastleId,1,0,dummyQuantityAttacker,dummyQuantityDefender,ownProtectorInjure) ;\n                        ProtectorInstance.setNumOfProtector(_ownerId,dummyQuantityDefender) ; \n                    }\n                    // \n                    dummyQuantityDefender = CannonInstance.getCannonAmount(_ownerId) ; \n                    if( dummyQuantityAttacker != 0 && dummyQuantityDefender != 0){    \n                        battleLog = concatenate(battleLog,\"\\n\") ;\n                        (dummyQuantityAttacker,dummyQuantityDefender,ownCannonInjure) = battle_army(_ownerId,_attackedCastleId,1,2,dummyQuantityAttacker,dummyQuantityDefender,ownCannonInjure) ;    \n                        CannonInstance.setNumOfCannon(_ownerId,dummyQuantityDefender) ; \n                    }\n                }\n                //4\n                dummyQuantityAttacker = ProtectorInstance.getProtectorAmount(_ownerId);\n                if( dummyQuantityAttacker != 0  ){\n                    battleLog = concatenate(battleLog,\"\\n\") ; \n                    dummyQuantityDefender = soldierInstance.getSoldierAmount(_attackedCastleId) ; \n                    if( dummyQuantityDefender != 0 ){\n                        battleLog = concatenate(battleLog,\",\") ; \n                        (dummyQuantityAttacker,dummyQuantityDefender,rivalSoldierInjure) = battle_army(_ownerId,_attackedCastleId,0,1,dummyQuantityAttacker,dummyQuantityDefender,rivalSoldierInjure) ; \n                        soldierInstance.setNumOfSoldier(_attackedCastleId,dummyQuantityDefender) ; \n                    }\n                    //   \n                    dummyQuantityDefender = ProtectorInstance.getProtectorAmount(_attackedCastleId) ; \n                    if( dummyQuantityAttacker != 0 && dummyQuantityDefender != 0){       \n                        battleLog = concatenate(battleLog,\"\\n\") ; \n                        (dummyQuantityAttacker,dummyQuantityDefender,rivalProtectorInjure) = battle_army(_ownerId,_attackedCastleId,0,0,dummyQuantityAttacker,dummyQuantityDefender,rivalProtectorInjure) ;\n                        ProtectorInstance.setNumOfProtector(_attackedCastleId,dummyQuantityDefender) ; \n                    }\n                    // \n                    dummyQuantityDefender = CannonInstance.getCannonAmount(_attackedCastleId) ; \n                    if( dummyQuantityAttacker != 0 && dummyQuantityDefender != 0){    \n                        battleLog = concatenate(battleLog,\"\\n\") ;\n                        (dummyQuantityAttacker,dummyQuantityDefender,rivalCannonInjure) = battle_army(_ownerId,_attackedCastleId,0,2,dummyQuantityAttacker,dummyQuantityDefender,rivalCannonInjure) ;    \n                        CannonInstance.setNumOfCannon(_attackedCastleId,dummyQuantityDefender) ; \n                    }\n                }\n                //5\n                dummyQuantityAttacker = CannonInstance.getCannonAmount(_attackedCastleId);\n                if( dummyQuantityAttacker != 0  ){\n                    battleLog = concatenate(battleLog,\"\\n\") ; \n                    dummyQuantityDefender = soldierInstance.getSoldierAmount(_ownerId) ; \n                    if( dummyQuantityDefender != 0 ){\n                        battleLog = concatenate(battleLog,\",\") ; \n                        (dummyQuantityAttacker,dummyQuantityDefender,ownSoldierInjure) = battle_army(_attackedCastleId,_ownerId,2,1,dummyQuantityAttacker,dummyQuantityDefender,ownSoldierInjure) ; \n                        soldierInstance.setNumOfSoldier(_ownerId,dummyQuantityDefender) ; \n                    }\n                    //   \n                    dummyQuantityDefender = ProtectorInstance.getProtectorAmount(_ownerId) ; \n                    if( dummyQuantityAttacker != 0 && dummyQuantityDefender != 0){       \n                        battleLog = concatenate(battleLog,\"\\n\") ; \n                        (dummyQuantityAttacker,dummyQuantityDefender,ownProtectorInjure) = battle_army(_ownerId,_attackedCastleId,2,0,dummyQuantityAttacker,dummyQuantityDefender,ownProtectorInjure) ;\n                        ProtectorInstance.setNumOfProtector(_ownerId,dummyQuantityDefender) ; \n                    }\n                    // \n                    dummyQuantityDefender = CannonInstance.getCannonAmount(_ownerId) ; \n                    if( dummyQuantityAttacker != 0 && dummyQuantityDefender != 0){    \n                        battleLog = concatenate(battleLog,\"\\n\") ;\n                        (dummyQuantityAttacker,dummyQuantityDefender,ownCannonInjure) = battle_army(_ownerId,_attackedCastleId,2,2,dummyQuantityAttacker,dummyQuantityDefender,ownCannonInjure) ;    \n                        CannonInstance.setNumOfCannon(_ownerId,dummyQuantityDefender) ; \n                    }\n                }\n                //6\n                dummyQuantityAttacker = CannonInstance.getCannonAmount(_ownerId);\n                if( dummyQuantityAttacker != 0  ){\n                    battleLog = concatenate(battleLog,\"\\n\") ; \n                    dummyQuantityDefender = soldierInstance.getSoldierAmount(_attackedCastleId) ; \n                    if( dummyQuantityDefender != 0 ){\n                        battleLog = concatenate(battleLog,\",\") ; \n                        (dummyQuantityAttacker,dummyQuantityDefender,rivalSoldierInjure) = battle_army(_ownerId,_attackedCastleId,2,1,dummyQuantityAttacker,dummyQuantityDefender,rivalSoldierInjure) ; \n                        soldierInstance.setNumOfSoldier(_attackedCastleId,dummyQuantityDefender) ; \n                    }\n                    //   \n                    dummyQuantityDefender = ProtectorInstance.getProtectorAmount(_attackedCastleId) ; \n                    if( dummyQuantityAttacker != 0 && dummyQuantityDefender != 0){       \n                        battleLog = concatenate(battleLog,\"\\n\") ; \n                        (dummyQuantityAttacker,dummyQuantityDefender,rivalProtectorInjure) = battle_army(_ownerId,_attackedCastleId,2,0,dummyQuantityAttacker,dummyQuantityDefender,rivalProtectorInjure) ;\n                        ProtectorInstance.setNumOfProtector(_attackedCastleId,dummyQuantityDefender) ; \n                    }\n                    // \n                    dummyQuantityDefender = CannonInstance.getCannonAmount(_attackedCastleId) ; \n                    if( dummyQuantityAttacker != 0 && dummyQuantityDefender != 0){    \n                        battleLog = concatenate(battleLog,\"\\n\") ;\n                        (dummyQuantityAttacker,dummyQuantityDefender,rivalCannonInjure) = battle_army(_ownerId,_attackedCastleId,2,2,dummyQuantityAttacker,dummyQuantityDefender,rivalCannonInjure) ;    \n                        CannonInstance.setNumOfCannon(_attackedCastleId,dummyQuantityDefender) ; \n                    }\n                }  \n                /*\n                \n                if( ownProtectorQuantity != 0){\n\n                }\n                if( rivalCannonQuantity != 0){\n\n                }\n                if( ownCannonQuantity != 0){\n\n                }*/\n\n\n\n            }\n            \n\n        }\n        \n            \n    }\n\n    function getBattleLog() public returns(string memory){\n        // string memory log = battleLog;\n        return battleLog;\n   }\n\n   function sendSpy(uint _ownerId, uint _attackedCastleId) public view returns(bool) {\n         //returns TRUE if spy of myCastle > attackedCastle\n\n         return SpyInstance.sendSpy(_ownerId, _attackedCastleId);\n             \n     }\n\n}",
  "sourcePath": "/Users/danielshyu/Documents/final_game/NMLab_Final/contracts/Barrack.sol",
  "compiler": {
    "name": "solc",
    "version": "0.5.16+commit.9c3226ce.Emscripten.clang"
  },
  "schemaVersion": "3.4.1",
  "updatedAt": "2021-06-28T05:00:24.897Z",
  "devdoc": {
    "methods": {}
  },
  "userdoc": {
    "methods": {}
  }
}