{
  "contractName": "Barrack",
  "abi": [
    {
      "inputs": [
        {
          "internalType": "address",
          "name": "_building_address",
          "type": "address"
        },
        {
          "internalType": "address",
          "name": "_soldier_address",
          "type": "address"
        },
        {
          "internalType": "address",
          "name": "_spy_instance",
          "type": "address"
        },
        {
          "internalType": "address",
          "name": "_cannon_instance",
          "type": "address"
        },
        {
          "internalType": "address",
          "name": "_protector_instance",
          "type": "address"
        },
        {
          "internalType": "address",
          "name": "_wall_instance",
          "type": "address"
        },
        {
          "internalType": "address",
          "name": "_account_instance",
          "type": "address"
        }
      ],
      "payable": false,
      "stateMutability": "nonpayable",
      "type": "constructor"
    },
    {
      "constant": true,
      "inputs": [
        {
          "internalType": "address",
          "name": "",
          "type": "address"
        }
      ],
      "name": "ownerStartMarchTime",
      "outputs": [
        {
          "internalType": "uint256",
          "name": "",
          "type": "uint256"
        }
      ],
      "payable": false,
      "stateMutability": "view",
      "type": "function"
    },
    {
      "constant": true,
      "inputs": [
        {
          "internalType": "address",
          "name": "",
          "type": "address"
        }
      ],
      "name": "ownerTotalMarchTime",
      "outputs": [
        {
          "internalType": "uint256",
          "name": "",
          "type": "uint256"
        }
      ],
      "payable": false,
      "stateMutability": "view",
      "type": "function"
    },
    {
      "constant": false,
      "inputs": [
        {
          "internalType": "uint256",
          "name": "_x",
          "type": "uint256"
        },
        {
          "internalType": "uint256",
          "name": "_y",
          "type": "uint256"
        }
      ],
      "name": "createBarrack",
      "outputs": [],
      "payable": false,
      "stateMutability": "nonpayable",
      "type": "function"
    },
    {
      "constant": false,
      "inputs": [
        {
          "internalType": "string",
          "name": "a",
          "type": "string"
        },
        {
          "internalType": "string",
          "name": "b",
          "type": "string"
        }
      ],
      "name": "concatenate",
      "outputs": [
        {
          "internalType": "string",
          "name": "",
          "type": "string"
        }
      ],
      "payable": false,
      "stateMutability": "nonpayable",
      "type": "function"
    },
    {
      "constant": true,
      "inputs": [
        {
          "internalType": "address",
          "name": "_owner",
          "type": "address"
        }
      ],
      "name": "getSoldierAmount",
      "outputs": [
        {
          "internalType": "uint256",
          "name": "",
          "type": "uint256"
        }
      ],
      "payable": false,
      "stateMutability": "view",
      "type": "function"
    },
    {
      "constant": true,
      "inputs": [
        {
          "internalType": "address",
          "name": "_owner",
          "type": "address"
        }
      ],
      "name": "getSpyAmount",
      "outputs": [
        {
          "internalType": "uint256",
          "name": "",
          "type": "uint256"
        }
      ],
      "payable": false,
      "stateMutability": "view",
      "type": "function"
    },
    {
      "constant": false,
      "inputs": [
        {
          "internalType": "uint256",
          "name": "number",
          "type": "uint256"
        }
      ],
      "name": "startCreateSpy",
      "outputs": [
        {
          "internalType": "uint256",
          "name": "",
          "type": "uint256"
        }
      ],
      "payable": false,
      "stateMutability": "nonpayable",
      "type": "function"
    },
    {
      "constant": true,
      "inputs": [],
      "name": "getCreateSpyTime",
      "outputs": [
        {
          "internalType": "uint256",
          "name": "",
          "type": "uint256"
        },
        {
          "internalType": "uint256",
          "name": "",
          "type": "uint256"
        }
      ],
      "payable": false,
      "stateMutability": "view",
      "type": "function"
    },
    {
      "constant": false,
      "inputs": [
        {
          "internalType": "address",
          "name": "_owner",
          "type": "address"
        }
      ],
      "name": "updateCreateSpy",
      "outputs": [
        {
          "internalType": "uint256",
          "name": "",
          "type": "uint256"
        }
      ],
      "payable": false,
      "stateMutability": "nonpayable",
      "type": "function"
    },
    {
      "constant": false,
      "inputs": [
        {
          "internalType": "uint256",
          "name": "_attackedCastleId",
          "type": "uint256"
        }
      ],
      "name": "startMarch",
      "outputs": [
        {
          "internalType": "uint256",
          "name": "",
          "type": "uint256"
        }
      ],
      "payable": false,
      "stateMutability": "nonpayable",
      "type": "function"
    },
    {
      "constant": true,
      "inputs": [],
      "name": "getMarchTime",
      "outputs": [
        {
          "internalType": "uint256",
          "name": "",
          "type": "uint256"
        },
        {
          "internalType": "uint256",
          "name": "",
          "type": "uint256"
        },
        {
          "internalType": "uint256",
          "name": "",
          "type": "uint256"
        }
      ],
      "payable": false,
      "stateMutability": "view",
      "type": "function"
    },
    {
      "constant": false,
      "inputs": [
        {
          "internalType": "address",
          "name": "_owner",
          "type": "address"
        }
      ],
      "name": "updateMarch",
      "outputs": [
        {
          "internalType": "uint256",
          "name": "",
          "type": "uint256"
        }
      ],
      "payable": false,
      "stateMutability": "nonpayable",
      "type": "function"
    },
    {
      "constant": false,
      "inputs": [
        {
          "internalType": "uint256",
          "name": "a",
          "type": "uint256"
        },
        {
          "internalType": "uint256",
          "name": "b",
          "type": "uint256"
        },
        {
          "internalType": "uint256",
          "name": "c",
          "type": "uint256"
        }
      ],
      "name": "is_annihilated",
      "outputs": [
        {
          "internalType": "bool",
          "name": "",
          "type": "bool"
        }
      ],
      "payable": false,
      "stateMutability": "nonpayable",
      "type": "function"
    },
    {
      "constant": false,
      "inputs": [
        {
          "internalType": "address",
          "name": "id",
          "type": "address"
        }
      ],
      "name": "annihilated",
      "outputs": [
        {
          "internalType": "bool",
          "name": "",
          "type": "bool"
        }
      ],
      "payable": false,
      "stateMutability": "nonpayable",
      "type": "function"
    },
    {
      "constant": false,
      "inputs": [
        {
          "internalType": "address",
          "name": "attack_id",
          "type": "address"
        },
        {
          "internalType": "address",
          "name": "defend_id",
          "type": "address"
        },
        {
          "internalType": "uint256",
          "name": "attacker_flag",
          "type": "uint256"
        },
        {
          "internalType": "uint256",
          "name": "defender_flag",
          "type": "uint256"
        },
        {
          "internalType": "uint256",
          "name": "attacker_q",
          "type": "uint256"
        },
        {
          "internalType": "uint256",
          "name": "defender_q",
          "type": "uint256"
        },
        {
          "internalType": "uint256",
          "name": "injure",
          "type": "uint256"
        }
      ],
      "name": "battle_army",
      "outputs": [
        {
          "internalType": "uint256",
          "name": "",
          "type": "uint256"
        },
        {
          "internalType": "uint256",
          "name": "",
          "type": "uint256"
        },
        {
          "internalType": "uint256",
          "name": "",
          "type": "uint256"
        }
      ],
      "payable": false,
      "stateMutability": "nonpayable",
      "type": "function"
    },
    {
      "constant": false,
      "inputs": [
        {
          "internalType": "address",
          "name": "_ownerId",
          "type": "address"
        },
        {
          "internalType": "address",
          "name": "_attackedCastleId",
          "type": "address"
        }
      ],
      "name": "attack",
      "outputs": [
        {
          "internalType": "uint256",
          "name": "",
          "type": "uint256"
        }
      ],
      "payable": false,
      "stateMutability": "nonpayable",
      "type": "function"
    },
    {
      "constant": false,
      "inputs": [
        {
          "internalType": "uint256",
          "name": "_ownerId",
          "type": "uint256"
        },
        {
          "internalType": "uint256",
          "name": "_attackedCastleId",
          "type": "uint256"
        }
      ],
      "name": "attack",
      "outputs": [],
      "payable": false,
      "stateMutability": "nonpayable",
      "type": "function"
    },
    {
      "constant": true,
      "inputs": [
        {
          "internalType": "uint256",
          "name": "_ownerId",
          "type": "uint256"
        },
        {
          "internalType": "uint256",
          "name": "_attackedCastleId",
          "type": "uint256"
        }
      ],
      "name": "sendSpy",
      "outputs": [
        {
          "internalType": "bool",
          "name": "",
          "type": "bool"
        }
      ],
      "payable": false,
      "stateMutability": "view",
      "type": "function"
    }
  ],
  "bytecode": "0x60806040526040518060400160405280600d81526020017fe688b0e9aca5e9968be5a78b0a000000000000000000000000000000000000008152506000908051906020019062000051929190620002a6565b503480156200005f57600080fd5b506040516200615e3803806200615e833981810160405260e08110156200008557600080fd5b810190808051906020019092919080519060200190929190805190602001909291908051906020019092919080519060200190929190805190602001909291908051906020019092919050505086600360006101000a81548173ffffffffffffffffffffffffffffffffffffffff021916908373ffffffffffffffffffffffffffffffffffffffff16021790555085600460006101000a81548173ffffffffffffffffffffffffffffffffffffffff021916908373ffffffffffffffffffffffffffffffffffffffff16021790555084600760006101000a81548173ffffffffffffffffffffffffffffffffffffffff021916908373ffffffffffffffffffffffffffffffffffffffff16021790555082600560006101000a81548173ffffffffffffffffffffffffffffffffffffffff021916908373ffffffffffffffffffffffffffffffffffffffff16021790555083600660006101000a81548173ffffffffffffffffffffffffffffffffffffffff021916908373ffffffffffffffffffffffffffffffffffffffff16021790555080600860006101000a81548173ffffffffffffffffffffffffffffffffffffffff021916908373ffffffffffffffffffffffffffffffffffffffff16021790555081600960006101000a81548173ffffffffffffffffffffffffffffffffffffffff021916908373ffffffffffffffffffffffffffffffffffffffff1602179055505050505050505062000355565b828054600181600116156101000203166002900490600052602060002090601f016020900481019282601f10620002e957805160ff19168380011785556200031a565b828001600101855582156200031a579182015b8281111562000319578251825591602001919060010190620002fc565b5b5090506200032991906200032d565b5090565b6200035291905b808211156200034e57600081600090555060010162000334565b5090565b90565b615df980620003656000396000f3fe608060405234801561001057600080fd5b50600436106101165760003560e01c806378eb4df4116100a2578063e1fa763811610071578063e1fa7638146106a3578063e21843fd146106db578063ebf7249214610733578063f104f7cb1461078d578063f6577c92146107b957610116565b806378eb4df414610579578063a4b1919d146105bb578063b7c47d6e14610613578063d345572b1461064b57610116565b80633c48664c116100e95780633c48664c146103b357806347e870b21461042b57806351e45bf51461048757806356c8718b146104c957806369cddf1d1461052157610116565b80630194b6131461011b578063058981e81461016b5780630acdea6f146101c3578063266001d3146101e8575b600080fd5b6101516004803603604081101561013157600080fd5b810190808035906020019092919080359060200190929190505050610871565b604051808215151515815260200191505060405180910390f35b6101ad6004803603602081101561018157600080fd5b81019080803573ffffffffffffffffffffffffffffffffffffffff169060200190929190505050610931565b6040518082815260200191505060405180910390f35b6101cb610949565b604051808381526020018281526020019250505060405180910390f35b610338600480360360408110156101fe57600080fd5b810190808035906020019064010000000081111561021b57600080fd5b82018360208201111561022d57600080fd5b8035906020019184600183028401116401000000008311171561024f57600080fd5b91908080601f016020809104026020016040519081016040528093929190818152602001838380828437600081840152601f19601f820116905080830192505050505050509192919290803590602001906401000000008111156102b257600080fd5b8201836020820111156102c457600080fd5b803590602001918460018302840111640100000000831117156102e657600080fd5b91908080601f016020809104026020016040519081016040528093929190818152602001838380828437600081840152601f19601f820116905080830192505050505050509192919290505050610b0a565b6040518080602001828103825283818151815260200191508051906020019080838360005b8381101561037857808201518184015260208101905061035d565b50505050905090810190601f1680156103a55780820380516001836020036101000a031916815260200191505b509250505060405180910390f35b610415600480360360408110156103c957600080fd5b81019080803573ffffffffffffffffffffffffffffffffffffffff169060200190929190803573ffffffffffffffffffffffffffffffffffffffff169060200190929190505050610bd2565b6040518082815260200191505060405180910390f35b61046d6004803603602081101561044157600080fd5b81019080803573ffffffffffffffffffffffffffffffffffffffff169060200190929190505050612a49565b604051808215151515815260200191505060405180910390f35b6104b36004803603602081101561049d57600080fd5b8101908080359060200190929190505050612cf5565b6040518082815260200191505060405180910390f35b61050b600480360360208110156104df57600080fd5b81019080803573ffffffffffffffffffffffffffffffffffffffff169060200190929190505050613184565b6040518082815260200191505060405180910390f35b6105636004803603602081101561053757600080fd5b81019080803573ffffffffffffffffffffffffffffffffffffffff1690602001909291905050506133a1565b6040518082815260200191505060405180910390f35b6105a56004803603602081101561058f57600080fd5b8101908080359060200190929190505050613e8d565b6040518082815260200191505060405180910390f35b6105fd600480360360208110156105d157600080fd5b81019080803573ffffffffffffffffffffffffffffffffffffffff169060200190929190505050614469565b6040518082815260200191505060405180910390f35b6106496004803603604081101561062957600080fd5b81019080803590602001909291908035906020019092919050505061454c565b005b61068d6004803603602081101561066157600080fd5b81019080803573ffffffffffffffffffffffffffffffffffffffff169060200190929190505050614a40565b6040518082815260200191505060405180910390f35b6106d9600480360360408110156106b957600080fd5b810190808035906020019092919080359060200190929190505050614a58565b005b61071d600480360360208110156106f157600080fd5b81019080803573ffffffffffffffffffffffffffffffffffffffff169060200190929190505050614a5c565b6040518082815260200191505060405180910390f35b6107736004803603606081101561074957600080fd5b81019080803590602001909291908035906020019092919080359060200190929190505050614b3f565b604051808215151515815260200191505060405180910390f35b610795614b62565b60405180848152602001838152602001828152602001935050505060405180910390f35b61084d600480360360e08110156107cf57600080fd5b81019080803573ffffffffffffffffffffffffffffffffffffffff169060200190929190803573ffffffffffffffffffffffffffffffffffffffff1690602001909291908035906020019092919080359060200190929190803590602001909291908035906020019092919080359060200190929190505050614c34565b60405180848152602001838152602001828152602001935050505060405180910390f35b6000600760009054906101000a900473ffffffffffffffffffffffffffffffffffffffff1673ffffffffffffffffffffffffffffffffffffffff16630194b61384846040518363ffffffff1660e01b8152600401808381526020018281526020019250505060206040518083038186803b1580156108ee57600080fd5b505afa158015610902573d6000803e3d6000fd5b505050506040513d602081101561091857600080fd5b8101908080519060200190929190505050905092915050565b60026020528060005260406000206000915090505481565b600080600760009054906101000a900473ffffffffffffffffffffffffffffffffffffffff1673ffffffffffffffffffffffffffffffffffffffff16639073af81336040518263ffffffff1660e01b8152600401808273ffffffffffffffffffffffffffffffffffffffff1673ffffffffffffffffffffffffffffffffffffffff16815260200191505060206040518083038186803b1580156109eb57600080fd5b505afa1580156109ff573d6000803e3d6000fd5b505050506040513d6020811015610a1557600080fd5b81019080805190602001909291905050504203600760009054906101000a900473ffffffffffffffffffffffffffffffffffffffff1673ffffffffffffffffffffffffffffffffffffffff1663b5c3e402336040518263ffffffff1660e01b8152600401808273ffffffffffffffffffffffffffffffffffffffff1673ffffffffffffffffffffffffffffffffffffffff16815260200191505060206040518083038186803b158015610ac757600080fd5b505afa158015610adb573d6000803e3d6000fd5b505050506040513d6020811015610af157600080fd5b8101908080519060200190929190505050915091509091565b606082826040516020018083805190602001908083835b60208310610b445780518252602082019150602081019050602083039250610b21565b6001836020036101000a03801982511681845116808217855250505050505090500182805190602001908083835b60208310610b955780518252602082019150602081019050602083039250610b72565b6001836020036101000a03801982511681845116808217855250505050505090500192505050604051602081830303815290604052905092915050565b6000806000806005600460009054906101000a900473ffffffffffffffffffffffffffffffffffffffff1673ffffffffffffffffffffffffffffffffffffffff166329058536886040518263ffffffff1660e01b8152600401808273ffffffffffffffffffffffffffffffffffffffff1673ffffffffffffffffffffffffffffffffffffffff16815260200191505060206040518083038186803b158015610c7957600080fd5b505afa158015610c8d573d6000803e3d6000fd5b505050506040513d6020811015610ca357600080fd5b810190808051906020019092919050505002603201905060006008600560009054906101000a900473ffffffffffffffffffffffffffffffffffffffff1673ffffffffffffffffffffffffffffffffffffffff1663b47711fa896040518263ffffffff1660e01b8152600401808273ffffffffffffffffffffffffffffffffffffffff1673ffffffffffffffffffffffffffffffffffffffff16815260200191505060206040518083038186803b158015610d5d57600080fd5b505afa158015610d71573d6000803e3d6000fd5b505050506040513d6020811015610d8757600080fd5b81019080805190602001909291905050500260500190506000600a600660009054906101000a900473ffffffffffffffffffffffffffffffffffffffff1673ffffffffffffffffffffffffffffffffffffffff1663d0bb9e908a6040518263ffffffff1660e01b8152600401808273ffffffffffffffffffffffffffffffffffffffff1673ffffffffffffffffffffffffffffffffffffffff16815260200191505060206040518083038186803b158015610e4157600080fd5b505afa158015610e55573d6000803e3d6000fd5b505050506040513d6020811015610e6b57600080fd5b810190808051906020019092919050505002606401905060006005600460009054906101000a900473ffffffffffffffffffffffffffffffffffffffff1673ffffffffffffffffffffffffffffffffffffffff1663290585368a6040518263ffffffff1660e01b8152600401808273ffffffffffffffffffffffffffffffffffffffff1673ffffffffffffffffffffffffffffffffffffffff16815260200191505060206040518083038186803b158015610f2557600080fd5b505afa158015610f39573d6000803e3d6000fd5b505050506040513d6020811015610f4f57600080fd5b810190808051906020019092919050505002603201905060006008600560009054906101000a900473ffffffffffffffffffffffffffffffffffffffff1673ffffffffffffffffffffffffffffffffffffffff1663b47711fa8b6040518263ffffffff1660e01b8152600401808273ffffffffffffffffffffffffffffffffffffffff1673ffffffffffffffffffffffffffffffffffffffff16815260200191505060206040518083038186803b15801561100957600080fd5b505afa15801561101d573d6000803e3d6000fd5b505050506040513d602081101561103357600080fd5b81019080805190602001909291905050500260500190506000600a600660009054906101000a900473ffffffffffffffffffffffffffffffffffffffff1673ffffffffffffffffffffffffffffffffffffffff1663d0bb9e908c6040518263ffffffff1660e01b8152600401808273ffffffffffffffffffffffffffffffffffffffff1673ffffffffffffffffffffffffffffffffffffffff16815260200191505060206040518083038186803b1580156110ed57600080fd5b505afa158015611101573d6000803e3d6000fd5b505050506040513d602081101561111757600080fd5b810190808051906020019092919050505002606401905060008090506113c9600660009054906101000a900473ffffffffffffffffffffffffffffffffffffffff1673ffffffffffffffffffffffffffffffffffffffff1663fad28ce48d6040518263ffffffff1660e01b8152600401808273ffffffffffffffffffffffffffffffffffffffff1673ffffffffffffffffffffffffffffffffffffffff16815260200191505060206040518083038186803b1580156111d557600080fd5b505afa1580156111e9573d6000803e3d6000fd5b505050506040513d60208110156111ff57600080fd5b8101908080519060200190929190505050600460009054906101000a900473ffffffffffffffffffffffffffffffffffffffff1673ffffffffffffffffffffffffffffffffffffffff1663a4b1919d8e6040518263ffffffff1660e01b8152600401808273ffffffffffffffffffffffffffffffffffffffff1673ffffffffffffffffffffffffffffffffffffffff16815260200191505060206040518083038186803b1580156112af57600080fd5b505afa1580156112c3573d6000803e3d6000fd5b505050506040513d60208110156112d957600080fd5b8101908080519060200190929190505050600560009054906101000a900473ffffffffffffffffffffffffffffffffffffffff1673ffffffffffffffffffffffffffffffffffffffff1663718963788f6040518263ffffffff1660e01b8152600401808273ffffffffffffffffffffffffffffffffffffffff1673ffffffffffffffffffffffffffffffffffffffff16815260200191505060206040518083038186803b15801561138957600080fd5b505afa15801561139d573d6000803e3d6000fd5b505050506040513d60208110156113b357600080fd5b8101908080519060200190929190505050614b3f565b156114a55761148a60008054600181600116156101000203166002900480601f0160208091040260200160405190810160405280929190818152602001828054600181600116156101000203166002900480156114675780601f1061143c57610100808354040283529160200191611467565b820191906000526020600020905b81548152906001019060200180831161144a57829003601f168201915b5050505050604051806060016040528060248152602001615da160249139610b0a565b6000908051906020019061149f929190615ac6565b50612a39565b5b6014811015612a38576114b88c612a49565b156115a15761157960008054600181600116156101000203166002900480601f0160208091040260200160405190810160405280929190818152602001828054600181600116156101000203166002900480156115565780601f1061152b57610100808354040283529160200191611556565b820191906000526020600020905b81548152906001019060200180831161153957829003601f168201915b50505050506040518060600160405280602d8152602001615d1f602d9139610b0a565b6000908051906020019061158e929190615ac6565b5060019950505050505050505050612a43565b6115aa8b612a49565b156116935761166b60008054600181600116156101000203166002900480601f0160208091040260200160405190810160405280929190818152602001828054600181600116156101000203166002900480156116485780601f1061161d57610100808354040283529160200191611648565b820191906000526020600020905b81548152906001019060200180831161162b57829003601f168201915b5050505050604051806060016040528060338152602001615c6060339139610b0a565b60009080519060200190611680929190615ac6565b5060019950505050505050505050612a43565b600181019050600560009054906101000a900473ffffffffffffffffffffffffffffffffffffffff1673ffffffffffffffffffffffffffffffffffffffff1663718963788c6040518263ffffffff1660e01b8152600401808273ffffffffffffffffffffffffffffffffffffffff1673ffffffffffffffffffffffffffffffffffffffff16815260200191505060206040518083038186803b15801561173857600080fd5b505afa15801561174c573d6000803e3d6000fd5b505050506040513d602081101561176257600080fd5b81019080805190602001909291905050509850600089146120665761185660008054600181600116156101000203166002900480601f0160208091040260200160405190810160405280929190818152602001828054600181600116156101000203166002900480156118165780601f106117eb57610100808354040283529160200191611816565b820191906000526020600020905b8154815290600101906020018083116117f957829003601f168201915b50505050506040518060400160405280601c81526020017f0ae695b5e696b9e5ae88e8a19be88085e584aae58588e694bbe6938a00000000815250610b0a565b6000908051906020019061186b929190615ac6565b50600460009054906101000a900473ffffffffffffffffffffffffffffffffffffffff1673ffffffffffffffffffffffffffffffffffffffff1663a4b1919d8d6040518263ffffffff1660e01b8152600401808273ffffffffffffffffffffffffffffffffffffffff1673ffffffffffffffffffffffffffffffffffffffff16815260200191505060206040518083038186803b15801561190b57600080fd5b505afa15801561191f573d6000803e3d6000fd5b505050506040513d602081101561193557600080fd5b8101908080519060200190929190505050975060008814611b1e57611a2960008054600181600116156101000203166002900480601f0160208091040260200160405190810160405280929190818152602001828054600181600116156101000203166002900480156119e95780601f106119be576101008083540402835291602001916119e9565b820191906000526020600020905b8154815290600101906020018083116119cc57829003601f168201915b50505050506040518060400160405280601981526020017f2ce694bbe6938ae980b2e68891e696b9e7a59ee6a78de6898b00000000000000815250610b0a565b60009080519060200190611a3e929190615ac6565b50611a508b8d600060018d8d8d614c34565b809950819a50829b50505050600460009054906101000a900473ffffffffffffffffffffffffffffffffffffffff1673ffffffffffffffffffffffffffffffffffffffff16633dabc4df8d8a6040518363ffffffff1660e01b8152600401808373ffffffffffffffffffffffffffffffffffffffff1673ffffffffffffffffffffffffffffffffffffffff16815260200182815260200192505050600060405180830381600087803b158015611b0557600080fd5b505af1158015611b19573d6000803e3d6000fd5b505050505b600560009054906101000a900473ffffffffffffffffffffffffffffffffffffffff1673ffffffffffffffffffffffffffffffffffffffff1663718963788d6040518263ffffffff1660e01b8152600401808273ffffffffffffffffffffffffffffffffffffffff1673ffffffffffffffffffffffffffffffffffffffff16815260200191505060206040518083038186803b158015611bbd57600080fd5b505afa158015611bd1573d6000803e3d6000fd5b505050506040513d6020811015611be757600080fd5b8101908080519060200190929190505050975060008914158015611c0c575060008814155b15611dc157611ccd60008054600181600116156101000203166002900480601f016020809104026020016040519081016040528092919081815260200182805460018160011615610100020316600290048015611caa5780601f10611c7f57610100808354040283529160200191611caa565b820191906000526020600020905b815481529060010190602001808311611c8d57829003601f168201915b5050505050604051806060016040528060318152602001615d7060319139610b0a565b60009080519060200190611ce2929190615ac6565b50611cf38b8d6000808d8d8c614c34565b809850819a50829b50505050600560009054906101000a900473ffffffffffffffffffffffffffffffffffffffff1673ffffffffffffffffffffffffffffffffffffffff1663dda0a3bf8d8a6040518363ffffffff1660e01b8152600401808373ffffffffffffffffffffffffffffffffffffffff1673ffffffffffffffffffffffffffffffffffffffff16815260200182815260200192505050600060405180830381600087803b158015611da857600080fd5b505af1158015611dbc573d6000803e3d6000fd5b505050505b600660009054906101000a900473ffffffffffffffffffffffffffffffffffffffff1673ffffffffffffffffffffffffffffffffffffffff1663fad28ce48d6040518263ffffffff1660e01b8152600401808273ffffffffffffffffffffffffffffffffffffffff1673ffffffffffffffffffffffffffffffffffffffff16815260200191505060206040518083038186803b158015611e6057600080fd5b505afa158015611e74573d6000803e3d6000fd5b505050506040513d6020811015611e8a57600080fd5b8101908080519060200190929190505050975060008914158015611eaf575060008814155b1561206557611f7060008054600181600116156101000203166002900480601f016020809104026020016040519081016040528092919081815260200182805460018160011615610100020316600290048015611f4d5780601f10611f2257610100808354040283529160200191611f4d565b820191906000526020600020905b815481529060010190602001808311611f3057829003601f168201915b50505050506040518060600160405280602e8152602001615bb8602e9139610b0a565b60009080519060200190611f85929190615ac6565b50611f978b8d600060028d8d8b614c34565b809750819a50829b50505050600660009054906101000a900473ffffffffffffffffffffffffffffffffffffffff1673ffffffffffffffffffffffffffffffffffffffff16632b16a5648d8a6040518363ffffffff1660e01b8152600401808373ffffffffffffffffffffffffffffffffffffffff1673ffffffffffffffffffffffffffffffffffffffff16815260200182815260200192505050600060405180830381600087803b15801561204c57600080fd5b505af1158015612060573d6000803e3d6000fd5b505050505b5b600460009054906101000a900473ffffffffffffffffffffffffffffffffffffffff1673ffffffffffffffffffffffffffffffffffffffff1663a4b1919d8d6040518263ffffffff1660e01b8152600401808273ffffffffffffffffffffffffffffffffffffffff1673ffffffffffffffffffffffffffffffffffffffff16815260200191505060206040518083038186803b15801561210557600080fd5b505afa158015612119573d6000803e3d6000fd5b505050506040513d602081101561212f57600080fd5b8101908080519060200190929190505050985060008914612a335761222360008054600181600116156101000203166002900480601f0160208091040260200160405190810160405280929190818152602001828054600181600116156101000203166002900480156121e35780601f106121b8576101008083540402835291602001916121e3565b820191906000526020600020905b8154815290600101906020018083116121c657829003601f168201915b50505050506040518060400160405280601681526020017f0ae68891e696b9e7a59ee6a78de6898be694bbe6938a00000000000000000000815250610b0a565b60009080519060200190612238929190615ac6565b50600460009054906101000a900473ffffffffffffffffffffffffffffffffffffffff1673ffffffffffffffffffffffffffffffffffffffff1663a4b1919d8c6040518263ffffffff1660e01b8152600401808273ffffffffffffffffffffffffffffffffffffffff1673ffffffffffffffffffffffffffffffffffffffff16815260200191505060206040518083038186803b1580156122d857600080fd5b505afa1580156122ec573d6000803e3d6000fd5b505050506040513d602081101561230257600080fd5b81019080805190602001909291905050509750600088146124ea576123f660008054600181600116156101000203166002900480601f0160208091040260200160405190810160405280929190818152602001828054600181600116156101000203166002900480156123b65780601f1061238b576101008083540402835291602001916123b6565b820191906000526020600020905b81548152906001019060200180831161239957829003601f168201915b50505050506040518060400160405280601681526020017f2ce694bbe6938ae695b5e696b9e7a59ee6a78de6898b00000000000000000000815250610b0a565b6000908051906020019061240b929190615ac6565b5061241c8c8c6001808d8d8a614c34565b809650819a50829b50505050600460009054906101000a900473ffffffffffffffffffffffffffffffffffffffff1673ffffffffffffffffffffffffffffffffffffffff16633dabc4df8c8a6040518363ffffffff1660e01b8152600401808373ffffffffffffffffffffffffffffffffffffffff1673ffffffffffffffffffffffffffffffffffffffff16815260200182815260200192505050600060405180830381600087803b1580156124d157600080fd5b505af11580156124e5573d6000803e3d6000fd5b505050505b600560009054906101000a900473ffffffffffffffffffffffffffffffffffffffff1673ffffffffffffffffffffffffffffffffffffffff1663718963788c6040518263ffffffff1660e01b8152600401808273ffffffffffffffffffffffffffffffffffffffff1673ffffffffffffffffffffffffffffffffffffffff16815260200191505060206040518083038186803b15801561258957600080fd5b505afa15801561259d573d6000803e3d6000fd5b505050506040513d60208110156125b357600080fd5b81019080805190602001909291905050509750600089141580156125d8575060008814155b1561278e5761269960008054600181600116156101000203166002900480601f0160208091040260200160405190810160405280929190818152602001828054600181600116156101000203166002900480156126765780601f1061264b57610100808354040283529160200191612676565b820191906000526020600020905b81548152906001019060200180831161265957829003601f168201915b5050505050604051806060016040528060318152602001615be660319139610b0a565b600090805190602001906126ae929190615ac6565b506126c08c8c600160008d8d89614c34565b809550819a50829b50505050600560009054906101000a900473ffffffffffffffffffffffffffffffffffffffff1673ffffffffffffffffffffffffffffffffffffffff1663dda0a3bf8c8a6040518363ffffffff1660e01b8152600401808373ffffffffffffffffffffffffffffffffffffffff1673ffffffffffffffffffffffffffffffffffffffff16815260200182815260200192505050600060405180830381600087803b15801561277557600080fd5b505af1158015612789573d6000803e3d6000fd5b505050505b600660009054906101000a900473ffffffffffffffffffffffffffffffffffffffff1673ffffffffffffffffffffffffffffffffffffffff1663fad28ce48c6040518263ffffffff1660e01b8152600401808273ffffffffffffffffffffffffffffffffffffffff1673ffffffffffffffffffffffffffffffffffffffff16815260200191505060206040518083038186803b15801561282d57600080fd5b505afa158015612841573d6000803e3d6000fd5b505050506040513d602081101561285757600080fd5b810190808051906020019092919050505097506000891415801561287c575060008814155b15612a325761293d60008054600181600116156101000203166002900480601f01602080910402602001604051908101604052809291908181526020018280546001816001161561010002031660029004801561291a5780601f106128ef5761010080835404028352916020019161291a565b820191906000526020600020905b8154815290600101906020018083116128fd57829003601f168201915b50505050506040518060600160405280602e8152602001615c93602e9139610b0a565b60009080519060200190612952929190615ac6565b506129648c8c600160028d8d88614c34565b809450819a50829b50505050600660009054906101000a900473ffffffffffffffffffffffffffffffffffffffff1673ffffffffffffffffffffffffffffffffffffffff16632b16a5648c8a6040518363ffffffff1660e01b8152600401808373ffffffffffffffffffffffffffffffffffffffff1673ffffffffffffffffffffffffffffffffffffffff16815260200182815260200192505050600060405180830381600087803b158015612a1957600080fd5b505af1158015612a2d573d6000803e3d6000fd5b505050505b5b6114a6565b5b5050505050505050505b92915050565b600080600660009054906101000a900473ffffffffffffffffffffffffffffffffffffffff1673ffffffffffffffffffffffffffffffffffffffff1663fad28ce4846040518263ffffffff1660e01b8152600401808273ffffffffffffffffffffffffffffffffffffffff1673ffffffffffffffffffffffffffffffffffffffff16815260200191505060206040518083038186803b158015612aeb57600080fd5b505afa158015612aff573d6000803e3d6000fd5b505050506040513d6020811015612b1557600080fd5b8101908080519060200190929190505050600560009054906101000a900473ffffffffffffffffffffffffffffffffffffffff1673ffffffffffffffffffffffffffffffffffffffff166371896378856040518263ffffffff1660e01b8152600401808273ffffffffffffffffffffffffffffffffffffffff1673ffffffffffffffffffffffffffffffffffffffff16815260200191505060206040518083038186803b158015612bc557600080fd5b505afa158015612bd9573d6000803e3d6000fd5b505050506040513d6020811015612bef57600080fd5b8101908080519060200190929190505050600460009054906101000a900473ffffffffffffffffffffffffffffffffffffffff1673ffffffffffffffffffffffffffffffffffffffff1663a4b1919d866040518263ffffffff1660e01b8152600401808273ffffffffffffffffffffffffffffffffffffffff1673ffffffffffffffffffffffffffffffffffffffff16815260200191505060206040518083038186803b158015612c9f57600080fd5b505afa158015612cb3573d6000803e3d6000fd5b505050506040513d6020811015612cc957600080fd5b810190808051906020019092919050505001011415612ceb5760019050612cf0565b600090505b919050565b6000803390506000600860009054906101000a900473ffffffffffffffffffffffffffffffffffffffff1673ffffffffffffffffffffffffffffffffffffffff1663f4ab27f0856040518263ffffffff1660e01b81526004018082815260200191505060206040518083038186803b158015612d7057600080fd5b505afa158015612d84573d6000803e3d6000fd5b505050506040513d6020811015612d9a57600080fd5b810190808051906020019092919050505090506000600160008473ffffffffffffffffffffffffffffffffffffffff1673ffffffffffffffffffffffffffffffffffffffff1681526020019081526020016000205414612dff5760009250505061317f565b6000600860009054906101000a900473ffffffffffffffffffffffffffffffffffffffff1673ffffffffffffffffffffffffffffffffffffffff16631e9ac0bf84606460006064600060646040518763ffffffff1660e01b8152600401808773ffffffffffffffffffffffffffffffffffffffff1673ffffffffffffffffffffffffffffffffffffffff1681526020018681526020018581526020018481526020018381526020018281526020019650505050505050602060405180830381600087803b158015612ecf57600080fd5b505af1158015612ee3573d6000803e3d6000fd5b505050506040513d6020811015612ef957600080fd5b81019080805190602001909291905050509050809050600015158115151415612f28576000935050505061317f565b42600160008573ffffffffffffffffffffffffffffffffffffffff1673ffffffffffffffffffffffffffffffffffffffff168152602001908152602001600020819055506014600260008573ffffffffffffffffffffffffffffffffffffffff1673ffffffffffffffffffffffffffffffffffffffff16815260200190815260200160002081905550600860009054906101000a900473ffffffffffffffffffffffffffffffffffffffff1673ffffffffffffffffffffffffffffffffffffffff1663ec6daa3083600186600160008973ffffffffffffffffffffffffffffffffffffffff1673ffffffffffffffffffffffffffffffffffffffff16815260200190815260200160002054600260008a73ffffffffffffffffffffffffffffffffffffffff1673ffffffffffffffffffffffffffffffffffffffff168152602001908152602001600020546040518663ffffffff1660e01b8152600401808673ffffffffffffffffffffffffffffffffffffffff1673ffffffffffffffffffffffffffffffffffffffff168152602001851515151581526020018473ffffffffffffffffffffffffffffffffffffffff1673ffffffffffffffffffffffffffffffffffffffff16815260200183815260200182815260200195505050505050600060405180830381600087803b15801561312157600080fd5b505af1158015613135573d6000803e3d6000fd5b50505050600260008473ffffffffffffffffffffffffffffffffffffffff1673ffffffffffffffffffffffffffffffffffffffff1681526020019081526020016000205493505050505b919050565b600080600160008473ffffffffffffffffffffffffffffffffffffffff1673ffffffffffffffffffffffffffffffffffffffff1681526020019081526020016000205414156131d6576000905061339c565b613267600260008473ffffffffffffffffffffffffffffffffffffffff1673ffffffffffffffffffffffffffffffffffffffff16815260200190815260200160002054600160008573ffffffffffffffffffffffffffffffffffffffff1673ffffffffffffffffffffffffffffffffffffffff1681526020019081526020016000205461579e90919063ffffffff16565b4210613300576000600160008473ffffffffffffffffffffffffffffffffffffffff1673ffffffffffffffffffffffffffffffffffffffff168152602001908152602001600020819055506000600260008473ffffffffffffffffffffffffffffffffffffffff1673ffffffffffffffffffffffffffffffffffffffff168152602001908152602001600020819055506000905061339c565b600061339542600260008673ffffffffffffffffffffffffffffffffffffffff1673ffffffffffffffffffffffffffffffffffffffff16815260200190815260200160002054600160008773ffffffffffffffffffffffffffffffffffffffff1673ffffffffffffffffffffffffffffffffffffffff168152602001908152602001600020540161582690919063ffffffff16565b9050809150505b919050565b600080600760009054906101000a900473ffffffffffffffffffffffffffffffffffffffff1673ffffffffffffffffffffffffffffffffffffffff16639073af81846040518263ffffffff1660e01b8152600401808273ffffffffffffffffffffffffffffffffffffffff1673ffffffffffffffffffffffffffffffffffffffff16815260200191505060206040518083038186803b15801561344357600080fd5b505afa158015613457573d6000803e3d6000fd5b505050506040513d602081101561346d57600080fd5b8101908080519060200190929190505050141561348d5760009050613e88565b613652600760009054906101000a900473ffffffffffffffffffffffffffffffffffffffff1673ffffffffffffffffffffffffffffffffffffffff1663b5c3e402846040518263ffffffff1660e01b8152600401808273ffffffffffffffffffffffffffffffffffffffff1673ffffffffffffffffffffffffffffffffffffffff16815260200191505060206040518083038186803b15801561352f57600080fd5b505afa158015613543573d6000803e3d6000fd5b505050506040513d602081101561355957600080fd5b8101908080519060200190929190505050600760009054906101000a900473ffffffffffffffffffffffffffffffffffffffff1673ffffffffffffffffffffffffffffffffffffffff16639073af81856040518263ffffffff1660e01b8152600401808273ffffffffffffffffffffffffffffffffffffffff1673ffffffffffffffffffffffffffffffffffffffff16815260200191505060206040518083038186803b15801561360957600080fd5b505afa15801561361d573d6000803e3d6000fd5b505050506040513d602081101561363357600080fd5b810190808051906020019092919050505061579e90919063ffffffff16565b4210613cb85760006138d36137eb600760009054906101000a900473ffffffffffffffffffffffffffffffffffffffff1673ffffffffffffffffffffffffffffffffffffffff16634807c3d56040518163ffffffff1660e01b815260040160206040518083038186803b1580156136c857600080fd5b505afa1580156136dc573d6000803e3d6000fd5b505050506040513d60208110156136f257600080fd5b8101908080519060200190929190505050600760009054906101000a900473ffffffffffffffffffffffffffffffffffffffff1673ffffffffffffffffffffffffffffffffffffffff1663de634152876040518263ffffffff1660e01b8152600401808273ffffffffffffffffffffffffffffffffffffffff1673ffffffffffffffffffffffffffffffffffffffff16815260200191505060206040518083038186803b1580156137a257600080fd5b505afa1580156137b6573d6000803e3d6000fd5b505050506040513d60208110156137cc57600080fd5b810190808051906020019092919050505061587090919063ffffffff16565b600760009054906101000a900473ffffffffffffffffffffffffffffffffffffffff1673ffffffffffffffffffffffffffffffffffffffff1663b5c3e402866040518263ffffffff1660e01b8152600401808273ffffffffffffffffffffffffffffffffffffffff1673ffffffffffffffffffffffffffffffffffffffff16815260200191505060206040518083038186803b15801561388a57600080fd5b505afa15801561389e573d6000803e3d6000fd5b505050506040513d60208110156138b457600080fd5b81019080805190602001909291905050506158f690919063ffffffff16565b9050600760009054906101000a900473ffffffffffffffffffffffffffffffffffffffff1673ffffffffffffffffffffffffffffffffffffffff16632d96a77b8483600760009054906101000a900473ffffffffffffffffffffffffffffffffffffffff1673ffffffffffffffffffffffffffffffffffffffff1663af3437ae886040518263ffffffff1660e01b8152600401808273ffffffffffffffffffffffffffffffffffffffff1673ffffffffffffffffffffffffffffffffffffffff16815260200191505060206040518083038186803b1580156139b457600080fd5b505afa1580156139c8573d6000803e3d6000fd5b505050506040513d60208110156139de57600080fd5b8101908080519060200190929190505050016040518363ffffffff1660e01b8152600401808373ffffffffffffffffffffffffffffffffffffffff1673ffffffffffffffffffffffffffffffffffffffff16815260200182815260200192505050600060405180830381600087803b158015613a5957600080fd5b505af1158015613a6d573d6000803e3d6000fd5b50505050600760009054906101000a900473ffffffffffffffffffffffffffffffffffffffff1673ffffffffffffffffffffffffffffffffffffffff16638ed972028460006040518363ffffffff1660e01b8152600401808373ffffffffffffffffffffffffffffffffffffffff1673ffffffffffffffffffffffffffffffffffffffff16815260200182815260200192505050600060405180830381600087803b158015613b1b57600080fd5b505af1158015613b2f573d6000803e3d6000fd5b50505050600760009054906101000a900473ffffffffffffffffffffffffffffffffffffffff1673ffffffffffffffffffffffffffffffffffffffff1663801e95908460006040518363ffffffff1660e01b8152600401808373ffffffffffffffffffffffffffffffffffffffff1673ffffffffffffffffffffffffffffffffffffffff16815260200182815260200192505050600060405180830381600087803b158015613bdd57600080fd5b505af1158015613bf1573d6000803e3d6000fd5b50505050600760009054906101000a900473ffffffffffffffffffffffffffffffffffffffff1673ffffffffffffffffffffffffffffffffffffffff1663f6716496846040518263ffffffff1660e01b8152600401808273ffffffffffffffffffffffffffffffffffffffff1673ffffffffffffffffffffffffffffffffffffffff168152602001915050600060405180830381600087803b158015613c9657600080fd5b505af1158015613caa573d6000803e3d6000fd5b505050506000915050613e88565b6000613e8142600760009054906101000a900473ffffffffffffffffffffffffffffffffffffffff1673ffffffffffffffffffffffffffffffffffffffff1663b5c3e402866040518263ffffffff1660e01b8152600401808273ffffffffffffffffffffffffffffffffffffffff1673ffffffffffffffffffffffffffffffffffffffff16815260200191505060206040518083038186803b158015613d5d57600080fd5b505afa158015613d71573d6000803e3d6000fd5b505050506040513d6020811015613d8757600080fd5b8101908080519060200190929190505050600760009054906101000a900473ffffffffffffffffffffffffffffffffffffffff1673ffffffffffffffffffffffffffffffffffffffff16639073af81876040518263ffffffff1660e01b8152600401808273ffffffffffffffffffffffffffffffffffffffff1673ffffffffffffffffffffffffffffffffffffffff16815260200191505060206040518083038186803b158015613e3757600080fd5b505afa158015613e4b573d6000803e3d6000fd5b505050506040513d6020811015613e6157600080fd5b81019080805190602001909291905050500161582690919063ffffffff16565b9050809150505b919050565b6000803390506000600760009054906101000a900473ffffffffffffffffffffffffffffffffffffffff1673ffffffffffffffffffffffffffffffffffffffff16639073af81836040518263ffffffff1660e01b8152600401808273ffffffffffffffffffffffffffffffffffffffff1673ffffffffffffffffffffffffffffffffffffffff16815260200191505060206040518083038186803b158015613f3457600080fd5b505afa158015613f48573d6000803e3d6000fd5b505050506040513d6020811015613f5e57600080fd5b810190808051906020019092919050505014613f7e576000915050614464565b600080600760009054906101000a900473ffffffffffffffffffffffffffffffffffffffff1673ffffffffffffffffffffffffffffffffffffffff1663a7e3cce184876040518363ffffffff1660e01b8152600401808373ffffffffffffffffffffffffffffffffffffffff1673ffffffffffffffffffffffffffffffffffffffff16815260200182815260200192505050602060405180830381600087803b15801561402a57600080fd5b505af115801561403e573d6000803e3d6000fd5b505050506040513d602081101561405457600080fd5b81019080805190602001909291905050509150600760009054906101000a900473ffffffffffffffffffffffffffffffffffffffff1673ffffffffffffffffffffffffffffffffffffffff1663de634152846040518263ffffffff1660e01b8152600401808273ffffffffffffffffffffffffffffffffffffffff1673ffffffffffffffffffffffffffffffffffffffff16815260200191505060206040518083038186803b15801561410657600080fd5b505afa15801561411a573d6000803e3d6000fd5b505050506040513d602081101561413057600080fd5b8101908080519060200190929190505050905060001515821515141561415c5760009350505050614464565b600760009054906101000a900473ffffffffffffffffffffffffffffffffffffffff1673ffffffffffffffffffffffffffffffffffffffff16638ed9720284426040518363ffffffff1660e01b8152600401808373ffffffffffffffffffffffffffffffffffffffff1673ffffffffffffffffffffffffffffffffffffffff16815260200182815260200192505050600060405180830381600087803b15801561420557600080fd5b505af1158015614219573d6000803e3d6000fd5b50505050600760009054906101000a900473ffffffffffffffffffffffffffffffffffffffff1673ffffffffffffffffffffffffffffffffffffffff1663801e9590848784600760009054906101000a900473ffffffffffffffffffffffffffffffffffffffff1673ffffffffffffffffffffffffffffffffffffffff16634807c3d56040518163ffffffff1660e01b815260040160206040518083038186803b1580156142c657600080fd5b505afa1580156142da573d6000803e3d6000fd5b505050506040513d60208110156142f057600080fd5b810190808051906020019092919050505002026040518363ffffffff1660e01b8152600401808373ffffffffffffffffffffffffffffffffffffffff1673ffffffffffffffffffffffffffffffffffffffff16815260200182815260200192505050600060405180830381600087803b15801561436c57600080fd5b505af1158015614380573d6000803e3d6000fd5b50505050600760009054906101000a900473ffffffffffffffffffffffffffffffffffffffff1673ffffffffffffffffffffffffffffffffffffffff1663b5c3e402846040518263ffffffff1660e01b8152600401808273ffffffffffffffffffffffffffffffffffffffff1673ffffffffffffffffffffffffffffffffffffffff16815260200191505060206040518083038186803b15801561442357600080fd5b505afa158015614437573d6000803e3d6000fd5b505050506040513d602081101561444d57600080fd5b810190808051906020019092919050505093505050505b919050565b6000600460009054906101000a900473ffffffffffffffffffffffffffffffffffffffff1673ffffffffffffffffffffffffffffffffffffffff1663a4b1919d836040518263ffffffff1660e01b8152600401808273ffffffffffffffffffffffffffffffffffffffff1673ffffffffffffffffffffffffffffffffffffffff16815260200191505060206040518083038186803b15801561450a57600080fd5b505afa15801561451e573d6000803e3d6000fd5b505050506040513d602081101561453457600080fd5b81019080805190602001909291905050509050919050565b600360009054906101000a900473ffffffffffffffffffffffffffffffffffffffff1673ffffffffffffffffffffffffffffffffffffffff166321241b3f3384846040518463ffffffff1660e01b8152600401808473ffffffffffffffffffffffffffffffffffffffff1673ffffffffffffffffffffffffffffffffffffffff16815260200180602001848152602001838152602001828103825260078152602001807f4261727261636b00000000000000000000000000000000000000000000000000815250602001945050505050602060405180830381600087803b15801561463657600080fd5b505af115801561464a573d6000803e3d6000fd5b505050506040513d602081101561466057600080fd5b810190808051906020019092919050505050600460009054906101000a900473ffffffffffffffffffffffffffffffffffffffff1673ffffffffffffffffffffffffffffffffffffffff16636f58051b3360016040518363ffffffff1660e01b8152600401808373ffffffffffffffffffffffffffffffffffffffff1673ffffffffffffffffffffffffffffffffffffffff16815260200182815260200192505050600060405180830381600087803b15801561471c57600080fd5b505af1158015614730573d6000803e3d6000fd5b50505050600760009054906101000a900473ffffffffffffffffffffffffffffffffffffffff1673ffffffffffffffffffffffffffffffffffffffff16630de12cb33360016040518363ffffffff1660e01b8152600401808373ffffffffffffffffffffffffffffffffffffffff1673ffffffffffffffffffffffffffffffffffffffff16815260200182815260200192505050600060405180830381600087803b1580156147de57600080fd5b505af11580156147f2573d6000803e3d6000fd5b50505050600560009054906101000a900473ffffffffffffffffffffffffffffffffffffffff1673ffffffffffffffffffffffffffffffffffffffff166324ab6dc53360016040518363ffffffff1660e01b8152600401808373ffffffffffffffffffffffffffffffffffffffff1673ffffffffffffffffffffffffffffffffffffffff16815260200182815260200192505050600060405180830381600087803b1580156148a057600080fd5b505af11580156148b4573d6000803e3d6000fd5b50505050600660009054906101000a900473ffffffffffffffffffffffffffffffffffffffff1673ffffffffffffffffffffffffffffffffffffffff16639e72a7e03360016040518363ffffffff1660e01b8152600401808373ffffffffffffffffffffffffffffffffffffffff1673ffffffffffffffffffffffffffffffffffffffff16815260200182815260200192505050600060405180830381600087803b15801561496257600080fd5b505af1158015614976573d6000803e3d6000fd5b50505050600960009054906101000a900473ffffffffffffffffffffffffffffffffffffffff1673ffffffffffffffffffffffffffffffffffffffff1663afbfd6443360016040518363ffffffff1660e01b8152600401808373ffffffffffffffffffffffffffffffffffffffff1673ffffffffffffffffffffffffffffffffffffffff16815260200182815260200192505050600060405180830381600087803b158015614a2457600080fd5b505af1158015614a38573d6000803e3d6000fd5b505050505050565b60016020528060005260406000206000915090505481565b5050565b6000600760009054906101000a900473ffffffffffffffffffffffffffffffffffffffff1673ffffffffffffffffffffffffffffffffffffffff1663e21843fd836040518263ffffffff1660e01b8152600401808273ffffffffffffffffffffffffffffffffffffffff1673ffffffffffffffffffffffffffffffffffffffff16815260200191505060206040518083038186803b158015614afd57600080fd5b505afa158015614b11573d6000803e3d6000fd5b505050506040513d6020811015614b2757600080fd5b81019080805190602001909291905050509050919050565b60008082848601011415614b565760019050614b5b565b600090505b9392505050565b6000806000600160003373ffffffffffffffffffffffffffffffffffffffff1673ffffffffffffffffffffffffffffffffffffffff16815260200190815260200160002054600160003373ffffffffffffffffffffffffffffffffffffffff1673ffffffffffffffffffffffffffffffffffffffff168152602001908152602001600020544203600260003373ffffffffffffffffffffffffffffffffffffffff1673ffffffffffffffffffffffffffffffffffffffff16815260200190815260200160002054925092509250909192565b6000806000614c41615b46565b600081600001818152505060008160600181815250506000891415614c845780600001516004026028018160200181815250506001816040018181525050614cdc565b6001891415614cb1578060000151600302601e018160200181815250506002816040018181525050614cdb565b6002891415614cda578060000151600a0260640181602001818152505060018160400181815250505b5b5b6000881415614d1257806060015160080260500181608001818152505080606001516002026014018160a0018181525050614d7c565b6001881415614d485780606001516005026032018160800181815250508060600151600102600a018160a0018181525050614d7b565b6002881415614d7a578060600151600a0260640181608001818152505080606001516003026000018160a00181815250505b5b5b80602001518160a0015110614e7057614e4760008054600181600116156101000203166002900480601f016020809104026020016040519081016040528092919081815260200182805460018160011615610100020316600290048015614e245780601f10614df957610100808354040283529160200191614e24565b820191906000526020600020905b815481529060010190602001808311614e0757829003601f168201915b50505050506040518060600160405280603d8152602001615ce2603d9139610b0a565b60009080519060200190614e5c929190615ac6565b506000868682925093509350935050615791565b80604001518160a00151826020015103028160c0018181525050806080015185146150ec5760008160c001518681614ea457fe5b061415614ec7578060c001518581614eb857fe5b048160e0018181525050614ee2565b60018160c001518681614ed657fe5b04018160e00181815250505b8060e001518710614ff757614fc660008054600181600116156101000203166002900480601f016020809104026020016040519081016040528092919081815260200182805460018160011615610100020316600290048015614f865780601f10614f5b57610100808354040283529160200191614f86565b820191906000526020600020905b815481529060010190602001808311614f6957829003601f168201915b50505050506040518060400160405280601981526020017f0ae58f97e582b7e596aee4bd8de58f97e588b0e6938ae6aeba00000000000000815250610b0a565b60009080519060200190614fdb929190615ac6565b508060e0015187039650806080015194506001860395506150eb565b8060c001518702850394506150be60008054600181600116156101000203166002900480601f01602080910402602001604051908101604052809291908181526020018280546001816001161561010002031660029004801561509b5780601f106150705761010080835404028352916020019161509b565b820191906000526020600020905b81548152906001019060200180831161507e57829003601f168201915b5050505050604051806080016040528060498152602001615c1760499139610b0a565b600090805190602001906150d3929190615ac6565b50600096506000868682925093509350935050615791565b5b60008714156151f7576151ce60008054600181600116156101000203166002900480601f01602080910402602001604051908101604052809291908181526020018280546001816001161561010002031660029004801561518e5780601f106151635761010080835404028352916020019161518e565b820191906000526020600020905b81548152906001019060200180831161517157829003601f168201915b50505050506040518060400160405280600d81526020017f0ae980b2e694bbe7b590e69d9f00000000000000000000000000000000000000815250610b0a565b600090805190602001906151e3929190615ac6565b506000868682925093509350935050615791565b60008160c0015182608001518161520a57fe5b061415615232578060c0015181608001518161522257fe5b0481610100018181525050615252565b60018160c0015182608001518161524557fe5b0401816101000181815250505b6000816101000151888161526257fe5b04146155b65785816101000151888161527757fe5b04106153935761535660008054600181600116156101000203166002900480601f0160208091040260200160405190810160405280929190818152602001828054600181600116156101000203166002900480156153165780601f106152eb57610100808354040283529160200191615316565b820191906000526020600020905b8154815290600101906020018083116152f957829003601f168201915b50505050506040518060400160405280601081526020017f0ae998b2e5ae88e696b9e585a8e6bb8500000000000000000000000000000000815250610b0a565b6000908051906020019061536b929190615ac6565b5085816101000151028703965060009550866000826080015181915093509350935050615791565b61546c60008054600181600116156101000203166002900480601f01602080910402602001604051908101604052809291908181526020018280546001816001161561010002031660029004801561542c5780601f106154015761010080835404028352916020019161542c565b820191906000526020600020905b81548152906001019060200180831161540f57829003601f168201915b50505050506040518060400160405280601b81526020017f0ae6b688e6bb85e998b2e5ae88e696b97878e5908de596aee4bd8d0000000000815250610b0a565b60009080519060200190615481929190615ac6565b50806101000151878161549057fe5b048603955080610100015187816154a357fe5b06965060008714156155b55761558860008054600181600116156101000203166002900480601f0160208091040260200160405190810160405280929190818152602001828054600181600116156101000203166002900480156155485780601f1061551d57610100808354040283529160200191615548565b820191906000526020600020905b81548152906001019060200180831161552b57829003601f168201915b50505050506040518060400160405280600d81526020017f0ae980b2e694bbe7b590e69d9f00000000000000000000000000000000000000815250610b0a565b6000908051906020019061559d929190615ac6565b50600086826080015182925093509350935050615791565b5b8060c0015187028503945061567d60008054600181600116156101000203166002900480601f01602080910402602001604051908101604052809291908181526020018280546001816001161561010002031660029004801561565a5780601f1061562f5761010080835404028352916020019161565a565b820191906000526020600020905b81548152906001019060200180831161563d57829003601f168201915b5050505050604051806060016040528060248152602001615d4c60249139610b0a565b60009080519060200190615692929190615ac6565b5061576c60008054600181600116156101000203166002900480601f01602080910402602001604051908101604052809291908181526020018280546001816001161561010002031660029004801561572c5780601f106157015761010080835404028352916020019161572c565b820191906000526020600020905b81548152906001019060200180831161570f57829003601f168201915b50505050506040518060400160405280600d81526020017f0ae980b2e694bbe7b590e69d9f00000000000000000000000000000000000000815250610b0a565b60009080519060200190615781929190615ac6565b5060009650868686935093509350505b9750975097945050505050565b60008082840190508381101561581c576040517f08c379a000000000000000000000000000000000000000000000000000000000815260040180806020018281038252601b8152602001807f536166654d6174683a206164646974696f6e206f766572666c6f77000000000081525060200191505060405180910390fd5b8091505092915050565b600061586883836040518060400160405280601e81526020017f536166654d6174683a207375627472616374696f6e206f766572666c6f770000815250615940565b905092915050565b60008083141561588357600090506158f0565b600082840290508284828161589457fe5b04146158eb576040517f08c379a0000000000000000000000000000000000000000000000000000000008152600401808060200182810382526021815260200180615cc16021913960400191505060405180910390fd5b809150505b92915050565b600061593883836040518060400160405280601a81526020017f536166654d6174683a206469766973696f6e206279207a65726f000000000000815250615a00565b905092915050565b60008383111582906159ed576040517f08c379a00000000000000000000000000000000000000000000000000000000081526004018080602001828103825283818151815260200191508051906020019080838360005b838110156159b2578082015181840152602081019050615997565b50505050905090810190601f1680156159df5780820380516001836020036101000a031916815260200191505b509250505060405180910390fd5b5060008385039050809150509392505050565b60008083118290615aac576040517f08c379a00000000000000000000000000000000000000000000000000000000081526004018080602001828103825283818151815260200191508051906020019080838360005b83811015615a71578082015181840152602081019050615a56565b50505050905090810190601f168015615a9e5780820380516001836020036101000a031916815260200191505b509250505060405180910390fd5b506000838581615ab857fe5b049050809150509392505050565b828054600181600116156101000203166002900490600052602060002090601f016020900481019282601f10615b0757805160ff1916838001178555615b35565b82800160010185558215615b35579182015b82811115615b34578251825591602001919060010190615b19565b5b509050615b429190615b92565b5090565b6040518061012001604052806000815260200160008152602001600081526020016000815260200160008152602001600081526020016000815260200160008152602001600081525090565b615bb491905b80821115615bb0576000816000905550600101615b98565b5090565b9056fe0ae5b09ae69c89e980b2e694bbe596aee4bd8defbc8ce7b9bce7ba8ce694bbe6938ae68891e696b9e781abe7a0b20ae5b09ae69c89e980b2e694bbe596aee4bd8defbc8ce7b9bce7ba8ce694bbe6938ae695b5e696b9e5ae88e8a19be880850ae980b2e694bbe696b9e585a8e9ab94e980b2e8a18ce694bbe6938aefbc8ce4bdbfe58f97e582b7e596aee4bd8de589a9e9a4987878e7949fe591bd0ae980b2e694bbe7b590e69d9fe695b5e696b9e5ae88e8bb8de981ade588b0e585a8e695b8e6aeb2e6bb85efbc8ce68891e696b9e980b2e694bbe78db2e58b9d0ae5b09ae69c89e980b2e694bbe596aee4bd8defbc8ce7b9bce7ba8ce694bbe6938ae695b5e696b9e781abe7a0b2536166654d6174683a206d756c7469706c69636174696f6e206f766572666c6f770ae68c87e5ae9ae585b5e7a8aee8adb7e794b2e9818ee9ab98efbc8ce980b2e694bbe88085e784a1e6b395e980a0e68890e69c89e69588e582b7e5aeb3e68891e696b9e981ade588b0e585a8e695b8e6aeb2e6bb85efbc8ce695b5e696b9e998b2e5ae88e68890e58a9f0ae998b2e5ae88e596aee4bd8de58f97e582b7efbc8ce589a9e9a4987878e7949fe591bd0ae5b09ae69c89e980b2e694bbe596aee4bd8defbc8ce7b9bce7ba8ce694bbe6938ae68891e696b9e5ae88e8a19be88085e998b2e5ae88e696b9e784a1e585b5e58a9befbc8ce980b2e694bbe696b9e78db2e58b9da265627a7a7231582090447986b2ec574b24dcf356f0bc55d5ad1ff4d232729184f14cc2e9de252ac764736f6c63430005100032",
  "source": "pragma solidity >=0.4.21 <0.7.0;\n\nimport \"./SafeMath.sol\";\nimport \"./BuildingFactory.sol\";\nimport \"./Soldier.sol\";\nimport \"./Spy.sol\";\nimport \"./Cannon.sol\";\nimport \"./Protector.sol\";\nimport \"./Wall.sol\";\n\ncontract Barrack {\n\n    using SafeMath for uint;\n    string battleLog = \"\\n\" ; \n\n    mapping (address => uint) public ownerStartMarchTime;\n    mapping (address => uint) public ownerTotalMarchTime;\n\n    BuildingFactory buildingInstance;\n    Soldier soldierInstance;\n    Protector ProtectorInstance;\n    Cannon CannonInstance;\n    Spy SpyInstance;\n    Account AccountInstance;\n    Wall WallInstance;\n    constructor(address _building_address, address _soldier_address, address _spy_instance, address _cannon_instance, address _protector_instance, address _wall_instance, address _account_instance) public {\n        buildingInstance = BuildingFactory(_building_address);\n        soldierInstance = Soldier(_soldier_address);\n        SpyInstance = Spy(_spy_instance);\n        ProtectorInstance = Protector(_protector_instance);\n        CannonInstance = Cannon(_cannon_instance);\n        AccountInstance = Account(_account_instance);\n        WallInstance = Wall(_wall_instance);\n    }\n\n    function createBarrack(uint _x, uint _y) public {\n        buildingInstance._createBuilding(msg.sender, \"Barrack\", _x, _y);\n        soldierInstance.setSoldierLevel(msg.sender, 1);\n        SpyInstance.setSpyLevel(msg.sender, 1);\n        ProtectorInstance.setProtectorLevel(msg.sender, 1);\n        CannonInstance.setCannonLevel(msg.sender, 1);\n        WallInstance.setWallLevel(msg.sender, 1);\n    }\n\n    function concatenate(string memory a, string memory b) public returns(string memory) {\n        return string(abi.encodePacked(a, b));\n    }\n\n    function getSoldierAmount(address _owner) public view returns(uint) {\n        return soldierInstance.getSoldierAmount(_owner);\n    }\n    \n\n    // // return 0 if failed (maybe already creating or not enough resource) otherwise return createtime\n    // function startCreateSoldier(uint number) public returns(uint) {\n    //     address _owner = msg.sender;\n    //     if(soldierInstance.ownerStartCreateTime(_owner) != 0) return uint(0); // check if there is already creating soldiers\n    //     bool enoughResource;\n    //     uint lvOfSoldier;\n    //     enoughResource = soldierInstance._createSoldier(_owner, number);\n    //     lvOfSoldier =  soldierInstance.levelOfSoldier(_owner);\n    //     if(enoughResource == false) return uint(0);\n    //     soldierInstance.setStartCreateTime(_owner, uint(now));\n    //     soldierInstance.setCreateSoldierTime(_owner, soldierInstance.createSoldierTime() * lvOfSoldier * number);\n    //     return soldierInstance.ownerCreateSoldierTime(_owner);\n    // }\n\n    // function getCreateSoldierTime() public view returns(uint, uint) {\n    //     return ( now - soldierInstance.ownerStartCreateTime(msg.sender), soldierInstance.ownerCreateSoldierTime(msg.sender) ) ;\n    // }\n\n    // // // return 0 if success else return remaining time\n    // function updateCreateSoldier(address _owner) public returns(uint) {\n    //     if (soldierInstance.ownerStartCreateTime(_owner) == 0) return 0;\n    //     if (now >= soldierInstance.ownerStartCreateTime(_owner).add(soldierInstance.ownerCreateSoldierTime(_owner))) {\n    //         uint num;\n    //         num = soldierInstance.ownerCreateSoldierTime(_owner).div(  soldierInstance.levelOfSoldier(_owner).mul(soldierInstance.createSoldierTime()) );\n    //         soldierInstance.setNumOfSoldier(_owner, soldierInstance.numOfSoldier(_owner) + (num));\n    //         soldierInstance.setStartCreateTime(_owner, 0);\n    //         soldierInstance.setCreateSoldierTime(_owner, 0);\n    //         soldierInstance._updatePower(_owner);\n    //         return 0;\n    //     }\n    //     else {\n    //         uint remainingTime = (soldierInstance.ownerStartCreateTime(_owner) + soldierInstance.ownerCreateSoldierTime(_owner)).sub(now);\n    //         return remainingTime;\n    //     }\n    // }\n    \n\n    function getSpyAmount(address _owner) public view returns(uint) {\n        return SpyInstance.getSpyAmount(_owner);\n    }\n\n    // return 0 if failed (maybe already creating or not enough resource) otherwise return createtime\n    function startCreateSpy(uint number) public returns(uint) {\n        address _owner = msg.sender;\n        if(SpyInstance.ownerStartCreateTime(_owner) != 0) return uint(0); // check if there is already creating spys\n        bool enoughResource;\n        uint lvOfSpy;\n        enoughResource = SpyInstance._createSpy(_owner, number);\n        lvOfSpy =  SpyInstance.levelOfSpy(_owner);\n        if(enoughResource == false) return uint(0);\n        SpyInstance.setStartCreateTime(_owner, uint(now));\n        SpyInstance.setCreateSpyTime(_owner, SpyInstance.createSpyTime() * lvOfSpy * number);\n        return SpyInstance.ownerCreateSpyTime(_owner);\n    }\n\n    function getCreateSpyTime() public view returns(uint, uint) {\n        return ( now - SpyInstance.ownerStartCreateTime(msg.sender), SpyInstance.ownerCreateSpyTime(msg.sender) ) ;\n    }\n\n    // // return 0 if success else return remaining time\n    function updateCreateSpy(address _owner) public returns(uint) {\n        if (SpyInstance.ownerStartCreateTime(_owner) == 0) return 0;\n        if (now >= SpyInstance.ownerStartCreateTime(_owner).add(SpyInstance.ownerCreateSpyTime(_owner))) {\n            uint num;\n            num = SpyInstance.ownerCreateSpyTime(_owner).div(  SpyInstance.levelOfSpy(_owner).mul(SpyInstance.createSpyTime()) );\n            SpyInstance.setNumOfSpy(_owner, SpyInstance.numOfSpy(_owner) + (num));\n            SpyInstance.setStartCreateTime(_owner, 0);\n            SpyInstance.setCreateSpyTime(_owner, 0);\n            SpyInstance._updateSpyPower(_owner);\n            return 0;\n        }\n        else {\n            uint remainingTime = (SpyInstance.ownerStartCreateTime(_owner) + SpyInstance.ownerCreateSpyTime(_owner)).sub(now);\n            return remainingTime;\n        }\n    }\n\n    // // return 0 if failed (maybe already creating or not enough resource) otherwise return createtime\n    \n    function attack(uint _ownerId, uint _attackedCastleId) public {\n        // soldierInstance.attack(_ownerId, _attackedCastleId);\n    }\n\n    function startMarch(uint _attackedCastleId) public returns(uint) {\n        address _owner = msg.sender;\n        address attackedAddress = AccountInstance.castleToOwner(_attackedCastleId);\n\n        \n        if(ownerStartMarchTime[_owner] != 0) return uint(0); // check if there is already Marching\n        bool enoughResource;\n        enoughResource = enoughResource = AccountInstance.cost(_owner, 100, uint(0), 100, uint(0), 100);\n        if(enoughResource == false) return uint(0);\n        ownerStartMarchTime[_owner] = uint(now);\n        ownerTotalMarchTime[_owner] = 20;\n        AccountInstance.setAttackedInfo(attackedAddress, true, _owner, ownerStartMarchTime[_owner], ownerTotalMarchTime[_owner]);\n        return ownerTotalMarchTime[_owner];\n    }\n\n    function getMarchTime() public view returns(uint, uint, uint) {\n        return ( ownerStartMarchTime[msg.sender], uint(now) - ownerStartMarchTime[msg.sender], ownerTotalMarchTime[msg.sender] ) ;\n    }\n\n    // // return 0 if success else return remaining time\n    function updateMarch(address _owner) public returns(uint) {\n        if (ownerStartMarchTime[_owner] == 0) return 0;\n        if (uint(now) >= ownerStartMarchTime[_owner].add(ownerTotalMarchTime[_owner])) {\n            // uint num;\n            // num = ownerTotalMarchTime[_owner].div(  MarchInstance.levelOfMarch(_owner).mul(MarchInstance.createMarchTime()) );\n            // MarchInstance.setNumOfMarch(_owner, MarchInstance.numOfMarch(_owner) + (num));\n            ownerStartMarchTime[_owner] = 0;\n            ownerTotalMarchTime[_owner] = 0;\n            return 0;\n        }\n        else {\n            uint remainingTime = (ownerStartMarchTime[_owner] + ownerTotalMarchTime[_owner]).sub(uint(now));\n            return remainingTime;\n        }\n    }\n    function is_annihilated(uint a , uint b , uint c) public returns(bool){\n        if(a+b+c==0)\n            return true ; \n        else \n            return false ; \n    }\n    function annihilated(address id)public returns(bool){\n        if(soldierInstance.getSoldierAmount(id)+ProtectorInstance.getProtectorAmount(id)+CannonInstance.getCannonAmount(id)==0){\n            return true;\n        }else\n            return false ; \n    }\n    struct battle_info{\n        uint attackerLevel   ;   \n        uint attackerDamage ; \n        uint attackerFrequency  ;\n        uint defenderLevel  ; \n        uint defenderHealth ; \n        uint defenderArmour ; \n        uint effectiveDamage  ;  \n        uint requireCulling  ; \n        uint requireKill   ; \n    }\n    //fuction battle_army() \n    //attack_id : id\n    //defend_id : id\n    //attacker/defender_flag   \n    //    :0 :1 :2\n    //attack_q :\n    //defender_q:\n    //injure:\n    function battle_army(address attack_id , address defend_id , uint attacker_flag , uint defender_flag, uint attacker_q, uint defender_q, uint injure ) public returns(uint,uint,uint){\n        battle_info memory info ; \n        info.attackerLevel = 0 ; \n        info.defenderLevel = 0 ; \n\n        if(attacker_flag == 0){\n            info.attackerDamage = 40 + 4 * info.attackerLevel ; \n            info.attackerFrequency = 1 ; \n        }else if (attacker_flag == 1 ){\n            info.attackerDamage = 30 + 3 * info.attackerLevel ; \n            info.attackerFrequency = 2 ; \n        }else if(attacker_flag ==2){\n            info.attackerDamage = 100 + 10 * info.attackerLevel ; \n            info.attackerFrequency = 1 ;\n        }\n        if(defender_flag == 0){\n            info.defenderHealth = 80 + 8 * info.defenderLevel ; \n            info.defenderArmour = 20 + 2 * info.defenderLevel ; \n        }else if (defender_flag == 1 ){\n            info.defenderHealth = 50 + 5 * info.defenderLevel ; \n            info.defenderArmour = 10 + 1 * info.defenderLevel ; \n        }else if(defender_flag ==2){\n            info.defenderHealth = 100 + 10 * info.defenderLevel ; \n            info.defenderArmour = 0 + 3 * info.defenderLevel ; \n        }\n        //\n        if(info.defenderArmour >= info.attackerDamage){\n            battleLog = concatenate(battleLog,\"\\n\") ; \n            return (0,defender_q,injure) ; \n        }else{\n            info.effectiveDamage = (info.attackerDamage - info.defenderArmour) * info.attackerFrequency ; \n        //  \n        //  \n            if(injure != info.defenderHealth ){\n                //ceiling\n                if(injure % info.effectiveDamage == 0 )\n                    info.requireCulling = injure / info.effectiveDamage ; \n                else    \n                    info.requireCulling = injure / info.effectiveDamage + 1; \n\n                //\n                if(attacker_q >= info.requireCulling){\n                    battleLog = concatenate(battleLog,\"\\n\") ; \n                    attacker_q -= info.requireCulling ;\n                    injure = info.defenderHealth ; \n                    defender_q -= 1 ; \n                //\n                }else{\n                    injure -= attacker_q * info.effectiveDamage ; \n                    //todo  \\n{not_yet_attack}{ownSoldierRemain}\n                    battleLog = concatenate(battleLog,\"\\nxx\\n\") ; \n                    attacker_q = 0  ;\n                    return(0,defender_q,injure);\n                }\n            }\n            //\n            if(attacker_q == 0){\n                battleLog = concatenate(battleLog,\"\\n\") ;\n                return (0,defender_q,injure) ; \n            }else{\n                if(info.defenderHealth % info.effectiveDamage == 0 )\n                    info.requireKill = info.defenderHealth / info.effectiveDamage ; \n                else    \n                    info.requireKill = info.defenderHealth / info.effectiveDamage + 1; \n                //\n                if( attacker_q / info.requireKill != 0 ){\n                    //\n                    if(attacker_q / info.requireKill >= defender_q){\n                        battleLog = concatenate(battleLog,\"\\n\") ;\n                        attacker_q -= info.requireKill * defender_q ; \n                        defender_q = 0 ; \n                        return (attacker_q , 0 , info.defenderHealth) ; \n                    }else{\n                        battleLog = concatenate(battleLog,\"\\nxx\") ;\n                        defender_q -= attacker_q / info.requireKill  ; \n                        attacker_q %=  info.requireKill  ;\n                    }\n                    if(attacker_q == 0){\n                        battleLog = concatenate(battleLog,\"\\n\") ;\n                        return (0,defender_q,info.defenderHealth) ;\n                    }\n                }    \n                //\n                injure -= attacker_q * info.effectiveDamage ;\n                battleLog = concatenate(battleLog,\"\\nxx\") ; \n                battleLog = concatenate(battleLog,\"\\n\") ;\n                attacker_q = 0 ; \n                return (attacker_q,defender_q,injure) ; \n                }\n                \n            }\n\n\n            \n    }\n/*\n    function battle_army(address attack_id , address defend_id , uint attacker_flag , uint defender_flag, uint attacker_q, uint defender_q, uint injure ) public returns(uint,uint,uint){\n        battle_info memory info ; \n        info.attackerLevel = 0 ; \n        info.defenderLevel = 0 ; \n\n        /*\n        uint attackerLevel = 0  ;   \n        uint attackerDamage ; \n        uint attackerFrequency  ;\n        uint defenderLevel = 0 ; \n        uint defenderHealth ; \n        uint defenderArmour ; \n        uint defenderInjure  ; \n        uint effectiveDamage = 0 ;  \n        uint requireCulling = 0 ; \n        uint requireKill = 0 ; \n        \n\n        // \n        // \n        if(attacker_flag == 0){\n            //attackerLevel = ProtectorInstance.levelOfProtector(attack_id) \b;\n            info.attackerDamage = 40 + 4 * info.attackerLevel ; \n            info.attackerFrequency = 1 ; \n        }else if (attacker_flag == 1 ){\n            //attackerLevel = soldierInstance.levelOfSoldier(attack_id) ; \n            info.attackerDamage = 30 + 3 * info.attackerLevel ; \n            info.attackerFrequency = 2 ; \n        }else if(attacker_flag ==2){\n            //attackerLevel = CannonInstance.levelOfCannon(attack_id) ; \n            info.attackerDamage = 100 + 10 * info.attackerLevel ; \n            info.attackerFrequency = 1 ;\n        }\n        if(defender_flag == 0){\n            //defenderLevel = ProtectorInstance.levelOfProtector(defend_id) \b;\n            info.defenderHealth = 80 + 8 * info.defenderLevel ; \n            info.defenderArmour = 20 + 2 * info.defenderLevel ; \n        }else if (defender_flag == 1 ){\n            //defenderLevel = soldierInstance.levelOfSoldier(defend_id) ; \n            info.defenderHealth = 50 + 5 * info.defenderLevel ; \n            info.defenderArmour = 10 + 1 * info.defenderLevel ; \n        }else if(defender_flag ==2){\n            //defendderLevel = CannonInstance.levelOfCannon(defend_id) ; \n            info.defenderHealth = 100 + 10 * info.defenderLevel ; \n            info.defenderArmour = 0 + 3 * info.defenderLevel ; \n        }\n        //\n        if(info.defenderArmour >= info.attackerDamage){\n            battleLog = concatenate(battleLog,\"\\n\") ; \n            return (0,defender_q,info.defenderInjure) ; \n        }else{\n            info.effectiveDamage = (info.attackerDamage - info.defenderArmour) * info.attackerFrequency ; \n        //  \n        //  \n            if(info.defenderInjure != info.defenderHealth ){\n                //ceiling\n                if(info.defenderInjure % info.effectiveDamage == 0 )\n                    info.requireCulling = info.defenderInjure / info.effectiveDamage ; \n                else    \n                    info.requireCulling = info.defenderInjure / info.effectiveDamage + 1; \n\n                //\n                if(attacker_q >= info.requireCulling){\n                    battleLog = concatenate(battleLog,\"\\n\") ; \n                    attacker_q -= info.requireCulling ;\n                    info.defenderInjure = info.defenderHealth ; \n                    defender_q -= 1 ; \n                //\n                }else{\n                    info.defenderInjure -= attacker_q * info.effectiveDamage ; \n                    //todo  \\n{not_yet_attack}{ownSoldierRemain}\n                    battleLog = concatenate(battleLog,\"\\nxx\") ; \n                    attacker_q = 0  ;\n                }\n            }\n            //\n            if(attacker_q == 0){\n                battleLog = concatenate(battleLog,\"\\n\") ;\n                return (0,defender_q,info.defenderInjure) ; \n            }else{\n                if(info.defenderHealth % info.effectiveDamage == 0 )\n                    info.requireKill = info.defenderHealth / info.effectiveDamage ; \n                else    \n                    info.requireKill = info.defenderHealth / info.effectiveDamage + 1; \n                //\n                if( attacker_q / info.requireKill != 0 ){\n                    //\n                    if(attacker_q / info.requireKill >= defender_q){\n                        battleLog = concatenate(battleLog,\"\\n\") ;\n                        attacker_q -= info.requireKill * defender_q ; \n                        defender_q = 0 ; \n                        return (attacker_q , 0 , info.defenderHealth) ; \n                    }else{\n                        battleLog = concatenate(battleLog,\"\\nxx\") ;\n                        defender_q -= attacker_q / info.requireKill  ; \n                        attacker_q %=  info.requireKill  ;\n                    }\n                    if(attacker_q == 0){\n                        return (0,defender_q,info.defenderHealth) ; \n                        battleLog = concatenate(battleLog,\"\\n\") ;\n                        //battlelog += \n                    }else{\n                        //\n                        info.defenderInjure -= attacker_q * info.effectiveDamage ;\n                        battleLog = concatenate(battleLog,\"\\nxx\") ; \n                        battleLog = concatenate(battleLog,\"\\n\") ;\n                        attacker_q = 0 ; \n                        return (attacker_q,defender_q,info.defenderInjure) ; \n                    }\n                }\n            }\n\n\n            \n        }\n    }*/\n\n\n\n\n\n    function attack(address _ownerId, address _attackedCastleId) public returns(uint){\n        //soldierInstance.attack(_ownerId, _attackedCastleId);\n        //uint ownSoldierQuantity = soldierInstance.getSoldierAmount(_ownerId);\n        uint dummyQuantityAttacker ; \n        uint dummyQuantityDefender ; \n        uint ownSoldierInjure = 50 + soldierInstance.levelOfSoldier(_ownerId) * 5  ; \n        //uint ownProtectorQuantity = ProtectorInstance.getProtectorAmount(_ownerId);  \n        uint ownProtectorInjure = 80 + ProtectorInstance.levelOfProtector(_ownerId) * 8  ;\n        //uint ownCannonQuantity = CannonInstance.getCannonAmount(_ownerId);  \n        uint ownCannonInjure = 100 + CannonInstance.levelOfCannon(_ownerId) * 10 ;\n        //uint rivalSoldierQuantity = soldierInstance.getSoldierAmount(_attackedCastleId);\n        uint rivalSoldierInjure = 50 + soldierInstance.levelOfSoldier(_attackedCastleId)  * 5 ;\n        //uint rivalProtectorQuantity = ProtectorInstance.getProtectorAmount(_attackedCastleId); \n        uint rivalProtectorInjure = 80 + ProtectorInstance.levelOfProtector(_attackedCastleId) * 8  ;\n        //uint rivalCannonQuantity = CannonInstance.getCannonAmount(_attackedCastleId);  \n        uint rivalCannonInjure = 100 + CannonInstance.levelOfCannon(_attackedCastleId) * 10 ;\n        //\n        uint round = 0 ;  \n\n        if( is_annihilated(CannonInstance.getCannonAmount(_attackedCastleId),soldierInstance.getSoldierAmount(_attackedCastleId),ProtectorInstance.getProtectorAmount(_attackedCastleId)) ){\n            battleLog = concatenate(battleLog,\"\") ; \n        }\n        else{\n        //a barricade is set in case of infinite loop can be removed if no bug is found\n        //otherwise two army fight until one is totally annihilateed\n            \n            while(round < 20  ){\n                if( annihilated(_ownerId) ){\n                    battleLog = concatenate(battleLog,\"\") ;\n                    return 1; \n                }else if(annihilated(_attackedCastleId)){\n                    battleLog = concatenate(battleLog,\"\") ;\n                    return 1; \n                }\n                round += 1 ; \n                //battleLog += {round}\n                //->->->->->\n\n                //protector\n                dummyQuantityAttacker = ProtectorInstance.getProtectorAmount(_attackedCastleId);\n                if( dummyQuantityAttacker != 0  ){\n                    battleLog = concatenate(battleLog,\"\\n\") ; \n                    dummyQuantityDefender = soldierInstance.getSoldierAmount(_ownerId) ; \n                    if( dummyQuantityDefender != 0 ){\n                        battleLog = concatenate(battleLog,\",\") ; \n                        (dummyQuantityAttacker,dummyQuantityDefender,ownSoldierInjure) = battle_army(_attackedCastleId,_ownerId,0,1,dummyQuantityAttacker,dummyQuantityDefender,ownSoldierInjure) ; \n                        soldierInstance.setNumOfSoldier(_ownerId,dummyQuantityDefender) ; \n                    }\n                    //   \n                    dummyQuantityDefender = ProtectorInstance.getProtectorAmount(_ownerId) ; \n                    if( dummyQuantityAttacker != 0 && dummyQuantityDefender != 0){       \n                        battleLog = concatenate(battleLog,\"\\n\") ; \n                        (dummyQuantityAttacker,dummyQuantityDefender,ownProtectorInjure) = battle_army(_attackedCastleId,_ownerId,0,0,dummyQuantityAttacker,dummyQuantityDefender,ownProtectorInjure) ;\n                        ProtectorInstance.setNumOfProtector(_ownerId,dummyQuantityDefender) ; \n                    }\n                    // \n                    dummyQuantityDefender = CannonInstance.getCannonAmount(_ownerId) ; \n                    if( dummyQuantityAttacker != 0 && dummyQuantityDefender != 0){    \n                        battleLog = concatenate(battleLog,\"\\n\") ;\n                        (dummyQuantityAttacker,dummyQuantityDefender,ownCannonInjure) = battle_army(_attackedCastleId,_ownerId,0,2,dummyQuantityAttacker,dummyQuantityDefender,ownCannonInjure) ;    \n                        CannonInstance.setNumOfCannon(_ownerId,dummyQuantityDefender) ; \n                    }\n                }\n                \n                dummyQuantityAttacker = soldierInstance.getSoldierAmount(_ownerId);\n                if( dummyQuantityAttacker != 0  ){\n                    battleLog = concatenate(battleLog,\"\\n\") ; \n                    dummyQuantityDefender = soldierInstance.getSoldierAmount(_attackedCastleId) ; \n                    if( dummyQuantityDefender != 0 ){\n                        battleLog = concatenate(battleLog,\",\") ; \n                        (dummyQuantityAttacker,dummyQuantityDefender,rivalSoldierInjure) = battle_army(_ownerId,_attackedCastleId,1,1,dummyQuantityAttacker,dummyQuantityDefender,rivalSoldierInjure) ; \n                        soldierInstance.setNumOfSoldier(_attackedCastleId,dummyQuantityDefender) ; \n                    }\n                    //   \n                    dummyQuantityDefender = ProtectorInstance.getProtectorAmount(_attackedCastleId) ; \n                    if( dummyQuantityAttacker != 0 && dummyQuantityDefender != 0){       \n                        battleLog = concatenate(battleLog,\"\\n\") ; \n                        (dummyQuantityAttacker,dummyQuantityDefender,rivalProtectorInjure) = battle_army(_ownerId,_attackedCastleId,1,0,dummyQuantityAttacker,dummyQuantityDefender,rivalProtectorInjure) ;\n                        ProtectorInstance.setNumOfProtector(_attackedCastleId,dummyQuantityDefender) ; \n                    }\n                    // \n                    dummyQuantityDefender = CannonInstance.getCannonAmount(_attackedCastleId) ; \n                    if( dummyQuantityAttacker != 0 && dummyQuantityDefender != 0){    \n                        battleLog = concatenate(battleLog,\"\\n\") ;\n                        (dummyQuantityAttacker,dummyQuantityDefender,rivalCannonInjure) = battle_army(_ownerId,_attackedCastleId,1,2,dummyQuantityAttacker,dummyQuantityDefender,rivalCannonInjure) ;    \n                        CannonInstance.setNumOfCannon(_attackedCastleId,dummyQuantityDefender) ; \n                    }\n                }\n                /*\n                if( rivalSoldierQuantity != 0){\n\n                }\n                if( ownProtectorQuantity != 0){\n\n                }\n                if( rivalCannonQuantity != 0){\n\n                }\n                if( ownCannonQuantity != 0){\n\n                }*/\n\n\n\n            }\n            \n\n        }\n    }\n\n    function sendSpy(uint _ownerId, uint _attackedCastleId) public view returns(bool) {\n        //returns TRUE if spy of myCastle > attackedCastle\n        \n        return SpyInstance.sendSpy(_ownerId, _attackedCastleId);\n    }\n\n}",
  "sourcePath": "/Users/seanwang0823/NMLab_Final/contracts/Barrack.sol",
  "compiler": {
    "name": "solc",
    "version": "0.5.16+commit.9c3226ce.Emscripten.clang"
  },
  "schemaVersion": "3.4.0",
  "updatedAt": "2021-06-25T13:53:28.138Z",
  "networkType": "ethereum",
  "devdoc": {
    "methods": {}
  },
  "userdoc": {
    "methods": {}
  }
}