{
  "contractName": "Barrack",
  "abi": [
    {
      "inputs": [
        {
          "internalType": "address",
          "name": "_building_address",
          "type": "address"
        },
        {
          "internalType": "address",
          "name": "_soldier_address",
          "type": "address"
        },
        {
          "internalType": "address",
          "name": "_spy_instance",
          "type": "address"
        },
        {
          "internalType": "address",
          "name": "_cannon_instance",
          "type": "address"
        },
        {
          "internalType": "address",
          "name": "_protector_instance",
          "type": "address"
        }
      ],
      "payable": false,
      "stateMutability": "nonpayable",
      "type": "constructor"
    },
    {
      "constant": false,
      "inputs": [
        {
          "internalType": "uint256",
          "name": "_x",
          "type": "uint256"
        },
        {
          "internalType": "uint256",
          "name": "_y",
          "type": "uint256"
        }
      ],
      "name": "createBarrack",
      "outputs": [],
      "payable": false,
      "stateMutability": "nonpayable",
      "type": "function"
    },
    {
      "constant": false,
      "inputs": [
        {
          "internalType": "uint256",
          "name": "number",
          "type": "uint256"
        }
      ],
      "name": "startCreateSoldier",
      "outputs": [
        {
          "internalType": "uint256",
          "name": "",
          "type": "uint256"
        }
      ],
      "payable": false,
      "stateMutability": "nonpayable",
      "type": "function"
    },
    {
      "constant": true,
      "inputs": [],
      "name": "getCreateSoldierTime",
      "outputs": [
        {
          "internalType": "uint256",
          "name": "",
          "type": "uint256"
        },
        {
          "internalType": "uint256",
          "name": "",
          "type": "uint256"
        }
      ],
      "payable": false,
      "stateMutability": "view",
      "type": "function"
    },
    {
      "constant": false,
      "inputs": [
        {
          "internalType": "address",
          "name": "_owner",
          "type": "address"
        }
      ],
      "name": "updateCreateSoldier",
      "outputs": [
        {
          "internalType": "uint256",
          "name": "",
          "type": "uint256"
        }
      ],
      "payable": false,
      "stateMutability": "nonpayable",
      "type": "function"
    },
    {
      "constant": false,
      "inputs": [
        {
          "internalType": "uint256",
          "name": "number",
          "type": "uint256"
        }
      ],
      "name": "startCreateSpy",
      "outputs": [
        {
          "internalType": "uint256",
          "name": "",
          "type": "uint256"
        }
      ],
      "payable": false,
      "stateMutability": "nonpayable",
      "type": "function"
    },
    {
      "constant": true,
      "inputs": [],
      "name": "getCreateSpyTime",
      "outputs": [
        {
          "internalType": "uint256",
          "name": "",
          "type": "uint256"
        },
        {
          "internalType": "uint256",
          "name": "",
          "type": "uint256"
        }
      ],
      "payable": false,
      "stateMutability": "view",
      "type": "function"
    },
    {
      "constant": false,
      "inputs": [
        {
          "internalType": "address",
          "name": "_owner",
          "type": "address"
        }
      ],
      "name": "updateCreateSpy",
      "outputs": [
        {
          "internalType": "uint256",
          "name": "",
          "type": "uint256"
        }
      ],
      "payable": false,
      "stateMutability": "nonpayable",
      "type": "function"
    },
    {
      "constant": false,
      "inputs": [
        {
          "internalType": "uint256",
          "name": "number",
          "type": "uint256"
        }
      ],
      "name": "startCreateCannon",
      "outputs": [
        {
          "internalType": "uint256",
          "name": "",
          "type": "uint256"
        }
      ],
      "payable": false,
      "stateMutability": "nonpayable",
      "type": "function"
    },
    {
      "constant": true,
      "inputs": [],
      "name": "getCreateCannonTime",
      "outputs": [
        {
          "internalType": "uint256",
          "name": "",
          "type": "uint256"
        },
        {
          "internalType": "uint256",
          "name": "",
          "type": "uint256"
        }
      ],
      "payable": false,
      "stateMutability": "view",
      "type": "function"
    },
    {
      "constant": false,
      "inputs": [
        {
          "internalType": "address",
          "name": "_owner",
          "type": "address"
        }
      ],
      "name": "updateCreateCannon",
      "outputs": [
        {
          "internalType": "uint256",
          "name": "",
          "type": "uint256"
        }
      ],
      "payable": false,
      "stateMutability": "nonpayable",
      "type": "function"
    },
    {
      "constant": false,
      "inputs": [
        {
          "internalType": "uint256",
          "name": "number",
          "type": "uint256"
        }
      ],
      "name": "startCreateProtector",
      "outputs": [
        {
          "internalType": "uint256",
          "name": "",
          "type": "uint256"
        }
      ],
      "payable": false,
      "stateMutability": "nonpayable",
      "type": "function"
    },
    {
      "constant": true,
      "inputs": [],
      "name": "getCreateProtectorTime",
      "outputs": [
        {
          "internalType": "uint256",
          "name": "",
          "type": "uint256"
        },
        {
          "internalType": "uint256",
          "name": "",
          "type": "uint256"
        }
      ],
      "payable": false,
      "stateMutability": "view",
      "type": "function"
    },
    {
      "constant": false,
      "inputs": [
        {
          "internalType": "address",
          "name": "_owner",
          "type": "address"
        }
      ],
      "name": "updateCreateProtector",
      "outputs": [
        {
          "internalType": "uint256",
          "name": "",
          "type": "uint256"
        }
      ],
      "payable": false,
      "stateMutability": "nonpayable",
      "type": "function"
    }
  ],
  "bytecode": "0x608060405234801561001057600080fd5b506040516200555c3803806200555c833981810160405260a081101561003557600080fd5b810190808051906020019092919080519060200190929190805190602001909291908051906020019092919080519060200190929190505050846000806101000a81548173ffffffffffffffffffffffffffffffffffffffff021916908373ffffffffffffffffffffffffffffffffffffffff16021790555083600160006101000a81548173ffffffffffffffffffffffffffffffffffffffff021916908373ffffffffffffffffffffffffffffffffffffffff16021790555082600460006101000a81548173ffffffffffffffffffffffffffffffffffffffff021916908373ffffffffffffffffffffffffffffffffffffffff16021790555080600260006101000a81548173ffffffffffffffffffffffffffffffffffffffff021916908373ffffffffffffffffffffffffffffffffffffffff16021790555081600360006101000a81548173ffffffffffffffffffffffffffffffffffffffff021916908373ffffffffffffffffffffffffffffffffffffffff160217905550505050505061539580620001c76000396000f3fe608060405234801561001057600080fd5b50600436106100cf5760003560e01c80639f88a50d1161008c578063b7c47d6e11610066578063b7c47d6e14610311578063f25a178214610349578063f5d9ef5a1461036e578063fa83ce5c146103c6576100cf565b80639f88a50d1461026f578063af1193c2146102c7578063b60ff396146102ec576100cf565b80630acdea6f146100d45780631c1b625a146100f95780635865c9451461015157806369cddf1d1461019357806378eb4df4146101eb5780638c5f68541461022d575b600080fd5b6100dc610408565b604051808381526020018281526020019250505060405180910390f35b61013b6004803603602081101561010f57600080fd5b81019080803573ffffffffffffffffffffffffffffffffffffffff1690602001909291905050506105c9565b6040518082815260200191505060405180910390f35b61017d6004803603602081101561016757600080fd5b81019080803590602001909291905050506110b5565b6040518082815260200191505060405180910390f35b6101d5600480360360208110156101a957600080fd5b81019080803573ffffffffffffffffffffffffffffffffffffffff169060200190929190505050611691565b6040518082815260200191505060405180910390f35b6102176004803603602081101561020157600080fd5b810190808035906020019092919050505061217d565b6040518082815260200191505060405180910390f35b6102596004803603602081101561024357600080fd5b8101908080359060200190929190505050612759565b6040518082815260200191505060405180910390f35b6102b16004803603602081101561028557600080fd5b81019080803573ffffffffffffffffffffffffffffffffffffffff169060200190929190505050612d35565b6040518082815260200191505060405180910390f35b6102cf613821565b604051808381526020018281526020019250505060405180910390f35b6102f46139e2565b604051808381526020018281526020019250505060405180910390f35b6103476004803603604081101561032757600080fd5b810190808035906020019092919080359060200190929190505050613ba3565b005b610351613d8e565b604051808381526020018281526020019250505060405180910390f35b6103b06004803603602081101561038457600080fd5b81019080803573ffffffffffffffffffffffffffffffffffffffff169060200190929190505050613f4f565b6040518082815260200191505060405180910390f35b6103f2600480360360208110156103dc57600080fd5b8101908080359060200190929190505050614a3b565b6040518082815260200191505060405180910390f35b600080600460009054906101000a900473ffffffffffffffffffffffffffffffffffffffff1673ffffffffffffffffffffffffffffffffffffffff16639073af81336040518263ffffffff1660e01b8152600401808273ffffffffffffffffffffffffffffffffffffffff1673ffffffffffffffffffffffffffffffffffffffff16815260200191505060206040518083038186803b1580156104aa57600080fd5b505afa1580156104be573d6000803e3d6000fd5b505050506040513d60208110156104d457600080fd5b81019080805190602001909291905050504203600460009054906101000a900473ffffffffffffffffffffffffffffffffffffffff1673ffffffffffffffffffffffffffffffffffffffff1663b5c3e402336040518263ffffffff1660e01b8152600401808273ffffffffffffffffffffffffffffffffffffffff1673ffffffffffffffffffffffffffffffffffffffff16815260200191505060206040518083038186803b15801561058657600080fd5b505afa15801561059a573d6000803e3d6000fd5b505050506040513d60208110156105b057600080fd5b8101908080519060200190929190505050915091509091565b600080600160009054906101000a900473ffffffffffffffffffffffffffffffffffffffff1673ffffffffffffffffffffffffffffffffffffffff16639073af81846040518263ffffffff1660e01b8152600401808273ffffffffffffffffffffffffffffffffffffffff1673ffffffffffffffffffffffffffffffffffffffff16815260200191505060206040518083038186803b15801561066b57600080fd5b505afa15801561067f573d6000803e3d6000fd5b505050506040513d602081101561069557600080fd5b810190808051906020019092919050505014156106b557600090506110b0565b61087a600160009054906101000a900473ffffffffffffffffffffffffffffffffffffffff1673ffffffffffffffffffffffffffffffffffffffff16630c2b6904846040518263ffffffff1660e01b8152600401808273ffffffffffffffffffffffffffffffffffffffff1673ffffffffffffffffffffffffffffffffffffffff16815260200191505060206040518083038186803b15801561075757600080fd5b505afa15801561076b573d6000803e3d6000fd5b505050506040513d602081101561078157600080fd5b8101908080519060200190929190505050600160009054906101000a900473ffffffffffffffffffffffffffffffffffffffff1673ffffffffffffffffffffffffffffffffffffffff16639073af81856040518263ffffffff1660e01b8152600401808273ffffffffffffffffffffffffffffffffffffffff1673ffffffffffffffffffffffffffffffffffffffff16815260200191505060206040518083038186803b15801561083157600080fd5b505afa158015610845573d6000803e3d6000fd5b505050506040513d602081101561085b57600080fd5b810190808051906020019092919050505061501790919063ffffffff16565b4210610ee0576000610afb610a13600160009054906101000a900473ffffffffffffffffffffffffffffffffffffffff1673ffffffffffffffffffffffffffffffffffffffff166347dcb51c6040518163ffffffff1660e01b815260040160206040518083038186803b1580156108f057600080fd5b505afa158015610904573d6000803e3d6000fd5b505050506040513d602081101561091a57600080fd5b8101908080519060200190929190505050600160009054906101000a900473ffffffffffffffffffffffffffffffffffffffff1673ffffffffffffffffffffffffffffffffffffffff166329058536876040518263ffffffff1660e01b8152600401808273ffffffffffffffffffffffffffffffffffffffff1673ffffffffffffffffffffffffffffffffffffffff16815260200191505060206040518083038186803b1580156109ca57600080fd5b505afa1580156109de573d6000803e3d6000fd5b505050506040513d60208110156109f457600080fd5b810190808051906020019092919050505061509f90919063ffffffff16565b600160009054906101000a900473ffffffffffffffffffffffffffffffffffffffff1673ffffffffffffffffffffffffffffffffffffffff16630c2b6904866040518263ffffffff1660e01b8152600401808273ffffffffffffffffffffffffffffffffffffffff1673ffffffffffffffffffffffffffffffffffffffff16815260200191505060206040518083038186803b158015610ab257600080fd5b505afa158015610ac6573d6000803e3d6000fd5b505050506040513d6020811015610adc57600080fd5b810190808051906020019092919050505061512590919063ffffffff16565b9050600160009054906101000a900473ffffffffffffffffffffffffffffffffffffffff1673ffffffffffffffffffffffffffffffffffffffff16633dabc4df8483600160009054906101000a900473ffffffffffffffffffffffffffffffffffffffff1673ffffffffffffffffffffffffffffffffffffffff16635697b21a886040518263ffffffff1660e01b8152600401808273ffffffffffffffffffffffffffffffffffffffff1673ffffffffffffffffffffffffffffffffffffffff16815260200191505060206040518083038186803b158015610bdc57600080fd5b505afa158015610bf0573d6000803e3d6000fd5b505050506040513d6020811015610c0657600080fd5b8101908080519060200190929190505050016040518363ffffffff1660e01b8152600401808373ffffffffffffffffffffffffffffffffffffffff1673ffffffffffffffffffffffffffffffffffffffff16815260200182815260200192505050600060405180830381600087803b158015610c8157600080fd5b505af1158015610c95573d6000803e3d6000fd5b50505050600160009054906101000a900473ffffffffffffffffffffffffffffffffffffffff1673ffffffffffffffffffffffffffffffffffffffff16638ed972028460006040518363ffffffff1660e01b8152600401808373ffffffffffffffffffffffffffffffffffffffff1673ffffffffffffffffffffffffffffffffffffffff16815260200182815260200192505050600060405180830381600087803b158015610d4357600080fd5b505af1158015610d57573d6000803e3d6000fd5b50505050600160009054906101000a900473ffffffffffffffffffffffffffffffffffffffff1673ffffffffffffffffffffffffffffffffffffffff16637e23dbd18460006040518363ffffffff1660e01b8152600401808373ffffffffffffffffffffffffffffffffffffffff1673ffffffffffffffffffffffffffffffffffffffff16815260200182815260200192505050600060405180830381600087803b158015610e0557600080fd5b505af1158015610e19573d6000803e3d6000fd5b50505050600160009054906101000a900473ffffffffffffffffffffffffffffffffffffffff1673ffffffffffffffffffffffffffffffffffffffff16632f47faeb846040518263ffffffff1660e01b8152600401808273ffffffffffffffffffffffffffffffffffffffff1673ffffffffffffffffffffffffffffffffffffffff168152602001915050600060405180830381600087803b158015610ebe57600080fd5b505af1158015610ed2573d6000803e3d6000fd5b5050505060009150506110b0565b60006110a942600160009054906101000a900473ffffffffffffffffffffffffffffffffffffffff1673ffffffffffffffffffffffffffffffffffffffff16630c2b6904866040518263ffffffff1660e01b8152600401808273ffffffffffffffffffffffffffffffffffffffff1673ffffffffffffffffffffffffffffffffffffffff16815260200191505060206040518083038186803b158015610f8557600080fd5b505afa158015610f99573d6000803e3d6000fd5b505050506040513d6020811015610faf57600080fd5b8101908080519060200190929190505050600160009054906101000a900473ffffffffffffffffffffffffffffffffffffffff1673ffffffffffffffffffffffffffffffffffffffff16639073af81876040518263ffffffff1660e01b8152600401808273ffffffffffffffffffffffffffffffffffffffff1673ffffffffffffffffffffffffffffffffffffffff16815260200191505060206040518083038186803b15801561105f57600080fd5b505afa158015611073573d6000803e3d6000fd5b505050506040513d602081101561108957600080fd5b81019080805190602001909291905050500161516f90919063ffffffff16565b9050809150505b919050565b6000803390506000600260009054906101000a900473ffffffffffffffffffffffffffffffffffffffff1673ffffffffffffffffffffffffffffffffffffffff16639073af81836040518263ffffffff1660e01b8152600401808273ffffffffffffffffffffffffffffffffffffffff1673ffffffffffffffffffffffffffffffffffffffff16815260200191505060206040518083038186803b15801561115c57600080fd5b505afa158015611170573d6000803e3d6000fd5b505050506040513d602081101561118657600080fd5b8101908080519060200190929190505050146111a657600091505061168c565b600080600260009054906101000a900473ffffffffffffffffffffffffffffffffffffffff1673ffffffffffffffffffffffffffffffffffffffff1663c0e8b76784876040518363ffffffff1660e01b8152600401808373ffffffffffffffffffffffffffffffffffffffff1673ffffffffffffffffffffffffffffffffffffffff16815260200182815260200192505050602060405180830381600087803b15801561125257600080fd5b505af1158015611266573d6000803e3d6000fd5b505050506040513d602081101561127c57600080fd5b81019080805190602001909291905050509150600260009054906101000a900473ffffffffffffffffffffffffffffffffffffffff1673ffffffffffffffffffffffffffffffffffffffff1663b47711fa846040518263ffffffff1660e01b8152600401808273ffffffffffffffffffffffffffffffffffffffff1673ffffffffffffffffffffffffffffffffffffffff16815260200191505060206040518083038186803b15801561132e57600080fd5b505afa158015611342573d6000803e3d6000fd5b505050506040513d602081101561135857600080fd5b81019080805190602001909291905050509050600015158215151415611384576000935050505061168c565b600260009054906101000a900473ffffffffffffffffffffffffffffffffffffffff1673ffffffffffffffffffffffffffffffffffffffff16638ed9720284426040518363ffffffff1660e01b8152600401808373ffffffffffffffffffffffffffffffffffffffff1673ffffffffffffffffffffffffffffffffffffffff16815260200182815260200192505050600060405180830381600087803b15801561142d57600080fd5b505af1158015611441573d6000803e3d6000fd5b50505050600260009054906101000a900473ffffffffffffffffffffffffffffffffffffffff1673ffffffffffffffffffffffffffffffffffffffff1663e9439b03848784600260009054906101000a900473ffffffffffffffffffffffffffffffffffffffff1673ffffffffffffffffffffffffffffffffffffffff1663a03e7df16040518163ffffffff1660e01b815260040160206040518083038186803b1580156114ee57600080fd5b505afa158015611502573d6000803e3d6000fd5b505050506040513d602081101561151857600080fd5b810190808051906020019092919050505002026040518363ffffffff1660e01b8152600401808373ffffffffffffffffffffffffffffffffffffffff1673ffffffffffffffffffffffffffffffffffffffff16815260200182815260200192505050600060405180830381600087803b15801561159457600080fd5b505af11580156115a8573d6000803e3d6000fd5b50505050600260009054906101000a900473ffffffffffffffffffffffffffffffffffffffff1673ffffffffffffffffffffffffffffffffffffffff1663e57d01f6846040518263ffffffff1660e01b8152600401808273ffffffffffffffffffffffffffffffffffffffff1673ffffffffffffffffffffffffffffffffffffffff16815260200191505060206040518083038186803b15801561164b57600080fd5b505afa15801561165f573d6000803e3d6000fd5b505050506040513d602081101561167557600080fd5b810190808051906020019092919050505093505050505b919050565b600080600460009054906101000a900473ffffffffffffffffffffffffffffffffffffffff1673ffffffffffffffffffffffffffffffffffffffff16639073af81846040518263ffffffff1660e01b8152600401808273ffffffffffffffffffffffffffffffffffffffff1673ffffffffffffffffffffffffffffffffffffffff16815260200191505060206040518083038186803b15801561173357600080fd5b505afa158015611747573d6000803e3d6000fd5b505050506040513d602081101561175d57600080fd5b8101908080519060200190929190505050141561177d5760009050612178565b611942600460009054906101000a900473ffffffffffffffffffffffffffffffffffffffff1673ffffffffffffffffffffffffffffffffffffffff1663b5c3e402846040518263ffffffff1660e01b8152600401808273ffffffffffffffffffffffffffffffffffffffff1673ffffffffffffffffffffffffffffffffffffffff16815260200191505060206040518083038186803b15801561181f57600080fd5b505afa158015611833573d6000803e3d6000fd5b505050506040513d602081101561184957600080fd5b8101908080519060200190929190505050600460009054906101000a900473ffffffffffffffffffffffffffffffffffffffff1673ffffffffffffffffffffffffffffffffffffffff16639073af81856040518263ffffffff1660e01b8152600401808273ffffffffffffffffffffffffffffffffffffffff1673ffffffffffffffffffffffffffffffffffffffff16815260200191505060206040518083038186803b1580156118f957600080fd5b505afa15801561190d573d6000803e3d6000fd5b505050506040513d602081101561192357600080fd5b810190808051906020019092919050505061501790919063ffffffff16565b4210611fa8576000611bc3611adb600460009054906101000a900473ffffffffffffffffffffffffffffffffffffffff1673ffffffffffffffffffffffffffffffffffffffff16634807c3d56040518163ffffffff1660e01b815260040160206040518083038186803b1580156119b857600080fd5b505afa1580156119cc573d6000803e3d6000fd5b505050506040513d60208110156119e257600080fd5b8101908080519060200190929190505050600460009054906101000a900473ffffffffffffffffffffffffffffffffffffffff1673ffffffffffffffffffffffffffffffffffffffff1663de634152876040518263ffffffff1660e01b8152600401808273ffffffffffffffffffffffffffffffffffffffff1673ffffffffffffffffffffffffffffffffffffffff16815260200191505060206040518083038186803b158015611a9257600080fd5b505afa158015611aa6573d6000803e3d6000fd5b505050506040513d6020811015611abc57600080fd5b810190808051906020019092919050505061509f90919063ffffffff16565b600460009054906101000a900473ffffffffffffffffffffffffffffffffffffffff1673ffffffffffffffffffffffffffffffffffffffff1663b5c3e402866040518263ffffffff1660e01b8152600401808273ffffffffffffffffffffffffffffffffffffffff1673ffffffffffffffffffffffffffffffffffffffff16815260200191505060206040518083038186803b158015611b7a57600080fd5b505afa158015611b8e573d6000803e3d6000fd5b505050506040513d6020811015611ba457600080fd5b810190808051906020019092919050505061512590919063ffffffff16565b9050600460009054906101000a900473ffffffffffffffffffffffffffffffffffffffff1673ffffffffffffffffffffffffffffffffffffffff16632d96a77b8483600460009054906101000a900473ffffffffffffffffffffffffffffffffffffffff1673ffffffffffffffffffffffffffffffffffffffff1663af3437ae886040518263ffffffff1660e01b8152600401808273ffffffffffffffffffffffffffffffffffffffff1673ffffffffffffffffffffffffffffffffffffffff16815260200191505060206040518083038186803b158015611ca457600080fd5b505afa158015611cb8573d6000803e3d6000fd5b505050506040513d6020811015611cce57600080fd5b8101908080519060200190929190505050016040518363ffffffff1660e01b8152600401808373ffffffffffffffffffffffffffffffffffffffff1673ffffffffffffffffffffffffffffffffffffffff16815260200182815260200192505050600060405180830381600087803b158015611d4957600080fd5b505af1158015611d5d573d6000803e3d6000fd5b50505050600460009054906101000a900473ffffffffffffffffffffffffffffffffffffffff1673ffffffffffffffffffffffffffffffffffffffff16638ed972028460006040518363ffffffff1660e01b8152600401808373ffffffffffffffffffffffffffffffffffffffff1673ffffffffffffffffffffffffffffffffffffffff16815260200182815260200192505050600060405180830381600087803b158015611e0b57600080fd5b505af1158015611e1f573d6000803e3d6000fd5b50505050600460009054906101000a900473ffffffffffffffffffffffffffffffffffffffff1673ffffffffffffffffffffffffffffffffffffffff1663801e95908460006040518363ffffffff1660e01b8152600401808373ffffffffffffffffffffffffffffffffffffffff1673ffffffffffffffffffffffffffffffffffffffff16815260200182815260200192505050600060405180830381600087803b158015611ecd57600080fd5b505af1158015611ee1573d6000803e3d6000fd5b50505050600460009054906101000a900473ffffffffffffffffffffffffffffffffffffffff1673ffffffffffffffffffffffffffffffffffffffff1663f6716496846040518263ffffffff1660e01b8152600401808273ffffffffffffffffffffffffffffffffffffffff1673ffffffffffffffffffffffffffffffffffffffff168152602001915050600060405180830381600087803b158015611f8657600080fd5b505af1158015611f9a573d6000803e3d6000fd5b505050506000915050612178565b600061217142600460009054906101000a900473ffffffffffffffffffffffffffffffffffffffff1673ffffffffffffffffffffffffffffffffffffffff1663b5c3e402866040518263ffffffff1660e01b8152600401808273ffffffffffffffffffffffffffffffffffffffff1673ffffffffffffffffffffffffffffffffffffffff16815260200191505060206040518083038186803b15801561204d57600080fd5b505afa158015612061573d6000803e3d6000fd5b505050506040513d602081101561207757600080fd5b8101908080519060200190929190505050600460009054906101000a900473ffffffffffffffffffffffffffffffffffffffff1673ffffffffffffffffffffffffffffffffffffffff16639073af81876040518263ffffffff1660e01b8152600401808273ffffffffffffffffffffffffffffffffffffffff1673ffffffffffffffffffffffffffffffffffffffff16815260200191505060206040518083038186803b15801561212757600080fd5b505afa15801561213b573d6000803e3d6000fd5b505050506040513d602081101561215157600080fd5b81019080805190602001909291905050500161516f90919063ffffffff16565b9050809150505b919050565b6000803390506000600460009054906101000a900473ffffffffffffffffffffffffffffffffffffffff1673ffffffffffffffffffffffffffffffffffffffff16639073af81836040518263ffffffff1660e01b8152600401808273ffffffffffffffffffffffffffffffffffffffff1673ffffffffffffffffffffffffffffffffffffffff16815260200191505060206040518083038186803b15801561222457600080fd5b505afa158015612238573d6000803e3d6000fd5b505050506040513d602081101561224e57600080fd5b81019080805190602001909291905050501461226e576000915050612754565b600080600460009054906101000a900473ffffffffffffffffffffffffffffffffffffffff1673ffffffffffffffffffffffffffffffffffffffff1663a7e3cce184876040518363ffffffff1660e01b8152600401808373ffffffffffffffffffffffffffffffffffffffff1673ffffffffffffffffffffffffffffffffffffffff16815260200182815260200192505050602060405180830381600087803b15801561231a57600080fd5b505af115801561232e573d6000803e3d6000fd5b505050506040513d602081101561234457600080fd5b81019080805190602001909291905050509150600460009054906101000a900473ffffffffffffffffffffffffffffffffffffffff1673ffffffffffffffffffffffffffffffffffffffff1663de634152846040518263ffffffff1660e01b8152600401808273ffffffffffffffffffffffffffffffffffffffff1673ffffffffffffffffffffffffffffffffffffffff16815260200191505060206040518083038186803b1580156123f657600080fd5b505afa15801561240a573d6000803e3d6000fd5b505050506040513d602081101561242057600080fd5b8101908080519060200190929190505050905060001515821515141561244c5760009350505050612754565b600460009054906101000a900473ffffffffffffffffffffffffffffffffffffffff1673ffffffffffffffffffffffffffffffffffffffff16638ed9720284426040518363ffffffff1660e01b8152600401808373ffffffffffffffffffffffffffffffffffffffff1673ffffffffffffffffffffffffffffffffffffffff16815260200182815260200192505050600060405180830381600087803b1580156124f557600080fd5b505af1158015612509573d6000803e3d6000fd5b50505050600460009054906101000a900473ffffffffffffffffffffffffffffffffffffffff1673ffffffffffffffffffffffffffffffffffffffff1663801e9590848784600460009054906101000a900473ffffffffffffffffffffffffffffffffffffffff1673ffffffffffffffffffffffffffffffffffffffff16634807c3d56040518163ffffffff1660e01b815260040160206040518083038186803b1580156125b657600080fd5b505afa1580156125ca573d6000803e3d6000fd5b505050506040513d60208110156125e057600080fd5b810190808051906020019092919050505002026040518363ffffffff1660e01b8152600401808373ffffffffffffffffffffffffffffffffffffffff1673ffffffffffffffffffffffffffffffffffffffff16815260200182815260200192505050600060405180830381600087803b15801561265c57600080fd5b505af1158015612670573d6000803e3d6000fd5b50505050600460009054906101000a900473ffffffffffffffffffffffffffffffffffffffff1673ffffffffffffffffffffffffffffffffffffffff1663b5c3e402846040518263ffffffff1660e01b8152600401808273ffffffffffffffffffffffffffffffffffffffff1673ffffffffffffffffffffffffffffffffffffffff16815260200191505060206040518083038186803b15801561271357600080fd5b505afa158015612727573d6000803e3d6000fd5b505050506040513d602081101561273d57600080fd5b810190808051906020019092919050505093505050505b919050565b6000803390506000600160009054906101000a900473ffffffffffffffffffffffffffffffffffffffff1673ffffffffffffffffffffffffffffffffffffffff16639073af81836040518263ffffffff1660e01b8152600401808273ffffffffffffffffffffffffffffffffffffffff1673ffffffffffffffffffffffffffffffffffffffff16815260200191505060206040518083038186803b15801561280057600080fd5b505afa158015612814573d6000803e3d6000fd5b505050506040513d602081101561282a57600080fd5b81019080805190602001909291905050501461284a576000915050612d30565b600080600160009054906101000a900473ffffffffffffffffffffffffffffffffffffffff1673ffffffffffffffffffffffffffffffffffffffff1663551502d484876040518363ffffffff1660e01b8152600401808373ffffffffffffffffffffffffffffffffffffffff1673ffffffffffffffffffffffffffffffffffffffff16815260200182815260200192505050602060405180830381600087803b1580156128f657600080fd5b505af115801561290a573d6000803e3d6000fd5b505050506040513d602081101561292057600080fd5b81019080805190602001909291905050509150600160009054906101000a900473ffffffffffffffffffffffffffffffffffffffff1673ffffffffffffffffffffffffffffffffffffffff166329058536846040518263ffffffff1660e01b8152600401808273ffffffffffffffffffffffffffffffffffffffff1673ffffffffffffffffffffffffffffffffffffffff16815260200191505060206040518083038186803b1580156129d257600080fd5b505afa1580156129e6573d6000803e3d6000fd5b505050506040513d60208110156129fc57600080fd5b81019080805190602001909291905050509050600015158215151415612a285760009350505050612d30565b600160009054906101000a900473ffffffffffffffffffffffffffffffffffffffff1673ffffffffffffffffffffffffffffffffffffffff16638ed9720284426040518363ffffffff1660e01b8152600401808373ffffffffffffffffffffffffffffffffffffffff1673ffffffffffffffffffffffffffffffffffffffff16815260200182815260200192505050600060405180830381600087803b158015612ad157600080fd5b505af1158015612ae5573d6000803e3d6000fd5b50505050600160009054906101000a900473ffffffffffffffffffffffffffffffffffffffff1673ffffffffffffffffffffffffffffffffffffffff16637e23dbd1848784600160009054906101000a900473ffffffffffffffffffffffffffffffffffffffff1673ffffffffffffffffffffffffffffffffffffffff166347dcb51c6040518163ffffffff1660e01b815260040160206040518083038186803b158015612b9257600080fd5b505afa158015612ba6573d6000803e3d6000fd5b505050506040513d6020811015612bbc57600080fd5b810190808051906020019092919050505002026040518363ffffffff1660e01b8152600401808373ffffffffffffffffffffffffffffffffffffffff1673ffffffffffffffffffffffffffffffffffffffff16815260200182815260200192505050600060405180830381600087803b158015612c3857600080fd5b505af1158015612c4c573d6000803e3d6000fd5b50505050600160009054906101000a900473ffffffffffffffffffffffffffffffffffffffff1673ffffffffffffffffffffffffffffffffffffffff16630c2b6904846040518263ffffffff1660e01b8152600401808273ffffffffffffffffffffffffffffffffffffffff1673ffffffffffffffffffffffffffffffffffffffff16815260200191505060206040518083038186803b158015612cef57600080fd5b505afa158015612d03573d6000803e3d6000fd5b505050506040513d6020811015612d1957600080fd5b810190808051906020019092919050505093505050505b919050565b600080600260009054906101000a900473ffffffffffffffffffffffffffffffffffffffff1673ffffffffffffffffffffffffffffffffffffffff16639073af81846040518263ffffffff1660e01b8152600401808273ffffffffffffffffffffffffffffffffffffffff1673ffffffffffffffffffffffffffffffffffffffff16815260200191505060206040518083038186803b158015612dd757600080fd5b505afa158015612deb573d6000803e3d6000fd5b505050506040513d6020811015612e0157600080fd5b81019080805190602001909291905050501415612e21576000905061381c565b612fe6600260009054906101000a900473ffffffffffffffffffffffffffffffffffffffff1673ffffffffffffffffffffffffffffffffffffffff1663e57d01f6846040518263ffffffff1660e01b8152600401808273ffffffffffffffffffffffffffffffffffffffff1673ffffffffffffffffffffffffffffffffffffffff16815260200191505060206040518083038186803b158015612ec357600080fd5b505afa158015612ed7573d6000803e3d6000fd5b505050506040513d6020811015612eed57600080fd5b8101908080519060200190929190505050600260009054906101000a900473ffffffffffffffffffffffffffffffffffffffff1673ffffffffffffffffffffffffffffffffffffffff16639073af81856040518263ffffffff1660e01b8152600401808273ffffffffffffffffffffffffffffffffffffffff1673ffffffffffffffffffffffffffffffffffffffff16815260200191505060206040518083038186803b158015612f9d57600080fd5b505afa158015612fb1573d6000803e3d6000fd5b505050506040513d6020811015612fc757600080fd5b810190808051906020019092919050505061501790919063ffffffff16565b421061364c57600061326761317f600260009054906101000a900473ffffffffffffffffffffffffffffffffffffffff1673ffffffffffffffffffffffffffffffffffffffff1663a03e7df16040518163ffffffff1660e01b815260040160206040518083038186803b15801561305c57600080fd5b505afa158015613070573d6000803e3d6000fd5b505050506040513d602081101561308657600080fd5b8101908080519060200190929190505050600260009054906101000a900473ffffffffffffffffffffffffffffffffffffffff1673ffffffffffffffffffffffffffffffffffffffff1663b47711fa876040518263ffffffff1660e01b8152600401808273ffffffffffffffffffffffffffffffffffffffff1673ffffffffffffffffffffffffffffffffffffffff16815260200191505060206040518083038186803b15801561313657600080fd5b505afa15801561314a573d6000803e3d6000fd5b505050506040513d602081101561316057600080fd5b810190808051906020019092919050505061509f90919063ffffffff16565b600260009054906101000a900473ffffffffffffffffffffffffffffffffffffffff1673ffffffffffffffffffffffffffffffffffffffff1663e57d01f6866040518263ffffffff1660e01b8152600401808273ffffffffffffffffffffffffffffffffffffffff1673ffffffffffffffffffffffffffffffffffffffff16815260200191505060206040518083038186803b15801561321e57600080fd5b505afa158015613232573d6000803e3d6000fd5b505050506040513d602081101561324857600080fd5b810190808051906020019092919050505061512590919063ffffffff16565b9050600260009054906101000a900473ffffffffffffffffffffffffffffffffffffffff1673ffffffffffffffffffffffffffffffffffffffff1663dda0a3bf8483600260009054906101000a900473ffffffffffffffffffffffffffffffffffffffff1673ffffffffffffffffffffffffffffffffffffffff166332469342886040518263ffffffff1660e01b8152600401808273ffffffffffffffffffffffffffffffffffffffff1673ffffffffffffffffffffffffffffffffffffffff16815260200191505060206040518083038186803b15801561334857600080fd5b505afa15801561335c573d6000803e3d6000fd5b505050506040513d602081101561337257600080fd5b8101908080519060200190929190505050016040518363ffffffff1660e01b8152600401808373ffffffffffffffffffffffffffffffffffffffff1673ffffffffffffffffffffffffffffffffffffffff16815260200182815260200192505050600060405180830381600087803b1580156133ed57600080fd5b505af1158015613401573d6000803e3d6000fd5b50505050600260009054906101000a900473ffffffffffffffffffffffffffffffffffffffff1673ffffffffffffffffffffffffffffffffffffffff16638ed972028460006040518363ffffffff1660e01b8152600401808373ffffffffffffffffffffffffffffffffffffffff1673ffffffffffffffffffffffffffffffffffffffff16815260200182815260200192505050600060405180830381600087803b1580156134af57600080fd5b505af11580156134c3573d6000803e3d6000fd5b50505050600260009054906101000a900473ffffffffffffffffffffffffffffffffffffffff1673ffffffffffffffffffffffffffffffffffffffff1663e9439b038460006040518363ffffffff1660e01b8152600401808373ffffffffffffffffffffffffffffffffffffffff1673ffffffffffffffffffffffffffffffffffffffff16815260200182815260200192505050600060405180830381600087803b15801561357157600080fd5b505af1158015613585573d6000803e3d6000fd5b50505050600260009054906101000a900473ffffffffffffffffffffffffffffffffffffffff1673ffffffffffffffffffffffffffffffffffffffff1663fa9f3096846040518263ffffffff1660e01b8152600401808273ffffffffffffffffffffffffffffffffffffffff1673ffffffffffffffffffffffffffffffffffffffff168152602001915050600060405180830381600087803b15801561362a57600080fd5b505af115801561363e573d6000803e3d6000fd5b50505050600091505061381c565b600061381542600260009054906101000a900473ffffffffffffffffffffffffffffffffffffffff1673ffffffffffffffffffffffffffffffffffffffff1663e57d01f6866040518263ffffffff1660e01b8152600401808273ffffffffffffffffffffffffffffffffffffffff1673ffffffffffffffffffffffffffffffffffffffff16815260200191505060206040518083038186803b1580156136f157600080fd5b505afa158015613705573d6000803e3d6000fd5b505050506040513d602081101561371b57600080fd5b8101908080519060200190929190505050600260009054906101000a900473ffffffffffffffffffffffffffffffffffffffff1673ffffffffffffffffffffffffffffffffffffffff16639073af81876040518263ffffffff1660e01b8152600401808273ffffffffffffffffffffffffffffffffffffffff1673ffffffffffffffffffffffffffffffffffffffff16815260200191505060206040518083038186803b1580156137cb57600080fd5b505afa1580156137df573d6000803e3d6000fd5b505050506040513d60208110156137f557600080fd5b81019080805190602001909291905050500161516f90919063ffffffff16565b9050809150505b919050565b600080600360009054906101000a900473ffffffffffffffffffffffffffffffffffffffff1673ffffffffffffffffffffffffffffffffffffffff16639073af81336040518263ffffffff1660e01b8152600401808273ffffffffffffffffffffffffffffffffffffffff1673ffffffffffffffffffffffffffffffffffffffff16815260200191505060206040518083038186803b1580156138c357600080fd5b505afa1580156138d7573d6000803e3d6000fd5b505050506040513d60208110156138ed57600080fd5b81019080805190602001909291905050504203600360009054906101000a900473ffffffffffffffffffffffffffffffffffffffff1673ffffffffffffffffffffffffffffffffffffffff16638a8e016e336040518263ffffffff1660e01b8152600401808273ffffffffffffffffffffffffffffffffffffffff1673ffffffffffffffffffffffffffffffffffffffff16815260200191505060206040518083038186803b15801561399f57600080fd5b505afa1580156139b3573d6000803e3d6000fd5b505050506040513d60208110156139c957600080fd5b8101908080519060200190929190505050915091509091565b600080600260009054906101000a900473ffffffffffffffffffffffffffffffffffffffff1673ffffffffffffffffffffffffffffffffffffffff16639073af81336040518263ffffffff1660e01b8152600401808273ffffffffffffffffffffffffffffffffffffffff1673ffffffffffffffffffffffffffffffffffffffff16815260200191505060206040518083038186803b158015613a8457600080fd5b505afa158015613a98573d6000803e3d6000fd5b505050506040513d6020811015613aae57600080fd5b81019080805190602001909291905050504203600260009054906101000a900473ffffffffffffffffffffffffffffffffffffffff1673ffffffffffffffffffffffffffffffffffffffff1663e57d01f6336040518263ffffffff1660e01b8152600401808273ffffffffffffffffffffffffffffffffffffffff1673ffffffffffffffffffffffffffffffffffffffff16815260200191505060206040518083038186803b158015613b6057600080fd5b505afa158015613b74573d6000803e3d6000fd5b505050506040513d6020811015613b8a57600080fd5b8101908080519060200190929190505050915091509091565b6000809054906101000a900473ffffffffffffffffffffffffffffffffffffffff1673ffffffffffffffffffffffffffffffffffffffff166321241b3f3384846040518463ffffffff1660e01b8152600401808473ffffffffffffffffffffffffffffffffffffffff1673ffffffffffffffffffffffffffffffffffffffff16815260200180602001848152602001838152602001828103825260078152602001807f4261727261636b00000000000000000000000000000000000000000000000000815250602001945050505050602060405180830381600087803b158015613c8c57600080fd5b505af1158015613ca0573d6000803e3d6000fd5b505050506040513d6020811015613cb657600080fd5b810190808051906020019092919050505050600160009054906101000a900473ffffffffffffffffffffffffffffffffffffffff1673ffffffffffffffffffffffffffffffffffffffff16636f58051b3360016040518363ffffffff1660e01b8152600401808373ffffffffffffffffffffffffffffffffffffffff1673ffffffffffffffffffffffffffffffffffffffff16815260200182815260200192505050600060405180830381600087803b158015613d7257600080fd5b505af1158015613d86573d6000803e3d6000fd5b505050505050565b600080600160009054906101000a900473ffffffffffffffffffffffffffffffffffffffff1673ffffffffffffffffffffffffffffffffffffffff16639073af81336040518263ffffffff1660e01b8152600401808273ffffffffffffffffffffffffffffffffffffffff1673ffffffffffffffffffffffffffffffffffffffff16815260200191505060206040518083038186803b158015613e3057600080fd5b505afa158015613e44573d6000803e3d6000fd5b505050506040513d6020811015613e5a57600080fd5b81019080805190602001909291905050504203600160009054906101000a900473ffffffffffffffffffffffffffffffffffffffff1673ffffffffffffffffffffffffffffffffffffffff16630c2b6904336040518263ffffffff1660e01b8152600401808273ffffffffffffffffffffffffffffffffffffffff1673ffffffffffffffffffffffffffffffffffffffff16815260200191505060206040518083038186803b158015613f0c57600080fd5b505afa158015613f20573d6000803e3d6000fd5b505050506040513d6020811015613f3657600080fd5b8101908080519060200190929190505050915091509091565b600080600360009054906101000a900473ffffffffffffffffffffffffffffffffffffffff1673ffffffffffffffffffffffffffffffffffffffff16639073af81846040518263ffffffff1660e01b8152600401808273ffffffffffffffffffffffffffffffffffffffff1673ffffffffffffffffffffffffffffffffffffffff16815260200191505060206040518083038186803b158015613ff157600080fd5b505afa158015614005573d6000803e3d6000fd5b505050506040513d602081101561401b57600080fd5b8101908080519060200190929190505050141561403b5760009050614a36565b614200600360009054906101000a900473ffffffffffffffffffffffffffffffffffffffff1673ffffffffffffffffffffffffffffffffffffffff16638a8e016e846040518263ffffffff1660e01b8152600401808273ffffffffffffffffffffffffffffffffffffffff1673ffffffffffffffffffffffffffffffffffffffff16815260200191505060206040518083038186803b1580156140dd57600080fd5b505afa1580156140f1573d6000803e3d6000fd5b505050506040513d602081101561410757600080fd5b8101908080519060200190929190505050600360009054906101000a900473ffffffffffffffffffffffffffffffffffffffff1673ffffffffffffffffffffffffffffffffffffffff16639073af81856040518263ffffffff1660e01b8152600401808273ffffffffffffffffffffffffffffffffffffffff1673ffffffffffffffffffffffffffffffffffffffff16815260200191505060206040518083038186803b1580156141b757600080fd5b505afa1580156141cb573d6000803e3d6000fd5b505050506040513d60208110156141e157600080fd5b810190808051906020019092919050505061501790919063ffffffff16565b4210614866576000614481614399600360009054906101000a900473ffffffffffffffffffffffffffffffffffffffff1673ffffffffffffffffffffffffffffffffffffffff1663f3b837566040518163ffffffff1660e01b815260040160206040518083038186803b15801561427657600080fd5b505afa15801561428a573d6000803e3d6000fd5b505050506040513d60208110156142a057600080fd5b8101908080519060200190929190505050600360009054906101000a900473ffffffffffffffffffffffffffffffffffffffff1673ffffffffffffffffffffffffffffffffffffffff1663d0bb9e90876040518263ffffffff1660e01b8152600401808273ffffffffffffffffffffffffffffffffffffffff1673ffffffffffffffffffffffffffffffffffffffff16815260200191505060206040518083038186803b15801561435057600080fd5b505afa158015614364573d6000803e3d6000fd5b505050506040513d602081101561437a57600080fd5b810190808051906020019092919050505061509f90919063ffffffff16565b600360009054906101000a900473ffffffffffffffffffffffffffffffffffffffff1673ffffffffffffffffffffffffffffffffffffffff16638a8e016e866040518263ffffffff1660e01b8152600401808273ffffffffffffffffffffffffffffffffffffffff1673ffffffffffffffffffffffffffffffffffffffff16815260200191505060206040518083038186803b15801561443857600080fd5b505afa15801561444c573d6000803e3d6000fd5b505050506040513d602081101561446257600080fd5b810190808051906020019092919050505061512590919063ffffffff16565b9050600360009054906101000a900473ffffffffffffffffffffffffffffffffffffffff1673ffffffffffffffffffffffffffffffffffffffff16632b16a5648483600360009054906101000a900473ffffffffffffffffffffffffffffffffffffffff1673ffffffffffffffffffffffffffffffffffffffff166357f683d3886040518263ffffffff1660e01b8152600401808273ffffffffffffffffffffffffffffffffffffffff1673ffffffffffffffffffffffffffffffffffffffff16815260200191505060206040518083038186803b15801561456257600080fd5b505afa158015614576573d6000803e3d6000fd5b505050506040513d602081101561458c57600080fd5b8101908080519060200190929190505050016040518363ffffffff1660e01b8152600401808373ffffffffffffffffffffffffffffffffffffffff1673ffffffffffffffffffffffffffffffffffffffff16815260200182815260200192505050600060405180830381600087803b15801561460757600080fd5b505af115801561461b573d6000803e3d6000fd5b50505050600360009054906101000a900473ffffffffffffffffffffffffffffffffffffffff1673ffffffffffffffffffffffffffffffffffffffff16638ed972028460006040518363ffffffff1660e01b8152600401808373ffffffffffffffffffffffffffffffffffffffff1673ffffffffffffffffffffffffffffffffffffffff16815260200182815260200192505050600060405180830381600087803b1580156146c957600080fd5b505af11580156146dd573d6000803e3d6000fd5b50505050600360009054906101000a900473ffffffffffffffffffffffffffffffffffffffff1673ffffffffffffffffffffffffffffffffffffffff16636a209ea08460006040518363ffffffff1660e01b8152600401808373ffffffffffffffffffffffffffffffffffffffff1673ffffffffffffffffffffffffffffffffffffffff16815260200182815260200192505050600060405180830381600087803b15801561478b57600080fd5b505af115801561479f573d6000803e3d6000fd5b50505050600360009054906101000a900473ffffffffffffffffffffffffffffffffffffffff1673ffffffffffffffffffffffffffffffffffffffff1663598b8e4e846040518263ffffffff1660e01b8152600401808273ffffffffffffffffffffffffffffffffffffffff1673ffffffffffffffffffffffffffffffffffffffff168152602001915050600060405180830381600087803b15801561484457600080fd5b505af1158015614858573d6000803e3d6000fd5b505050506000915050614a36565b6000614a2f42600360009054906101000a900473ffffffffffffffffffffffffffffffffffffffff1673ffffffffffffffffffffffffffffffffffffffff16638a8e016e866040518263ffffffff1660e01b8152600401808273ffffffffffffffffffffffffffffffffffffffff1673ffffffffffffffffffffffffffffffffffffffff16815260200191505060206040518083038186803b15801561490b57600080fd5b505afa15801561491f573d6000803e3d6000fd5b505050506040513d602081101561493557600080fd5b8101908080519060200190929190505050600360009054906101000a900473ffffffffffffffffffffffffffffffffffffffff1673ffffffffffffffffffffffffffffffffffffffff16639073af81876040518263ffffffff1660e01b8152600401808273ffffffffffffffffffffffffffffffffffffffff1673ffffffffffffffffffffffffffffffffffffffff16815260200191505060206040518083038186803b1580156149e557600080fd5b505afa1580156149f9573d6000803e3d6000fd5b505050506040513d6020811015614a0f57600080fd5b81019080805190602001909291905050500161516f90919063ffffffff16565b9050809150505b919050565b6000803390506000600360009054906101000a900473ffffffffffffffffffffffffffffffffffffffff1673ffffffffffffffffffffffffffffffffffffffff16639073af81836040518263ffffffff1660e01b8152600401808273ffffffffffffffffffffffffffffffffffffffff1673ffffffffffffffffffffffffffffffffffffffff16815260200191505060206040518083038186803b158015614ae257600080fd5b505afa158015614af6573d6000803e3d6000fd5b505050506040513d6020811015614b0c57600080fd5b810190808051906020019092919050505014614b2c576000915050615012565b600080600360009054906101000a900473ffffffffffffffffffffffffffffffffffffffff1673ffffffffffffffffffffffffffffffffffffffff1663efbbf17384876040518363ffffffff1660e01b8152600401808373ffffffffffffffffffffffffffffffffffffffff1673ffffffffffffffffffffffffffffffffffffffff16815260200182815260200192505050602060405180830381600087803b158015614bd857600080fd5b505af1158015614bec573d6000803e3d6000fd5b505050506040513d6020811015614c0257600080fd5b81019080805190602001909291905050509150600360009054906101000a900473ffffffffffffffffffffffffffffffffffffffff1673ffffffffffffffffffffffffffffffffffffffff1663d0bb9e90846040518263ffffffff1660e01b8152600401808273ffffffffffffffffffffffffffffffffffffffff1673ffffffffffffffffffffffffffffffffffffffff16815260200191505060206040518083038186803b158015614cb457600080fd5b505afa158015614cc8573d6000803e3d6000fd5b505050506040513d6020811015614cde57600080fd5b81019080805190602001909291905050509050600015158215151415614d0a5760009350505050615012565b600360009054906101000a900473ffffffffffffffffffffffffffffffffffffffff1673ffffffffffffffffffffffffffffffffffffffff16638ed9720284426040518363ffffffff1660e01b8152600401808373ffffffffffffffffffffffffffffffffffffffff1673ffffffffffffffffffffffffffffffffffffffff16815260200182815260200192505050600060405180830381600087803b158015614db357600080fd5b505af1158015614dc7573d6000803e3d6000fd5b50505050600360009054906101000a900473ffffffffffffffffffffffffffffffffffffffff1673ffffffffffffffffffffffffffffffffffffffff16636a209ea0848784600360009054906101000a900473ffffffffffffffffffffffffffffffffffffffff1673ffffffffffffffffffffffffffffffffffffffff1663f3b837566040518163ffffffff1660e01b815260040160206040518083038186803b158015614e7457600080fd5b505afa158015614e88573d6000803e3d6000fd5b505050506040513d6020811015614e9e57600080fd5b810190808051906020019092919050505002026040518363ffffffff1660e01b8152600401808373ffffffffffffffffffffffffffffffffffffffff1673ffffffffffffffffffffffffffffffffffffffff16815260200182815260200192505050600060405180830381600087803b158015614f1a57600080fd5b505af1158015614f2e573d6000803e3d6000fd5b50505050600360009054906101000a900473ffffffffffffffffffffffffffffffffffffffff1673ffffffffffffffffffffffffffffffffffffffff16638a8e016e846040518263ffffffff1660e01b8152600401808273ffffffffffffffffffffffffffffffffffffffff1673ffffffffffffffffffffffffffffffffffffffff16815260200191505060206040518083038186803b158015614fd157600080fd5b505afa158015614fe5573d6000803e3d6000fd5b505050506040513d6020811015614ffb57600080fd5b810190808051906020019092919050505093505050505b919050565b600080828401905083811015615095576040517f08c379a000000000000000000000000000000000000000000000000000000000815260040180806020018281038252601b8152602001807f536166654d6174683a206164646974696f6e206f766572666c6f77000000000081525060200191505060405180910390fd5b8091505092915050565b6000808314156150b2576000905061511f565b60008284029050828482816150c357fe5b041461511a576040517f08c379a00000000000000000000000000000000000000000000000000000000081526004018080602001828103825260218152602001806153406021913960400191505060405180910390fd5b809150505b92915050565b600061516783836040518060400160405280601a81526020017f536166654d6174683a206469766973696f6e206279207a65726f0000000000008152506151b9565b905092915050565b60006151b183836040518060400160405280601e81526020017f536166654d6174683a207375627472616374696f6e206f766572666c6f77000081525061527f565b905092915050565b60008083118290615265576040517f08c379a00000000000000000000000000000000000000000000000000000000081526004018080602001828103825283818151815260200191508051906020019080838360005b8381101561522a57808201518184015260208101905061520f565b50505050905090810190601f1680156152575780820380516001836020036101000a031916815260200191505b509250505060405180910390fd5b50600083858161527157fe5b049050809150509392505050565b600083831115829061532c576040517f08c379a00000000000000000000000000000000000000000000000000000000081526004018080602001828103825283818151815260200191508051906020019080838360005b838110156152f15780820151818401526020810190506152d6565b50505050905090810190601f16801561531e5780820380516001836020036101000a031916815260200191505b509250505060405180910390fd5b506000838503905080915050939250505056fe536166654d6174683a206d756c7469706c69636174696f6e206f766572666c6f77a265627a7a723158209b833664079fb4e2185596faece95751d75e40f569f0139267b1877bce1d74f564736f6c63430005100032",
  "source": "pragma solidity >=0.4.21 <0.7.0;\n\nimport \"./SafeMath.sol\";\nimport \"./BuildingFactory.sol\";\nimport \"./Soldier.sol\";\nimport \"./Spy.sol\";\nimport \"./Cannon.sol\";\nimport \"./Protector.sol\";\n\ncontract Barrack {\n\n    using SafeMath for uint;\n\n    BuildingFactory buildingInstance;\n    Soldier soldierInstance;\n    Protector ProtectorInstance;\n    Cannon CannonInstance;\n    Spy SpyInstance;\n    constructor(address _building_address, address _soldier_address, address _spy_instance, address _cannon_instance, address _protector_instance) public {\n        buildingInstance = BuildingFactory(_building_address);\n        soldierInstance = Soldier(_soldier_address);\n        SpyInstance = Spy(_spy_instance);\n        ProtectorInstance = Protector(_protector_instance);\n        CannonInstance = Cannon(_cannon_instance);\n    }\n\n    function createBarrack(uint _x, uint _y) public {\n        buildingInstance._createBuilding(msg.sender, \"Barrack\", _x, _y);\n        soldierInstance.setSoldierLevel(msg.sender, 1);\n    }\n\n    // return 0 if failed (maybe already creating or not enough resource) otherwise return createtime\n    function startCreateSoldier(uint number) public returns(uint) {\n        address _owner = msg.sender;\n        if(soldierInstance.ownerStartCreateTime(_owner) != 0) return uint(0); // check if there is already creating soldiers\n        bool enoughResource;\n        uint lvOfSoldier;\n        enoughResource = soldierInstance._createSoldier(_owner, number);\n        lvOfSoldier =  soldierInstance.levelOfSoldier(_owner);\n        if(enoughResource == false) return uint(0);\n        soldierInstance.setStartCreateTime(_owner, uint(now));\n        soldierInstance.setCreateSoldierTime(_owner, soldierInstance.createSoldierTime() * lvOfSoldier * number);\n        return soldierInstance.ownerCreateSoldierTime(_owner);\n    }\n\n    function getCreateSoldierTime() public view returns(uint, uint) {\n        return ( now - soldierInstance.ownerStartCreateTime(msg.sender), soldierInstance.ownerCreateSoldierTime(msg.sender) ) ;\n    }\n\n    // // return 0 if success else return remaining time\n    function updateCreateSoldier(address _owner) public returns(uint) {\n        if (soldierInstance.ownerStartCreateTime(_owner) == 0) return 0;\n        if (now >= soldierInstance.ownerStartCreateTime(_owner).add(soldierInstance.ownerCreateSoldierTime(_owner))) {\n            uint num;\n            num = soldierInstance.ownerCreateSoldierTime(_owner).div(  soldierInstance.levelOfSoldier(_owner).mul(soldierInstance.createSoldierTime()) );\n            soldierInstance.setNumOfSoldier(_owner, soldierInstance.numOfSoldier(_owner) + (num));\n            soldierInstance.setStartCreateTime(_owner, 0);\n            soldierInstance.setCreateSoldierTime(_owner, 0);\n            soldierInstance._updatePower(_owner);\n            return 0;\n        }\n        else {\n            uint remainingTime = (soldierInstance.ownerStartCreateTime(_owner) + soldierInstance.ownerCreateSoldierTime(_owner)).sub(now);\n            return remainingTime;\n        }\n    }\n\n    // return 0 if failed (maybe already creating or not enough resource) otherwise return createtime\n    function startCreateSpy(uint number) public returns(uint) {\n        address _owner = msg.sender;\n        if(SpyInstance.ownerStartCreateTime(_owner) != 0) return uint(0); // check if there is already creating spys\n        bool enoughResource;\n        uint lvOfSpy;\n        enoughResource = SpyInstance._createSpy(_owner, number);\n        lvOfSpy =  SpyInstance.levelOfSpy(_owner);\n        if(enoughResource == false) return uint(0);\n        SpyInstance.setStartCreateTime(_owner, uint(now));\n        SpyInstance.setCreateSpyTime(_owner, SpyInstance.createSpyTime() * lvOfSpy * number);\n        return SpyInstance.ownerCreateSpyTime(_owner);\n    }\n\n    function getCreateSpyTime() public view returns(uint, uint) {\n        return ( now - SpyInstance.ownerStartCreateTime(msg.sender), SpyInstance.ownerCreateSpyTime(msg.sender) ) ;\n    }\n\n    // // return 0 if success else return remaining time\n    function updateCreateSpy(address _owner) public returns(uint) {\n        if (SpyInstance.ownerStartCreateTime(_owner) == 0) return 0;\n        if (now >= SpyInstance.ownerStartCreateTime(_owner).add(SpyInstance.ownerCreateSpyTime(_owner))) {\n            uint num;\n            num = SpyInstance.ownerCreateSpyTime(_owner).div(  SpyInstance.levelOfSpy(_owner).mul(SpyInstance.createSpyTime()) );\n            SpyInstance.setNumOfSpy(_owner, SpyInstance.numOfSpy(_owner) + (num));\n            SpyInstance.setStartCreateTime(_owner, 0);\n            SpyInstance.setCreateSpyTime(_owner, 0);\n            SpyInstance._updateSpyPower(_owner);\n            return 0;\n        }\n        else {\n            uint remainingTime = (SpyInstance.ownerStartCreateTime(_owner) + SpyInstance.ownerCreateSpyTime(_owner)).sub(now);\n            return remainingTime;\n        }\n    }\n\n    // return 0 if failed (maybe already creating or not enough resource) otherwise return createtime\n    function startCreateCannon(uint number) public returns(uint) {\n        address _owner = msg.sender;\n        if(CannonInstance.ownerStartCreateTime(_owner) != 0) return uint(0); // check if there is already creating Cannons\n        bool enoughResource;\n        uint lvOfCannon;\n        enoughResource = CannonInstance._createCannon(_owner, number);\n        lvOfCannon =  CannonInstance.levelOfCannon(_owner);\n        if(enoughResource == false) return uint(0);\n        CannonInstance.setStartCreateTime(_owner, uint(now));\n        CannonInstance.setCreateCannonTime(_owner, CannonInstance.createCannonTime() * lvOfCannon * number);\n        return CannonInstance.ownerCreateCannonTime(_owner);\n    }\n\n    function getCreateCannonTime() public view returns(uint, uint) {\n        return ( now - CannonInstance.ownerStartCreateTime(msg.sender), CannonInstance.ownerCreateCannonTime(msg.sender) ) ;\n    }\n\n    // // return 0 if success else return remaining time\n    function updateCreateCannon(address _owner) public returns(uint) {\n        if (CannonInstance.ownerStartCreateTime(_owner) == 0) return 0;\n        if (now >= CannonInstance.ownerStartCreateTime(_owner).add(CannonInstance.ownerCreateCannonTime(_owner))) {\n            uint num;\n            num = CannonInstance.ownerCreateCannonTime(_owner).div(  CannonInstance.levelOfCannon(_owner).mul(CannonInstance.createCannonTime()) );\n            CannonInstance.setNumOfCannon(_owner, CannonInstance.numOfCannon(_owner) + (num));\n            CannonInstance.setStartCreateTime(_owner, 0);\n            CannonInstance.setCreateCannonTime(_owner, 0);\n            CannonInstance._updateCannonPower(_owner);\n            return 0;\n        }\n        else {\n            uint remainingTime = (CannonInstance.ownerStartCreateTime(_owner) + CannonInstance.ownerCreateCannonTime(_owner)).sub(now);\n            return remainingTime;\n        }\n    }\n\n    // return 0 if failed (maybe already creating or not enough resource) otherwise return createtime\n    function startCreateProtector(uint number) public returns(uint) {\n        address _owner = msg.sender;\n        if(ProtectorInstance.ownerStartCreateTime(_owner) != 0) return uint(0); // check if there is already creating Protectors\n        bool enoughResource;\n        uint lvOfProtector;\n        enoughResource = ProtectorInstance._createProtector(_owner, number);\n        lvOfProtector =  ProtectorInstance.levelOfProtector(_owner);\n        if(enoughResource == false) return uint(0);\n        ProtectorInstance.setStartCreateTime(_owner, uint(now));\n        ProtectorInstance.setCreateProtectorTime(_owner, ProtectorInstance.createProtectorTime() * lvOfProtector * number);\n        return ProtectorInstance.ownerCreateProtectorTime(_owner);\n    }\n\n    function getCreateProtectorTime() public view returns(uint, uint) {\n        return ( now - ProtectorInstance.ownerStartCreateTime(msg.sender), ProtectorInstance.ownerCreateProtectorTime(msg.sender) ) ;\n    }\n\n    // // return 0 if success else return remaining time\n    function updateCreateProtector(address _owner) public returns(uint) {\n        if (ProtectorInstance.ownerStartCreateTime(_owner) == 0) return 0;\n        if (now >= ProtectorInstance.ownerStartCreateTime(_owner).add(ProtectorInstance.ownerCreateProtectorTime(_owner))) {\n            uint num;\n            num = ProtectorInstance.ownerCreateProtectorTime(_owner).div(  ProtectorInstance.levelOfProtector(_owner).mul(ProtectorInstance.createProtectorTime()) );\n            ProtectorInstance.setNumOfProtector(_owner, ProtectorInstance.numOfProtector(_owner) + (num));\n            ProtectorInstance.setStartCreateTime(_owner, 0);\n            ProtectorInstance.setCreateProtectorTime(_owner, 0);\n            ProtectorInstance._updateProtectorPower(_owner);\n            return 0;\n        }\n        else {\n            uint remainingTime = (ProtectorInstance.ownerStartCreateTime(_owner) + ProtectorInstance.ownerCreateProtectorTime(_owner)).sub(now);\n            return remainingTime;\n        }\n    }\n\n}",
  "sourcePath": "/Users/seanwang0823/NMLab_Final/contracts/Barrack.sol",
  "compiler": {
    "name": "solc",
    "version": "0.5.16+commit.9c3226ce.Emscripten.clang"
  },
  "schemaVersion": "3.4.0",
  "updatedAt": "2021-06-02T08:06:42.146Z",
  "networkType": "ethereum",
  "devdoc": {
    "methods": {}
  },
  "userdoc": {
    "methods": {}
  }
}