{
  "contractName": "Barrack",
  "abi": [
    {
      "inputs": [
        {
          "internalType": "address",
          "name": "_building_address",
          "type": "address"
        },
        {
          "internalType": "address",
          "name": "_soldier_address",
          "type": "address"
        },
        {
          "internalType": "address",
          "name": "_spy_instance",
          "type": "address"
        },
        {
          "internalType": "address",
          "name": "_cannon_instance",
          "type": "address"
        },
        {
          "internalType": "address",
          "name": "_protector_instance",
          "type": "address"
        },
        {
          "internalType": "address",
          "name": "_wall_instance",
          "type": "address"
        },
        {
          "internalType": "address",
          "name": "_account_instance",
          "type": "address"
        }
      ],
      "payable": false,
      "stateMutability": "nonpayable",
      "type": "constructor"
    },
    {
      "constant": true,
      "inputs": [
        {
          "internalType": "address",
          "name": "",
          "type": "address"
        }
      ],
      "name": "ownerStartMarchTime",
      "outputs": [
        {
          "internalType": "uint256",
          "name": "",
          "type": "uint256"
        }
      ],
      "payable": false,
      "stateMutability": "view",
      "type": "function"
    },
    {
      "constant": true,
      "inputs": [
        {
          "internalType": "address",
          "name": "",
          "type": "address"
        }
      ],
      "name": "ownerTotalMarchTime",
      "outputs": [
        {
          "internalType": "uint256",
          "name": "",
          "type": "uint256"
        }
      ],
      "payable": false,
      "stateMutability": "view",
      "type": "function"
    },
    {
      "constant": false,
      "inputs": [
        {
          "internalType": "uint256",
          "name": "_x",
          "type": "uint256"
        },
        {
          "internalType": "uint256",
          "name": "_y",
          "type": "uint256"
        }
      ],
      "name": "createBarrack",
      "outputs": [],
      "payable": false,
      "stateMutability": "nonpayable",
      "type": "function"
    },
    {
      "constant": false,
      "inputs": [
        {
          "internalType": "string",
          "name": "a",
          "type": "string"
        },
        {
          "internalType": "string",
          "name": "b",
          "type": "string"
        }
      ],
      "name": "concatenate",
      "outputs": [
        {
          "internalType": "string",
          "name": "",
          "type": "string"
        }
      ],
      "payable": false,
      "stateMutability": "nonpayable",
      "type": "function"
    },
    {
      "constant": false,
      "inputs": [
        {
          "internalType": "uint256",
          "name": "_attackedCastleId",
          "type": "uint256"
        }
      ],
      "name": "startMarch",
      "outputs": [
        {
          "internalType": "uint256",
          "name": "",
          "type": "uint256"
        }
      ],
      "payable": false,
      "stateMutability": "nonpayable",
      "type": "function"
    },
    {
      "constant": true,
      "inputs": [],
      "name": "getMarchTime",
      "outputs": [
        {
          "internalType": "uint256",
          "name": "",
          "type": "uint256"
        },
        {
          "internalType": "uint256",
          "name": "",
          "type": "uint256"
        },
        {
          "internalType": "uint256",
          "name": "",
          "type": "uint256"
        }
      ],
      "payable": false,
      "stateMutability": "view",
      "type": "function"
    },
    {
      "constant": false,
      "inputs": [
        {
          "internalType": "uint256",
          "name": "a",
          "type": "uint256"
        },
        {
          "internalType": "uint256",
          "name": "b",
          "type": "uint256"
        },
        {
          "internalType": "uint256",
          "name": "c",
          "type": "uint256"
        }
      ],
      "name": "is_annihilated",
      "outputs": [
        {
          "internalType": "bool",
          "name": "",
          "type": "bool"
        }
      ],
      "payable": false,
      "stateMutability": "nonpayable",
      "type": "function"
    },
    {
      "constant": false,
      "inputs": [
        {
          "internalType": "address",
          "name": "id",
          "type": "address"
        }
      ],
      "name": "annihilated",
      "outputs": [
        {
          "internalType": "bool",
          "name": "",
          "type": "bool"
        }
      ],
      "payable": false,
      "stateMutability": "nonpayable",
      "type": "function"
    },
    {
      "constant": false,
      "inputs": [
        {
          "internalType": "address",
          "name": "attack_id",
          "type": "address"
        },
        {
          "internalType": "address",
          "name": "defend_id",
          "type": "address"
        },
        {
          "internalType": "uint256",
          "name": "attacker_flag",
          "type": "uint256"
        },
        {
          "internalType": "uint256",
          "name": "defender_flag",
          "type": "uint256"
        },
        {
          "internalType": "uint256",
          "name": "attacker_q",
          "type": "uint256"
        },
        {
          "internalType": "uint256",
          "name": "defender_q",
          "type": "uint256"
        },
        {
          "internalType": "uint256",
          "name": "injure",
          "type": "uint256"
        }
      ],
      "name": "battle_army",
      "outputs": [
        {
          "internalType": "uint256",
          "name": "",
          "type": "uint256"
        },
        {
          "internalType": "uint256",
          "name": "",
          "type": "uint256"
        },
        {
          "internalType": "uint256",
          "name": "",
          "type": "uint256"
        }
      ],
      "payable": false,
      "stateMutability": "nonpayable",
      "type": "function"
    },
    {
      "constant": false,
      "inputs": [
        {
          "internalType": "uint256",
          "name": "_owner",
          "type": "uint256"
        },
        {
          "internalType": "uint256",
          "name": "_attackedCastle",
          "type": "uint256"
        }
      ],
      "name": "attack",
      "outputs": [
        {
          "internalType": "uint256",
          "name": "",
          "type": "uint256"
        }
      ],
      "payable": false,
      "stateMutability": "nonpayable",
      "type": "function"
    },
    {
      "constant": false,
      "inputs": [],
      "name": "getBattleLog",
      "outputs": [
        {
          "internalType": "string",
          "name": "",
          "type": "string"
        }
      ],
      "payable": false,
      "stateMutability": "nonpayable",
      "type": "function"
    }
  ],
  "bytecode": "0x608060405234801561001057600080fd5b506040516200465e3803806200465e833981810160405260e081101561003557600080fd5b810190808051906020019092919080519060200190929190805190602001909291908051906020019092919080519060200190929190805190602001909291908051906020019092919050505086600360006101000a81548173ffffffffffffffffffffffffffffffffffffffff021916908373ffffffffffffffffffffffffffffffffffffffff16021790555085600460006101000a81548173ffffffffffffffffffffffffffffffffffffffff021916908373ffffffffffffffffffffffffffffffffffffffff16021790555084600760006101000a81548173ffffffffffffffffffffffffffffffffffffffff021916908373ffffffffffffffffffffffffffffffffffffffff16021790555082600560006101000a81548173ffffffffffffffffffffffffffffffffffffffff021916908373ffffffffffffffffffffffffffffffffffffffff16021790555083600660006101000a81548173ffffffffffffffffffffffffffffffffffffffff021916908373ffffffffffffffffffffffffffffffffffffffff16021790555080600860006101000a81548173ffffffffffffffffffffffffffffffffffffffff021916908373ffffffffffffffffffffffffffffffffffffffff16021790555081600960006101000a81548173ffffffffffffffffffffffffffffffffffffffff021916908373ffffffffffffffffffffffffffffffffffffffff160217905550505050505050506143fe80620002606000396000f3fe608060405234801561001057600080fd5b50600436106100a95760003560e01c8063b7c47d6e11610071578063b7c47d6e146103f2578063d345572b1461042a578063e1fa763814610482578063ebf72492146104ce578063f104f7cb14610528578063f6577c9214610554576100a9565b8063058981e8146100ae578063234a32a714610106578063266001d31461018957806347e870b21461035457806351e45bf5146103b0575b600080fd5b6100f0600480360360208110156100c457600080fd5b81019080803573ffffffffffffffffffffffffffffffffffffffff16906020019092919050505061060c565b6040518082815260200191505060405180910390f35b61010e610624565b6040518080602001828103825283818151815260200191508051906020019080838360005b8381101561014e578082015181840152602081019050610133565b50505050905090810190601f16801561017b5780820380516001836020036101000a031916815260200191505b509250505060405180910390f35b6102d96004803603604081101561019f57600080fd5b81019080803590602001906401000000008111156101bc57600080fd5b8201836020820111156101ce57600080fd5b803590602001918460018302840111640100000000831117156101f057600080fd5b91908080601f016020809104026020016040519081016040528093929190818152602001838380828437600081840152601f19601f8201169050808301925050505050505091929192908035906020019064010000000081111561025357600080fd5b82018360208201111561026557600080fd5b8035906020019184600183028401116401000000008311171561028757600080fd5b91908080601f016020809104026020016040519081016040528093929190818152602001838380828437600081840152601f19601f8201169050808301925050505050505091929192905050506106c6565b6040518080602001828103825283818151815260200191508051906020019080838360005b838110156103195780820151818401526020810190506102fe565b50505050905090810190601f1680156103465780820380516001836020036101000a031916815260200191505b509250505060405180910390f35b6103966004803603602081101561036a57600080fd5b81019080803573ffffffffffffffffffffffffffffffffffffffff16906020019092919050505061078e565b604051808215151515815260200191505060405180910390f35b6103dc600480360360208110156103c657600080fd5b8101908080359060200190929190505050610a3a565b6040518082815260200191505060405180910390f35b6104286004803603604081101561040857600080fd5b810190808035906020019092919080359060200190929190505050610ec9565b005b61046c6004803603602081101561044057600080fd5b81019080803573ffffffffffffffffffffffffffffffffffffffff1690602001909291905050506113bd565b6040518082815260200191505060405180910390f35b6104b86004803603604081101561049857600080fd5b8101908080359060200190929190803590602001909291905050506113d5565b6040518082815260200191505060405180910390f35b61050e600480360360608110156104e457600080fd5b8101908080359060200190929190803590602001909291908035906020019092919050505061348d565b604051808215151515815260200191505060405180910390f35b6105306134b0565b60405180848152602001838152602001828152602001935050505060405180910390f35b6105e8600480360360e081101561056a57600080fd5b81019080803573ffffffffffffffffffffffffffffffffffffffff169060200190929190803573ffffffffffffffffffffffffffffffffffffffff1690602001909291908035906020019092919080359060200190929190803590602001909291908035906020019092919080359060200190929190505050613582565b60405180848152602001838152602001828152602001935050505060405180910390f35b60026020528060005260406000206000915090505481565b606060008054600181600116156101000203166002900480601f0160208091040260200160405190810160405280929190818152602001828054600181600116156101000203166002900480156106bc5780601f10610691576101008083540402835291602001916106bc565b820191906000526020600020905b81548152906001019060200180831161069f57829003601f168201915b5050505050905090565b606082826040516020018083805190602001908083835b6020831061070057805182526020820191506020810190506020830392506106dd565b6001836020036101000a03801982511681845116808217855250505050505090500182805190602001908083835b60208310610751578051825260208201915060208101905060208303925061072e565b6001836020036101000a03801982511681845116808217855250505050505090500192505050604051602081830303815290604052905092915050565b600080600660009054906101000a900473ffffffffffffffffffffffffffffffffffffffff1673ffffffffffffffffffffffffffffffffffffffff1663fad28ce4846040518263ffffffff1660e01b8152600401808273ffffffffffffffffffffffffffffffffffffffff1673ffffffffffffffffffffffffffffffffffffffff16815260200191505060206040518083038186803b15801561083057600080fd5b505afa158015610844573d6000803e3d6000fd5b505050506040513d602081101561085a57600080fd5b8101908080519060200190929190505050600560009054906101000a900473ffffffffffffffffffffffffffffffffffffffff1673ffffffffffffffffffffffffffffffffffffffff166371896378856040518263ffffffff1660e01b8152600401808273ffffffffffffffffffffffffffffffffffffffff1673ffffffffffffffffffffffffffffffffffffffff16815260200191505060206040518083038186803b15801561090a57600080fd5b505afa15801561091e573d6000803e3d6000fd5b505050506040513d602081101561093457600080fd5b8101908080519060200190929190505050600460009054906101000a900473ffffffffffffffffffffffffffffffffffffffff1673ffffffffffffffffffffffffffffffffffffffff1663a4b1919d866040518263ffffffff1660e01b8152600401808273ffffffffffffffffffffffffffffffffffffffff1673ffffffffffffffffffffffffffffffffffffffff16815260200191505060206040518083038186803b1580156109e457600080fd5b505afa1580156109f8573d6000803e3d6000fd5b505050506040513d6020811015610a0e57600080fd5b810190808051906020019092919050505001011415610a305760019050610a35565b600090505b919050565b6000803390506000600860009054906101000a900473ffffffffffffffffffffffffffffffffffffffff1673ffffffffffffffffffffffffffffffffffffffff1663f4ab27f0856040518263ffffffff1660e01b81526004018082815260200191505060206040518083038186803b158015610ab557600080fd5b505afa158015610ac9573d6000803e3d6000fd5b505050506040513d6020811015610adf57600080fd5b810190808051906020019092919050505090506000600160008473ffffffffffffffffffffffffffffffffffffffff1673ffffffffffffffffffffffffffffffffffffffff1681526020019081526020016000205414610b4457600092505050610ec4565b6000600860009054906101000a900473ffffffffffffffffffffffffffffffffffffffff1673ffffffffffffffffffffffffffffffffffffffff16631e9ac0bf84606460006064600060646040518763ffffffff1660e01b8152600401808773ffffffffffffffffffffffffffffffffffffffff1673ffffffffffffffffffffffffffffffffffffffff1681526020018681526020018581526020018481526020018381526020018281526020019650505050505050602060405180830381600087803b158015610c1457600080fd5b505af1158015610c28573d6000803e3d6000fd5b505050506040513d6020811015610c3e57600080fd5b81019080805190602001909291905050509050809050600015158115151415610c6d5760009350505050610ec4565b42600160008573ffffffffffffffffffffffffffffffffffffffff1673ffffffffffffffffffffffffffffffffffffffff168152602001908152602001600020819055506014600260008573ffffffffffffffffffffffffffffffffffffffff1673ffffffffffffffffffffffffffffffffffffffff16815260200190815260200160002081905550600860009054906101000a900473ffffffffffffffffffffffffffffffffffffffff1673ffffffffffffffffffffffffffffffffffffffff1663ec6daa3083600186600160008973ffffffffffffffffffffffffffffffffffffffff1673ffffffffffffffffffffffffffffffffffffffff16815260200190815260200160002054600260008a73ffffffffffffffffffffffffffffffffffffffff1673ffffffffffffffffffffffffffffffffffffffff168152602001908152602001600020546040518663ffffffff1660e01b8152600401808673ffffffffffffffffffffffffffffffffffffffff1673ffffffffffffffffffffffffffffffffffffffff168152602001851515151581526020018473ffffffffffffffffffffffffffffffffffffffff1673ffffffffffffffffffffffffffffffffffffffff16815260200183815260200182815260200195505050505050600060405180830381600087803b158015610e6657600080fd5b505af1158015610e7a573d6000803e3d6000fd5b50505050600260008473ffffffffffffffffffffffffffffffffffffffff1673ffffffffffffffffffffffffffffffffffffffff1681526020019081526020016000205493505050505b919050565b600360009054906101000a900473ffffffffffffffffffffffffffffffffffffffff1673ffffffffffffffffffffffffffffffffffffffff166321241b3f3384846040518463ffffffff1660e01b8152600401808473ffffffffffffffffffffffffffffffffffffffff1673ffffffffffffffffffffffffffffffffffffffff16815260200180602001848152602001838152602001828103825260078152602001807f4261727261636b00000000000000000000000000000000000000000000000000815250602001945050505050602060405180830381600087803b158015610fb357600080fd5b505af1158015610fc7573d6000803e3d6000fd5b505050506040513d6020811015610fdd57600080fd5b810190808051906020019092919050505050600460009054906101000a900473ffffffffffffffffffffffffffffffffffffffff1673ffffffffffffffffffffffffffffffffffffffff16636f58051b3360016040518363ffffffff1660e01b8152600401808373ffffffffffffffffffffffffffffffffffffffff1673ffffffffffffffffffffffffffffffffffffffff16815260200182815260200192505050600060405180830381600087803b15801561109957600080fd5b505af11580156110ad573d6000803e3d6000fd5b50505050600760009054906101000a900473ffffffffffffffffffffffffffffffffffffffff1673ffffffffffffffffffffffffffffffffffffffff16630de12cb33360016040518363ffffffff1660e01b8152600401808373ffffffffffffffffffffffffffffffffffffffff1673ffffffffffffffffffffffffffffffffffffffff16815260200182815260200192505050600060405180830381600087803b15801561115b57600080fd5b505af115801561116f573d6000803e3d6000fd5b50505050600560009054906101000a900473ffffffffffffffffffffffffffffffffffffffff1673ffffffffffffffffffffffffffffffffffffffff166324ab6dc53360016040518363ffffffff1660e01b8152600401808373ffffffffffffffffffffffffffffffffffffffff1673ffffffffffffffffffffffffffffffffffffffff16815260200182815260200192505050600060405180830381600087803b15801561121d57600080fd5b505af1158015611231573d6000803e3d6000fd5b50505050600660009054906101000a900473ffffffffffffffffffffffffffffffffffffffff1673ffffffffffffffffffffffffffffffffffffffff16639e72a7e03360016040518363ffffffff1660e01b8152600401808373ffffffffffffffffffffffffffffffffffffffff1673ffffffffffffffffffffffffffffffffffffffff16815260200182815260200192505050600060405180830381600087803b1580156112df57600080fd5b505af11580156112f3573d6000803e3d6000fd5b50505050600960009054906101000a900473ffffffffffffffffffffffffffffffffffffffff1673ffffffffffffffffffffffffffffffffffffffff1663afbfd6443360016040518363ffffffff1660e01b8152600401808373ffffffffffffffffffffffffffffffffffffffff1673ffffffffffffffffffffffffffffffffffffffff16815260200182815260200192505050600060405180830381600087803b1580156113a157600080fd5b505af11580156113b5573d6000803e3d6000fd5b505050505050565b60016020528060005260406000206000915090505481565b60006040518060400160405280600d81526020017fe688b0e9aca5e9968be5a78b0a00000000000000000000000000000000000000815250600090805190602001906114229291906140ec565b506000600860009054906101000a900473ffffffffffffffffffffffffffffffffffffffff1673ffffffffffffffffffffffffffffffffffffffff1663f4ab27f0856040518263ffffffff1660e01b81526004018082815260200191505060206040518083038186803b15801561149857600080fd5b505afa1580156114ac573d6000803e3d6000fd5b505050506040513d60208110156114c257600080fd5b810190808051906020019092919050505090506000600860009054906101000a900473ffffffffffffffffffffffffffffffffffffffff1673ffffffffffffffffffffffffffffffffffffffff1663f4ab27f0856040518263ffffffff1660e01b81526004018082815260200191505060206040518083038186803b15801561154a57600080fd5b505afa15801561155e573d6000803e3d6000fd5b505050506040513d602081101561157457600080fd5b810190808051906020019092919050505090506000600160008473ffffffffffffffffffffffffffffffffffffffff1673ffffffffffffffffffffffffffffffffffffffff168152602001908152602001600020819055506000600260008473ffffffffffffffffffffffffffffffffffffffff1673ffffffffffffffffffffffffffffffffffffffff1681526020019081526020016000208190555060008060006005600460009054906101000a900473ffffffffffffffffffffffffffffffffffffffff1673ffffffffffffffffffffffffffffffffffffffff166329058536876040518263ffffffff1660e01b8152600401808273ffffffffffffffffffffffffffffffffffffffff1673ffffffffffffffffffffffffffffffffffffffff16815260200191505060206040518083038186803b1580156116b757600080fd5b505afa1580156116cb573d6000803e3d6000fd5b505050506040513d60208110156116e157600080fd5b810190808051906020019092919050505002603201905060006008600560009054906101000a900473ffffffffffffffffffffffffffffffffffffffff1673ffffffffffffffffffffffffffffffffffffffff1663b47711fa886040518263ffffffff1660e01b8152600401808273ffffffffffffffffffffffffffffffffffffffff1673ffffffffffffffffffffffffffffffffffffffff16815260200191505060206040518083038186803b15801561179b57600080fd5b505afa1580156117af573d6000803e3d6000fd5b505050506040513d60208110156117c557600080fd5b81019080805190602001909291905050500260500190506000600a600660009054906101000a900473ffffffffffffffffffffffffffffffffffffffff1673ffffffffffffffffffffffffffffffffffffffff1663d0bb9e90896040518263ffffffff1660e01b8152600401808273ffffffffffffffffffffffffffffffffffffffff1673ffffffffffffffffffffffffffffffffffffffff16815260200191505060206040518083038186803b15801561187f57600080fd5b505afa158015611893573d6000803e3d6000fd5b505050506040513d60208110156118a957600080fd5b810190808051906020019092919050505002606401905060006005600460009054906101000a900473ffffffffffffffffffffffffffffffffffffffff1673ffffffffffffffffffffffffffffffffffffffff166329058536896040518263ffffffff1660e01b8152600401808273ffffffffffffffffffffffffffffffffffffffff1673ffffffffffffffffffffffffffffffffffffffff16815260200191505060206040518083038186803b15801561196357600080fd5b505afa158015611977573d6000803e3d6000fd5b505050506040513d602081101561198d57600080fd5b810190808051906020019092919050505002603201905060006008600560009054906101000a900473ffffffffffffffffffffffffffffffffffffffff1673ffffffffffffffffffffffffffffffffffffffff1663b47711fa8a6040518263ffffffff1660e01b8152600401808273ffffffffffffffffffffffffffffffffffffffff1673ffffffffffffffffffffffffffffffffffffffff16815260200191505060206040518083038186803b158015611a4757600080fd5b505afa158015611a5b573d6000803e3d6000fd5b505050506040513d6020811015611a7157600080fd5b81019080805190602001909291905050500260500190506000600a600660009054906101000a900473ffffffffffffffffffffffffffffffffffffffff1673ffffffffffffffffffffffffffffffffffffffff1663d0bb9e908b6040518263ffffffff1660e01b8152600401808273ffffffffffffffffffffffffffffffffffffffff1673ffffffffffffffffffffffffffffffffffffffff16815260200191505060206040518083038186803b158015611b2b57600080fd5b505afa158015611b3f573d6000803e3d6000fd5b505050506040513d6020811015611b5557600080fd5b81019080805190602001909291905050500260640190506000809050611e07600660009054906101000a900473ffffffffffffffffffffffffffffffffffffffff1673ffffffffffffffffffffffffffffffffffffffff1663fad28ce48c6040518263ffffffff1660e01b8152600401808273ffffffffffffffffffffffffffffffffffffffff1673ffffffffffffffffffffffffffffffffffffffff16815260200191505060206040518083038186803b158015611c1357600080fd5b505afa158015611c27573d6000803e3d6000fd5b505050506040513d6020811015611c3d57600080fd5b8101908080519060200190929190505050600460009054906101000a900473ffffffffffffffffffffffffffffffffffffffff1673ffffffffffffffffffffffffffffffffffffffff1663a4b1919d8d6040518263ffffffff1660e01b8152600401808273ffffffffffffffffffffffffffffffffffffffff1673ffffffffffffffffffffffffffffffffffffffff16815260200191505060206040518083038186803b158015611ced57600080fd5b505afa158015611d01573d6000803e3d6000fd5b505050506040513d6020811015611d1757600080fd5b8101908080519060200190929190505050600560009054906101000a900473ffffffffffffffffffffffffffffffffffffffff1673ffffffffffffffffffffffffffffffffffffffff1663718963788e6040518263ffffffff1660e01b8152600401808273ffffffffffffffffffffffffffffffffffffffff1673ffffffffffffffffffffffffffffffffffffffff16815260200191505060206040518083038186803b158015611dc757600080fd5b505afa158015611ddb573d6000803e3d6000fd5b505050506040513d6020811015611df157600080fd5b810190808051906020019092919050505061348d565b15611ee357611ec860008054600181600116156101000203166002900480601f016020809104026020016040519081016040528092919081815260200182805460018160011615610100020316600290048015611ea55780601f10611e7a57610100808354040283529160200191611ea5565b820191906000526020600020905b815481529060010190602001808311611e8857829003601f168201915b50505050506040518060600160405280602481526020016143a6602491396106c6565b60009080519060200190611edd9291906140ec565b5061347b565b5b601481101561347a57611ef68b61078e565b15611fe157611fb760008054600181600116156101000203166002900480601f016020809104026020016040519081016040528092919081815260200182805460018160011615610100020316600290048015611f945780601f10611f6957610100808354040283529160200191611f94565b820191906000526020600020905b815481529060010190602001808311611f7757829003601f168201915b50505050506040518060600160405280602d8152602001614324602d91396106c6565b60009080519060200190611fcc9291906140ec565b5060019b505050505050505050505050613487565b611fea8a61078e565b156120d5576120ab60008054600181600116156101000203166002900480601f0160208091040260200160405190810160405280929190818152602001828054600181600116156101000203166002900480156120885780601f1061205d57610100808354040283529160200191612088565b820191906000526020600020905b81548152906001019060200180831161206b57829003601f168201915b5050505050604051806060016040528060338152602001614286603391396106c6565b600090805190602001906120c09291906140ec565b5060019b505050505050505050505050613487565b600181019050600560009054906101000a900473ffffffffffffffffffffffffffffffffffffffff1673ffffffffffffffffffffffffffffffffffffffff1663718963788b6040518263ffffffff1660e01b8152600401808273ffffffffffffffffffffffffffffffffffffffff1673ffffffffffffffffffffffffffffffffffffffff16815260200191505060206040518083038186803b15801561217a57600080fd5b505afa15801561218e573d6000803e3d6000fd5b505050506040513d60208110156121a457600080fd5b8101908080519060200190929190505050985060008914612aa85761229860008054600181600116156101000203166002900480601f0160208091040260200160405190810160405280929190818152602001828054600181600116156101000203166002900480156122585780601f1061222d57610100808354040283529160200191612258565b820191906000526020600020905b81548152906001019060200180831161223b57829003601f168201915b50505050506040518060400160405280601c81526020017f0ae695b5e696b9e5ae88e8a19be88085e584aae58588e694bbe6938a000000008152506106c6565b600090805190602001906122ad9291906140ec565b50600460009054906101000a900473ffffffffffffffffffffffffffffffffffffffff1673ffffffffffffffffffffffffffffffffffffffff1663a4b1919d8c6040518263ffffffff1660e01b8152600401808273ffffffffffffffffffffffffffffffffffffffff1673ffffffffffffffffffffffffffffffffffffffff16815260200191505060206040518083038186803b15801561234d57600080fd5b505afa158015612361573d6000803e3d6000fd5b505050506040513d602081101561237757600080fd5b81019080805190602001909291905050509750600088146125605761246b60008054600181600116156101000203166002900480601f01602080910402602001604051908101604052809291908181526020018280546001816001161561010002031660029004801561242b5780601f106124005761010080835404028352916020019161242b565b820191906000526020600020905b81548152906001019060200180831161240e57829003601f168201915b50505050506040518060400160405280601981526020017f2ce694bbe6938ae980b2e68891e696b9e7a59ee6a78de6898b000000000000008152506106c6565b600090805190602001906124809291906140ec565b506124928a8c600060018d8d8d613582565b809950819a50829b50505050600460009054906101000a900473ffffffffffffffffffffffffffffffffffffffff1673ffffffffffffffffffffffffffffffffffffffff16633dabc4df8c8a6040518363ffffffff1660e01b8152600401808373ffffffffffffffffffffffffffffffffffffffff1673ffffffffffffffffffffffffffffffffffffffff16815260200182815260200192505050600060405180830381600087803b15801561254757600080fd5b505af115801561255b573d6000803e3d6000fd5b505050505b600560009054906101000a900473ffffffffffffffffffffffffffffffffffffffff1673ffffffffffffffffffffffffffffffffffffffff1663718963788c6040518263ffffffff1660e01b8152600401808273ffffffffffffffffffffffffffffffffffffffff1673ffffffffffffffffffffffffffffffffffffffff16815260200191505060206040518083038186803b1580156125ff57600080fd5b505afa158015612613573d6000803e3d6000fd5b505050506040513d602081101561262957600080fd5b810190808051906020019092919050505097506000891415801561264e575060008814155b156128035761270f60008054600181600116156101000203166002900480601f0160208091040260200160405190810160405280929190818152602001828054600181600116156101000203166002900480156126ec5780601f106126c1576101008083540402835291602001916126ec565b820191906000526020600020905b8154815290600101906020018083116126cf57829003601f168201915b5050505050604051806060016040528060318152602001614375603191396106c6565b600090805190602001906127249291906140ec565b506127358a8c6000808d8d8c613582565b809850819a50829b50505050600560009054906101000a900473ffffffffffffffffffffffffffffffffffffffff1673ffffffffffffffffffffffffffffffffffffffff1663dda0a3bf8c8a6040518363ffffffff1660e01b8152600401808373ffffffffffffffffffffffffffffffffffffffff1673ffffffffffffffffffffffffffffffffffffffff16815260200182815260200192505050600060405180830381600087803b1580156127ea57600080fd5b505af11580156127fe573d6000803e3d6000fd5b505050505b600660009054906101000a900473ffffffffffffffffffffffffffffffffffffffff1673ffffffffffffffffffffffffffffffffffffffff1663fad28ce48c6040518263ffffffff1660e01b8152600401808273ffffffffffffffffffffffffffffffffffffffff1673ffffffffffffffffffffffffffffffffffffffff16815260200191505060206040518083038186803b1580156128a257600080fd5b505afa1580156128b6573d6000803e3d6000fd5b505050506040513d60208110156128cc57600080fd5b81019080805190602001909291905050509750600089141580156128f1575060008814155b15612aa7576129b260008054600181600116156101000203166002900480601f01602080910402602001604051908101604052809291908181526020018280546001816001161561010002031660029004801561298f5780601f106129645761010080835404028352916020019161298f565b820191906000526020600020905b81548152906001019060200180831161297257829003601f168201915b50505050506040518060600160405280602e81526020016141de602e91396106c6565b600090805190602001906129c79291906140ec565b506129d98a8c600060028d8d8b613582565b809750819a50829b50505050600660009054906101000a900473ffffffffffffffffffffffffffffffffffffffff1673ffffffffffffffffffffffffffffffffffffffff16632b16a5648c8a6040518363ffffffff1660e01b8152600401808373ffffffffffffffffffffffffffffffffffffffff1673ffffffffffffffffffffffffffffffffffffffff16815260200182815260200192505050600060405180830381600087803b158015612a8e57600080fd5b505af1158015612aa2573d6000803e3d6000fd5b505050505b5b600460009054906101000a900473ffffffffffffffffffffffffffffffffffffffff1673ffffffffffffffffffffffffffffffffffffffff1663a4b1919d8c6040518263ffffffff1660e01b8152600401808273ffffffffffffffffffffffffffffffffffffffff1673ffffffffffffffffffffffffffffffffffffffff16815260200191505060206040518083038186803b158015612b4757600080fd5b505afa158015612b5b573d6000803e3d6000fd5b505050506040513d6020811015612b7157600080fd5b810190808051906020019092919050505098506000891461347557612c6560008054600181600116156101000203166002900480601f016020809104026020016040519081016040528092919081815260200182805460018160011615610100020316600290048015612c255780601f10612bfa57610100808354040283529160200191612c25565b820191906000526020600020905b815481529060010190602001808311612c0857829003601f168201915b50505050506040518060400160405280601681526020017f0ae68891e696b9e7a59ee6a78de6898be694bbe6938a000000000000000000008152506106c6565b60009080519060200190612c7a9291906140ec565b50600460009054906101000a900473ffffffffffffffffffffffffffffffffffffffff1673ffffffffffffffffffffffffffffffffffffffff1663a4b1919d8b6040518263ffffffff1660e01b8152600401808273ffffffffffffffffffffffffffffffffffffffff1673ffffffffffffffffffffffffffffffffffffffff16815260200191505060206040518083038186803b158015612d1a57600080fd5b505afa158015612d2e573d6000803e3d6000fd5b505050506040513d6020811015612d4457600080fd5b8101908080519060200190929190505050975060008814612f2c57612e3860008054600181600116156101000203166002900480601f016020809104026020016040519081016040528092919081815260200182805460018160011615610100020316600290048015612df85780601f10612dcd57610100808354040283529160200191612df8565b820191906000526020600020905b815481529060010190602001808311612ddb57829003601f168201915b50505050506040518060400160405280601681526020017f2ce694bbe6938ae695b5e696b9e7a59ee6a78de6898b000000000000000000008152506106c6565b60009080519060200190612e4d9291906140ec565b50612e5e8b8b6001808d8d8a613582565b809650819a50829b50505050600460009054906101000a900473ffffffffffffffffffffffffffffffffffffffff1673ffffffffffffffffffffffffffffffffffffffff16633dabc4df8b8a6040518363ffffffff1660e01b8152600401808373ffffffffffffffffffffffffffffffffffffffff1673ffffffffffffffffffffffffffffffffffffffff16815260200182815260200192505050600060405180830381600087803b158015612f1357600080fd5b505af1158015612f27573d6000803e3d6000fd5b505050505b600560009054906101000a900473ffffffffffffffffffffffffffffffffffffffff1673ffffffffffffffffffffffffffffffffffffffff1663718963788b6040518263ffffffff1660e01b8152600401808273ffffffffffffffffffffffffffffffffffffffff1673ffffffffffffffffffffffffffffffffffffffff16815260200191505060206040518083038186803b158015612fcb57600080fd5b505afa158015612fdf573d6000803e3d6000fd5b505050506040513d6020811015612ff557600080fd5b810190808051906020019092919050505097506000891415801561301a575060008814155b156131d0576130db60008054600181600116156101000203166002900480601f0160208091040260200160405190810160405280929190818152602001828054600181600116156101000203166002900480156130b85780601f1061308d576101008083540402835291602001916130b8565b820191906000526020600020905b81548152906001019060200180831161309b57829003601f168201915b505050505060405180606001604052806031815260200161420c603191396106c6565b600090805190602001906130f09291906140ec565b506131028b8b600160008d8d89613582565b809550819a50829b50505050600560009054906101000a900473ffffffffffffffffffffffffffffffffffffffff1673ffffffffffffffffffffffffffffffffffffffff1663dda0a3bf8b8a6040518363ffffffff1660e01b8152600401808373ffffffffffffffffffffffffffffffffffffffff1673ffffffffffffffffffffffffffffffffffffffff16815260200182815260200192505050600060405180830381600087803b1580156131b757600080fd5b505af11580156131cb573d6000803e3d6000fd5b505050505b600660009054906101000a900473ffffffffffffffffffffffffffffffffffffffff1673ffffffffffffffffffffffffffffffffffffffff1663fad28ce48b6040518263ffffffff1660e01b8152600401808273ffffffffffffffffffffffffffffffffffffffff1673ffffffffffffffffffffffffffffffffffffffff16815260200191505060206040518083038186803b15801561326f57600080fd5b505afa158015613283573d6000803e3d6000fd5b505050506040513d602081101561329957600080fd5b81019080805190602001909291905050509750600089141580156132be575060008814155b156134745761337f60008054600181600116156101000203166002900480601f01602080910402602001604051908101604052809291908181526020018280546001816001161561010002031660029004801561335c5780601f106133315761010080835404028352916020019161335c565b820191906000526020600020905b81548152906001019060200180831161333f57829003601f168201915b50505050506040518060600160405280602e81526020016142b9602e91396106c6565b600090805190602001906133949291906140ec565b506133a68b8b600160028d8d88613582565b809450819a50829b50505050600660009054906101000a900473ffffffffffffffffffffffffffffffffffffffff1673ffffffffffffffffffffffffffffffffffffffff16632b16a5648b8a6040518363ffffffff1660e01b8152600401808373ffffffffffffffffffffffffffffffffffffffff1673ffffffffffffffffffffffffffffffffffffffff16815260200182815260200192505050600060405180830381600087803b15801561345b57600080fd5b505af115801561346f573d6000803e3d6000fd5b505050505b5b611ee4565b5b50505050505050505050505b92915050565b600080828486010114156134a457600190506134a9565b600090505b9392505050565b6000806000600160003373ffffffffffffffffffffffffffffffffffffffff1673ffffffffffffffffffffffffffffffffffffffff16815260200190815260200160002054600160003373ffffffffffffffffffffffffffffffffffffffff1673ffffffffffffffffffffffffffffffffffffffff168152602001908152602001600020544203600260003373ffffffffffffffffffffffffffffffffffffffff1673ffffffffffffffffffffffffffffffffffffffff16815260200190815260200160002054925092509250909192565b600080600061358f61416c565b6000816000018181525050600081606001818152505060008914156135d2578060000151600402602801816020018181525050600181604001818152505061362a565b60018914156135ff578060000151600302601e018160200181815250506002816040018181525050613629565b6002891415613628578060000151600a0260640181602001818152505060018160400181815250505b5b5b600088141561366057806060015160080260500181608001818152505080606001516002026014018160a00181815250506136ca565b60018814156136965780606001516005026032018160800181815250508060600151600102600a018160a00181815250506136c9565b60028814156136c8578060600151600a0260640181608001818152505080606001516003026000018160a00181815250505b5b5b80602001518160a00151106137be5761379560008054600181600116156101000203166002900480601f0160208091040260200160405190810160405280929190818152602001828054600181600116156101000203166002900480156137725780601f1061374757610100808354040283529160200191613772565b820191906000526020600020905b81548152906001019060200180831161375557829003601f168201915b50505050506040518060600160405280603d81526020016142e7603d91396106c6565b600090805190602001906137aa9291906140ec565b5060008686829250935093509350506140df565b80604001518160a00151826020015103028160c001818152505080608001518514613a3a5760008160c0015186816137f257fe5b061415613815578060c00151858161380657fe5b048160e0018181525050613830565b60018160c00151868161382457fe5b04018160e00181815250505b8060e0015187106139455761391460008054600181600116156101000203166002900480601f0160208091040260200160405190810160405280929190818152602001828054600181600116156101000203166002900480156138d45780601f106138a9576101008083540402835291602001916138d4565b820191906000526020600020905b8154815290600101906020018083116138b757829003601f168201915b50505050506040518060400160405280601981526020017f0ae58f97e582b7e596aee4bd8de58f97e588b0e6938ae6aeba000000000000008152506106c6565b600090805190602001906139299291906140ec565b508060e001518703965080608001519450600186039550613a39565b8060c00151870285039450613a0c60008054600181600116156101000203166002900480601f0160208091040260200160405190810160405280929190818152602001828054600181600116156101000203166002900480156139e95780601f106139be576101008083540402835291602001916139e9565b820191906000526020600020905b8154815290600101906020018083116139cc57829003601f168201915b505050505060405180608001604052806049815260200161423d604991396106c6565b60009080519060200190613a219291906140ec565b506000965060008686829250935093509350506140df565b5b6000871415613b4557613b1c60008054600181600116156101000203166002900480601f016020809104026020016040519081016040528092919081815260200182805460018160011615610100020316600290048015613adc5780601f10613ab157610100808354040283529160200191613adc565b820191906000526020600020905b815481529060010190602001808311613abf57829003601f168201915b50505050506040518060400160405280600d81526020017f0ae980b2e694bbe7b590e69d9f000000000000000000000000000000000000008152506106c6565b60009080519060200190613b319291906140ec565b5060008686829250935093509350506140df565b60008160c00151826080015181613b5857fe5b061415613b80578060c00151816080015181613b7057fe5b0481610100018181525050613ba0565b60018160c00151826080015181613b9357fe5b0401816101000181815250505b60008161010001518881613bb057fe5b0414613f0457858161010001518881613bc557fe5b0410613ce157613ca460008054600181600116156101000203166002900480601f016020809104026020016040519081016040528092919081815260200182805460018160011615610100020316600290048015613c645780601f10613c3957610100808354040283529160200191613c64565b820191906000526020600020905b815481529060010190602001808311613c4757829003601f168201915b50505050506040518060400160405280601081526020017f0ae998b2e5ae88e696b9e585a8e6bb85000000000000000000000000000000008152506106c6565b60009080519060200190613cb99291906140ec565b50858161010001510287039650600095508660008260800151819150935093509350506140df565b613dba60008054600181600116156101000203166002900480601f016020809104026020016040519081016040528092919081815260200182805460018160011615610100020316600290048015613d7a5780601f10613d4f57610100808354040283529160200191613d7a565b820191906000526020600020905b815481529060010190602001808311613d5d57829003601f168201915b50505050506040518060400160405280601b81526020017f0ae6b688e6bb85e998b2e5ae88e696b97878e5908de596aee4bd8d00000000008152506106c6565b60009080519060200190613dcf9291906140ec565b508061010001518781613dde57fe5b04860395508061010001518781613df157fe5b0696506000871415613f0357613ed660008054600181600116156101000203166002900480601f016020809104026020016040519081016040528092919081815260200182805460018160011615610100020316600290048015613e965780601f10613e6b57610100808354040283529160200191613e96565b820191906000526020600020905b815481529060010190602001808311613e7957829003601f168201915b50505050506040518060400160405280600d81526020017f0ae980b2e694bbe7b590e69d9f000000000000000000000000000000000000008152506106c6565b60009080519060200190613eeb9291906140ec565b506000868260800151829250935093509350506140df565b5b8060c00151870285039450613fcb60008054600181600116156101000203166002900480601f016020809104026020016040519081016040528092919081815260200182805460018160011615610100020316600290048015613fa85780601f10613f7d57610100808354040283529160200191613fa8565b820191906000526020600020905b815481529060010190602001808311613f8b57829003601f168201915b5050505050604051806060016040528060248152602001614351602491396106c6565b60009080519060200190613fe09291906140ec565b506140ba60008054600181600116156101000203166002900480601f01602080910402602001604051908101604052809291908181526020018280546001816001161561010002031660029004801561407a5780601f1061404f5761010080835404028352916020019161407a565b820191906000526020600020905b81548152906001019060200180831161405d57829003601f168201915b50505050506040518060400160405280600d81526020017f0ae980b2e694bbe7b590e69d9f000000000000000000000000000000000000008152506106c6565b600090805190602001906140cf9291906140ec565b5060009650868686935093509350505b9750975097945050505050565b828054600181600116156101000203166002900490600052602060002090601f016020900481019282601f1061412d57805160ff191683800117855561415b565b8280016001018555821561415b579182015b8281111561415a57825182559160200191906001019061413f565b5b50905061416891906141b8565b5090565b6040518061012001604052806000815260200160008152602001600081526020016000815260200160008152602001600081526020016000815260200160008152602001600081525090565b6141da91905b808211156141d65760008160009055506001016141be565b5090565b9056fe0ae5b09ae69c89e980b2e694bbe596aee4bd8defbc8ce7b9bce7ba8ce694bbe6938ae68891e696b9e781abe7a0b20ae5b09ae69c89e980b2e694bbe596aee4bd8defbc8ce7b9bce7ba8ce694bbe6938ae695b5e696b9e5ae88e8a19be880850ae980b2e694bbe696b9e585a8e9ab94e980b2e8a18ce694bbe6938aefbc8ce4bdbfe58f97e582b7e596aee4bd8de589a9e9a4987878e7949fe591bd0ae980b2e694bbe7b590e69d9fe695b5e696b9e5ae88e8bb8de981ade588b0e585a8e695b8e6aeb2e6bb85efbc8ce68891e696b9e980b2e694bbe78db2e58b9d0ae5b09ae69c89e980b2e694bbe596aee4bd8defbc8ce7b9bce7ba8ce694bbe6938ae695b5e696b9e781abe7a0b20ae68c87e5ae9ae585b5e7a8aee8adb7e794b2e9818ee9ab98efbc8ce980b2e694bbe88085e784a1e6b395e980a0e68890e69c89e69588e582b7e5aeb3e68891e696b9e981ade588b0e585a8e695b8e6aeb2e6bb85efbc8ce695b5e696b9e998b2e5ae88e68890e58a9f0ae998b2e5ae88e596aee4bd8de58f97e582b7efbc8ce589a9e9a4987878e7949fe591bd0ae5b09ae69c89e980b2e694bbe596aee4bd8defbc8ce7b9bce7ba8ce694bbe6938ae68891e696b9e5ae88e8a19be88085e998b2e5ae88e696b9e784a1e585b5e58a9befbc8ce980b2e694bbe696b9e78db2e58b9da265627a7a72315820dc7804e9c300bd672d2eb74c6261e0d0af95902f38b969c9085d9813935d681b64736f6c63430005100032",
  "source": "pragma solidity >=0.4.21 <0.7.0;\n\nimport \"./SafeMath.sol\";\nimport \"./BuildingFactory.sol\";\nimport \"./Soldier.sol\";\nimport \"./Spy.sol\";\nimport \"./Cannon.sol\";\nimport \"./Protector.sol\";\nimport \"./Wall.sol\";\n\ncontract Barrack {\n\n    using SafeMath for uint;\n    string battleLog; \n\n    mapping (address => uint) public ownerStartMarchTime;\n    mapping (address => uint) public ownerTotalMarchTime;\n\n    BuildingFactory buildingInstance;\n    Soldier soldierInstance;\n    Protector ProtectorInstance;\n    Cannon CannonInstance;\n    Spy SpyInstance;\n    Account AccountInstance;\n    Wall WallInstance;\n    constructor(address _building_address, address _soldier_address, address _spy_instance, address _cannon_instance, address _protector_instance, address _wall_instance, address _account_instance) public {\n        buildingInstance = BuildingFactory(_building_address);\n        soldierInstance = Soldier(_soldier_address);\n        SpyInstance = Spy(_spy_instance);\n        ProtectorInstance = Protector(_protector_instance);\n        CannonInstance = Cannon(_cannon_instance);\n        AccountInstance = Account(_account_instance);\n        WallInstance = Wall(_wall_instance);\n    }\n\n    function createBarrack(uint _x, uint _y) public {\n        buildingInstance._createBuilding(msg.sender, \"Barrack\", _x, _y);\n        soldierInstance.setSoldierLevel(msg.sender, 1);\n        SpyInstance.setSpyLevel(msg.sender, 1);\n        ProtectorInstance.setProtectorLevel(msg.sender, 1);\n        CannonInstance.setCannonLevel(msg.sender, 1);\n        WallInstance.setWallLevel(msg.sender, 1);\n    }\n\n    function concatenate(string memory a, string memory b) public returns(string memory) {\n        return string(abi.encodePacked(a, b));\n    }\n\n    \n\n    // // return 0 if failed (maybe already creating or not enough resource) otherwise return createtime\n    // function startCreateSoldier(uint number) public returns(uint) {\n    //     address _owner = msg.sender;\n    //     if(soldierInstance.ownerStartCreateTime(_owner) != 0) return uint(0); // check if there is already creating soldiers\n    //     bool enoughResource;\n    //     uint lvOfSoldier;\n    //     enoughResource = soldierInstance._createSoldier(_owner, number);\n    //     lvOfSoldier =  soldierInstance.levelOfSoldier(_owner);\n    //     if(enoughResource == false) return uint(0);\n    //     soldierInstance.setStartCreateTime(_owner, uint(now));\n    //     soldierInstance.setCreateSoldierTime(_owner, soldierInstance.createSoldierTime() * lvOfSoldier * number);\n    //     return soldierInstance.ownerCreateSoldierTime(_owner);\n    // }\n\n    // function getCreateSoldierTime() public view returns(uint, uint) {\n    //     return ( now - soldierInstance.ownerStartCreateTime(msg.sender), soldierInstance.ownerCreateSoldierTime(msg.sender) ) ;\n    // }\n\n    // // // return 0 if success else return remaining time\n    // function updateCreateSoldier(address _owner) public returns(uint) {\n    //     if (soldierInstance.ownerStartCreateTime(_owner) == 0) return 0;\n    //     if (now >= soldierInstance.ownerStartCreateTime(_owner).add(soldierInstance.ownerCreateSoldierTime(_owner))) {\n    //         uint num;\n    //         num = soldierInstance.ownerCreateSoldierTime(_owner).div(  soldierInstance.levelOfSoldier(_owner).mul(soldierInstance.createSoldierTime()) );\n    //         soldierInstance.setNumOfSoldier(_owner, soldierInstance.numOfSoldier(_owner) + (num));\n    //         soldierInstance.setStartCreateTime(_owner, 0);\n    //         soldierInstance.setCreateSoldierTime(_owner, 0);\n    //         soldierInstance._updatePower(_owner);\n    //         return 0;\n    //     }\n    //     else {\n    //         uint remainingTime = (soldierInstance.ownerStartCreateTime(_owner) + soldierInstance.ownerCreateSoldierTime(_owner)).sub(now);\n    //         return remainingTime;\n    //     }\n    // }\n    \n\n\n    // // return 0 if failed (maybe already creating or not enough resource) otherwise return createtime\n    /*\n    function attack(uint _ownerId, uint _attackedCastleId) public {\n        // soldierInstance.attack(_ownerId, _attackedCastleId);\n    }\n    */\n\n    function startMarch(uint _attackedCastleId) public returns(uint) {\n        address _owner = msg.sender;\n        address attackedAddress = AccountInstance.castleToOwner(_attackedCastleId);\n\n        \n        if(ownerStartMarchTime[_owner] != 0) return uint(0); // check if there is already Marching\n        bool enoughResource;\n        enoughResource = enoughResource = AccountInstance.cost(_owner, 100, uint(0), 100, uint(0), 100);\n        if(enoughResource == false) return uint(0);\n        ownerStartMarchTime[_owner] = uint(now);\n        ownerTotalMarchTime[_owner] = 20;\n        AccountInstance.setAttackedInfo(attackedAddress, true, _owner, ownerStartMarchTime[_owner], ownerTotalMarchTime[_owner]);\n        return ownerTotalMarchTime[_owner];\n    }\n\n    function getMarchTime() public view returns(uint, uint, uint) {\n        return ( ownerStartMarchTime[msg.sender], uint(now) - ownerStartMarchTime[msg.sender], ownerTotalMarchTime[msg.sender] ) ;\n    }\n\n    // // return 0 if success else return remaining time\n    /*\n    function updateMarch(address _owner) public returns(uint) {\n        if (ownerStartMarchTime[_owner] == 0) return 0;\n        if (uint(now) >= ownerStartMarchTime[_owner].add(ownerTotalMarchTime[_owner])) {\n            // uint num;\n            // num = ownerTotalMarchTime[_owner].div(  MarchInstance.levelOfMarch(_owner).mul(MarchInstance.createMarchTime()) );\n            // MarchInstance.setNumOfMarch(_owner, MarchInstance.numOfMarch(_owner) + (num));\n            ownerStartMarchTime[_owner] = 0;\n            ownerTotalMarchTime[_owner] = 0;\n            return 0;\n        }\n        else {\n            uint remainingTime = (ownerStartMarchTime[_owner] + ownerTotalMarchTime[_owner]).sub(uint(now));\n            return remainingTime;\n        }\n    }\n    */\n    function is_annihilated(uint a , uint b , uint c) public returns(bool){\n        if(a+b+c==0)\n            return true ; \n        else \n            return false ; \n    }\n    function annihilated(address id)public returns(bool){\n        if(soldierInstance.getSoldierAmount(id)+ProtectorInstance.getProtectorAmount(id)+CannonInstance.getCannonAmount(id)==0){\n            return true;\n        }else\n            return false ; \n    }\n    struct battle_info{\n        uint attackerLevel   ;   \n        uint attackerDamage ; \n        uint attackerFrequency  ;\n        uint defenderLevel  ; \n        uint defenderHealth ; \n        uint defenderArmour ; \n        uint effectiveDamage  ;  \n        uint requireCulling  ; \n        uint requireKill   ; \n    }\n    //fuction battle_army() \n    //attack_id : id\n    //defend_id : id\n    //attacker/defender_flag   \n    //    :0 :1 :2\n    //attack_q :\n    //defender_q:\n    //injure:\n    function battle_army(address attack_id , address defend_id , uint attacker_flag , uint defender_flag, uint attacker_q, uint defender_q, uint injure ) public returns(uint,uint,uint){\n        battle_info memory info ; \n        info.attackerLevel = 0 ; \n        info.defenderLevel = 0 ; \n\n        if(attacker_flag == 0){\n            info.attackerDamage = 40 + 4 * info.attackerLevel ; \n            info.attackerFrequency = 1 ; \n        }else if (attacker_flag == 1 ){\n            info.attackerDamage = 30 + 3 * info.attackerLevel ; \n            info.attackerFrequency = 2 ; \n        }else if(attacker_flag ==2){\n            info.attackerDamage = 100 + 10 * info.attackerLevel ; \n            info.attackerFrequency = 1 ;\n        }\n        if(defender_flag == 0){\n            info.defenderHealth = 80 + 8 * info.defenderLevel ; \n            info.defenderArmour = 20 + 2 * info.defenderLevel ; \n        }else if (defender_flag == 1 ){\n            info.defenderHealth = 50 + 5 * info.defenderLevel ; \n            info.defenderArmour = 10 + 1 * info.defenderLevel ; \n        }else if(defender_flag ==2){\n            info.defenderHealth = 100 + 10 * info.defenderLevel ; \n            info.defenderArmour = 0 + 3 * info.defenderLevel ; \n        }\n        //\n        if(info.defenderArmour >= info.attackerDamage){\n            battleLog = concatenate(battleLog,\"\\n\") ; \n            return (0,defender_q,injure) ; \n        }else{\n            info.effectiveDamage = (info.attackerDamage - info.defenderArmour) * info.attackerFrequency ; \n        //  \n        //  \n            if(injure != info.defenderHealth ){\n                //ceiling\n                if(injure % info.effectiveDamage == 0 )\n                    info.requireCulling = injure / info.effectiveDamage ; \n                else    \n                    info.requireCulling = injure / info.effectiveDamage + 1; \n\n                //\n                if(attacker_q >= info.requireCulling){\n                    battleLog = concatenate(battleLog,\"\\n\") ; \n                    attacker_q -= info.requireCulling ;\n                    injure = info.defenderHealth ; \n                    defender_q -= 1 ; \n                //\n                }else{\n                    injure -= attacker_q * info.effectiveDamage ; \n                    //todo  \\n{not_yet_attack}{ownSoldierRemain}\n                    battleLog = concatenate(battleLog,\"\\nxx\\n\") ; \n                    attacker_q = 0  ;\n                    return(0,defender_q,injure);\n                }\n            }\n            //\n            if(attacker_q == 0){\n                battleLog = concatenate(battleLog,\"\\n\") ;\n                return (0,defender_q,injure) ; \n            }else{\n                if(info.defenderHealth % info.effectiveDamage == 0 )\n                    info.requireKill = info.defenderHealth / info.effectiveDamage ; \n                else    \n                    info.requireKill = info.defenderHealth / info.effectiveDamage + 1; \n                //\n                if( attacker_q / info.requireKill != 0 ){\n                    //\n                    if(attacker_q / info.requireKill >= defender_q){\n                        battleLog = concatenate(battleLog,\"\\n\") ;\n                        attacker_q -= info.requireKill * defender_q ; \n                        defender_q = 0 ; \n                        return (attacker_q , 0 , info.defenderHealth) ; \n                    }else{\n                        battleLog = concatenate(battleLog,\"\\nxx\") ;\n                        defender_q -= attacker_q / info.requireKill  ; \n                        attacker_q %=  info.requireKill  ;\n                    }\n                    if(attacker_q == 0){\n                        battleLog = concatenate(battleLog,\"\\n\") ;\n                        return (0,defender_q,info.defenderHealth) ;\n                    }\n                }    \n                //\n                injure -= attacker_q * info.effectiveDamage ;\n                battleLog = concatenate(battleLog,\"\\nxx\") ; \n                battleLog = concatenate(battleLog,\"\\n\") ;\n                attacker_q = 0 ; \n                return (attacker_q,defender_q,injure) ; \n                }\n                \n            }\n\n\n            \n    }\n/*\n    function battle_army(address attack_id , address defend_id , uint attacker_flag , uint defender_flag, uint attacker_q, uint defender_q, uint injure ) public returns(uint,uint,uint){\n        battle_info memory info ; \n        info.attackerLevel = 0 ; \n        info.defenderLevel = 0 ; \n\n        /*\n        uint attackerLevel = 0  ;   \n        uint attackerDamage ; \n        uint attackerFrequency  ;\n        uint defenderLevel = 0 ; \n        uint defenderHealth ; \n        uint defenderArmour ; \n        uint defenderInjure  ; \n        uint effectiveDamage = 0 ;  \n        uint requireCulling = 0 ; \n        uint requireKill = 0 ; \n        \n\n        // \n        // \n        if(attacker_flag == 0){\n            //attackerLevel = ProtectorInstance.levelOfProtector(attack_id) \b;\n            info.attackerDamage = 40 + 4 * info.attackerLevel ; \n            info.attackerFrequency = 1 ; \n        }else if (attacker_flag == 1 ){\n            //attackerLevel = soldierInstance.levelOfSoldier(attack_id) ; \n            info.attackerDamage = 30 + 3 * info.attackerLevel ; \n            info.attackerFrequency = 2 ; \n        }else if(attacker_flag ==2){\n            //attackerLevel = CannonInstance.levelOfCannon(attack_id) ; \n            info.attackerDamage = 100 + 10 * info.attackerLevel ; \n            info.attackerFrequency = 1 ;\n        }\n        if(defender_flag == 0){\n            //defenderLevel = ProtectorInstance.levelOfProtector(defend_id) \b;\n            info.defenderHealth = 80 + 8 * info.defenderLevel ; \n            info.defenderArmour = 20 + 2 * info.defenderLevel ; \n        }else if (defender_flag == 1 ){\n            //defenderLevel = soldierInstance.levelOfSoldier(defend_id) ; \n            info.defenderHealth = 50 + 5 * info.defenderLevel ; \n            info.defenderArmour = 10 + 1 * info.defenderLevel ; \n        }else if(defender_flag ==2){\n            //defendderLevel = CannonInstance.levelOfCannon(defend_id) ; \n            info.defenderHealth = 100 + 10 * info.defenderLevel ; \n            info.defenderArmour = 0 + 3 * info.defenderLevel ; \n        }\n        //\n        if(info.defenderArmour >= info.attackerDamage){\n            battleLog = concatenate(battleLog,\"\\n\") ; \n            return (0,defender_q,info.defenderInjure) ; \n        }else{\n            info.effectiveDamage = (info.attackerDamage - info.defenderArmour) * info.attackerFrequency ; \n        //  \n        //  \n            if(info.defenderInjure != info.defenderHealth ){\n                //ceiling\n                if(info.defenderInjure % info.effectiveDamage == 0 )\n                    info.requireCulling = info.defenderInjure / info.effectiveDamage ; \n                else    \n                    info.requireCulling = info.defenderInjure / info.effectiveDamage + 1; \n\n                //\n                if(attacker_q >= info.requireCulling){\n                    battleLog = concatenate(battleLog,\"\\n\") ; \n                    attacker_q -= info.requireCulling ;\n                    info.defenderInjure = info.defenderHealth ; \n                    defender_q -= 1 ; \n                //\n                }else{\n                    info.defenderInjure -= attacker_q * info.effectiveDamage ; \n                    //todo  \\n{not_yet_attack}{ownSoldierRemain}\n                    battleLog = concatenate(battleLog,\"\\nxx\") ; \n                    attacker_q = 0  ;\n                }\n            }\n            //\n            if(attacker_q == 0){\n                battleLog = concatenate(battleLog,\"\\n\") ;\n                return (0,defender_q,info.defenderInjure) ; \n            }else{\n                if(info.defenderHealth % info.effectiveDamage == 0 )\n                    info.requireKill = info.defenderHealth / info.effectiveDamage ; \n                else    \n                    info.requireKill = info.defenderHealth / info.effectiveDamage + 1; \n                //\n                if( attacker_q / info.requireKill != 0 ){\n                    //\n                    if(attacker_q / info.requireKill >= defender_q){\n                        battleLog = concatenate(battleLog,\"\\n\") ;\n                        attacker_q -= info.requireKill * defender_q ; \n                        defender_q = 0 ; \n                        return (attacker_q , 0 , info.defenderHealth) ; \n                    }else{\n                        battleLog = concatenate(battleLog,\"\\nxx\") ;\n                        defender_q -= attacker_q / info.requireKill  ; \n                        attacker_q %=  info.requireKill  ;\n                    }\n                    if(attacker_q == 0){\n                        return (0,defender_q,info.defenderHealth) ; \n                        battleLog = concatenate(battleLog,\"\\n\") ;\n                        //battlelog += \n                    }else{\n                        //\n                        info.defenderInjure -= attacker_q * info.effectiveDamage ;\n                        battleLog = concatenate(battleLog,\"\\nxx\") ; \n                        battleLog = concatenate(battleLog,\"\\n\") ;\n                        attacker_q = 0 ; \n                        return (attacker_q,defender_q,info.defenderInjure) ; \n                    }\n                }\n            }\n\n\n            \n        }\n    }*/\n\n\n\n\n\n    function attack(uint _owner, uint _attackedCastle) public returns(uint){\n        //soldierInstance.attack(_ownerId, _attackedCastleId);\n        //uint ownSoldierQuantity = soldierInstance.getSoldierAmount(_ownerId);\n        battleLog = \"\\n\" ; \n        \n\n        address _ownerId = AccountInstance.castleToOwner(_owner) ;\n        address _attackedCastleId = AccountInstance.castleToOwner(_attackedCastle) ;\n        \n        ownerStartMarchTime[_ownerId] = 0;\n        ownerTotalMarchTime[_ownerId] = 0;\n\n        uint dummyQuantityAttacker ; \n        uint dummyQuantityDefender ; \n        uint ownSoldierInjure = 50 + soldierInstance.levelOfSoldier(_ownerId) * 5  ; \n        //uint ownProtectorQuantity = ProtectorInstance.getProtectorAmount(_ownerId);  \n        uint ownProtectorInjure = 80 + ProtectorInstance.levelOfProtector(_ownerId) * 8  ;\n        //uint ownCannonQuantity = CannonInstance.getCannonAmount(_ownerId);  \n        uint ownCannonInjure = 100 + CannonInstance.levelOfCannon(_ownerId) * 10 ;\n        //uint rivalSoldierQuantity = soldierInstance.getSoldierAmount(_attackedCastleId);\n        uint rivalSoldierInjure = 50 + soldierInstance.levelOfSoldier(_attackedCastleId)  * 5 ;\n        //uint rivalProtectorQuantity = ProtectorInstance.getProtectorAmount(_attackedCastleId); \n        uint rivalProtectorInjure = 80 + ProtectorInstance.levelOfProtector(_attackedCastleId) * 8  ;\n        //uint rivalCannonQuantity = CannonInstance.getCannonAmount(_attackedCastleId);  \n        uint rivalCannonInjure = 100 + CannonInstance.levelOfCannon(_attackedCastleId) * 10 ;\n        //\n        uint round = 0 ;  \n\n        if( is_annihilated(CannonInstance.getCannonAmount(_attackedCastleId),soldierInstance.getSoldierAmount(_attackedCastleId),ProtectorInstance.getProtectorAmount(_attackedCastleId)) ){\n            battleLog = concatenate(battleLog,\"\") ; \n        }\n        else{\n        //a barricade is set in case of infinite loop can be removed if no bug is found\n        //otherwise two army fight until one is totally annihilateed\n            \n            while(round < 20  ){\n                if( annihilated(_ownerId) ){\n                    battleLog = concatenate(battleLog,\"\") ;\n                    return 1; \n                }else if(annihilated(_attackedCastleId)){\n                    battleLog = concatenate(battleLog,\"\") ;\n                    return 1; \n                }\n                round += 1 ; \n                //battleLog += {round}\n                //->->->->->\n\n                //protector\n                dummyQuantityAttacker = ProtectorInstance.getProtectorAmount(_attackedCastleId);\n                if( dummyQuantityAttacker != 0  ){\n                    battleLog = concatenate(battleLog,\"\\n\") ; \n                    dummyQuantityDefender = soldierInstance.getSoldierAmount(_ownerId) ; \n                    if( dummyQuantityDefender != 0 ){\n                        battleLog = concatenate(battleLog,\",\") ; \n                        (dummyQuantityAttacker,dummyQuantityDefender,ownSoldierInjure) = battle_army(_attackedCastleId,_ownerId,0,1,dummyQuantityAttacker,dummyQuantityDefender,ownSoldierInjure) ; \n                        soldierInstance.setNumOfSoldier(_ownerId,dummyQuantityDefender) ; \n                    }\n                    //   \n                    dummyQuantityDefender = ProtectorInstance.getProtectorAmount(_ownerId) ; \n                    if( dummyQuantityAttacker != 0 && dummyQuantityDefender != 0){       \n                        battleLog = concatenate(battleLog,\"\\n\") ; \n                        (dummyQuantityAttacker,dummyQuantityDefender,ownProtectorInjure) = battle_army(_attackedCastleId,_ownerId,0,0,dummyQuantityAttacker,dummyQuantityDefender,ownProtectorInjure) ;\n                        ProtectorInstance.setNumOfProtector(_ownerId,dummyQuantityDefender) ; \n                    }\n                    // \n                    dummyQuantityDefender = CannonInstance.getCannonAmount(_ownerId) ; \n                    if( dummyQuantityAttacker != 0 && dummyQuantityDefender != 0){    \n                        battleLog = concatenate(battleLog,\"\\n\") ;\n                        (dummyQuantityAttacker,dummyQuantityDefender,ownCannonInjure) = battle_army(_attackedCastleId,_ownerId,0,2,dummyQuantityAttacker,dummyQuantityDefender,ownCannonInjure) ;    \n                        CannonInstance.setNumOfCannon(_ownerId,dummyQuantityDefender) ; \n                    }\n                }\n                \n                dummyQuantityAttacker = soldierInstance.getSoldierAmount(_ownerId);\n                if( dummyQuantityAttacker != 0  ){\n                    battleLog = concatenate(battleLog,\"\\n\") ; \n                    dummyQuantityDefender = soldierInstance.getSoldierAmount(_attackedCastleId) ; \n                    if( dummyQuantityDefender != 0 ){\n                        battleLog = concatenate(battleLog,\",\") ; \n                        (dummyQuantityAttacker,dummyQuantityDefender,rivalSoldierInjure) = battle_army(_ownerId,_attackedCastleId,1,1,dummyQuantityAttacker,dummyQuantityDefender,rivalSoldierInjure) ; \n                        soldierInstance.setNumOfSoldier(_attackedCastleId,dummyQuantityDefender) ; \n                    }\n                    //   \n                    dummyQuantityDefender = ProtectorInstance.getProtectorAmount(_attackedCastleId) ; \n                    if( dummyQuantityAttacker != 0 && dummyQuantityDefender != 0){       \n                        battleLog = concatenate(battleLog,\"\\n\") ; \n                        (dummyQuantityAttacker,dummyQuantityDefender,rivalProtectorInjure) = battle_army(_ownerId,_attackedCastleId,1,0,dummyQuantityAttacker,dummyQuantityDefender,rivalProtectorInjure) ;\n                        ProtectorInstance.setNumOfProtector(_attackedCastleId,dummyQuantityDefender) ; \n                    }\n                    // \n                    dummyQuantityDefender = CannonInstance.getCannonAmount(_attackedCastleId) ; \n                    if( dummyQuantityAttacker != 0 && dummyQuantityDefender != 0){    \n                        battleLog = concatenate(battleLog,\"\\n\") ;\n                        (dummyQuantityAttacker,dummyQuantityDefender,rivalCannonInjure) = battle_army(_ownerId,_attackedCastleId,1,2,dummyQuantityAttacker,dummyQuantityDefender,rivalCannonInjure) ;    \n                        CannonInstance.setNumOfCannon(_attackedCastleId,dummyQuantityDefender) ; \n                    }\n                }\n                /*\n                if( rivalSoldierQuantity != 0){\n\n                }\n                if( ownProtectorQuantity != 0){\n\n                }\n                if( rivalCannonQuantity != 0){\n\n                }\n                if( ownCannonQuantity != 0){\n\n                }*/\n\n\n\n            }\n            \n\n        }\n        \n            \n    }\n\n    function getBattleLog() public returns(string memory){\n        // string memory log = battleLog;\n        return battleLog;\n   }\n\n}",
  "sourcePath": "/Users/cyl/Desktop//NMlab_Final/contracts/Barrack.sol",
  "compiler": {
    "name": "solc",
    "version": "0.5.16+commit.9c3226ce.Emscripten.clang"
  },
  "schemaVersion": "3.4.1",
  "updatedAt": "2021-06-26T04:00:34.751Z",
  "networkType": "ethereum",
  "devdoc": {
    "methods": {}
  },
  "userdoc": {
    "methods": {}
  }
}