{
  "contractName": "Barrack",
  "abi": [
    {
      "inputs": [
        {
          "internalType": "address",
          "name": "_building_address",
          "type": "address"
        },
        {
          "internalType": "address",
          "name": "_soldier_address",
          "type": "address"
        },
        {
          "internalType": "address",
          "name": "_spy_instance",
          "type": "address"
        },
        {
          "internalType": "address",
          "name": "_cannon_instance",
          "type": "address"
        },
        {
          "internalType": "address",
          "name": "_protector_instance",
          "type": "address"
        }
      ],
      "payable": false,
      "stateMutability": "nonpayable",
      "type": "constructor"
    },
    {
      "constant": false,
      "inputs": [
        {
          "internalType": "uint256",
          "name": "_x",
          "type": "uint256"
        },
        {
          "internalType": "uint256",
          "name": "_y",
          "type": "uint256"
        }
      ],
      "name": "createBarrack",
      "outputs": [],
      "payable": false,
      "stateMutability": "nonpayable",
      "type": "function"
    },
    {
      "constant": true,
      "inputs": [
        {
          "internalType": "address",
          "name": "_owner",
          "type": "address"
        }
      ],
      "name": "getSoldierAmount",
      "outputs": [
        {
          "internalType": "uint256",
          "name": "",
          "type": "uint256"
        }
      ],
      "payable": false,
      "stateMutability": "view",
      "type": "function"
    },
    {
      "constant": false,
      "inputs": [
        {
          "internalType": "uint256",
          "name": "number",
          "type": "uint256"
        }
      ],
      "name": "startCreateSoldier",
      "outputs": [
        {
          "internalType": "uint256",
          "name": "",
          "type": "uint256"
        }
      ],
      "payable": false,
      "stateMutability": "nonpayable",
      "type": "function"
    },
    {
      "constant": true,
      "inputs": [],
      "name": "getCreateSoldierTime",
      "outputs": [
        {
          "internalType": "uint256",
          "name": "",
          "type": "uint256"
        },
        {
          "internalType": "uint256",
          "name": "",
          "type": "uint256"
        }
      ],
      "payable": false,
      "stateMutability": "view",
      "type": "function"
    },
    {
      "constant": false,
      "inputs": [
        {
          "internalType": "address",
          "name": "_owner",
          "type": "address"
        }
      ],
      "name": "updateCreateSoldier",
      "outputs": [
        {
          "internalType": "uint256",
          "name": "",
          "type": "uint256"
        }
      ],
      "payable": false,
      "stateMutability": "nonpayable",
      "type": "function"
    },
    {
      "constant": true,
      "inputs": [
        {
          "internalType": "address",
          "name": "_owner",
          "type": "address"
        }
      ],
      "name": "getSpyAmount",
      "outputs": [
        {
          "internalType": "uint256",
          "name": "",
          "type": "uint256"
        }
      ],
      "payable": false,
      "stateMutability": "view",
      "type": "function"
    },
    {
      "constant": false,
      "inputs": [
        {
          "internalType": "uint256",
          "name": "number",
          "type": "uint256"
        }
      ],
      "name": "startCreateSpy",
      "outputs": [
        {
          "internalType": "uint256",
          "name": "",
          "type": "uint256"
        }
      ],
      "payable": false,
      "stateMutability": "nonpayable",
      "type": "function"
    },
    {
      "constant": true,
      "inputs": [],
      "name": "getCreateSpyTime",
      "outputs": [
        {
          "internalType": "uint256",
          "name": "",
          "type": "uint256"
        },
        {
          "internalType": "uint256",
          "name": "",
          "type": "uint256"
        }
      ],
      "payable": false,
      "stateMutability": "view",
      "type": "function"
    },
    {
      "constant": false,
      "inputs": [
        {
          "internalType": "address",
          "name": "_owner",
          "type": "address"
        }
      ],
      "name": "updateCreateSpy",
      "outputs": [
        {
          "internalType": "uint256",
          "name": "",
          "type": "uint256"
        }
      ],
      "payable": false,
      "stateMutability": "nonpayable",
      "type": "function"
    },
    {
      "constant": true,
      "inputs": [
        {
          "internalType": "address",
          "name": "_owner",
          "type": "address"
        }
      ],
      "name": "getCannonAmount",
      "outputs": [
        {
          "internalType": "uint256",
          "name": "",
          "type": "uint256"
        }
      ],
      "payable": false,
      "stateMutability": "view",
      "type": "function"
    },
    {
      "constant": false,
      "inputs": [
        {
          "internalType": "uint256",
          "name": "number",
          "type": "uint256"
        }
      ],
      "name": "startCreateCannon",
      "outputs": [
        {
          "internalType": "uint256",
          "name": "",
          "type": "uint256"
        }
      ],
      "payable": false,
      "stateMutability": "nonpayable",
      "type": "function"
    },
    {
      "constant": true,
      "inputs": [],
      "name": "getCreateCannonTime",
      "outputs": [
        {
          "internalType": "uint256",
          "name": "",
          "type": "uint256"
        },
        {
          "internalType": "uint256",
          "name": "",
          "type": "uint256"
        }
      ],
      "payable": false,
      "stateMutability": "view",
      "type": "function"
    },
    {
      "constant": false,
      "inputs": [
        {
          "internalType": "address",
          "name": "_owner",
          "type": "address"
        }
      ],
      "name": "updateCreateCannon",
      "outputs": [
        {
          "internalType": "uint256",
          "name": "",
          "type": "uint256"
        }
      ],
      "payable": false,
      "stateMutability": "nonpayable",
      "type": "function"
    },
    {
      "constant": true,
      "inputs": [
        {
          "internalType": "address",
          "name": "_owner",
          "type": "address"
        }
      ],
      "name": "getProtectorAmount",
      "outputs": [
        {
          "internalType": "uint256",
          "name": "",
          "type": "uint256"
        }
      ],
      "payable": false,
      "stateMutability": "view",
      "type": "function"
    },
    {
      "constant": false,
      "inputs": [
        {
          "internalType": "uint256",
          "name": "number",
          "type": "uint256"
        }
      ],
      "name": "startCreateProtector",
      "outputs": [
        {
          "internalType": "uint256",
          "name": "",
          "type": "uint256"
        }
      ],
      "payable": false,
      "stateMutability": "nonpayable",
      "type": "function"
    },
    {
      "constant": true,
      "inputs": [],
      "name": "getCreateProtectorTime",
      "outputs": [
        {
          "internalType": "uint256",
          "name": "",
          "type": "uint256"
        },
        {
          "internalType": "uint256",
          "name": "",
          "type": "uint256"
        }
      ],
      "payable": false,
      "stateMutability": "view",
      "type": "function"
    },
    {
      "constant": false,
      "inputs": [
        {
          "internalType": "address",
          "name": "_owner",
          "type": "address"
        }
      ],
      "name": "updateCreateProtector",
      "outputs": [
        {
          "internalType": "uint256",
          "name": "",
          "type": "uint256"
        }
      ],
      "payable": false,
      "stateMutability": "nonpayable",
      "type": "function"
    }
  ],
  "bytecode": "0x60806040523480156200001157600080fd5b5060405162005a8638038062005a86833981810160405260a08110156200003757600080fd5b810190808051906020019092919080519060200190929190805190602001909291908051906020019092919080519060200190929190505050846000806101000a81548173ffffffffffffffffffffffffffffffffffffffff021916908373ffffffffffffffffffffffffffffffffffffffff16021790555083600160006101000a81548173ffffffffffffffffffffffffffffffffffffffff021916908373ffffffffffffffffffffffffffffffffffffffff16021790555082600460006101000a81548173ffffffffffffffffffffffffffffffffffffffff021916908373ffffffffffffffffffffffffffffffffffffffff16021790555080600260006101000a81548173ffffffffffffffffffffffffffffffffffffffff021916908373ffffffffffffffffffffffffffffffffffffffff16021790555081600360006101000a81548173ffffffffffffffffffffffffffffffffffffffff021916908373ffffffffffffffffffffffffffffffffffffffff16021790555050505050506158bd80620001c96000396000f3fe608060405234801561001057600080fd5b506004361061010b5760003560e01c8063a4b1919d116100a2578063e21843fd11610071578063e21843fd14610435578063f25a17821461048d578063f5d9ef5a146104b2578063fa83ce5c1461050a578063fad28ce41461054c5761010b565b8063a4b1919d1461035b578063af1193c2146103b3578063b60ff396146103d8578063b7c47d6e146103fd5761010b565b806371896378116100de578063718963781461022757806378eb4df41461027f5780638c5f6854146102c15780639f88a50d146103035761010b565b80630acdea6f146101105780631c1b625a146101355780635865c9451461018d57806369cddf1d146101cf575b600080fd5b6101186105a4565b604051808381526020018281526020019250505060405180910390f35b6101776004803603602081101561014b57600080fd5b81019080803573ffffffffffffffffffffffffffffffffffffffff169060200190929190505050610765565b6040518082815260200191505060405180910390f35b6101b9600480360360208110156101a357600080fd5b8101908080359060200190929190505050611251565b6040518082815260200191505060405180910390f35b610211600480360360208110156101e557600080fd5b81019080803573ffffffffffffffffffffffffffffffffffffffff16906020019092919050505061182d565b6040518082815260200191505060405180910390f35b6102696004803603602081101561023d57600080fd5b81019080803573ffffffffffffffffffffffffffffffffffffffff169060200190929190505050612319565b6040518082815260200191505060405180910390f35b6102ab6004803603602081101561029557600080fd5b81019080803590602001909291905050506123fc565b6040518082815260200191505060405180910390f35b6102ed600480360360208110156102d757600080fd5b81019080803590602001909291905050506129d8565b6040518082815260200191505060405180910390f35b6103456004803603602081101561031957600080fd5b81019080803573ffffffffffffffffffffffffffffffffffffffff169060200190929190505050612fb4565b6040518082815260200191505060405180910390f35b61039d6004803603602081101561037157600080fd5b81019080803573ffffffffffffffffffffffffffffffffffffffff169060200190929190505050613aa0565b6040518082815260200191505060405180910390f35b6103bb613b83565b604051808381526020018281526020019250505060405180910390f35b6103e0613d44565b604051808381526020018281526020019250505060405180910390f35b6104336004803603604081101561041357600080fd5b810190808035906020019092919080359060200190929190505050613f05565b005b6104776004803603602081101561044b57600080fd5b81019080803573ffffffffffffffffffffffffffffffffffffffff1690602001909291905050506140f0565b6040518082815260200191505060405180910390f35b6104956141d3565b604051808381526020018281526020019250505060405180910390f35b6104f4600480360360208110156104c857600080fd5b81019080803573ffffffffffffffffffffffffffffffffffffffff169060200190929190505050614394565b6040518082815260200191505060405180910390f35b6105366004803603602081101561052057600080fd5b8101908080359060200190929190505050614e80565b6040518082815260200191505060405180910390f35b61058e6004803603602081101561056257600080fd5b81019080803573ffffffffffffffffffffffffffffffffffffffff16906020019092919050505061545c565b6040518082815260200191505060405180910390f35b600080600460009054906101000a900473ffffffffffffffffffffffffffffffffffffffff1673ffffffffffffffffffffffffffffffffffffffff16639073af81336040518263ffffffff1660e01b8152600401808273ffffffffffffffffffffffffffffffffffffffff1673ffffffffffffffffffffffffffffffffffffffff16815260200191505060206040518083038186803b15801561064657600080fd5b505afa15801561065a573d6000803e3d6000fd5b505050506040513d602081101561067057600080fd5b81019080805190602001909291905050504203600460009054906101000a900473ffffffffffffffffffffffffffffffffffffffff1673ffffffffffffffffffffffffffffffffffffffff1663b5c3e402336040518263ffffffff1660e01b8152600401808273ffffffffffffffffffffffffffffffffffffffff1673ffffffffffffffffffffffffffffffffffffffff16815260200191505060206040518083038186803b15801561072257600080fd5b505afa158015610736573d6000803e3d6000fd5b505050506040513d602081101561074c57600080fd5b8101908080519060200190929190505050915091509091565b600080600160009054906101000a900473ffffffffffffffffffffffffffffffffffffffff1673ffffffffffffffffffffffffffffffffffffffff16639073af81846040518263ffffffff1660e01b8152600401808273ffffffffffffffffffffffffffffffffffffffff1673ffffffffffffffffffffffffffffffffffffffff16815260200191505060206040518083038186803b15801561080757600080fd5b505afa15801561081b573d6000803e3d6000fd5b505050506040513d602081101561083157600080fd5b81019080805190602001909291905050501415610851576000905061124c565b610a16600160009054906101000a900473ffffffffffffffffffffffffffffffffffffffff1673ffffffffffffffffffffffffffffffffffffffff16630c2b6904846040518263ffffffff1660e01b8152600401808273ffffffffffffffffffffffffffffffffffffffff1673ffffffffffffffffffffffffffffffffffffffff16815260200191505060206040518083038186803b1580156108f357600080fd5b505afa158015610907573d6000803e3d6000fd5b505050506040513d602081101561091d57600080fd5b8101908080519060200190929190505050600160009054906101000a900473ffffffffffffffffffffffffffffffffffffffff1673ffffffffffffffffffffffffffffffffffffffff16639073af81856040518263ffffffff1660e01b8152600401808273ffffffffffffffffffffffffffffffffffffffff1673ffffffffffffffffffffffffffffffffffffffff16815260200191505060206040518083038186803b1580156109cd57600080fd5b505afa1580156109e1573d6000803e3d6000fd5b505050506040513d60208110156109f757600080fd5b810190808051906020019092919050505061553f90919063ffffffff16565b421061107c576000610c97610baf600160009054906101000a900473ffffffffffffffffffffffffffffffffffffffff1673ffffffffffffffffffffffffffffffffffffffff166347dcb51c6040518163ffffffff1660e01b815260040160206040518083038186803b158015610a8c57600080fd5b505afa158015610aa0573d6000803e3d6000fd5b505050506040513d6020811015610ab657600080fd5b8101908080519060200190929190505050600160009054906101000a900473ffffffffffffffffffffffffffffffffffffffff1673ffffffffffffffffffffffffffffffffffffffff166329058536876040518263ffffffff1660e01b8152600401808273ffffffffffffffffffffffffffffffffffffffff1673ffffffffffffffffffffffffffffffffffffffff16815260200191505060206040518083038186803b158015610b6657600080fd5b505afa158015610b7a573d6000803e3d6000fd5b505050506040513d6020811015610b9057600080fd5b81019080805190602001909291905050506155c790919063ffffffff16565b600160009054906101000a900473ffffffffffffffffffffffffffffffffffffffff1673ffffffffffffffffffffffffffffffffffffffff16630c2b6904866040518263ffffffff1660e01b8152600401808273ffffffffffffffffffffffffffffffffffffffff1673ffffffffffffffffffffffffffffffffffffffff16815260200191505060206040518083038186803b158015610c4e57600080fd5b505afa158015610c62573d6000803e3d6000fd5b505050506040513d6020811015610c7857600080fd5b810190808051906020019092919050505061564d90919063ffffffff16565b9050600160009054906101000a900473ffffffffffffffffffffffffffffffffffffffff1673ffffffffffffffffffffffffffffffffffffffff16633dabc4df8483600160009054906101000a900473ffffffffffffffffffffffffffffffffffffffff1673ffffffffffffffffffffffffffffffffffffffff16635697b21a886040518263ffffffff1660e01b8152600401808273ffffffffffffffffffffffffffffffffffffffff1673ffffffffffffffffffffffffffffffffffffffff16815260200191505060206040518083038186803b158015610d7857600080fd5b505afa158015610d8c573d6000803e3d6000fd5b505050506040513d6020811015610da257600080fd5b8101908080519060200190929190505050016040518363ffffffff1660e01b8152600401808373ffffffffffffffffffffffffffffffffffffffff1673ffffffffffffffffffffffffffffffffffffffff16815260200182815260200192505050600060405180830381600087803b158015610e1d57600080fd5b505af1158015610e31573d6000803e3d6000fd5b50505050600160009054906101000a900473ffffffffffffffffffffffffffffffffffffffff1673ffffffffffffffffffffffffffffffffffffffff16638ed972028460006040518363ffffffff1660e01b8152600401808373ffffffffffffffffffffffffffffffffffffffff1673ffffffffffffffffffffffffffffffffffffffff16815260200182815260200192505050600060405180830381600087803b158015610edf57600080fd5b505af1158015610ef3573d6000803e3d6000fd5b50505050600160009054906101000a900473ffffffffffffffffffffffffffffffffffffffff1673ffffffffffffffffffffffffffffffffffffffff16637e23dbd18460006040518363ffffffff1660e01b8152600401808373ffffffffffffffffffffffffffffffffffffffff1673ffffffffffffffffffffffffffffffffffffffff16815260200182815260200192505050600060405180830381600087803b158015610fa157600080fd5b505af1158015610fb5573d6000803e3d6000fd5b50505050600160009054906101000a900473ffffffffffffffffffffffffffffffffffffffff1673ffffffffffffffffffffffffffffffffffffffff16632f47faeb846040518263ffffffff1660e01b8152600401808273ffffffffffffffffffffffffffffffffffffffff1673ffffffffffffffffffffffffffffffffffffffff168152602001915050600060405180830381600087803b15801561105a57600080fd5b505af115801561106e573d6000803e3d6000fd5b50505050600091505061124c565b600061124542600160009054906101000a900473ffffffffffffffffffffffffffffffffffffffff1673ffffffffffffffffffffffffffffffffffffffff16630c2b6904866040518263ffffffff1660e01b8152600401808273ffffffffffffffffffffffffffffffffffffffff1673ffffffffffffffffffffffffffffffffffffffff16815260200191505060206040518083038186803b15801561112157600080fd5b505afa158015611135573d6000803e3d6000fd5b505050506040513d602081101561114b57600080fd5b8101908080519060200190929190505050600160009054906101000a900473ffffffffffffffffffffffffffffffffffffffff1673ffffffffffffffffffffffffffffffffffffffff16639073af81876040518263ffffffff1660e01b8152600401808273ffffffffffffffffffffffffffffffffffffffff1673ffffffffffffffffffffffffffffffffffffffff16815260200191505060206040518083038186803b1580156111fb57600080fd5b505afa15801561120f573d6000803e3d6000fd5b505050506040513d602081101561122557600080fd5b81019080805190602001909291905050500161569790919063ffffffff16565b9050809150505b919050565b6000803390506000600260009054906101000a900473ffffffffffffffffffffffffffffffffffffffff1673ffffffffffffffffffffffffffffffffffffffff16639073af81836040518263ffffffff1660e01b8152600401808273ffffffffffffffffffffffffffffffffffffffff1673ffffffffffffffffffffffffffffffffffffffff16815260200191505060206040518083038186803b1580156112f857600080fd5b505afa15801561130c573d6000803e3d6000fd5b505050506040513d602081101561132257600080fd5b810190808051906020019092919050505014611342576000915050611828565b600080600260009054906101000a900473ffffffffffffffffffffffffffffffffffffffff1673ffffffffffffffffffffffffffffffffffffffff1663c0e8b76784876040518363ffffffff1660e01b8152600401808373ffffffffffffffffffffffffffffffffffffffff1673ffffffffffffffffffffffffffffffffffffffff16815260200182815260200192505050602060405180830381600087803b1580156113ee57600080fd5b505af1158015611402573d6000803e3d6000fd5b505050506040513d602081101561141857600080fd5b81019080805190602001909291905050509150600260009054906101000a900473ffffffffffffffffffffffffffffffffffffffff1673ffffffffffffffffffffffffffffffffffffffff1663b47711fa846040518263ffffffff1660e01b8152600401808273ffffffffffffffffffffffffffffffffffffffff1673ffffffffffffffffffffffffffffffffffffffff16815260200191505060206040518083038186803b1580156114ca57600080fd5b505afa1580156114de573d6000803e3d6000fd5b505050506040513d60208110156114f457600080fd5b810190808051906020019092919050505090506000151582151514156115205760009350505050611828565b600260009054906101000a900473ffffffffffffffffffffffffffffffffffffffff1673ffffffffffffffffffffffffffffffffffffffff16638ed9720284426040518363ffffffff1660e01b8152600401808373ffffffffffffffffffffffffffffffffffffffff1673ffffffffffffffffffffffffffffffffffffffff16815260200182815260200192505050600060405180830381600087803b1580156115c957600080fd5b505af11580156115dd573d6000803e3d6000fd5b50505050600260009054906101000a900473ffffffffffffffffffffffffffffffffffffffff1673ffffffffffffffffffffffffffffffffffffffff1663e9439b03848784600260009054906101000a900473ffffffffffffffffffffffffffffffffffffffff1673ffffffffffffffffffffffffffffffffffffffff1663a03e7df16040518163ffffffff1660e01b815260040160206040518083038186803b15801561168a57600080fd5b505afa15801561169e573d6000803e3d6000fd5b505050506040513d60208110156116b457600080fd5b810190808051906020019092919050505002026040518363ffffffff1660e01b8152600401808373ffffffffffffffffffffffffffffffffffffffff1673ffffffffffffffffffffffffffffffffffffffff16815260200182815260200192505050600060405180830381600087803b15801561173057600080fd5b505af1158015611744573d6000803e3d6000fd5b50505050600260009054906101000a900473ffffffffffffffffffffffffffffffffffffffff1673ffffffffffffffffffffffffffffffffffffffff1663e57d01f6846040518263ffffffff1660e01b8152600401808273ffffffffffffffffffffffffffffffffffffffff1673ffffffffffffffffffffffffffffffffffffffff16815260200191505060206040518083038186803b1580156117e757600080fd5b505afa1580156117fb573d6000803e3d6000fd5b505050506040513d602081101561181157600080fd5b810190808051906020019092919050505093505050505b919050565b600080600460009054906101000a900473ffffffffffffffffffffffffffffffffffffffff1673ffffffffffffffffffffffffffffffffffffffff16639073af81846040518263ffffffff1660e01b8152600401808273ffffffffffffffffffffffffffffffffffffffff1673ffffffffffffffffffffffffffffffffffffffff16815260200191505060206040518083038186803b1580156118cf57600080fd5b505afa1580156118e3573d6000803e3d6000fd5b505050506040513d60208110156118f957600080fd5b810190808051906020019092919050505014156119195760009050612314565b611ade600460009054906101000a900473ffffffffffffffffffffffffffffffffffffffff1673ffffffffffffffffffffffffffffffffffffffff1663b5c3e402846040518263ffffffff1660e01b8152600401808273ffffffffffffffffffffffffffffffffffffffff1673ffffffffffffffffffffffffffffffffffffffff16815260200191505060206040518083038186803b1580156119bb57600080fd5b505afa1580156119cf573d6000803e3d6000fd5b505050506040513d60208110156119e557600080fd5b8101908080519060200190929190505050600460009054906101000a900473ffffffffffffffffffffffffffffffffffffffff1673ffffffffffffffffffffffffffffffffffffffff16639073af81856040518263ffffffff1660e01b8152600401808273ffffffffffffffffffffffffffffffffffffffff1673ffffffffffffffffffffffffffffffffffffffff16815260200191505060206040518083038186803b158015611a9557600080fd5b505afa158015611aa9573d6000803e3d6000fd5b505050506040513d6020811015611abf57600080fd5b810190808051906020019092919050505061553f90919063ffffffff16565b4210612144576000611d5f611c77600460009054906101000a900473ffffffffffffffffffffffffffffffffffffffff1673ffffffffffffffffffffffffffffffffffffffff16634807c3d56040518163ffffffff1660e01b815260040160206040518083038186803b158015611b5457600080fd5b505afa158015611b68573d6000803e3d6000fd5b505050506040513d6020811015611b7e57600080fd5b8101908080519060200190929190505050600460009054906101000a900473ffffffffffffffffffffffffffffffffffffffff1673ffffffffffffffffffffffffffffffffffffffff1663de634152876040518263ffffffff1660e01b8152600401808273ffffffffffffffffffffffffffffffffffffffff1673ffffffffffffffffffffffffffffffffffffffff16815260200191505060206040518083038186803b158015611c2e57600080fd5b505afa158015611c42573d6000803e3d6000fd5b505050506040513d6020811015611c5857600080fd5b81019080805190602001909291905050506155c790919063ffffffff16565b600460009054906101000a900473ffffffffffffffffffffffffffffffffffffffff1673ffffffffffffffffffffffffffffffffffffffff1663b5c3e402866040518263ffffffff1660e01b8152600401808273ffffffffffffffffffffffffffffffffffffffff1673ffffffffffffffffffffffffffffffffffffffff16815260200191505060206040518083038186803b158015611d1657600080fd5b505afa158015611d2a573d6000803e3d6000fd5b505050506040513d6020811015611d4057600080fd5b810190808051906020019092919050505061564d90919063ffffffff16565b9050600460009054906101000a900473ffffffffffffffffffffffffffffffffffffffff1673ffffffffffffffffffffffffffffffffffffffff16632d96a77b8483600460009054906101000a900473ffffffffffffffffffffffffffffffffffffffff1673ffffffffffffffffffffffffffffffffffffffff1663af3437ae886040518263ffffffff1660e01b8152600401808273ffffffffffffffffffffffffffffffffffffffff1673ffffffffffffffffffffffffffffffffffffffff16815260200191505060206040518083038186803b158015611e4057600080fd5b505afa158015611e54573d6000803e3d6000fd5b505050506040513d6020811015611e6a57600080fd5b8101908080519060200190929190505050016040518363ffffffff1660e01b8152600401808373ffffffffffffffffffffffffffffffffffffffff1673ffffffffffffffffffffffffffffffffffffffff16815260200182815260200192505050600060405180830381600087803b158015611ee557600080fd5b505af1158015611ef9573d6000803e3d6000fd5b50505050600460009054906101000a900473ffffffffffffffffffffffffffffffffffffffff1673ffffffffffffffffffffffffffffffffffffffff16638ed972028460006040518363ffffffff1660e01b8152600401808373ffffffffffffffffffffffffffffffffffffffff1673ffffffffffffffffffffffffffffffffffffffff16815260200182815260200192505050600060405180830381600087803b158015611fa757600080fd5b505af1158015611fbb573d6000803e3d6000fd5b50505050600460009054906101000a900473ffffffffffffffffffffffffffffffffffffffff1673ffffffffffffffffffffffffffffffffffffffff1663801e95908460006040518363ffffffff1660e01b8152600401808373ffffffffffffffffffffffffffffffffffffffff1673ffffffffffffffffffffffffffffffffffffffff16815260200182815260200192505050600060405180830381600087803b15801561206957600080fd5b505af115801561207d573d6000803e3d6000fd5b50505050600460009054906101000a900473ffffffffffffffffffffffffffffffffffffffff1673ffffffffffffffffffffffffffffffffffffffff1663f6716496846040518263ffffffff1660e01b8152600401808273ffffffffffffffffffffffffffffffffffffffff1673ffffffffffffffffffffffffffffffffffffffff168152602001915050600060405180830381600087803b15801561212257600080fd5b505af1158015612136573d6000803e3d6000fd5b505050506000915050612314565b600061230d42600460009054906101000a900473ffffffffffffffffffffffffffffffffffffffff1673ffffffffffffffffffffffffffffffffffffffff1663b5c3e402866040518263ffffffff1660e01b8152600401808273ffffffffffffffffffffffffffffffffffffffff1673ffffffffffffffffffffffffffffffffffffffff16815260200191505060206040518083038186803b1580156121e957600080fd5b505afa1580156121fd573d6000803e3d6000fd5b505050506040513d602081101561221357600080fd5b8101908080519060200190929190505050600460009054906101000a900473ffffffffffffffffffffffffffffffffffffffff1673ffffffffffffffffffffffffffffffffffffffff16639073af81876040518263ffffffff1660e01b8152600401808273ffffffffffffffffffffffffffffffffffffffff1673ffffffffffffffffffffffffffffffffffffffff16815260200191505060206040518083038186803b1580156122c357600080fd5b505afa1580156122d7573d6000803e3d6000fd5b505050506040513d60208110156122ed57600080fd5b81019080805190602001909291905050500161569790919063ffffffff16565b9050809150505b919050565b6000600260009054906101000a900473ffffffffffffffffffffffffffffffffffffffff1673ffffffffffffffffffffffffffffffffffffffff166371896378836040518263ffffffff1660e01b8152600401808273ffffffffffffffffffffffffffffffffffffffff1673ffffffffffffffffffffffffffffffffffffffff16815260200191505060206040518083038186803b1580156123ba57600080fd5b505afa1580156123ce573d6000803e3d6000fd5b505050506040513d60208110156123e457600080fd5b81019080805190602001909291905050509050919050565b6000803390506000600460009054906101000a900473ffffffffffffffffffffffffffffffffffffffff1673ffffffffffffffffffffffffffffffffffffffff16639073af81836040518263ffffffff1660e01b8152600401808273ffffffffffffffffffffffffffffffffffffffff1673ffffffffffffffffffffffffffffffffffffffff16815260200191505060206040518083038186803b1580156124a357600080fd5b505afa1580156124b7573d6000803e3d6000fd5b505050506040513d60208110156124cd57600080fd5b8101908080519060200190929190505050146124ed5760009150506129d3565b600080600460009054906101000a900473ffffffffffffffffffffffffffffffffffffffff1673ffffffffffffffffffffffffffffffffffffffff1663a7e3cce184876040518363ffffffff1660e01b8152600401808373ffffffffffffffffffffffffffffffffffffffff1673ffffffffffffffffffffffffffffffffffffffff16815260200182815260200192505050602060405180830381600087803b15801561259957600080fd5b505af11580156125ad573d6000803e3d6000fd5b505050506040513d60208110156125c357600080fd5b81019080805190602001909291905050509150600460009054906101000a900473ffffffffffffffffffffffffffffffffffffffff1673ffffffffffffffffffffffffffffffffffffffff1663de634152846040518263ffffffff1660e01b8152600401808273ffffffffffffffffffffffffffffffffffffffff1673ffffffffffffffffffffffffffffffffffffffff16815260200191505060206040518083038186803b15801561267557600080fd5b505afa158015612689573d6000803e3d6000fd5b505050506040513d602081101561269f57600080fd5b810190808051906020019092919050505090506000151582151514156126cb57600093505050506129d3565b600460009054906101000a900473ffffffffffffffffffffffffffffffffffffffff1673ffffffffffffffffffffffffffffffffffffffff16638ed9720284426040518363ffffffff1660e01b8152600401808373ffffffffffffffffffffffffffffffffffffffff1673ffffffffffffffffffffffffffffffffffffffff16815260200182815260200192505050600060405180830381600087803b15801561277457600080fd5b505af1158015612788573d6000803e3d6000fd5b50505050600460009054906101000a900473ffffffffffffffffffffffffffffffffffffffff1673ffffffffffffffffffffffffffffffffffffffff1663801e9590848784600460009054906101000a900473ffffffffffffffffffffffffffffffffffffffff1673ffffffffffffffffffffffffffffffffffffffff16634807c3d56040518163ffffffff1660e01b815260040160206040518083038186803b15801561283557600080fd5b505afa158015612849573d6000803e3d6000fd5b505050506040513d602081101561285f57600080fd5b810190808051906020019092919050505002026040518363ffffffff1660e01b8152600401808373ffffffffffffffffffffffffffffffffffffffff1673ffffffffffffffffffffffffffffffffffffffff16815260200182815260200192505050600060405180830381600087803b1580156128db57600080fd5b505af11580156128ef573d6000803e3d6000fd5b50505050600460009054906101000a900473ffffffffffffffffffffffffffffffffffffffff1673ffffffffffffffffffffffffffffffffffffffff1663b5c3e402846040518263ffffffff1660e01b8152600401808273ffffffffffffffffffffffffffffffffffffffff1673ffffffffffffffffffffffffffffffffffffffff16815260200191505060206040518083038186803b15801561299257600080fd5b505afa1580156129a6573d6000803e3d6000fd5b505050506040513d60208110156129bc57600080fd5b810190808051906020019092919050505093505050505b919050565b6000803390506000600160009054906101000a900473ffffffffffffffffffffffffffffffffffffffff1673ffffffffffffffffffffffffffffffffffffffff16639073af81836040518263ffffffff1660e01b8152600401808273ffffffffffffffffffffffffffffffffffffffff1673ffffffffffffffffffffffffffffffffffffffff16815260200191505060206040518083038186803b158015612a7f57600080fd5b505afa158015612a93573d6000803e3d6000fd5b505050506040513d6020811015612aa957600080fd5b810190808051906020019092919050505014612ac9576000915050612faf565b600080600160009054906101000a900473ffffffffffffffffffffffffffffffffffffffff1673ffffffffffffffffffffffffffffffffffffffff1663551502d484876040518363ffffffff1660e01b8152600401808373ffffffffffffffffffffffffffffffffffffffff1673ffffffffffffffffffffffffffffffffffffffff16815260200182815260200192505050602060405180830381600087803b158015612b7557600080fd5b505af1158015612b89573d6000803e3d6000fd5b505050506040513d6020811015612b9f57600080fd5b81019080805190602001909291905050509150600160009054906101000a900473ffffffffffffffffffffffffffffffffffffffff1673ffffffffffffffffffffffffffffffffffffffff166329058536846040518263ffffffff1660e01b8152600401808273ffffffffffffffffffffffffffffffffffffffff1673ffffffffffffffffffffffffffffffffffffffff16815260200191505060206040518083038186803b158015612c5157600080fd5b505afa158015612c65573d6000803e3d6000fd5b505050506040513d6020811015612c7b57600080fd5b81019080805190602001909291905050509050600015158215151415612ca75760009350505050612faf565b600160009054906101000a900473ffffffffffffffffffffffffffffffffffffffff1673ffffffffffffffffffffffffffffffffffffffff16638ed9720284426040518363ffffffff1660e01b8152600401808373ffffffffffffffffffffffffffffffffffffffff1673ffffffffffffffffffffffffffffffffffffffff16815260200182815260200192505050600060405180830381600087803b158015612d5057600080fd5b505af1158015612d64573d6000803e3d6000fd5b50505050600160009054906101000a900473ffffffffffffffffffffffffffffffffffffffff1673ffffffffffffffffffffffffffffffffffffffff16637e23dbd1848784600160009054906101000a900473ffffffffffffffffffffffffffffffffffffffff1673ffffffffffffffffffffffffffffffffffffffff166347dcb51c6040518163ffffffff1660e01b815260040160206040518083038186803b158015612e1157600080fd5b505afa158015612e25573d6000803e3d6000fd5b505050506040513d6020811015612e3b57600080fd5b810190808051906020019092919050505002026040518363ffffffff1660e01b8152600401808373ffffffffffffffffffffffffffffffffffffffff1673ffffffffffffffffffffffffffffffffffffffff16815260200182815260200192505050600060405180830381600087803b158015612eb757600080fd5b505af1158015612ecb573d6000803e3d6000fd5b50505050600160009054906101000a900473ffffffffffffffffffffffffffffffffffffffff1673ffffffffffffffffffffffffffffffffffffffff16630c2b6904846040518263ffffffff1660e01b8152600401808273ffffffffffffffffffffffffffffffffffffffff1673ffffffffffffffffffffffffffffffffffffffff16815260200191505060206040518083038186803b158015612f6e57600080fd5b505afa158015612f82573d6000803e3d6000fd5b505050506040513d6020811015612f9857600080fd5b810190808051906020019092919050505093505050505b919050565b600080600260009054906101000a900473ffffffffffffffffffffffffffffffffffffffff1673ffffffffffffffffffffffffffffffffffffffff16639073af81846040518263ffffffff1660e01b8152600401808273ffffffffffffffffffffffffffffffffffffffff1673ffffffffffffffffffffffffffffffffffffffff16815260200191505060206040518083038186803b15801561305657600080fd5b505afa15801561306a573d6000803e3d6000fd5b505050506040513d602081101561308057600080fd5b810190808051906020019092919050505014156130a05760009050613a9b565b613265600260009054906101000a900473ffffffffffffffffffffffffffffffffffffffff1673ffffffffffffffffffffffffffffffffffffffff1663e57d01f6846040518263ffffffff1660e01b8152600401808273ffffffffffffffffffffffffffffffffffffffff1673ffffffffffffffffffffffffffffffffffffffff16815260200191505060206040518083038186803b15801561314257600080fd5b505afa158015613156573d6000803e3d6000fd5b505050506040513d602081101561316c57600080fd5b8101908080519060200190929190505050600260009054906101000a900473ffffffffffffffffffffffffffffffffffffffff1673ffffffffffffffffffffffffffffffffffffffff16639073af81856040518263ffffffff1660e01b8152600401808273ffffffffffffffffffffffffffffffffffffffff1673ffffffffffffffffffffffffffffffffffffffff16815260200191505060206040518083038186803b15801561321c57600080fd5b505afa158015613230573d6000803e3d6000fd5b505050506040513d602081101561324657600080fd5b810190808051906020019092919050505061553f90919063ffffffff16565b42106138cb5760006134e66133fe600260009054906101000a900473ffffffffffffffffffffffffffffffffffffffff1673ffffffffffffffffffffffffffffffffffffffff1663a03e7df16040518163ffffffff1660e01b815260040160206040518083038186803b1580156132db57600080fd5b505afa1580156132ef573d6000803e3d6000fd5b505050506040513d602081101561330557600080fd5b8101908080519060200190929190505050600260009054906101000a900473ffffffffffffffffffffffffffffffffffffffff1673ffffffffffffffffffffffffffffffffffffffff1663b47711fa876040518263ffffffff1660e01b8152600401808273ffffffffffffffffffffffffffffffffffffffff1673ffffffffffffffffffffffffffffffffffffffff16815260200191505060206040518083038186803b1580156133b557600080fd5b505afa1580156133c9573d6000803e3d6000fd5b505050506040513d60208110156133df57600080fd5b81019080805190602001909291905050506155c790919063ffffffff16565b600260009054906101000a900473ffffffffffffffffffffffffffffffffffffffff1673ffffffffffffffffffffffffffffffffffffffff1663e57d01f6866040518263ffffffff1660e01b8152600401808273ffffffffffffffffffffffffffffffffffffffff1673ffffffffffffffffffffffffffffffffffffffff16815260200191505060206040518083038186803b15801561349d57600080fd5b505afa1580156134b1573d6000803e3d6000fd5b505050506040513d60208110156134c757600080fd5b810190808051906020019092919050505061564d90919063ffffffff16565b9050600260009054906101000a900473ffffffffffffffffffffffffffffffffffffffff1673ffffffffffffffffffffffffffffffffffffffff1663dda0a3bf8483600260009054906101000a900473ffffffffffffffffffffffffffffffffffffffff1673ffffffffffffffffffffffffffffffffffffffff166332469342886040518263ffffffff1660e01b8152600401808273ffffffffffffffffffffffffffffffffffffffff1673ffffffffffffffffffffffffffffffffffffffff16815260200191505060206040518083038186803b1580156135c757600080fd5b505afa1580156135db573d6000803e3d6000fd5b505050506040513d60208110156135f157600080fd5b8101908080519060200190929190505050016040518363ffffffff1660e01b8152600401808373ffffffffffffffffffffffffffffffffffffffff1673ffffffffffffffffffffffffffffffffffffffff16815260200182815260200192505050600060405180830381600087803b15801561366c57600080fd5b505af1158015613680573d6000803e3d6000fd5b50505050600260009054906101000a900473ffffffffffffffffffffffffffffffffffffffff1673ffffffffffffffffffffffffffffffffffffffff16638ed972028460006040518363ffffffff1660e01b8152600401808373ffffffffffffffffffffffffffffffffffffffff1673ffffffffffffffffffffffffffffffffffffffff16815260200182815260200192505050600060405180830381600087803b15801561372e57600080fd5b505af1158015613742573d6000803e3d6000fd5b50505050600260009054906101000a900473ffffffffffffffffffffffffffffffffffffffff1673ffffffffffffffffffffffffffffffffffffffff1663e9439b038460006040518363ffffffff1660e01b8152600401808373ffffffffffffffffffffffffffffffffffffffff1673ffffffffffffffffffffffffffffffffffffffff16815260200182815260200192505050600060405180830381600087803b1580156137f057600080fd5b505af1158015613804573d6000803e3d6000fd5b50505050600260009054906101000a900473ffffffffffffffffffffffffffffffffffffffff1673ffffffffffffffffffffffffffffffffffffffff1663fa9f3096846040518263ffffffff1660e01b8152600401808273ffffffffffffffffffffffffffffffffffffffff1673ffffffffffffffffffffffffffffffffffffffff168152602001915050600060405180830381600087803b1580156138a957600080fd5b505af11580156138bd573d6000803e3d6000fd5b505050506000915050613a9b565b6000613a9442600260009054906101000a900473ffffffffffffffffffffffffffffffffffffffff1673ffffffffffffffffffffffffffffffffffffffff1663e57d01f6866040518263ffffffff1660e01b8152600401808273ffffffffffffffffffffffffffffffffffffffff1673ffffffffffffffffffffffffffffffffffffffff16815260200191505060206040518083038186803b15801561397057600080fd5b505afa158015613984573d6000803e3d6000fd5b505050506040513d602081101561399a57600080fd5b8101908080519060200190929190505050600260009054906101000a900473ffffffffffffffffffffffffffffffffffffffff1673ffffffffffffffffffffffffffffffffffffffff16639073af81876040518263ffffffff1660e01b8152600401808273ffffffffffffffffffffffffffffffffffffffff1673ffffffffffffffffffffffffffffffffffffffff16815260200191505060206040518083038186803b158015613a4a57600080fd5b505afa158015613a5e573d6000803e3d6000fd5b505050506040513d6020811015613a7457600080fd5b81019080805190602001909291905050500161569790919063ffffffff16565b9050809150505b919050565b6000600160009054906101000a900473ffffffffffffffffffffffffffffffffffffffff1673ffffffffffffffffffffffffffffffffffffffff1663a4b1919d836040518263ffffffff1660e01b8152600401808273ffffffffffffffffffffffffffffffffffffffff1673ffffffffffffffffffffffffffffffffffffffff16815260200191505060206040518083038186803b158015613b4157600080fd5b505afa158015613b55573d6000803e3d6000fd5b505050506040513d6020811015613b6b57600080fd5b81019080805190602001909291905050509050919050565b600080600360009054906101000a900473ffffffffffffffffffffffffffffffffffffffff1673ffffffffffffffffffffffffffffffffffffffff16639073af81336040518263ffffffff1660e01b8152600401808273ffffffffffffffffffffffffffffffffffffffff1673ffffffffffffffffffffffffffffffffffffffff16815260200191505060206040518083038186803b158015613c2557600080fd5b505afa158015613c39573d6000803e3d6000fd5b505050506040513d6020811015613c4f57600080fd5b81019080805190602001909291905050504203600360009054906101000a900473ffffffffffffffffffffffffffffffffffffffff1673ffffffffffffffffffffffffffffffffffffffff16638a8e016e336040518263ffffffff1660e01b8152600401808273ffffffffffffffffffffffffffffffffffffffff1673ffffffffffffffffffffffffffffffffffffffff16815260200191505060206040518083038186803b158015613d0157600080fd5b505afa158015613d15573d6000803e3d6000fd5b505050506040513d6020811015613d2b57600080fd5b8101908080519060200190929190505050915091509091565b600080600260009054906101000a900473ffffffffffffffffffffffffffffffffffffffff1673ffffffffffffffffffffffffffffffffffffffff16639073af81336040518263ffffffff1660e01b8152600401808273ffffffffffffffffffffffffffffffffffffffff1673ffffffffffffffffffffffffffffffffffffffff16815260200191505060206040518083038186803b158015613de657600080fd5b505afa158015613dfa573d6000803e3d6000fd5b505050506040513d6020811015613e1057600080fd5b81019080805190602001909291905050504203600260009054906101000a900473ffffffffffffffffffffffffffffffffffffffff1673ffffffffffffffffffffffffffffffffffffffff1663e57d01f6336040518263ffffffff1660e01b8152600401808273ffffffffffffffffffffffffffffffffffffffff1673ffffffffffffffffffffffffffffffffffffffff16815260200191505060206040518083038186803b158015613ec257600080fd5b505afa158015613ed6573d6000803e3d6000fd5b505050506040513d6020811015613eec57600080fd5b8101908080519060200190929190505050915091509091565b6000809054906101000a900473ffffffffffffffffffffffffffffffffffffffff1673ffffffffffffffffffffffffffffffffffffffff166321241b3f3384846040518463ffffffff1660e01b8152600401808473ffffffffffffffffffffffffffffffffffffffff1673ffffffffffffffffffffffffffffffffffffffff16815260200180602001848152602001838152602001828103825260078152602001807f4261727261636b00000000000000000000000000000000000000000000000000815250602001945050505050602060405180830381600087803b158015613fee57600080fd5b505af1158015614002573d6000803e3d6000fd5b505050506040513d602081101561401857600080fd5b810190808051906020019092919050505050600160009054906101000a900473ffffffffffffffffffffffffffffffffffffffff1673ffffffffffffffffffffffffffffffffffffffff16636f58051b3360016040518363ffffffff1660e01b8152600401808373ffffffffffffffffffffffffffffffffffffffff1673ffffffffffffffffffffffffffffffffffffffff16815260200182815260200192505050600060405180830381600087803b1580156140d457600080fd5b505af11580156140e8573d6000803e3d6000fd5b505050505050565b6000600460009054906101000a900473ffffffffffffffffffffffffffffffffffffffff1673ffffffffffffffffffffffffffffffffffffffff1663e21843fd836040518263ffffffff1660e01b8152600401808273ffffffffffffffffffffffffffffffffffffffff1673ffffffffffffffffffffffffffffffffffffffff16815260200191505060206040518083038186803b15801561419157600080fd5b505afa1580156141a5573d6000803e3d6000fd5b505050506040513d60208110156141bb57600080fd5b81019080805190602001909291905050509050919050565b600080600160009054906101000a900473ffffffffffffffffffffffffffffffffffffffff1673ffffffffffffffffffffffffffffffffffffffff16639073af81336040518263ffffffff1660e01b8152600401808273ffffffffffffffffffffffffffffffffffffffff1673ffffffffffffffffffffffffffffffffffffffff16815260200191505060206040518083038186803b15801561427557600080fd5b505afa158015614289573d6000803e3d6000fd5b505050506040513d602081101561429f57600080fd5b81019080805190602001909291905050504203600160009054906101000a900473ffffffffffffffffffffffffffffffffffffffff1673ffffffffffffffffffffffffffffffffffffffff16630c2b6904336040518263ffffffff1660e01b8152600401808273ffffffffffffffffffffffffffffffffffffffff1673ffffffffffffffffffffffffffffffffffffffff16815260200191505060206040518083038186803b15801561435157600080fd5b505afa158015614365573d6000803e3d6000fd5b505050506040513d602081101561437b57600080fd5b8101908080519060200190929190505050915091509091565b600080600360009054906101000a900473ffffffffffffffffffffffffffffffffffffffff1673ffffffffffffffffffffffffffffffffffffffff16639073af81846040518263ffffffff1660e01b8152600401808273ffffffffffffffffffffffffffffffffffffffff1673ffffffffffffffffffffffffffffffffffffffff16815260200191505060206040518083038186803b15801561443657600080fd5b505afa15801561444a573d6000803e3d6000fd5b505050506040513d602081101561446057600080fd5b810190808051906020019092919050505014156144805760009050614e7b565b614645600360009054906101000a900473ffffffffffffffffffffffffffffffffffffffff1673ffffffffffffffffffffffffffffffffffffffff16638a8e016e846040518263ffffffff1660e01b8152600401808273ffffffffffffffffffffffffffffffffffffffff1673ffffffffffffffffffffffffffffffffffffffff16815260200191505060206040518083038186803b15801561452257600080fd5b505afa158015614536573d6000803e3d6000fd5b505050506040513d602081101561454c57600080fd5b8101908080519060200190929190505050600360009054906101000a900473ffffffffffffffffffffffffffffffffffffffff1673ffffffffffffffffffffffffffffffffffffffff16639073af81856040518263ffffffff1660e01b8152600401808273ffffffffffffffffffffffffffffffffffffffff1673ffffffffffffffffffffffffffffffffffffffff16815260200191505060206040518083038186803b1580156145fc57600080fd5b505afa158015614610573d6000803e3d6000fd5b505050506040513d602081101561462657600080fd5b810190808051906020019092919050505061553f90919063ffffffff16565b4210614cab5760006148c66147de600360009054906101000a900473ffffffffffffffffffffffffffffffffffffffff1673ffffffffffffffffffffffffffffffffffffffff1663f3b837566040518163ffffffff1660e01b815260040160206040518083038186803b1580156146bb57600080fd5b505afa1580156146cf573d6000803e3d6000fd5b505050506040513d60208110156146e557600080fd5b8101908080519060200190929190505050600360009054906101000a900473ffffffffffffffffffffffffffffffffffffffff1673ffffffffffffffffffffffffffffffffffffffff1663d0bb9e90876040518263ffffffff1660e01b8152600401808273ffffffffffffffffffffffffffffffffffffffff1673ffffffffffffffffffffffffffffffffffffffff16815260200191505060206040518083038186803b15801561479557600080fd5b505afa1580156147a9573d6000803e3d6000fd5b505050506040513d60208110156147bf57600080fd5b81019080805190602001909291905050506155c790919063ffffffff16565b600360009054906101000a900473ffffffffffffffffffffffffffffffffffffffff1673ffffffffffffffffffffffffffffffffffffffff16638a8e016e866040518263ffffffff1660e01b8152600401808273ffffffffffffffffffffffffffffffffffffffff1673ffffffffffffffffffffffffffffffffffffffff16815260200191505060206040518083038186803b15801561487d57600080fd5b505afa158015614891573d6000803e3d6000fd5b505050506040513d60208110156148a757600080fd5b810190808051906020019092919050505061564d90919063ffffffff16565b9050600360009054906101000a900473ffffffffffffffffffffffffffffffffffffffff1673ffffffffffffffffffffffffffffffffffffffff16632b16a5648483600360009054906101000a900473ffffffffffffffffffffffffffffffffffffffff1673ffffffffffffffffffffffffffffffffffffffff166357f683d3886040518263ffffffff1660e01b8152600401808273ffffffffffffffffffffffffffffffffffffffff1673ffffffffffffffffffffffffffffffffffffffff16815260200191505060206040518083038186803b1580156149a757600080fd5b505afa1580156149bb573d6000803e3d6000fd5b505050506040513d60208110156149d157600080fd5b8101908080519060200190929190505050016040518363ffffffff1660e01b8152600401808373ffffffffffffffffffffffffffffffffffffffff1673ffffffffffffffffffffffffffffffffffffffff16815260200182815260200192505050600060405180830381600087803b158015614a4c57600080fd5b505af1158015614a60573d6000803e3d6000fd5b50505050600360009054906101000a900473ffffffffffffffffffffffffffffffffffffffff1673ffffffffffffffffffffffffffffffffffffffff16638ed972028460006040518363ffffffff1660e01b8152600401808373ffffffffffffffffffffffffffffffffffffffff1673ffffffffffffffffffffffffffffffffffffffff16815260200182815260200192505050600060405180830381600087803b158015614b0e57600080fd5b505af1158015614b22573d6000803e3d6000fd5b50505050600360009054906101000a900473ffffffffffffffffffffffffffffffffffffffff1673ffffffffffffffffffffffffffffffffffffffff16636a209ea08460006040518363ffffffff1660e01b8152600401808373ffffffffffffffffffffffffffffffffffffffff1673ffffffffffffffffffffffffffffffffffffffff16815260200182815260200192505050600060405180830381600087803b158015614bd057600080fd5b505af1158015614be4573d6000803e3d6000fd5b50505050600360009054906101000a900473ffffffffffffffffffffffffffffffffffffffff1673ffffffffffffffffffffffffffffffffffffffff1663598b8e4e846040518263ffffffff1660e01b8152600401808273ffffffffffffffffffffffffffffffffffffffff1673ffffffffffffffffffffffffffffffffffffffff168152602001915050600060405180830381600087803b158015614c8957600080fd5b505af1158015614c9d573d6000803e3d6000fd5b505050506000915050614e7b565b6000614e7442600360009054906101000a900473ffffffffffffffffffffffffffffffffffffffff1673ffffffffffffffffffffffffffffffffffffffff16638a8e016e866040518263ffffffff1660e01b8152600401808273ffffffffffffffffffffffffffffffffffffffff1673ffffffffffffffffffffffffffffffffffffffff16815260200191505060206040518083038186803b158015614d5057600080fd5b505afa158015614d64573d6000803e3d6000fd5b505050506040513d6020811015614d7a57600080fd5b8101908080519060200190929190505050600360009054906101000a900473ffffffffffffffffffffffffffffffffffffffff1673ffffffffffffffffffffffffffffffffffffffff16639073af81876040518263ffffffff1660e01b8152600401808273ffffffffffffffffffffffffffffffffffffffff1673ffffffffffffffffffffffffffffffffffffffff16815260200191505060206040518083038186803b158015614e2a57600080fd5b505afa158015614e3e573d6000803e3d6000fd5b505050506040513d6020811015614e5457600080fd5b81019080805190602001909291905050500161569790919063ffffffff16565b9050809150505b919050565b6000803390506000600360009054906101000a900473ffffffffffffffffffffffffffffffffffffffff1673ffffffffffffffffffffffffffffffffffffffff16639073af81836040518263ffffffff1660e01b8152600401808273ffffffffffffffffffffffffffffffffffffffff1673ffffffffffffffffffffffffffffffffffffffff16815260200191505060206040518083038186803b158015614f2757600080fd5b505afa158015614f3b573d6000803e3d6000fd5b505050506040513d6020811015614f5157600080fd5b810190808051906020019092919050505014614f71576000915050615457565b600080600360009054906101000a900473ffffffffffffffffffffffffffffffffffffffff1673ffffffffffffffffffffffffffffffffffffffff1663efbbf17384876040518363ffffffff1660e01b8152600401808373ffffffffffffffffffffffffffffffffffffffff1673ffffffffffffffffffffffffffffffffffffffff16815260200182815260200192505050602060405180830381600087803b15801561501d57600080fd5b505af1158015615031573d6000803e3d6000fd5b505050506040513d602081101561504757600080fd5b81019080805190602001909291905050509150600360009054906101000a900473ffffffffffffffffffffffffffffffffffffffff1673ffffffffffffffffffffffffffffffffffffffff1663d0bb9e90846040518263ffffffff1660e01b8152600401808273ffffffffffffffffffffffffffffffffffffffff1673ffffffffffffffffffffffffffffffffffffffff16815260200191505060206040518083038186803b1580156150f957600080fd5b505afa15801561510d573d6000803e3d6000fd5b505050506040513d602081101561512357600080fd5b8101908080519060200190929190505050905060001515821515141561514f5760009350505050615457565b600360009054906101000a900473ffffffffffffffffffffffffffffffffffffffff1673ffffffffffffffffffffffffffffffffffffffff16638ed9720284426040518363ffffffff1660e01b8152600401808373ffffffffffffffffffffffffffffffffffffffff1673ffffffffffffffffffffffffffffffffffffffff16815260200182815260200192505050600060405180830381600087803b1580156151f857600080fd5b505af115801561520c573d6000803e3d6000fd5b50505050600360009054906101000a900473ffffffffffffffffffffffffffffffffffffffff1673ffffffffffffffffffffffffffffffffffffffff16636a209ea0848784600360009054906101000a900473ffffffffffffffffffffffffffffffffffffffff1673ffffffffffffffffffffffffffffffffffffffff1663f3b837566040518163ffffffff1660e01b815260040160206040518083038186803b1580156152b957600080fd5b505afa1580156152cd573d6000803e3d6000fd5b505050506040513d60208110156152e357600080fd5b810190808051906020019092919050505002026040518363ffffffff1660e01b8152600401808373ffffffffffffffffffffffffffffffffffffffff1673ffffffffffffffffffffffffffffffffffffffff16815260200182815260200192505050600060405180830381600087803b15801561535f57600080fd5b505af1158015615373573d6000803e3d6000fd5b50505050600360009054906101000a900473ffffffffffffffffffffffffffffffffffffffff1673ffffffffffffffffffffffffffffffffffffffff16638a8e016e846040518263ffffffff1660e01b8152600401808273ffffffffffffffffffffffffffffffffffffffff1673ffffffffffffffffffffffffffffffffffffffff16815260200191505060206040518083038186803b15801561541657600080fd5b505afa15801561542a573d6000803e3d6000fd5b505050506040513d602081101561544057600080fd5b810190808051906020019092919050505093505050505b919050565b6000600360009054906101000a900473ffffffffffffffffffffffffffffffffffffffff1673ffffffffffffffffffffffffffffffffffffffff1663fad28ce4836040518263ffffffff1660e01b8152600401808273ffffffffffffffffffffffffffffffffffffffff1673ffffffffffffffffffffffffffffffffffffffff16815260200191505060206040518083038186803b1580156154fd57600080fd5b505afa158015615511573d6000803e3d6000fd5b505050506040513d602081101561552757600080fd5b81019080805190602001909291905050509050919050565b6000808284019050838110156155bd576040517f08c379a000000000000000000000000000000000000000000000000000000000815260040180806020018281038252601b8152602001807f536166654d6174683a206164646974696f6e206f766572666c6f77000000000081525060200191505060405180910390fd5b8091505092915050565b6000808314156155da5760009050615647565b60008284029050828482816155eb57fe5b0414615642576040517f08c379a00000000000000000000000000000000000000000000000000000000081526004018080602001828103825260218152602001806158686021913960400191505060405180910390fd5b809150505b92915050565b600061568f83836040518060400160405280601a81526020017f536166654d6174683a206469766973696f6e206279207a65726f0000000000008152506156e1565b905092915050565b60006156d983836040518060400160405280601e81526020017f536166654d6174683a207375627472616374696f6e206f766572666c6f7700008152506157a7565b905092915050565b6000808311829061578d576040517f08c379a00000000000000000000000000000000000000000000000000000000081526004018080602001828103825283818151815260200191508051906020019080838360005b83811015615752578082015181840152602081019050615737565b50505050905090810190601f16801561577f5780820380516001836020036101000a031916815260200191505b509250505060405180910390fd5b50600083858161579957fe5b049050809150509392505050565b6000838311158290615854576040517f08c379a00000000000000000000000000000000000000000000000000000000081526004018080602001828103825283818151815260200191508051906020019080838360005b838110156158195780820151818401526020810190506157fe565b50505050905090810190601f1680156158465780820380516001836020036101000a031916815260200191505b509250505060405180910390fd5b506000838503905080915050939250505056fe536166654d6174683a206d756c7469706c69636174696f6e206f766572666c6f77a265627a7a72315820c29cabccff4567db7271e1460f83427864a42736a701607300b5256a6ede779864736f6c63430005100032",
  "source": "pragma solidity >=0.4.21 <0.7.0;\n\nimport \"./SafeMath.sol\";\nimport \"./BuildingFactory.sol\";\nimport \"./Soldier.sol\";\nimport \"./Spy.sol\";\nimport \"./Cannon.sol\";\nimport \"./Protector.sol\";\n\ncontract Barrack {\n\n    using SafeMath for uint;\n\n    BuildingFactory buildingInstance;\n    Soldier soldierInstance;\n    Protector ProtectorInstance;\n    Cannon CannonInstance;\n    Spy SpyInstance;\n    constructor(address _building_address, address _soldier_address, address _spy_instance, address _cannon_instance, address _protector_instance) public {\n        buildingInstance = BuildingFactory(_building_address);\n        soldierInstance = Soldier(_soldier_address);\n        SpyInstance = Spy(_spy_instance);\n        ProtectorInstance = Protector(_protector_instance);\n        CannonInstance = Cannon(_cannon_instance);\n    }\n\n    function createBarrack(uint _x, uint _y) public {\n        buildingInstance._createBuilding(msg.sender, \"Barrack\", _x, _y);\n        soldierInstance.setSoldierLevel(msg.sender, 1);\n    }\n\n    function getSoldierAmount(address _owner) public view returns(uint) {\n        return soldierInstance.getSoldierAmount(_owner);\n    }\n\n    // return 0 if failed (maybe already creating or not enough resource) otherwise return createtime\n    function startCreateSoldier(uint number) public returns(uint) {\n        address _owner = msg.sender;\n        if(soldierInstance.ownerStartCreateTime(_owner) != 0) return uint(0); // check if there is already creating soldiers\n        bool enoughResource;\n        uint lvOfSoldier;\n        enoughResource = soldierInstance._createSoldier(_owner, number);\n        lvOfSoldier =  soldierInstance.levelOfSoldier(_owner);\n        if(enoughResource == false) return uint(0);\n        soldierInstance.setStartCreateTime(_owner, uint(now));\n        soldierInstance.setCreateSoldierTime(_owner, soldierInstance.createSoldierTime() * lvOfSoldier * number);\n        return soldierInstance.ownerCreateSoldierTime(_owner);\n    }\n\n    function getCreateSoldierTime() public view returns(uint, uint) {\n        return ( now - soldierInstance.ownerStartCreateTime(msg.sender), soldierInstance.ownerCreateSoldierTime(msg.sender) ) ;\n    }\n\n    // // return 0 if success else return remaining time\n    function updateCreateSoldier(address _owner) public returns(uint) {\n        if (soldierInstance.ownerStartCreateTime(_owner) == 0) return 0;\n        if (now >= soldierInstance.ownerStartCreateTime(_owner).add(soldierInstance.ownerCreateSoldierTime(_owner))) {\n            uint num;\n            num = soldierInstance.ownerCreateSoldierTime(_owner).div(  soldierInstance.levelOfSoldier(_owner).mul(soldierInstance.createSoldierTime()) );\n            soldierInstance.setNumOfSoldier(_owner, soldierInstance.numOfSoldier(_owner) + (num));\n            soldierInstance.setStartCreateTime(_owner, 0);\n            soldierInstance.setCreateSoldierTime(_owner, 0);\n            soldierInstance._updatePower(_owner);\n            return 0;\n        }\n        else {\n            uint remainingTime = (soldierInstance.ownerStartCreateTime(_owner) + soldierInstance.ownerCreateSoldierTime(_owner)).sub(now);\n            return remainingTime;\n        }\n    }\n\n    function getSpyAmount(address _owner) public view returns(uint) {\n        return SpyInstance.getSpyAmount(_owner);\n    }\n\n    // return 0 if failed (maybe already creating or not enough resource) otherwise return createtime\n    function startCreateSpy(uint number) public returns(uint) {\n        address _owner = msg.sender;\n        if(SpyInstance.ownerStartCreateTime(_owner) != 0) return uint(0); // check if there is already creating spys\n        bool enoughResource;\n        uint lvOfSpy;\n        enoughResource = SpyInstance._createSpy(_owner, number);\n        lvOfSpy =  SpyInstance.levelOfSpy(_owner);\n        if(enoughResource == false) return uint(0);\n        SpyInstance.setStartCreateTime(_owner, uint(now));\n        SpyInstance.setCreateSpyTime(_owner, SpyInstance.createSpyTime() * lvOfSpy * number);\n        return SpyInstance.ownerCreateSpyTime(_owner);\n    }\n\n    function getCreateSpyTime() public view returns(uint, uint) {\n        return ( now - SpyInstance.ownerStartCreateTime(msg.sender), SpyInstance.ownerCreateSpyTime(msg.sender) ) ;\n    }\n\n    // // return 0 if success else return remaining time\n    function updateCreateSpy(address _owner) public returns(uint) {\n        if (SpyInstance.ownerStartCreateTime(_owner) == 0) return 0;\n        if (now >= SpyInstance.ownerStartCreateTime(_owner).add(SpyInstance.ownerCreateSpyTime(_owner))) {\n            uint num;\n            num = SpyInstance.ownerCreateSpyTime(_owner).div(  SpyInstance.levelOfSpy(_owner).mul(SpyInstance.createSpyTime()) );\n            SpyInstance.setNumOfSpy(_owner, SpyInstance.numOfSpy(_owner) + (num));\n            SpyInstance.setStartCreateTime(_owner, 0);\n            SpyInstance.setCreateSpyTime(_owner, 0);\n            SpyInstance._updateSpyPower(_owner);\n            return 0;\n        }\n        else {\n            uint remainingTime = (SpyInstance.ownerStartCreateTime(_owner) + SpyInstance.ownerCreateSpyTime(_owner)).sub(now);\n            return remainingTime;\n        }\n    }\n\n    function getCannonAmount(address _owner) public view returns(uint) {\n        return CannonInstance.getCannonAmount(_owner);\n    }\n\n    // return 0 if failed (maybe already creating or not enough resource) otherwise return createtime\n    function startCreateCannon(uint number) public returns(uint) {\n        address _owner = msg.sender;\n        if(CannonInstance.ownerStartCreateTime(_owner) != 0) return uint(0); // check if there is already creating Cannons\n        bool enoughResource;\n        uint lvOfCannon;\n        enoughResource = CannonInstance._createCannon(_owner, number);\n        lvOfCannon =  CannonInstance.levelOfCannon(_owner);\n        if(enoughResource == false) return uint(0);\n        CannonInstance.setStartCreateTime(_owner, uint(now));\n        CannonInstance.setCreateCannonTime(_owner, CannonInstance.createCannonTime() * lvOfCannon * number);\n        return CannonInstance.ownerCreateCannonTime(_owner);\n    }\n\n    function getCreateCannonTime() public view returns(uint, uint) {\n        return ( now - CannonInstance.ownerStartCreateTime(msg.sender), CannonInstance.ownerCreateCannonTime(msg.sender) ) ;\n    }\n\n    // // return 0 if success else return remaining time\n    function updateCreateCannon(address _owner) public returns(uint) {\n        if (CannonInstance.ownerStartCreateTime(_owner) == 0) return 0;\n        if (now >= CannonInstance.ownerStartCreateTime(_owner).add(CannonInstance.ownerCreateCannonTime(_owner))) {\n            uint num;\n            num = CannonInstance.ownerCreateCannonTime(_owner).div(  CannonInstance.levelOfCannon(_owner).mul(CannonInstance.createCannonTime()) );\n            CannonInstance.setNumOfCannon(_owner, CannonInstance.numOfCannon(_owner) + (num));\n            CannonInstance.setStartCreateTime(_owner, 0);\n            CannonInstance.setCreateCannonTime(_owner, 0);\n            CannonInstance._updateCannonPower(_owner);\n            return 0;\n        }\n        else {\n            uint remainingTime = (CannonInstance.ownerStartCreateTime(_owner) + CannonInstance.ownerCreateCannonTime(_owner)).sub(now);\n            return remainingTime;\n        }\n    }\n\n    function getProtectorAmount(address _owner) public view returns(uint) {\n        return ProtectorInstance.getProtectorAmount(_owner);\n    }\n\n    // return 0 if failed (maybe already creating or not enough resource) otherwise return createtime\n    function startCreateProtector(uint number) public returns(uint) {\n        address _owner = msg.sender;\n        if(ProtectorInstance.ownerStartCreateTime(_owner) != 0) return uint(0); // check if there is already creating Protectors\n        bool enoughResource;\n        uint lvOfProtector;\n        enoughResource = ProtectorInstance._createProtector(_owner, number);\n        lvOfProtector =  ProtectorInstance.levelOfProtector(_owner);\n        if(enoughResource == false) return uint(0);\n        ProtectorInstance.setStartCreateTime(_owner, uint(now));\n        ProtectorInstance.setCreateProtectorTime(_owner, ProtectorInstance.createProtectorTime() * lvOfProtector * number);\n        return ProtectorInstance.ownerCreateProtectorTime(_owner);\n    }\n\n    function getCreateProtectorTime() public view returns(uint, uint) {\n        return ( now - ProtectorInstance.ownerStartCreateTime(msg.sender), ProtectorInstance.ownerCreateProtectorTime(msg.sender) ) ;\n    }\n\n    // // return 0 if success else return remaining time\n    function updateCreateProtector(address _owner) public returns(uint) {\n        if (ProtectorInstance.ownerStartCreateTime(_owner) == 0) return 0;\n        if (now >= ProtectorInstance.ownerStartCreateTime(_owner).add(ProtectorInstance.ownerCreateProtectorTime(_owner))) {\n            uint num;\n            num = ProtectorInstance.ownerCreateProtectorTime(_owner).div(  ProtectorInstance.levelOfProtector(_owner).mul(ProtectorInstance.createProtectorTime()) );\n            ProtectorInstance.setNumOfProtector(_owner, ProtectorInstance.numOfProtector(_owner) + (num));\n            ProtectorInstance.setStartCreateTime(_owner, 0);\n            ProtectorInstance.setCreateProtectorTime(_owner, 0);\n            ProtectorInstance._updateProtectorPower(_owner);\n            return 0;\n        }\n        else {\n            uint remainingTime = (ProtectorInstance.ownerStartCreateTime(_owner) + ProtectorInstance.ownerCreateProtectorTime(_owner)).sub(now);\n            return remainingTime;\n        }\n    }\n\n}",
  "sourcePath": "/Users/cyl/Desktop//NMlab_Final/contracts/Barrack.sol",
  "compiler": {
    "name": "solc",
    "version": "0.5.16+commit.9c3226ce.Emscripten.clang"
  },
  "schemaVersion": "3.4.1",
  "updatedAt": "2021-06-04T10:54:13.953Z",
  "networkType": "ethereum",
  "devdoc": {
    "methods": {}
  },
  "userdoc": {
    "methods": {}
  }
}