{
  "contractName": "Barrack",
  "abi": [
    {
      "inputs": [
        {
          "internalType": "address",
          "name": "_building_address",
          "type": "address"
        },
        {
          "internalType": "address",
          "name": "_soldier_address",
          "type": "address"
        },
        {
          "internalType": "address",
          "name": "_spy_instance",
          "type": "address"
        },
        {
          "internalType": "address",
          "name": "_cannon_instance",
          "type": "address"
        },
        {
          "internalType": "address",
          "name": "_protector_instance",
          "type": "address"
        },
        {
          "internalType": "address",
          "name": "_wall_instance",
          "type": "address"
        },
        {
          "internalType": "address",
          "name": "_account_instance",
          "type": "address"
        }
      ],
      "payable": false,
      "stateMutability": "nonpayable",
      "type": "constructor"
    },
    {
      "constant": true,
      "inputs": [
        {
          "internalType": "address",
          "name": "",
          "type": "address"
        }
      ],
      "name": "ownerStartMarchTime",
      "outputs": [
        {
          "internalType": "uint256",
          "name": "",
          "type": "uint256"
        }
      ],
      "payable": false,
      "stateMutability": "view",
      "type": "function"
    },
    {
      "constant": true,
      "inputs": [
        {
          "internalType": "address",
          "name": "",
          "type": "address"
        }
      ],
      "name": "ownerTotalMarchTime",
      "outputs": [
        {
          "internalType": "uint256",
          "name": "",
          "type": "uint256"
        }
      ],
      "payable": false,
      "stateMutability": "view",
      "type": "function"
    },
    {
      "constant": false,
      "inputs": [
        {
          "internalType": "uint256",
          "name": "_x",
          "type": "uint256"
        },
        {
          "internalType": "uint256",
          "name": "_y",
          "type": "uint256"
        }
      ],
      "name": "createBarrack",
      "outputs": [],
      "payable": false,
      "stateMutability": "nonpayable",
      "type": "function"
    },
    {
      "constant": false,
      "inputs": [
        {
          "internalType": "uint256",
          "name": "_ownerId",
          "type": "uint256"
        },
        {
          "internalType": "uint256",
          "name": "_attackedCastleId",
          "type": "uint256"
        }
      ],
      "name": "attack",
      "outputs": [],
      "payable": false,
      "stateMutability": "nonpayable",
      "type": "function"
    },
    {
      "constant": false,
      "inputs": [
        {
          "internalType": "uint256",
          "name": "_attackedCastleId",
          "type": "uint256"
        }
      ],
      "name": "startMarch",
      "outputs": [
        {
          "internalType": "uint256",
          "name": "",
          "type": "uint256"
        }
      ],
      "payable": false,
      "stateMutability": "nonpayable",
      "type": "function"
    },
    {
      "constant": true,
      "inputs": [],
      "name": "getMarchTime",
      "outputs": [
        {
          "internalType": "uint256",
          "name": "",
          "type": "uint256"
        },
        {
          "internalType": "uint256",
          "name": "",
          "type": "uint256"
        }
      ],
      "payable": false,
      "stateMutability": "view",
      "type": "function"
    },
    {
      "constant": false,
      "inputs": [
        {
          "internalType": "address",
          "name": "_owner",
          "type": "address"
        }
      ],
      "name": "updateMarch",
      "outputs": [
        {
          "internalType": "uint256",
          "name": "",
          "type": "uint256"
        }
      ],
      "payable": false,
      "stateMutability": "nonpayable",
      "type": "function"
    },
    {
      "constant": true,
      "inputs": [
        {
          "internalType": "uint256",
          "name": "_ownerId",
          "type": "uint256"
        },
        {
          "internalType": "uint256",
          "name": "_attackedCastleId",
          "type": "uint256"
        }
      ],
      "name": "sendSpy",
      "outputs": [
        {
          "internalType": "bool",
          "name": "",
          "type": "bool"
        }
      ],
      "payable": false,
      "stateMutability": "view",
      "type": "function"
    }
  ],
  "bytecode": "0x608060405234801561001057600080fd5b506040516113f93803806113f9833981810160405260e081101561003357600080fd5b810190808051906020019092919080519060200190929190805190602001909291908051906020019092919080519060200190929190805190602001909291908051906020019092919050505086600260006101000a81548173ffffffffffffffffffffffffffffffffffffffff021916908373ffffffffffffffffffffffffffffffffffffffff16021790555085600360006101000a81548173ffffffffffffffffffffffffffffffffffffffff021916908373ffffffffffffffffffffffffffffffffffffffff16021790555084600660006101000a81548173ffffffffffffffffffffffffffffffffffffffff021916908373ffffffffffffffffffffffffffffffffffffffff16021790555082600460006101000a81548173ffffffffffffffffffffffffffffffffffffffff021916908373ffffffffffffffffffffffffffffffffffffffff16021790555083600560006101000a81548173ffffffffffffffffffffffffffffffffffffffff021916908373ffffffffffffffffffffffffffffffffffffffff16021790555080600760006101000a81548173ffffffffffffffffffffffffffffffffffffffff021916908373ffffffffffffffffffffffffffffffffffffffff16021790555081600860006101000a81548173ffffffffffffffffffffffffffffffffffffffff021916908373ffffffffffffffffffffffffffffffffffffffff1602179055505050505050505061119c8061025d6000396000f3fe608060405234801561001057600080fd5b50600436106100885760003560e01c8063b7c47d6e1161005b578063b7c47d6e146101cf578063d345572b14610207578063e1fa76381461025f578063f104f7cb1461029757610088565b80630194b6131461008d578063058981e8146100dd57806351e45bf51461013557806356c8718b14610177575b600080fd5b6100c3600480360360408110156100a357600080fd5b8101908080359060200190929190803590602001909291905050506102bc565b604051808215151515815260200191505060405180910390f35b61011f600480360360208110156100f357600080fd5b81019080803573ffffffffffffffffffffffffffffffffffffffff16906020019092919050505061037c565b6040518082815260200191505060405180910390f35b6101616004803603602081101561014b57600080fd5b8101908080359060200190929190505050610394565b6040518082815260200191505060405180910390f35b6101b96004803603602081101561018d57600080fd5b81019080803573ffffffffffffffffffffffffffffffffffffffff169060200190929190505050610820565b6040518082815260200191505060405180910390f35b610205600480360360408110156101e557600080fd5b810190808035906020019092919080359060200190929190505050610a39565b005b6102496004803603602081101561021d57600080fd5b81019080803573ffffffffffffffffffffffffffffffffffffffff169060200190929190505050610f2d565b6040518082815260200191505060405180910390f35b6102956004803603604081101561027557600080fd5b810190808035906020019092919080359060200190929190505050610f45565b005b61029f610f49565b604051808381526020018281526020019250505060405180910390f35b6000600660009054906101000a900473ffffffffffffffffffffffffffffffffffffffff1673ffffffffffffffffffffffffffffffffffffffff16630194b61384846040518363ffffffff1660e01b8152600401808381526020018281526020019250505060206040518083038186803b15801561033957600080fd5b505afa15801561034d573d6000803e3d6000fd5b505050506040513d602081101561036357600080fd5b8101908080519060200190929190505050905092915050565b60016020528060005260406000206000915090505481565b6000803390506000600760009054906101000a900473ffffffffffffffffffffffffffffffffffffffff1673ffffffffffffffffffffffffffffffffffffffff1663f4ab27f0856040518263ffffffff1660e01b81526004018082815260200191505060206040518083038186803b15801561040f57600080fd5b505afa158015610423573d6000803e3d6000fd5b505050506040513d602081101561043957600080fd5b8101908080519060200190929190505050905060008060008473ffffffffffffffffffffffffffffffffffffffff1673ffffffffffffffffffffffffffffffffffffffff168152602001908152602001600020541461049d5760009250505061081b565b6000600760009054906101000a900473ffffffffffffffffffffffffffffffffffffffff1673ffffffffffffffffffffffffffffffffffffffff16631e9ac0bf84606460006064600060646040518763ffffffff1660e01b8152600401808773ffffffffffffffffffffffffffffffffffffffff1673ffffffffffffffffffffffffffffffffffffffff1681526020018681526020018581526020018481526020018381526020018281526020019650505050505050602060405180830381600087803b15801561056d57600080fd5b505af1158015610581573d6000803e3d6000fd5b505050506040513d602081101561059757600080fd5b810190808051906020019092919050505090508090506000151581151514156105c6576000935050505061081b565b426000808573ffffffffffffffffffffffffffffffffffffffff1673ffffffffffffffffffffffffffffffffffffffff16815260200190815260200160002081905550600a600160008573ffffffffffffffffffffffffffffffffffffffff1673ffffffffffffffffffffffffffffffffffffffff16815260200190815260200160002081905550600760009054906101000a900473ffffffffffffffffffffffffffffffffffffffff1673ffffffffffffffffffffffffffffffffffffffff1663ec6daa30836001866000808973ffffffffffffffffffffffffffffffffffffffff1673ffffffffffffffffffffffffffffffffffffffff16815260200190815260200160002054600160008a73ffffffffffffffffffffffffffffffffffffffff1673ffffffffffffffffffffffffffffffffffffffff168152602001908152602001600020546040518663ffffffff1660e01b8152600401808673ffffffffffffffffffffffffffffffffffffffff1673ffffffffffffffffffffffffffffffffffffffff168152602001851515151581526020018473ffffffffffffffffffffffffffffffffffffffff1673ffffffffffffffffffffffffffffffffffffffff16815260200183815260200182815260200195505050505050600060405180830381600087803b1580156107bd57600080fd5b505af11580156107d1573d6000803e3d6000fd5b50505050600160008473ffffffffffffffffffffffffffffffffffffffff1673ffffffffffffffffffffffffffffffffffffffff1681526020019081526020016000205493505050505b919050565b6000806000808473ffffffffffffffffffffffffffffffffffffffff1673ffffffffffffffffffffffffffffffffffffffff1681526020019081526020016000205414156108715760009050610a34565b610901600160008473ffffffffffffffffffffffffffffffffffffffff1673ffffffffffffffffffffffffffffffffffffffff168152602001908152602001600020546000808573ffffffffffffffffffffffffffffffffffffffff1673ffffffffffffffffffffffffffffffffffffffff16815260200190815260200160002054610fd590919063ffffffff16565b42106109995760008060008473ffffffffffffffffffffffffffffffffffffffff1673ffffffffffffffffffffffffffffffffffffffff168152602001908152602001600020819055506000600160008473ffffffffffffffffffffffffffffffffffffffff1673ffffffffffffffffffffffffffffffffffffffff1681526020019081526020016000208190555060009050610a34565b6000610a2d42600160008673ffffffffffffffffffffffffffffffffffffffff1673ffffffffffffffffffffffffffffffffffffffff168152602001908152602001600020546000808773ffffffffffffffffffffffffffffffffffffffff1673ffffffffffffffffffffffffffffffffffffffff168152602001908152602001600020540161105d90919063ffffffff16565b9050809150505b919050565b600260009054906101000a900473ffffffffffffffffffffffffffffffffffffffff1673ffffffffffffffffffffffffffffffffffffffff166321241b3f3384846040518463ffffffff1660e01b8152600401808473ffffffffffffffffffffffffffffffffffffffff1673ffffffffffffffffffffffffffffffffffffffff16815260200180602001848152602001838152602001828103825260078152602001807f4261727261636b00000000000000000000000000000000000000000000000000815250602001945050505050602060405180830381600087803b158015610b2357600080fd5b505af1158015610b37573d6000803e3d6000fd5b505050506040513d6020811015610b4d57600080fd5b810190808051906020019092919050505050600360009054906101000a900473ffffffffffffffffffffffffffffffffffffffff1673ffffffffffffffffffffffffffffffffffffffff16636f58051b3360016040518363ffffffff1660e01b8152600401808373ffffffffffffffffffffffffffffffffffffffff1673ffffffffffffffffffffffffffffffffffffffff16815260200182815260200192505050600060405180830381600087803b158015610c0957600080fd5b505af1158015610c1d573d6000803e3d6000fd5b50505050600660009054906101000a900473ffffffffffffffffffffffffffffffffffffffff1673ffffffffffffffffffffffffffffffffffffffff16630de12cb33360016040518363ffffffff1660e01b8152600401808373ffffffffffffffffffffffffffffffffffffffff1673ffffffffffffffffffffffffffffffffffffffff16815260200182815260200192505050600060405180830381600087803b158015610ccb57600080fd5b505af1158015610cdf573d6000803e3d6000fd5b50505050600460009054906101000a900473ffffffffffffffffffffffffffffffffffffffff1673ffffffffffffffffffffffffffffffffffffffff166324ab6dc53360016040518363ffffffff1660e01b8152600401808373ffffffffffffffffffffffffffffffffffffffff1673ffffffffffffffffffffffffffffffffffffffff16815260200182815260200192505050600060405180830381600087803b158015610d8d57600080fd5b505af1158015610da1573d6000803e3d6000fd5b50505050600560009054906101000a900473ffffffffffffffffffffffffffffffffffffffff1673ffffffffffffffffffffffffffffffffffffffff16639e72a7e03360016040518363ffffffff1660e01b8152600401808373ffffffffffffffffffffffffffffffffffffffff1673ffffffffffffffffffffffffffffffffffffffff16815260200182815260200192505050600060405180830381600087803b158015610e4f57600080fd5b505af1158015610e63573d6000803e3d6000fd5b50505050600860009054906101000a900473ffffffffffffffffffffffffffffffffffffffff1673ffffffffffffffffffffffffffffffffffffffff1663afbfd6443360016040518363ffffffff1660e01b8152600401808373ffffffffffffffffffffffffffffffffffffffff1673ffffffffffffffffffffffffffffffffffffffff16815260200182815260200192505050600060405180830381600087803b158015610f1157600080fd5b505af1158015610f25573d6000803e3d6000fd5b505050505050565b60006020528060005260406000206000915090505481565b5050565b6000806000803373ffffffffffffffffffffffffffffffffffffffff1673ffffffffffffffffffffffffffffffffffffffff168152602001908152602001600020544203600160003373ffffffffffffffffffffffffffffffffffffffff1673ffffffffffffffffffffffffffffffffffffffff16815260200190815260200160002054915091509091565b600080828401905083811015611053576040517f08c379a000000000000000000000000000000000000000000000000000000000815260040180806020018281038252601b8152602001807f536166654d6174683a206164646974696f6e206f766572666c6f77000000000081525060200191505060405180910390fd5b8091505092915050565b600061109f83836040518060400160405280601e81526020017f536166654d6174683a207375627472616374696f6e206f766572666c6f7700008152506110a7565b905092915050565b6000838311158290611154576040517f08c379a00000000000000000000000000000000000000000000000000000000081526004018080602001828103825283818151815260200191508051906020019080838360005b838110156111195780820151818401526020810190506110fe565b50505050905090810190601f1680156111465780820380516001836020036101000a031916815260200191505b509250505060405180910390fd5b506000838503905080915050939250505056fea265627a7a72315820177d89e022ac3b9493301640bbf6d08f588d556a640fc4a82c1a1f238fb7cf9864736f6c63430005100032",
  "source": "pragma solidity >=0.4.21 <0.7.0;\n\nimport \"./SafeMath.sol\";\nimport \"./BuildingFactory.sol\";\nimport \"./Soldier.sol\";\nimport \"./Spy.sol\";\nimport \"./Cannon.sol\";\nimport \"./Protector.sol\";\nimport \"./Wall.sol\";\n\ncontract Barrack {\n\n    using SafeMath for uint;\n\n    mapping (address => uint) public ownerStartMarchTime;\n    mapping (address => uint) public ownerTotalMarchTime;\n\n    BuildingFactory buildingInstance;\n    Soldier soldierInstance;\n    Protector ProtectorInstance;\n    Cannon CannonInstance;\n    Spy SpyInstance;\n    Account AccountInstance;\n    Wall WallInstance;\n    constructor(address _building_address, address _soldier_address, address _spy_instance, address _cannon_instance, address _protector_instance, address _wall_instance, address _account_instance) public {\n        buildingInstance = BuildingFactory(_building_address);\n        soldierInstance = Soldier(_soldier_address);\n        SpyInstance = Spy(_spy_instance);\n        ProtectorInstance = Protector(_protector_instance);\n        CannonInstance = Cannon(_cannon_instance);\n        AccountInstance = Account(_account_instance);\n        WallInstance = Wall(_wall_instance);\n    }\n\n    function createBarrack(uint _x, uint _y) public {\n        buildingInstance._createBuilding(msg.sender, \"Barrack\", _x, _y);\n        soldierInstance.setSoldierLevel(msg.sender, 1);\n        SpyInstance.setSpyLevel(msg.sender, 1);\n        ProtectorInstance.setProtectorLevel(msg.sender, 1);\n        CannonInstance.setCannonLevel(msg.sender, 1);\n        WallInstance.setWallLevel(msg.sender, 1);\n    }\n\n\n    // // return 0 if failed (maybe already creating or not enough resource) otherwise return createtime\n    \n    function attack(uint _ownerId, uint _attackedCastleId) public {\n        // soldierInstance.attack(_ownerId, _attackedCastleId);\n    }\n\n    function startMarch(uint _attackedCastleId) public returns(uint) {\n        address _owner = msg.sender;\n        address attackedAddress = AccountInstance.castleToOwner(_attackedCastleId);\n\n        \n        if(ownerStartMarchTime[_owner] != 0) return uint(0); // check if there is already Marching\n        bool enoughResource;\n        enoughResource = enoughResource = AccountInstance.cost(_owner, 100, uint(0), 100, uint(0), 100);\n        if(enoughResource == false) return uint(0);\n        ownerStartMarchTime[_owner] = uint(now);\n        ownerTotalMarchTime[_owner] = 10;\n        AccountInstance.setAttackedInfo(attackedAddress, true, _owner, ownerStartMarchTime[_owner], ownerTotalMarchTime[_owner]);\n        return ownerTotalMarchTime[_owner];\n    }\n\n    function getMarchTime() public view returns(uint, uint) {\n        return ( now - ownerStartMarchTime[msg.sender], ownerTotalMarchTime[msg.sender] ) ;\n    }\n\n    // // return 0 if success else return remaining time\n    function updateMarch(address _owner) public returns(uint) {\n        if (ownerStartMarchTime[_owner] == 0) return 0;\n        if (now >= ownerStartMarchTime[_owner].add(ownerTotalMarchTime[_owner])) {\n            // uint num;\n            // num = ownerTotalMarchTime[_owner].div(  MarchInstance.levelOfMarch(_owner).mul(MarchInstance.createMarchTime()) );\n            // MarchInstance.setNumOfMarch(_owner, MarchInstance.numOfMarch(_owner) + (num));\n            ownerStartMarchTime[_owner] = 0;\n            ownerTotalMarchTime[_owner] = 0;\n            return 0;\n        }\n        else {\n            uint remainingTime = (ownerStartMarchTime[_owner] + ownerTotalMarchTime[_owner]).sub(now);\n            return remainingTime;\n        }\n    }\n\n    function sendSpy(uint _ownerId, uint _attackedCastleId) public view returns(bool) {\n        //returns TRUE if spy of myCastle > attackedCastle\n        \n        return SpyInstance.sendSpy(_ownerId, _attackedCastleId);\n    }\n\n}",
  "sourcePath": "/Users/cyl/Desktop/網多/NMlab_Final/contracts/Barrack.sol",
  "compiler": {
    "name": "solc",
    "version": "0.5.16+commit.9c3226ce.Emscripten.clang"
  },
  "schemaVersion": "3.4.1",
  "updatedAt": "2021-06-22T16:53:26.604Z",
  "networkType": "ethereum",
  "devdoc": {
    "methods": {}
  },
  "userdoc": {
    "methods": {}
  }
}