{
  "contractName": "BuildingFactory",
  "abi": [
    {
      "inputs": [
        {
          "internalType": "address",
          "name": "_account_address",
          "type": "address"
        }
      ],
      "payable": false,
      "stateMutability": "nonpayable",
      "type": "constructor"
    },
    {
      "constant": true,
      "inputs": [
        {
          "internalType": "uint256",
          "name": "",
          "type": "uint256"
        }
      ],
      "name": "buildingToOwner",
      "outputs": [
        {
          "internalType": "address",
          "name": "",
          "type": "address"
        }
      ],
      "payable": false,
      "stateMutability": "view",
      "type": "function"
    },
    {
      "constant": true,
      "inputs": [
        {
          "internalType": "uint256",
          "name": "",
          "type": "uint256"
        }
      ],
      "name": "buildings",
      "outputs": [
        {
          "internalType": "string",
          "name": "name",
          "type": "string"
        },
        {
          "internalType": "uint256",
          "name": "placeX",
          "type": "uint256"
        },
        {
          "internalType": "uint256",
          "name": "placeY",
          "type": "uint256"
        },
        {
          "internalType": "uint256",
          "name": "level",
          "type": "uint256"
        }
      ],
      "payable": false,
      "stateMutability": "view",
      "type": "function"
    },
    {
      "constant": false,
      "inputs": [
        {
          "internalType": "address",
          "name": "_owner",
          "type": "address"
        },
        {
          "internalType": "uint256",
          "name": "_x",
          "type": "uint256"
        },
        {
          "internalType": "uint256",
          "name": "_y",
          "type": "uint256"
        }
      ],
      "name": "startBuild",
      "outputs": [
        {
          "internalType": "uint256",
          "name": "",
          "type": "uint256"
        }
      ],
      "payable": false,
      "stateMutability": "nonpayable",
      "type": "function"
    },
    {
      "constant": true,
      "inputs": [
        {
          "internalType": "address",
          "name": "_owner",
          "type": "address"
        }
      ],
      "name": "getRemainingTime",
      "outputs": [
        {
          "internalType": "uint256",
          "name": "",
          "type": "uint256"
        }
      ],
      "payable": false,
      "stateMutability": "view",
      "type": "function"
    },
    {
      "constant": true,
      "inputs": [
        {
          "internalType": "address",
          "name": "_owner",
          "type": "address"
        }
      ],
      "name": "getUpgradingId",
      "outputs": [
        {
          "internalType": "uint256",
          "name": "",
          "type": "uint256"
        }
      ],
      "payable": false,
      "stateMutability": "view",
      "type": "function"
    },
    {
      "constant": false,
      "inputs": [
        {
          "internalType": "address",
          "name": "_owner",
          "type": "address"
        }
      ],
      "name": "updateBuild",
      "outputs": [
        {
          "internalType": "uint256",
          "name": "",
          "type": "uint256"
        }
      ],
      "payable": false,
      "stateMutability": "nonpayable",
      "type": "function"
    },
    {
      "constant": true,
      "inputs": [
        {
          "internalType": "uint256",
          "name": "idx",
          "type": "uint256"
        }
      ],
      "name": "getBuildingById",
      "outputs": [
        {
          "internalType": "bool",
          "name": "",
          "type": "bool"
        },
        {
          "internalType": "string",
          "name": "",
          "type": "string"
        },
        {
          "internalType": "uint256",
          "name": "",
          "type": "uint256"
        }
      ],
      "payable": false,
      "stateMutability": "view",
      "type": "function"
    },
    {
      "constant": true,
      "inputs": [],
      "name": "getBuildingsLen",
      "outputs": [
        {
          "internalType": "uint256",
          "name": "",
          "type": "uint256"
        }
      ],
      "payable": false,
      "stateMutability": "view",
      "type": "function"
    },
    {
      "constant": true,
      "inputs": [
        {
          "internalType": "address",
          "name": "_owner",
          "type": "address"
        },
        {
          "internalType": "uint256",
          "name": "_placeX",
          "type": "uint256"
        },
        {
          "internalType": "uint256",
          "name": "_placeY",
          "type": "uint256"
        }
      ],
      "name": "getBuildingByOwner",
      "outputs": [
        {
          "internalType": "uint256",
          "name": "",
          "type": "uint256"
        },
        {
          "internalType": "string",
          "name": "",
          "type": "string"
        }
      ],
      "payable": false,
      "stateMutability": "view",
      "type": "function"
    },
    {
      "constant": true,
      "inputs": [
        {
          "internalType": "address",
          "name": "_owner",
          "type": "address"
        }
      ],
      "name": "getBuildingsByOwner",
      "outputs": [
        {
          "internalType": "uint256[]",
          "name": "",
          "type": "uint256[]"
        }
      ],
      "payable": false,
      "stateMutability": "view",
      "type": "function"
    },
    {
      "constant": true,
      "inputs": [
        {
          "internalType": "address",
          "name": "_owner",
          "type": "address"
        },
        {
          "internalType": "string",
          "name": "_name",
          "type": "string"
        }
      ],
      "name": "getSpecificBuildingByOwner",
      "outputs": [
        {
          "internalType": "uint256[]",
          "name": "",
          "type": "uint256[]"
        }
      ],
      "payable": false,
      "stateMutability": "view",
      "type": "function"
    }
  ],
  "bytecode": "0x6080604052600a600155606460035534801561001a57600080fd5b50604051611c8d380380611c8d8339818101604052602081101561003d57600080fd5b8101908080519060200190929190505050806000806101000a81548173ffffffffffffffffffffffffffffffffffffffff021916908373ffffffffffffffffffffffffffffffffffffffff16021790555050611bef8061009e6000396000f3fe608060405234801561001057600080fd5b50600436106100a95760003560e01c80635607420911610071578063560742091461041957806382a4182814610471578063842a89fa1461050a578063aba19ece146105e2578063ad1c89cc1461064e578063db2ace2a1461066c576100a9565b80630e85117a146100ae5780630f130a39146101065780632c79c523146101bf5780634c96a062146102ef5780635192b291146103ab575b600080fd5b6100f0600480360360208110156100c457600080fd5b81019080803573ffffffffffffffffffffffffffffffffffffffff1690602001909291905050506106c4565b6040518082815260200191505060405180910390f35b6101326004803603602081101561011c57600080fd5b8101908080359060200190929190505050610840565b604051808415151515815260200180602001838152602001828103825284818151815260200191508051906020019080838360005b83811015610182578082015181840152602081019050610167565b50505050905090810190601f1680156101af5780820380516001836020036101000a031916815260200191505b5094505050505060405180910390f35b610298600480360360408110156101d557600080fd5b81019080803573ffffffffffffffffffffffffffffffffffffffff1690602001909291908035906020019064010000000081111561021257600080fd5b82018360208201111561022457600080fd5b8035906020019184600183028401116401000000008311171561024657600080fd5b91908080601f016020809104026020016040519081016040528093929190818152602001838380828437600081840152601f19601f820116905080830192505050505050509192919290505050610983565b6040518080602001828103825283818151815260200191508051906020019060200280838360005b838110156102db5780820151818401526020810190506102c0565b505050509050019250505060405180910390f35b61031b6004803603602081101561030557600080fd5b8101908080359060200190929190505050610fb1565b6040518080602001858152602001848152602001838152602001828103825286818151815260200191508051906020019080838360005b8381101561036d578082015181840152602081019050610352565b50505050905090810190601f16801561039a5780820380516001836020036101000a031916815260200191505b509550505050505060405180910390f35b6103d7600480360360208110156103c157600080fd5b8101908080359060200190929190505050611086565b604051808273ffffffffffffffffffffffffffffffffffffffff1673ffffffffffffffffffffffffffffffffffffffff16815260200191505060405180910390f35b61045b6004803603602081101561042f57600080fd5b81019080803573ffffffffffffffffffffffffffffffffffffffff1690602001909291905050506110b9565b6040518082815260200191505060405180910390f35b6104b36004803603602081101561048757600080fd5b81019080803573ffffffffffffffffffffffffffffffffffffffff169060200190929190505050611313565b6040518080602001828103825283818151815260200191508051906020019060200280838360005b838110156104f65780820151818401526020810190506104db565b505050509050019250505060405180910390f35b6105606004803603606081101561052057600080fd5b81019080803573ffffffffffffffffffffffffffffffffffffffff16906020019092919080359060200190929190803590602001909291905050506115d4565b6040518083815260200180602001828103825283818151815260200191508051906020019080838360005b838110156105a657808201518184015260208101905061058b565b50505050905090810190601f1680156105d35780820380516001836020036101000a031916815260200191505b50935050505060405180910390f35b610638600480360360608110156105f857600080fd5b81019080803573ffffffffffffffffffffffffffffffffffffffff16906020019092919080359060200190929190803590602001909291905050506117bd565b6040518082815260200191505060405180910390f35b610656611adc565b6040518082815260200191505060405180910390f35b6106ae6004803603602081101561068257600080fd5b81019080803573ffffffffffffffffffffffffffffffffffffffff169060200190929190505050611ae9565b6040518082815260200191505060405180910390f35b600080600660008473ffffffffffffffffffffffffffffffffffffffff1673ffffffffffffffffffffffffffffffffffffffff1681526020019081526020016000205490506000600560008573ffffffffffffffffffffffffffffffffffffffff1673ffffffffffffffffffffffffffffffffffffffff16815260200190815260200160002054141580156107bc57506001546002828154811061076457fe5b90600052602060002090600402016003015402600560008573ffffffffffffffffffffffffffffffffffffffff1673ffffffffffffffffffffffffffffffffffffffff16815260200190815260200160002054014210155b156107cb57600091505061083b565b600042600154600284815481106107de57fe5b90600052602060002090600402016003015402600560008773ffffffffffffffffffffffffffffffffffffffff1673ffffffffffffffffffffffffffffffffffffffff168152602001908152602001600020540103905080925050505b919050565b600060606000600280549050841061089a576000806040518060400160405280601381526020017f696e76616c6964206275696c64696e67206964000000000000000000000000008152509080905092509250925061097c565b6001600285815481106108a957fe5b9060005260206000209060040201600001600286815481106108c757fe5b906000526020600020906004020160030154818054600181600116156101000203166002900480601f01602080910402602001604051908101604052809291908181526020018280546001816001161561010002031660029004801561096e5780601f106109435761010080835404028352916020019161096e565b820191906000526020600020905b81548152906001019060200180831161095157829003601f168201915b505050505091509250925092505b9193909250565b606060008090506040518060400160405280600481526020017f4661726d000000000000000000000000000000000000000000000000000000008152508051906020012083805190602001201415610a1c57600860008573ffffffffffffffffffffffffffffffffffffffff1673ffffffffffffffffffffffffffffffffffffffff168152602001908152602001600020549050610e1d565b6040518060400160405280600481526020017f4d696e65000000000000000000000000000000000000000000000000000000008152508051906020012083805190602001201415610aae57600960008573ffffffffffffffffffffffffffffffffffffffff1673ffffffffffffffffffffffffffffffffffffffff168152602001908152602001600020549050610e1c565b6040518060400160405280600581526020017f4d616e6f720000000000000000000000000000000000000000000000000000008152508051906020012083805190602001201415610b4057600a60008573ffffffffffffffffffffffffffffffffffffffff1673ffffffffffffffffffffffffffffffffffffffff168152602001908152602001600020549050610e1b565b6040518060400160405280600681526020017f51756172727900000000000000000000000000000000000000000000000000008152508051906020012083805190602001201415610bd257600b60008573ffffffffffffffffffffffffffffffffffffffff1673ffffffffffffffffffffffffffffffffffffffff168152602001908152602001600020549050610e1a565b6040518060400160405280600781526020017f5361776d696c6c000000000000000000000000000000000000000000000000008152508051906020012083805190602001201415610c6457600c60008573ffffffffffffffffffffffffffffffffffffffff1673ffffffffffffffffffffffffffffffffffffffff168152602001908152602001600020549050610e19565b6040518060400160405280600681526020017f43656c6c617200000000000000000000000000000000000000000000000000008152508051906020012083805190602001201415610cf657600d60008573ffffffffffffffffffffffffffffffffffffffff1673ffffffffffffffffffffffffffffffffffffffff168152602001908152602001600020549050610e18565b6040518060400160405280600781526020017f4261727261636b000000000000000000000000000000000000000000000000008152508051906020012083805190602001201415610d8857600e60008573ffffffffffffffffffffffffffffffffffffffff1673ffffffffffffffffffffffffffffffffffffffff168152602001908152602001600020549050610e17565b6040518060400160405280600a81526020017f4c61626f7261746f7279000000000000000000000000000000000000000000008152508051906020012083805190602001201415610e1657600f60008573ffffffffffffffffffffffffffffffffffffffff1673ffffffffffffffffffffffffffffffffffffffff1681526020019081526020016000205490505b5b5b5b5b5b5b5b606081604051908082528060200260200182016040528015610e4e5781602001602082028038833980820191505090505b509050600080905060008090505b600280549050811015610fa4578673ffffffffffffffffffffffffffffffffffffffff166004600083815260200190815260200160002060009054906101000a900473ffffffffffffffffffffffffffffffffffffffff1673ffffffffffffffffffffffffffffffffffffffff16148015610f625750858051906020012060028281548110610ee757fe5b90600052602060002090600402016000016040518082805460018160011615610100020316600290048015610f535780601f10610f31576101008083540402835291820191610f53565b820191906000526020600020905b815481529060010190602001808311610f3f575b50509150506040518091039020145b15610f975780838381518110610f7457fe5b602002602001018181525050610f94600183611b3290919063ffffffff16565b91505b8080600101915050610e5c565b5081935050505092915050565b60028181548110610fbe57fe5b9060005260206000209060040201600091509050806000018054600181600116156101000203166002900480601f01602080910402602001604051908101604052809291908181526020018280546001816001161561010002031660029004801561106a5780601f1061103f5761010080835404028352916020019161106a565b820191906000526020600020905b81548152906001019060200180831161104d57829003601f168201915b5050505050908060010154908060020154908060030154905084565b60046020528060005260406000206000915054906101000a900473ffffffffffffffffffffffffffffffffffffffff1681565b600080600660008473ffffffffffffffffffffffffffffffffffffffff1673ffffffffffffffffffffffffffffffffffffffff1681526020019081526020016000205490506000600560008573ffffffffffffffffffffffffffffffffffffffff1673ffffffffffffffffffffffffffffffffffffffff16815260200190815260200160002054141580156111b157506001546002828154811061115957fe5b90600052602060002090600402016003015402600560008573ffffffffffffffffffffffffffffffffffffffff1673ffffffffffffffffffffffffffffffffffffffff16815260200190815260200160002054014210155b1561129e576111e86001600283815481106111c857fe5b906000526020600020906004020160030154611b3290919063ffffffff16565b600282815481106111f557fe5b9060005260206000209060040201600301819055506000600560008573ffffffffffffffffffffffffffffffffffffffff1673ffffffffffffffffffffffffffffffffffffffff168152602001908152602001600020819055506000600660008573ffffffffffffffffffffffffffffffffffffffff1673ffffffffffffffffffffffffffffffffffffffff16815260200190815260200160002081905550600091505061130e565b600042600154600284815481106112b157fe5b90600052602060002090600402016003015402600560008773ffffffffffffffffffffffffffffffffffffffff1673ffffffffffffffffffffffffffffffffffffffff168152602001908152602001600020540103905080925050505b919050565b606080600e60008473ffffffffffffffffffffffffffffffffffffffff1673ffffffffffffffffffffffffffffffffffffffff16815260200190815260200160002054600d60008573ffffffffffffffffffffffffffffffffffffffff1673ffffffffffffffffffffffffffffffffffffffff16815260200190815260200160002054600c60008673ffffffffffffffffffffffffffffffffffffffff1673ffffffffffffffffffffffffffffffffffffffff16815260200190815260200160002054600b60008773ffffffffffffffffffffffffffffffffffffffff1673ffffffffffffffffffffffffffffffffffffffff16815260200190815260200160002054600a60008873ffffffffffffffffffffffffffffffffffffffff1673ffffffffffffffffffffffffffffffffffffffff16815260200190815260200160002054600960008973ffffffffffffffffffffffffffffffffffffffff1673ffffffffffffffffffffffffffffffffffffffff16815260200190815260200160002054600860008a73ffffffffffffffffffffffffffffffffffffffff1673ffffffffffffffffffffffffffffffffffffffff1681526020019081526020016000205401010101010160405190808252806020026020018201604052801561150a5781602001602082028038833980820191505090505b509050600080905060008090505b6002805490508110156115c9578473ffffffffffffffffffffffffffffffffffffffff166004600083815260200190815260200160002060009054906101000a900473ffffffffffffffffffffffffffffffffffffffff1673ffffffffffffffffffffffffffffffffffffffff1614156115bc578083838151811061159957fe5b6020026020010181815250506115b9600183611b3290919063ffffffff16565b91505b8080600101915050611518565b508192505050919050565b6000606060008090505b600280549050811015611774578573ffffffffffffffffffffffffffffffffffffffff166004600083815260200190815260200160002060009054906101000a900473ffffffffffffffffffffffffffffffffffffffff1673ffffffffffffffffffffffffffffffffffffffff16141561176757846002828154811061166057fe5b90600052602060002090600402016001015414801561169c5750836002828154811061168857fe5b906000526020600020906004020160020154145b156117665780600282815481106116af57fe5b9060005260206000209060040201600001808054600181600116156101000203166002900480601f0160208091040260200160405190810160405280929190818152602001828054600181600116156101000203166002900480156117555780601f1061172a57610100808354040283529160200191611755565b820191906000526020600020905b81548152906001019060200180831161173857829003601f168201915b5050505050905092509250506117b5565b5b80806001019150506115de565b60008090506040518060400160405280600481526020017f4e6f6e650000000000000000000000000000000000000000000000000000000081525092509250505b935093915050565b6000806117cb8585856115d4565b508091505060008114156117e3576000915050611ad5565b6040518060400160405280600681526020017f436173746c650000000000000000000000000000000000000000000000000000815250805190602001206002828154811061182d57fe5b906000526020600020906004020160000160405180828054600181600116156101000203166002900480156118995780601f10611877576101008083540402835291820191611899565b820191906000526020600020905b815481529060010190602001808311611885575b5050915050604051809103902050506000600560008773ffffffffffffffffffffffffffffffffffffffff1673ffffffffffffffffffffffffffffffffffffffff16815260200190815260200160002054146118f9576000915050611ad5565b80600660008773ffffffffffffffffffffffffffffffffffffffff1673ffffffffffffffffffffffffffffffffffffffff1681526020019081526020016000208190555042600560008773ffffffffffffffffffffffffffffffffffffffff1673ffffffffffffffffffffffffffffffffffffffff1681526020019081526020016000208190555060006003546002838154811061199357fe5b9060005260206000209060040201600301540290506000809054906101000a900473ffffffffffffffffffffffffffffffffffffffff1673ffffffffffffffffffffffffffffffffffffffff16631e9ac0bf876000848586876040518763ffffffff1660e01b8152600401808773ffffffffffffffffffffffffffffffffffffffff1673ffffffffffffffffffffffffffffffffffffffff1681526020018681526020018581526020018481526020018381526020018281526020019650505050505050602060405180830381600087803b158015611a7157600080fd5b505af1158015611a85573d6000803e3d6000fd5b505050506040513d6020811015611a9b57600080fd5b81019080805190602001909291905050505060015460028381548110611abd57fe5b90600052602060002090600402016003015402925050505b9392505050565b6000600280549050905090565b6000600660008373ffffffffffffffffffffffffffffffffffffffff1673ffffffffffffffffffffffffffffffffffffffff168152602001908152602001600020549050919050565b600080828401905083811015611bb0576040517f08c379a000000000000000000000000000000000000000000000000000000000815260040180806020018281038252601b8152602001807f536166654d6174683a206164646974696f6e206f766572666c6f77000000000081525060200191505060405180910390fd5b809150509291505056fea265627a7a72315820f91b4c3f601fcf211d046cc84e89d5c357da36b43a1dcb61fc8cb46fb8e9180964736f6c63430005100032",
  "source": "pragma solidity >=0.4.21 <0.7.0;\n\nimport \"./SafeMath.sol\";\nimport \"./Account.sol\";\n\ncontract BuildingFactory {\n    \n    using SafeMath for uint;\n\n    Account accountInstance;\n    constructor(address _account_address) public {\n        accountInstance = Account(_account_address);\n    }\n    \n    struct Building {\n        string name;\n        uint placeX;\n        uint placeY;\n        uint level;\n    }\n\n    uint buildTimeNeed = 10;\n    Building[] public buildings;\n    uint buildResourceNeed = 100;\n\n    mapping (uint => address) public buildingToOwner;\n    mapping (address => uint) ownerStartBuildTime;\n    mapping (address => uint) ownerBuildingId; //the building that is building\n    mapping (address => uint) castleLevel;\n\n    mapping (address => uint) ownerFarmCount;\n    mapping (address => uint) ownerMineCount;\n    mapping (address => uint) ownerManorCount;\n    mapping (address => uint) ownerQuarryCount;\n    mapping (address => uint) ownerSawmillCount;\n    mapping (address => uint) ownerCellarCount;\n    mapping (address => uint) ownerBarrackCount;\n    mapping (address => uint) ownerLaboratoryCount;\n\n\n    function _createBuilding(address _creator, string memory _name, uint _x, uint _y) internal returns(uint){\n        if(buildings.length == 0) {\n            buildings.push(Building(\"first_building!\", 0, 0, 1000));\n            buildingToOwner[0] = address(0);\n        }\n        uint id = buildings.push(Building(_name, _x, _y, 1)).sub(1);\n        accountInstance.cost(_creator, 0, buildResourceNeed, buildResourceNeed, buildResourceNeed, buildResourceNeed);\n        buildingToOwner[id] = _creator;\n        if (keccak256(bytes(_name)) == keccak256(bytes(\"Farm\"))) {\n            ownerFarmCount[_creator] = ownerFarmCount[_creator].add(1);\n        }\n        else if (keccak256(bytes(_name)) == keccak256(bytes(\"Mine\"))) {\n            ownerMineCount[_creator] = ownerMineCount[_creator].add(1);\n        }\n        else if (keccak256(bytes(_name)) == keccak256(bytes(\"Manor\"))) {\n            ownerManorCount[_creator] = ownerManorCount[_creator].add(1);\n        }\n        else if (keccak256(bytes(_name)) == keccak256(bytes(\"Quarry\"))) {\n            ownerQuarryCount[_creator] = ownerQuarryCount[_creator].add(1);\n        }\n        else if (keccak256(bytes(_name)) == keccak256(bytes(\"Sawmill\"))) {\n            ownerSawmillCount[_creator] = ownerSawmillCount[_creator].add(1);\n        }\n        else if (keccak256(bytes(_name)) == keccak256(bytes(\"Cellar\"))) {\n            ownerCellarCount[_creator] = ownerCellarCount[_creator].add(1);\n        }\n        else if (keccak256(bytes(_name)) == keccak256(bytes(\"Barrack\"))) {\n            ownerBarrackCount[_creator] = ownerBarrackCount[_creator].add(1);\n        }\n        else if (keccak256(bytes(_name)) == keccak256(bytes(\"Laboratory\"))) {\n            ownerLaboratoryCount[_creator] = ownerLaboratoryCount[_creator].add(1);\n        }\n        return id;\n    }\n\n    function startBuild(address _owner, uint _x, uint _y) public returns(uint){\n        uint buildingID;\n        (buildingID,) = getBuildingByOwner(_owner, _x, _y);\n        if(buildingID == 0) return 0;\n        if (keccak256(bytes(buildings[buildingID].name)) != keccak256(bytes(\"Castle\"))) {\n            // require(castleLevel[_owner] >= buildings[buildingID].level.add(1));\n        }\n        if(ownerStartBuildTime[_owner] != 0)  return 0;\n        ownerBuildingId[_owner] = buildingID;\n        ownerStartBuildTime[_owner] = now;\n        uint buildingResourceNeed = buildings[buildingID].level * buildResourceNeed;\n        accountInstance.cost(_owner, 0, buildingResourceNeed, buildingResourceNeed, buildingResourceNeed, buildingResourceNeed);\n        return buildings[buildingID].level * buildTimeNeed;\n    }\n\n    function getRemainingTime(address _owner) public view returns(uint) {\n        uint buildingID = ownerBuildingId[_owner];\n        if (ownerStartBuildTime[_owner] != 0 && now >= ownerStartBuildTime[_owner] + buildings[buildingID].level * buildTimeNeed) {\n            return 0;\n        }\n        else {\n            uint remainingTime = ownerStartBuildTime[_owner] + buildings[buildingID].level * buildTimeNeed - now;\n            return remainingTime;\n        }\n    }\n\n    function getUpgradingId(address _owner) public view returns(uint) {\n        return ownerBuildingId[_owner];\n    }\n    \n    function updateBuild(address _owner) public returns(uint){\n        uint buildingID = ownerBuildingId[_owner];\n        if (ownerStartBuildTime[_owner] != 0 && now >= ownerStartBuildTime[_owner] + buildings[buildingID].level * buildTimeNeed) {\n            buildings[buildingID].level = buildings[buildingID].level.add(1);\n            ownerStartBuildTime[_owner] = 0;\n            ownerBuildingId[_owner] = 0;\n            return 0;\n        }\n        else {\n            uint remainingTime = ownerStartBuildTime[_owner] + buildings[buildingID].level * buildTimeNeed - now;\n            return remainingTime;\n        }\n    }\n\n    function getBuildingById(uint idx) public view returns(bool, string memory, uint) {\n        if(idx >= buildings.length) {\n            return (false, \"invalid building id\", 0);\n        }\n        else {\n            return (true, buildings[idx].name, buildings[idx].level);\n        }\n    }\n\n    function getBuildingsLen() public view returns(uint) {\n        return buildings.length;\n    }\n\n    function getBuildingByOwner(address _owner, uint _placeX, uint _placeY) public view returns(uint, string memory) {\n        uint i = 0;\n        for (i; i < buildings.length; i++) {\n            if (buildingToOwner[i] == _owner) {\n                if (buildings[i].placeX == _placeX && buildings[i].placeY == _placeY) {\n                    return (i, buildings[i].name);\n                }\n            }\n        }\n        return (0, \"None\");\n    }\n\n    function getBuildingsByOwner(address _owner) public view returns(uint[] memory) {\n        uint[] memory result = new uint[](ownerFarmCount[_owner] + ownerMineCount[_owner] + ownerManorCount[_owner] + ownerQuarryCount[_owner] + ownerSawmillCount[_owner] + ownerCellarCount[_owner] + ownerBarrackCount[_owner]);\n        uint counter = 0;\n        for (uint i = 0; i < buildings.length; i++) {\n            if (buildingToOwner[i] == _owner) {\n                result[counter] = i;\n                counter = counter.add(1);\n            }\n        }\n        return result;\n    }\n\n    function getSpecificBuildingByOwner(address _owner, string memory _name) public view returns(uint[] memory) {\n        uint buildingsLength = 0;\n        if (keccak256(bytes(_name)) == keccak256(bytes(\"Farm\"))) {\n           buildingsLength = ownerFarmCount[_owner];\n        }\n        else if (keccak256(bytes(_name)) == keccak256(bytes(\"Mine\"))) {\n            buildingsLength = ownerMineCount[_owner];\n        }\n        else if (keccak256(bytes(_name)) == keccak256(bytes(\"Manor\"))) {\n            buildingsLength = ownerManorCount[_owner];\n        }\n        else if (keccak256(bytes(_name)) == keccak256(bytes(\"Quarry\"))) {\n            buildingsLength = ownerQuarryCount[_owner];\n        }\n        else if (keccak256(bytes(_name)) == keccak256(bytes(\"Sawmill\"))) {\n            buildingsLength = ownerSawmillCount[_owner];\n        }\n        else if (keccak256(bytes(_name)) == keccak256(bytes(\"Cellar\"))) {\n            buildingsLength = ownerCellarCount[_owner];\n        }\n        else if (keccak256(bytes(_name)) == keccak256(bytes(\"Barrack\"))) {\n            buildingsLength = ownerBarrackCount[_owner];\n        }\n        else if (keccak256(bytes(_name)) == keccak256(bytes(\"Laboratory\"))) {\n            buildingsLength = ownerLaboratoryCount[_owner];\n        }\n        uint[] memory result = new uint[](buildingsLength);\n        // result.push(0);\n        uint counter = 0;\n        for (uint i = 0; i < buildings.length; i++) {\n            if (buildingToOwner[i] == _owner && keccak256(bytes(buildings[i].name)) == keccak256(bytes(_name))) {\n                result[counter] = i;\n                counter = counter.add(1);\n            }\n        }\n        return result;\n    }\n    \n}",
  "sourcePath": "/Users/cyl/Desktop//NMlab_Final/contracts/BuildingFactory.sol",
  "compiler": {
    "name": "solc",
    "version": "0.5.16+commit.9c3226ce.Emscripten.clang"
  },
  "schemaVersion": "3.4.1",
  "updatedAt": "2021-06-01T14:18:46.484Z",
  "devdoc": {
    "methods": {}
  },
  "userdoc": {
    "methods": {}
  }
}