{
  "contractName": "BuildingFactory",
  "abi": [
    {
      "inputs": [
        {
          "internalType": "address",
          "name": "_account_address",
          "type": "address"
        }
      ],
      "payable": false,
      "stateMutability": "nonpayable",
      "type": "constructor"
    },
    {
      "constant": true,
      "inputs": [
        {
          "internalType": "uint256",
          "name": "",
          "type": "uint256"
        }
      ],
      "name": "buildingToOwner",
      "outputs": [
        {
          "internalType": "address",
          "name": "",
          "type": "address"
        }
      ],
      "payable": false,
      "stateMutability": "view",
      "type": "function"
    },
    {
      "constant": true,
      "inputs": [
        {
          "internalType": "uint256",
          "name": "",
          "type": "uint256"
        }
      ],
      "name": "buildings",
      "outputs": [
        {
          "internalType": "string",
          "name": "name",
          "type": "string"
        },
        {
          "internalType": "uint256",
          "name": "placeX",
          "type": "uint256"
        },
        {
          "internalType": "uint256",
          "name": "placeY",
          "type": "uint256"
        },
        {
          "internalType": "uint256",
          "name": "level",
          "type": "uint256"
        }
      ],
      "payable": false,
      "stateMutability": "view",
      "type": "function"
    },
    {
      "constant": false,
      "inputs": [
        {
          "internalType": "address",
          "name": "_owner",
          "type": "address"
        },
        {
          "internalType": "uint256",
          "name": "_x",
          "type": "uint256"
        },
        {
          "internalType": "uint256",
          "name": "_y",
          "type": "uint256"
        }
      ],
      "name": "startBuild",
      "outputs": [
        {
          "internalType": "uint256",
          "name": "",
          "type": "uint256"
        }
      ],
      "payable": false,
      "stateMutability": "nonpayable",
      "type": "function"
    },
    {
      "constant": true,
      "inputs": [
        {
          "internalType": "address",
          "name": "_owner",
          "type": "address"
        }
      ],
      "name": "getRemainingTime",
      "outputs": [
        {
          "internalType": "uint256",
          "name": "",
          "type": "uint256"
        }
      ],
      "payable": false,
      "stateMutability": "view",
      "type": "function"
    },
    {
      "constant": true,
      "inputs": [
        {
          "internalType": "address",
          "name": "_owner",
          "type": "address"
        }
      ],
      "name": "getUpgradingId",
      "outputs": [
        {
          "internalType": "uint256",
          "name": "",
          "type": "uint256"
        }
      ],
      "payable": false,
      "stateMutability": "view",
      "type": "function"
    },
    {
      "constant": false,
      "inputs": [
        {
          "internalType": "address",
          "name": "_owner",
          "type": "address"
        }
      ],
      "name": "updateBuild",
      "outputs": [
        {
          "internalType": "uint256",
          "name": "",
          "type": "uint256"
        }
      ],
      "payable": false,
      "stateMutability": "nonpayable",
      "type": "function"
    },
    {
      "constant": true,
      "inputs": [
        {
          "internalType": "uint256",
          "name": "idx",
          "type": "uint256"
        }
      ],
      "name": "getBuildingById",
      "outputs": [
        {
          "internalType": "bool",
          "name": "",
          "type": "bool"
        },
        {
          "internalType": "string",
          "name": "",
          "type": "string"
        },
        {
          "internalType": "uint256",
          "name": "",
          "type": "uint256"
        }
      ],
      "payable": false,
      "stateMutability": "view",
      "type": "function"
    },
    {
      "constant": true,
      "inputs": [],
      "name": "getBuildingsLen",
      "outputs": [
        {
          "internalType": "uint256",
          "name": "",
          "type": "uint256"
        }
      ],
      "payable": false,
      "stateMutability": "view",
      "type": "function"
    },
    {
      "constant": true,
      "inputs": [
        {
          "internalType": "address",
          "name": "_owner",
          "type": "address"
        },
        {
          "internalType": "uint256",
          "name": "_placeX",
          "type": "uint256"
        },
        {
          "internalType": "uint256",
          "name": "_placeY",
          "type": "uint256"
        }
      ],
      "name": "getBuildingByOwner",
      "outputs": [
        {
          "internalType": "uint256",
          "name": "",
          "type": "uint256"
        },
        {
          "internalType": "string",
          "name": "",
          "type": "string"
        }
      ],
      "payable": false,
      "stateMutability": "view",
      "type": "function"
    },
    {
      "constant": true,
      "inputs": [
        {
          "internalType": "address",
          "name": "_owner",
          "type": "address"
        }
      ],
      "name": "getBuildingsByOwner",
      "outputs": [
        {
          "internalType": "uint256[]",
          "name": "",
          "type": "uint256[]"
        }
      ],
      "payable": false,
      "stateMutability": "view",
      "type": "function"
    },
    {
      "constant": true,
      "inputs": [
        {
          "internalType": "address",
          "name": "_owner",
          "type": "address"
        },
        {
          "internalType": "string",
          "name": "_name",
          "type": "string"
        }
      ],
      "name": "getSpecificBuildingByOwner",
      "outputs": [
        {
          "internalType": "uint256[]",
          "name": "",
          "type": "uint256[]"
        }
      ],
      "payable": false,
      "stateMutability": "view",
      "type": "function"
    },
    {
      "constant": false,
      "inputs": [
        {
          "internalType": "uint256",
          "name": "_x",
          "type": "uint256"
        },
        {
          "internalType": "uint256",
          "name": "_y",
          "type": "uint256"
        }
      ],
      "name": "createCastle",
      "outputs": [],
      "payable": false,
      "stateMutability": "nonpayable",
      "type": "function"
    }
  ],
  "bytecode": "0x6080604052600a600155606460035534801561001a57600080fd5b50604051612a2b380380612a2b8339818101604052602081101561003d57600080fd5b8101908080519060200190929190505050806000806101000a81548173ffffffffffffffffffffffffffffffffffffffff021916908373ffffffffffffffffffffffffffffffffffffffff1602179055505061298d8061009e6000396000f3fe608060405234801561001057600080fd5b50600436106100b45760003560e01c806382a418281161007157806382a418281461047c578063842a89fa14610515578063aba19ece146105ed578063ad1c89cc14610659578063d1405a4e14610677578063db2ace2a146106af576100b4565b80630e85117a146100b95780630f130a39146101115780632c79c523146101ca5780634c96a062146102fa5780635192b291146103b65780635607420914610424575b600080fd5b6100fb600480360360208110156100cf57600080fd5b81019080803573ffffffffffffffffffffffffffffffffffffffff169060200190929190505050610707565b6040518082815260200191505060405180910390f35b61013d6004803603602081101561012757600080fd5b8101908080359060200190929190505050610883565b604051808415151515815260200180602001838152602001828103825284818151815260200191508051906020019080838360005b8381101561018d578082015181840152602081019050610172565b50505050905090810190601f1680156101ba5780820380516001836020036101000a031916815260200191505b5094505050505060405180910390f35b6102a3600480360360408110156101e057600080fd5b81019080803573ffffffffffffffffffffffffffffffffffffffff1690602001909291908035906020019064010000000081111561021d57600080fd5b82018360208201111561022f57600080fd5b8035906020019184600183028401116401000000008311171561025157600080fd5b91908080601f016020809104026020016040519081016040528093929190818152602001838380828437600081840152601f19601f8201169050808301925050505050505091929192905050506109c6565b6040518080602001828103825283818151815260200191508051906020019060200280838360005b838110156102e65780820151818401526020810190506102cb565b505050509050019250505060405180910390f35b6103266004803603602081101561031057600080fd5b8101908080359060200190929190505050610ff4565b6040518080602001858152602001848152602001838152602001828103825286818151815260200191508051906020019080838360005b8381101561037857808201518184015260208101905061035d565b50505050905090810190601f1680156103a55780820380516001836020036101000a031916815260200191505b509550505050505060405180910390f35b6103e2600480360360208110156103cc57600080fd5b81019080803590602001909291905050506110c9565b604051808273ffffffffffffffffffffffffffffffffffffffff1673ffffffffffffffffffffffffffffffffffffffff16815260200191505060405180910390f35b6104666004803603602081101561043a57600080fd5b81019080803573ffffffffffffffffffffffffffffffffffffffff1690602001909291905050506110fc565b6040518082815260200191505060405180910390f35b6104be6004803603602081101561049257600080fd5b81019080803573ffffffffffffffffffffffffffffffffffffffff169060200190929190505050611356565b6040518080602001828103825283818151815260200191508051906020019060200280838360005b838110156105015780820151818401526020810190506104e6565b505050509050019250505060405180910390f35b61056b6004803603606081101561052b57600080fd5b81019080803573ffffffffffffffffffffffffffffffffffffffff1690602001909291908035906020019092919080359060200190929190505050611617565b6040518083815260200180602001828103825283818151815260200191508051906020019080838360005b838110156105b1578082015181840152602081019050610596565b50505050905090810190601f1680156105de5780820380516001836020036101000a031916815260200191505b50935050505060405180910390f35b6106436004803603606081101561060357600080fd5b81019080803573ffffffffffffffffffffffffffffffffffffffff1690602001909291908035906020019092919080359060200190929190505050611800565b6040518082815260200191505060405180910390f35b610661611b1f565b6040518082815260200191505060405180910390f35b6106ad6004803603604081101561068d57600080fd5b810190808035906020019092919080359060200190929190505050611b2c565b005b6106f1600480360360208110156106c557600080fd5b81019080803573ffffffffffffffffffffffffffffffffffffffff169060200190929190505050611c6f565b6040518082815260200191505060405180910390f35b600080600660008473ffffffffffffffffffffffffffffffffffffffff1673ffffffffffffffffffffffffffffffffffffffff1681526020019081526020016000205490506000600560008573ffffffffffffffffffffffffffffffffffffffff1673ffffffffffffffffffffffffffffffffffffffff16815260200190815260200160002054141580156107ff5750600154600282815481106107a757fe5b90600052602060002090600402016003015402600560008573ffffffffffffffffffffffffffffffffffffffff1673ffffffffffffffffffffffffffffffffffffffff16815260200190815260200160002054014210155b1561080e57600091505061087e565b6000426001546002848154811061082157fe5b90600052602060002090600402016003015402600560008773ffffffffffffffffffffffffffffffffffffffff1673ffffffffffffffffffffffffffffffffffffffff168152602001908152602001600020540103905080925050505b919050565b60006060600060028054905084106108dd576000806040518060400160405280601381526020017f696e76616c6964206275696c64696e6720696400000000000000000000000000815250908090509250925092506109bf565b6001600285815481106108ec57fe5b90600052602060002090600402016000016002868154811061090a57fe5b906000526020600020906004020160030154818054600181600116156101000203166002900480601f0160208091040260200160405190810160405280929190818152602001828054600181600116156101000203166002900480156109b15780601f10610986576101008083540402835291602001916109b1565b820191906000526020600020905b81548152906001019060200180831161099457829003601f168201915b505050505091509250925092505b9193909250565b606060008090506040518060400160405280600481526020017f4661726d000000000000000000000000000000000000000000000000000000008152508051906020012083805190602001201415610a5f57600860008573ffffffffffffffffffffffffffffffffffffffff1673ffffffffffffffffffffffffffffffffffffffff168152602001908152602001600020549050610e60565b6040518060400160405280600481526020017f4d696e65000000000000000000000000000000000000000000000000000000008152508051906020012083805190602001201415610af157600960008573ffffffffffffffffffffffffffffffffffffffff1673ffffffffffffffffffffffffffffffffffffffff168152602001908152602001600020549050610e5f565b6040518060400160405280600581526020017f4d616e6f720000000000000000000000000000000000000000000000000000008152508051906020012083805190602001201415610b8357600a60008573ffffffffffffffffffffffffffffffffffffffff1673ffffffffffffffffffffffffffffffffffffffff168152602001908152602001600020549050610e5e565b6040518060400160405280600681526020017f51756172727900000000000000000000000000000000000000000000000000008152508051906020012083805190602001201415610c1557600b60008573ffffffffffffffffffffffffffffffffffffffff1673ffffffffffffffffffffffffffffffffffffffff168152602001908152602001600020549050610e5d565b6040518060400160405280600781526020017f5361776d696c6c000000000000000000000000000000000000000000000000008152508051906020012083805190602001201415610ca757600c60008573ffffffffffffffffffffffffffffffffffffffff1673ffffffffffffffffffffffffffffffffffffffff168152602001908152602001600020549050610e5c565b6040518060400160405280600681526020017f43656c6c617200000000000000000000000000000000000000000000000000008152508051906020012083805190602001201415610d3957600d60008573ffffffffffffffffffffffffffffffffffffffff1673ffffffffffffffffffffffffffffffffffffffff168152602001908152602001600020549050610e5b565b6040518060400160405280600781526020017f4261727261636b000000000000000000000000000000000000000000000000008152508051906020012083805190602001201415610dcb57600e60008573ffffffffffffffffffffffffffffffffffffffff1673ffffffffffffffffffffffffffffffffffffffff168152602001908152602001600020549050610e5a565b6040518060400160405280600a81526020017f4c61626f7261746f7279000000000000000000000000000000000000000000008152508051906020012083805190602001201415610e5957600f60008573ffffffffffffffffffffffffffffffffffffffff1673ffffffffffffffffffffffffffffffffffffffff1681526020019081526020016000205490505b5b5b5b5b5b5b5b606081604051908082528060200260200182016040528015610e915781602001602082028038833980820191505090505b509050600080905060008090505b600280549050811015610fe7578673ffffffffffffffffffffffffffffffffffffffff166004600083815260200190815260200160002060009054906101000a900473ffffffffffffffffffffffffffffffffffffffff1673ffffffffffffffffffffffffffffffffffffffff16148015610fa55750858051906020012060028281548110610f2a57fe5b90600052602060002090600402016000016040518082805460018160011615610100020316600290048015610f965780601f10610f74576101008083540402835291820191610f96565b820191906000526020600020905b815481529060010190602001808311610f82575b50509150506040518091039020145b15610fda5780838381518110610fb757fe5b602002602001018181525050610fd7600183611cb890919063ffffffff16565b91505b8080600101915050610e9f565b5081935050505092915050565b6002818154811061100157fe5b9060005260206000209060040201600091509050806000018054600181600116156101000203166002900480601f0160208091040260200160405190810160405280929190818152602001828054600181600116156101000203166002900480156110ad5780601f10611082576101008083540402835291602001916110ad565b820191906000526020600020905b81548152906001019060200180831161109057829003601f168201915b5050505050908060010154908060020154908060030154905084565b60046020528060005260406000206000915054906101000a900473ffffffffffffffffffffffffffffffffffffffff1681565b600080600660008473ffffffffffffffffffffffffffffffffffffffff1673ffffffffffffffffffffffffffffffffffffffff1681526020019081526020016000205490506000600560008573ffffffffffffffffffffffffffffffffffffffff1673ffffffffffffffffffffffffffffffffffffffff16815260200190815260200160002054141580156111f457506001546002828154811061119c57fe5b90600052602060002090600402016003015402600560008573ffffffffffffffffffffffffffffffffffffffff1673ffffffffffffffffffffffffffffffffffffffff16815260200190815260200160002054014210155b156112e15761122b60016002838154811061120b57fe5b906000526020600020906004020160030154611cb890919063ffffffff16565b6002828154811061123857fe5b9060005260206000209060040201600301819055506000600560008573ffffffffffffffffffffffffffffffffffffffff1673ffffffffffffffffffffffffffffffffffffffff168152602001908152602001600020819055506000600660008573ffffffffffffffffffffffffffffffffffffffff1673ffffffffffffffffffffffffffffffffffffffff168152602001908152602001600020819055506000915050611351565b600042600154600284815481106112f457fe5b90600052602060002090600402016003015402600560008773ffffffffffffffffffffffffffffffffffffffff1673ffffffffffffffffffffffffffffffffffffffff168152602001908152602001600020540103905080925050505b919050565b606080600e60008473ffffffffffffffffffffffffffffffffffffffff1673ffffffffffffffffffffffffffffffffffffffff16815260200190815260200160002054600d60008573ffffffffffffffffffffffffffffffffffffffff1673ffffffffffffffffffffffffffffffffffffffff16815260200190815260200160002054600c60008673ffffffffffffffffffffffffffffffffffffffff1673ffffffffffffffffffffffffffffffffffffffff16815260200190815260200160002054600b60008773ffffffffffffffffffffffffffffffffffffffff1673ffffffffffffffffffffffffffffffffffffffff16815260200190815260200160002054600a60008873ffffffffffffffffffffffffffffffffffffffff1673ffffffffffffffffffffffffffffffffffffffff16815260200190815260200160002054600960008973ffffffffffffffffffffffffffffffffffffffff1673ffffffffffffffffffffffffffffffffffffffff16815260200190815260200160002054600860008a73ffffffffffffffffffffffffffffffffffffffff1673ffffffffffffffffffffffffffffffffffffffff1681526020019081526020016000205401010101010160405190808252806020026020018201604052801561154d5781602001602082028038833980820191505090505b509050600080905060008090505b60028054905081101561160c578473ffffffffffffffffffffffffffffffffffffffff166004600083815260200190815260200160002060009054906101000a900473ffffffffffffffffffffffffffffffffffffffff1673ffffffffffffffffffffffffffffffffffffffff1614156115ff57808383815181106115dc57fe5b6020026020010181815250506115fc600183611cb890919063ffffffff16565b91505b808060010191505061155b565b508192505050919050565b6000606060008090505b6002805490508110156117b7578573ffffffffffffffffffffffffffffffffffffffff166004600083815260200190815260200160002060009054906101000a900473ffffffffffffffffffffffffffffffffffffffff1673ffffffffffffffffffffffffffffffffffffffff1614156117aa5784600282815481106116a357fe5b9060005260206000209060040201600101541480156116df575083600282815481106116cb57fe5b906000526020600020906004020160020154145b156117a95780600282815481106116f257fe5b9060005260206000209060040201600001808054600181600116156101000203166002900480601f0160208091040260200160405190810160405280929190818152602001828054600181600116156101000203166002900480156117985780601f1061176d57610100808354040283529160200191611798565b820191906000526020600020905b81548152906001019060200180831161177b57829003601f168201915b5050505050905092509250506117f8565b5b8080600101915050611621565b60008090506040518060400160405280600481526020017f4e6f6e650000000000000000000000000000000000000000000000000000000081525092509250505b935093915050565b60008061180e858585611617565b50809150506000811415611826576000915050611b18565b6040518060400160405280600681526020017f436173746c650000000000000000000000000000000000000000000000000000815250805190602001206002828154811061187057fe5b906000526020600020906004020160000160405180828054600181600116156101000203166002900480156118dc5780601f106118ba5761010080835404028352918201916118dc565b820191906000526020600020905b8154815290600101906020018083116118c8575b5050915050604051809103902050506000600560008773ffffffffffffffffffffffffffffffffffffffff1673ffffffffffffffffffffffffffffffffffffffff168152602001908152602001600020541461193c576000915050611b18565b80600660008773ffffffffffffffffffffffffffffffffffffffff1673ffffffffffffffffffffffffffffffffffffffff1681526020019081526020016000208190555042600560008773ffffffffffffffffffffffffffffffffffffffff1673ffffffffffffffffffffffffffffffffffffffff168152602001908152602001600020819055506000600354600283815481106119d657fe5b9060005260206000209060040201600301540290506000809054906101000a900473ffffffffffffffffffffffffffffffffffffffff1673ffffffffffffffffffffffffffffffffffffffff16631e9ac0bf876000848586876040518763ffffffff1660e01b8152600401808773ffffffffffffffffffffffffffffffffffffffff1673ffffffffffffffffffffffffffffffffffffffff1681526020018681526020018581526020018481526020018381526020018281526020019650505050505050602060405180830381600087803b158015611ab457600080fd5b505af1158015611ac8573d6000803e3d6000fd5b505050506040513d6020811015611ade57600080fd5b81019080805190602001909291905050505060015460028381548110611b0057fe5b90600052602060002090600402016003015402925050505b9392505050565b6000600280549050905090565b611b6d336040518060400160405280600681526020017f436173746c6500000000000000000000000000000000000000000000000000008152508484611d40565b506000809054906101000a900473ffffffffffffffffffffffffffffffffffffffff1673ffffffffffffffffffffffffffffffffffffffff1663f064b42b336040518263ffffffff1660e01b8152600401808273ffffffffffffffffffffffffffffffffffffffff1673ffffffffffffffffffffffffffffffffffffffff168152602001915050600060405180830381600087803b158015611c0e57600080fd5b505af1158015611c22573d6000803e3d6000fd5b505050506001600760003373ffffffffffffffffffffffffffffffffffffffff1673ffffffffffffffffffffffffffffffffffffffff168152602001908152602001600020819055505050565b6000600660008373ffffffffffffffffffffffffffffffffffffffff1673ffffffffffffffffffffffffffffffffffffffff168152602001908152602001600020549050919050565b600080828401905083811015611d36576040517f08c379a000000000000000000000000000000000000000000000000000000000815260040180806020018281038252601b8152602001807f536166654d6174683a206164646974696f6e206f766572666c6f77000000000081525060200191505060405180910390fd5b8091505092915050565b6000806002805490501415611e6857600260405180608001604052806040518060400160405280600f81526020017f66697273745f6275696c64696e67210000000000000000000000000000000000815250815260200160008152602001600081526020016103e8815250908060018154018082558091505090600182039060005260206000209060040201600090919290919091506000820151816000019080519060200190611df29291906128b3565b5060208201518160010155604082015181600201556060820151816003015550505060006004600080815260200190815260200160002060006101000a81548173ffffffffffffffffffffffffffffffffffffffff021916908373ffffffffffffffffffffffffffffffffffffffff1602179055505b6000611f096001600260405180608001604052808981526020018881526020018781526020016001815250908060018154018082558091505090600182039060005260206000209060040201600090919290919091506000820151816000019080519060200190611eda9291906128b3565b5060208201518160010155604082015181600201556060820151816003015550506127a990919063ffffffff16565b90506000809054906101000a900473ffffffffffffffffffffffffffffffffffffffff1673ffffffffffffffffffffffffffffffffffffffff16631e9ac0bf8760006003546003546003546003546040518763ffffffff1660e01b8152600401808773ffffffffffffffffffffffffffffffffffffffff1673ffffffffffffffffffffffffffffffffffffffff1681526020018681526020018581526020018481526020018381526020018281526020019650505050505050602060405180830381600087803b158015611fdc57600080fd5b505af1158015611ff0573d6000803e3d6000fd5b505050506040513d602081101561200657600080fd5b810190808051906020019092919050505050856004600083815260200190815260200160002060006101000a81548173ffffffffffffffffffffffffffffffffffffffff021916908373ffffffffffffffffffffffffffffffffffffffff1602179055506040518060400160405280600481526020017f4661726d000000000000000000000000000000000000000000000000000000008152508051906020012085805190602001201415612150576121086001600860008973ffffffffffffffffffffffffffffffffffffffff1673ffffffffffffffffffffffffffffffffffffffff16815260200190815260200160002054611cb890919063ffffffff16565b600860008873ffffffffffffffffffffffffffffffffffffffff1673ffffffffffffffffffffffffffffffffffffffff1681526020019081526020016000208190555061279d565b6040518060400160405280600481526020017f4d696e65000000000000000000000000000000000000000000000000000000008152508051906020012085805190602001201415612236576121ee6001600960008973ffffffffffffffffffffffffffffffffffffffff1673ffffffffffffffffffffffffffffffffffffffff16815260200190815260200160002054611cb890919063ffffffff16565b600960008873ffffffffffffffffffffffffffffffffffffffff1673ffffffffffffffffffffffffffffffffffffffff1681526020019081526020016000208190555061279c565b6040518060400160405280600581526020017f4d616e6f72000000000000000000000000000000000000000000000000000000815250805190602001208580519060200120141561231c576122d46001600a60008973ffffffffffffffffffffffffffffffffffffffff1673ffffffffffffffffffffffffffffffffffffffff16815260200190815260200160002054611cb890919063ffffffff16565b600a60008873ffffffffffffffffffffffffffffffffffffffff1673ffffffffffffffffffffffffffffffffffffffff1681526020019081526020016000208190555061279b565b6040518060400160405280600681526020017f51756172727900000000000000000000000000000000000000000000000000008152508051906020012085805190602001201415612402576123ba6001600b60008973ffffffffffffffffffffffffffffffffffffffff1673ffffffffffffffffffffffffffffffffffffffff16815260200190815260200160002054611cb890919063ffffffff16565b600b60008873ffffffffffffffffffffffffffffffffffffffff1673ffffffffffffffffffffffffffffffffffffffff1681526020019081526020016000208190555061279a565b6040518060400160405280600781526020017f5361776d696c6c0000000000000000000000000000000000000000000000000081525080519060200120858051906020012014156124e8576124a06001600c60008973ffffffffffffffffffffffffffffffffffffffff1673ffffffffffffffffffffffffffffffffffffffff16815260200190815260200160002054611cb890919063ffffffff16565b600c60008873ffffffffffffffffffffffffffffffffffffffff1673ffffffffffffffffffffffffffffffffffffffff16815260200190815260200160002081905550612799565b6040518060400160405280600681526020017f43656c6c6172000000000000000000000000000000000000000000000000000081525080519060200120858051906020012014156125ce576125866001600d60008973ffffffffffffffffffffffffffffffffffffffff1673ffffffffffffffffffffffffffffffffffffffff16815260200190815260200160002054611cb890919063ffffffff16565b600d60008873ffffffffffffffffffffffffffffffffffffffff1673ffffffffffffffffffffffffffffffffffffffff16815260200190815260200160002081905550612798565b6040518060400160405280600781526020017f4261727261636b0000000000000000000000000000000000000000000000000081525080519060200120858051906020012014156126b45761266c6001600e60008973ffffffffffffffffffffffffffffffffffffffff1673ffffffffffffffffffffffffffffffffffffffff16815260200190815260200160002054611cb890919063ffffffff16565b600e60008873ffffffffffffffffffffffffffffffffffffffff1673ffffffffffffffffffffffffffffffffffffffff16815260200190815260200160002081905550612797565b6040518060400160405280600a81526020017f4c61626f7261746f7279000000000000000000000000000000000000000000008152508051906020012085805190602001201415612796576127526001600f60008973ffffffffffffffffffffffffffffffffffffffff1673ffffffffffffffffffffffffffffffffffffffff16815260200190815260200160002054611cb890919063ffffffff16565b600f60008873ffffffffffffffffffffffffffffffffffffffff1673ffffffffffffffffffffffffffffffffffffffff168152602001908152602001600020819055505b5b5b5b5b5b5b5b80915050949350505050565b60006127eb83836040518060400160405280601e81526020017f536166654d6174683a207375627472616374696f6e206f766572666c6f7700008152506127f3565b905092915050565b60008383111582906128a0576040517f08c379a00000000000000000000000000000000000000000000000000000000081526004018080602001828103825283818151815260200191508051906020019080838360005b8381101561286557808201518184015260208101905061284a565b50505050905090810190601f1680156128925780820380516001836020036101000a031916815260200191505b509250505060405180910390fd5b5060008385039050809150509392505050565b828054600181600116156101000203166002900490600052602060002090601f016020900481019282601f106128f457805160ff1916838001178555612922565b82800160010185558215612922579182015b82811115612921578251825591602001919060010190612906565b5b50905061292f9190612933565b5090565b61295591905b80821115612951576000816000905550600101612939565b5090565b9056fea265627a7a72315820745e020e2c5d99a221410289db612598d0abf3a2aaf23256d7514f44ab92760b64736f6c63430005100032",
  "source": "pragma solidity >=0.4.21 <0.7.0;\n\nimport \"./SafeMath.sol\";\nimport \"./Account.sol\";\n\ncontract BuildingFactory {\n    \n    using SafeMath for uint;\n\n    Account accountInstance;\n    constructor(address _account_address) public {\n        accountInstance = Account(_account_address);\n    }\n    \n    struct Building {\n        string name;\n        uint placeX;\n        uint placeY;\n        uint level;\n    }\n\n    uint buildTimeNeed = 10;\n    Building[] public buildings;\n    uint buildResourceNeed = 100;\n\n    mapping (uint => address) public buildingToOwner;\n    mapping (address => uint) ownerStartBuildTime;\n    mapping (address => uint) ownerBuildingId; //the building that is building\n    mapping (address => uint) castleLevel;\n\n    mapping (address => uint) ownerFarmCount;\n    mapping (address => uint) ownerMineCount;\n    mapping (address => uint) ownerManorCount;\n    mapping (address => uint) ownerQuarryCount;\n    mapping (address => uint) ownerSawmillCount;\n    mapping (address => uint) ownerCellarCount;\n    mapping (address => uint) ownerBarrackCount;\n    mapping (address => uint) ownerLaboratoryCount;\n\n\n    function _createBuilding(address _creator, string memory _name, uint _x, uint _y) internal returns(uint){\n        if(buildings.length == 0) {\n            buildings.push(Building(\"first_building!\", 0, 0, 1000));\n            buildingToOwner[0] = address(0);\n        }\n        uint id = buildings.push(Building(_name, _x, _y, 1)).sub(1);\n        accountInstance.cost(_creator, 0, buildResourceNeed, buildResourceNeed, buildResourceNeed, buildResourceNeed);\n        buildingToOwner[id] = _creator;\n        if (keccak256(bytes(_name)) == keccak256(bytes(\"Farm\"))) {\n            ownerFarmCount[_creator] = ownerFarmCount[_creator].add(1);\n        }\n        else if (keccak256(bytes(_name)) == keccak256(bytes(\"Mine\"))) {\n            ownerMineCount[_creator] = ownerMineCount[_creator].add(1);\n        }\n        else if (keccak256(bytes(_name)) == keccak256(bytes(\"Manor\"))) {\n            ownerManorCount[_creator] = ownerManorCount[_creator].add(1);\n        }\n        else if (keccak256(bytes(_name)) == keccak256(bytes(\"Quarry\"))) {\n            ownerQuarryCount[_creator] = ownerQuarryCount[_creator].add(1);\n        }\n        else if (keccak256(bytes(_name)) == keccak256(bytes(\"Sawmill\"))) {\n            ownerSawmillCount[_creator] = ownerSawmillCount[_creator].add(1);\n        }\n        else if (keccak256(bytes(_name)) == keccak256(bytes(\"Cellar\"))) {\n            ownerCellarCount[_creator] = ownerCellarCount[_creator].add(1);\n        }\n        else if (keccak256(bytes(_name)) == keccak256(bytes(\"Barrack\"))) {\n            ownerBarrackCount[_creator] = ownerBarrackCount[_creator].add(1);\n        }\n        else if (keccak256(bytes(_name)) == keccak256(bytes(\"Laboratory\"))) {\n            ownerLaboratoryCount[_creator] = ownerLaboratoryCount[_creator].add(1);\n        }\n        return id;\n    }\n\n    function startBuild(address _owner, uint _x, uint _y) public returns(uint){\n        uint buildingID;\n        (buildingID,) = getBuildingByOwner(_owner, _x, _y);\n        if(buildingID == 0) return 0;\n        if (keccak256(bytes(buildings[buildingID].name)) != keccak256(bytes(\"Castle\"))) {\n            // require(castleLevel[_owner] >= buildings[buildingID].level.add(1));\n        }\n        if(ownerStartBuildTime[_owner] != 0)  return 0;\n        ownerBuildingId[_owner] = buildingID;\n        ownerStartBuildTime[_owner] = now;\n        uint buildingResourceNeed = buildings[buildingID].level * buildResourceNeed;\n        accountInstance.cost(_owner, 0, buildingResourceNeed, buildingResourceNeed, buildingResourceNeed, buildingResourceNeed);\n        return buildings[buildingID].level * buildTimeNeed;\n    }\n\n    function getRemainingTime(address _owner) public view returns(uint) {\n        uint buildingID = ownerBuildingId[_owner];\n        if (ownerStartBuildTime[_owner] != 0 && now >= ownerStartBuildTime[_owner] + buildings[buildingID].level * buildTimeNeed) {\n            return 0;\n        }\n        else {\n            uint remainingTime = ownerStartBuildTime[_owner] + buildings[buildingID].level * buildTimeNeed - now;\n            return remainingTime;\n        }\n    }\n\n    function getUpgradingId(address _owner) public view returns(uint) {\n        return ownerBuildingId[_owner];\n    }\n    \n    function updateBuild(address _owner) public returns(uint){\n        uint buildingID = ownerBuildingId[_owner];\n        if (ownerStartBuildTime[_owner] != 0 && now >= ownerStartBuildTime[_owner] + buildings[buildingID].level * buildTimeNeed) {\n            buildings[buildingID].level = buildings[buildingID].level.add(1);\n            ownerStartBuildTime[_owner] = 0;\n            ownerBuildingId[_owner] = 0;\n            return 0;\n        }\n        else {\n            uint remainingTime = ownerStartBuildTime[_owner] + buildings[buildingID].level * buildTimeNeed - now;\n            return remainingTime;\n        }\n    }\n\n    function getBuildingById(uint idx) public view returns(bool, string memory, uint) {\n        if(idx >= buildings.length) {\n            return (false, \"invalid building id\", 0);\n        }\n        else {\n            return (true, buildings[idx].name, buildings[idx].level);\n        }\n    }\n\n    function getBuildingsLen() public view returns(uint) {\n        return buildings.length;\n    }\n\n    function getBuildingByOwner(address _owner, uint _placeX, uint _placeY) public view returns(uint, string memory) {\n        uint i = 0;\n        for (i; i < buildings.length; i++) {\n            if (buildingToOwner[i] == _owner) {\n                if (buildings[i].placeX == _placeX && buildings[i].placeY == _placeY) {\n                    return (i, buildings[i].name);\n                }\n            }\n        }\n        return (0, \"None\");\n    }\n\n    function getBuildingsByOwner(address _owner) public view returns(uint[] memory) {\n        uint[] memory result = new uint[](ownerFarmCount[_owner] + ownerMineCount[_owner] + ownerManorCount[_owner] + ownerQuarryCount[_owner] + ownerSawmillCount[_owner] + ownerCellarCount[_owner] + ownerBarrackCount[_owner]);\n        uint counter = 0;\n        for (uint i = 0; i < buildings.length; i++) {\n            if (buildingToOwner[i] == _owner) {\n                result[counter] = i;\n                counter = counter.add(1);\n            }\n        }\n        return result;\n    }\n\n    function getSpecificBuildingByOwner(address _owner, string memory _name) public view returns(uint[] memory) {\n        uint buildingsLength = 0;\n        if (keccak256(bytes(_name)) == keccak256(bytes(\"Farm\"))) {\n           buildingsLength = ownerFarmCount[_owner];\n        }\n        else if (keccak256(bytes(_name)) == keccak256(bytes(\"Mine\"))) {\n            buildingsLength = ownerMineCount[_owner];\n        }\n        else if (keccak256(bytes(_name)) == keccak256(bytes(\"Manor\"))) {\n            buildingsLength = ownerManorCount[_owner];\n        }\n        else if (keccak256(bytes(_name)) == keccak256(bytes(\"Quarry\"))) {\n            buildingsLength = ownerQuarryCount[_owner];\n        }\n        else if (keccak256(bytes(_name)) == keccak256(bytes(\"Sawmill\"))) {\n            buildingsLength = ownerSawmillCount[_owner];\n        }\n        else if (keccak256(bytes(_name)) == keccak256(bytes(\"Cellar\"))) {\n            buildingsLength = ownerCellarCount[_owner];\n        }\n        else if (keccak256(bytes(_name)) == keccak256(bytes(\"Barrack\"))) {\n            buildingsLength = ownerBarrackCount[_owner];\n        }\n        else if (keccak256(bytes(_name)) == keccak256(bytes(\"Laboratory\"))) {\n            buildingsLength = ownerLaboratoryCount[_owner];\n        }\n        uint[] memory result = new uint[](buildingsLength);\n        // result.push(0);\n        uint counter = 0;\n        for (uint i = 0; i < buildings.length; i++) {\n            if (buildingToOwner[i] == _owner && keccak256(bytes(buildings[i].name)) == keccak256(bytes(_name))) {\n                result[counter] = i;\n                counter = counter.add(1);\n            }\n        }\n        return result;\n    }\n\n    function createCastle(uint _x, uint _y) public {\n        _createBuilding(msg.sender, \"Castle\", _x, _y);\n        accountInstance.initializeKingdom(msg.sender);\n        castleLevel[msg.sender] = 1;\n    }\n\n\n    modifier lessThanCastle(address _owner, uint _buildingID) {\n        require(buildings[_buildingID].level.add(1) <= castleLevel[_owner]);\n        _;\n    }\n    \n}",
  "sourcePath": "/Users/cyl/Desktop//NMlab_Final/contracts/BuildingFactory.sol",
  "compiler": {
    "name": "solc",
    "version": "0.5.16+commit.9c3226ce.Emscripten.clang"
  },
  "schemaVersion": "3.4.1",
  "updatedAt": "2021-06-02T03:18:36.594Z",
  "devdoc": {
    "methods": {}
  },
  "userdoc": {
    "methods": {}
  }
}