{
  "contractName": "BuildingFactory",
  "abi": [
    {
      "constant": true,
      "inputs": [
        {
          "internalType": "uint256",
          "name": "",
          "type": "uint256"
        }
      ],
      "name": "buildingToOwner",
      "outputs": [
        {
          "internalType": "address",
          "name": "",
          "type": "address"
        }
      ],
      "payable": false,
      "stateMutability": "view",
      "type": "function"
    },
    {
      "constant": true,
      "inputs": [
        {
          "internalType": "uint256",
          "name": "",
          "type": "uint256"
        }
      ],
      "name": "buildings",
      "outputs": [
        {
          "internalType": "string",
          "name": "name",
          "type": "string"
        },
        {
          "internalType": "uint256",
          "name": "placeX",
          "type": "uint256"
        },
        {
          "internalType": "uint256",
          "name": "placeY",
          "type": "uint256"
        },
        {
          "internalType": "uint256",
          "name": "level",
          "type": "uint256"
        }
      ],
      "payable": false,
      "stateMutability": "view",
      "type": "function"
    },
    {
      "constant": true,
      "inputs": [
        {
          "internalType": "uint256",
          "name": "",
          "type": "uint256"
        }
      ],
      "name": "castleToOwner",
      "outputs": [
        {
          "internalType": "address",
          "name": "",
          "type": "address"
        }
      ],
      "payable": false,
      "stateMutability": "view",
      "type": "function"
    },
    {
      "constant": true,
      "inputs": [],
      "name": "checkUserAddress",
      "outputs": [
        {
          "internalType": "bool",
          "name": "",
          "type": "bool"
        }
      ],
      "payable": false,
      "stateMutability": "view",
      "type": "function"
    },
    {
      "constant": true,
      "inputs": [
        {
          "internalType": "address",
          "name": "",
          "type": "address"
        }
      ],
      "name": "coinOwnerCount",
      "outputs": [
        {
          "internalType": "uint256",
          "name": "",
          "type": "uint256"
        }
      ],
      "payable": false,
      "stateMutability": "view",
      "type": "function"
    },
    {
      "constant": true,
      "inputs": [
        {
          "internalType": "address",
          "name": "",
          "type": "address"
        }
      ],
      "name": "foodOwnerCount",
      "outputs": [
        {
          "internalType": "uint256",
          "name": "",
          "type": "uint256"
        }
      ],
      "payable": false,
      "stateMutability": "view",
      "type": "function"
    },
    {
      "constant": true,
      "inputs": [],
      "name": "getCoinAmount",
      "outputs": [
        {
          "internalType": "uint256",
          "name": "",
          "type": "uint256"
        }
      ],
      "payable": false,
      "stateMutability": "view",
      "type": "function"
    },
    {
      "constant": true,
      "inputs": [],
      "name": "getFoodAmount",
      "outputs": [
        {
          "internalType": "uint256",
          "name": "",
          "type": "uint256"
        }
      ],
      "payable": false,
      "stateMutability": "view",
      "type": "function"
    },
    {
      "constant": true,
      "inputs": [],
      "name": "getIronAmount",
      "outputs": [
        {
          "internalType": "uint256",
          "name": "",
          "type": "uint256"
        }
      ],
      "payable": false,
      "stateMutability": "view",
      "type": "function"
    },
    {
      "constant": true,
      "inputs": [],
      "name": "getKingdomAmount",
      "outputs": [
        {
          "internalType": "uint256",
          "name": "",
          "type": "uint256"
        }
      ],
      "payable": false,
      "stateMutability": "view",
      "type": "function"
    },
    {
      "constant": true,
      "inputs": [],
      "name": "getMyIdx",
      "outputs": [
        {
          "internalType": "uint256",
          "name": "",
          "type": "uint256"
        }
      ],
      "payable": false,
      "stateMutability": "view",
      "type": "function"
    },
    {
      "constant": true,
      "inputs": [],
      "name": "getStoneAmount",
      "outputs": [
        {
          "internalType": "uint256",
          "name": "",
          "type": "uint256"
        }
      ],
      "payable": false,
      "stateMutability": "view",
      "type": "function"
    },
    {
      "constant": true,
      "inputs": [
        {
          "internalType": "uint256",
          "name": "idx",
          "type": "uint256"
        }
      ],
      "name": "getUserHealth",
      "outputs": [
        {
          "internalType": "uint256",
          "name": "",
          "type": "uint256"
        }
      ],
      "payable": false,
      "stateMutability": "view",
      "type": "function"
    },
    {
      "constant": true,
      "inputs": [
        {
          "internalType": "uint256",
          "name": "idx",
          "type": "uint256"
        }
      ],
      "name": "getUserPower",
      "outputs": [
        {
          "internalType": "uint256",
          "name": "",
          "type": "uint256"
        }
      ],
      "payable": false,
      "stateMutability": "view",
      "type": "function"
    },
    {
      "constant": true,
      "inputs": [
        {
          "internalType": "uint256",
          "name": "idx",
          "type": "uint256"
        }
      ],
      "name": "getUserSpyPower",
      "outputs": [
        {
          "internalType": "uint256",
          "name": "",
          "type": "uint256"
        }
      ],
      "payable": false,
      "stateMutability": "view",
      "type": "function"
    },
    {
      "constant": true,
      "inputs": [],
      "name": "getWoodAmount",
      "outputs": [
        {
          "internalType": "uint256",
          "name": "",
          "type": "uint256"
        }
      ],
      "payable": false,
      "stateMutability": "view",
      "type": "function"
    },
    {
      "constant": true,
      "inputs": [
        {
          "internalType": "address",
          "name": "",
          "type": "address"
        }
      ],
      "name": "health",
      "outputs": [
        {
          "internalType": "uint256",
          "name": "",
          "type": "uint256"
        }
      ],
      "payable": false,
      "stateMutability": "view",
      "type": "function"
    },
    {
      "constant": true,
      "inputs": [
        {
          "internalType": "address",
          "name": "",
          "type": "address"
        }
      ],
      "name": "ironOwnerCount",
      "outputs": [
        {
          "internalType": "uint256",
          "name": "",
          "type": "uint256"
        }
      ],
      "payable": false,
      "stateMutability": "view",
      "type": "function"
    },
    {
      "constant": true,
      "inputs": [],
      "name": "kingdomAmount",
      "outputs": [
        {
          "internalType": "uint256",
          "name": "",
          "type": "uint256"
        }
      ],
      "payable": false,
      "stateMutability": "view",
      "type": "function"
    },
    {
      "constant": true,
      "inputs": [
        {
          "internalType": "address",
          "name": "",
          "type": "address"
        }
      ],
      "name": "ownerCastleCount",
      "outputs": [
        {
          "internalType": "uint256",
          "name": "",
          "type": "uint256"
        }
      ],
      "payable": false,
      "stateMutability": "view",
      "type": "function"
    },
    {
      "constant": true,
      "inputs": [
        {
          "internalType": "address",
          "name": "",
          "type": "address"
        }
      ],
      "name": "power",
      "outputs": [
        {
          "internalType": "uint256",
          "name": "",
          "type": "uint256"
        }
      ],
      "payable": false,
      "stateMutability": "view",
      "type": "function"
    },
    {
      "constant": true,
      "inputs": [
        {
          "internalType": "address",
          "name": "",
          "type": "address"
        }
      ],
      "name": "spyPower",
      "outputs": [
        {
          "internalType": "uint256",
          "name": "",
          "type": "uint256"
        }
      ],
      "payable": false,
      "stateMutability": "view",
      "type": "function"
    },
    {
      "constant": true,
      "inputs": [
        {
          "internalType": "address",
          "name": "",
          "type": "address"
        }
      ],
      "name": "stoneOwnerCount",
      "outputs": [
        {
          "internalType": "uint256",
          "name": "",
          "type": "uint256"
        }
      ],
      "payable": false,
      "stateMutability": "view",
      "type": "function"
    },
    {
      "constant": true,
      "inputs": [
        {
          "internalType": "address",
          "name": "",
          "type": "address"
        }
      ],
      "name": "woodOwnerCount",
      "outputs": [
        {
          "internalType": "uint256",
          "name": "",
          "type": "uint256"
        }
      ],
      "payable": false,
      "stateMutability": "view",
      "type": "function"
    },
    {
      "constant": false,
      "inputs": [
        {
          "internalType": "address",
          "name": "_owner",
          "type": "address"
        },
        {
          "internalType": "uint256",
          "name": "_x",
          "type": "uint256"
        },
        {
          "internalType": "uint256",
          "name": "_y",
          "type": "uint256"
        }
      ],
      "name": "startBuild",
      "outputs": [
        {
          "internalType": "uint256",
          "name": "",
          "type": "uint256"
        }
      ],
      "payable": false,
      "stateMutability": "nonpayable",
      "type": "function"
    },
    {
      "constant": true,
      "inputs": [
        {
          "internalType": "address",
          "name": "_owner",
          "type": "address"
        }
      ],
      "name": "getRemainingTime",
      "outputs": [
        {
          "internalType": "uint256",
          "name": "",
          "type": "uint256"
        }
      ],
      "payable": false,
      "stateMutability": "view",
      "type": "function"
    },
    {
      "constant": true,
      "inputs": [
        {
          "internalType": "address",
          "name": "_owner",
          "type": "address"
        }
      ],
      "name": "getUpgradingId",
      "outputs": [
        {
          "internalType": "uint256",
          "name": "",
          "type": "uint256"
        }
      ],
      "payable": false,
      "stateMutability": "view",
      "type": "function"
    },
    {
      "constant": false,
      "inputs": [
        {
          "internalType": "address",
          "name": "_owner",
          "type": "address"
        }
      ],
      "name": "updateBuild",
      "outputs": [
        {
          "internalType": "uint256",
          "name": "",
          "type": "uint256"
        }
      ],
      "payable": false,
      "stateMutability": "nonpayable",
      "type": "function"
    },
    {
      "constant": true,
      "inputs": [
        {
          "internalType": "uint256",
          "name": "idx",
          "type": "uint256"
        }
      ],
      "name": "getBuildingById",
      "outputs": [
        {
          "internalType": "bool",
          "name": "",
          "type": "bool"
        },
        {
          "internalType": "string",
          "name": "",
          "type": "string"
        },
        {
          "internalType": "uint256",
          "name": "",
          "type": "uint256"
        }
      ],
      "payable": false,
      "stateMutability": "view",
      "type": "function"
    },
    {
      "constant": true,
      "inputs": [],
      "name": "getBuildingsLen",
      "outputs": [
        {
          "internalType": "uint256",
          "name": "",
          "type": "uint256"
        }
      ],
      "payable": false,
      "stateMutability": "view",
      "type": "function"
    },
    {
      "constant": true,
      "inputs": [
        {
          "internalType": "address",
          "name": "_owner",
          "type": "address"
        },
        {
          "internalType": "uint256",
          "name": "_placeX",
          "type": "uint256"
        },
        {
          "internalType": "uint256",
          "name": "_placeY",
          "type": "uint256"
        }
      ],
      "name": "getBuildingByOwner",
      "outputs": [
        {
          "internalType": "uint256",
          "name": "",
          "type": "uint256"
        },
        {
          "internalType": "string",
          "name": "",
          "type": "string"
        }
      ],
      "payable": false,
      "stateMutability": "view",
      "type": "function"
    },
    {
      "constant": true,
      "inputs": [
        {
          "internalType": "address",
          "name": "_owner",
          "type": "address"
        }
      ],
      "name": "getBuildingsByOwner",
      "outputs": [
        {
          "internalType": "uint256[]",
          "name": "",
          "type": "uint256[]"
        }
      ],
      "payable": false,
      "stateMutability": "view",
      "type": "function"
    },
    {
      "constant": true,
      "inputs": [
        {
          "internalType": "address",
          "name": "_owner",
          "type": "address"
        },
        {
          "internalType": "string",
          "name": "_name",
          "type": "string"
        }
      ],
      "name": "getSpecificBuildingByOwner",
      "outputs": [
        {
          "internalType": "uint256[]",
          "name": "",
          "type": "uint256[]"
        }
      ],
      "payable": false,
      "stateMutability": "view",
      "type": "function"
    }
  ],
  "bytecode": "0x60806040526010600b55600b54600a0a600c55600a600d556064600f5534801561002857600080fd5b50612c46806100386000396000f3fe608060405234801561001057600080fd5b50600436106101fb5760003560e01c806382a418281161011a578063ccf358a4116100ad578063e5b285f21161007c578063e5b285f214610be0578063e9933a4b14610c38578063ef78b6dc14610c90578063f4ab27f014610ce8578063fd8ccf2714610d56576101fb565b8063ccf358a414610aba578063db2ace2a14610ad8578063e2d8ebee14610b30578063e428afa014610b88576101fb565b80638919a9ca116100e95780638919a9ca146109cc578063aba19ece146109ee578063ad1c89cc14610a5a578063c8b4eeff14610a78576101fb565b806382a41828146107c1578063834af9b61461085a578063842a89fa1461089c578063867b84e214610974576101fb565b8063503371a511610192578063623e9ba611610161578063623e9ba61461070f578063789630be1461072d5780637e2b875b1461074b5780638226e53014610769576101fb565b8063503371a5146105d35780635192b2911461062b57806356074209146106995780635ad60993146106f1576101fb565b80632c79c523116101ce5780632c79c5231461034d578063323a46861461047d57806346125f84146104bf5780634c96a06214610517576101fb565b80630e85117a146102005780630f130a3914610258578063194c717b146103115780631c980beb1461032f575b600080fd5b6102426004803603602081101561021657600080fd5b81019080803573ffffffffffffffffffffffffffffffffffffffff169060200190929190505050610d74565b6040518082815260200191505060405180910390f35b6102846004803603602081101561026e57600080fd5b8101908080359060200190929190505050610ef0565b604051808415151515815260200180602001838152602001828103825284818151815260200191508051906020019080838360005b838110156102d45780820151818401526020810190506102b9565b50505050905090810190601f1680156103015780820380516001836020036101000a031916815260200191505b5094505050505060405180910390f35b610319611033565b6040518082815260200191505060405180910390f35b610337611039565b6040518082815260200191505060405180910390f35b6104266004803603604081101561036357600080fd5b81019080803573ffffffffffffffffffffffffffffffffffffffff169060200190929190803590602001906401000000008111156103a057600080fd5b8201836020820111156103b257600080fd5b803590602001918460018302840111640100000000831117156103d457600080fd5b91908080601f016020809104026020016040519081016040528093929190818152602001838380828437600081840152601f19601f82011690508083019250505050505050919291929050505061107f565b6040518080602001828103825283818151815260200191508051906020019060200280838360005b8381101561046957808201518184015260208101905061044e565b505050509050019250505060405180910390f35b6104a96004803603602081101561049357600080fd5b81019080803590602001909291905050506116ad565b6040518082815260200191505060405180910390f35b610501600480360360208110156104d557600080fd5b81019080803573ffffffffffffffffffffffffffffffffffffffff16906020019092919050505061173d565b6040518082815260200191505060405180910390f35b6105436004803603602081101561052d57600080fd5b8101908080359060200190929190505050611755565b6040518080602001858152602001848152602001838152602001828103825286818151815260200191508051906020019080838360005b8381101561059557808201518184015260208101905061057a565b50505050905090810190601f1680156105c25780820380516001836020036101000a031916815260200191505b509550505050505060405180910390f35b610615600480360360208110156105e957600080fd5b81019080803573ffffffffffffffffffffffffffffffffffffffff16906020019092919050505061182a565b6040518082815260200191505060405180910390f35b6106576004803603602081101561064157600080fd5b8101908080359060200190929190505050611842565b604051808273ffffffffffffffffffffffffffffffffffffffff1673ffffffffffffffffffffffffffffffffffffffff16815260200191505060405180910390f35b6106db600480360360208110156106af57600080fd5b81019080803573ffffffffffffffffffffffffffffffffffffffff169060200190929190505050611875565b6040518082815260200191505060405180910390f35b6106f9611acf565b6040518082815260200191505060405180910390f35b610717611b16565b6040518082815260200191505060405180910390f35b610735611b5d565b6040518082815260200191505060405180910390f35b610753611bf4565b6040518082815260200191505060405180910390f35b6107ab6004803603602081101561077f57600080fd5b81019080803573ffffffffffffffffffffffffffffffffffffffff169060200190929190505050611bfe565b6040518082815260200191505060405180910390f35b610803600480360360208110156107d757600080fd5b81019080803573ffffffffffffffffffffffffffffffffffffffff169060200190929190505050611c16565b6040518080602001828103825283818151815260200191508051906020019060200280838360005b8381101561084657808201518184015260208101905061082b565b505050509050019250505060405180910390f35b6108866004803603602081101561087057600080fd5b8101908080359060200190929190505050611ed7565b6040518082815260200191505060405180910390f35b6108f2600480360360608110156108b257600080fd5b81019080803573ffffffffffffffffffffffffffffffffffffffff1690602001909291908035906020019092919080359060200190929190505050611f67565b6040518083815260200180602001828103825283818151815260200191508051906020019080838360005b8381101561093857808201518184015260208101905061091d565b50505050905090810190601f1680156109655780820380516001836020036101000a031916815260200191505b50935050505060405180910390f35b6109b66004803603602081101561098a57600080fd5b81019080803573ffffffffffffffffffffffffffffffffffffffff169060200190929190505050612150565b6040518082815260200191505060405180910390f35b6109d4612168565b604051808215151515815260200191505060405180910390f35b610a4460048036036060811015610a0457600080fd5b81019080803573ffffffffffffffffffffffffffffffffffffffff16906020019092919080359060200190929190803590602001909291905050506121c2565b6040518082815260200191505060405180910390f35b610a626123ec565b6040518082815260200191505060405180910390f35b610aa460048036036020811015610a8e57600080fd5b81019080803590602001909291905050506123f9565b6040518082815260200191505060405180910390f35b610ac2612489565b6040518082815260200191505060405180910390f35b610b1a60048036036020811015610aee57600080fd5b81019080803573ffffffffffffffffffffffffffffffffffffffff1690602001909291905050506124d0565b6040518082815260200191505060405180910390f35b610b7260048036036020811015610b4657600080fd5b81019080803573ffffffffffffffffffffffffffffffffffffffff169060200190929190505050612519565b6040518082815260200191505060405180910390f35b610bca60048036036020811015610b9e57600080fd5b81019080803573ffffffffffffffffffffffffffffffffffffffff169060200190929190505050612531565b6040518082815260200191505060405180910390f35b610c2260048036036020811015610bf657600080fd5b81019080803573ffffffffffffffffffffffffffffffffffffffff169060200190929190505050612549565b6040518082815260200191505060405180910390f35b610c7a60048036036020811015610c4e57600080fd5b81019080803573ffffffffffffffffffffffffffffffffffffffff169060200190929190505050612561565b6040518082815260200191505060405180910390f35b610cd260048036036020811015610ca657600080fd5b81019080803573ffffffffffffffffffffffffffffffffffffffff169060200190929190505050612579565b6040518082815260200191505060405180910390f35b610d1460048036036020811015610cfe57600080fd5b8101908080359060200190929190505050612591565b604051808273ffffffffffffffffffffffffffffffffffffffff1673ffffffffffffffffffffffffffffffffffffffff16815260200191505060405180910390f35b610d5e6125c4565b6040518082815260200191505060405180910390f35b600080601260008473ffffffffffffffffffffffffffffffffffffffff1673ffffffffffffffffffffffffffffffffffffffff1681526020019081526020016000205490506000601160008573ffffffffffffffffffffffffffffffffffffffff1673ffffffffffffffffffffffffffffffffffffffff1681526020019081526020016000205414158015610e6c5750600d54600e8281548110610e1457fe5b90600052602060002090600402016003015402601160008573ffffffffffffffffffffffffffffffffffffffff1673ffffffffffffffffffffffffffffffffffffffff16815260200190815260200160002054014210155b15610e7b576000915050610eeb565b600042600d54600e8481548110610e8e57fe5b90600052602060002090600402016003015402601160008773ffffffffffffffffffffffffffffffffffffffff1673ffffffffffffffffffffffffffffffffffffffff168152602001908152602001600020540103905080925050505b919050565b600060606000600e805490508410610f4a576000806040518060400160405280601381526020017f696e76616c6964206275696c64696e67206964000000000000000000000000008152509080905092509250925061102c565b6001600e8581548110610f5957fe5b9060005260206000209060040201600001600e8681548110610f7757fe5b906000526020600020906004020160030154818054600181600116156101000203166002900480601f01602080910402602001604051908101604052809291908181526020018280546001816001161561010002031660029004801561101e5780601f10610ff35761010080835404028352916020019161101e565b820191906000526020600020905b81548152906001019060200180831161100157829003601f168201915b505050505091509250925092505b9193909250565b60085481565b60008060003373ffffffffffffffffffffffffffffffffffffffff1673ffffffffffffffffffffffffffffffffffffffff16815260200190815260200160002054905090565b606060008090506040518060400160405280600481526020017f4661726d00000000000000000000000000000000000000000000000000000000815250805190602001208380519060200120141561111857601460008573ffffffffffffffffffffffffffffffffffffffff1673ffffffffffffffffffffffffffffffffffffffff168152602001908152602001600020549050611519565b6040518060400160405280600481526020017f4d696e650000000000000000000000000000000000000000000000000000000081525080519060200120838051906020012014156111aa57601560008573ffffffffffffffffffffffffffffffffffffffff1673ffffffffffffffffffffffffffffffffffffffff168152602001908152602001600020549050611518565b6040518060400160405280600581526020017f4d616e6f72000000000000000000000000000000000000000000000000000000815250805190602001208380519060200120141561123c57601660008573ffffffffffffffffffffffffffffffffffffffff1673ffffffffffffffffffffffffffffffffffffffff168152602001908152602001600020549050611517565b6040518060400160405280600681526020017f517561727279000000000000000000000000000000000000000000000000000081525080519060200120838051906020012014156112ce57601760008573ffffffffffffffffffffffffffffffffffffffff1673ffffffffffffffffffffffffffffffffffffffff168152602001908152602001600020549050611516565b6040518060400160405280600781526020017f5361776d696c6c00000000000000000000000000000000000000000000000000815250805190602001208380519060200120141561136057601860008573ffffffffffffffffffffffffffffffffffffffff1673ffffffffffffffffffffffffffffffffffffffff168152602001908152602001600020549050611515565b6040518060400160405280600681526020017f43656c6c6172000000000000000000000000000000000000000000000000000081525080519060200120838051906020012014156113f257601960008573ffffffffffffffffffffffffffffffffffffffff1673ffffffffffffffffffffffffffffffffffffffff168152602001908152602001600020549050611514565b6040518060400160405280600781526020017f4261727261636b00000000000000000000000000000000000000000000000000815250805190602001208380519060200120141561148457601a60008573ffffffffffffffffffffffffffffffffffffffff1673ffffffffffffffffffffffffffffffffffffffff168152602001908152602001600020549050611513565b6040518060400160405280600a81526020017f4c61626f7261746f727900000000000000000000000000000000000000000000815250805190602001208380519060200120141561151257601b60008573ffffffffffffffffffffffffffffffffffffffff1673ffffffffffffffffffffffffffffffffffffffff1681526020019081526020016000205490505b5b5b5b5b5b5b5b60608160405190808252806020026020018201604052801561154a5781602001602082028038833980820191505090505b509050600080905060008090505b600e805490508110156116a0578673ffffffffffffffffffffffffffffffffffffffff166010600083815260200190815260200160002060009054906101000a900473ffffffffffffffffffffffffffffffffffffffff1673ffffffffffffffffffffffffffffffffffffffff1614801561165e57508580519060200120600e82815481106115e357fe5b9060005260206000209060040201600001604051808280546001816001161561010002031660029004801561164f5780601f1061162d57610100808354040283529182019161164f565b820191906000526020600020905b81548152906001019060200180831161163b575b50509150506040518091039020145b15611693578083838151811061167057fe5b60200260200101818152505061169060018361260b90919063ffffffff16565b91505b8080600101915050611558565b5081935050505092915050565b600060085482101561173357600760006009600085815260200190815260200160002060009054906101000a900473ffffffffffffffffffffffffffffffffffffffff1673ffffffffffffffffffffffffffffffffffffffff1673ffffffffffffffffffffffffffffffffffffffff168152602001908152602001600020549050611738565b600090505b919050565b600a6020528060005260406000206000915090505481565b600e818154811061176257fe5b9060005260206000209060040201600091509050806000018054600181600116156101000203166002900480601f01602080910402602001604051908101604052809291908181526020018280546001816001161561010002031660029004801561180e5780601f106117e35761010080835404028352916020019161180e565b820191906000526020600020905b8154815290600101906020018083116117f157829003601f168201915b5050505050908060010154908060020154908060030154905084565b60056020528060005260406000206000915090505481565b60106020528060005260406000206000915054906101000a900473ffffffffffffffffffffffffffffffffffffffff1681565b600080601260008473ffffffffffffffffffffffffffffffffffffffff1673ffffffffffffffffffffffffffffffffffffffff1681526020019081526020016000205490506000601160008573ffffffffffffffffffffffffffffffffffffffff1673ffffffffffffffffffffffffffffffffffffffff168152602001908152602001600020541415801561196d5750600d54600e828154811061191557fe5b90600052602060002090600402016003015402601160008573ffffffffffffffffffffffffffffffffffffffff1673ffffffffffffffffffffffffffffffffffffffff16815260200190815260200160002054014210155b15611a5a576119a46001600e838154811061198457fe5b90600052602060002090600402016003015461260b90919063ffffffff16565b600e82815481106119b157fe5b9060005260206000209060040201600301819055506000601160008573ffffffffffffffffffffffffffffffffffffffff1673ffffffffffffffffffffffffffffffffffffffff168152602001908152602001600020819055506000601260008573ffffffffffffffffffffffffffffffffffffffff1673ffffffffffffffffffffffffffffffffffffffff168152602001908152602001600020819055506000915050611aca565b600042600d54600e8481548110611a6d57fe5b90600052602060002090600402016003015402601160008773ffffffffffffffffffffffffffffffffffffffff1673ffffffffffffffffffffffffffffffffffffffff168152602001908152602001600020540103905080925050505b919050565b6000600260003373ffffffffffffffffffffffffffffffffffffffff1673ffffffffffffffffffffffffffffffffffffffff16815260200190815260200160002054905090565b6000600360003373ffffffffffffffffffffffffffffffffffffffff1673ffffffffffffffffffffffffffffffffffffffff16815260200190815260200160002054905090565b600080600090505b600854811015611bea573373ffffffffffffffffffffffffffffffffffffffff166009600083815260200190815260200160002060009054906101000a900473ffffffffffffffffffffffffffffffffffffffff1673ffffffffffffffffffffffffffffffffffffffff161415611bdf5780915050611bf1565b806001019050611b65565b5060085490505b90565b6000600854905090565b60016020528060005260406000206000915090505481565b606080601a60008473ffffffffffffffffffffffffffffffffffffffff1673ffffffffffffffffffffffffffffffffffffffff16815260200190815260200160002054601960008573ffffffffffffffffffffffffffffffffffffffff1673ffffffffffffffffffffffffffffffffffffffff16815260200190815260200160002054601860008673ffffffffffffffffffffffffffffffffffffffff1673ffffffffffffffffffffffffffffffffffffffff16815260200190815260200160002054601760008773ffffffffffffffffffffffffffffffffffffffff1673ffffffffffffffffffffffffffffffffffffffff16815260200190815260200160002054601660008873ffffffffffffffffffffffffffffffffffffffff1673ffffffffffffffffffffffffffffffffffffffff16815260200190815260200160002054601560008973ffffffffffffffffffffffffffffffffffffffff1673ffffffffffffffffffffffffffffffffffffffff16815260200190815260200160002054601460008a73ffffffffffffffffffffffffffffffffffffffff1673ffffffffffffffffffffffffffffffffffffffff16815260200190815260200160002054010101010101604051908082528060200260200182016040528015611e0d5781602001602082028038833980820191505090505b509050600080905060008090505b600e80549050811015611ecc578473ffffffffffffffffffffffffffffffffffffffff166010600083815260200190815260200160002060009054906101000a900473ffffffffffffffffffffffffffffffffffffffff1673ffffffffffffffffffffffffffffffffffffffff161415611ebf5780838381518110611e9c57fe5b602002602001018181525050611ebc60018361260b90919063ffffffff16565b91505b8080600101915050611e1b565b508192505050919050565b6000600854821015611f5d57600660006009600085815260200190815260200160002060009054906101000a900473ffffffffffffffffffffffffffffffffffffffff1673ffffffffffffffffffffffffffffffffffffffff1673ffffffffffffffffffffffffffffffffffffffff168152602001908152602001600020549050611f62565b600090505b919050565b6000606060008090505b600e80549050811015612107578573ffffffffffffffffffffffffffffffffffffffff166010600083815260200190815260200160002060009054906101000a900473ffffffffffffffffffffffffffffffffffffffff1673ffffffffffffffffffffffffffffffffffffffff1614156120fa5784600e8281548110611ff357fe5b90600052602060002090600402016001015414801561202f575083600e828154811061201b57fe5b906000526020600020906004020160020154145b156120f95780600e828154811061204257fe5b9060005260206000209060040201600001808054600181600116156101000203166002900480601f0160208091040260200160405190810160405280929190818152602001828054600181600116156101000203166002900480156120e85780601f106120bd576101008083540402835291602001916120e8565b820191906000526020600020905b8154815290600101906020018083116120cb57829003601f168201915b505050505090509250925050612148565b5b8080600101915050611f71565b60008090506040518060400160405280600481526020017f4e6f6e650000000000000000000000000000000000000000000000000000000081525092509250505b935093915050565b60046020528060005260406000206000915090505481565b600080600a60003373ffffffffffffffffffffffffffffffffffffffff1673ffffffffffffffffffffffffffffffffffffffff1681526020019081526020016000205411156121ba57600190506121bf565b600090505b90565b6000806121d0858585611f67565b508091505060008114156121e85760009150506123e5565b6040518060400160405280600681526020017f436173746c65000000000000000000000000000000000000000000000000000081525080519060200120600e828154811061223257fe5b9060005260206000209060040201600001604051808280546001816001161561010002031660029004801561229e5780601f1061227c57610100808354040283529182019161229e565b820191906000526020600020905b81548152906001019060200180831161228a575b5050915050604051809103902050506000601160008773ffffffffffffffffffffffffffffffffffffffff1673ffffffffffffffffffffffffffffffffffffffff16815260200190815260200160002054146122fe5760009150506123e5565b80601260008773ffffffffffffffffffffffffffffffffffffffff1673ffffffffffffffffffffffffffffffffffffffff1681526020019081526020016000208190555042601160008773ffffffffffffffffffffffffffffffffffffffff1673ffffffffffffffffffffffffffffffffffffffff168152602001908152602001600020819055506000600f54600e838154811061239857fe5b9060005260206000209060040201600301540290506123bc86600083848586612693565b50600d54600e83815481106123cd57fe5b90600052602060002090600402016003015402925050505b9392505050565b6000600e80549050905090565b600060085482101561247f57600560006009600085815260200190815260200160002060009054906101000a900473ffffffffffffffffffffffffffffffffffffffff1673ffffffffffffffffffffffffffffffffffffffff1673ffffffffffffffffffffffffffffffffffffffff168152602001908152602001600020549050612484565b600090505b919050565b6000600460003373ffffffffffffffffffffffffffffffffffffffff1673ffffffffffffffffffffffffffffffffffffffff16815260200190815260200160002054905090565b6000601260008373ffffffffffffffffffffffffffffffffffffffff1673ffffffffffffffffffffffffffffffffffffffff168152602001908152602001600020549050919050565b60066020528060005260406000206000915090505481565b60006020528060005260406000206000915090505481565b60026020528060005260406000206000915090505481565b60076020528060005260406000206000915090505481565b60036020528060005260406000206000915090505481565b60096020528060005260406000206000915054906101000a900473ffffffffffffffffffffffffffffffffffffffff1681565b6000600160003373ffffffffffffffffffffffffffffffffffffffff1673ffffffffffffffffffffffffffffffffffffffff16815260200190815260200160002054905090565b600080828401905083811015612689576040517f08c379a000000000000000000000000000000000000000000000000000000000815260040180806020018281038252601b8152602001807f536166654d6174683a206164646974696f6e206f766572666c6f77000000000081525060200191505060405180910390fd5b8091505092915050565b600085600260008973ffffffffffffffffffffffffffffffffffffffff1673ffffffffffffffffffffffffffffffffffffffff1681526020019081526020016000205410158015612723575084600460008973ffffffffffffffffffffffffffffffffffffffff1673ffffffffffffffffffffffffffffffffffffffff1681526020019081526020016000205410155b801561276e575083600160008973ffffffffffffffffffffffffffffffffffffffff1673ffffffffffffffffffffffffffffffffffffffff1681526020019081526020016000205410155b80156127b85750826000808973ffffffffffffffffffffffffffffffffffffffff1673ffffffffffffffffffffffffffffffffffffffff1681526020019081526020016000205410155b8015612803575081600360008973ffffffffffffffffffffffffffffffffffffffff1673ffffffffffffffffffffffffffffffffffffffff1681526020019081526020016000205410155b15612af85761285a86600260008a73ffffffffffffffffffffffffffffffffffffffff1673ffffffffffffffffffffffffffffffffffffffff16815260200190815260200160002054612b0790919063ffffffff16565b600260008973ffffffffffffffffffffffffffffffffffffffff1673ffffffffffffffffffffffffffffffffffffffff168152602001908152602001600020819055506128ef85600460008a73ffffffffffffffffffffffffffffffffffffffff1673ffffffffffffffffffffffffffffffffffffffff16815260200190815260200160002054612b0790919063ffffffff16565b600460008973ffffffffffffffffffffffffffffffffffffffff1673ffffffffffffffffffffffffffffffffffffffff1681526020019081526020016000208190555061298484600160008a73ffffffffffffffffffffffffffffffffffffffff1673ffffffffffffffffffffffffffffffffffffffff16815260200190815260200160002054612b0790919063ffffffff16565b600160008973ffffffffffffffffffffffffffffffffffffffff1673ffffffffffffffffffffffffffffffffffffffff16815260200190815260200160002081905550612a18836000808a73ffffffffffffffffffffffffffffffffffffffff1673ffffffffffffffffffffffffffffffffffffffff16815260200190815260200160002054612b0790919063ffffffff16565b6000808973ffffffffffffffffffffffffffffffffffffffff1673ffffffffffffffffffffffffffffffffffffffff16815260200190815260200160002081905550612aac82600360008a73ffffffffffffffffffffffffffffffffffffffff1673ffffffffffffffffffffffffffffffffffffffff16815260200190815260200160002054612b0790919063ffffffff16565b600360008973ffffffffffffffffffffffffffffffffffffffff1673ffffffffffffffffffffffffffffffffffffffff1681526020019081526020016000208190555060019050612afd565b600090505b9695505050505050565b6000612b4983836040518060400160405280601e81526020017f536166654d6174683a207375627472616374696f6e206f766572666c6f770000815250612b51565b905092915050565b6000838311158290612bfe576040517f08c379a00000000000000000000000000000000000000000000000000000000081526004018080602001828103825283818151815260200191508051906020019080838360005b83811015612bc3578082015181840152602081019050612ba8565b50505050905090810190601f168015612bf05780820380516001836020036101000a031916815260200191505b509250505060405180910390fd5b506000838503905080915050939250505056fea265627a7a7231582053db4acdd34395da77c2438b9f0adab7573a7277918da8639e68d7813c3c2a9764736f6c63430005100032",
  "source": "pragma solidity >=0.4.21 <0.7.0;\n\nimport \"./SafeMath.sol\";\nimport \"./Account.sol\";\n\ncontract BuildingFactory is Account {\n    \n    using SafeMath for uint;\n    \n    struct Building {\n        string name;\n        uint placeX;\n        uint placeY;\n        uint level;\n    }\n\n    uint buildTimeNeed = 10;\n    Building[] public buildings;\n    uint buildResourceNeed = 100;\n\n    mapping (uint => address) public buildingToOwner;\n    mapping (address => uint) ownerStartBuildTime;\n    mapping (address => uint) ownerBuildingId; //the building that is building\n    mapping (address => uint) castleLevel;\n\n    mapping (address => uint) ownerFarmCount;\n    mapping (address => uint) ownerMineCount;\n    mapping (address => uint) ownerManorCount;\n    mapping (address => uint) ownerQuarryCount;\n    mapping (address => uint) ownerSawmillCount;\n    mapping (address => uint) ownerCellarCount;\n    mapping (address => uint) ownerBarrackCount;\n    mapping (address => uint) ownerLaboratoryCount;\n\n\n    function _createBuilding(address _creator, string memory _name, uint _x, uint _y) internal returns(uint){\n        if(buildings.length == 0) {\n            buildings.push(Building(\"first_building!\", 0, 0, 1000));\n            buildingToOwner[0] = address(0);\n        }\n        uint id = buildings.push(Building(_name, _x, _y, 1)).sub(1);\n        _cost(_creator, 0, buildResourceNeed, buildResourceNeed, buildResourceNeed, buildResourceNeed);\n        buildingToOwner[id] = _creator;\n        if (keccak256(bytes(_name)) == keccak256(bytes(\"Farm\"))) {\n            ownerFarmCount[_creator] = ownerFarmCount[_creator].add(1);\n        }\n        else if (keccak256(bytes(_name)) == keccak256(bytes(\"Mine\"))) {\n            ownerMineCount[_creator] = ownerMineCount[_creator].add(1);\n        }\n        else if (keccak256(bytes(_name)) == keccak256(bytes(\"Manor\"))) {\n            ownerManorCount[_creator] = ownerManorCount[_creator].add(1);\n        }\n        else if (keccak256(bytes(_name)) == keccak256(bytes(\"Quarry\"))) {\n            ownerQuarryCount[_creator] = ownerQuarryCount[_creator].add(1);\n        }\n        else if (keccak256(bytes(_name)) == keccak256(bytes(\"Sawmill\"))) {\n            ownerSawmillCount[_creator] = ownerSawmillCount[_creator].add(1);\n        }\n        else if (keccak256(bytes(_name)) == keccak256(bytes(\"Cellar\"))) {\n            ownerCellarCount[_creator] = ownerCellarCount[_creator].add(1);\n        }\n        else if (keccak256(bytes(_name)) == keccak256(bytes(\"Barrack\"))) {\n            ownerBarrackCount[_creator] = ownerBarrackCount[_creator].add(1);\n        }\n        else if (keccak256(bytes(_name)) == keccak256(bytes(\"Laboratory\"))) {\n            ownerLaboratoryCount[_creator] = ownerLaboratoryCount[_creator].add(1);\n        }\n        return id;\n    }\n\n    function startBuild(address _owner, uint _x, uint _y) public returns(uint){\n        uint buildingID;\n        (buildingID,) = getBuildingByOwner(_owner, _x, _y);\n        if(buildingID == 0) return 0;\n        if (keccak256(bytes(buildings[buildingID].name)) != keccak256(bytes(\"Castle\"))) {\n            // require(castleLevel[_owner] >= buildings[buildingID].level.add(1));\n        }\n        if(ownerStartBuildTime[_owner] != 0)  return 0;\n        ownerBuildingId[_owner] = buildingID;\n        ownerStartBuildTime[_owner] = now;\n        uint buildingResourceNeed = buildings[buildingID].level * buildResourceNeed;\n        _cost(_owner, 0, buildingResourceNeed, buildingResourceNeed, buildingResourceNeed, buildingResourceNeed);\n        return buildings[buildingID].level * buildTimeNeed;\n    }\n\n    function getRemainingTime(address _owner) public view returns(uint) {\n        uint buildingID = ownerBuildingId[_owner];\n        if (ownerStartBuildTime[_owner] != 0 && now >= ownerStartBuildTime[_owner] + buildings[buildingID].level * buildTimeNeed) {\n            return 0;\n        }\n        else {\n            uint remainingTime = ownerStartBuildTime[_owner] + buildings[buildingID].level * buildTimeNeed - now;\n            return remainingTime;\n        }\n    }\n\n    function getUpgradingId(address _owner) public view returns(uint) {\n        return ownerBuildingId[_owner];\n    }\n    \n    function updateBuild(address _owner) public returns(uint){\n        uint buildingID = ownerBuildingId[_owner];\n        if (ownerStartBuildTime[_owner] != 0 && now >= ownerStartBuildTime[_owner] + buildings[buildingID].level * buildTimeNeed) {\n            buildings[buildingID].level = buildings[buildingID].level.add(1);\n            ownerStartBuildTime[_owner] = 0;\n            ownerBuildingId[_owner] = 0;\n            return 0;\n        }\n        else {\n            uint remainingTime = ownerStartBuildTime[_owner] + buildings[buildingID].level * buildTimeNeed - now;\n            return remainingTime;\n        }\n    }\n\n    function getBuildingById(uint idx) public view returns(bool, string memory, uint) {\n        if(idx >= buildings.length) {\n            return (false, \"invalid building id\", 0);\n        }\n        else {\n            return (true, buildings[idx].name, buildings[idx].level);\n        }\n    }\n\n    function getBuildingsLen() public view returns(uint) {\n        return buildings.length;\n    }\n\n    function getBuildingByOwner(address _owner, uint _placeX, uint _placeY) public view returns(uint, string memory) {\n        uint i = 0;\n        for (i; i < buildings.length; i++) {\n            if (buildingToOwner[i] == _owner) {\n                if (buildings[i].placeX == _placeX && buildings[i].placeY == _placeY) {\n                    return (i, buildings[i].name);\n                }\n            }\n        }\n        return (0, \"None\");\n    }\n\n    function getBuildingsByOwner(address _owner) public view returns(uint[] memory) {\n        uint[] memory result = new uint[](ownerFarmCount[_owner] + ownerMineCount[_owner] + ownerManorCount[_owner] + ownerQuarryCount[_owner] + ownerSawmillCount[_owner] + ownerCellarCount[_owner] + ownerBarrackCount[_owner]);\n        uint counter = 0;\n        for (uint i = 0; i < buildings.length; i++) {\n            if (buildingToOwner[i] == _owner) {\n                result[counter] = i;\n                counter = counter.add(1);\n            }\n        }\n        return result;\n    }\n\n    function getSpecificBuildingByOwner(address _owner, string memory _name) public view returns(uint[] memory) {\n        uint buildingsLength = 0;\n        if (keccak256(bytes(_name)) == keccak256(bytes(\"Farm\"))) {\n           buildingsLength = ownerFarmCount[_owner];\n        }\n        else if (keccak256(bytes(_name)) == keccak256(bytes(\"Mine\"))) {\n            buildingsLength = ownerMineCount[_owner];\n        }\n        else if (keccak256(bytes(_name)) == keccak256(bytes(\"Manor\"))) {\n            buildingsLength = ownerManorCount[_owner];\n        }\n        else if (keccak256(bytes(_name)) == keccak256(bytes(\"Quarry\"))) {\n            buildingsLength = ownerQuarryCount[_owner];\n        }\n        else if (keccak256(bytes(_name)) == keccak256(bytes(\"Sawmill\"))) {\n            buildingsLength = ownerSawmillCount[_owner];\n        }\n        else if (keccak256(bytes(_name)) == keccak256(bytes(\"Cellar\"))) {\n            buildingsLength = ownerCellarCount[_owner];\n        }\n        else if (keccak256(bytes(_name)) == keccak256(bytes(\"Barrack\"))) {\n            buildingsLength = ownerBarrackCount[_owner];\n        }\n        else if (keccak256(bytes(_name)) == keccak256(bytes(\"Laboratory\"))) {\n            buildingsLength = ownerLaboratoryCount[_owner];\n        }\n        uint[] memory result = new uint[](buildingsLength);\n        // result.push(0);\n        uint counter = 0;\n        for (uint i = 0; i < buildings.length; i++) {\n            if (buildingToOwner[i] == _owner && keccak256(bytes(buildings[i].name)) == keccak256(bytes(_name))) {\n                result[counter] = i;\n                counter = counter.add(1);\n            }\n        }\n        return result;\n    }\n    \n}",
  "sourcePath": "/Users/cyl/Desktop//NMlab_Final/contracts/BuildingFactory.sol",
  "compiler": {
    "name": "solc",
    "version": "0.5.16+commit.9c3226ce.Emscripten.clang"
  },
  "schemaVersion": "3.4.1",
  "updatedAt": "2021-05-31T04:37:37.023Z",
  "devdoc": {
    "methods": {}
  },
  "userdoc": {
    "methods": {}
  }
}