{
  "contractName": "BuildingFactory",
  "abi": [
    {
      "constant": true,
      "inputs": [
        {
          "internalType": "uint256",
          "name": "",
          "type": "uint256"
        }
      ],
      "name": "buildingToOwner",
      "outputs": [
        {
          "internalType": "address",
          "name": "",
          "type": "address"
        }
      ],
      "payable": false,
      "stateMutability": "view",
      "type": "function"
    },
    {
      "constant": true,
      "inputs": [
        {
          "internalType": "uint256",
          "name": "",
          "type": "uint256"
        }
      ],
      "name": "buildings",
      "outputs": [
        {
          "internalType": "string",
          "name": "name",
          "type": "string"
        },
        {
          "internalType": "uint256",
          "name": "placeX",
          "type": "uint256"
        },
        {
          "internalType": "uint256",
          "name": "placeY",
          "type": "uint256"
        },
        {
          "internalType": "uint256",
          "name": "level",
          "type": "uint256"
        }
      ],
      "payable": false,
      "stateMutability": "view",
      "type": "function"
    },
    {
      "constant": true,
      "inputs": [
        {
          "internalType": "uint256",
          "name": "",
          "type": "uint256"
        }
      ],
      "name": "castleToOwner",
      "outputs": [
        {
          "internalType": "address",
          "name": "",
          "type": "address"
        }
      ],
      "payable": false,
      "stateMutability": "view",
      "type": "function"
    },
    {
      "constant": true,
      "inputs": [],
      "name": "checkUserAddress",
      "outputs": [
        {
          "internalType": "bool",
          "name": "",
          "type": "bool"
        }
      ],
      "payable": false,
      "stateMutability": "view",
      "type": "function"
    },
    {
      "constant": true,
      "inputs": [
        {
          "internalType": "address",
          "name": "",
          "type": "address"
        }
      ],
      "name": "coinOwnerCount",
      "outputs": [
        {
          "internalType": "uint256",
          "name": "",
          "type": "uint256"
        }
      ],
      "payable": false,
      "stateMutability": "view",
      "type": "function"
    },
    {
      "constant": true,
      "inputs": [
        {
          "internalType": "address",
          "name": "",
          "type": "address"
        }
      ],
      "name": "foodOwnerCount",
      "outputs": [
        {
          "internalType": "uint256",
          "name": "",
          "type": "uint256"
        }
      ],
      "payable": false,
      "stateMutability": "view",
      "type": "function"
    },
    {
      "constant": true,
      "inputs": [],
      "name": "getCoinAmount",
      "outputs": [
        {
          "internalType": "uint256",
          "name": "",
          "type": "uint256"
        }
      ],
      "payable": false,
      "stateMutability": "view",
      "type": "function"
    },
    {
      "constant": true,
      "inputs": [],
      "name": "getFoodAmount",
      "outputs": [
        {
          "internalType": "uint256",
          "name": "",
          "type": "uint256"
        }
      ],
      "payable": false,
      "stateMutability": "view",
      "type": "function"
    },
    {
      "constant": true,
      "inputs": [],
      "name": "getIronAmount",
      "outputs": [
        {
          "internalType": "uint256",
          "name": "",
          "type": "uint256"
        }
      ],
      "payable": false,
      "stateMutability": "view",
      "type": "function"
    },
    {
      "constant": true,
      "inputs": [],
      "name": "getKingdomAmount",
      "outputs": [
        {
          "internalType": "uint256",
          "name": "",
          "type": "uint256"
        }
      ],
      "payable": false,
      "stateMutability": "view",
      "type": "function"
    },
    {
      "constant": true,
      "inputs": [],
      "name": "getMyIdx",
      "outputs": [
        {
          "internalType": "uint256",
          "name": "",
          "type": "uint256"
        }
      ],
      "payable": false,
      "stateMutability": "view",
      "type": "function"
    },
    {
      "constant": true,
      "inputs": [],
      "name": "getStoneAmount",
      "outputs": [
        {
          "internalType": "uint256",
          "name": "",
          "type": "uint256"
        }
      ],
      "payable": false,
      "stateMutability": "view",
      "type": "function"
    },
    {
      "constant": true,
      "inputs": [
        {
          "internalType": "uint256",
          "name": "idx",
          "type": "uint256"
        }
      ],
      "name": "getUserPower",
      "outputs": [
        {
          "internalType": "uint256",
          "name": "",
          "type": "uint256"
        }
      ],
      "payable": false,
      "stateMutability": "view",
      "type": "function"
    },
    {
      "constant": true,
      "inputs": [],
      "name": "getWoodAmount",
      "outputs": [
        {
          "internalType": "uint256",
          "name": "",
          "type": "uint256"
        }
      ],
      "payable": false,
      "stateMutability": "view",
      "type": "function"
    },
    {
      "constant": true,
      "inputs": [
        {
          "internalType": "address",
          "name": "",
          "type": "address"
        }
      ],
      "name": "ironOwnerCount",
      "outputs": [
        {
          "internalType": "uint256",
          "name": "",
          "type": "uint256"
        }
      ],
      "payable": false,
      "stateMutability": "view",
      "type": "function"
    },
    {
      "constant": true,
      "inputs": [],
      "name": "kingdomAmount",
      "outputs": [
        {
          "internalType": "uint256",
          "name": "",
          "type": "uint256"
        }
      ],
      "payable": false,
      "stateMutability": "view",
      "type": "function"
    },
    {
      "constant": true,
      "inputs": [
        {
          "internalType": "address",
          "name": "",
          "type": "address"
        }
      ],
      "name": "ownerCastleCount",
      "outputs": [
        {
          "internalType": "uint256",
          "name": "",
          "type": "uint256"
        }
      ],
      "payable": false,
      "stateMutability": "view",
      "type": "function"
    },
    {
      "constant": true,
      "inputs": [
        {
          "internalType": "address",
          "name": "",
          "type": "address"
        }
      ],
      "name": "power",
      "outputs": [
        {
          "internalType": "uint256",
          "name": "",
          "type": "uint256"
        }
      ],
      "payable": false,
      "stateMutability": "view",
      "type": "function"
    },
    {
      "constant": true,
      "inputs": [
        {
          "internalType": "address",
          "name": "",
          "type": "address"
        }
      ],
      "name": "stoneOwnerCount",
      "outputs": [
        {
          "internalType": "uint256",
          "name": "",
          "type": "uint256"
        }
      ],
      "payable": false,
      "stateMutability": "view",
      "type": "function"
    },
    {
      "constant": true,
      "inputs": [
        {
          "internalType": "address",
          "name": "",
          "type": "address"
        }
      ],
      "name": "woodOwnerCount",
      "outputs": [
        {
          "internalType": "uint256",
          "name": "",
          "type": "uint256"
        }
      ],
      "payable": false,
      "stateMutability": "view",
      "type": "function"
    },
    {
      "constant": false,
      "inputs": [
        {
          "internalType": "address",
          "name": "_owner",
          "type": "address"
        },
        {
          "internalType": "uint256",
          "name": "_x",
          "type": "uint256"
        },
        {
          "internalType": "uint256",
          "name": "_y",
          "type": "uint256"
        }
      ],
      "name": "startBuild",
      "outputs": [
        {
          "internalType": "uint256",
          "name": "",
          "type": "uint256"
        }
      ],
      "payable": false,
      "stateMutability": "nonpayable",
      "type": "function"
    },
    {
      "constant": true,
      "inputs": [
        {
          "internalType": "address",
          "name": "_owner",
          "type": "address"
        }
      ],
      "name": "getRemainingTime",
      "outputs": [
        {
          "internalType": "uint256",
          "name": "",
          "type": "uint256"
        }
      ],
      "payable": false,
      "stateMutability": "view",
      "type": "function"
    },
    {
      "constant": true,
      "inputs": [
        {
          "internalType": "address",
          "name": "_owner",
          "type": "address"
        }
      ],
      "name": "getUpgradingId",
      "outputs": [
        {
          "internalType": "uint256",
          "name": "",
          "type": "uint256"
        }
      ],
      "payable": false,
      "stateMutability": "view",
      "type": "function"
    },
    {
      "constant": false,
      "inputs": [
        {
          "internalType": "address",
          "name": "_owner",
          "type": "address"
        }
      ],
      "name": "updateBuild",
      "outputs": [
        {
          "internalType": "uint256",
          "name": "",
          "type": "uint256"
        }
      ],
      "payable": false,
      "stateMutability": "nonpayable",
      "type": "function"
    },
    {
      "constant": true,
      "inputs": [
        {
          "internalType": "uint256",
          "name": "idx",
          "type": "uint256"
        }
      ],
      "name": "getBuildingById",
      "outputs": [
        {
          "internalType": "bool",
          "name": "",
          "type": "bool"
        },
        {
          "internalType": "string",
          "name": "",
          "type": "string"
        },
        {
          "internalType": "uint256",
          "name": "",
          "type": "uint256"
        }
      ],
      "payable": false,
      "stateMutability": "view",
      "type": "function"
    },
    {
      "constant": true,
      "inputs": [],
      "name": "getBuildingsLen",
      "outputs": [
        {
          "internalType": "uint256",
          "name": "",
          "type": "uint256"
        }
      ],
      "payable": false,
      "stateMutability": "view",
      "type": "function"
    },
    {
      "constant": true,
      "inputs": [
        {
          "internalType": "address",
          "name": "_owner",
          "type": "address"
        },
        {
          "internalType": "uint256",
          "name": "_placeX",
          "type": "uint256"
        },
        {
          "internalType": "uint256",
          "name": "_placeY",
          "type": "uint256"
        }
      ],
      "name": "getBuildingByOwner",
      "outputs": [
        {
          "internalType": "uint256",
          "name": "",
          "type": "uint256"
        },
        {
          "internalType": "string",
          "name": "",
          "type": "string"
        }
      ],
      "payable": false,
      "stateMutability": "view",
      "type": "function"
    },
    {
      "constant": true,
      "inputs": [
        {
          "internalType": "address",
          "name": "_owner",
          "type": "address"
        }
      ],
      "name": "getBuildingsByOwner",
      "outputs": [
        {
          "internalType": "uint256[]",
          "name": "",
          "type": "uint256[]"
        }
      ],
      "payable": false,
      "stateMutability": "view",
      "type": "function"
    },
    {
      "constant": true,
      "inputs": [
        {
          "internalType": "address",
          "name": "_owner",
          "type": "address"
        },
        {
          "internalType": "string",
          "name": "_name",
          "type": "string"
        }
      ],
      "name": "getSpecificBuildingByOwner",
      "outputs": [
        {
          "internalType": "uint256[]",
          "name": "",
          "type": "uint256[]"
        }
      ],
      "payable": false,
      "stateMutability": "view",
      "type": "function"
    }
  ],
  "bytecode": "0x60806040526010600955600954600a0a600a55600a600b556064600d5534801561002857600080fd5b50612903806100386000396000f3fe608060405234801561001057600080fd5b50600436106101cf5760003560e01c80638226e53011610104578063c8b4eeff116100a2578063e5b285f211610071578063e5b285f214610ad8578063ef78b6dc14610b30578063f4ab27f014610b88578063fd8ccf2714610bf6576101cf565b8063c8b4eeff146109c8578063ccf358a414610a0a578063db2ace2a14610a28578063e428afa014610a80576101cf565b8063867b84e2116100de578063867b84e2146108c45780638919a9ca1461091c578063aba19ece1461093e578063ad1c89cc146109aa576101cf565b80638226e530146106fb57806382a4182814610753578063842a89fa146107ec576101cf565b8063503371a5116101715780635ad609931161014b5780635ad6099314610683578063623e9ba6146106a1578063789630be146106bf5780637e2b875b146106dd576101cf565b8063503371a5146105655780635192b291146105bd578063560742091461062b576101cf565b80631c980beb116101ad5780631c980beb146103035780632c79c5231461032157806346125f84146104515780634c96a062146104a9576101cf565b80630e85117a146101d45780630f130a391461022c578063194c717b146102e5575b600080fd5b610216600480360360208110156101ea57600080fd5b81019080803573ffffffffffffffffffffffffffffffffffffffff169060200190929190505050610c14565b6040518082815260200191505060405180910390f35b6102586004803603602081101561024257600080fd5b8101908080359060200190929190505050610d90565b604051808415151515815260200180602001838152602001828103825284818151815260200191508051906020019080838360005b838110156102a857808201518184015260208101905061028d565b50505050905090810190601f1680156102d55780820380516001836020036101000a031916815260200191505b5094505050505060405180910390f35b6102ed610ed3565b6040518082815260200191505060405180910390f35b61030b610ed9565b6040518082815260200191505060405180910390f35b6103fa6004803603604081101561033757600080fd5b81019080803573ffffffffffffffffffffffffffffffffffffffff1690602001909291908035906020019064010000000081111561037457600080fd5b82018360208201111561038657600080fd5b803590602001918460018302840111640100000000831117156103a857600080fd5b91908080601f016020809104026020016040519081016040528093929190818152602001838380828437600081840152601f19601f820116905080830192505050505050509192919290505050610f1f565b6040518080602001828103825283818151815260200191508051906020019060200280838360005b8381101561043d578082015181840152602081019050610422565b505050509050019250505060405180910390f35b6104936004803603602081101561046757600080fd5b81019080803573ffffffffffffffffffffffffffffffffffffffff1690602001909291905050506114ba565b6040518082815260200191505060405180910390f35b6104d5600480360360208110156104bf57600080fd5b81019080803590602001909291905050506114d2565b6040518080602001858152602001848152602001838152602001828103825286818151815260200191508051906020019080838360005b8381101561052757808201518184015260208101905061050c565b50505050905090810190601f1680156105545780820380516001836020036101000a031916815260200191505b509550505050505060405180910390f35b6105a76004803603602081101561057b57600080fd5b81019080803573ffffffffffffffffffffffffffffffffffffffff1690602001909291905050506115a7565b6040518082815260200191505060405180910390f35b6105e9600480360360208110156105d357600080fd5b81019080803590602001909291905050506115bf565b604051808273ffffffffffffffffffffffffffffffffffffffff1673ffffffffffffffffffffffffffffffffffffffff16815260200191505060405180910390f35b61066d6004803603602081101561064157600080fd5b81019080803573ffffffffffffffffffffffffffffffffffffffff1690602001909291905050506115f2565b6040518082815260200191505060405180910390f35b61068b61184c565b6040518082815260200191505060405180910390f35b6106a9611893565b6040518082815260200191505060405180910390f35b6106c76118da565b6040518082815260200191505060405180910390f35b6106e5611971565b6040518082815260200191505060405180910390f35b61073d6004803603602081101561071157600080fd5b81019080803573ffffffffffffffffffffffffffffffffffffffff16906020019092919050505061197b565b6040518082815260200191505060405180910390f35b6107956004803603602081101561076957600080fd5b81019080803573ffffffffffffffffffffffffffffffffffffffff169060200190929190505050611993565b6040518080602001828103825283818151815260200191508051906020019060200280838360005b838110156107d85780820151818401526020810190506107bd565b505050509050019250505060405180910390f35b6108426004803603606081101561080257600080fd5b81019080803573ffffffffffffffffffffffffffffffffffffffff1690602001909291908035906020019092919080359060200190929190505050611c54565b6040518083815260200180602001828103825283818151815260200191508051906020019080838360005b8381101561088857808201518184015260208101905061086d565b50505050905090810190601f1680156108b55780820380516001836020036101000a031916815260200191505b50935050505060405180910390f35b610906600480360360208110156108da57600080fd5b81019080803573ffffffffffffffffffffffffffffffffffffffff169060200190929190505050611e3d565b6040518082815260200191505060405180910390f35b610924611e55565b604051808215151515815260200191505060405180910390f35b6109946004803603606081101561095457600080fd5b81019080803573ffffffffffffffffffffffffffffffffffffffff1690602001909291908035906020019092919080359060200190929190505050611eaf565b6040518082815260200191505060405180910390f35b6109b26120d9565b6040518082815260200191505060405180910390f35b6109f4600480360360208110156109de57600080fd5b81019080803590602001909291905050506120e6565b6040518082815260200191505060405180910390f35b610a12612176565b6040518082815260200191505060405180910390f35b610a6a60048036036020811015610a3e57600080fd5b81019080803573ffffffffffffffffffffffffffffffffffffffff1690602001909291905050506121bd565b6040518082815260200191505060405180910390f35b610ac260048036036020811015610a9657600080fd5b81019080803573ffffffffffffffffffffffffffffffffffffffff169060200190929190505050612206565b6040518082815260200191505060405180910390f35b610b1a60048036036020811015610aee57600080fd5b81019080803573ffffffffffffffffffffffffffffffffffffffff16906020019092919050505061221e565b6040518082815260200191505060405180910390f35b610b7260048036036020811015610b4657600080fd5b81019080803573ffffffffffffffffffffffffffffffffffffffff169060200190929190505050612236565b6040518082815260200191505060405180910390f35b610bb460048036036020811015610b9e57600080fd5b810190808035906020019092919050505061224e565b604051808273ffffffffffffffffffffffffffffffffffffffff1673ffffffffffffffffffffffffffffffffffffffff16815260200191505060405180910390f35b610bfe612281565b6040518082815260200191505060405180910390f35b600080601060008473ffffffffffffffffffffffffffffffffffffffff1673ffffffffffffffffffffffffffffffffffffffff1681526020019081526020016000205490506000600f60008573ffffffffffffffffffffffffffffffffffffffff1673ffffffffffffffffffffffffffffffffffffffff1681526020019081526020016000205414158015610d0c5750600b54600c8281548110610cb457fe5b90600052602060002090600402016003015402600f60008573ffffffffffffffffffffffffffffffffffffffff1673ffffffffffffffffffffffffffffffffffffffff16815260200190815260200160002054014210155b15610d1b576000915050610d8b565b600042600b54600c8481548110610d2e57fe5b90600052602060002090600402016003015402600f60008773ffffffffffffffffffffffffffffffffffffffff1673ffffffffffffffffffffffffffffffffffffffff168152602001908152602001600020540103905080925050505b919050565b600060606000600c805490508410610dea576000806040518060400160405280601381526020017f696e76616c6964206275696c64696e672069640000000000000000000000000081525090809050925092509250610ecc565b6001600c8581548110610df957fe5b9060005260206000209060040201600001600c8681548110610e1757fe5b906000526020600020906004020160030154818054600181600116156101000203166002900480601f016020809104026020016040519081016040528092919081815260200182805460018160011615610100020316600290048015610ebe5780601f10610e9357610100808354040283529160200191610ebe565b820191906000526020600020905b815481529060010190602001808311610ea157829003601f168201915b505050505091509250925092505b9193909250565b60065481565b60008060003373ffffffffffffffffffffffffffffffffffffffff1673ffffffffffffffffffffffffffffffffffffffff16815260200190815260200160002054905090565b606060008090506040518060400160405280600481526020017f4661726d000000000000000000000000000000000000000000000000000000008152508051906020012083805190602001201415610fb857601260008573ffffffffffffffffffffffffffffffffffffffff1673ffffffffffffffffffffffffffffffffffffffff168152602001908152602001600020549050611326565b6040518060400160405280600481526020017f4d696e6500000000000000000000000000000000000000000000000000000000815250805190602001208380519060200120141561104a57601360008573ffffffffffffffffffffffffffffffffffffffff1673ffffffffffffffffffffffffffffffffffffffff168152602001908152602001600020549050611325565b6040518060400160405280600581526020017f4d616e6f7200000000000000000000000000000000000000000000000000000081525080519060200120838051906020012014156110dc57601460008573ffffffffffffffffffffffffffffffffffffffff1673ffffffffffffffffffffffffffffffffffffffff168152602001908152602001600020549050611324565b6040518060400160405280600681526020017f5175617272790000000000000000000000000000000000000000000000000000815250805190602001208380519060200120141561116e57601560008573ffffffffffffffffffffffffffffffffffffffff1673ffffffffffffffffffffffffffffffffffffffff168152602001908152602001600020549050611323565b6040518060400160405280600781526020017f5361776d696c6c00000000000000000000000000000000000000000000000000815250805190602001208380519060200120141561120057601660008573ffffffffffffffffffffffffffffffffffffffff1673ffffffffffffffffffffffffffffffffffffffff168152602001908152602001600020549050611322565b6040518060400160405280600681526020017f43656c6c61720000000000000000000000000000000000000000000000000000815250805190602001208380519060200120141561129257601760008573ffffffffffffffffffffffffffffffffffffffff1673ffffffffffffffffffffffffffffffffffffffff168152602001908152602001600020549050611321565b6040518060400160405280600781526020017f4261727261636b00000000000000000000000000000000000000000000000000815250805190602001208380519060200120141561132057601860008573ffffffffffffffffffffffffffffffffffffffff1673ffffffffffffffffffffffffffffffffffffffff1681526020019081526020016000205490505b5b5b5b5b5b5b6060816040519080825280602002602001820160405280156113575781602001602082028038833980820191505090505b509050600080905060008090505b600c805490508110156114ad578673ffffffffffffffffffffffffffffffffffffffff16600e600083815260200190815260200160002060009054906101000a900473ffffffffffffffffffffffffffffffffffffffff1673ffffffffffffffffffffffffffffffffffffffff1614801561146b57508580519060200120600c82815481106113f057fe5b9060005260206000209060040201600001604051808280546001816001161561010002031660029004801561145c5780601f1061143a57610100808354040283529182019161145c565b820191906000526020600020905b815481529060010190602001808311611448575b50509150506040518091039020145b156114a0578083838151811061147d57fe5b60200260200101818152505061149d6001836122c890919063ffffffff16565b91505b8080600101915050611365565b5081935050505092915050565b60086020528060005260406000206000915090505481565b600c81815481106114df57fe5b9060005260206000209060040201600091509050806000018054600181600116156101000203166002900480601f01602080910402602001604051908101604052809291908181526020018280546001816001161561010002031660029004801561158b5780601f106115605761010080835404028352916020019161158b565b820191906000526020600020905b81548152906001019060200180831161156e57829003601f168201915b5050505050908060010154908060020154908060030154905084565b60056020528060005260406000206000915090505481565b600e6020528060005260406000206000915054906101000a900473ffffffffffffffffffffffffffffffffffffffff1681565b600080601060008473ffffffffffffffffffffffffffffffffffffffff1673ffffffffffffffffffffffffffffffffffffffff1681526020019081526020016000205490506000600f60008573ffffffffffffffffffffffffffffffffffffffff1673ffffffffffffffffffffffffffffffffffffffff16815260200190815260200160002054141580156116ea5750600b54600c828154811061169257fe5b90600052602060002090600402016003015402600f60008573ffffffffffffffffffffffffffffffffffffffff1673ffffffffffffffffffffffffffffffffffffffff16815260200190815260200160002054014210155b156117d7576117216001600c838154811061170157fe5b9060005260206000209060040201600301546122c890919063ffffffff16565b600c828154811061172e57fe5b9060005260206000209060040201600301819055506000600f60008573ffffffffffffffffffffffffffffffffffffffff1673ffffffffffffffffffffffffffffffffffffffff168152602001908152602001600020819055506000601060008573ffffffffffffffffffffffffffffffffffffffff1673ffffffffffffffffffffffffffffffffffffffff168152602001908152602001600020819055506000915050611847565b600042600b54600c84815481106117ea57fe5b90600052602060002090600402016003015402600f60008773ffffffffffffffffffffffffffffffffffffffff1673ffffffffffffffffffffffffffffffffffffffff168152602001908152602001600020540103905080925050505b919050565b6000600260003373ffffffffffffffffffffffffffffffffffffffff1673ffffffffffffffffffffffffffffffffffffffff16815260200190815260200160002054905090565b6000600360003373ffffffffffffffffffffffffffffffffffffffff1673ffffffffffffffffffffffffffffffffffffffff16815260200190815260200160002054905090565b600080600090505b600654811015611967573373ffffffffffffffffffffffffffffffffffffffff166007600083815260200190815260200160002060009054906101000a900473ffffffffffffffffffffffffffffffffffffffff1673ffffffffffffffffffffffffffffffffffffffff16141561195c578091505061196e565b8060010190506118e2565b5060065490505b90565b6000600654905090565b60016020528060005260406000206000915090505481565b606080601860008473ffffffffffffffffffffffffffffffffffffffff1673ffffffffffffffffffffffffffffffffffffffff16815260200190815260200160002054601760008573ffffffffffffffffffffffffffffffffffffffff1673ffffffffffffffffffffffffffffffffffffffff16815260200190815260200160002054601660008673ffffffffffffffffffffffffffffffffffffffff1673ffffffffffffffffffffffffffffffffffffffff16815260200190815260200160002054601560008773ffffffffffffffffffffffffffffffffffffffff1673ffffffffffffffffffffffffffffffffffffffff16815260200190815260200160002054601460008873ffffffffffffffffffffffffffffffffffffffff1673ffffffffffffffffffffffffffffffffffffffff16815260200190815260200160002054601360008973ffffffffffffffffffffffffffffffffffffffff1673ffffffffffffffffffffffffffffffffffffffff16815260200190815260200160002054601260008a73ffffffffffffffffffffffffffffffffffffffff1673ffffffffffffffffffffffffffffffffffffffff16815260200190815260200160002054010101010101604051908082528060200260200182016040528015611b8a5781602001602082028038833980820191505090505b509050600080905060008090505b600c80549050811015611c49578473ffffffffffffffffffffffffffffffffffffffff16600e600083815260200190815260200160002060009054906101000a900473ffffffffffffffffffffffffffffffffffffffff1673ffffffffffffffffffffffffffffffffffffffff161415611c3c5780838381518110611c1957fe5b602002602001018181525050611c396001836122c890919063ffffffff16565b91505b8080600101915050611b98565b508192505050919050565b6000606060008090505b600c80549050811015611df4578573ffffffffffffffffffffffffffffffffffffffff16600e600083815260200190815260200160002060009054906101000a900473ffffffffffffffffffffffffffffffffffffffff1673ffffffffffffffffffffffffffffffffffffffff161415611de75784600c8281548110611ce057fe5b906000526020600020906004020160010154148015611d1c575083600c8281548110611d0857fe5b906000526020600020906004020160020154145b15611de65780600c8281548110611d2f57fe5b9060005260206000209060040201600001808054600181600116156101000203166002900480601f016020809104026020016040519081016040528092919081815260200182805460018160011615610100020316600290048015611dd55780601f10611daa57610100808354040283529160200191611dd5565b820191906000526020600020905b815481529060010190602001808311611db857829003601f168201915b505050505090509250925050611e35565b5b8080600101915050611c5e565b60008090506040518060400160405280600481526020017f4e6f6e650000000000000000000000000000000000000000000000000000000081525092509250505b935093915050565b60046020528060005260406000206000915090505481565b600080600860003373ffffffffffffffffffffffffffffffffffffffff1673ffffffffffffffffffffffffffffffffffffffff168152602001908152602001600020541115611ea75760019050611eac565b600090505b90565b600080611ebd858585611c54565b50809150506000811415611ed55760009150506120d2565b6040518060400160405280600681526020017f436173746c65000000000000000000000000000000000000000000000000000081525080519060200120600c8281548110611f1f57fe5b90600052602060002090600402016000016040518082805460018160011615610100020316600290048015611f8b5780601f10611f69576101008083540402835291820191611f8b565b820191906000526020600020905b815481529060010190602001808311611f77575b5050915050604051809103902050506000600f60008773ffffffffffffffffffffffffffffffffffffffff1673ffffffffffffffffffffffffffffffffffffffff1681526020019081526020016000205414611feb5760009150506120d2565b80601060008773ffffffffffffffffffffffffffffffffffffffff1673ffffffffffffffffffffffffffffffffffffffff1681526020019081526020016000208190555042600f60008773ffffffffffffffffffffffffffffffffffffffff1673ffffffffffffffffffffffffffffffffffffffff168152602001908152602001600020819055506000600d54600c838154811061208557fe5b9060005260206000209060040201600301540290506120a986600083848586612350565b50600b54600c83815481106120ba57fe5b90600052602060002090600402016003015402925050505b9392505050565b6000600c80549050905090565b600060065482101561216c57600560006007600085815260200190815260200160002060009054906101000a900473ffffffffffffffffffffffffffffffffffffffff1673ffffffffffffffffffffffffffffffffffffffff1673ffffffffffffffffffffffffffffffffffffffff168152602001908152602001600020549050612171565b600090505b919050565b6000600460003373ffffffffffffffffffffffffffffffffffffffff1673ffffffffffffffffffffffffffffffffffffffff16815260200190815260200160002054905090565b6000601060008373ffffffffffffffffffffffffffffffffffffffff1673ffffffffffffffffffffffffffffffffffffffff168152602001908152602001600020549050919050565b60006020528060005260406000206000915090505481565b60026020528060005260406000206000915090505481565b60036020528060005260406000206000915090505481565b60076020528060005260406000206000915054906101000a900473ffffffffffffffffffffffffffffffffffffffff1681565b6000600160003373ffffffffffffffffffffffffffffffffffffffff1673ffffffffffffffffffffffffffffffffffffffff16815260200190815260200160002054905090565b600080828401905083811015612346576040517f08c379a000000000000000000000000000000000000000000000000000000000815260040180806020018281038252601b8152602001807f536166654d6174683a206164646974696f6e206f766572666c6f77000000000081525060200191505060405180910390fd5b8091505092915050565b600085600260008973ffffffffffffffffffffffffffffffffffffffff1673ffffffffffffffffffffffffffffffffffffffff16815260200190815260200160002054101580156123e0575084600460008973ffffffffffffffffffffffffffffffffffffffff1673ffffffffffffffffffffffffffffffffffffffff1681526020019081526020016000205410155b801561242b575083600160008973ffffffffffffffffffffffffffffffffffffffff1673ffffffffffffffffffffffffffffffffffffffff1681526020019081526020016000205410155b80156124755750826000808973ffffffffffffffffffffffffffffffffffffffff1673ffffffffffffffffffffffffffffffffffffffff1681526020019081526020016000205410155b80156124c0575081600360008973ffffffffffffffffffffffffffffffffffffffff1673ffffffffffffffffffffffffffffffffffffffff1681526020019081526020016000205410155b156127b55761251786600260008a73ffffffffffffffffffffffffffffffffffffffff1673ffffffffffffffffffffffffffffffffffffffff168152602001908152602001600020546127c490919063ffffffff16565b600260008973ffffffffffffffffffffffffffffffffffffffff1673ffffffffffffffffffffffffffffffffffffffff168152602001908152602001600020819055506125ac85600460008a73ffffffffffffffffffffffffffffffffffffffff1673ffffffffffffffffffffffffffffffffffffffff168152602001908152602001600020546127c490919063ffffffff16565b600460008973ffffffffffffffffffffffffffffffffffffffff1673ffffffffffffffffffffffffffffffffffffffff1681526020019081526020016000208190555061264184600160008a73ffffffffffffffffffffffffffffffffffffffff1673ffffffffffffffffffffffffffffffffffffffff168152602001908152602001600020546127c490919063ffffffff16565b600160008973ffffffffffffffffffffffffffffffffffffffff1673ffffffffffffffffffffffffffffffffffffffff168152602001908152602001600020819055506126d5836000808a73ffffffffffffffffffffffffffffffffffffffff1673ffffffffffffffffffffffffffffffffffffffff168152602001908152602001600020546127c490919063ffffffff16565b6000808973ffffffffffffffffffffffffffffffffffffffff1673ffffffffffffffffffffffffffffffffffffffff1681526020019081526020016000208190555061276982600360008a73ffffffffffffffffffffffffffffffffffffffff1673ffffffffffffffffffffffffffffffffffffffff168152602001908152602001600020546127c490919063ffffffff16565b600360008973ffffffffffffffffffffffffffffffffffffffff1673ffffffffffffffffffffffffffffffffffffffff16815260200190815260200160002081905550600190506127ba565b600090505b9695505050505050565b600061280683836040518060400160405280601e81526020017f536166654d6174683a207375627472616374696f6e206f766572666c6f77000081525061280e565b905092915050565b60008383111582906128bb576040517f08c379a00000000000000000000000000000000000000000000000000000000081526004018080602001828103825283818151815260200191508051906020019080838360005b83811015612880578082015181840152602081019050612865565b50505050905090810190601f1680156128ad5780820380516001836020036101000a031916815260200191505b509250505060405180910390fd5b506000838503905080915050939250505056fea265627a7a72315820c040f884cbff18b1b6402c91ec7481dd205be786d515733799202c78bba9ea7d64736f6c63430005100032",
  "source": "pragma solidity >=0.4.21 <0.7.0;\n\nimport \"./SafeMath.sol\";\nimport \"./Account.sol\";\n\ncontract BuildingFactory is Account {\n    \n    using SafeMath for uint;\n    \n    struct Building {\n        string name;\n        uint placeX;\n        uint placeY;\n        uint level;\n    }\n\n    uint buildTimeNeed = 10;\n    Building[] public buildings;\n    uint buildResourceNeed = 100;\n\n    mapping (uint => address) public buildingToOwner;\n    mapping (address => uint) ownerStartBuildTime;\n    mapping (address => uint) ownerBuildingId; //the building that is building\n    mapping (address => uint) castleLevel;\n\n    mapping (address => uint) ownerFarmCount;\n    mapping (address => uint) ownerMineCount;\n    mapping (address => uint) ownerManorCount;\n    mapping (address => uint) ownerQuarryCount;\n    mapping (address => uint) ownerSawmillCount;\n    mapping (address => uint) ownerCellarCount;\n    mapping (address => uint) ownerBarrackCount;\n\n\n    function _createBuilding(address _creator, string memory _name, uint _x, uint _y) internal returns(uint){\n        if(buildings.length == 0) {\n            buildings.push(Building(\"first_building!\", 0, 0, 1000));\n            buildingToOwner[0] = address(0);\n        }\n        uint id = buildings.push(Building(_name, _x, _y, 1)).sub(1);\n        _cost(_creator, 0, buildResourceNeed, buildResourceNeed, buildResourceNeed, buildResourceNeed);\n        buildingToOwner[id] = _creator;\n        if (keccak256(bytes(_name)) == keccak256(bytes(\"Farm\"))) {\n            ownerFarmCount[_creator] = ownerFarmCount[_creator].add(1);\n        }\n        else if (keccak256(bytes(_name)) == keccak256(bytes(\"Mine\"))) {\n            ownerMineCount[_creator] = ownerMineCount[_creator].add(1);\n        }\n        else if (keccak256(bytes(_name)) == keccak256(bytes(\"Manor\"))) {\n            ownerManorCount[_creator] = ownerManorCount[_creator].add(1);\n        }\n        else if (keccak256(bytes(_name)) == keccak256(bytes(\"Quarry\"))) {\n            ownerQuarryCount[_creator] = ownerQuarryCount[_creator].add(1);\n        }\n        else if (keccak256(bytes(_name)) == keccak256(bytes(\"Sawmill\"))) {\n            ownerSawmillCount[_creator] = ownerSawmillCount[_creator].add(1);\n        }\n        else if (keccak256(bytes(_name)) == keccak256(bytes(\"Cellar\"))) {\n            ownerCellarCount[_creator] = ownerCellarCount[_creator].add(1);\n        }\n        else if (keccak256(bytes(_name)) == keccak256(bytes(\"Barrack\"))) {\n            ownerBarrackCount[_creator] = ownerBarrackCount[_creator].add(1);\n        }\n        return id;\n    }\n\n    function startBuild(address _owner, uint _x, uint _y) public returns(uint){\n        uint buildingID;\n        (buildingID,) = getBuildingByOwner(_owner, _x, _y);\n        if(buildingID == 0) return 0;\n        if (keccak256(bytes(buildings[buildingID].name)) != keccak256(bytes(\"Castle\"))) {\n            // require(castleLevel[_owner] >= buildings[buildingID].level.add(1));\n        }\n        if(ownerStartBuildTime[_owner] != 0)  return 0;\n        ownerBuildingId[_owner] = buildingID;\n        ownerStartBuildTime[_owner] = now;\n        uint buildingResourceNeed = buildings[buildingID].level * buildResourceNeed;\n        _cost(_owner, 0, buildingResourceNeed, buildingResourceNeed, buildingResourceNeed, buildingResourceNeed);\n        return buildings[buildingID].level * buildTimeNeed;\n    }\n\n    function getRemainingTime(address _owner) public view returns(uint) {\n        uint buildingID = ownerBuildingId[_owner];\n        if (ownerStartBuildTime[_owner] != 0 && now >= ownerStartBuildTime[_owner] + buildings[buildingID].level * buildTimeNeed) {\n            return 0;\n        }\n        else {\n            uint remainingTime = ownerStartBuildTime[_owner] + buildings[buildingID].level * buildTimeNeed - now;\n            return remainingTime;\n        }\n    }\n\n    function getUpgradingId(address _owner) public view returns(uint) {\n        return ownerBuildingId[_owner];\n    }\n    \n    function updateBuild(address _owner) public returns(uint){\n        uint buildingID = ownerBuildingId[_owner];\n        if (ownerStartBuildTime[_owner] != 0 && now >= ownerStartBuildTime[_owner] + buildings[buildingID].level * buildTimeNeed) {\n            buildings[buildingID].level = buildings[buildingID].level.add(1);\n            ownerStartBuildTime[_owner] = 0;\n            ownerBuildingId[_owner] = 0;\n            return 0;\n        }\n        else {\n            uint remainingTime = ownerStartBuildTime[_owner] + buildings[buildingID].level * buildTimeNeed - now;\n            return remainingTime;\n        }\n    }\n\n    function getBuildingById(uint idx) public view returns(bool, string memory, uint) {\n        if(idx >= buildings.length) {\n            return (false, \"invalid building id\", 0);\n        }\n        else {\n            return (true, buildings[idx].name, buildings[idx].level);\n        }\n    }\n\n    function getBuildingsLen() public view returns(uint) {\n        return buildings.length;\n    }\n\n    function getBuildingByOwner(address _owner, uint _placeX, uint _placeY) public view returns(uint, string memory) {\n        uint i = 0;\n        for (i; i < buildings.length; i++) {\n            if (buildingToOwner[i] == _owner) {\n                if (buildings[i].placeX == _placeX && buildings[i].placeY == _placeY) {\n                    return (i, buildings[i].name);\n                }\n            }\n        }\n        return (0, \"None\");\n    }\n\n    function getBuildingsByOwner(address _owner) public view returns(uint[] memory) {\n        uint[] memory result = new uint[](ownerFarmCount[_owner] + ownerMineCount[_owner] + ownerManorCount[_owner] + ownerQuarryCount[_owner] + ownerSawmillCount[_owner] + ownerCellarCount[_owner] + ownerBarrackCount[_owner]);\n        uint counter = 0;\n        for (uint i = 0; i < buildings.length; i++) {\n            if (buildingToOwner[i] == _owner) {\n                result[counter] = i;\n                counter = counter.add(1);\n            }\n        }\n        return result;\n    }\n\n    function getSpecificBuildingByOwner(address _owner, string memory _name) public view returns(uint[] memory) {\n        uint buildingsLength = 0;\n        if (keccak256(bytes(_name)) == keccak256(bytes(\"Farm\"))) {\n           buildingsLength = ownerFarmCount[_owner];\n        }\n        else if (keccak256(bytes(_name)) == keccak256(bytes(\"Mine\"))) {\n            buildingsLength = ownerMineCount[_owner];\n        }\n        else if (keccak256(bytes(_name)) == keccak256(bytes(\"Manor\"))) {\n            buildingsLength = ownerManorCount[_owner];\n        }\n        else if (keccak256(bytes(_name)) == keccak256(bytes(\"Quarry\"))) {\n            buildingsLength = ownerQuarryCount[_owner];\n        }\n        else if (keccak256(bytes(_name)) == keccak256(bytes(\"Sawmill\"))) {\n            buildingsLength = ownerSawmillCount[_owner];\n        }\n        else if (keccak256(bytes(_name)) == keccak256(bytes(\"Cellar\"))) {\n            buildingsLength = ownerCellarCount[_owner];\n        }\n        else if (keccak256(bytes(_name)) == keccak256(bytes(\"Barrack\"))) {\n            buildingsLength = ownerBarrackCount[_owner];\n        }\n        uint[] memory result = new uint[](buildingsLength);\n        // result.push(0);\n        uint counter = 0;\n        for (uint i = 0; i < buildings.length; i++) {\n            if (buildingToOwner[i] == _owner && keccak256(bytes(buildings[i].name)) == keccak256(bytes(_name))) {\n                result[counter] = i;\n                counter = counter.add(1);\n            }\n        }\n        return result;\n    }\n    \n}",
  "sourcePath": "/Users/cyl/Downloads/NmlabFinal-main/contracts/BuildingFactory.sol",
  "compiler": {
    "name": "solc",
    "version": "0.5.16+commit.9c3226ce.Emscripten.clang"
  },
  "schemaVersion": "3.4.1",
  "updatedAt": "2021-05-26T14:22:57.803Z",
  "devdoc": {
    "methods": {}
  },
  "userdoc": {
    "methods": {}
  }
}