{
  "contractName": "BuildingFactory",
  "abi": [
    {
      "inputs": [
        {
          "internalType": "address",
          "name": "_account_address",
          "type": "address"
        }
      ],
      "payable": false,
      "stateMutability": "nonpayable",
      "type": "constructor"
    },
    {
      "constant": true,
      "inputs": [
        {
          "internalType": "uint256",
          "name": "",
          "type": "uint256"
        }
      ],
      "name": "buildingToOwner",
      "outputs": [
        {
          "internalType": "address",
          "name": "",
          "type": "address"
        }
      ],
      "payable": false,
      "stateMutability": "view",
      "type": "function"
    },
    {
      "constant": true,
      "inputs": [
        {
          "internalType": "uint256",
          "name": "",
          "type": "uint256"
        }
      ],
      "name": "buildings",
      "outputs": [
        {
          "internalType": "string",
          "name": "name",
          "type": "string"
        },
        {
          "internalType": "uint256",
          "name": "placeX",
          "type": "uint256"
        },
        {
          "internalType": "uint256",
          "name": "placeY",
          "type": "uint256"
        },
        {
          "internalType": "uint256",
          "name": "level",
          "type": "uint256"
        }
      ],
      "payable": false,
      "stateMutability": "view",
      "type": "function"
    },
    {
      "constant": true,
      "inputs": [
        {
          "internalType": "uint256",
          "name": "buildingId",
          "type": "uint256"
        }
      ],
      "name": "getBuildingLevel",
      "outputs": [
        {
          "internalType": "uint256",
          "name": "",
          "type": "uint256"
        }
      ],
      "payable": false,
      "stateMutability": "view",
      "type": "function"
    },
    {
      "constant": false,
      "inputs": [
        {
          "internalType": "address",
          "name": "_creator",
          "type": "address"
        },
        {
          "internalType": "string",
          "name": "_name",
          "type": "string"
        },
        {
          "internalType": "uint256",
          "name": "_x",
          "type": "uint256"
        },
        {
          "internalType": "uint256",
          "name": "_y",
          "type": "uint256"
        }
      ],
      "name": "_createBuilding",
      "outputs": [
        {
          "internalType": "uint256",
          "name": "",
          "type": "uint256"
        }
      ],
      "payable": false,
      "stateMutability": "nonpayable",
      "type": "function"
    },
    {
      "constant": false,
      "inputs": [
        {
          "internalType": "address",
          "name": "_owner",
          "type": "address"
        },
        {
          "internalType": "uint256",
          "name": "_x",
          "type": "uint256"
        },
        {
          "internalType": "uint256",
          "name": "_y",
          "type": "uint256"
        }
      ],
      "name": "startBuild",
      "outputs": [
        {
          "internalType": "uint256",
          "name": "",
          "type": "uint256"
        }
      ],
      "payable": false,
      "stateMutability": "nonpayable",
      "type": "function"
    },
    {
      "constant": true,
      "inputs": [
        {
          "internalType": "address",
          "name": "_owner",
          "type": "address"
        }
      ],
      "name": "getRemainingTime",
      "outputs": [
        {
          "internalType": "uint256",
          "name": "",
          "type": "uint256"
        }
      ],
      "payable": false,
      "stateMutability": "view",
      "type": "function"
    },
    {
      "constant": true,
      "inputs": [
        {
          "internalType": "address",
          "name": "_owner",
          "type": "address"
        }
      ],
      "name": "getUpgradingId",
      "outputs": [
        {
          "internalType": "uint256",
          "name": "",
          "type": "uint256"
        }
      ],
      "payable": false,
      "stateMutability": "view",
      "type": "function"
    },
    {
      "constant": false,
      "inputs": [
        {
          "internalType": "address",
          "name": "_owner",
          "type": "address"
        }
      ],
      "name": "updateBuild",
      "outputs": [
        {
          "internalType": "uint256",
          "name": "",
          "type": "uint256"
        }
      ],
      "payable": false,
      "stateMutability": "nonpayable",
      "type": "function"
    },
    {
      "constant": true,
      "inputs": [
        {
          "internalType": "uint256",
          "name": "idx",
          "type": "uint256"
        }
      ],
      "name": "getBuildingById",
      "outputs": [
        {
          "internalType": "bool",
          "name": "",
          "type": "bool"
        },
        {
          "internalType": "string",
          "name": "",
          "type": "string"
        },
        {
          "internalType": "uint256",
          "name": "",
          "type": "uint256"
        }
      ],
      "payable": false,
      "stateMutability": "view",
      "type": "function"
    },
    {
      "constant": true,
      "inputs": [],
      "name": "getBuildingsLen",
      "outputs": [
        {
          "internalType": "uint256",
          "name": "",
          "type": "uint256"
        }
      ],
      "payable": false,
      "stateMutability": "view",
      "type": "function"
    },
    {
      "constant": true,
      "inputs": [
        {
          "internalType": "address",
          "name": "_owner",
          "type": "address"
        },
        {
          "internalType": "uint256",
          "name": "_placeX",
          "type": "uint256"
        },
        {
          "internalType": "uint256",
          "name": "_placeY",
          "type": "uint256"
        }
      ],
      "name": "getBuildingByOwner",
      "outputs": [
        {
          "internalType": "uint256",
          "name": "",
          "type": "uint256"
        },
        {
          "internalType": "string",
          "name": "",
          "type": "string"
        }
      ],
      "payable": false,
      "stateMutability": "view",
      "type": "function"
    },
    {
      "constant": true,
      "inputs": [
        {
          "internalType": "address",
          "name": "_owner",
          "type": "address"
        }
      ],
      "name": "getBuildingsByOwner",
      "outputs": [
        {
          "internalType": "uint256[]",
          "name": "",
          "type": "uint256[]"
        }
      ],
      "payable": false,
      "stateMutability": "view",
      "type": "function"
    },
    {
      "constant": true,
      "inputs": [
        {
          "internalType": "address",
          "name": "_owner",
          "type": "address"
        },
        {
          "internalType": "string",
          "name": "_name",
          "type": "string"
        }
      ],
      "name": "getSpecificBuildingByOwner",
      "outputs": [
        {
          "internalType": "uint256[]",
          "name": "",
          "type": "uint256[]"
        }
      ],
      "payable": false,
      "stateMutability": "view",
      "type": "function"
    },
    {
      "constant": false,
      "inputs": [
        {
          "internalType": "uint256",
          "name": "_x",
          "type": "uint256"
        },
        {
          "internalType": "uint256",
          "name": "_y",
          "type": "uint256"
        }
      ],
      "name": "createCastle",
      "outputs": [],
      "payable": false,
      "stateMutability": "nonpayable",
      "type": "function"
    }
  ],
  "bytecode": "0x6080604052600a600155606460035534801561001a57600080fd5b50604051612bce380380612bce8339818101604052602081101561003d57600080fd5b8101908080519060200190929190505050806000806101000a81548173ffffffffffffffffffffffffffffffffffffffff021916908373ffffffffffffffffffffffffffffffffffffffff16021790555050612b308061009e6000396000f3fe608060405234801561001057600080fd5b50600436106100ea5760003560e01c806382a418281161008c578063ad1c89cc11610066578063ad1c89cc14610792578063b2e25415146107b0578063d1405a4e146107f2578063db2ace2a1461082a576100ea565b806382a41828146105b5578063842a89fa1461064e578063aba19ece14610726576100ea565b80632c79c523116100c85780632c79c523146103035780634c96a062146104335780635192b291146104ef578063560742091461055d576100ea565b80630e85117a146100ef5780630f130a391461014757806321241b3f14610200575b600080fd5b6101316004803603602081101561010557600080fd5b81019080803573ffffffffffffffffffffffffffffffffffffffff169060200190929190505050610882565b6040518082815260200191505060405180910390f35b6101736004803603602081101561015d57600080fd5b81019080803590602001909291905050506109fe565b604051808415151515815260200180602001838152602001828103825284818151815260200191508051906020019080838360005b838110156101c35780820151818401526020810190506101a8565b50505050905090810190601f1680156101f05780820380516001836020036101000a031916815260200191505b5094505050505060405180910390f35b6102ed6004803603608081101561021657600080fd5b81019080803573ffffffffffffffffffffffffffffffffffffffff1690602001909291908035906020019064010000000081111561025357600080fd5b82018360208201111561026557600080fd5b8035906020019184600183028401116401000000008311171561028757600080fd5b91908080601f016020809104026020016040519081016040528093929190818152602001838380828437600081840152601f19601f8201169050808301925050505050505091929192908035906020019092919080359060200190929190505050610b41565b6040518082815260200191505060405180910390f35b6103dc6004803603604081101561031957600080fd5b81019080803573ffffffffffffffffffffffffffffffffffffffff1690602001909291908035906020019064010000000081111561035657600080fd5b82018360208201111561036857600080fd5b8035906020019184600183028401116401000000008311171561038a57600080fd5b91908080601f016020809104026020016040519081016040528093929190818152602001838380828437600081840152601f19601f8201169050808301925050505050505091929192905050506115aa565b6040518080602001828103825283818151815260200191508051906020019060200280838360005b8381101561041f578082015181840152602081019050610404565b505050509050019250505060405180910390f35b61045f6004803603602081101561044957600080fd5b8101908080359060200190929190505050611bd8565b6040518080602001858152602001848152602001838152602001828103825286818151815260200191508051906020019080838360005b838110156104b1578082015181840152602081019050610496565b50505050905090810190601f1680156104de5780820380516001836020036101000a031916815260200191505b509550505050505060405180910390f35b61051b6004803603602081101561050557600080fd5b8101908080359060200190929190505050611cad565b604051808273ffffffffffffffffffffffffffffffffffffffff1673ffffffffffffffffffffffffffffffffffffffff16815260200191505060405180910390f35b61059f6004803603602081101561057357600080fd5b81019080803573ffffffffffffffffffffffffffffffffffffffff169060200190929190505050611ce0565b6040518082815260200191505060405180910390f35b6105f7600480360360208110156105cb57600080fd5b81019080803573ffffffffffffffffffffffffffffffffffffffff169060200190929190505050611f3a565b6040518080602001828103825283818151815260200191508051906020019060200280838360005b8381101561063a57808201518184015260208101905061061f565b505050509050019250505060405180910390f35b6106a46004803603606081101561066457600080fd5b81019080803573ffffffffffffffffffffffffffffffffffffffff16906020019092919080359060200190929190803590602001909291905050506121fb565b6040518083815260200180602001828103825283818151815260200191508051906020019080838360005b838110156106ea5780820151818401526020810190506106cf565b50505050905090810190601f1680156107175780820380516001836020036101000a031916815260200191505b50935050505060405180910390f35b61077c6004803603606081101561073c57600080fd5b81019080803573ffffffffffffffffffffffffffffffffffffffff16906020019092919080359060200190929190803590602001909291905050506123e4565b6040518082815260200191505060405180910390f35b61079a612703565b6040518082815260200191505060405180910390f35b6107dc600480360360208110156107c657600080fd5b8101908080359060200190929190505050612710565b6040518082815260200191505060405180910390f35b6108286004803603604081101561080857600080fd5b810190808035906020019092919080359060200190929190505050612738565b005b61086c6004803603602081101561084057600080fd5b81019080803573ffffffffffffffffffffffffffffffffffffffff16906020019092919050505061287b565b6040518082815260200191505060405180910390f35b600080600660008473ffffffffffffffffffffffffffffffffffffffff1673ffffffffffffffffffffffffffffffffffffffff1681526020019081526020016000205490506000600560008573ffffffffffffffffffffffffffffffffffffffff1673ffffffffffffffffffffffffffffffffffffffff168152602001908152602001600020541415801561097a57506001546002828154811061092257fe5b90600052602060002090600402016003015402600560008573ffffffffffffffffffffffffffffffffffffffff1673ffffffffffffffffffffffffffffffffffffffff16815260200190815260200160002054014210155b156109895760009150506109f9565b6000426001546002848154811061099c57fe5b90600052602060002090600402016003015402600560008773ffffffffffffffffffffffffffffffffffffffff1673ffffffffffffffffffffffffffffffffffffffff168152602001908152602001600020540103905080925050505b919050565b6000606060006002805490508410610a58576000806040518060400160405280601381526020017f696e76616c6964206275696c64696e672069640000000000000000000000000081525090809050925092509250610b3a565b600160028581548110610a6757fe5b906000526020600020906004020160000160028681548110610a8557fe5b906000526020600020906004020160030154818054600181600116156101000203166002900480601f016020809104026020016040519081016040528092919081815260200182805460018160011615610100020316600290048015610b2c5780601f10610b0157610100808354040283529160200191610b2c565b820191906000526020600020905b815481529060010190602001808311610b0f57829003601f168201915b505050505091509250925092505b9193909250565b6000806002805490501415610c6957600260405180608001604052806040518060400160405280600f81526020017f66697273745f6275696c64696e67210000000000000000000000000000000000815250815260200160008152602001600081526020016103e8815250908060018154018082558091505090600182039060005260206000209060040201600090919290919091506000820151816000019080519060200190610bf3929190612a56565b5060208201518160010155604082015181600201556060820151816003015550505060006004600080815260200190815260200160002060006101000a81548173ffffffffffffffffffffffffffffffffffffffff021916908373ffffffffffffffffffffffffffffffffffffffff1602179055505b6000610d0a6001600260405180608001604052808981526020018881526020018781526020016001815250908060018154018082558091505090600182039060005260206000209060040201600090919290919091506000820151816000019080519060200190610cdb929190612a56565b5060208201518160010155604082015181600201556060820151816003015550506128c490919063ffffffff16565b90506000809054906101000a900473ffffffffffffffffffffffffffffffffffffffff1673ffffffffffffffffffffffffffffffffffffffff16631e9ac0bf8760006003546003546003546003546040518763ffffffff1660e01b8152600401808773ffffffffffffffffffffffffffffffffffffffff1673ffffffffffffffffffffffffffffffffffffffff1681526020018681526020018581526020018481526020018381526020018281526020019650505050505050602060405180830381600087803b158015610ddd57600080fd5b505af1158015610df1573d6000803e3d6000fd5b505050506040513d6020811015610e0757600080fd5b810190808051906020019092919050505050856004600083815260200190815260200160002060006101000a81548173ffffffffffffffffffffffffffffffffffffffff021916908373ffffffffffffffffffffffffffffffffffffffff1602179055506040518060400160405280600481526020017f4661726d000000000000000000000000000000000000000000000000000000008152508051906020012085805190602001201415610f5157610f096001600860008973ffffffffffffffffffffffffffffffffffffffff1673ffffffffffffffffffffffffffffffffffffffff1681526020019081526020016000205461290e90919063ffffffff16565b600860008873ffffffffffffffffffffffffffffffffffffffff1673ffffffffffffffffffffffffffffffffffffffff1681526020019081526020016000208190555061159e565b6040518060400160405280600481526020017f4d696e6500000000000000000000000000000000000000000000000000000000815250805190602001208580519060200120141561103757610fef6001600960008973ffffffffffffffffffffffffffffffffffffffff1673ffffffffffffffffffffffffffffffffffffffff1681526020019081526020016000205461290e90919063ffffffff16565b600960008873ffffffffffffffffffffffffffffffffffffffff1673ffffffffffffffffffffffffffffffffffffffff1681526020019081526020016000208190555061159d565b6040518060400160405280600581526020017f4d616e6f72000000000000000000000000000000000000000000000000000000815250805190602001208580519060200120141561111d576110d56001600a60008973ffffffffffffffffffffffffffffffffffffffff1673ffffffffffffffffffffffffffffffffffffffff1681526020019081526020016000205461290e90919063ffffffff16565b600a60008873ffffffffffffffffffffffffffffffffffffffff1673ffffffffffffffffffffffffffffffffffffffff1681526020019081526020016000208190555061159c565b6040518060400160405280600681526020017f51756172727900000000000000000000000000000000000000000000000000008152508051906020012085805190602001201415611203576111bb6001600b60008973ffffffffffffffffffffffffffffffffffffffff1673ffffffffffffffffffffffffffffffffffffffff1681526020019081526020016000205461290e90919063ffffffff16565b600b60008873ffffffffffffffffffffffffffffffffffffffff1673ffffffffffffffffffffffffffffffffffffffff1681526020019081526020016000208190555061159b565b6040518060400160405280600781526020017f5361776d696c6c0000000000000000000000000000000000000000000000000081525080519060200120858051906020012014156112e9576112a16001600c60008973ffffffffffffffffffffffffffffffffffffffff1673ffffffffffffffffffffffffffffffffffffffff1681526020019081526020016000205461290e90919063ffffffff16565b600c60008873ffffffffffffffffffffffffffffffffffffffff1673ffffffffffffffffffffffffffffffffffffffff1681526020019081526020016000208190555061159a565b6040518060400160405280600681526020017f43656c6c6172000000000000000000000000000000000000000000000000000081525080519060200120858051906020012014156113cf576113876001600d60008973ffffffffffffffffffffffffffffffffffffffff1673ffffffffffffffffffffffffffffffffffffffff1681526020019081526020016000205461290e90919063ffffffff16565b600d60008873ffffffffffffffffffffffffffffffffffffffff1673ffffffffffffffffffffffffffffffffffffffff16815260200190815260200160002081905550611599565b6040518060400160405280600781526020017f4261727261636b0000000000000000000000000000000000000000000000000081525080519060200120858051906020012014156114b55761146d6001600e60008973ffffffffffffffffffffffffffffffffffffffff1673ffffffffffffffffffffffffffffffffffffffff1681526020019081526020016000205461290e90919063ffffffff16565b600e60008873ffffffffffffffffffffffffffffffffffffffff1673ffffffffffffffffffffffffffffffffffffffff16815260200190815260200160002081905550611598565b6040518060400160405280600a81526020017f4c61626f7261746f7279000000000000000000000000000000000000000000008152508051906020012085805190602001201415611597576115536001600f60008973ffffffffffffffffffffffffffffffffffffffff1673ffffffffffffffffffffffffffffffffffffffff1681526020019081526020016000205461290e90919063ffffffff16565b600f60008873ffffffffffffffffffffffffffffffffffffffff1673ffffffffffffffffffffffffffffffffffffffff168152602001908152602001600020819055505b5b5b5b5b5b5b5b80915050949350505050565b606060008090506040518060400160405280600481526020017f4661726d00000000000000000000000000000000000000000000000000000000815250805190602001208380519060200120141561164357600860008573ffffffffffffffffffffffffffffffffffffffff1673ffffffffffffffffffffffffffffffffffffffff168152602001908152602001600020549050611a44565b6040518060400160405280600481526020017f4d696e650000000000000000000000000000000000000000000000000000000081525080519060200120838051906020012014156116d557600960008573ffffffffffffffffffffffffffffffffffffffff1673ffffffffffffffffffffffffffffffffffffffff168152602001908152602001600020549050611a43565b6040518060400160405280600581526020017f4d616e6f72000000000000000000000000000000000000000000000000000000815250805190602001208380519060200120141561176757600a60008573ffffffffffffffffffffffffffffffffffffffff1673ffffffffffffffffffffffffffffffffffffffff168152602001908152602001600020549050611a42565b6040518060400160405280600681526020017f517561727279000000000000000000000000000000000000000000000000000081525080519060200120838051906020012014156117f957600b60008573ffffffffffffffffffffffffffffffffffffffff1673ffffffffffffffffffffffffffffffffffffffff168152602001908152602001600020549050611a41565b6040518060400160405280600781526020017f5361776d696c6c00000000000000000000000000000000000000000000000000815250805190602001208380519060200120141561188b57600c60008573ffffffffffffffffffffffffffffffffffffffff1673ffffffffffffffffffffffffffffffffffffffff168152602001908152602001600020549050611a40565b6040518060400160405280600681526020017f43656c6c61720000000000000000000000000000000000000000000000000000815250805190602001208380519060200120141561191d57600d60008573ffffffffffffffffffffffffffffffffffffffff1673ffffffffffffffffffffffffffffffffffffffff168152602001908152602001600020549050611a3f565b6040518060400160405280600781526020017f4261727261636b0000000000000000000000000000000000000000000000000081525080519060200120838051906020012014156119af57600e60008573ffffffffffffffffffffffffffffffffffffffff1673ffffffffffffffffffffffffffffffffffffffff168152602001908152602001600020549050611a3e565b6040518060400160405280600a81526020017f4c61626f7261746f7279000000000000000000000000000000000000000000008152508051906020012083805190602001201415611a3d57600f60008573ffffffffffffffffffffffffffffffffffffffff1673ffffffffffffffffffffffffffffffffffffffff1681526020019081526020016000205490505b5b5b5b5b5b5b5b606081604051908082528060200260200182016040528015611a755781602001602082028038833980820191505090505b509050600080905060008090505b600280549050811015611bcb578673ffffffffffffffffffffffffffffffffffffffff166004600083815260200190815260200160002060009054906101000a900473ffffffffffffffffffffffffffffffffffffffff1673ffffffffffffffffffffffffffffffffffffffff16148015611b895750858051906020012060028281548110611b0e57fe5b90600052602060002090600402016000016040518082805460018160011615610100020316600290048015611b7a5780601f10611b58576101008083540402835291820191611b7a565b820191906000526020600020905b815481529060010190602001808311611b66575b50509150506040518091039020145b15611bbe5780838381518110611b9b57fe5b602002602001018181525050611bbb60018361290e90919063ffffffff16565b91505b8080600101915050611a83565b5081935050505092915050565b60028181548110611be557fe5b9060005260206000209060040201600091509050806000018054600181600116156101000203166002900480601f016020809104026020016040519081016040528092919081815260200182805460018160011615610100020316600290048015611c915780601f10611c6657610100808354040283529160200191611c91565b820191906000526020600020905b815481529060010190602001808311611c7457829003601f168201915b5050505050908060010154908060020154908060030154905084565b60046020528060005260406000206000915054906101000a900473ffffffffffffffffffffffffffffffffffffffff1681565b600080600660008473ffffffffffffffffffffffffffffffffffffffff1673ffffffffffffffffffffffffffffffffffffffff1681526020019081526020016000205490506000600560008573ffffffffffffffffffffffffffffffffffffffff1673ffffffffffffffffffffffffffffffffffffffff1681526020019081526020016000205414158015611dd8575060015460028281548110611d8057fe5b90600052602060002090600402016003015402600560008573ffffffffffffffffffffffffffffffffffffffff1673ffffffffffffffffffffffffffffffffffffffff16815260200190815260200160002054014210155b15611ec557611e0f600160028381548110611def57fe5b90600052602060002090600402016003015461290e90919063ffffffff16565b60028281548110611e1c57fe5b9060005260206000209060040201600301819055506000600560008573ffffffffffffffffffffffffffffffffffffffff1673ffffffffffffffffffffffffffffffffffffffff168152602001908152602001600020819055506000600660008573ffffffffffffffffffffffffffffffffffffffff1673ffffffffffffffffffffffffffffffffffffffff168152602001908152602001600020819055506000915050611f35565b60004260015460028481548110611ed857fe5b90600052602060002090600402016003015402600560008773ffffffffffffffffffffffffffffffffffffffff1673ffffffffffffffffffffffffffffffffffffffff168152602001908152602001600020540103905080925050505b919050565b606080600e60008473ffffffffffffffffffffffffffffffffffffffff1673ffffffffffffffffffffffffffffffffffffffff16815260200190815260200160002054600d60008573ffffffffffffffffffffffffffffffffffffffff1673ffffffffffffffffffffffffffffffffffffffff16815260200190815260200160002054600c60008673ffffffffffffffffffffffffffffffffffffffff1673ffffffffffffffffffffffffffffffffffffffff16815260200190815260200160002054600b60008773ffffffffffffffffffffffffffffffffffffffff1673ffffffffffffffffffffffffffffffffffffffff16815260200190815260200160002054600a60008873ffffffffffffffffffffffffffffffffffffffff1673ffffffffffffffffffffffffffffffffffffffff16815260200190815260200160002054600960008973ffffffffffffffffffffffffffffffffffffffff1673ffffffffffffffffffffffffffffffffffffffff16815260200190815260200160002054600860008a73ffffffffffffffffffffffffffffffffffffffff1673ffffffffffffffffffffffffffffffffffffffff168152602001908152602001600020540101010101016040519080825280602002602001820160405280156121315781602001602082028038833980820191505090505b509050600080905060008090505b6002805490508110156121f0578473ffffffffffffffffffffffffffffffffffffffff166004600083815260200190815260200160002060009054906101000a900473ffffffffffffffffffffffffffffffffffffffff1673ffffffffffffffffffffffffffffffffffffffff1614156121e357808383815181106121c057fe5b6020026020010181815250506121e060018361290e90919063ffffffff16565b91505b808060010191505061213f565b508192505050919050565b6000606060008090505b60028054905081101561239b578573ffffffffffffffffffffffffffffffffffffffff166004600083815260200190815260200160002060009054906101000a900473ffffffffffffffffffffffffffffffffffffffff1673ffffffffffffffffffffffffffffffffffffffff16141561238e57846002828154811061228757fe5b9060005260206000209060040201600101541480156122c3575083600282815481106122af57fe5b906000526020600020906004020160020154145b1561238d5780600282815481106122d657fe5b9060005260206000209060040201600001808054600181600116156101000203166002900480601f01602080910402602001604051908101604052809291908181526020018280546001816001161561010002031660029004801561237c5780601f106123515761010080835404028352916020019161237c565b820191906000526020600020905b81548152906001019060200180831161235f57829003601f168201915b5050505050905092509250506123dc565b5b8080600101915050612205565b60008090506040518060400160405280600481526020017f4e6f6e650000000000000000000000000000000000000000000000000000000081525092509250505b935093915050565b6000806123f28585856121fb565b5080915050600081141561240a5760009150506126fc565b6040518060400160405280600681526020017f436173746c650000000000000000000000000000000000000000000000000000815250805190602001206002828154811061245457fe5b906000526020600020906004020160000160405180828054600181600116156101000203166002900480156124c05780601f1061249e5761010080835404028352918201916124c0565b820191906000526020600020905b8154815290600101906020018083116124ac575b5050915050604051809103902050506000600560008773ffffffffffffffffffffffffffffffffffffffff1673ffffffffffffffffffffffffffffffffffffffff16815260200190815260200160002054146125205760009150506126fc565b80600660008773ffffffffffffffffffffffffffffffffffffffff1673ffffffffffffffffffffffffffffffffffffffff1681526020019081526020016000208190555042600560008773ffffffffffffffffffffffffffffffffffffffff1673ffffffffffffffffffffffffffffffffffffffff168152602001908152602001600020819055506000600354600283815481106125ba57fe5b9060005260206000209060040201600301540290506000809054906101000a900473ffffffffffffffffffffffffffffffffffffffff1673ffffffffffffffffffffffffffffffffffffffff16631e9ac0bf876000848586876040518763ffffffff1660e01b8152600401808773ffffffffffffffffffffffffffffffffffffffff1673ffffffffffffffffffffffffffffffffffffffff1681526020018681526020018581526020018481526020018381526020018281526020019650505050505050602060405180830381600087803b15801561269857600080fd5b505af11580156126ac573d6000803e3d6000fd5b505050506040513d60208110156126c257600080fd5b810190808051906020019092919050505050600154600283815481106126e457fe5b90600052602060002090600402016003015402925050505b9392505050565b6000600280549050905090565b60006002828154811061271f57fe5b9060005260206000209060040201600301549050919050565b612779336040518060400160405280600681526020017f436173746c6500000000000000000000000000000000000000000000000000008152508484610b41565b506000809054906101000a900473ffffffffffffffffffffffffffffffffffffffff1673ffffffffffffffffffffffffffffffffffffffff1663f064b42b336040518263ffffffff1660e01b8152600401808273ffffffffffffffffffffffffffffffffffffffff1673ffffffffffffffffffffffffffffffffffffffff168152602001915050600060405180830381600087803b15801561281a57600080fd5b505af115801561282e573d6000803e3d6000fd5b505050506001600760003373ffffffffffffffffffffffffffffffffffffffff1673ffffffffffffffffffffffffffffffffffffffff168152602001908152602001600020819055505050565b6000600660008373ffffffffffffffffffffffffffffffffffffffff1673ffffffffffffffffffffffffffffffffffffffff168152602001908152602001600020549050919050565b600061290683836040518060400160405280601e81526020017f536166654d6174683a207375627472616374696f6e206f766572666c6f770000815250612996565b905092915050565b60008082840190508381101561298c576040517f08c379a000000000000000000000000000000000000000000000000000000000815260040180806020018281038252601b8152602001807f536166654d6174683a206164646974696f6e206f766572666c6f77000000000081525060200191505060405180910390fd5b8091505092915050565b6000838311158290612a43576040517f08c379a00000000000000000000000000000000000000000000000000000000081526004018080602001828103825283818151815260200191508051906020019080838360005b83811015612a085780820151818401526020810190506129ed565b50505050905090810190601f168015612a355780820380516001836020036101000a031916815260200191505b509250505060405180910390fd5b5060008385039050809150509392505050565b828054600181600116156101000203166002900490600052602060002090601f016020900481019282601f10612a9757805160ff1916838001178555612ac5565b82800160010185558215612ac5579182015b82811115612ac4578251825591602001919060010190612aa9565b5b509050612ad29190612ad6565b5090565b612af891905b80821115612af4576000816000905550600101612adc565b5090565b9056fea265627a7a72315820bf0d9f4cd01d228f8c379d31b0b0d06376deb36780fb60fdec7be7573028fe8864736f6c63430005100032",
  "source": "pragma solidity >=0.4.21 <0.7.0;\n\nimport \"./SafeMath.sol\";\nimport \"./Account.sol\";\n\ncontract BuildingFactory{\n    \n    using SafeMath for uint;\n\n    Account accountInstance;\n\n    \n    constructor(address _account_address) public {\n        accountInstance = Account(_account_address);\n    }\n    \n    struct Building {\n        string name;\n        uint placeX;\n        uint placeY;\n        uint level;\n    }\n\n    uint buildTimeNeed = 10;\n    Building[] public buildings;\n    uint buildResourceNeed = 100;\n\n    mapping (uint => address) public buildingToOwner;\n    mapping (address => uint) ownerStartBuildTime;\n    mapping (address => uint) ownerBuildingId; //the building that is building\n    mapping (address => uint) castleLevel;\n\n    mapping (address => uint) ownerFarmCount;\n    mapping (address => uint) ownerMineCount;\n    mapping (address => uint) ownerManorCount;\n    mapping (address => uint) ownerQuarryCount;\n    mapping (address => uint) ownerSawmillCount;\n    mapping (address => uint) ownerCellarCount;\n    mapping (address => uint) ownerBarrackCount;\n    mapping (address => uint) ownerLaboratoryCount;\n\n    function getBuildingLevel(uint buildingId) public view returns(uint){\n        return buildings[buildingId].level;\n    }\n\n\n    function _createBuilding(address _creator, string memory _name, uint _x, uint _y) public returns(uint){\n        if(buildings.length == 0) {\n            buildings.push(Building(\"first_building!\", 0, 0, 1000));\n            buildingToOwner[0] = address(0);\n        }\n        uint id = buildings.push(Building(_name, _x, _y, 1)).sub(1);\n        accountInstance.cost(_creator, 0, buildResourceNeed, buildResourceNeed, buildResourceNeed, buildResourceNeed);\n        buildingToOwner[id] = _creator;\n        if (keccak256(bytes(_name)) == keccak256(bytes(\"Farm\"))) {\n            ownerFarmCount[_creator] = ownerFarmCount[_creator].add(1);\n        }\n        else if (keccak256(bytes(_name)) == keccak256(bytes(\"Mine\"))) {\n            ownerMineCount[_creator] = ownerMineCount[_creator].add(1);\n        }\n        else if (keccak256(bytes(_name)) == keccak256(bytes(\"Manor\"))) {\n            ownerManorCount[_creator] = ownerManorCount[_creator].add(1);\n        }\n        else if (keccak256(bytes(_name)) == keccak256(bytes(\"Quarry\"))) {\n            ownerQuarryCount[_creator] = ownerQuarryCount[_creator].add(1);\n        }\n        else if (keccak256(bytes(_name)) == keccak256(bytes(\"Sawmill\"))) {\n            ownerSawmillCount[_creator] = ownerSawmillCount[_creator].add(1);\n        }\n        else if (keccak256(bytes(_name)) == keccak256(bytes(\"Cellar\"))) {\n            ownerCellarCount[_creator] = ownerCellarCount[_creator].add(1);\n        }\n        else if (keccak256(bytes(_name)) == keccak256(bytes(\"Barrack\"))) {\n            ownerBarrackCount[_creator] = ownerBarrackCount[_creator].add(1);\n        }\n        else if (keccak256(bytes(_name)) == keccak256(bytes(\"Laboratory\"))) {\n            ownerLaboratoryCount[_creator] = ownerLaboratoryCount[_creator].add(1);\n        }\n        return id;\n    }\n\n    function startBuild(address _owner, uint _x, uint _y) public returns(uint){\n        uint buildingID;\n        (buildingID,) = getBuildingByOwner(_owner, _x, _y);\n        if(buildingID == 0) return 0;\n        if (keccak256(bytes(buildings[buildingID].name)) != keccak256(bytes(\"Castle\"))) {\n            // require(castleLevel[_owner] >= buildings[buildingID].level.add(1));\n        }\n        if(ownerStartBuildTime[_owner] != 0)  return 0;\n        ownerBuildingId[_owner] = buildingID;\n        ownerStartBuildTime[_owner] = now;\n        uint buildingResourceNeed = buildings[buildingID].level * buildResourceNeed;\n        accountInstance.cost(_owner, 0, buildingResourceNeed, buildingResourceNeed, buildingResourceNeed, buildingResourceNeed);\n        return buildings[buildingID].level * buildTimeNeed;\n    }\n\n    function getRemainingTime(address _owner) public view returns(uint) {\n        uint buildingID = ownerBuildingId[_owner];\n        if (ownerStartBuildTime[_owner] != 0 && now >= ownerStartBuildTime[_owner] + buildings[buildingID].level * buildTimeNeed) {\n            return 0;\n        }\n        else {\n            uint remainingTime = ownerStartBuildTime[_owner] + buildings[buildingID].level * buildTimeNeed - now;\n            return remainingTime;\n        }\n    }\n\n    function getUpgradingId(address _owner) public view returns(uint) {\n        return ownerBuildingId[_owner];\n    }\n    \n    function updateBuild(address _owner) public returns(uint){\n        uint buildingID = ownerBuildingId[_owner];\n        if (ownerStartBuildTime[_owner] != 0 && now >= ownerStartBuildTime[_owner] + buildings[buildingID].level * buildTimeNeed) {\n            buildings[buildingID].level = buildings[buildingID].level.add(1);\n            ownerStartBuildTime[_owner] = 0;\n            ownerBuildingId[_owner] = 0;\n            return 0;\n        }\n        else {\n            uint remainingTime = ownerStartBuildTime[_owner] + buildings[buildingID].level * buildTimeNeed - now;\n            return remainingTime;\n        }\n    }\n\n    function getBuildingById(uint idx) public view returns(bool, string memory, uint) {\n        if(idx >= buildings.length) {\n            return (false, \"invalid building id\", 0);\n        }\n        else {\n            return (true, buildings[idx].name, buildings[idx].level);\n        }\n    }\n\n    function getBuildingsLen() public view returns(uint) {\n        return buildings.length;\n    }\n\n    function getBuildingByOwner(address _owner, uint _placeX, uint _placeY) public view returns(uint, string memory) {\n        uint i = 0;\n        for (i; i < buildings.length; i++) {\n            if (buildingToOwner[i] == _owner) {\n                if (buildings[i].placeX == _placeX && buildings[i].placeY == _placeY) {\n                    return (i, buildings[i].name);\n                }\n            }\n        }\n        return (0, \"None\");\n    }\n\n    function getBuildingsByOwner(address _owner) public view returns(uint[] memory) {\n        uint[] memory result = new uint[](ownerFarmCount[_owner] + ownerMineCount[_owner] + ownerManorCount[_owner] + ownerQuarryCount[_owner] + ownerSawmillCount[_owner] + ownerCellarCount[_owner] + ownerBarrackCount[_owner]);\n        uint counter = 0;\n        for (uint i = 0; i < buildings.length; i++) {\n            if (buildingToOwner[i] == _owner) {\n                result[counter] = i;\n                counter = counter.add(1);\n            }\n        }\n        return result;\n    }\n\n    function getSpecificBuildingByOwner(address _owner, string memory _name) public view returns(uint[] memory) {\n        uint buildingsLength = 0;\n        if (keccak256(bytes(_name)) == keccak256(bytes(\"Farm\"))) {\n           buildingsLength = ownerFarmCount[_owner];\n        }\n        else if (keccak256(bytes(_name)) == keccak256(bytes(\"Mine\"))) {\n            buildingsLength = ownerMineCount[_owner];\n        }\n        else if (keccak256(bytes(_name)) == keccak256(bytes(\"Manor\"))) {\n            buildingsLength = ownerManorCount[_owner];\n        }\n        else if (keccak256(bytes(_name)) == keccak256(bytes(\"Quarry\"))) {\n            buildingsLength = ownerQuarryCount[_owner];\n        }\n        else if (keccak256(bytes(_name)) == keccak256(bytes(\"Sawmill\"))) {\n            buildingsLength = ownerSawmillCount[_owner];\n        }\n        else if (keccak256(bytes(_name)) == keccak256(bytes(\"Cellar\"))) {\n            buildingsLength = ownerCellarCount[_owner];\n        }\n        else if (keccak256(bytes(_name)) == keccak256(bytes(\"Barrack\"))) {\n            buildingsLength = ownerBarrackCount[_owner];\n        }\n        else if (keccak256(bytes(_name)) == keccak256(bytes(\"Laboratory\"))) {\n            buildingsLength = ownerLaboratoryCount[_owner];\n        }\n        uint[] memory result = new uint[](buildingsLength);\n        // result.push(0);\n        uint counter = 0;\n        for (uint i = 0; i < buildings.length; i++) {\n            if (buildingToOwner[i] == _owner && keccak256(bytes(buildings[i].name)) == keccak256(bytes(_name))) {\n                result[counter] = i;\n                counter = counter.add(1);\n            }\n        }\n        return result;\n    }\n\n    function createCastle(uint _x, uint _y) public {\n        _createBuilding(msg.sender, \"Castle\", _x, _y);\n        accountInstance.initializeKingdom(msg.sender);\n        castleLevel[msg.sender] = 1;\n    }\n\n\n    modifier lessThanCastle(address _owner, uint _buildingID) {\n        require(buildings[_buildingID].level.add(1) <= castleLevel[_owner]);\n        _;\n    }\n    \n}",
  "sourcePath": "/Users/seanwang0823/NMLab_Final/contracts/BuildingFactory.sol",
  "compiler": {
    "name": "solc",
    "version": "0.5.16+commit.9c3226ce.Emscripten.clang"
  },
  "schemaVersion": "3.4.0",
  "updatedAt": "2021-06-08T15:35:34.593Z",
  "networkType": "ethereum",
  "devdoc": {
    "methods": {}
  },
  "userdoc": {
    "methods": {}
  }
}