{
  "contractName": "Cannon",
  "abi": [
    {
      "inputs": [
        {
          "internalType": "address",
          "name": "_account_address",
          "type": "address"
        }
      ],
      "payable": false,
      "stateMutability": "nonpayable",
      "type": "constructor"
    },
    {
      "constant": true,
      "inputs": [],
      "name": "UpgradeCannonTime",
      "outputs": [
        {
          "internalType": "uint256",
          "name": "",
          "type": "uint256"
        }
      ],
      "payable": false,
      "stateMutability": "view",
      "type": "function"
    },
    {
      "constant": true,
      "inputs": [],
      "name": "cannonArmour",
      "outputs": [
        {
          "internalType": "uint256",
          "name": "",
          "type": "uint256"
        }
      ],
      "payable": false,
      "stateMutability": "view",
      "type": "function"
    },
    {
      "constant": true,
      "inputs": [],
      "name": "cannonCapacity",
      "outputs": [
        {
          "internalType": "uint256",
          "name": "",
          "type": "uint256"
        }
      ],
      "payable": false,
      "stateMutability": "view",
      "type": "function"
    },
    {
      "constant": true,
      "inputs": [],
      "name": "cannonFrequency",
      "outputs": [
        {
          "internalType": "uint256",
          "name": "",
          "type": "uint256"
        }
      ],
      "payable": false,
      "stateMutability": "view",
      "type": "function"
    },
    {
      "constant": true,
      "inputs": [],
      "name": "cannonHealth",
      "outputs": [
        {
          "internalType": "uint256",
          "name": "",
          "type": "uint256"
        }
      ],
      "payable": false,
      "stateMutability": "view",
      "type": "function"
    },
    {
      "constant": true,
      "inputs": [],
      "name": "cannonPower",
      "outputs": [
        {
          "internalType": "uint256",
          "name": "",
          "type": "uint256"
        }
      ],
      "payable": false,
      "stateMutability": "view",
      "type": "function"
    },
    {
      "constant": true,
      "inputs": [],
      "name": "cannonSpeed",
      "outputs": [
        {
          "internalType": "uint256",
          "name": "",
          "type": "uint256"
        }
      ],
      "payable": false,
      "stateMutability": "view",
      "type": "function"
    },
    {
      "constant": true,
      "inputs": [],
      "name": "createCannonTime",
      "outputs": [
        {
          "internalType": "uint256",
          "name": "",
          "type": "uint256"
        }
      ],
      "payable": false,
      "stateMutability": "view",
      "type": "function"
    },
    {
      "constant": true,
      "inputs": [
        {
          "internalType": "address",
          "name": "",
          "type": "address"
        }
      ],
      "name": "levelOfCannon",
      "outputs": [
        {
          "internalType": "uint256",
          "name": "",
          "type": "uint256"
        }
      ],
      "payable": false,
      "stateMutability": "view",
      "type": "function"
    },
    {
      "constant": true,
      "inputs": [
        {
          "internalType": "address",
          "name": "",
          "type": "address"
        }
      ],
      "name": "numOfCannon",
      "outputs": [
        {
          "internalType": "uint256",
          "name": "",
          "type": "uint256"
        }
      ],
      "payable": false,
      "stateMutability": "view",
      "type": "function"
    },
    {
      "constant": true,
      "inputs": [
        {
          "internalType": "address",
          "name": "",
          "type": "address"
        }
      ],
      "name": "ownerCreateCannonTime",
      "outputs": [
        {
          "internalType": "uint256",
          "name": "",
          "type": "uint256"
        }
      ],
      "payable": false,
      "stateMutability": "view",
      "type": "function"
    },
    {
      "constant": true,
      "inputs": [
        {
          "internalType": "address",
          "name": "",
          "type": "address"
        }
      ],
      "name": "ownerStartCreateTime",
      "outputs": [
        {
          "internalType": "uint256",
          "name": "",
          "type": "uint256"
        }
      ],
      "payable": false,
      "stateMutability": "view",
      "type": "function"
    },
    {
      "constant": true,
      "inputs": [
        {
          "internalType": "address",
          "name": "",
          "type": "address"
        }
      ],
      "name": "ownerStartUpgradeTime",
      "outputs": [
        {
          "internalType": "uint256",
          "name": "",
          "type": "uint256"
        }
      ],
      "payable": false,
      "stateMutability": "view",
      "type": "function"
    },
    {
      "constant": true,
      "inputs": [
        {
          "internalType": "address",
          "name": "",
          "type": "address"
        }
      ],
      "name": "ownerUpgradeCannonTime",
      "outputs": [
        {
          "internalType": "uint256",
          "name": "",
          "type": "uint256"
        }
      ],
      "payable": false,
      "stateMutability": "view",
      "type": "function"
    },
    {
      "constant": false,
      "inputs": [
        {
          "internalType": "address",
          "name": "_owner",
          "type": "address"
        },
        {
          "internalType": "uint256",
          "name": "value",
          "type": "uint256"
        }
      ],
      "name": "setCannonLevel",
      "outputs": [],
      "payable": false,
      "stateMutability": "nonpayable",
      "type": "function"
    },
    {
      "constant": false,
      "inputs": [
        {
          "internalType": "address",
          "name": "_owner",
          "type": "address"
        },
        {
          "internalType": "uint256",
          "name": "value",
          "type": "uint256"
        }
      ],
      "name": "setStartCreateTime",
      "outputs": [],
      "payable": false,
      "stateMutability": "nonpayable",
      "type": "function"
    },
    {
      "constant": false,
      "inputs": [
        {
          "internalType": "address",
          "name": "_owner",
          "type": "address"
        },
        {
          "internalType": "uint256",
          "name": "value",
          "type": "uint256"
        }
      ],
      "name": "setCreateCannonTime",
      "outputs": [],
      "payable": false,
      "stateMutability": "nonpayable",
      "type": "function"
    },
    {
      "constant": false,
      "inputs": [
        {
          "internalType": "address",
          "name": "_owner",
          "type": "address"
        },
        {
          "internalType": "uint256",
          "name": "value",
          "type": "uint256"
        }
      ],
      "name": "setStartUpgradeTime",
      "outputs": [],
      "payable": false,
      "stateMutability": "nonpayable",
      "type": "function"
    },
    {
      "constant": false,
      "inputs": [
        {
          "internalType": "address",
          "name": "_owner",
          "type": "address"
        },
        {
          "internalType": "uint256",
          "name": "value",
          "type": "uint256"
        }
      ],
      "name": "setUpgradeCannonTime",
      "outputs": [],
      "payable": false,
      "stateMutability": "nonpayable",
      "type": "function"
    },
    {
      "constant": false,
      "inputs": [
        {
          "internalType": "address",
          "name": "_owner",
          "type": "address"
        },
        {
          "internalType": "uint256",
          "name": "value",
          "type": "uint256"
        }
      ],
      "name": "setNumOfCannon",
      "outputs": [],
      "payable": false,
      "stateMutability": "nonpayable",
      "type": "function"
    },
    {
      "constant": false,
      "inputs": [
        {
          "internalType": "address",
          "name": "_owner",
          "type": "address"
        }
      ],
      "name": "_updateCannonPower",
      "outputs": [],
      "payable": false,
      "stateMutability": "nonpayable",
      "type": "function"
    },
    {
      "constant": false,
      "inputs": [
        {
          "internalType": "address",
          "name": "_owner",
          "type": "address"
        },
        {
          "internalType": "uint256",
          "name": "number",
          "type": "uint256"
        }
      ],
      "name": "_createCannon",
      "outputs": [
        {
          "internalType": "bool",
          "name": "",
          "type": "bool"
        }
      ],
      "payable": false,
      "stateMutability": "nonpayable",
      "type": "function"
    },
    {
      "constant": false,
      "inputs": [
        {
          "internalType": "address",
          "name": "_owner",
          "type": "address"
        }
      ],
      "name": "_UpgradeCannon",
      "outputs": [
        {
          "internalType": "bool",
          "name": "",
          "type": "bool"
        }
      ],
      "payable": false,
      "stateMutability": "nonpayable",
      "type": "function"
    },
    {
      "constant": true,
      "inputs": [
        {
          "internalType": "address",
          "name": "_owner",
          "type": "address"
        }
      ],
      "name": "getCannonAmount",
      "outputs": [
        {
          "internalType": "uint256",
          "name": "",
          "type": "uint256"
        }
      ],
      "payable": false,
      "stateMutability": "view",
      "type": "function"
    },
    {
      "constant": false,
      "inputs": [
        {
          "internalType": "uint256",
          "name": "_ownerId",
          "type": "uint256"
        },
        {
          "internalType": "uint256",
          "name": "_attackedCastleId",
          "type": "uint256"
        }
      ],
      "name": "attack",
      "outputs": [],
      "payable": false,
      "stateMutability": "nonpayable",
      "type": "function"
    },
    {
      "constant": false,
      "inputs": [
        {
          "internalType": "uint256",
          "name": "number",
          "type": "uint256"
        }
      ],
      "name": "startCreateCannon",
      "outputs": [
        {
          "internalType": "uint256",
          "name": "",
          "type": "uint256"
        }
      ],
      "payable": false,
      "stateMutability": "nonpayable",
      "type": "function"
    },
    {
      "constant": true,
      "inputs": [],
      "name": "getCreateCannonTime",
      "outputs": [
        {
          "internalType": "uint256",
          "name": "",
          "type": "uint256"
        },
        {
          "internalType": "uint256",
          "name": "",
          "type": "uint256"
        },
        {
          "internalType": "uint256",
          "name": "",
          "type": "uint256"
        }
      ],
      "payable": false,
      "stateMutability": "view",
      "type": "function"
    },
    {
      "constant": false,
      "inputs": [
        {
          "internalType": "address",
          "name": "_owner",
          "type": "address"
        }
      ],
      "name": "updateCreateCannon",
      "outputs": [
        {
          "internalType": "uint256",
          "name": "",
          "type": "uint256"
        }
      ],
      "payable": false,
      "stateMutability": "nonpayable",
      "type": "function"
    }
  ],
  "bytecode": "0x6080604052600a600755600a60085560646009556064600a556001600b556000600c5560c8600d55600a600e5534801561003857600080fd5b50604051612c5f380380612c5f8339818101604052602081101561005b57600080fd5b8101908080519060200190929190505050806000806101000a81548173ffffffffffffffffffffffffffffffffffffffff021916908373ffffffffffffffffffffffffffffffffffffffff16021790555050612ba3806100bc6000396000f3fe608060405234801561001057600080fd5b50600436106101c45760003560e01c806399e3e486116100f9578063d0bb9e9011610097578063f3b8375611610071578063f3b83756146107e9578063f5d9ef5a14610807578063fa83ce5c1461085f578063fad28ce4146108a1576101c4565b8063d0bb9e90146106f3578063e1fa76381461074b578063efbbf17314610783576101c4565b8063a09a8480116100d3578063a09a84801461062f578063ac4ccf1f1461064d578063af1193c2146106a9578063c88eb984146106d5576101c4565b806399e3e486146105755780639a1d5292146105935780639e72a7e0146105e1576101c4565b80635f831a9b116101665780638a8e016e116101405780638a8e016e146104595780638ed97202146104b15780639073af81146104ff5780639172caec14610557576101c4565b80635f831a9b146103cf5780636a209ea0146103ed5780637183e7101461043b576101c4565b80632b16a564116101a25780632b16a5641461028d578063476432c3146102db57806357f683d314610333578063598b8e4e1461038b576101c4565b80630f03c43d146101c95780631330688114610217578063265080b01461026f575b600080fd5b610215600480360360408110156101df57600080fd5b81019080803573ffffffffffffffffffffffffffffffffffffffff169060200190929190803590602001909291905050506108f9565b005b6102596004803603602081101561022d57600080fd5b81019080803573ffffffffffffffffffffffffffffffffffffffff169060200190929190505050610941565b6040518082815260200191505060405180910390f35b610277610959565b6040518082815260200191505060405180910390f35b6102d9600480360360408110156102a357600080fd5b81019080803573ffffffffffffffffffffffffffffffffffffffff1690602001909291908035906020019092919050505061095f565b005b61031d600480360360208110156102f157600080fd5b81019080803573ffffffffffffffffffffffffffffffffffffffff1690602001909291905050506109a7565b6040518082815260200191505060405180910390f35b6103756004803603602081101561034957600080fd5b81019080803573ffffffffffffffffffffffffffffffffffffffff1690602001909291905050506109bf565b6040518082815260200191505060405180910390f35b6103cd600480360360208110156103a157600080fd5b81019080803573ffffffffffffffffffffffffffffffffffffffff1690602001909291905050506109d7565b005b6103d7610c62565b6040518082815260200191505060405180910390f35b6104396004803603604081101561040357600080fd5b81019080803573ffffffffffffffffffffffffffffffffffffffff16906020019092919080359060200190929190505050610c68565b005b610443610cb0565b6040518082815260200191505060405180910390f35b61049b6004803603602081101561046f57600080fd5b81019080803573ffffffffffffffffffffffffffffffffffffffff169060200190929190505050610cb6565b6040518082815260200191505060405180910390f35b6104fd600480360360408110156104c757600080fd5b81019080803573ffffffffffffffffffffffffffffffffffffffff16906020019092919080359060200190929190505050610cce565b005b6105416004803603602081101561051557600080fd5b81019080803573ffffffffffffffffffffffffffffffffffffffff169060200190929190505050610d16565b6040518082815260200191505060405180910390f35b61055f610d2e565b6040518082815260200191505060405180910390f35b61057d610d34565b6040518082815260200191505060405180910390f35b6105df600480360360408110156105a957600080fd5b81019080803573ffffffffffffffffffffffffffffffffffffffff16906020019092919080359060200190929190505050610d3a565b005b61062d600480360360408110156105f757600080fd5b81019080803573ffffffffffffffffffffffffffffffffffffffff16906020019092919080359060200190929190505050610d82565b005b610637610dca565b6040518082815260200191505060405180910390f35b61068f6004803603602081101561066357600080fd5b81019080803573ffffffffffffffffffffffffffffffffffffffff169060200190929190505050610dd0565b604051808215151515815260200191505060405180910390f35b6106b161100f565b60405180848152602001838152602001828152602001935050505060405180910390f35b6106dd6110e1565b6040518082815260200191505060405180910390f35b6107356004803603602081101561070957600080fd5b81019080803573ffffffffffffffffffffffffffffffffffffffff1690602001909291905050506110e7565b6040518082815260200191505060405180910390f35b6107816004803603604081101561076157600080fd5b8101908080359060200190929190803590602001909291905050506110ff565b005b6107cf6004803603604081101561079957600080fd5b81019080803573ffffffffffffffffffffffffffffffffffffffff16906020019092919080359060200190929190505050611355565b604051808215151515815260200191505060405180910390f35b6107f161154a565b6040518082815260200191505060405180910390f35b6108496004803603602081101561081d57600080fd5b81019080803573ffffffffffffffffffffffffffffffffffffffff169060200190929190505050611550565b6040518082815260200191505060405180910390f35b61088b6004803603602081101561087557600080fd5b81019080803590602001909291905050506117f7565b6040518082815260200191505060405180910390f35b6108e3600480360360208110156108b757600080fd5b81019080803573ffffffffffffffffffffffffffffffffffffffff16906020019092919050505061191d565b6040518082815260200191505060405180910390f35b80600560008473ffffffffffffffffffffffffffffffffffffffff1673ffffffffffffffffffffffffffffffffffffffff168152602001908152602001600020819055505050565b60056020528060005260406000206000915090505481565b600e5481565b80600160008473ffffffffffffffffffffffffffffffffffffffff1673ffffffffffffffffffffffffffffffffffffffff168152602001908152602001600020819055505050565b60066020528060005260406000206000915090505481565b60016020528060005260406000206000915090505481565b6000809054906101000a900473ffffffffffffffffffffffffffffffffffffffff1673ffffffffffffffffffffffffffffffffffffffff166388adb7e082600a54600260008673ffffffffffffffffffffffffffffffffffffffff1673ffffffffffffffffffffffffffffffffffffffff16815260200190815260200160002054600160008773ffffffffffffffffffffffffffffffffffffffff1673ffffffffffffffffffffffffffffffffffffffff1681526020019081526020016000205402026040518363ffffffff1660e01b8152600401808373ffffffffffffffffffffffffffffffffffffffff1673ffffffffffffffffffffffffffffffffffffffff16815260200182815260200192505050600060405180830381600087803b158015610b0357600080fd5b505af1158015610b17573d6000803e3d6000fd5b505050506000809054906101000a900473ffffffffffffffffffffffffffffffffffffffff1673ffffffffffffffffffffffffffffffffffffffff1663a50316ec82600954600260008673ffffffffffffffffffffffffffffffffffffffff1673ffffffffffffffffffffffffffffffffffffffff16815260200190815260200160002054600160008773ffffffffffffffffffffffffffffffffffffffff1673ffffffffffffffffffffffffffffffffffffffff1681526020019081526020016000205402026040518363ffffffff1660e01b8152600401808373ffffffffffffffffffffffffffffffffffffffff1673ffffffffffffffffffffffffffffffffffffffff16815260200182815260200192505050600060405180830381600087803b158015610c4757600080fd5b505af1158015610c5b573d6000803e3d6000fd5b5050505050565b600b5481565b80600460008473ffffffffffffffffffffffffffffffffffffffff1673ffffffffffffffffffffffffffffffffffffffff168152602001908152602001600020819055505050565b600a5481565b60046020528060005260406000206000915090505481565b80600360008473ffffffffffffffffffffffffffffffffffffffff1673ffffffffffffffffffffffffffffffffffffffff168152602001908152602001600020819055505050565b60036020528060005260406000206000915090505481565b600d5481565b60095481565b80600660008473ffffffffffffffffffffffffffffffffffffffff1673ffffffffffffffffffffffffffffffffffffffff168152602001908152602001600020819055505050565b80600260008473ffffffffffffffffffffffffffffffffffffffff1673ffffffffffffffffffffffffffffffffffffffff168152602001908152602001600020819055505050565b600c5481565b600080607d600260008573ffffffffffffffffffffffffffffffffffffffff1673ffffffffffffffffffffffffffffffffffffffff168152602001908152602001600020546101f4020390506000607d600260008673ffffffffffffffffffffffffffffffffffffffff1673ffffffffffffffffffffffffffffffffffffffff168152602001908152602001600020546101f4020390506000607d600260008773ffffffffffffffffffffffffffffffffffffffff1673ffffffffffffffffffffffffffffffffffffffff168152602001908152602001600020546101f4020390506001600260008773ffffffffffffffffffffffffffffffffffffffff1673ffffffffffffffffffffffffffffffffffffffff168152602001908152602001600020600082825401925050819055506000809054906101000a900473ffffffffffffffffffffffffffffffffffffffff1673ffffffffffffffffffffffffffffffffffffffff16631e9ac0bf86856000866000876040518763ffffffff1660e01b8152600401808773ffffffffffffffffffffffffffffffffffffffff1673ffffffffffffffffffffffffffffffffffffffff1681526020018681526020018581526020018481526020018381526020018281526020019650505050505050602060405180830381600087803b158015610fca57600080fd5b505af1158015610fde573d6000803e3d6000fd5b505050506040513d6020811015610ff457600080fd5b81019080805190602001909291905050509350505050919050565b6000806000600360003373ffffffffffffffffffffffffffffffffffffffff1673ffffffffffffffffffffffffffffffffffffffff16815260200190815260200160002054600360003373ffffffffffffffffffffffffffffffffffffffff1673ffffffffffffffffffffffffffffffffffffffff168152602001908152602001600020544203600460003373ffffffffffffffffffffffffffffffffffffffff1673ffffffffffffffffffffffffffffffffffffffff16815260200190815260200160002054925092509250909192565b60085481565b60026020528060005260406000206000915090505481565b6000809054906101000a900473ffffffffffffffffffffffffffffffffffffffff1673ffffffffffffffffffffffffffffffffffffffff166383ef9eb1836040518263ffffffff1660e01b81526004018082815260200191505060206040518083038186803b15801561117157600080fd5b505afa158015611185573d6000803e3d6000fd5b505050506040513d602081101561119b57600080fd5b810190808051906020019092919050505073ffffffffffffffffffffffffffffffffffffffff163373ffffffffffffffffffffffffffffffffffffffff16146111e357600080fd5b60008060009054906101000a900473ffffffffffffffffffffffffffffffffffffffff1673ffffffffffffffffffffffffffffffffffffffff166383ef9eb1846040518263ffffffff1660e01b81526004018082815260200191505060206040518083038186803b15801561125757600080fd5b505afa15801561126b573d6000803e3d6000fd5b505050506040513d602081101561128157600080fd5b8101908080519060200190929190505050905060008060009054906101000a900473ffffffffffffffffffffffffffffffffffffffff1673ffffffffffffffffffffffffffffffffffffffff166383ef9eb1846040518263ffffffff1660e01b81526004018082815260200191505060206040518083038186803b15801561130857600080fd5b505afa15801561131c573d6000803e3d6000fd5b505050506040513d602081101561133257600080fd5b8101908080519060200190929190505050905061134f8282611966565b50505050565b600080826005600260008773ffffffffffffffffffffffffffffffffffffffff1673ffffffffffffffffffffffffffffffffffffffff16815260200190815260200160002054601902030290506000836005600260008873ffffffffffffffffffffffffffffffffffffffff1673ffffffffffffffffffffffffffffffffffffffff16815260200190815260200160002054601902030290506000846005600260008973ffffffffffffffffffffffffffffffffffffffff1673ffffffffffffffffffffffffffffffffffffffff16815260200190815260200160002054601902030290506000809054906101000a900473ffffffffffffffffffffffffffffffffffffffff1673ffffffffffffffffffffffffffffffffffffffff16631e9ac0bf87856000866000876040518763ffffffff1660e01b8152600401808773ffffffffffffffffffffffffffffffffffffffff1673ffffffffffffffffffffffffffffffffffffffff1681526020018681526020018581526020018481526020018381526020018281526020019650505050505050602060405180830381600087803b15801561150457600080fd5b505af1158015611518573d6000803e3d6000fd5b505050506040513d602081101561152e57600080fd5b8101908080519060200190929190505050935050505092915050565b60075481565b600080600360008473ffffffffffffffffffffffffffffffffffffffff1673ffffffffffffffffffffffffffffffffffffffff1681526020019081526020016000205414156115a257600090506117f2565b611633600460008473ffffffffffffffffffffffffffffffffffffffff1673ffffffffffffffffffffffffffffffffffffffff16815260200190815260200160002054600360008573ffffffffffffffffffffffffffffffffffffffff1673ffffffffffffffffffffffffffffffffffffffff1681526020019081526020016000205461282590919063ffffffff16565b42106117565760006116e0611692600754600260008773ffffffffffffffffffffffffffffffffffffffff1673ffffffffffffffffffffffffffffffffffffffff168152602001908152602001600020546128ad90919063ffffffff16565b600460008673ffffffffffffffffffffffffffffffffffffffff1673ffffffffffffffffffffffffffffffffffffffff1681526020019081526020016000205461293390919063ffffffff16565b905061172d8382600160008773ffffffffffffffffffffffffffffffffffffffff1673ffffffffffffffffffffffffffffffffffffffff168152602001908152602001600020540161095f565b611738836000610cce565b611743836000610c68565b61174c836109d7565b60009150506117f2565b60006117eb42600460008673ffffffffffffffffffffffffffffffffffffffff1673ffffffffffffffffffffffffffffffffffffffff16815260200190815260200160002054600360008773ffffffffffffffffffffffffffffffffffffffff1673ffffffffffffffffffffffffffffffffffffffff168152602001908152602001600020540161297d90919063ffffffff16565b9050809150505b919050565b6000803390506000600360008373ffffffffffffffffffffffffffffffffffffffff1673ffffffffffffffffffffffffffffffffffffffff168152602001908152602001600020541461184e576000915050611918565b60008061185b8386611355565b9150600260008473ffffffffffffffffffffffffffffffffffffffff1673ffffffffffffffffffffffffffffffffffffffff1681526020019081526020016000205490506000151582151514156118b85760009350505050611918565b6118c28342610cce565b6118d28386836007540202610c68565b600460008473ffffffffffffffffffffffffffffffffffffffff1673ffffffffffffffffffffffffffffffffffffffff1681526020019081526020016000205493505050505b919050565b6000600160008373ffffffffffffffffffffffffffffffffffffffff1673ffffffffffffffffffffffffffffffffffffffff168152602001908152602001600020549050919050565b6000806000809054906101000a900473ffffffffffffffffffffffffffffffffffffffff1673ffffffffffffffffffffffffffffffffffffffff166302931e59846040518263ffffffff1660e01b8152600401808273ffffffffffffffffffffffffffffffffffffffff1673ffffffffffffffffffffffffffffffffffffffff16815260200191505060206040518083038186803b158015611a0757600080fd5b505afa158015611a1b573d6000803e3d6000fd5b505050506040513d6020811015611a3157600080fd5b81019080805190602001909291905050506000809054906101000a900473ffffffffffffffffffffffffffffffffffffffff1673ffffffffffffffffffffffffffffffffffffffff166302931e59866040518263ffffffff1660e01b8152600401808273ffffffffffffffffffffffffffffffffffffffff1673ffffffffffffffffffffffffffffffffffffffff16815260200191505060206040518083038186803b158015611ae057600080fd5b505afa158015611af4573d6000803e3d6000fd5b505050506040513d6020811015611b0a57600080fd5b81019080805190602001909291905050501115611b2c57839150829050611b33565b8291508390505b6000809054906101000a900473ffffffffffffffffffffffffffffffffffffffff1673ffffffffffffffffffffffffffffffffffffffff1663af7cd0e583600560046000809054906101000a900473ffffffffffffffffffffffffffffffffffffffff1673ffffffffffffffffffffffffffffffffffffffff166341d42330876040518263ffffffff1660e01b8152600401808273ffffffffffffffffffffffffffffffffffffffff1673ffffffffffffffffffffffffffffffffffffffff16815260200191505060206040518083038186803b158015611c1357600080fd5b505afa158015611c27573d6000803e3d6000fd5b505050506040513d6020811015611c3d57600080fd5b81019080805190602001909291905050500281611c5657fe5b046000809054906101000a900473ffffffffffffffffffffffffffffffffffffffff1673ffffffffffffffffffffffffffffffffffffffff166341d42330876040518263ffffffff1660e01b8152600401808273ffffffffffffffffffffffffffffffffffffffff1673ffffffffffffffffffffffffffffffffffffffff16815260200191505060206040518083038186803b158015611cf557600080fd5b505afa158015611d09573d6000803e3d6000fd5b505050506040513d6020811015611d1f57600080fd5b8101908080519060200190929190505050016040518363ffffffff1660e01b8152600401808373ffffffffffffffffffffffffffffffffffffffff1673ffffffffffffffffffffffffffffffffffffffff16815260200182815260200192505050600060405180830381600087803b158015611d9a57600080fd5b505af1158015611dae573d6000803e3d6000fd5b505050506000809054906101000a900473ffffffffffffffffffffffffffffffffffffffff1673ffffffffffffffffffffffffffffffffffffffff1663a580af0283600560046000809054906101000a900473ffffffffffffffffffffffffffffffffffffffff1673ffffffffffffffffffffffffffffffffffffffff16636ed82fbb876040518263ffffffff1660e01b8152600401808273ffffffffffffffffffffffffffffffffffffffff1673ffffffffffffffffffffffffffffffffffffffff16815260200191505060206040518083038186803b158015611e9257600080fd5b505afa158015611ea6573d6000803e3d6000fd5b505050506040513d6020811015611ebc57600080fd5b81019080805190602001909291905050500281611ed557fe5b046000809054906101000a900473ffffffffffffffffffffffffffffffffffffffff1673ffffffffffffffffffffffffffffffffffffffff16636ed82fbb876040518263ffffffff1660e01b8152600401808273ffffffffffffffffffffffffffffffffffffffff1673ffffffffffffffffffffffffffffffffffffffff16815260200191505060206040518083038186803b158015611f7457600080fd5b505afa158015611f88573d6000803e3d6000fd5b505050506040513d6020811015611f9e57600080fd5b8101908080519060200190929190505050016040518363ffffffff1660e01b8152600401808373ffffffffffffffffffffffffffffffffffffffff1673ffffffffffffffffffffffffffffffffffffffff16815260200182815260200192505050600060405180830381600087803b15801561201957600080fd5b505af115801561202d573d6000803e3d6000fd5b505050506000809054906101000a900473ffffffffffffffffffffffffffffffffffffffff1673ffffffffffffffffffffffffffffffffffffffff1663a580af0282600560046000809054906101000a900473ffffffffffffffffffffffffffffffffffffffff1673ffffffffffffffffffffffffffffffffffffffff16636ed82fbb876040518263ffffffff1660e01b8152600401808273ffffffffffffffffffffffffffffffffffffffff1673ffffffffffffffffffffffffffffffffffffffff16815260200191505060206040518083038186803b15801561211157600080fd5b505afa158015612125573d6000803e3d6000fd5b505050506040513d602081101561213b57600080fd5b8101908080519060200190929190505050028161215457fe5b046000809054906101000a900473ffffffffffffffffffffffffffffffffffffffff1673ffffffffffffffffffffffffffffffffffffffff16636ed82fbb866040518263ffffffff1660e01b8152600401808273ffffffffffffffffffffffffffffffffffffffff1673ffffffffffffffffffffffffffffffffffffffff16815260200191505060206040518083038186803b1580156121f357600080fd5b505afa158015612207573d6000803e3d6000fd5b505050506040513d602081101561221d57600080fd5b8101908080519060200190929190505050036040518363ffffffff1660e01b8152600401808373ffffffffffffffffffffffffffffffffffffffff1673ffffffffffffffffffffffffffffffffffffffff16815260200182815260200192505050600060405180830381600087803b15801561229857600080fd5b505af11580156122ac573d6000803e3d6000fd5b505050506000809054906101000a900473ffffffffffffffffffffffffffffffffffffffff1673ffffffffffffffffffffffffffffffffffffffff1663af7cd0e582600560046000809054906101000a900473ffffffffffffffffffffffffffffffffffffffff1673ffffffffffffffffffffffffffffffffffffffff166341d42330876040518263ffffffff1660e01b8152600401808273ffffffffffffffffffffffffffffffffffffffff1673ffffffffffffffffffffffffffffffffffffffff16815260200191505060206040518083038186803b15801561239057600080fd5b505afa1580156123a4573d6000803e3d6000fd5b505050506040513d60208110156123ba57600080fd5b810190808051906020019092919050505002816123d357fe5b046000809054906101000a900473ffffffffffffffffffffffffffffffffffffffff1673ffffffffffffffffffffffffffffffffffffffff166341d42330866040518263ffffffff1660e01b8152600401808273ffffffffffffffffffffffffffffffffffffffff1673ffffffffffffffffffffffffffffffffffffffff16815260200191505060206040518083038186803b15801561247257600080fd5b505afa158015612486573d6000803e3d6000fd5b505050506040513d602081101561249c57600080fd5b8101908080519060200190929190505050036040518363ffffffff1660e01b8152600401808373ffffffffffffffffffffffffffffffffffffffff1673ffffffffffffffffffffffffffffffffffffffff16815260200182815260200192505050600060405180830381600087803b15801561251757600080fd5b505af115801561252b573d6000803e3d6000fd5b50505050600060026000809054906101000a900473ffffffffffffffffffffffffffffffffffffffff1673ffffffffffffffffffffffffffffffffffffffff166302931e59846040518263ffffffff1660e01b8152600401808273ffffffffffffffffffffffffffffffffffffffff1673ffffffffffffffffffffffffffffffffffffffff16815260200191505060206040518083038186803b1580156125d157600080fd5b505afa1580156125e5573d6000803e3d6000fd5b505050506040513d60208110156125fb57600080fd5b81019080805190602001909291905050508161261357fe5b049050600260008473ffffffffffffffffffffffffffffffffffffffff1673ffffffffffffffffffffffffffffffffffffffff16815260200190815260200160002054816000809054906101000a900473ffffffffffffffffffffffffffffffffffffffff1673ffffffffffffffffffffffffffffffffffffffff166302931e59866040518263ffffffff1660e01b8152600401808273ffffffffffffffffffffffffffffffffffffffff1673ffffffffffffffffffffffffffffffffffffffff16815260200191505060206040518083038186803b1580156126f557600080fd5b505afa158015612709573d6000803e3d6000fd5b505050506040513d602081101561271f57600080fd5b8101908080519060200190929190505050038161273857fe5b04600160008573ffffffffffffffffffffffffffffffffffffffff1673ffffffffffffffffffffffffffffffffffffffff1681526020019081526020016000208190555060056004600160008573ffffffffffffffffffffffffffffffffffffffff1673ffffffffffffffffffffffffffffffffffffffff1681526020019081526020016000205402816127c857fe5b04600160008473ffffffffffffffffffffffffffffffffffffffff1673ffffffffffffffffffffffffffffffffffffffff16815260200190815260200160002081905550612815836109d7565b61281e826109d7565b5050505050565b6000808284019050838110156128a3576040517f08c379a000000000000000000000000000000000000000000000000000000000815260040180806020018281038252601b8152602001807f536166654d6174683a206164646974696f6e206f766572666c6f77000000000081525060200191505060405180910390fd5b8091505092915050565b6000808314156128c0576000905061292d565b60008284029050828482816128d157fe5b0414612928576040517f08c379a0000000000000000000000000000000000000000000000000000000008152600401808060200182810382526021815260200180612b4e6021913960400191505060405180910390fd5b809150505b92915050565b600061297583836040518060400160405280601a81526020017f536166654d6174683a206469766973696f6e206279207a65726f0000000000008152506129c7565b905092915050565b60006129bf83836040518060400160405280601e81526020017f536166654d6174683a207375627472616374696f6e206f766572666c6f770000815250612a8d565b905092915050565b60008083118290612a73576040517f08c379a00000000000000000000000000000000000000000000000000000000081526004018080602001828103825283818151815260200191508051906020019080838360005b83811015612a38578082015181840152602081019050612a1d565b50505050905090810190601f168015612a655780820380516001836020036101000a031916815260200191505b509250505060405180910390fd5b506000838581612a7f57fe5b049050809150509392505050565b6000838311158290612b3a576040517f08c379a00000000000000000000000000000000000000000000000000000000081526004018080602001828103825283818151815260200191508051906020019080838360005b83811015612aff578082015181840152602081019050612ae4565b50505050905090810190601f168015612b2c5780820380516001836020036101000a031916815260200191505b509250505060405180910390fd5b506000838503905080915050939250505056fe536166654d6174683a206d756c7469706c69636174696f6e206f766572666c6f77a265627a7a723158205fd4967323e2eb8707245f566283d9c5c10e9871f92839673cb212dfc2ce266364736f6c63430005100032",
  "source": "pragma solidity >=0.4.21 <0.7.0;\n\nimport \"./Account.sol\";\n\ncontract Cannon {\n\n    using SafeMath for uint;\n    \n    Account accountInstance;\n    constructor(address _account_address) public {\n        accountInstance = Account(_account_address);\n    }\n\n    mapping (address => uint) public numOfCannon;\n\n    mapping (address => uint) public levelOfCannon;\n\n    mapping (address => uint) public ownerStartCreateTime;\n    mapping (address => uint) public ownerCreateCannonTime;\n    mapping (address => uint) public ownerStartUpgradeTime;\n    mapping (address => uint) public ownerUpgradeCannonTime;\n    uint public createCannonTime = 10;\n    uint public UpgradeCannonTime = 10;\n\n    uint public cannonHealth = 100;\n    uint public cannonPower = 100;\n    uint public cannonFrequency = 1;\n    uint public cannonArmour = 0;\n    uint public cannonCapacity = 200;\n    uint public cannonSpeed = 10;\n    \n\n    function setCannonLevel(address _owner, uint value) public {\n        levelOfCannon[_owner] = value;\n    }\n\n    function setStartCreateTime(address _owner, uint value) public {\n        ownerStartCreateTime[_owner] = value;\n    }\n\n    function setCreateCannonTime(address _owner, uint value) public {\n        ownerCreateCannonTime[_owner] = value;\n    }\n\n    function setStartUpgradeTime(address _owner, uint value) public {\n        ownerStartUpgradeTime[_owner] = value;\n    }\n\n    function setUpgradeCannonTime(address _owner, uint value) public {\n        ownerUpgradeCannonTime[_owner] = value;\n    }\n\n    function setNumOfCannon(address _owner, uint value) public {\n        numOfCannon[_owner] = value;\n    }\n\n    // function getCannonStartCreateTime(address _owner) public view return(uint) {\n    //     return ownerStartCreateTime[_owner];\n    // }\n\n\n    function _updateCannonPower(address _owner) public {\n        accountInstance.setUserPower(_owner, numOfCannon[_owner] * levelOfCannon[_owner] * cannonPower);\n        accountInstance.setUserHealth(_owner, numOfCannon[_owner] * levelOfCannon[_owner] * cannonHealth);\n\n    }\n\n    function _createCannon(address _owner, uint number) public returns(bool) {\n        uint foodCost = (25* levelOfCannon[_owner] - 5) * number;\n        uint ironCost = (25* levelOfCannon[_owner] - 5) * number;\n        uint coinCost = (25* levelOfCannon[_owner] - 5) * number;\n       \n        return accountInstance.cost(_owner, foodCost, uint(0), ironCost, uint(0), coinCost);\n    }\n    \n    function _UpgradeCannon(address _owner) public returns(bool){\n        uint foodCost = 500* levelOfCannon[_owner] - 125;\n        uint ironCost = 500* levelOfCannon[_owner] - 125;\n        uint coinCost = 500* levelOfCannon[_owner] - 125;\n        levelOfCannon[_owner] += 1;\n\n        return accountInstance.cost(_owner, foodCost, uint(0), ironCost, uint(0), coinCost);\n    }\n\n    function getCannonAmount(address _owner) public view returns(uint) {\n        return numOfCannon[_owner];\n    }\n\n    function _fight(address myCastle, address attackedCastle) internal{\n        address winner;\n        address loser;\n\n        if (accountInstance.getUserPower(myCastle) > accountInstance.getUserPower(attackedCastle)){\n            winner = myCastle;\n            loser = attackedCastle;\n        }\n        else {\n            winner = attackedCastle;\n            loser = myCastle;\n        }\n        \n        accountInstance.setFoodOwnerCount(winner, accountInstance.getFoodOwnerCount(winner) + (accountInstance.getFoodOwnerCount(loser) * 4/5));\n        // woodOwnerCount[winner] = woodOwnerCount[winner] + (woodOwnerCount[loser] * 4/5);\n        // ironOwnerCount[winner] = ironOwnerCount[winner] + (ironOwnerCount[loser] * 4/5);\n        // stoneOwnerCount[winner] = stoneOwnerCount[winner] + (stoneOwnerCount[loser] * 4/5);\n        accountInstance.setCoinOwnerCount(winner, accountInstance.getCoinOwnerCount(winner) + (accountInstance.getCoinOwnerCount(loser) * 4/5));\n        accountInstance.setCoinOwnerCount(loser, accountInstance.getCoinOwnerCount(loser) - (accountInstance.getCoinOwnerCount(loser) * 4/5));\n        accountInstance.setFoodOwnerCount(loser, accountInstance.getFoodOwnerCount(loser) - (accountInstance.getFoodOwnerCount(loser) * 4/5));\n\n        // foodOwnerCount[loser] = foodOwnerCount[loser] - (foodOwnerCount[loser] * 4/5);\n        // woodOwnerCount[loser] = woodOwnerCount[loser] - (woodOwnerCount[loser] * 4/5);\n        // ironOwnerCount[loser] = ironOwnerCount[loser] - (ironOwnerCount[loser] * 4/5);\n        // stoneOwnerCount[loser] = stoneOwnerCount[loser] - (stoneOwnerCount[loser] * 4/5);\n        // coinOwnerCount[loser] = coinOwnerCount[loser] - (coinOwnerCount[loser] * 4/5);\n\n        uint winnerPowerLose = accountInstance.getUserPower(loser)/2;\n\n        numOfCannon[winner] = (accountInstance.getUserPower(winner) - winnerPowerLose) / levelOfCannon[winner];\n\n        numOfCannon[loser] = numOfCannon[loser] * 4 / 5;\n\n        _updateCannonPower(winner);\n        _updateCannonPower(loser);\n    }\n\n    function attack(uint _ownerId, uint _attackedCastleId) public {\n        require(msg.sender == accountInstance.convertCastleToOwner(_ownerId));\n        address myCastle = accountInstance.convertCastleToOwner(_ownerId);\n        address attackedCastle = accountInstance.convertCastleToOwner(_attackedCastleId);\n        _fight(myCastle, attackedCastle);\n    }\n\n\n    // return 0 if failed (maybe already creating or not enough resource) otherwise return createtime\n    function startCreateCannon(uint number) public returns(uint) {\n        address _owner = msg.sender;\n        if(ownerStartCreateTime[_owner] != 0) return uint(0); // check if there is already creating Cannons\n        bool enoughResource;\n        uint lvOfCannon;\n        enoughResource = _createCannon(_owner, number);\n        lvOfCannon =  levelOfCannon[_owner];\n        if(enoughResource == false) return uint(0);\n        setStartCreateTime(_owner, uint(now));\n        setCreateCannonTime(_owner, createCannonTime * lvOfCannon * number);\n        return ownerCreateCannonTime[_owner];\n    }\n\n    function getCreateCannonTime() public view returns(uint, uint, uint) {\n        return ( ownerStartCreateTime[msg.sender], uint(now) - ownerStartCreateTime[msg.sender], ownerCreateCannonTime[msg.sender] ) ;\n    }\n\n    // // return 0 if success else return remaining time\n    function updateCreateCannon(address _owner) public returns(uint) {\n        if (ownerStartCreateTime[_owner] == 0) return 0;\n        if (uint(now) >= ownerStartCreateTime[_owner].add(ownerCreateCannonTime[_owner])) {\n            uint num;\n            num = ownerCreateCannonTime[_owner].div(  levelOfCannon[_owner].mul(createCannonTime));\n            setNumOfCannon(_owner, numOfCannon[_owner] + (num));\n            setStartCreateTime(_owner, 0);\n            setCreateCannonTime(_owner, 0);\n            _updateCannonPower(_owner);\n            return 0;\n        }\n        else {\n            uint remainingTime = (ownerStartCreateTime[_owner] + ownerCreateCannonTime[_owner]).sub(uint(now));\n            return remainingTime;\n        }\n    }\n}",
  "sourcePath": "/Users/cyl/Desktop//NMlab_Final/contracts/Cannon.sol",
  "compiler": {
    "name": "solc",
    "version": "0.5.16+commit.9c3226ce.Emscripten.clang"
  },
  "schemaVersion": "3.4.1",
  "updatedAt": "2021-06-26T04:00:34.560Z",
  "networkType": "ethereum",
  "devdoc": {
    "methods": {}
  },
  "userdoc": {
    "methods": {}
  }
}