{
  "contractName": "CastleFactory",
  "abi": [
    {
      "constant": true,
      "inputs": [
        {
          "internalType": "uint256",
          "name": "",
          "type": "uint256"
        }
      ],
      "name": "buildingToOwner",
      "outputs": [
        {
          "internalType": "address",
          "name": "",
          "type": "address"
        }
      ],
      "payable": false,
      "stateMutability": "view",
      "type": "function"
    },
    {
      "constant": true,
      "inputs": [
        {
          "internalType": "uint256",
          "name": "",
          "type": "uint256"
        }
      ],
      "name": "buildings",
      "outputs": [
        {
          "internalType": "string",
          "name": "name",
          "type": "string"
        },
        {
          "internalType": "uint256",
          "name": "placeX",
          "type": "uint256"
        },
        {
          "internalType": "uint256",
          "name": "placeY",
          "type": "uint256"
        },
        {
          "internalType": "uint256",
          "name": "level",
          "type": "uint256"
        }
      ],
      "payable": false,
      "stateMutability": "view",
      "type": "function"
    },
    {
      "constant": true,
      "inputs": [
        {
          "internalType": "uint256",
          "name": "",
          "type": "uint256"
        }
      ],
      "name": "castleToOwner",
      "outputs": [
        {
          "internalType": "address",
          "name": "",
          "type": "address"
        }
      ],
      "payable": false,
      "stateMutability": "view",
      "type": "function"
    },
    {
      "constant": true,
      "inputs": [],
      "name": "checkUserAddress",
      "outputs": [
        {
          "internalType": "bool",
          "name": "",
          "type": "bool"
        }
      ],
      "payable": false,
      "stateMutability": "view",
      "type": "function"
    },
    {
      "constant": true,
      "inputs": [
        {
          "internalType": "address",
          "name": "",
          "type": "address"
        }
      ],
      "name": "coinOwnerCount",
      "outputs": [
        {
          "internalType": "uint256",
          "name": "",
          "type": "uint256"
        }
      ],
      "payable": false,
      "stateMutability": "view",
      "type": "function"
    },
    {
      "constant": true,
      "inputs": [
        {
          "internalType": "address",
          "name": "",
          "type": "address"
        }
      ],
      "name": "foodOwnerCount",
      "outputs": [
        {
          "internalType": "uint256",
          "name": "",
          "type": "uint256"
        }
      ],
      "payable": false,
      "stateMutability": "view",
      "type": "function"
    },
    {
      "constant": true,
      "inputs": [
        {
          "internalType": "uint256",
          "name": "idx",
          "type": "uint256"
        }
      ],
      "name": "getBuildingById",
      "outputs": [
        {
          "internalType": "bool",
          "name": "",
          "type": "bool"
        },
        {
          "internalType": "string",
          "name": "",
          "type": "string"
        },
        {
          "internalType": "uint256",
          "name": "",
          "type": "uint256"
        }
      ],
      "payable": false,
      "stateMutability": "view",
      "type": "function"
    },
    {
      "constant": true,
      "inputs": [
        {
          "internalType": "address",
          "name": "_owner",
          "type": "address"
        },
        {
          "internalType": "uint256",
          "name": "_placeX",
          "type": "uint256"
        },
        {
          "internalType": "uint256",
          "name": "_placeY",
          "type": "uint256"
        }
      ],
      "name": "getBuildingByOwner",
      "outputs": [
        {
          "internalType": "uint256",
          "name": "",
          "type": "uint256"
        },
        {
          "internalType": "string",
          "name": "",
          "type": "string"
        }
      ],
      "payable": false,
      "stateMutability": "view",
      "type": "function"
    },
    {
      "constant": true,
      "inputs": [
        {
          "internalType": "address",
          "name": "_owner",
          "type": "address"
        }
      ],
      "name": "getBuildingsByOwner",
      "outputs": [
        {
          "internalType": "uint256[]",
          "name": "",
          "type": "uint256[]"
        }
      ],
      "payable": false,
      "stateMutability": "view",
      "type": "function"
    },
    {
      "constant": true,
      "inputs": [],
      "name": "getBuildingsLen",
      "outputs": [
        {
          "internalType": "uint256",
          "name": "",
          "type": "uint256"
        }
      ],
      "payable": false,
      "stateMutability": "view",
      "type": "function"
    },
    {
      "constant": true,
      "inputs": [],
      "name": "getCoinAmount",
      "outputs": [
        {
          "internalType": "uint256",
          "name": "",
          "type": "uint256"
        }
      ],
      "payable": false,
      "stateMutability": "view",
      "type": "function"
    },
    {
      "constant": true,
      "inputs": [],
      "name": "getFoodAmount",
      "outputs": [
        {
          "internalType": "uint256",
          "name": "",
          "type": "uint256"
        }
      ],
      "payable": false,
      "stateMutability": "view",
      "type": "function"
    },
    {
      "constant": true,
      "inputs": [],
      "name": "getIronAmount",
      "outputs": [
        {
          "internalType": "uint256",
          "name": "",
          "type": "uint256"
        }
      ],
      "payable": false,
      "stateMutability": "view",
      "type": "function"
    },
    {
      "constant": true,
      "inputs": [],
      "name": "getKingdomAmount",
      "outputs": [
        {
          "internalType": "uint256",
          "name": "",
          "type": "uint256"
        }
      ],
      "payable": false,
      "stateMutability": "view",
      "type": "function"
    },
    {
      "constant": true,
      "inputs": [],
      "name": "getMyIdx",
      "outputs": [
        {
          "internalType": "uint256",
          "name": "",
          "type": "uint256"
        }
      ],
      "payable": false,
      "stateMutability": "view",
      "type": "function"
    },
    {
      "constant": true,
      "inputs": [
        {
          "internalType": "address",
          "name": "_owner",
          "type": "address"
        }
      ],
      "name": "getRemainingTime",
      "outputs": [
        {
          "internalType": "uint256",
          "name": "",
          "type": "uint256"
        }
      ],
      "payable": false,
      "stateMutability": "view",
      "type": "function"
    },
    {
      "constant": true,
      "inputs": [
        {
          "internalType": "address",
          "name": "_owner",
          "type": "address"
        },
        {
          "internalType": "string",
          "name": "_name",
          "type": "string"
        }
      ],
      "name": "getSpecificBuildingByOwner",
      "outputs": [
        {
          "internalType": "uint256[]",
          "name": "",
          "type": "uint256[]"
        }
      ],
      "payable": false,
      "stateMutability": "view",
      "type": "function"
    },
    {
      "constant": true,
      "inputs": [],
      "name": "getStoneAmount",
      "outputs": [
        {
          "internalType": "uint256",
          "name": "",
          "type": "uint256"
        }
      ],
      "payable": false,
      "stateMutability": "view",
      "type": "function"
    },
    {
      "constant": true,
      "inputs": [
        {
          "internalType": "address",
          "name": "_owner",
          "type": "address"
        }
      ],
      "name": "getUpgradingId",
      "outputs": [
        {
          "internalType": "uint256",
          "name": "",
          "type": "uint256"
        }
      ],
      "payable": false,
      "stateMutability": "view",
      "type": "function"
    },
    {
      "constant": true,
      "inputs": [
        {
          "internalType": "uint256",
          "name": "idx",
          "type": "uint256"
        }
      ],
      "name": "getUserPower",
      "outputs": [
        {
          "internalType": "uint256",
          "name": "",
          "type": "uint256"
        }
      ],
      "payable": false,
      "stateMutability": "view",
      "type": "function"
    },
    {
      "constant": true,
      "inputs": [],
      "name": "getWoodAmount",
      "outputs": [
        {
          "internalType": "uint256",
          "name": "",
          "type": "uint256"
        }
      ],
      "payable": false,
      "stateMutability": "view",
      "type": "function"
    },
    {
      "constant": true,
      "inputs": [
        {
          "internalType": "address",
          "name": "",
          "type": "address"
        }
      ],
      "name": "ironOwnerCount",
      "outputs": [
        {
          "internalType": "uint256",
          "name": "",
          "type": "uint256"
        }
      ],
      "payable": false,
      "stateMutability": "view",
      "type": "function"
    },
    {
      "constant": true,
      "inputs": [],
      "name": "kingdomAmount",
      "outputs": [
        {
          "internalType": "uint256",
          "name": "",
          "type": "uint256"
        }
      ],
      "payable": false,
      "stateMutability": "view",
      "type": "function"
    },
    {
      "constant": true,
      "inputs": [
        {
          "internalType": "address",
          "name": "",
          "type": "address"
        }
      ],
      "name": "ownerCastleCount",
      "outputs": [
        {
          "internalType": "uint256",
          "name": "",
          "type": "uint256"
        }
      ],
      "payable": false,
      "stateMutability": "view",
      "type": "function"
    },
    {
      "constant": true,
      "inputs": [
        {
          "internalType": "address",
          "name": "",
          "type": "address"
        }
      ],
      "name": "power",
      "outputs": [
        {
          "internalType": "uint256",
          "name": "",
          "type": "uint256"
        }
      ],
      "payable": false,
      "stateMutability": "view",
      "type": "function"
    },
    {
      "constant": false,
      "inputs": [
        {
          "internalType": "address",
          "name": "_owner",
          "type": "address"
        },
        {
          "internalType": "uint256",
          "name": "_x",
          "type": "uint256"
        },
        {
          "internalType": "uint256",
          "name": "_y",
          "type": "uint256"
        }
      ],
      "name": "startBuild",
      "outputs": [
        {
          "internalType": "uint256",
          "name": "",
          "type": "uint256"
        }
      ],
      "payable": false,
      "stateMutability": "nonpayable",
      "type": "function"
    },
    {
      "constant": true,
      "inputs": [
        {
          "internalType": "address",
          "name": "",
          "type": "address"
        }
      ],
      "name": "stoneOwnerCount",
      "outputs": [
        {
          "internalType": "uint256",
          "name": "",
          "type": "uint256"
        }
      ],
      "payable": false,
      "stateMutability": "view",
      "type": "function"
    },
    {
      "constant": false,
      "inputs": [
        {
          "internalType": "address",
          "name": "_owner",
          "type": "address"
        }
      ],
      "name": "updateBuild",
      "outputs": [
        {
          "internalType": "uint256",
          "name": "",
          "type": "uint256"
        }
      ],
      "payable": false,
      "stateMutability": "nonpayable",
      "type": "function"
    },
    {
      "constant": true,
      "inputs": [
        {
          "internalType": "address",
          "name": "",
          "type": "address"
        }
      ],
      "name": "woodOwnerCount",
      "outputs": [
        {
          "internalType": "uint256",
          "name": "",
          "type": "uint256"
        }
      ],
      "payable": false,
      "stateMutability": "view",
      "type": "function"
    },
    {
      "constant": false,
      "inputs": [
        {
          "internalType": "uint256",
          "name": "_x",
          "type": "uint256"
        },
        {
          "internalType": "uint256",
          "name": "_y",
          "type": "uint256"
        }
      ],
      "name": "createCastle",
      "outputs": [],
      "payable": false,
      "stateMutability": "nonpayable",
      "type": "function"
    }
  ],
  "bytecode": "0x60806040526010600955600954600a0a600a55600a600b556064600d5534801561002857600080fd5b506135b2806100386000396000f3fe608060405234801561001057600080fd5b50600436106101da5760003560e01c806382a4182811610104578063ccf358a4116100a2578063e5b285f211610071578063e5b285f214610b1b578063ef78b6dc14610b73578063f4ab27f014610bcb578063fd8ccf2714610c39576101da565b8063ccf358a414610a15578063d1405a4e14610a33578063db2ace2a14610a6b578063e428afa014610ac3576101da565b80638919a9ca116100de5780638919a9ca14610927578063aba19ece14610949578063ad1c89cc146109b5578063c8b4eeff146109d3576101da565b806382a418281461075e578063842a89fa146107f7578063867b84e2146108cf576101da565b8063503371a51161017c578063623e9ba61161014b578063623e9ba6146106ac578063789630be146106ca5780637e2b875b146106e85780638226e53014610706576101da565b8063503371a5146105705780635192b291146105c857806356074209146106365780635ad609931461068e576101da565b80631c980beb116101b85780631c980beb1461030e5780632c79c5231461032c57806346125f841461045c5780634c96a062146104b4576101da565b80630e85117a146101df5780630f130a3914610237578063194c717b146102f0575b600080fd5b610221600480360360208110156101f557600080fd5b81019080803573ffffffffffffffffffffffffffffffffffffffff169060200190929190505050610c57565b6040518082815260200191505060405180910390f35b6102636004803603602081101561024d57600080fd5b8101908080359060200190929190505050610dd3565b604051808415151515815260200180602001838152602001828103825284818151815260200191508051906020019080838360005b838110156102b3578082015181840152602081019050610298565b50505050905090810190601f1680156102e05780820380516001836020036101000a031916815260200191505b5094505050505060405180910390f35b6102f8610f16565b6040518082815260200191505060405180910390f35b610316610f1c565b6040518082815260200191505060405180910390f35b6104056004803603604081101561034257600080fd5b81019080803573ffffffffffffffffffffffffffffffffffffffff1690602001909291908035906020019064010000000081111561037f57600080fd5b82018360208201111561039157600080fd5b803590602001918460018302840111640100000000831117156103b357600080fd5b91908080601f016020809104026020016040519081016040528093929190818152602001838380828437600081840152601f19601f820116905080830192505050505050509192919290505050610f62565b6040518080602001828103825283818151815260200191508051906020019060200280838360005b8381101561044857808201518184015260208101905061042d565b505050509050019250505060405180910390f35b61049e6004803603602081101561047257600080fd5b81019080803573ffffffffffffffffffffffffffffffffffffffff1690602001909291905050506114fd565b6040518082815260200191505060405180910390f35b6104e0600480360360208110156104ca57600080fd5b8101908080359060200190929190505050611515565b6040518080602001858152602001848152602001838152602001828103825286818151815260200191508051906020019080838360005b83811015610532578082015181840152602081019050610517565b50505050905090810190601f16801561055f5780820380516001836020036101000a031916815260200191505b509550505050505060405180910390f35b6105b26004803603602081101561058657600080fd5b81019080803573ffffffffffffffffffffffffffffffffffffffff1690602001909291905050506115ea565b6040518082815260200191505060405180910390f35b6105f4600480360360208110156105de57600080fd5b8101908080359060200190929190505050611602565b604051808273ffffffffffffffffffffffffffffffffffffffff1673ffffffffffffffffffffffffffffffffffffffff16815260200191505060405180910390f35b6106786004803603602081101561064c57600080fd5b81019080803573ffffffffffffffffffffffffffffffffffffffff169060200190929190505050611635565b6040518082815260200191505060405180910390f35b61069661188f565b6040518082815260200191505060405180910390f35b6106b46118d6565b6040518082815260200191505060405180910390f35b6106d261191d565b6040518082815260200191505060405180910390f35b6106f06119b4565b6040518082815260200191505060405180910390f35b6107486004803603602081101561071c57600080fd5b81019080803573ffffffffffffffffffffffffffffffffffffffff1690602001909291905050506119be565b6040518082815260200191505060405180910390f35b6107a06004803603602081101561077457600080fd5b81019080803573ffffffffffffffffffffffffffffffffffffffff1690602001909291905050506119d6565b6040518080602001828103825283818151815260200191508051906020019060200280838360005b838110156107e35780820151818401526020810190506107c8565b505050509050019250505060405180910390f35b61084d6004803603606081101561080d57600080fd5b81019080803573ffffffffffffffffffffffffffffffffffffffff1690602001909291908035906020019092919080359060200190929190505050611c97565b6040518083815260200180602001828103825283818151815260200191508051906020019080838360005b83811015610893578082015181840152602081019050610878565b50505050905090810190601f1680156108c05780820380516001836020036101000a031916815260200191505b50935050505060405180910390f35b610911600480360360208110156108e557600080fd5b81019080803573ffffffffffffffffffffffffffffffffffffffff169060200190929190505050611e80565b6040518082815260200191505060405180910390f35b61092f611e98565b604051808215151515815260200191505060405180910390f35b61099f6004803603606081101561095f57600080fd5b81019080803573ffffffffffffffffffffffffffffffffffffffff1690602001909291908035906020019092919080359060200190929190505050611ef2565b6040518082815260200191505060405180910390f35b6109bd61211c565b6040518082815260200191505060405180910390f35b6109ff600480360360208110156109e957600080fd5b8101908080359060200190929190505050612129565b6040518082815260200191505060405180910390f35b610a1d6121b9565b6040518082815260200191505060405180910390f35b610a6960048036036040811015610a4957600080fd5b810190808035906020019092919080359060200190929190505050612200565b005b610aad60048036036020811015610a8157600080fd5b81019080803573ffffffffffffffffffffffffffffffffffffffff169060200190929190505050612294565b6040518082815260200191505060405180910390f35b610b0560048036036020811015610ad957600080fd5b81019080803573ffffffffffffffffffffffffffffffffffffffff1690602001909291905050506122dd565b6040518082815260200191505060405180910390f35b610b5d60048036036020811015610b3157600080fd5b81019080803573ffffffffffffffffffffffffffffffffffffffff1690602001909291905050506122f5565b6040518082815260200191505060405180910390f35b610bb560048036036020811015610b8957600080fd5b81019080803573ffffffffffffffffffffffffffffffffffffffff16906020019092919050505061230d565b6040518082815260200191505060405180910390f35b610bf760048036036020811015610be157600080fd5b8101908080359060200190929190505050612325565b604051808273ffffffffffffffffffffffffffffffffffffffff1673ffffffffffffffffffffffffffffffffffffffff16815260200191505060405180910390f35b610c41612358565b6040518082815260200191505060405180910390f35b600080601060008473ffffffffffffffffffffffffffffffffffffffff1673ffffffffffffffffffffffffffffffffffffffff1681526020019081526020016000205490506000600f60008573ffffffffffffffffffffffffffffffffffffffff1673ffffffffffffffffffffffffffffffffffffffff1681526020019081526020016000205414158015610d4f5750600b54600c8281548110610cf757fe5b90600052602060002090600402016003015402600f60008573ffffffffffffffffffffffffffffffffffffffff1673ffffffffffffffffffffffffffffffffffffffff16815260200190815260200160002054014210155b15610d5e576000915050610dce565b600042600b54600c8481548110610d7157fe5b90600052602060002090600402016003015402600f60008773ffffffffffffffffffffffffffffffffffffffff1673ffffffffffffffffffffffffffffffffffffffff168152602001908152602001600020540103905080925050505b919050565b600060606000600c805490508410610e2d576000806040518060400160405280601381526020017f696e76616c6964206275696c64696e672069640000000000000000000000000081525090809050925092509250610f0f565b6001600c8581548110610e3c57fe5b9060005260206000209060040201600001600c8681548110610e5a57fe5b906000526020600020906004020160030154818054600181600116156101000203166002900480601f016020809104026020016040519081016040528092919081815260200182805460018160011615610100020316600290048015610f015780601f10610ed657610100808354040283529160200191610f01565b820191906000526020600020905b815481529060010190602001808311610ee457829003601f168201915b505050505091509250925092505b9193909250565b60065481565b60008060003373ffffffffffffffffffffffffffffffffffffffff1673ffffffffffffffffffffffffffffffffffffffff16815260200190815260200160002054905090565b606060008090506040518060400160405280600481526020017f4661726d000000000000000000000000000000000000000000000000000000008152508051906020012083805190602001201415610ffb57601260008573ffffffffffffffffffffffffffffffffffffffff1673ffffffffffffffffffffffffffffffffffffffff168152602001908152602001600020549050611369565b6040518060400160405280600481526020017f4d696e6500000000000000000000000000000000000000000000000000000000815250805190602001208380519060200120141561108d57601360008573ffffffffffffffffffffffffffffffffffffffff1673ffffffffffffffffffffffffffffffffffffffff168152602001908152602001600020549050611368565b6040518060400160405280600581526020017f4d616e6f72000000000000000000000000000000000000000000000000000000815250805190602001208380519060200120141561111f57601460008573ffffffffffffffffffffffffffffffffffffffff1673ffffffffffffffffffffffffffffffffffffffff168152602001908152602001600020549050611367565b6040518060400160405280600681526020017f517561727279000000000000000000000000000000000000000000000000000081525080519060200120838051906020012014156111b157601560008573ffffffffffffffffffffffffffffffffffffffff1673ffffffffffffffffffffffffffffffffffffffff168152602001908152602001600020549050611366565b6040518060400160405280600781526020017f5361776d696c6c00000000000000000000000000000000000000000000000000815250805190602001208380519060200120141561124357601660008573ffffffffffffffffffffffffffffffffffffffff1673ffffffffffffffffffffffffffffffffffffffff168152602001908152602001600020549050611365565b6040518060400160405280600681526020017f43656c6c6172000000000000000000000000000000000000000000000000000081525080519060200120838051906020012014156112d557601760008573ffffffffffffffffffffffffffffffffffffffff1673ffffffffffffffffffffffffffffffffffffffff168152602001908152602001600020549050611364565b6040518060400160405280600781526020017f4261727261636b00000000000000000000000000000000000000000000000000815250805190602001208380519060200120141561136357601860008573ffffffffffffffffffffffffffffffffffffffff1673ffffffffffffffffffffffffffffffffffffffff1681526020019081526020016000205490505b5b5b5b5b5b5b60608160405190808252806020026020018201604052801561139a5781602001602082028038833980820191505090505b509050600080905060008090505b600c805490508110156114f0578673ffffffffffffffffffffffffffffffffffffffff16600e600083815260200190815260200160002060009054906101000a900473ffffffffffffffffffffffffffffffffffffffff1673ffffffffffffffffffffffffffffffffffffffff161480156114ae57508580519060200120600c828154811061143357fe5b9060005260206000209060040201600001604051808280546001816001161561010002031660029004801561149f5780601f1061147d57610100808354040283529182019161149f565b820191906000526020600020905b81548152906001019060200180831161148b575b50509150506040518091039020145b156114e357808383815181106114c057fe5b6020026020010181815250506114e060018361239f90919063ffffffff16565b91505b80806001019150506113a8565b5081935050505092915050565b60086020528060005260406000206000915090505481565b600c818154811061152257fe5b9060005260206000209060040201600091509050806000018054600181600116156101000203166002900480601f0160208091040260200160405190810160405280929190818152602001828054600181600116156101000203166002900480156115ce5780601f106115a3576101008083540402835291602001916115ce565b820191906000526020600020905b8154815290600101906020018083116115b157829003601f168201915b5050505050908060010154908060020154908060030154905084565b60056020528060005260406000206000915090505481565b600e6020528060005260406000206000915054906101000a900473ffffffffffffffffffffffffffffffffffffffff1681565b600080601060008473ffffffffffffffffffffffffffffffffffffffff1673ffffffffffffffffffffffffffffffffffffffff1681526020019081526020016000205490506000600f60008573ffffffffffffffffffffffffffffffffffffffff1673ffffffffffffffffffffffffffffffffffffffff168152602001908152602001600020541415801561172d5750600b54600c82815481106116d557fe5b90600052602060002090600402016003015402600f60008573ffffffffffffffffffffffffffffffffffffffff1673ffffffffffffffffffffffffffffffffffffffff16815260200190815260200160002054014210155b1561181a576117646001600c838154811061174457fe5b90600052602060002090600402016003015461239f90919063ffffffff16565b600c828154811061177157fe5b9060005260206000209060040201600301819055506000600f60008573ffffffffffffffffffffffffffffffffffffffff1673ffffffffffffffffffffffffffffffffffffffff168152602001908152602001600020819055506000601060008573ffffffffffffffffffffffffffffffffffffffff1673ffffffffffffffffffffffffffffffffffffffff16815260200190815260200160002081905550600091505061188a565b600042600b54600c848154811061182d57fe5b90600052602060002090600402016003015402600f60008773ffffffffffffffffffffffffffffffffffffffff1673ffffffffffffffffffffffffffffffffffffffff168152602001908152602001600020540103905080925050505b919050565b6000600260003373ffffffffffffffffffffffffffffffffffffffff1673ffffffffffffffffffffffffffffffffffffffff16815260200190815260200160002054905090565b6000600360003373ffffffffffffffffffffffffffffffffffffffff1673ffffffffffffffffffffffffffffffffffffffff16815260200190815260200160002054905090565b600080600090505b6006548110156119aa573373ffffffffffffffffffffffffffffffffffffffff166007600083815260200190815260200160002060009054906101000a900473ffffffffffffffffffffffffffffffffffffffff1673ffffffffffffffffffffffffffffffffffffffff16141561199f57809150506119b1565b806001019050611925565b5060065490505b90565b6000600654905090565b60016020528060005260406000206000915090505481565b606080601860008473ffffffffffffffffffffffffffffffffffffffff1673ffffffffffffffffffffffffffffffffffffffff16815260200190815260200160002054601760008573ffffffffffffffffffffffffffffffffffffffff1673ffffffffffffffffffffffffffffffffffffffff16815260200190815260200160002054601660008673ffffffffffffffffffffffffffffffffffffffff1673ffffffffffffffffffffffffffffffffffffffff16815260200190815260200160002054601560008773ffffffffffffffffffffffffffffffffffffffff1673ffffffffffffffffffffffffffffffffffffffff16815260200190815260200160002054601460008873ffffffffffffffffffffffffffffffffffffffff1673ffffffffffffffffffffffffffffffffffffffff16815260200190815260200160002054601360008973ffffffffffffffffffffffffffffffffffffffff1673ffffffffffffffffffffffffffffffffffffffff16815260200190815260200160002054601260008a73ffffffffffffffffffffffffffffffffffffffff1673ffffffffffffffffffffffffffffffffffffffff16815260200190815260200160002054010101010101604051908082528060200260200182016040528015611bcd5781602001602082028038833980820191505090505b509050600080905060008090505b600c80549050811015611c8c578473ffffffffffffffffffffffffffffffffffffffff16600e600083815260200190815260200160002060009054906101000a900473ffffffffffffffffffffffffffffffffffffffff1673ffffffffffffffffffffffffffffffffffffffff161415611c7f5780838381518110611c5c57fe5b602002602001018181525050611c7c60018361239f90919063ffffffff16565b91505b8080600101915050611bdb565b508192505050919050565b6000606060008090505b600c80549050811015611e37578573ffffffffffffffffffffffffffffffffffffffff16600e600083815260200190815260200160002060009054906101000a900473ffffffffffffffffffffffffffffffffffffffff1673ffffffffffffffffffffffffffffffffffffffff161415611e2a5784600c8281548110611d2357fe5b906000526020600020906004020160010154148015611d5f575083600c8281548110611d4b57fe5b906000526020600020906004020160020154145b15611e295780600c8281548110611d7257fe5b9060005260206000209060040201600001808054600181600116156101000203166002900480601f016020809104026020016040519081016040528092919081815260200182805460018160011615610100020316600290048015611e185780601f10611ded57610100808354040283529160200191611e18565b820191906000526020600020905b815481529060010190602001808311611dfb57829003601f168201915b505050505090509250925050611e78565b5b8080600101915050611ca1565b60008090506040518060400160405280600481526020017f4e6f6e650000000000000000000000000000000000000000000000000000000081525092509250505b935093915050565b60046020528060005260406000206000915090505481565b600080600860003373ffffffffffffffffffffffffffffffffffffffff1673ffffffffffffffffffffffffffffffffffffffff168152602001908152602001600020541115611eea5760019050611eef565b600090505b90565b600080611f00858585611c97565b50809150506000811415611f18576000915050612115565b6040518060400160405280600681526020017f436173746c65000000000000000000000000000000000000000000000000000081525080519060200120600c8281548110611f6257fe5b90600052602060002090600402016000016040518082805460018160011615610100020316600290048015611fce5780601f10611fac576101008083540402835291820191611fce565b820191906000526020600020905b815481529060010190602001808311611fba575b5050915050604051809103902050506000600f60008773ffffffffffffffffffffffffffffffffffffffff1673ffffffffffffffffffffffffffffffffffffffff168152602001908152602001600020541461202e576000915050612115565b80601060008773ffffffffffffffffffffffffffffffffffffffff1673ffffffffffffffffffffffffffffffffffffffff1681526020019081526020016000208190555042600f60008773ffffffffffffffffffffffffffffffffffffffff1673ffffffffffffffffffffffffffffffffffffffff168152602001908152602001600020819055506000600d54600c83815481106120c857fe5b9060005260206000209060040201600301540290506120ec86600083848586612427565b50600b54600c83815481106120fd57fe5b90600052602060002090600402016003015402925050505b9392505050565b6000600c80549050905090565b60006006548210156121af57600560006007600085815260200190815260200160002060009054906101000a900473ffffffffffffffffffffffffffffffffffffffff1673ffffffffffffffffffffffffffffffffffffffff1673ffffffffffffffffffffffffffffffffffffffff1681526020019081526020016000205490506121b4565b600090505b919050565b6000600460003373ffffffffffffffffffffffffffffffffffffffff1673ffffffffffffffffffffffffffffffffffffffff16815260200190815260200160002054905090565b612241336040518060400160405280600681526020017f436173746c650000000000000000000000000000000000000000000000000000815250848461289b565b5061224b33613128565b6001601160003373ffffffffffffffffffffffffffffffffffffffff1673ffffffffffffffffffffffffffffffffffffffff168152602001908152602001600020819055505050565b6000601060008373ffffffffffffffffffffffffffffffffffffffff1673ffffffffffffffffffffffffffffffffffffffff168152602001908152602001600020549050919050565b60006020528060005260406000206000915090505481565b60026020528060005260406000206000915090505481565b60036020528060005260406000206000915090505481565b60076020528060005260406000206000915054906101000a900473ffffffffffffffffffffffffffffffffffffffff1681565b6000600160003373ffffffffffffffffffffffffffffffffffffffff1673ffffffffffffffffffffffffffffffffffffffff16815260200190815260200160002054905090565b60008082840190508381101561241d576040517f08c379a000000000000000000000000000000000000000000000000000000000815260040180806020018281038252601b8152602001807f536166654d6174683a206164646974696f6e206f766572666c6f77000000000081525060200191505060405180910390fd5b8091505092915050565b600085600260008973ffffffffffffffffffffffffffffffffffffffff1673ffffffffffffffffffffffffffffffffffffffff16815260200190815260200160002054101580156124b7575084600460008973ffffffffffffffffffffffffffffffffffffffff1673ffffffffffffffffffffffffffffffffffffffff1681526020019081526020016000205410155b8015612502575083600160008973ffffffffffffffffffffffffffffffffffffffff1673ffffffffffffffffffffffffffffffffffffffff1681526020019081526020016000205410155b801561254c5750826000808973ffffffffffffffffffffffffffffffffffffffff1673ffffffffffffffffffffffffffffffffffffffff1681526020019081526020016000205410155b8015612597575081600360008973ffffffffffffffffffffffffffffffffffffffff1673ffffffffffffffffffffffffffffffffffffffff1681526020019081526020016000205410155b1561288c576125ee86600260008a73ffffffffffffffffffffffffffffffffffffffff1673ffffffffffffffffffffffffffffffffffffffff168152602001908152602001600020546133ce90919063ffffffff16565b600260008973ffffffffffffffffffffffffffffffffffffffff1673ffffffffffffffffffffffffffffffffffffffff1681526020019081526020016000208190555061268385600460008a73ffffffffffffffffffffffffffffffffffffffff1673ffffffffffffffffffffffffffffffffffffffff168152602001908152602001600020546133ce90919063ffffffff16565b600460008973ffffffffffffffffffffffffffffffffffffffff1673ffffffffffffffffffffffffffffffffffffffff1681526020019081526020016000208190555061271884600160008a73ffffffffffffffffffffffffffffffffffffffff1673ffffffffffffffffffffffffffffffffffffffff168152602001908152602001600020546133ce90919063ffffffff16565b600160008973ffffffffffffffffffffffffffffffffffffffff1673ffffffffffffffffffffffffffffffffffffffff168152602001908152602001600020819055506127ac836000808a73ffffffffffffffffffffffffffffffffffffffff1673ffffffffffffffffffffffffffffffffffffffff168152602001908152602001600020546133ce90919063ffffffff16565b6000808973ffffffffffffffffffffffffffffffffffffffff1673ffffffffffffffffffffffffffffffffffffffff1681526020019081526020016000208190555061284082600360008a73ffffffffffffffffffffffffffffffffffffffff1673ffffffffffffffffffffffffffffffffffffffff168152602001908152602001600020546133ce90919063ffffffff16565b600360008973ffffffffffffffffffffffffffffffffffffffff1673ffffffffffffffffffffffffffffffffffffffff1681526020019081526020016000208190555060019050612891565b600090505b9695505050505050565b600080600c8054905014156129c357600c60405180608001604052806040518060400160405280600f81526020017f66697273745f6275696c64696e67210000000000000000000000000000000000815250815260200160008152602001600081526020016103e881525090806001815401808255809150509060018203906000526020600020906004020160009091929091909150600082015181600001908051906020019061294d9291906134d8565b506020820151816001015560408201518160020155606082015181600301555050506000600e600080815260200190815260200160002060006101000a81548173ffffffffffffffffffffffffffffffffffffffff021916908373ffffffffffffffffffffffffffffffffffffffff1602179055505b6000612a646001600c60405180608001604052808981526020018881526020018781526020016001815250908060018154018082558091505090600182039060005260206000209060040201600090919290919091506000820151816000019080519060200190612a359291906134d8565b5060208201518160010155604082015181600201556060820151816003015550506133ce90919063ffffffff16565b9050612a7d866000600d54600d54600d54600d54612427565b5085600e600083815260200190815260200160002060006101000a81548173ffffffffffffffffffffffffffffffffffffffff021916908373ffffffffffffffffffffffffffffffffffffffff1602179055506040518060400160405280600481526020017f4661726d000000000000000000000000000000000000000000000000000000008152508051906020012085805190602001201415612bb657612b6e6001601260008973ffffffffffffffffffffffffffffffffffffffff1673ffffffffffffffffffffffffffffffffffffffff1681526020019081526020016000205461239f90919063ffffffff16565b601260008873ffffffffffffffffffffffffffffffffffffffff1673ffffffffffffffffffffffffffffffffffffffff1681526020019081526020016000208190555061311c565b6040518060400160405280600481526020017f4d696e65000000000000000000000000000000000000000000000000000000008152508051906020012085805190602001201415612c9c57612c546001601360008973ffffffffffffffffffffffffffffffffffffffff1673ffffffffffffffffffffffffffffffffffffffff1681526020019081526020016000205461239f90919063ffffffff16565b601360008873ffffffffffffffffffffffffffffffffffffffff1673ffffffffffffffffffffffffffffffffffffffff1681526020019081526020016000208190555061311b565b6040518060400160405280600581526020017f4d616e6f720000000000000000000000000000000000000000000000000000008152508051906020012085805190602001201415612d8257612d3a6001601460008973ffffffffffffffffffffffffffffffffffffffff1673ffffffffffffffffffffffffffffffffffffffff1681526020019081526020016000205461239f90919063ffffffff16565b601460008873ffffffffffffffffffffffffffffffffffffffff1673ffffffffffffffffffffffffffffffffffffffff1681526020019081526020016000208190555061311a565b6040518060400160405280600681526020017f51756172727900000000000000000000000000000000000000000000000000008152508051906020012085805190602001201415612e6857612e206001601560008973ffffffffffffffffffffffffffffffffffffffff1673ffffffffffffffffffffffffffffffffffffffff1681526020019081526020016000205461239f90919063ffffffff16565b601560008873ffffffffffffffffffffffffffffffffffffffff1673ffffffffffffffffffffffffffffffffffffffff16815260200190815260200160002081905550613119565b6040518060400160405280600781526020017f5361776d696c6c000000000000000000000000000000000000000000000000008152508051906020012085805190602001201415612f4e57612f066001601660008973ffffffffffffffffffffffffffffffffffffffff1673ffffffffffffffffffffffffffffffffffffffff1681526020019081526020016000205461239f90919063ffffffff16565b601660008873ffffffffffffffffffffffffffffffffffffffff1673ffffffffffffffffffffffffffffffffffffffff16815260200190815260200160002081905550613118565b6040518060400160405280600681526020017f43656c6c61720000000000000000000000000000000000000000000000000000815250805190602001208580519060200120141561303457612fec6001601760008973ffffffffffffffffffffffffffffffffffffffff1673ffffffffffffffffffffffffffffffffffffffff1681526020019081526020016000205461239f90919063ffffffff16565b601760008873ffffffffffffffffffffffffffffffffffffffff1673ffffffffffffffffffffffffffffffffffffffff16815260200190815260200160002081905550613117565b6040518060400160405280600781526020017f4261727261636b000000000000000000000000000000000000000000000000008152508051906020012085805190602001201415613116576130d26001601860008973ffffffffffffffffffffffffffffffffffffffff1673ffffffffffffffffffffffffffffffffffffffff1681526020019081526020016000205461239f90919063ffffffff16565b601860008873ffffffffffffffffffffffffffffffffffffffff1673ffffffffffffffffffffffffffffffffffffffff168152602001908152602001600020819055505b5b5b5b5b5b5b80915050949350505050565b6000600860008373ffffffffffffffffffffffffffffffffffffffff1673ffffffffffffffffffffffffffffffffffffffff168152602001908152602001600020541461317457600080fd5b8060076000600654815260200190815260200160002060006101000a81548173ffffffffffffffffffffffffffffffffffffffff021916908373ffffffffffffffffffffffffffffffffffffffff160217905550600660008154809291906001019190505550600860008273ffffffffffffffffffffffffffffffffffffffff1673ffffffffffffffffffffffffffffffffffffffff16815260200190815260200160002060008154809291906001019190505550612710600260008373ffffffffffffffffffffffffffffffffffffffff1673ffffffffffffffffffffffffffffffffffffffff16815260200190815260200160002081905550612710600460008373ffffffffffffffffffffffffffffffffffffffff1673ffffffffffffffffffffffffffffffffffffffff168152602001908152602001600020819055506127106000808373ffffffffffffffffffffffffffffffffffffffff1673ffffffffffffffffffffffffffffffffffffffff16815260200190815260200160002081905550612710600160008373ffffffffffffffffffffffffffffffffffffffff1673ffffffffffffffffffffffffffffffffffffffff16815260200190815260200160002081905550612710600360008373ffffffffffffffffffffffffffffffffffffffff1673ffffffffffffffffffffffffffffffffffffffff168152602001908152602001600020819055506000600560008373ffffffffffffffffffffffffffffffffffffffff1673ffffffffffffffffffffffffffffffffffffffff1681526020019081526020016000208190555050565b600061341083836040518060400160405280601e81526020017f536166654d6174683a207375627472616374696f6e206f766572666c6f770000815250613418565b905092915050565b60008383111582906134c5576040517f08c379a00000000000000000000000000000000000000000000000000000000081526004018080602001828103825283818151815260200191508051906020019080838360005b8381101561348a57808201518184015260208101905061346f565b50505050905090810190601f1680156134b75780820380516001836020036101000a031916815260200191505b509250505060405180910390fd5b5060008385039050809150509392505050565b828054600181600116156101000203166002900490600052602060002090601f016020900481019282601f1061351957805160ff1916838001178555613547565b82800160010185558215613547579182015b8281111561354657825182559160200191906001019061352b565b5b5090506135549190613558565b5090565b61357a91905b8082111561357657600081600090555060010161355e565b5090565b9056fea265627a7a723158209093096d0384787cc5ac57d399b02c811533b47edaeda99afed2891948a54b6664736f6c63430005100032",
  "source": "pragma solidity >=0.4.21 <0.7.0;\n\nimport \"./SafeMath.sol\";\nimport \"./BuildingFactory.sol\";\n\ncontract CastleFactory is BuildingFactory {\n\n    using SafeMath for uint;\n    \n    function createCastle(uint _x, uint _y) public {\n        _createBuilding(msg.sender, \"Castle\", _x, _y);\n        _initializeKingdom(msg.sender);\n        castleLevel[msg.sender] = 1;\n    }\n\n\n    modifier lessThanCastle(address _owner, uint _buildingID) {\n        require(buildings[_buildingID].level.add(1) <= castleLevel[_owner]);\n        _;\n    }\n}",
  "sourcePath": "/Users/cyl/Downloads/NmlabFinal-main/contracts/Castle.sol",
  "compiler": {
    "name": "solc",
    "version": "0.5.16+commit.9c3226ce.Emscripten.clang"
  },
  "schemaVersion": "3.4.1",
  "updatedAt": "2021-05-26T14:22:57.818Z",
  "devdoc": {
    "methods": {}
  },
  "userdoc": {
    "methods": {}
  }
}