{
  "contractName": "CellarFactory",
  "abi": [
    {
      "constant": true,
      "inputs": [
        {
          "internalType": "uint256",
          "name": "",
          "type": "uint256"
        }
      ],
      "name": "buildingToOwner",
      "outputs": [
        {
          "internalType": "address",
          "name": "",
          "type": "address"
        }
      ],
      "payable": false,
      "stateMutability": "view",
      "type": "function"
    },
    {
      "constant": true,
      "inputs": [
        {
          "internalType": "uint256",
          "name": "",
          "type": "uint256"
        }
      ],
      "name": "buildings",
      "outputs": [
        {
          "internalType": "string",
          "name": "name",
          "type": "string"
        },
        {
          "internalType": "uint256",
          "name": "placeX",
          "type": "uint256"
        },
        {
          "internalType": "uint256",
          "name": "placeY",
          "type": "uint256"
        },
        {
          "internalType": "uint256",
          "name": "level",
          "type": "uint256"
        }
      ],
      "payable": false,
      "stateMutability": "view",
      "type": "function"
    },
    {
      "constant": true,
      "inputs": [
        {
          "internalType": "uint256",
          "name": "",
          "type": "uint256"
        }
      ],
      "name": "castleToOwner",
      "outputs": [
        {
          "internalType": "address",
          "name": "",
          "type": "address"
        }
      ],
      "payable": false,
      "stateMutability": "view",
      "type": "function"
    },
    {
      "constant": true,
      "inputs": [],
      "name": "checkUserAddress",
      "outputs": [
        {
          "internalType": "bool",
          "name": "",
          "type": "bool"
        }
      ],
      "payable": false,
      "stateMutability": "view",
      "type": "function"
    },
    {
      "constant": true,
      "inputs": [
        {
          "internalType": "address",
          "name": "",
          "type": "address"
        }
      ],
      "name": "coinOwnerCount",
      "outputs": [
        {
          "internalType": "uint256",
          "name": "",
          "type": "uint256"
        }
      ],
      "payable": false,
      "stateMutability": "view",
      "type": "function"
    },
    {
      "constant": false,
      "inputs": [
        {
          "internalType": "uint256",
          "name": "_x",
          "type": "uint256"
        },
        {
          "internalType": "uint256",
          "name": "_y",
          "type": "uint256"
        }
      ],
      "name": "createCastle",
      "outputs": [],
      "payable": false,
      "stateMutability": "nonpayable",
      "type": "function"
    },
    {
      "constant": true,
      "inputs": [
        {
          "internalType": "address",
          "name": "",
          "type": "address"
        }
      ],
      "name": "foodOwnerCount",
      "outputs": [
        {
          "internalType": "uint256",
          "name": "",
          "type": "uint256"
        }
      ],
      "payable": false,
      "stateMutability": "view",
      "type": "function"
    },
    {
      "constant": true,
      "inputs": [
        {
          "internalType": "uint256",
          "name": "idx",
          "type": "uint256"
        }
      ],
      "name": "getBuildingById",
      "outputs": [
        {
          "internalType": "bool",
          "name": "",
          "type": "bool"
        },
        {
          "internalType": "string",
          "name": "",
          "type": "string"
        },
        {
          "internalType": "uint256",
          "name": "",
          "type": "uint256"
        }
      ],
      "payable": false,
      "stateMutability": "view",
      "type": "function"
    },
    {
      "constant": true,
      "inputs": [
        {
          "internalType": "address",
          "name": "_owner",
          "type": "address"
        },
        {
          "internalType": "uint256",
          "name": "_placeX",
          "type": "uint256"
        },
        {
          "internalType": "uint256",
          "name": "_placeY",
          "type": "uint256"
        }
      ],
      "name": "getBuildingByOwner",
      "outputs": [
        {
          "internalType": "uint256",
          "name": "",
          "type": "uint256"
        },
        {
          "internalType": "string",
          "name": "",
          "type": "string"
        }
      ],
      "payable": false,
      "stateMutability": "view",
      "type": "function"
    },
    {
      "constant": true,
      "inputs": [
        {
          "internalType": "address",
          "name": "_owner",
          "type": "address"
        }
      ],
      "name": "getBuildingsByOwner",
      "outputs": [
        {
          "internalType": "uint256[]",
          "name": "",
          "type": "uint256[]"
        }
      ],
      "payable": false,
      "stateMutability": "view",
      "type": "function"
    },
    {
      "constant": true,
      "inputs": [],
      "name": "getBuildingsLen",
      "outputs": [
        {
          "internalType": "uint256",
          "name": "",
          "type": "uint256"
        }
      ],
      "payable": false,
      "stateMutability": "view",
      "type": "function"
    },
    {
      "constant": true,
      "inputs": [],
      "name": "getCoinAmount",
      "outputs": [
        {
          "internalType": "uint256",
          "name": "",
          "type": "uint256"
        }
      ],
      "payable": false,
      "stateMutability": "view",
      "type": "function"
    },
    {
      "constant": true,
      "inputs": [],
      "name": "getFoodAmount",
      "outputs": [
        {
          "internalType": "uint256",
          "name": "",
          "type": "uint256"
        }
      ],
      "payable": false,
      "stateMutability": "view",
      "type": "function"
    },
    {
      "constant": true,
      "inputs": [],
      "name": "getIronAmount",
      "outputs": [
        {
          "internalType": "uint256",
          "name": "",
          "type": "uint256"
        }
      ],
      "payable": false,
      "stateMutability": "view",
      "type": "function"
    },
    {
      "constant": true,
      "inputs": [],
      "name": "getKingdomAmount",
      "outputs": [
        {
          "internalType": "uint256",
          "name": "",
          "type": "uint256"
        }
      ],
      "payable": false,
      "stateMutability": "view",
      "type": "function"
    },
    {
      "constant": true,
      "inputs": [],
      "name": "getMyIdx",
      "outputs": [
        {
          "internalType": "uint256",
          "name": "",
          "type": "uint256"
        }
      ],
      "payable": false,
      "stateMutability": "view",
      "type": "function"
    },
    {
      "constant": true,
      "inputs": [
        {
          "internalType": "address",
          "name": "_owner",
          "type": "address"
        }
      ],
      "name": "getRemainingTime",
      "outputs": [
        {
          "internalType": "uint256",
          "name": "",
          "type": "uint256"
        }
      ],
      "payable": false,
      "stateMutability": "view",
      "type": "function"
    },
    {
      "constant": true,
      "inputs": [
        {
          "internalType": "address",
          "name": "_owner",
          "type": "address"
        },
        {
          "internalType": "string",
          "name": "_name",
          "type": "string"
        }
      ],
      "name": "getSpecificBuildingByOwner",
      "outputs": [
        {
          "internalType": "uint256[]",
          "name": "",
          "type": "uint256[]"
        }
      ],
      "payable": false,
      "stateMutability": "view",
      "type": "function"
    },
    {
      "constant": true,
      "inputs": [],
      "name": "getStoneAmount",
      "outputs": [
        {
          "internalType": "uint256",
          "name": "",
          "type": "uint256"
        }
      ],
      "payable": false,
      "stateMutability": "view",
      "type": "function"
    },
    {
      "constant": true,
      "inputs": [
        {
          "internalType": "address",
          "name": "_owner",
          "type": "address"
        }
      ],
      "name": "getUpgradingId",
      "outputs": [
        {
          "internalType": "uint256",
          "name": "",
          "type": "uint256"
        }
      ],
      "payable": false,
      "stateMutability": "view",
      "type": "function"
    },
    {
      "constant": true,
      "inputs": [
        {
          "internalType": "uint256",
          "name": "idx",
          "type": "uint256"
        }
      ],
      "name": "getUserHealth",
      "outputs": [
        {
          "internalType": "uint256",
          "name": "",
          "type": "uint256"
        }
      ],
      "payable": false,
      "stateMutability": "view",
      "type": "function"
    },
    {
      "constant": true,
      "inputs": [
        {
          "internalType": "uint256",
          "name": "idx",
          "type": "uint256"
        }
      ],
      "name": "getUserPower",
      "outputs": [
        {
          "internalType": "uint256",
          "name": "",
          "type": "uint256"
        }
      ],
      "payable": false,
      "stateMutability": "view",
      "type": "function"
    },
    {
      "constant": true,
      "inputs": [
        {
          "internalType": "uint256",
          "name": "idx",
          "type": "uint256"
        }
      ],
      "name": "getUserSpyPower",
      "outputs": [
        {
          "internalType": "uint256",
          "name": "",
          "type": "uint256"
        }
      ],
      "payable": false,
      "stateMutability": "view",
      "type": "function"
    },
    {
      "constant": true,
      "inputs": [],
      "name": "getWoodAmount",
      "outputs": [
        {
          "internalType": "uint256",
          "name": "",
          "type": "uint256"
        }
      ],
      "payable": false,
      "stateMutability": "view",
      "type": "function"
    },
    {
      "constant": true,
      "inputs": [
        {
          "internalType": "address",
          "name": "",
          "type": "address"
        }
      ],
      "name": "health",
      "outputs": [
        {
          "internalType": "uint256",
          "name": "",
          "type": "uint256"
        }
      ],
      "payable": false,
      "stateMutability": "view",
      "type": "function"
    },
    {
      "constant": true,
      "inputs": [
        {
          "internalType": "address",
          "name": "",
          "type": "address"
        }
      ],
      "name": "ironOwnerCount",
      "outputs": [
        {
          "internalType": "uint256",
          "name": "",
          "type": "uint256"
        }
      ],
      "payable": false,
      "stateMutability": "view",
      "type": "function"
    },
    {
      "constant": true,
      "inputs": [],
      "name": "kingdomAmount",
      "outputs": [
        {
          "internalType": "uint256",
          "name": "",
          "type": "uint256"
        }
      ],
      "payable": false,
      "stateMutability": "view",
      "type": "function"
    },
    {
      "constant": true,
      "inputs": [
        {
          "internalType": "address",
          "name": "",
          "type": "address"
        }
      ],
      "name": "ownerCastleCount",
      "outputs": [
        {
          "internalType": "uint256",
          "name": "",
          "type": "uint256"
        }
      ],
      "payable": false,
      "stateMutability": "view",
      "type": "function"
    },
    {
      "constant": true,
      "inputs": [
        {
          "internalType": "address",
          "name": "",
          "type": "address"
        }
      ],
      "name": "power",
      "outputs": [
        {
          "internalType": "uint256",
          "name": "",
          "type": "uint256"
        }
      ],
      "payable": false,
      "stateMutability": "view",
      "type": "function"
    },
    {
      "constant": true,
      "inputs": [
        {
          "internalType": "address",
          "name": "",
          "type": "address"
        }
      ],
      "name": "spyPower",
      "outputs": [
        {
          "internalType": "uint256",
          "name": "",
          "type": "uint256"
        }
      ],
      "payable": false,
      "stateMutability": "view",
      "type": "function"
    },
    {
      "constant": false,
      "inputs": [
        {
          "internalType": "address",
          "name": "_owner",
          "type": "address"
        },
        {
          "internalType": "uint256",
          "name": "_x",
          "type": "uint256"
        },
        {
          "internalType": "uint256",
          "name": "_y",
          "type": "uint256"
        }
      ],
      "name": "startBuild",
      "outputs": [
        {
          "internalType": "uint256",
          "name": "",
          "type": "uint256"
        }
      ],
      "payable": false,
      "stateMutability": "nonpayable",
      "type": "function"
    },
    {
      "constant": true,
      "inputs": [
        {
          "internalType": "address",
          "name": "",
          "type": "address"
        }
      ],
      "name": "stoneOwnerCount",
      "outputs": [
        {
          "internalType": "uint256",
          "name": "",
          "type": "uint256"
        }
      ],
      "payable": false,
      "stateMutability": "view",
      "type": "function"
    },
    {
      "constant": false,
      "inputs": [
        {
          "internalType": "address",
          "name": "_owner",
          "type": "address"
        }
      ],
      "name": "updateBuild",
      "outputs": [
        {
          "internalType": "uint256",
          "name": "",
          "type": "uint256"
        }
      ],
      "payable": false,
      "stateMutability": "nonpayable",
      "type": "function"
    },
    {
      "constant": true,
      "inputs": [
        {
          "internalType": "address",
          "name": "",
          "type": "address"
        }
      ],
      "name": "woodOwnerCount",
      "outputs": [
        {
          "internalType": "uint256",
          "name": "",
          "type": "uint256"
        }
      ],
      "payable": false,
      "stateMutability": "view",
      "type": "function"
    },
    {
      "constant": false,
      "inputs": [
        {
          "internalType": "uint256",
          "name": "_x",
          "type": "uint256"
        },
        {
          "internalType": "uint256",
          "name": "_y",
          "type": "uint256"
        }
      ],
      "name": "_createCellar",
      "outputs": [],
      "payable": false,
      "stateMutability": "nonpayable",
      "type": "function"
    }
  ],
  "bytecode": "0x60806040526010600b55600b54600a0a600c55600a600d556064600f55606460215534801561002d57600080fd5b50613aef8061003d6000396000f3fe608060405234801561001057600080fd5b50600436106102115760003560e01c806382a4182811610125578063d1405a4e116100ad578063e5b285f21161007c578063e5b285f214610c66578063e9933a4b14610cbe578063ef78b6dc14610d16578063f4ab27f014610d6e578063fd8ccf2714610ddc57610211565b8063d1405a4e14610b26578063db2ace2a14610b5e578063e2d8ebee14610bb6578063e428afa014610c0e57610211565b80638919a9ca116100f45780638919a9ca14610a1a578063aba19ece14610a3c578063ad1c89cc14610aa8578063c8b4eeff14610ac6578063ccf358a414610b0857610211565b806382a418281461080f578063834af9b6146108a8578063842a89fa146108ea578063867b84e2146109c257610211565b8063503371a5116101a8578063623e9ba611610177578063623e9ba614610725578063789630be146107435780637e2b875b146107615780637f91ecee1461077f5780638226e530146107b757610211565b8063503371a5146105e95780635192b2911461064157806356074209146106af5780635ad609931461070757610211565b80632c79c523116101e45780632c79c52314610363578063323a46861461049357806346125f84146104d55780634c96a0621461052d57610211565b80630e85117a146102165780630f130a391461026e578063194c717b146103275780631c980beb14610345575b600080fd5b6102586004803603602081101561022c57600080fd5b81019080803573ffffffffffffffffffffffffffffffffffffffff169060200190929190505050610dfa565b6040518082815260200191505060405180910390f35b61029a6004803603602081101561028457600080fd5b8101908080359060200190929190505050610f76565b604051808415151515815260200180602001838152602001828103825284818151815260200191508051906020019080838360005b838110156102ea5780820151818401526020810190506102cf565b50505050905090810190601f1680156103175780820380516001836020036101000a031916815260200191505b5094505050505060405180910390f35b61032f6110b9565b6040518082815260200191505060405180910390f35b61034d6110bf565b6040518082815260200191505060405180910390f35b61043c6004803603604081101561037957600080fd5b81019080803573ffffffffffffffffffffffffffffffffffffffff169060200190929190803590602001906401000000008111156103b657600080fd5b8201836020820111156103c857600080fd5b803590602001918460018302840111640100000000831117156103ea57600080fd5b91908080601f016020809104026020016040519081016040528093929190818152602001838380828437600081840152601f19601f820116905080830192505050505050509192919290505050611105565b6040518080602001828103825283818151815260200191508051906020019060200280838360005b8381101561047f578082015181840152602081019050610464565b505050509050019250505060405180910390f35b6104bf600480360360208110156104a957600080fd5b8101908080359060200190929190505050611733565b6040518082815260200191505060405180910390f35b610517600480360360208110156104eb57600080fd5b81019080803573ffffffffffffffffffffffffffffffffffffffff1690602001909291905050506117c3565b6040518082815260200191505060405180910390f35b6105596004803603602081101561054357600080fd5b81019080803590602001909291905050506117db565b6040518080602001858152602001848152602001838152602001828103825286818151815260200191508051906020019080838360005b838110156105ab578082015181840152602081019050610590565b50505050905090810190601f1680156105d85780820380516001836020036101000a031916815260200191505b509550505050505060405180910390f35b61062b600480360360208110156105ff57600080fd5b81019080803573ffffffffffffffffffffffffffffffffffffffff1690602001909291905050506118b0565b6040518082815260200191505060405180910390f35b61066d6004803603602081101561065757600080fd5b81019080803590602001909291905050506118c8565b604051808273ffffffffffffffffffffffffffffffffffffffff1673ffffffffffffffffffffffffffffffffffffffff16815260200191505060405180910390f35b6106f1600480360360208110156106c557600080fd5b81019080803573ffffffffffffffffffffffffffffffffffffffff1690602001909291905050506118fb565b6040518082815260200191505060405180910390f35b61070f611b55565b6040518082815260200191505060405180910390f35b61072d611b9c565b6040518082815260200191505060405180910390f35b61074b611be3565b6040518082815260200191505060405180910390f35b610769611c7a565b6040518082815260200191505060405180910390f35b6107b56004803603604081101561079557600080fd5b810190808035906020019092919080359060200190929190505050611c84565b005b6107f9600480360360208110156107cd57600080fd5b81019080803573ffffffffffffffffffffffffffffffffffffffff169060200190929190505050611cca565b6040518082815260200191505060405180910390f35b6108516004803603602081101561082557600080fd5b81019080803573ffffffffffffffffffffffffffffffffffffffff169060200190929190505050611ce2565b6040518080602001828103825283818151815260200191508051906020019060200280838360005b83811015610894578082015181840152602081019050610879565b505050509050019250505060405180910390f35b6108d4600480360360208110156108be57600080fd5b8101908080359060200190929190505050611fa3565b6040518082815260200191505060405180910390f35b6109406004803603606081101561090057600080fd5b81019080803573ffffffffffffffffffffffffffffffffffffffff1690602001909291908035906020019092919080359060200190929190505050612033565b6040518083815260200180602001828103825283818151815260200191508051906020019080838360005b8381101561098657808201518184015260208101905061096b565b50505050905090810190601f1680156109b35780820380516001836020036101000a031916815260200191505b50935050505060405180910390f35b610a04600480360360208110156109d857600080fd5b81019080803573ffffffffffffffffffffffffffffffffffffffff16906020019092919050505061221c565b6040518082815260200191505060405180910390f35b610a22612234565b604051808215151515815260200191505060405180910390f35b610a9260048036036060811015610a5257600080fd5b81019080803573ffffffffffffffffffffffffffffffffffffffff169060200190929190803590602001909291908035906020019092919050505061228e565b6040518082815260200191505060405180910390f35b610ab06124b8565b6040518082815260200191505060405180910390f35b610af260048036036020811015610adc57600080fd5b81019080803590602001909291905050506124c5565b6040518082815260200191505060405180910390f35b610b10612555565b6040518082815260200191505060405180910390f35b610b5c60048036036040811015610b3c57600080fd5b81019080803590602001909291908035906020019092919050505061259c565b005b610ba060048036036020811015610b7457600080fd5b81019080803573ffffffffffffffffffffffffffffffffffffffff169060200190929190505050612630565b6040518082815260200191505060405180910390f35b610bf860048036036020811015610bcc57600080fd5b81019080803573ffffffffffffffffffffffffffffffffffffffff169060200190929190505050612679565b6040518082815260200191505060405180910390f35b610c5060048036036020811015610c2457600080fd5b81019080803573ffffffffffffffffffffffffffffffffffffffff169060200190929190505050612691565b6040518082815260200191505060405180910390f35b610ca860048036036020811015610c7c57600080fd5b81019080803573ffffffffffffffffffffffffffffffffffffffff1690602001909291905050506126a9565b6040518082815260200191505060405180910390f35b610d0060048036036020811015610cd457600080fd5b81019080803573ffffffffffffffffffffffffffffffffffffffff1690602001909291905050506126c1565b6040518082815260200191505060405180910390f35b610d5860048036036020811015610d2c57600080fd5b81019080803573ffffffffffffffffffffffffffffffffffffffff1690602001909291905050506126d9565b6040518082815260200191505060405180910390f35b610d9a60048036036020811015610d8457600080fd5b81019080803590602001909291905050506126f1565b604051808273ffffffffffffffffffffffffffffffffffffffff1673ffffffffffffffffffffffffffffffffffffffff16815260200191505060405180910390f35b610de4612724565b6040518082815260200191505060405180910390f35b600080601260008473ffffffffffffffffffffffffffffffffffffffff1673ffffffffffffffffffffffffffffffffffffffff1681526020019081526020016000205490506000601160008573ffffffffffffffffffffffffffffffffffffffff1673ffffffffffffffffffffffffffffffffffffffff1681526020019081526020016000205414158015610ef25750600d54600e8281548110610e9a57fe5b90600052602060002090600402016003015402601160008573ffffffffffffffffffffffffffffffffffffffff1673ffffffffffffffffffffffffffffffffffffffff16815260200190815260200160002054014210155b15610f01576000915050610f71565b600042600d54600e8481548110610f1457fe5b90600052602060002090600402016003015402601160008773ffffffffffffffffffffffffffffffffffffffff1673ffffffffffffffffffffffffffffffffffffffff168152602001908152602001600020540103905080925050505b919050565b600060606000600e805490508410610fd0576000806040518060400160405280601381526020017f696e76616c6964206275696c64696e6720696400000000000000000000000000815250908090509250925092506110b2565b6001600e8581548110610fdf57fe5b9060005260206000209060040201600001600e8681548110610ffd57fe5b906000526020600020906004020160030154818054600181600116156101000203166002900480601f0160208091040260200160405190810160405280929190818152602001828054600181600116156101000203166002900480156110a45780601f10611079576101008083540402835291602001916110a4565b820191906000526020600020905b81548152906001019060200180831161108757829003601f168201915b505050505091509250925092505b9193909250565b60085481565b60008060003373ffffffffffffffffffffffffffffffffffffffff1673ffffffffffffffffffffffffffffffffffffffff16815260200190815260200160002054905090565b606060008090506040518060400160405280600481526020017f4661726d00000000000000000000000000000000000000000000000000000000815250805190602001208380519060200120141561119e57601460008573ffffffffffffffffffffffffffffffffffffffff1673ffffffffffffffffffffffffffffffffffffffff16815260200190815260200160002054905061159f565b6040518060400160405280600481526020017f4d696e6500000000000000000000000000000000000000000000000000000000815250805190602001208380519060200120141561123057601560008573ffffffffffffffffffffffffffffffffffffffff1673ffffffffffffffffffffffffffffffffffffffff16815260200190815260200160002054905061159e565b6040518060400160405280600581526020017f4d616e6f7200000000000000000000000000000000000000000000000000000081525080519060200120838051906020012014156112c257601660008573ffffffffffffffffffffffffffffffffffffffff1673ffffffffffffffffffffffffffffffffffffffff16815260200190815260200160002054905061159d565b6040518060400160405280600681526020017f5175617272790000000000000000000000000000000000000000000000000000815250805190602001208380519060200120141561135457601760008573ffffffffffffffffffffffffffffffffffffffff1673ffffffffffffffffffffffffffffffffffffffff16815260200190815260200160002054905061159c565b6040518060400160405280600781526020017f5361776d696c6c0000000000000000000000000000000000000000000000000081525080519060200120838051906020012014156113e657601860008573ffffffffffffffffffffffffffffffffffffffff1673ffffffffffffffffffffffffffffffffffffffff16815260200190815260200160002054905061159b565b6040518060400160405280600681526020017f43656c6c61720000000000000000000000000000000000000000000000000000815250805190602001208380519060200120141561147857601960008573ffffffffffffffffffffffffffffffffffffffff1673ffffffffffffffffffffffffffffffffffffffff16815260200190815260200160002054905061159a565b6040518060400160405280600781526020017f4261727261636b00000000000000000000000000000000000000000000000000815250805190602001208380519060200120141561150a57601a60008573ffffffffffffffffffffffffffffffffffffffff1673ffffffffffffffffffffffffffffffffffffffff168152602001908152602001600020549050611599565b6040518060400160405280600a81526020017f4c61626f7261746f727900000000000000000000000000000000000000000000815250805190602001208380519060200120141561159857601b60008573ffffffffffffffffffffffffffffffffffffffff1673ffffffffffffffffffffffffffffffffffffffff1681526020019081526020016000205490505b5b5b5b5b5b5b5b6060816040519080825280602002602001820160405280156115d05781602001602082028038833980820191505090505b509050600080905060008090505b600e80549050811015611726578673ffffffffffffffffffffffffffffffffffffffff166010600083815260200190815260200160002060009054906101000a900473ffffffffffffffffffffffffffffffffffffffff1673ffffffffffffffffffffffffffffffffffffffff161480156116e457508580519060200120600e828154811061166957fe5b906000526020600020906004020160000160405180828054600181600116156101000203166002900480156116d55780601f106116b35761010080835404028352918201916116d5565b820191906000526020600020905b8154815290600101906020018083116116c1575b50509150506040518091039020145b1561171957808383815181106116f657fe5b60200260200101818152505061171660018361276b90919063ffffffff16565b91505b80806001019150506115de565b5081935050505092915050565b60006008548210156117b957600760006009600085815260200190815260200160002060009054906101000a900473ffffffffffffffffffffffffffffffffffffffff1673ffffffffffffffffffffffffffffffffffffffff1673ffffffffffffffffffffffffffffffffffffffff1681526020019081526020016000205490506117be565b600090505b919050565b600a6020528060005260406000206000915090505481565b600e81815481106117e857fe5b9060005260206000209060040201600091509050806000018054600181600116156101000203166002900480601f0160208091040260200160405190810160405280929190818152602001828054600181600116156101000203166002900480156118945780601f1061186957610100808354040283529160200191611894565b820191906000526020600020905b81548152906001019060200180831161187757829003601f168201915b5050505050908060010154908060020154908060030154905084565b60056020528060005260406000206000915090505481565b60106020528060005260406000206000915054906101000a900473ffffffffffffffffffffffffffffffffffffffff1681565b600080601260008473ffffffffffffffffffffffffffffffffffffffff1673ffffffffffffffffffffffffffffffffffffffff1681526020019081526020016000205490506000601160008573ffffffffffffffffffffffffffffffffffffffff1673ffffffffffffffffffffffffffffffffffffffff16815260200190815260200160002054141580156119f35750600d54600e828154811061199b57fe5b90600052602060002090600402016003015402601160008573ffffffffffffffffffffffffffffffffffffffff1673ffffffffffffffffffffffffffffffffffffffff16815260200190815260200160002054014210155b15611ae057611a2a6001600e8381548110611a0a57fe5b90600052602060002090600402016003015461276b90919063ffffffff16565b600e8281548110611a3757fe5b9060005260206000209060040201600301819055506000601160008573ffffffffffffffffffffffffffffffffffffffff1673ffffffffffffffffffffffffffffffffffffffff168152602001908152602001600020819055506000601260008573ffffffffffffffffffffffffffffffffffffffff1673ffffffffffffffffffffffffffffffffffffffff168152602001908152602001600020819055506000915050611b50565b600042600d54600e8481548110611af357fe5b90600052602060002090600402016003015402601160008773ffffffffffffffffffffffffffffffffffffffff1673ffffffffffffffffffffffffffffffffffffffff168152602001908152602001600020540103905080925050505b919050565b6000600260003373ffffffffffffffffffffffffffffffffffffffff1673ffffffffffffffffffffffffffffffffffffffff16815260200190815260200160002054905090565b6000600360003373ffffffffffffffffffffffffffffffffffffffff1673ffffffffffffffffffffffffffffffffffffffff16815260200190815260200160002054905090565b600080600090505b600854811015611c70573373ffffffffffffffffffffffffffffffffffffffff166009600083815260200190815260200160002060009054906101000a900473ffffffffffffffffffffffffffffffffffffffff1673ffffffffffffffffffffffffffffffffffffffff161415611c655780915050611c77565b806001019050611beb565b5060085490505b90565b6000600854905090565b611cc5336040518060400160405280600681526020017f43656c6c6172000000000000000000000000000000000000000000000000000081525084846127f3565b505050565b60016020528060005260406000206000915090505481565b606080601a60008473ffffffffffffffffffffffffffffffffffffffff1673ffffffffffffffffffffffffffffffffffffffff16815260200190815260200160002054601960008573ffffffffffffffffffffffffffffffffffffffff1673ffffffffffffffffffffffffffffffffffffffff16815260200190815260200160002054601860008673ffffffffffffffffffffffffffffffffffffffff1673ffffffffffffffffffffffffffffffffffffffff16815260200190815260200160002054601760008773ffffffffffffffffffffffffffffffffffffffff1673ffffffffffffffffffffffffffffffffffffffff16815260200190815260200160002054601660008873ffffffffffffffffffffffffffffffffffffffff1673ffffffffffffffffffffffffffffffffffffffff16815260200190815260200160002054601560008973ffffffffffffffffffffffffffffffffffffffff1673ffffffffffffffffffffffffffffffffffffffff16815260200190815260200160002054601460008a73ffffffffffffffffffffffffffffffffffffffff1673ffffffffffffffffffffffffffffffffffffffff16815260200190815260200160002054010101010101604051908082528060200260200182016040528015611ed95781602001602082028038833980820191505090505b509050600080905060008090505b600e80549050811015611f98578473ffffffffffffffffffffffffffffffffffffffff166010600083815260200190815260200160002060009054906101000a900473ffffffffffffffffffffffffffffffffffffffff1673ffffffffffffffffffffffffffffffffffffffff161415611f8b5780838381518110611f6857fe5b602002602001018181525050611f8860018361276b90919063ffffffff16565b91505b8080600101915050611ee7565b508192505050919050565b600060085482101561202957600660006009600085815260200190815260200160002060009054906101000a900473ffffffffffffffffffffffffffffffffffffffff1673ffffffffffffffffffffffffffffffffffffffff1673ffffffffffffffffffffffffffffffffffffffff16815260200190815260200160002054905061202e565b600090505b919050565b6000606060008090505b600e805490508110156121d3578573ffffffffffffffffffffffffffffffffffffffff166010600083815260200190815260200160002060009054906101000a900473ffffffffffffffffffffffffffffffffffffffff1673ffffffffffffffffffffffffffffffffffffffff1614156121c65784600e82815481106120bf57fe5b9060005260206000209060040201600101541480156120fb575083600e82815481106120e757fe5b906000526020600020906004020160020154145b156121c55780600e828154811061210e57fe5b9060005260206000209060040201600001808054600181600116156101000203166002900480601f0160208091040260200160405190810160405280929190818152602001828054600181600116156101000203166002900480156121b45780601f10612189576101008083540402835291602001916121b4565b820191906000526020600020905b81548152906001019060200180831161219757829003601f168201915b505050505090509250925050612214565b5b808060010191505061203d565b60008090506040518060400160405280600481526020017f4e6f6e650000000000000000000000000000000000000000000000000000000081525092509250505b935093915050565b60046020528060005260406000206000915090505481565b600080600a60003373ffffffffffffffffffffffffffffffffffffffff1673ffffffffffffffffffffffffffffffffffffffff168152602001908152602001600020541115612286576001905061228b565b600090505b90565b60008061229c858585612033565b508091505060008114156122b45760009150506124b1565b6040518060400160405280600681526020017f436173746c65000000000000000000000000000000000000000000000000000081525080519060200120600e82815481106122fe57fe5b9060005260206000209060040201600001604051808280546001816001161561010002031660029004801561236a5780601f1061234857610100808354040283529182019161236a565b820191906000526020600020905b815481529060010190602001808311612356575b5050915050604051809103902050506000601160008773ffffffffffffffffffffffffffffffffffffffff1673ffffffffffffffffffffffffffffffffffffffff16815260200190815260200160002054146123ca5760009150506124b1565b80601260008773ffffffffffffffffffffffffffffffffffffffff1673ffffffffffffffffffffffffffffffffffffffff1681526020019081526020016000208190555042601160008773ffffffffffffffffffffffffffffffffffffffff1673ffffffffffffffffffffffffffffffffffffffff168152602001908152602001600020819055506000600f54600e838154811061246457fe5b90600052602060002090600402016003015402905061248886600083848586613167565b50600d54600e838154811061249957fe5b90600052602060002090600402016003015402925050505b9392505050565b6000600e80549050905090565b600060085482101561254b57600560006009600085815260200190815260200160002060009054906101000a900473ffffffffffffffffffffffffffffffffffffffff1673ffffffffffffffffffffffffffffffffffffffff1673ffffffffffffffffffffffffffffffffffffffff168152602001908152602001600020549050612550565b600090505b919050565b6000600460003373ffffffffffffffffffffffffffffffffffffffff1673ffffffffffffffffffffffffffffffffffffffff16815260200190815260200160002054905090565b6125dd336040518060400160405280600681526020017f436173746c65000000000000000000000000000000000000000000000000000081525084846127f3565b506125e7336135db565b6001601360003373ffffffffffffffffffffffffffffffffffffffff1673ffffffffffffffffffffffffffffffffffffffff168152602001908152602001600020819055505050565b6000601260008373ffffffffffffffffffffffffffffffffffffffff1673ffffffffffffffffffffffffffffffffffffffff168152602001908152602001600020549050919050565b60066020528060005260406000206000915090505481565b60006020528060005260406000206000915090505481565b60026020528060005260406000206000915090505481565b60076020528060005260406000206000915090505481565b60036020528060005260406000206000915090505481565b60096020528060005260406000206000915054906101000a900473ffffffffffffffffffffffffffffffffffffffff1681565b6000600160003373ffffffffffffffffffffffffffffffffffffffff1673ffffffffffffffffffffffffffffffffffffffff16815260200190815260200160002054905090565b6000808284019050838110156127e9576040517f08c379a000000000000000000000000000000000000000000000000000000000815260040180806020018281038252601b8152602001807f536166654d6174683a206164646974696f6e206f766572666c6f77000000000081525060200191505060405180910390fd5b8091505092915050565b600080600e80549050141561291b57600e60405180608001604052806040518060400160405280600f81526020017f66697273745f6275696c64696e67210000000000000000000000000000000000815250815260200160008152602001600081526020016103e88152509080600181540180825580915050906001820390600052602060002090600402016000909192909190915060008201518160000190805190602001906128a5929190613a15565b5060208201518160010155604082015181600201556060820151816003015550505060006010600080815260200190815260200160002060006101000a81548173ffffffffffffffffffffffffffffffffffffffff021916908373ffffffffffffffffffffffffffffffffffffffff1602179055505b60006129bc6001600e6040518060800160405280898152602001888152602001878152602001600181525090806001815401808255809150509060018203906000526020600020906004020160009091929091909150600082015181600001908051906020019061298d929190613a15565b50602082015181600101556040820151816002015560608201518160030155505061390b90919063ffffffff16565b90506129d5866000600f54600f54600f54600f54613167565b50856010600083815260200190815260200160002060006101000a81548173ffffffffffffffffffffffffffffffffffffffff021916908373ffffffffffffffffffffffffffffffffffffffff1602179055506040518060400160405280600481526020017f4661726d000000000000000000000000000000000000000000000000000000008152508051906020012085805190602001201415612b0e57612ac66001601460008973ffffffffffffffffffffffffffffffffffffffff1673ffffffffffffffffffffffffffffffffffffffff1681526020019081526020016000205461276b90919063ffffffff16565b601460008873ffffffffffffffffffffffffffffffffffffffff1673ffffffffffffffffffffffffffffffffffffffff1681526020019081526020016000208190555061315b565b6040518060400160405280600481526020017f4d696e65000000000000000000000000000000000000000000000000000000008152508051906020012085805190602001201415612bf457612bac6001601560008973ffffffffffffffffffffffffffffffffffffffff1673ffffffffffffffffffffffffffffffffffffffff1681526020019081526020016000205461276b90919063ffffffff16565b601560008873ffffffffffffffffffffffffffffffffffffffff1673ffffffffffffffffffffffffffffffffffffffff1681526020019081526020016000208190555061315a565b6040518060400160405280600581526020017f4d616e6f720000000000000000000000000000000000000000000000000000008152508051906020012085805190602001201415612cda57612c926001601660008973ffffffffffffffffffffffffffffffffffffffff1673ffffffffffffffffffffffffffffffffffffffff1681526020019081526020016000205461276b90919063ffffffff16565b601660008873ffffffffffffffffffffffffffffffffffffffff1673ffffffffffffffffffffffffffffffffffffffff16815260200190815260200160002081905550613159565b6040518060400160405280600681526020017f51756172727900000000000000000000000000000000000000000000000000008152508051906020012085805190602001201415612dc057612d786001601760008973ffffffffffffffffffffffffffffffffffffffff1673ffffffffffffffffffffffffffffffffffffffff1681526020019081526020016000205461276b90919063ffffffff16565b601760008873ffffffffffffffffffffffffffffffffffffffff1673ffffffffffffffffffffffffffffffffffffffff16815260200190815260200160002081905550613158565b6040518060400160405280600781526020017f5361776d696c6c000000000000000000000000000000000000000000000000008152508051906020012085805190602001201415612ea657612e5e6001601860008973ffffffffffffffffffffffffffffffffffffffff1673ffffffffffffffffffffffffffffffffffffffff1681526020019081526020016000205461276b90919063ffffffff16565b601860008873ffffffffffffffffffffffffffffffffffffffff1673ffffffffffffffffffffffffffffffffffffffff16815260200190815260200160002081905550613157565b6040518060400160405280600681526020017f43656c6c617200000000000000000000000000000000000000000000000000008152508051906020012085805190602001201415612f8c57612f446001601960008973ffffffffffffffffffffffffffffffffffffffff1673ffffffffffffffffffffffffffffffffffffffff1681526020019081526020016000205461276b90919063ffffffff16565b601960008873ffffffffffffffffffffffffffffffffffffffff1673ffffffffffffffffffffffffffffffffffffffff16815260200190815260200160002081905550613156565b6040518060400160405280600781526020017f4261727261636b0000000000000000000000000000000000000000000000000081525080519060200120858051906020012014156130725761302a6001601a60008973ffffffffffffffffffffffffffffffffffffffff1673ffffffffffffffffffffffffffffffffffffffff1681526020019081526020016000205461276b90919063ffffffff16565b601a60008873ffffffffffffffffffffffffffffffffffffffff1673ffffffffffffffffffffffffffffffffffffffff16815260200190815260200160002081905550613155565b6040518060400160405280600a81526020017f4c61626f7261746f7279000000000000000000000000000000000000000000008152508051906020012085805190602001201415613154576131106001601b60008973ffffffffffffffffffffffffffffffffffffffff1673ffffffffffffffffffffffffffffffffffffffff1681526020019081526020016000205461276b90919063ffffffff16565b601b60008873ffffffffffffffffffffffffffffffffffffffff1673ffffffffffffffffffffffffffffffffffffffff168152602001908152602001600020819055505b5b5b5b5b5b5b5b80915050949350505050565b600085600260008973ffffffffffffffffffffffffffffffffffffffff1673ffffffffffffffffffffffffffffffffffffffff16815260200190815260200160002054101580156131f7575084600460008973ffffffffffffffffffffffffffffffffffffffff1673ffffffffffffffffffffffffffffffffffffffff1681526020019081526020016000205410155b8015613242575083600160008973ffffffffffffffffffffffffffffffffffffffff1673ffffffffffffffffffffffffffffffffffffffff1681526020019081526020016000205410155b801561328c5750826000808973ffffffffffffffffffffffffffffffffffffffff1673ffffffffffffffffffffffffffffffffffffffff1681526020019081526020016000205410155b80156132d7575081600360008973ffffffffffffffffffffffffffffffffffffffff1673ffffffffffffffffffffffffffffffffffffffff1681526020019081526020016000205410155b156135cc5761332e86600260008a73ffffffffffffffffffffffffffffffffffffffff1673ffffffffffffffffffffffffffffffffffffffff1681526020019081526020016000205461390b90919063ffffffff16565b600260008973ffffffffffffffffffffffffffffffffffffffff1673ffffffffffffffffffffffffffffffffffffffff168152602001908152602001600020819055506133c385600460008a73ffffffffffffffffffffffffffffffffffffffff1673ffffffffffffffffffffffffffffffffffffffff1681526020019081526020016000205461390b90919063ffffffff16565b600460008973ffffffffffffffffffffffffffffffffffffffff1673ffffffffffffffffffffffffffffffffffffffff1681526020019081526020016000208190555061345884600160008a73ffffffffffffffffffffffffffffffffffffffff1673ffffffffffffffffffffffffffffffffffffffff1681526020019081526020016000205461390b90919063ffffffff16565b600160008973ffffffffffffffffffffffffffffffffffffffff1673ffffffffffffffffffffffffffffffffffffffff168152602001908152602001600020819055506134ec836000808a73ffffffffffffffffffffffffffffffffffffffff1673ffffffffffffffffffffffffffffffffffffffff1681526020019081526020016000205461390b90919063ffffffff16565b6000808973ffffffffffffffffffffffffffffffffffffffff1673ffffffffffffffffffffffffffffffffffffffff1681526020019081526020016000208190555061358082600360008a73ffffffffffffffffffffffffffffffffffffffff1673ffffffffffffffffffffffffffffffffffffffff1681526020019081526020016000205461390b90919063ffffffff16565b600360008973ffffffffffffffffffffffffffffffffffffffff1673ffffffffffffffffffffffffffffffffffffffff16815260200190815260200160002081905550600190506135d1565b600090505b9695505050505050565b6000600a60008373ffffffffffffffffffffffffffffffffffffffff1673ffffffffffffffffffffffffffffffffffffffff168152602001908152602001600020541461362757600080fd5b8060096000600854815260200190815260200160002060006101000a81548173ffffffffffffffffffffffffffffffffffffffff021916908373ffffffffffffffffffffffffffffffffffffffff160217905550600860008154809291906001019190505550600a60008273ffffffffffffffffffffffffffffffffffffffff1673ffffffffffffffffffffffffffffffffffffffff16815260200190815260200160002060008154809291906001019190505550612710600260008373ffffffffffffffffffffffffffffffffffffffff1673ffffffffffffffffffffffffffffffffffffffff16815260200190815260200160002081905550612710600460008373ffffffffffffffffffffffffffffffffffffffff1673ffffffffffffffffffffffffffffffffffffffff168152602001908152602001600020819055506127106000808373ffffffffffffffffffffffffffffffffffffffff1673ffffffffffffffffffffffffffffffffffffffff16815260200190815260200160002081905550612710600160008373ffffffffffffffffffffffffffffffffffffffff1673ffffffffffffffffffffffffffffffffffffffff16815260200190815260200160002081905550612710600360008373ffffffffffffffffffffffffffffffffffffffff1673ffffffffffffffffffffffffffffffffffffffff168152602001908152602001600020819055506000600560008373ffffffffffffffffffffffffffffffffffffffff1673ffffffffffffffffffffffffffffffffffffffff168152602001908152602001600020819055506000600660008373ffffffffffffffffffffffffffffffffffffffff1673ffffffffffffffffffffffffffffffffffffffff168152602001908152602001600020819055506000600760008373ffffffffffffffffffffffffffffffffffffffff1673ffffffffffffffffffffffffffffffffffffffff1681526020019081526020016000208190555050565b600061394d83836040518060400160405280601e81526020017f536166654d6174683a207375627472616374696f6e206f766572666c6f770000815250613955565b905092915050565b6000838311158290613a02576040517f08c379a00000000000000000000000000000000000000000000000000000000081526004018080602001828103825283818151815260200191508051906020019080838360005b838110156139c75780820151818401526020810190506139ac565b50505050905090810190601f1680156139f45780820380516001836020036101000a031916815260200191505b509250505060405180910390fd5b5060008385039050809150509392505050565b828054600181600116156101000203166002900490600052602060002090601f016020900481019282601f10613a5657805160ff1916838001178555613a84565b82800160010185558215613a84579182015b82811115613a83578251825591602001919060010190613a68565b5b509050613a919190613a95565b5090565b613ab791905b80821115613ab3576000816000905550600101613a9b565b5090565b9056fea265627a7a72315820e21944020caec32138345c18443b02c39d872f852a915e068649916908ebe6c264736f6c63430005100032",
  "source": "pragma solidity >=0.4.21 <0.7.0;\n\nimport \"./SafeMath.sol\";\nimport \"./Castle.sol\";\n\ncontract CellarFactory is CastleFactory {\n    \n    using SafeMath for uint;\n    \n    mapping (address => uint) OwnerSaveWood;\n    mapping (address => uint) OwnerSaveIron;\n    mapping (address => uint) OwnerSaveFood;\n    mapping (address => uint) OwnerSaveCoin;\n    mapping (address => uint) OwnerSaveStone;\n    uint SaveResourceAbility = 100;\n    \n    function _createCellar(uint _x, uint _y) public {\n        _createBuilding(msg.sender, \"Cellar\", _x, _y);\n    }\n\n    function _saveResource(address _owner) internal {\n        uint[] memory cellars = getSpecificBuildingByOwner(_owner, \"Cellar\");\n        for (uint i = 0; i < cellars.length; i++) {\n            uint saveAmount = buildings[cellars[i]].level * SaveResourceAbility;\n            if (stoneOwnerCount[_owner] <= saveAmount) {\n                OwnerSaveStone[_owner] = OwnerSaveStone[_owner].add(stoneOwnerCount[_owner]);\n                stoneOwnerCount[_owner] = 0;\n            }\n            else{\n                stoneOwnerCount[_owner] = stoneOwnerCount[_owner].sub(saveAmount);\n                OwnerSaveStone[_owner] = OwnerSaveStone[_owner].add(saveAmount);\n            }\n            if (ironOwnerCount[_owner] <= saveAmount) {\n                OwnerSaveIron[_owner] = OwnerSaveIron[_owner].add(ironOwnerCount[_owner]);\n                ironOwnerCount[_owner] = 0;\n            }\n            else{\n                ironOwnerCount[_owner] = ironOwnerCount[_owner].sub(saveAmount);\n                OwnerSaveIron[_owner] = OwnerSaveIron[_owner].add(saveAmount);\n            }\n            if (foodOwnerCount[_owner] <= saveAmount) {\n                OwnerSaveFood[_owner] = OwnerSaveFood[_owner].add(foodOwnerCount[_owner]);\n                foodOwnerCount[_owner] = 0;\n            }\n            else{\n                foodOwnerCount[_owner] = foodOwnerCount[_owner].sub(saveAmount);\n                OwnerSaveFood[_owner] = OwnerSaveFood[_owner].add(saveAmount);\n            }\n            if (coinOwnerCount[_owner] <= saveAmount) {\n                OwnerSaveCoin[_owner] = OwnerSaveCoin[_owner].add(coinOwnerCount[_owner]);\n                coinOwnerCount[_owner] = 0;\n            }\n            else{\n                coinOwnerCount[_owner] = coinOwnerCount[_owner].sub(saveAmount);\n                OwnerSaveCoin[_owner] = OwnerSaveCoin[_owner].add(saveAmount);\n            }\n            if (woodOwnerCount[_owner] <= saveAmount) {\n                OwnerSaveWood[_owner] = OwnerSaveWood[_owner].add(woodOwnerCount[_owner]);\n                woodOwnerCount[_owner] = 0;\n            }\n            else{\n                woodOwnerCount[_owner] = woodOwnerCount[_owner].sub(saveAmount);\n                OwnerSaveWood[_owner] = OwnerSaveWood[_owner].add(saveAmount);\n            }\n        }           \n    }\n\n    function _takeResource(address _owner) internal {\n        stoneOwnerCount[_owner] = stoneOwnerCount[_owner].add(OwnerSaveStone[_owner]);\n        OwnerSaveStone[_owner] = 0;\n        ironOwnerCount[_owner] = ironOwnerCount[_owner].sub(OwnerSaveIron[_owner]);\n        OwnerSaveIron[_owner] = 0;\n        foodOwnerCount[_owner] = foodOwnerCount[_owner].sub(OwnerSaveFood[_owner]);\n        OwnerSaveFood[_owner] = 0;\n        coinOwnerCount[_owner] = coinOwnerCount[_owner].sub(OwnerSaveCoin[_owner]);\n        OwnerSaveCoin[_owner] = 0;\n        woodOwnerCount[_owner] = woodOwnerCount[_owner].sub(OwnerSaveWood[_owner]);\n        OwnerSaveWood[_owner] = 0;        \n    }\n}",
  "sourcePath": "/Users/cyl/Desktop//NMlab_Final/contracts/Cellar.sol",
  "compiler": {
    "name": "solc",
    "version": "0.5.16+commit.9c3226ce.Emscripten.clang"
  },
  "schemaVersion": "3.4.1",
  "updatedAt": "2021-05-29T15:15:52.944Z",
  "devdoc": {
    "methods": {}
  },
  "userdoc": {
    "methods": {}
  }
}