{
  "contractName": "Laboratory",
  "abi": [
    {
      "inputs": [
        {
          "internalType": "address",
          "name": "_building_address",
          "type": "address"
        },
        {
          "internalType": "address",
          "name": "_soldier_address",
          "type": "address"
        },
        {
          "internalType": "address",
          "name": "_spy_instance",
          "type": "address"
        },
        {
          "internalType": "address",
          "name": "_cannon_instance",
          "type": "address"
        },
        {
          "internalType": "address",
          "name": "_protector_instance",
          "type": "address"
        }
      ],
      "payable": false,
      "stateMutability": "nonpayable",
      "type": "constructor"
    },
    {
      "constant": true,
      "inputs": [
        {
          "internalType": "address",
          "name": "",
          "type": "address"
        }
      ],
      "name": "ownerLabProduceTime",
      "outputs": [
        {
          "internalType": "uint256",
          "name": "",
          "type": "uint256"
        }
      ],
      "payable": false,
      "stateMutability": "view",
      "type": "function"
    },
    {
      "constant": false,
      "inputs": [
        {
          "internalType": "uint256",
          "name": "_x",
          "type": "uint256"
        },
        {
          "internalType": "uint256",
          "name": "_y",
          "type": "uint256"
        }
      ],
      "name": "createLaboratory",
      "outputs": [],
      "payable": false,
      "stateMutability": "nonpayable",
      "type": "function"
    },
    {
      "constant": false,
      "inputs": [
        {
          "internalType": "address",
          "name": "_owner",
          "type": "address"
        }
      ],
      "name": "_updateLaboratory",
      "outputs": [],
      "payable": false,
      "stateMutability": "nonpayable",
      "type": "function"
    },
    {
      "constant": false,
      "inputs": [],
      "name": "startUpgradeSoldier",
      "outputs": [
        {
          "internalType": "uint256",
          "name": "",
          "type": "uint256"
        }
      ],
      "payable": false,
      "stateMutability": "nonpayable",
      "type": "function"
    },
    {
      "constant": true,
      "inputs": [],
      "name": "getUpgradeSoldierTime",
      "outputs": [
        {
          "internalType": "uint256",
          "name": "",
          "type": "uint256"
        },
        {
          "internalType": "uint256",
          "name": "",
          "type": "uint256"
        }
      ],
      "payable": false,
      "stateMutability": "view",
      "type": "function"
    },
    {
      "constant": false,
      "inputs": [
        {
          "internalType": "address",
          "name": "_owner",
          "type": "address"
        }
      ],
      "name": "updateUpgradeSoldier",
      "outputs": [
        {
          "internalType": "uint256",
          "name": "",
          "type": "uint256"
        }
      ],
      "payable": false,
      "stateMutability": "nonpayable",
      "type": "function"
    },
    {
      "constant": false,
      "inputs": [],
      "name": "startUpgradeProtector",
      "outputs": [
        {
          "internalType": "uint256",
          "name": "",
          "type": "uint256"
        }
      ],
      "payable": false,
      "stateMutability": "nonpayable",
      "type": "function"
    },
    {
      "constant": true,
      "inputs": [],
      "name": "getUpgradeProtectorTime",
      "outputs": [
        {
          "internalType": "uint256",
          "name": "",
          "type": "uint256"
        },
        {
          "internalType": "uint256",
          "name": "",
          "type": "uint256"
        }
      ],
      "payable": false,
      "stateMutability": "view",
      "type": "function"
    },
    {
      "constant": false,
      "inputs": [
        {
          "internalType": "address",
          "name": "_owner",
          "type": "address"
        }
      ],
      "name": "updateUpgradeProtector",
      "outputs": [
        {
          "internalType": "uint256",
          "name": "",
          "type": "uint256"
        }
      ],
      "payable": false,
      "stateMutability": "nonpayable",
      "type": "function"
    },
    {
      "constant": false,
      "inputs": [],
      "name": "startUpgradeCannon",
      "outputs": [
        {
          "internalType": "uint256",
          "name": "",
          "type": "uint256"
        }
      ],
      "payable": false,
      "stateMutability": "nonpayable",
      "type": "function"
    },
    {
      "constant": true,
      "inputs": [],
      "name": "getUpgradeCannonTime",
      "outputs": [
        {
          "internalType": "uint256",
          "name": "",
          "type": "uint256"
        },
        {
          "internalType": "uint256",
          "name": "",
          "type": "uint256"
        }
      ],
      "payable": false,
      "stateMutability": "view",
      "type": "function"
    },
    {
      "constant": false,
      "inputs": [
        {
          "internalType": "address",
          "name": "_owner",
          "type": "address"
        }
      ],
      "name": "updateUpgradeCannon",
      "outputs": [
        {
          "internalType": "uint256",
          "name": "",
          "type": "uint256"
        }
      ],
      "payable": false,
      "stateMutability": "nonpayable",
      "type": "function"
    },
    {
      "constant": false,
      "inputs": [],
      "name": "startUpgradeSpy",
      "outputs": [
        {
          "internalType": "uint256",
          "name": "",
          "type": "uint256"
        }
      ],
      "payable": false,
      "stateMutability": "nonpayable",
      "type": "function"
    },
    {
      "constant": true,
      "inputs": [],
      "name": "getUpgradeSpyTime",
      "outputs": [
        {
          "internalType": "uint256",
          "name": "",
          "type": "uint256"
        },
        {
          "internalType": "uint256",
          "name": "",
          "type": "uint256"
        }
      ],
      "payable": false,
      "stateMutability": "view",
      "type": "function"
    },
    {
      "constant": false,
      "inputs": [
        {
          "internalType": "address",
          "name": "_owner",
          "type": "address"
        }
      ],
      "name": "updateUpgradeSpy",
      "outputs": [
        {
          "internalType": "uint256",
          "name": "",
          "type": "uint256"
        }
      ],
      "payable": false,
      "stateMutability": "nonpayable",
      "type": "function"
    },
    {
      "constant": true,
      "inputs": [
        {
          "internalType": "address",
          "name": "_owner",
          "type": "address"
        }
      ],
      "name": "getSoldierLevel",
      "outputs": [
        {
          "internalType": "uint256",
          "name": "",
          "type": "uint256"
        }
      ],
      "payable": false,
      "stateMutability": "view",
      "type": "function"
    },
    {
      "constant": true,
      "inputs": [
        {
          "internalType": "address",
          "name": "_owner",
          "type": "address"
        }
      ],
      "name": "getProtectorLevel",
      "outputs": [
        {
          "internalType": "uint256",
          "name": "",
          "type": "uint256"
        }
      ],
      "payable": false,
      "stateMutability": "view",
      "type": "function"
    },
    {
      "constant": true,
      "inputs": [
        {
          "internalType": "address",
          "name": "_owner",
          "type": "address"
        }
      ],
      "name": "getCannonLevel",
      "outputs": [
        {
          "internalType": "uint256",
          "name": "",
          "type": "uint256"
        }
      ],
      "payable": false,
      "stateMutability": "view",
      "type": "function"
    },
    {
      "constant": true,
      "inputs": [
        {
          "internalType": "address",
          "name": "_owner",
          "type": "address"
        }
      ],
      "name": "getSpyLevel",
      "outputs": [
        {
          "internalType": "uint256",
          "name": "",
          "type": "uint256"
        }
      ],
      "payable": false,
      "stateMutability": "view",
      "type": "function"
    }
  ],
  "bytecode": "0x60806040523480156200001157600080fd5b5060405162005cd438038062005cd4833981810160405260a08110156200003757600080fd5b810190808051906020019092919080519060200190929190805190602001909291908051906020019092919080519060200190929190505050846000806101000a81548173ffffffffffffffffffffffffffffffffffffffff021916908373ffffffffffffffffffffffffffffffffffffffff16021790555083600160006101000a81548173ffffffffffffffffffffffffffffffffffffffff021916908373ffffffffffffffffffffffffffffffffffffffff16021790555082600460006101000a81548173ffffffffffffffffffffffffffffffffffffffff021916908373ffffffffffffffffffffffffffffffffffffffff16021790555080600260006101000a81548173ffffffffffffffffffffffffffffffffffffffff021916908373ffffffffffffffffffffffffffffffffffffffff16021790555081600360006101000a81548173ffffffffffffffffffffffffffffffffffffffff021916908373ffffffffffffffffffffffffffffffffffffffff1602179055505050505050615b0b80620001c96000396000f3fe608060405234801561001057600080fd5b50600436106101215760003560e01c80638bb6efc5116100ad578063be22457411610071578063be2245741461045c578063e80be1801461047a578063edc067ab146104d2578063f2ff9deb1461052a578063f5010a891461056e57610121565b80638bb6efc51461034b5780639b6116ac146103a3578063a14feb4d146103c1578063a60e60ee14610419578063b9c7fb2c1461043757610121565b8063456fc61d116100f4578063456fc61d1461022c5780635509a92614610251578063616918cd146102a957806362132491146102ce578063765bab05146102f357610121565b80630b77bc2e146101265780632d4838ba1461017e578063372379701461019c57806341499097146101d4575b600080fd5b6101686004803603602081101561013c57600080fd5b81019080803573ffffffffffffffffffffffffffffffffffffffff1690602001909291905050506105c6565b6040518082815260200191505060405180910390f35b6101866110b2565b6040518082815260200191505060405180910390f35b6101d2600480360360408110156101b257600080fd5b810190808035906020019092919080359060200190929190505050611682565b005b610216600480360360208110156101ea57600080fd5b81019080803573ffffffffffffffffffffffffffffffffffffffff1690602001909291905050506117b4565b6040518082815260200191505060405180910390f35b6102346122a0565b604051808381526020018281526020019250505060405180910390f35b6102936004803603602081101561026757600080fd5b81019080803573ffffffffffffffffffffffffffffffffffffffff169060200190929190505050612461565b6040518082815260200191505060405180910390f35b6102b1612f4d565b604051808381526020018281526020019250505060405180910390f35b6102d661310e565b604051808381526020018281526020019250505060405180910390f35b6103356004803603602081101561030957600080fd5b81019080803573ffffffffffffffffffffffffffffffffffffffff1690602001909291905050506132cf565b6040518082815260200191505060405180910390f35b61038d6004803603602081101561036157600080fd5b81019080803573ffffffffffffffffffffffffffffffffffffffff1690602001909291905050506133b2565b6040518082815260200191505060405180910390f35b6103ab6133ca565b6040518082815260200191505060405180910390f35b610403600480360360208110156103d757600080fd5b81019080803573ffffffffffffffffffffffffffffffffffffffff16906020019092919050505061399a565b6040518082815260200191505060405180910390f35b610421613a7d565b6040518082815260200191505060405180910390f35b61043f61404d565b604051808381526020018281526020019250505060405180910390f35b61046461420e565b6040518082815260200191505060405180910390f35b6104bc6004803603602081101561049057600080fd5b81019080803573ffffffffffffffffffffffffffffffffffffffff1690602001909291905050506147de565b6040518082815260200191505060405180910390f35b610514600480360360208110156104e857600080fd5b81019080803573ffffffffffffffffffffffffffffffffffffffff1690602001909291905050506152ca565b6040518082815260200191505060405180910390f35b61056c6004803603602081101561054057600080fd5b81019080803573ffffffffffffffffffffffffffffffffffffffff1690602001909291905050506153ad565b005b6105b06004803603602081101561058457600080fd5b81019080803573ffffffffffffffffffffffffffffffffffffffff1690602001909291905050506156aa565b6040518082815260200191505060405180910390f35b600080600260009054906101000a900473ffffffffffffffffffffffffffffffffffffffff1673ffffffffffffffffffffffffffffffffffffffff166313306881846040518263ffffffff1660e01b8152600401808273ffffffffffffffffffffffffffffffffffffffff1673ffffffffffffffffffffffffffffffffffffffff16815260200191505060206040518083038186803b15801561066857600080fd5b505afa15801561067c573d6000803e3d6000fd5b505050506040513d602081101561069257600080fd5b810190808051906020019092919050505014156106b257600090506110ad565b610877600260009054906101000a900473ffffffffffffffffffffffffffffffffffffffff1673ffffffffffffffffffffffffffffffffffffffff16635fad0242846040518263ffffffff1660e01b8152600401808273ffffffffffffffffffffffffffffffffffffffff1673ffffffffffffffffffffffffffffffffffffffff16815260200191505060206040518083038186803b15801561075457600080fd5b505afa158015610768573d6000803e3d6000fd5b505050506040513d602081101561077e57600080fd5b8101908080519060200190929190505050600260009054906101000a900473ffffffffffffffffffffffffffffffffffffffff1673ffffffffffffffffffffffffffffffffffffffff166313306881856040518263ffffffff1660e01b8152600401808273ffffffffffffffffffffffffffffffffffffffff1673ffffffffffffffffffffffffffffffffffffffff16815260200191505060206040518083038186803b15801561082e57600080fd5b505afa158015610842573d6000803e3d6000fd5b505050506040513d602081101561085857600080fd5b810190808051906020019092919050505061578d90919063ffffffff16565b4210610edd576000610af8610a10600260009054906101000a900473ffffffffffffffffffffffffffffffffffffffff1673ffffffffffffffffffffffffffffffffffffffff16636e35e1eb6040518163ffffffff1660e01b815260040160206040518083038186803b1580156108ed57600080fd5b505afa158015610901573d6000803e3d6000fd5b505050506040513d602081101561091757600080fd5b8101908080519060200190929190505050600260009054906101000a900473ffffffffffffffffffffffffffffffffffffffff1673ffffffffffffffffffffffffffffffffffffffff1663b47711fa876040518263ffffffff1660e01b8152600401808273ffffffffffffffffffffffffffffffffffffffff1673ffffffffffffffffffffffffffffffffffffffff16815260200191505060206040518083038186803b1580156109c757600080fd5b505afa1580156109db573d6000803e3d6000fd5b505050506040513d60208110156109f157600080fd5b810190808051906020019092919050505061581590919063ffffffff16565b600260009054906101000a900473ffffffffffffffffffffffffffffffffffffffff1673ffffffffffffffffffffffffffffffffffffffff16635fad0242866040518263ffffffff1660e01b8152600401808273ffffffffffffffffffffffffffffffffffffffff1673ffffffffffffffffffffffffffffffffffffffff16815260200191505060206040518083038186803b158015610aaf57600080fd5b505afa158015610ac3573d6000803e3d6000fd5b505050506040513d6020811015610ad957600080fd5b810190808051906020019092919050505061589b90919063ffffffff16565b9050600260009054906101000a900473ffffffffffffffffffffffffffffffffffffffff1673ffffffffffffffffffffffffffffffffffffffff1663dda0a3bf8483600260009054906101000a900473ffffffffffffffffffffffffffffffffffffffff1673ffffffffffffffffffffffffffffffffffffffff166332469342886040518263ffffffff1660e01b8152600401808273ffffffffffffffffffffffffffffffffffffffff1673ffffffffffffffffffffffffffffffffffffffff16815260200191505060206040518083038186803b158015610bd957600080fd5b505afa158015610bed573d6000803e3d6000fd5b505050506040513d6020811015610c0357600080fd5b8101908080519060200190929190505050016040518363ffffffff1660e01b8152600401808373ffffffffffffffffffffffffffffffffffffffff1673ffffffffffffffffffffffffffffffffffffffff16815260200182815260200192505050600060405180830381600087803b158015610c7e57600080fd5b505af1158015610c92573d6000803e3d6000fd5b50505050600260009054906101000a900473ffffffffffffffffffffffffffffffffffffffff1673ffffffffffffffffffffffffffffffffffffffff16630f03c43d8460006040518363ffffffff1660e01b8152600401808373ffffffffffffffffffffffffffffffffffffffff1673ffffffffffffffffffffffffffffffffffffffff16815260200182815260200192505050600060405180830381600087803b158015610d4057600080fd5b505af1158015610d54573d6000803e3d6000fd5b50505050600260009054906101000a900473ffffffffffffffffffffffffffffffffffffffff1673ffffffffffffffffffffffffffffffffffffffff16635a59ad408460006040518363ffffffff1660e01b8152600401808373ffffffffffffffffffffffffffffffffffffffff1673ffffffffffffffffffffffffffffffffffffffff16815260200182815260200192505050600060405180830381600087803b158015610e0257600080fd5b505af1158015610e16573d6000803e3d6000fd5b50505050600260009054906101000a900473ffffffffffffffffffffffffffffffffffffffff1673ffffffffffffffffffffffffffffffffffffffff1663fa9f3096846040518263ffffffff1660e01b8152600401808273ffffffffffffffffffffffffffffffffffffffff1673ffffffffffffffffffffffffffffffffffffffff168152602001915050600060405180830381600087803b158015610ebb57600080fd5b505af1158015610ecf573d6000803e3d6000fd5b5050505060009150506110ad565b60006110a642600260009054906101000a900473ffffffffffffffffffffffffffffffffffffffff1673ffffffffffffffffffffffffffffffffffffffff16635fad0242866040518263ffffffff1660e01b8152600401808273ffffffffffffffffffffffffffffffffffffffff1673ffffffffffffffffffffffffffffffffffffffff16815260200191505060206040518083038186803b158015610f8257600080fd5b505afa158015610f96573d6000803e3d6000fd5b505050506040513d6020811015610fac57600080fd5b8101908080519060200190929190505050600260009054906101000a900473ffffffffffffffffffffffffffffffffffffffff1673ffffffffffffffffffffffffffffffffffffffff166313306881876040518263ffffffff1660e01b8152600401808273ffffffffffffffffffffffffffffffffffffffff1673ffffffffffffffffffffffffffffffffffffffff16815260200191505060206040518083038186803b15801561105c57600080fd5b505afa158015611070573d6000803e3d6000fd5b505050506040513d602081101561108657600080fd5b8101908080519060200190929190505050016158e590919063ffffffff16565b9050809150505b919050565b6000803390506000600460009054906101000a900473ffffffffffffffffffffffffffffffffffffffff1673ffffffffffffffffffffffffffffffffffffffff166313306881836040518263ffffffff1660e01b8152600401808273ffffffffffffffffffffffffffffffffffffffff1673ffffffffffffffffffffffffffffffffffffffff16815260200191505060206040518083038186803b15801561115957600080fd5b505afa15801561116d573d6000803e3d6000fd5b505050506040513d602081101561118357600080fd5b8101908080519060200190929190505050146111a357600091505061167f565b600080600460009054906101000a900473ffffffffffffffffffffffffffffffffffffffff1673ffffffffffffffffffffffffffffffffffffffff1663bbece62e846040518263ffffffff1660e01b8152600401808273ffffffffffffffffffffffffffffffffffffffff1673ffffffffffffffffffffffffffffffffffffffff168152602001915050602060405180830381600087803b15801561124757600080fd5b505af115801561125b573d6000803e3d6000fd5b505050506040513d602081101561127157600080fd5b81019080805190602001909291905050509150600460009054906101000a900473ffffffffffffffffffffffffffffffffffffffff1673ffffffffffffffffffffffffffffffffffffffff1663de634152846040518263ffffffff1660e01b8152600401808273ffffffffffffffffffffffffffffffffffffffff1673ffffffffffffffffffffffffffffffffffffffff16815260200191505060206040518083038186803b15801561132357600080fd5b505afa158015611337573d6000803e3d6000fd5b505050506040513d602081101561134d57600080fd5b81019080805190602001909291905050509050600015158215151415611379576000935050505061167f565b600460009054906101000a900473ffffffffffffffffffffffffffffffffffffffff1673ffffffffffffffffffffffffffffffffffffffff16630f03c43d84426040518363ffffffff1660e01b8152600401808373ffffffffffffffffffffffffffffffffffffffff1673ffffffffffffffffffffffffffffffffffffffff16815260200182815260200192505050600060405180830381600087803b15801561142257600080fd5b505af1158015611436573d6000803e3d6000fd5b50505050600460009054906101000a900473ffffffffffffffffffffffffffffffffffffffff1673ffffffffffffffffffffffffffffffffffffffff16633f069a198483600460009054906101000a900473ffffffffffffffffffffffffffffffffffffffff1673ffffffffffffffffffffffffffffffffffffffff1663601bf56e6040518163ffffffff1660e01b815260040160206040518083038186803b1580156114e257600080fd5b505afa1580156114f6573d6000803e3d6000fd5b505050506040513d602081101561150c57600080fd5b8101908080519060200190929190505050026040518363ffffffff1660e01b8152600401808373ffffffffffffffffffffffffffffffffffffffff1673ffffffffffffffffffffffffffffffffffffffff16815260200182815260200192505050600060405180830381600087803b15801561158757600080fd5b505af115801561159b573d6000803e3d6000fd5b50505050600460009054906101000a900473ffffffffffffffffffffffffffffffffffffffff1673ffffffffffffffffffffffffffffffffffffffff166316511096846040518263ffffffff1660e01b8152600401808273ffffffffffffffffffffffffffffffffffffffff1673ffffffffffffffffffffffffffffffffffffffff16815260200191505060206040518083038186803b15801561163e57600080fd5b505afa158015611652573d6000803e3d6000fd5b505050506040513d602081101561166857600080fd5b810190808051906020019092919050505093505050505b90565b6000809054906101000a900473ffffffffffffffffffffffffffffffffffffffff1673ffffffffffffffffffffffffffffffffffffffff166321241b3f3384846040518463ffffffff1660e01b8152600401808473ffffffffffffffffffffffffffffffffffffffff1673ffffffffffffffffffffffffffffffffffffffff168152602001806020018481526020018381526020018281038252600a8152602001807f4c61626f7261746f727900000000000000000000000000000000000000000000815250602001945050505050602060405180830381600087803b15801561176b57600080fd5b505af115801561177f573d6000803e3d6000fd5b505050506040513d602081101561179557600080fd5b8101908080519060200190929190505050506117b0336153ad565b5050565b600080600360009054906101000a900473ffffffffffffffffffffffffffffffffffffffff1673ffffffffffffffffffffffffffffffffffffffff166313306881846040518263ffffffff1660e01b8152600401808273ffffffffffffffffffffffffffffffffffffffff1673ffffffffffffffffffffffffffffffffffffffff16815260200191505060206040518083038186803b15801561185657600080fd5b505afa15801561186a573d6000803e3d6000fd5b505050506040513d602081101561188057600080fd5b810190808051906020019092919050505014156118a0576000905061229b565b611a65600360009054906101000a900473ffffffffffffffffffffffffffffffffffffffff1673ffffffffffffffffffffffffffffffffffffffff1663476432c3846040518263ffffffff1660e01b8152600401808273ffffffffffffffffffffffffffffffffffffffff1673ffffffffffffffffffffffffffffffffffffffff16815260200191505060206040518083038186803b15801561194257600080fd5b505afa158015611956573d6000803e3d6000fd5b505050506040513d602081101561196c57600080fd5b8101908080519060200190929190505050600360009054906101000a900473ffffffffffffffffffffffffffffffffffffffff1673ffffffffffffffffffffffffffffffffffffffff166313306881856040518263ffffffff1660e01b8152600401808273ffffffffffffffffffffffffffffffffffffffff1673ffffffffffffffffffffffffffffffffffffffff16815260200191505060206040518083038186803b158015611a1c57600080fd5b505afa158015611a30573d6000803e3d6000fd5b505050506040513d6020811015611a4657600080fd5b810190808051906020019092919050505061578d90919063ffffffff16565b42106120cb576000611ce6611bfe600360009054906101000a900473ffffffffffffffffffffffffffffffffffffffff1673ffffffffffffffffffffffffffffffffffffffff1663c88eb9846040518163ffffffff1660e01b815260040160206040518083038186803b158015611adb57600080fd5b505afa158015611aef573d6000803e3d6000fd5b505050506040513d6020811015611b0557600080fd5b8101908080519060200190929190505050600360009054906101000a900473ffffffffffffffffffffffffffffffffffffffff1673ffffffffffffffffffffffffffffffffffffffff1663d0bb9e90876040518263ffffffff1660e01b8152600401808273ffffffffffffffffffffffffffffffffffffffff1673ffffffffffffffffffffffffffffffffffffffff16815260200191505060206040518083038186803b158015611bb557600080fd5b505afa158015611bc9573d6000803e3d6000fd5b505050506040513d6020811015611bdf57600080fd5b810190808051906020019092919050505061581590919063ffffffff16565b600360009054906101000a900473ffffffffffffffffffffffffffffffffffffffff1673ffffffffffffffffffffffffffffffffffffffff1663476432c3866040518263ffffffff1660e01b8152600401808273ffffffffffffffffffffffffffffffffffffffff1673ffffffffffffffffffffffffffffffffffffffff16815260200191505060206040518083038186803b158015611c9d57600080fd5b505afa158015611cb1573d6000803e3d6000fd5b505050506040513d6020811015611cc757600080fd5b810190808051906020019092919050505061589b90919063ffffffff16565b9050600360009054906101000a900473ffffffffffffffffffffffffffffffffffffffff1673ffffffffffffffffffffffffffffffffffffffff16632b16a5648483600360009054906101000a900473ffffffffffffffffffffffffffffffffffffffff1673ffffffffffffffffffffffffffffffffffffffff166357f683d3886040518263ffffffff1660e01b8152600401808273ffffffffffffffffffffffffffffffffffffffff1673ffffffffffffffffffffffffffffffffffffffff16815260200191505060206040518083038186803b158015611dc757600080fd5b505afa158015611ddb573d6000803e3d6000fd5b505050506040513d6020811015611df157600080fd5b8101908080519060200190929190505050016040518363ffffffff1660e01b8152600401808373ffffffffffffffffffffffffffffffffffffffff1673ffffffffffffffffffffffffffffffffffffffff16815260200182815260200192505050600060405180830381600087803b158015611e6c57600080fd5b505af1158015611e80573d6000803e3d6000fd5b50505050600360009054906101000a900473ffffffffffffffffffffffffffffffffffffffff1673ffffffffffffffffffffffffffffffffffffffff16630f03c43d8460006040518363ffffffff1660e01b8152600401808373ffffffffffffffffffffffffffffffffffffffff1673ffffffffffffffffffffffffffffffffffffffff16815260200182815260200192505050600060405180830381600087803b158015611f2e57600080fd5b505af1158015611f42573d6000803e3d6000fd5b50505050600360009054906101000a900473ffffffffffffffffffffffffffffffffffffffff1673ffffffffffffffffffffffffffffffffffffffff16639a1d52928460006040518363ffffffff1660e01b8152600401808373ffffffffffffffffffffffffffffffffffffffff1673ffffffffffffffffffffffffffffffffffffffff16815260200182815260200192505050600060405180830381600087803b158015611ff057600080fd5b505af1158015612004573d6000803e3d6000fd5b50505050600360009054906101000a900473ffffffffffffffffffffffffffffffffffffffff1673ffffffffffffffffffffffffffffffffffffffff1663598b8e4e846040518263ffffffff1660e01b8152600401808273ffffffffffffffffffffffffffffffffffffffff1673ffffffffffffffffffffffffffffffffffffffff168152602001915050600060405180830381600087803b1580156120a957600080fd5b505af11580156120bd573d6000803e3d6000fd5b50505050600091505061229b565b600061229442600360009054906101000a900473ffffffffffffffffffffffffffffffffffffffff1673ffffffffffffffffffffffffffffffffffffffff1663476432c3866040518263ffffffff1660e01b8152600401808273ffffffffffffffffffffffffffffffffffffffff1673ffffffffffffffffffffffffffffffffffffffff16815260200191505060206040518083038186803b15801561217057600080fd5b505afa158015612184573d6000803e3d6000fd5b505050506040513d602081101561219a57600080fd5b8101908080519060200190929190505050600360009054906101000a900473ffffffffffffffffffffffffffffffffffffffff1673ffffffffffffffffffffffffffffffffffffffff166313306881876040518263ffffffff1660e01b8152600401808273ffffffffffffffffffffffffffffffffffffffff1673ffffffffffffffffffffffffffffffffffffffff16815260200191505060206040518083038186803b15801561224a57600080fd5b505afa15801561225e573d6000803e3d6000fd5b505050506040513d602081101561227457600080fd5b8101908080519060200190929190505050016158e590919063ffffffff16565b9050809150505b919050565b600080600160009054906101000a900473ffffffffffffffffffffffffffffffffffffffff1673ffffffffffffffffffffffffffffffffffffffff166313306881336040518263ffffffff1660e01b8152600401808273ffffffffffffffffffffffffffffffffffffffff1673ffffffffffffffffffffffffffffffffffffffff16815260200191505060206040518083038186803b15801561234257600080fd5b505afa158015612356573d6000803e3d6000fd5b505050506040513d602081101561236c57600080fd5b81019080805190602001909291905050504203600160009054906101000a900473ffffffffffffffffffffffffffffffffffffffff1673ffffffffffffffffffffffffffffffffffffffff16632429042d336040518263ffffffff1660e01b8152600401808273ffffffffffffffffffffffffffffffffffffffff1673ffffffffffffffffffffffffffffffffffffffff16815260200191505060206040518083038186803b15801561241e57600080fd5b505afa158015612432573d6000803e3d6000fd5b505050506040513d602081101561244857600080fd5b8101908080519060200190929190505050915091509091565b600080600460009054906101000a900473ffffffffffffffffffffffffffffffffffffffff1673ffffffffffffffffffffffffffffffffffffffff166313306881846040518263ffffffff1660e01b8152600401808273ffffffffffffffffffffffffffffffffffffffff1673ffffffffffffffffffffffffffffffffffffffff16815260200191505060206040518083038186803b15801561250357600080fd5b505afa158015612517573d6000803e3d6000fd5b505050506040513d602081101561252d57600080fd5b8101908080519060200190929190505050141561254d5760009050612f48565b612712600460009054906101000a900473ffffffffffffffffffffffffffffffffffffffff1673ffffffffffffffffffffffffffffffffffffffff166316511096846040518263ffffffff1660e01b8152600401808273ffffffffffffffffffffffffffffffffffffffff1673ffffffffffffffffffffffffffffffffffffffff16815260200191505060206040518083038186803b1580156125ef57600080fd5b505afa158015612603573d6000803e3d6000fd5b505050506040513d602081101561261957600080fd5b8101908080519060200190929190505050600460009054906101000a900473ffffffffffffffffffffffffffffffffffffffff1673ffffffffffffffffffffffffffffffffffffffff166313306881856040518263ffffffff1660e01b8152600401808273ffffffffffffffffffffffffffffffffffffffff1673ffffffffffffffffffffffffffffffffffffffff16815260200191505060206040518083038186803b1580156126c957600080fd5b505afa1580156126dd573d6000803e3d6000fd5b505050506040513d60208110156126f357600080fd5b810190808051906020019092919050505061578d90919063ffffffff16565b4210612d785760006129936128ab600460009054906101000a900473ffffffffffffffffffffffffffffffffffffffff1673ffffffffffffffffffffffffffffffffffffffff1663601bf56e6040518163ffffffff1660e01b815260040160206040518083038186803b15801561278857600080fd5b505afa15801561279c573d6000803e3d6000fd5b505050506040513d60208110156127b257600080fd5b8101908080519060200190929190505050600460009054906101000a900473ffffffffffffffffffffffffffffffffffffffff1673ffffffffffffffffffffffffffffffffffffffff1663de634152876040518263ffffffff1660e01b8152600401808273ffffffffffffffffffffffffffffffffffffffff1673ffffffffffffffffffffffffffffffffffffffff16815260200191505060206040518083038186803b15801561286257600080fd5b505afa158015612876573d6000803e3d6000fd5b505050506040513d602081101561288c57600080fd5b810190808051906020019092919050505061581590919063ffffffff16565b600460009054906101000a900473ffffffffffffffffffffffffffffffffffffffff1673ffffffffffffffffffffffffffffffffffffffff166316511096866040518263ffffffff1660e01b8152600401808273ffffffffffffffffffffffffffffffffffffffff1673ffffffffffffffffffffffffffffffffffffffff16815260200191505060206040518083038186803b15801561294a57600080fd5b505afa15801561295e573d6000803e3d6000fd5b505050506040513d602081101561297457600080fd5b810190808051906020019092919050505061589b90919063ffffffff16565b9050600460009054906101000a900473ffffffffffffffffffffffffffffffffffffffff1673ffffffffffffffffffffffffffffffffffffffff16632d96a77b8483600460009054906101000a900473ffffffffffffffffffffffffffffffffffffffff1673ffffffffffffffffffffffffffffffffffffffff1663af3437ae886040518263ffffffff1660e01b8152600401808273ffffffffffffffffffffffffffffffffffffffff1673ffffffffffffffffffffffffffffffffffffffff16815260200191505060206040518083038186803b158015612a7457600080fd5b505afa158015612a88573d6000803e3d6000fd5b505050506040513d6020811015612a9e57600080fd5b8101908080519060200190929190505050016040518363ffffffff1660e01b8152600401808373ffffffffffffffffffffffffffffffffffffffff1673ffffffffffffffffffffffffffffffffffffffff16815260200182815260200192505050600060405180830381600087803b158015612b1957600080fd5b505af1158015612b2d573d6000803e3d6000fd5b50505050600460009054906101000a900473ffffffffffffffffffffffffffffffffffffffff1673ffffffffffffffffffffffffffffffffffffffff16630f03c43d8460006040518363ffffffff1660e01b8152600401808373ffffffffffffffffffffffffffffffffffffffff1673ffffffffffffffffffffffffffffffffffffffff16815260200182815260200192505050600060405180830381600087803b158015612bdb57600080fd5b505af1158015612bef573d6000803e3d6000fd5b50505050600460009054906101000a900473ffffffffffffffffffffffffffffffffffffffff1673ffffffffffffffffffffffffffffffffffffffff16633f069a198460006040518363ffffffff1660e01b8152600401808373ffffffffffffffffffffffffffffffffffffffff1673ffffffffffffffffffffffffffffffffffffffff16815260200182815260200192505050600060405180830381600087803b158015612c9d57600080fd5b505af1158015612cb1573d6000803e3d6000fd5b50505050600460009054906101000a900473ffffffffffffffffffffffffffffffffffffffff1673ffffffffffffffffffffffffffffffffffffffff1663f6716496846040518263ffffffff1660e01b8152600401808273ffffffffffffffffffffffffffffffffffffffff1673ffffffffffffffffffffffffffffffffffffffff168152602001915050600060405180830381600087803b158015612d5657600080fd5b505af1158015612d6a573d6000803e3d6000fd5b505050506000915050612f48565b6000612f4142600460009054906101000a900473ffffffffffffffffffffffffffffffffffffffff1673ffffffffffffffffffffffffffffffffffffffff166316511096866040518263ffffffff1660e01b8152600401808273ffffffffffffffffffffffffffffffffffffffff1673ffffffffffffffffffffffffffffffffffffffff16815260200191505060206040518083038186803b158015612e1d57600080fd5b505afa158015612e31573d6000803e3d6000fd5b505050506040513d6020811015612e4757600080fd5b8101908080519060200190929190505050600460009054906101000a900473ffffffffffffffffffffffffffffffffffffffff1673ffffffffffffffffffffffffffffffffffffffff166313306881876040518263ffffffff1660e01b8152600401808273ffffffffffffffffffffffffffffffffffffffff1673ffffffffffffffffffffffffffffffffffffffff16815260200191505060206040518083038186803b158015612ef757600080fd5b505afa158015612f0b573d6000803e3d6000fd5b505050506040513d6020811015612f2157600080fd5b8101908080519060200190929190505050016158e590919063ffffffff16565b9050809150505b919050565b600080600260009054906101000a900473ffffffffffffffffffffffffffffffffffffffff1673ffffffffffffffffffffffffffffffffffffffff166313306881336040518263ffffffff1660e01b8152600401808273ffffffffffffffffffffffffffffffffffffffff1673ffffffffffffffffffffffffffffffffffffffff16815260200191505060206040518083038186803b158015612fef57600080fd5b505afa158015613003573d6000803e3d6000fd5b505050506040513d602081101561301957600080fd5b81019080805190602001909291905050504203600260009054906101000a900473ffffffffffffffffffffffffffffffffffffffff1673ffffffffffffffffffffffffffffffffffffffff16635fad0242336040518263ffffffff1660e01b8152600401808273ffffffffffffffffffffffffffffffffffffffff1673ffffffffffffffffffffffffffffffffffffffff16815260200191505060206040518083038186803b1580156130cb57600080fd5b505afa1580156130df573d6000803e3d6000fd5b505050506040513d60208110156130f557600080fd5b8101908080519060200190929190505050915091509091565b600080600460009054906101000a900473ffffffffffffffffffffffffffffffffffffffff1673ffffffffffffffffffffffffffffffffffffffff166313306881336040518263ffffffff1660e01b8152600401808273ffffffffffffffffffffffffffffffffffffffff1673ffffffffffffffffffffffffffffffffffffffff16815260200191505060206040518083038186803b1580156131b057600080fd5b505afa1580156131c4573d6000803e3d6000fd5b505050506040513d60208110156131da57600080fd5b81019080805190602001909291905050504203600460009054906101000a900473ffffffffffffffffffffffffffffffffffffffff1673ffffffffffffffffffffffffffffffffffffffff166316511096336040518263ffffffff1660e01b8152600401808273ffffffffffffffffffffffffffffffffffffffff1673ffffffffffffffffffffffffffffffffffffffff16815260200191505060206040518083038186803b15801561328c57600080fd5b505afa1580156132a0573d6000803e3d6000fd5b505050506040513d60208110156132b657600080fd5b8101908080519060200190929190505050915091509091565b6000600360009054906101000a900473ffffffffffffffffffffffffffffffffffffffff1673ffffffffffffffffffffffffffffffffffffffff1663d0bb9e90836040518263ffffffff1660e01b8152600401808273ffffffffffffffffffffffffffffffffffffffff1673ffffffffffffffffffffffffffffffffffffffff16815260200191505060206040518083038186803b15801561337057600080fd5b505afa158015613384573d6000803e3d6000fd5b505050506040513d602081101561339a57600080fd5b81019080805190602001909291905050509050919050565b60056020528060005260406000206000915090505481565b6000803390506000600360009054906101000a900473ffffffffffffffffffffffffffffffffffffffff1673ffffffffffffffffffffffffffffffffffffffff166313306881836040518263ffffffff1660e01b8152600401808273ffffffffffffffffffffffffffffffffffffffff1673ffffffffffffffffffffffffffffffffffffffff16815260200191505060206040518083038186803b15801561347157600080fd5b505afa158015613485573d6000803e3d6000fd5b505050506040513d602081101561349b57600080fd5b8101908080519060200190929190505050146134bb576000915050613997565b600080600360009054906101000a900473ffffffffffffffffffffffffffffffffffffffff1673ffffffffffffffffffffffffffffffffffffffff1663ac4ccf1f846040518263ffffffff1660e01b8152600401808273ffffffffffffffffffffffffffffffffffffffff1673ffffffffffffffffffffffffffffffffffffffff168152602001915050602060405180830381600087803b15801561355f57600080fd5b505af1158015613573573d6000803e3d6000fd5b505050506040513d602081101561358957600080fd5b81019080805190602001909291905050509150600360009054906101000a900473ffffffffffffffffffffffffffffffffffffffff1673ffffffffffffffffffffffffffffffffffffffff1663d0bb9e90846040518263ffffffff1660e01b8152600401808273ffffffffffffffffffffffffffffffffffffffff1673ffffffffffffffffffffffffffffffffffffffff16815260200191505060206040518083038186803b15801561363b57600080fd5b505afa15801561364f573d6000803e3d6000fd5b505050506040513d602081101561366557600080fd5b810190808051906020019092919050505090506000151582151514156136915760009350505050613997565b600360009054906101000a900473ffffffffffffffffffffffffffffffffffffffff1673ffffffffffffffffffffffffffffffffffffffff16630f03c43d84426040518363ffffffff1660e01b8152600401808373ffffffffffffffffffffffffffffffffffffffff1673ffffffffffffffffffffffffffffffffffffffff16815260200182815260200192505050600060405180830381600087803b15801561373a57600080fd5b505af115801561374e573d6000803e3d6000fd5b50505050600360009054906101000a900473ffffffffffffffffffffffffffffffffffffffff1673ffffffffffffffffffffffffffffffffffffffff16639a1d52928483600360009054906101000a900473ffffffffffffffffffffffffffffffffffffffff1673ffffffffffffffffffffffffffffffffffffffff1663c88eb9846040518163ffffffff1660e01b815260040160206040518083038186803b1580156137fa57600080fd5b505afa15801561380e573d6000803e3d6000fd5b505050506040513d602081101561382457600080fd5b8101908080519060200190929190505050026040518363ffffffff1660e01b8152600401808373ffffffffffffffffffffffffffffffffffffffff1673ffffffffffffffffffffffffffffffffffffffff16815260200182815260200192505050600060405180830381600087803b15801561389f57600080fd5b505af11580156138b3573d6000803e3d6000fd5b50505050600360009054906101000a900473ffffffffffffffffffffffffffffffffffffffff1673ffffffffffffffffffffffffffffffffffffffff1663476432c3846040518263ffffffff1660e01b8152600401808273ffffffffffffffffffffffffffffffffffffffff1673ffffffffffffffffffffffffffffffffffffffff16815260200191505060206040518083038186803b15801561395657600080fd5b505afa15801561396a573d6000803e3d6000fd5b505050506040513d602081101561398057600080fd5b810190808051906020019092919050505093505050505b90565b6000600260009054906101000a900473ffffffffffffffffffffffffffffffffffffffff1673ffffffffffffffffffffffffffffffffffffffff1663b47711fa836040518263ffffffff1660e01b8152600401808273ffffffffffffffffffffffffffffffffffffffff1673ffffffffffffffffffffffffffffffffffffffff16815260200191505060206040518083038186803b158015613a3b57600080fd5b505afa158015613a4f573d6000803e3d6000fd5b505050506040513d6020811015613a6557600080fd5b81019080805190602001909291905050509050919050565b6000803390506000600260009054906101000a900473ffffffffffffffffffffffffffffffffffffffff1673ffffffffffffffffffffffffffffffffffffffff166313306881836040518263ffffffff1660e01b8152600401808273ffffffffffffffffffffffffffffffffffffffff1673ffffffffffffffffffffffffffffffffffffffff16815260200191505060206040518083038186803b158015613b2457600080fd5b505afa158015613b38573d6000803e3d6000fd5b505050506040513d6020811015613b4e57600080fd5b810190808051906020019092919050505014613b6e57600091505061404a565b600080600260009054906101000a900473ffffffffffffffffffffffffffffffffffffffff1673ffffffffffffffffffffffffffffffffffffffff16632998630d846040518263ffffffff1660e01b8152600401808273ffffffffffffffffffffffffffffffffffffffff1673ffffffffffffffffffffffffffffffffffffffff168152602001915050602060405180830381600087803b158015613c1257600080fd5b505af1158015613c26573d6000803e3d6000fd5b505050506040513d6020811015613c3c57600080fd5b81019080805190602001909291905050509150600260009054906101000a900473ffffffffffffffffffffffffffffffffffffffff1673ffffffffffffffffffffffffffffffffffffffff1663b47711fa846040518263ffffffff1660e01b8152600401808273ffffffffffffffffffffffffffffffffffffffff1673ffffffffffffffffffffffffffffffffffffffff16815260200191505060206040518083038186803b158015613cee57600080fd5b505afa158015613d02573d6000803e3d6000fd5b505050506040513d6020811015613d1857600080fd5b81019080805190602001909291905050509050600015158215151415613d44576000935050505061404a565b600260009054906101000a900473ffffffffffffffffffffffffffffffffffffffff1673ffffffffffffffffffffffffffffffffffffffff16630f03c43d84426040518363ffffffff1660e01b8152600401808373ffffffffffffffffffffffffffffffffffffffff1673ffffffffffffffffffffffffffffffffffffffff16815260200182815260200192505050600060405180830381600087803b158015613ded57600080fd5b505af1158015613e01573d6000803e3d6000fd5b50505050600260009054906101000a900473ffffffffffffffffffffffffffffffffffffffff1673ffffffffffffffffffffffffffffffffffffffff16635a59ad408483600260009054906101000a900473ffffffffffffffffffffffffffffffffffffffff1673ffffffffffffffffffffffffffffffffffffffff16636e35e1eb6040518163ffffffff1660e01b815260040160206040518083038186803b158015613ead57600080fd5b505afa158015613ec1573d6000803e3d6000fd5b505050506040513d6020811015613ed757600080fd5b8101908080519060200190929190505050026040518363ffffffff1660e01b8152600401808373ffffffffffffffffffffffffffffffffffffffff1673ffffffffffffffffffffffffffffffffffffffff16815260200182815260200192505050600060405180830381600087803b158015613f5257600080fd5b505af1158015613f66573d6000803e3d6000fd5b50505050600260009054906101000a900473ffffffffffffffffffffffffffffffffffffffff1673ffffffffffffffffffffffffffffffffffffffff16635fad0242846040518263ffffffff1660e01b8152600401808273ffffffffffffffffffffffffffffffffffffffff1673ffffffffffffffffffffffffffffffffffffffff16815260200191505060206040518083038186803b15801561400957600080fd5b505afa15801561401d573d6000803e3d6000fd5b505050506040513d602081101561403357600080fd5b810190808051906020019092919050505093505050505b90565b600080600360009054906101000a900473ffffffffffffffffffffffffffffffffffffffff1673ffffffffffffffffffffffffffffffffffffffff166313306881336040518263ffffffff1660e01b8152600401808273ffffffffffffffffffffffffffffffffffffffff1673ffffffffffffffffffffffffffffffffffffffff16815260200191505060206040518083038186803b1580156140ef57600080fd5b505afa158015614103573d6000803e3d6000fd5b505050506040513d602081101561411957600080fd5b81019080805190602001909291905050504203600360009054906101000a900473ffffffffffffffffffffffffffffffffffffffff1673ffffffffffffffffffffffffffffffffffffffff1663476432c3336040518263ffffffff1660e01b8152600401808273ffffffffffffffffffffffffffffffffffffffff1673ffffffffffffffffffffffffffffffffffffffff16815260200191505060206040518083038186803b1580156141cb57600080fd5b505afa1580156141df573d6000803e3d6000fd5b505050506040513d60208110156141f557600080fd5b8101908080519060200190929190505050915091509091565b6000803390506000600160009054906101000a900473ffffffffffffffffffffffffffffffffffffffff1673ffffffffffffffffffffffffffffffffffffffff166313306881836040518263ffffffff1660e01b8152600401808273ffffffffffffffffffffffffffffffffffffffff1673ffffffffffffffffffffffffffffffffffffffff16815260200191505060206040518083038186803b1580156142b557600080fd5b505afa1580156142c9573d6000803e3d6000fd5b505050506040513d60208110156142df57600080fd5b8101908080519060200190929190505050146142ff5760009150506147db565b600080600160009054906101000a900473ffffffffffffffffffffffffffffffffffffffff1673ffffffffffffffffffffffffffffffffffffffff1663c75fbb56846040518263ffffffff1660e01b8152600401808273ffffffffffffffffffffffffffffffffffffffff1673ffffffffffffffffffffffffffffffffffffffff168152602001915050602060405180830381600087803b1580156143a357600080fd5b505af11580156143b7573d6000803e3d6000fd5b505050506040513d60208110156143cd57600080fd5b81019080805190602001909291905050509150600160009054906101000a900473ffffffffffffffffffffffffffffffffffffffff1673ffffffffffffffffffffffffffffffffffffffff166329058536846040518263ffffffff1660e01b8152600401808273ffffffffffffffffffffffffffffffffffffffff1673ffffffffffffffffffffffffffffffffffffffff16815260200191505060206040518083038186803b15801561447f57600080fd5b505afa158015614493573d6000803e3d6000fd5b505050506040513d60208110156144a957600080fd5b810190808051906020019092919050505090506000151582151514156144d557600093505050506147db565b600160009054906101000a900473ffffffffffffffffffffffffffffffffffffffff1673ffffffffffffffffffffffffffffffffffffffff16630f03c43d84426040518363ffffffff1660e01b8152600401808373ffffffffffffffffffffffffffffffffffffffff1673ffffffffffffffffffffffffffffffffffffffff16815260200182815260200192505050600060405180830381600087803b15801561457e57600080fd5b505af1158015614592573d6000803e3d6000fd5b50505050600160009054906101000a900473ffffffffffffffffffffffffffffffffffffffff1673ffffffffffffffffffffffffffffffffffffffff166322e4b6fc8483600160009054906101000a900473ffffffffffffffffffffffffffffffffffffffff1673ffffffffffffffffffffffffffffffffffffffff16636f2fdae56040518163ffffffff1660e01b815260040160206040518083038186803b15801561463e57600080fd5b505afa158015614652573d6000803e3d6000fd5b505050506040513d602081101561466857600080fd5b8101908080519060200190929190505050026040518363ffffffff1660e01b8152600401808373ffffffffffffffffffffffffffffffffffffffff1673ffffffffffffffffffffffffffffffffffffffff16815260200182815260200192505050600060405180830381600087803b1580156146e357600080fd5b505af11580156146f7573d6000803e3d6000fd5b50505050600160009054906101000a900473ffffffffffffffffffffffffffffffffffffffff1673ffffffffffffffffffffffffffffffffffffffff16632429042d846040518263ffffffff1660e01b8152600401808273ffffffffffffffffffffffffffffffffffffffff1673ffffffffffffffffffffffffffffffffffffffff16815260200191505060206040518083038186803b15801561479a57600080fd5b505afa1580156147ae573d6000803e3d6000fd5b505050506040513d60208110156147c457600080fd5b810190808051906020019092919050505093505050505b90565b600080600160009054906101000a900473ffffffffffffffffffffffffffffffffffffffff1673ffffffffffffffffffffffffffffffffffffffff166313306881846040518263ffffffff1660e01b8152600401808273ffffffffffffffffffffffffffffffffffffffff1673ffffffffffffffffffffffffffffffffffffffff16815260200191505060206040518083038186803b15801561488057600080fd5b505afa158015614894573d6000803e3d6000fd5b505050506040513d60208110156148aa57600080fd5b810190808051906020019092919050505014156148ca57600090506152c5565b614a8f600160009054906101000a900473ffffffffffffffffffffffffffffffffffffffff1673ffffffffffffffffffffffffffffffffffffffff16632429042d846040518263ffffffff1660e01b8152600401808273ffffffffffffffffffffffffffffffffffffffff1673ffffffffffffffffffffffffffffffffffffffff16815260200191505060206040518083038186803b15801561496c57600080fd5b505afa158015614980573d6000803e3d6000fd5b505050506040513d602081101561499657600080fd5b8101908080519060200190929190505050600160009054906101000a900473ffffffffffffffffffffffffffffffffffffffff1673ffffffffffffffffffffffffffffffffffffffff166313306881856040518263ffffffff1660e01b8152600401808273ffffffffffffffffffffffffffffffffffffffff1673ffffffffffffffffffffffffffffffffffffffff16815260200191505060206040518083038186803b158015614a4657600080fd5b505afa158015614a5a573d6000803e3d6000fd5b505050506040513d6020811015614a7057600080fd5b810190808051906020019092919050505061578d90919063ffffffff16565b42106150f5576000614d10614c28600160009054906101000a900473ffffffffffffffffffffffffffffffffffffffff1673ffffffffffffffffffffffffffffffffffffffff16636f2fdae56040518163ffffffff1660e01b815260040160206040518083038186803b158015614b0557600080fd5b505afa158015614b19573d6000803e3d6000fd5b505050506040513d6020811015614b2f57600080fd5b8101908080519060200190929190505050600160009054906101000a900473ffffffffffffffffffffffffffffffffffffffff1673ffffffffffffffffffffffffffffffffffffffff166329058536876040518263ffffffff1660e01b8152600401808273ffffffffffffffffffffffffffffffffffffffff1673ffffffffffffffffffffffffffffffffffffffff16815260200191505060206040518083038186803b158015614bdf57600080fd5b505afa158015614bf3573d6000803e3d6000fd5b505050506040513d6020811015614c0957600080fd5b810190808051906020019092919050505061581590919063ffffffff16565b600160009054906101000a900473ffffffffffffffffffffffffffffffffffffffff1673ffffffffffffffffffffffffffffffffffffffff16632429042d866040518263ffffffff1660e01b8152600401808273ffffffffffffffffffffffffffffffffffffffff1673ffffffffffffffffffffffffffffffffffffffff16815260200191505060206040518083038186803b158015614cc757600080fd5b505afa158015614cdb573d6000803e3d6000fd5b505050506040513d6020811015614cf157600080fd5b810190808051906020019092919050505061589b90919063ffffffff16565b9050600160009054906101000a900473ffffffffffffffffffffffffffffffffffffffff1673ffffffffffffffffffffffffffffffffffffffff16633dabc4df8483600160009054906101000a900473ffffffffffffffffffffffffffffffffffffffff1673ffffffffffffffffffffffffffffffffffffffff16635697b21a886040518263ffffffff1660e01b8152600401808273ffffffffffffffffffffffffffffffffffffffff1673ffffffffffffffffffffffffffffffffffffffff16815260200191505060206040518083038186803b158015614df157600080fd5b505afa158015614e05573d6000803e3d6000fd5b505050506040513d6020811015614e1b57600080fd5b8101908080519060200190929190505050016040518363ffffffff1660e01b8152600401808373ffffffffffffffffffffffffffffffffffffffff1673ffffffffffffffffffffffffffffffffffffffff16815260200182815260200192505050600060405180830381600087803b158015614e9657600080fd5b505af1158015614eaa573d6000803e3d6000fd5b50505050600160009054906101000a900473ffffffffffffffffffffffffffffffffffffffff1673ffffffffffffffffffffffffffffffffffffffff16630f03c43d8460006040518363ffffffff1660e01b8152600401808373ffffffffffffffffffffffffffffffffffffffff1673ffffffffffffffffffffffffffffffffffffffff16815260200182815260200192505050600060405180830381600087803b158015614f5857600080fd5b505af1158015614f6c573d6000803e3d6000fd5b50505050600160009054906101000a900473ffffffffffffffffffffffffffffffffffffffff1673ffffffffffffffffffffffffffffffffffffffff166322e4b6fc8460006040518363ffffffff1660e01b8152600401808373ffffffffffffffffffffffffffffffffffffffff1673ffffffffffffffffffffffffffffffffffffffff16815260200182815260200192505050600060405180830381600087803b15801561501a57600080fd5b505af115801561502e573d6000803e3d6000fd5b50505050600160009054906101000a900473ffffffffffffffffffffffffffffffffffffffff1673ffffffffffffffffffffffffffffffffffffffff16632f47faeb846040518263ffffffff1660e01b8152600401808273ffffffffffffffffffffffffffffffffffffffff1673ffffffffffffffffffffffffffffffffffffffff168152602001915050600060405180830381600087803b1580156150d357600080fd5b505af11580156150e7573d6000803e3d6000fd5b5050505060009150506152c5565b60006152be42600160009054906101000a900473ffffffffffffffffffffffffffffffffffffffff1673ffffffffffffffffffffffffffffffffffffffff16632429042d866040518263ffffffff1660e01b8152600401808273ffffffffffffffffffffffffffffffffffffffff1673ffffffffffffffffffffffffffffffffffffffff16815260200191505060206040518083038186803b15801561519a57600080fd5b505afa1580156151ae573d6000803e3d6000fd5b505050506040513d60208110156151c457600080fd5b8101908080519060200190929190505050600160009054906101000a900473ffffffffffffffffffffffffffffffffffffffff1673ffffffffffffffffffffffffffffffffffffffff166313306881876040518263ffffffff1660e01b8152600401808273ffffffffffffffffffffffffffffffffffffffff1673ffffffffffffffffffffffffffffffffffffffff16815260200191505060206040518083038186803b15801561527457600080fd5b505afa158015615288573d6000803e3d6000fd5b505050506040513d602081101561529e57600080fd5b8101908080519060200190929190505050016158e590919063ffffffff16565b9050809150505b919050565b6000600460009054906101000a900473ffffffffffffffffffffffffffffffffffffffff1673ffffffffffffffffffffffffffffffffffffffff1663de634152836040518263ffffffff1660e01b8152600401808273ffffffffffffffffffffffffffffffffffffffff1673ffffffffffffffffffffffffffffffffffffffff16815260200191505060206040518083038186803b15801561536b57600080fd5b505afa15801561537f573d6000803e3d6000fd5b505050506040513d602081101561539557600080fd5b81019080805190602001909291905050509050919050565b60606000809054906101000a900473ffffffffffffffffffffffffffffffffffffffff1673ffffffffffffffffffffffffffffffffffffffff16632c79c523836040518263ffffffff1660e01b8152600401808273ffffffffffffffffffffffffffffffffffffffff1673ffffffffffffffffffffffffffffffffffffffff168152602001806020018281038252600a8152602001807f4c61626f7261746f7279000000000000000000000000000000000000000000008152506020019250505060006040518083038186803b15801561548657600080fd5b505afa15801561549a573d6000803e3d6000fd5b505050506040513d6000823e3d601f19601f8201168201806040525060208110156154c457600080fd5b81019080805160405193929190846401000000008211156154e457600080fd5b838201915060208201858111156154fa57600080fd5b825186602082028301116401000000008211171561551757600080fd5b8083526020830192505050908051906020019060200280838360005b8381101561554e578082015181840152602081019050615533565b5050505090500160405250505090506000600560008473ffffffffffffffffffffffffffffffffffffffff1673ffffffffffffffffffffffffffffffffffffffff1681526020019081526020016000205414806155ac575060008151145b156155fb5742600560008473ffffffffffffffffffffffffffffffffffffffff1673ffffffffffffffffffffffffffffffffffffffff16815260200190815260200160002081905550506156a7565b6000615652600a600560008673ffffffffffffffffffffffffffffffffffffffff1673ffffffffffffffffffffffffffffffffffffffff16815260200190815260200160002054420361589b90919063ffffffff16565b905080600a02600560008573ffffffffffffffffffffffffffffffffffffffff1673ffffffffffffffffffffffffffffffffffffffff1681526020019081526020016000206000828254019250508190555050505b50565b6000600160009054906101000a900473ffffffffffffffffffffffffffffffffffffffff1673ffffffffffffffffffffffffffffffffffffffff166329058536836040518263ffffffff1660e01b8152600401808273ffffffffffffffffffffffffffffffffffffffff1673ffffffffffffffffffffffffffffffffffffffff16815260200191505060206040518083038186803b15801561574b57600080fd5b505afa15801561575f573d6000803e3d6000fd5b505050506040513d602081101561577557600080fd5b81019080805190602001909291905050509050919050565b60008082840190508381101561580b576040517f08c379a000000000000000000000000000000000000000000000000000000000815260040180806020018281038252601b8152602001807f536166654d6174683a206164646974696f6e206f766572666c6f77000000000081525060200191505060405180910390fd5b8091505092915050565b6000808314156158285760009050615895565b600082840290508284828161583957fe5b0414615890576040517f08c379a0000000000000000000000000000000000000000000000000000000008152600401808060200182810382526021815260200180615ab66021913960400191505060405180910390fd5b809150505b92915050565b60006158dd83836040518060400160405280601a81526020017f536166654d6174683a206469766973696f6e206279207a65726f00000000000081525061592f565b905092915050565b600061592783836040518060400160405280601e81526020017f536166654d6174683a207375627472616374696f6e206f766572666c6f7700008152506159f5565b905092915050565b600080831182906159db576040517f08c379a00000000000000000000000000000000000000000000000000000000081526004018080602001828103825283818151815260200191508051906020019080838360005b838110156159a0578082015181840152602081019050615985565b50505050905090810190601f1680156159cd5780820380516001836020036101000a031916815260200191505b509250505060405180910390fd5b5060008385816159e757fe5b049050809150509392505050565b6000838311158290615aa2576040517f08c379a00000000000000000000000000000000000000000000000000000000081526004018080602001828103825283818151815260200191508051906020019080838360005b83811015615a67578082015181840152602081019050615a4c565b50505050905090810190601f168015615a945780820380516001836020036101000a031916815260200191505b509250505060405180910390fd5b506000838503905080915050939250505056fe536166654d6174683a206d756c7469706c69636174696f6e206f766572666c6f77a265627a7a7231582008866bc8bc0600a2f4ff373b789f55d1bb26daad8128545f81816b4ecbe377cf64736f6c63430005100032",
  "source": "pragma solidity >=0.4.21 <0.7.0;\n\nimport \"./SafeMath.sol\";\nimport \"./BuildingFactory.sol\";\nimport \"./Soldier.sol\";\nimport \"./Spy.sol\";\nimport \"./Cannon.sol\";\nimport \"./Protector.sol\";\n\ncontract Laboratory {\n    \n    using SafeMath for uint;\n    \n    // Account accountInstance;\n    BuildingFactory buildingInstance;\n    Soldier soldierInstance;\n    Protector ProtectorInstance;\n    Cannon CannonInstance;\n    Spy SpyInstance;\n    constructor(address _building_address, address _soldier_address, address _spy_instance, address _cannon_instance, address _protector_instance) public {\n        buildingInstance = BuildingFactory(_building_address);\n        soldierInstance = Soldier(_soldier_address);\n        SpyInstance = Spy(_spy_instance);\n        ProtectorInstance = Protector(_protector_instance);\n        CannonInstance = Cannon(_cannon_instance);\n    }\n    \n    mapping (address => uint) public ownerLabProduceTime;\n\n\n    function createLaboratory(uint _x, uint _y) public {\n        \n        buildingInstance._createBuilding(msg.sender, \"Laboratory\", _x, _y);\n        _updateLaboratory(msg.sender);\n    }\n\n    function _updateLaboratory(address _owner) public {\n        uint[] memory labs = buildingInstance.getSpecificBuildingByOwner(_owner, \"Laboratory\");\n        if (ownerLabProduceTime[_owner] == 0 || labs.length == 0) {\n            ownerLabProduceTime[_owner] = now;\n            return;\n        }\n        uint periodCounts = (now - ownerLabProduceTime[_owner]).div(10 seconds);\n        // uint produceAbilitySum = 0;\n        // for (uint i=0; i<farms.length; i++) {\n        //     produceAbilitySum += buildingInstance.getBuildingLevel(labs[i]) * produceLabAbility;\n        // }\n        // accountInstance.setLabOwnerCount(_owner, accountInstance.getFoodOwnerCount(_owner) + periodCounts * produceAbilitySum);\n        ownerLabProduceTime[_owner] += 10 * periodCounts;\n    }\n\n        function startUpgradeSoldier() public returns(uint) {\n        address _owner = msg.sender;\n        if(soldierInstance.ownerStartUpgradeTime(_owner) != 0) return uint(0); // check if there is already creating soldiers\n        bool enoughResource;\n        uint lvOfSoldier;\n        enoughResource = soldierInstance._UpgradeSoldier(_owner);\n        lvOfSoldier =  soldierInstance.levelOfSoldier(_owner);\n        if(enoughResource == false) return uint(0);\n        soldierInstance.setStartUpgradeTime(_owner, uint(now));\n        soldierInstance.setUpgradeSoldierTime(_owner, soldierInstance.UpgradeSoldierTime() * lvOfSoldier);\n        return soldierInstance.ownerUpgradeSoldierTime(_owner);\n    }\n\n    function getUpgradeSoldierTime() public view returns(uint, uint) {\n        return ( now - soldierInstance.ownerStartUpgradeTime(msg.sender), soldierInstance.ownerUpgradeSoldierTime(msg.sender) ) ;\n    }\n\n    // // return 0 if success else return remaining time\n    function updateUpgradeSoldier(address _owner) public returns(uint) {\n        if (soldierInstance.ownerStartUpgradeTime(_owner) == 0) return 0;\n        if (now >= soldierInstance.ownerStartUpgradeTime(_owner).add(soldierInstance.ownerUpgradeSoldierTime(_owner))) {\n            uint num;\n            num = soldierInstance.ownerUpgradeSoldierTime(_owner).div(  soldierInstance.levelOfSoldier(_owner).mul(soldierInstance.UpgradeSoldierTime()) );\n            soldierInstance.setNumOfSoldier(_owner, soldierInstance.numOfSoldier(_owner) + (num));\n            soldierInstance.setStartUpgradeTime(_owner, 0);\n            soldierInstance.setUpgradeSoldierTime(_owner, 0);\n            soldierInstance._updatePower(_owner);\n            return 0;\n        }\n        else {\n            uint remainingTime = (soldierInstance.ownerStartUpgradeTime(_owner) + soldierInstance.ownerUpgradeSoldierTime(_owner)).sub(now);\n            return remainingTime;\n        }\n    }\n\n    function startUpgradeProtector() public returns(uint) {\n        address _owner = msg.sender;\n        if(ProtectorInstance.ownerStartUpgradeTime(_owner) != 0) return uint(0); // check if there is already creating Protectors\n        bool enoughResource;\n        uint lvOfProtector;\n        enoughResource = ProtectorInstance._UpgradeProtector(_owner);\n        lvOfProtector =  ProtectorInstance.levelOfProtector(_owner);\n        if(enoughResource == false) return uint(0);\n        ProtectorInstance.setStartUpgradeTime(_owner, uint(now));\n        ProtectorInstance.setUpgradeProtectorTime(_owner, ProtectorInstance.UpgradeProtectorTime() * lvOfProtector);\n        return ProtectorInstance.ownerUpgradeProtectorTime(_owner);\n    }\n\n    function getUpgradeProtectorTime() public view returns(uint, uint) {\n        return ( now - ProtectorInstance.ownerStartUpgradeTime(msg.sender), ProtectorInstance.ownerUpgradeProtectorTime(msg.sender) ) ;\n    }\n\n    // // return 0 if success else return remaining time\n    function updateUpgradeProtector(address _owner) public returns(uint) {\n        if (ProtectorInstance.ownerStartUpgradeTime(_owner) == 0) return 0;\n        if (now >= ProtectorInstance.ownerStartUpgradeTime(_owner).add(ProtectorInstance.ownerUpgradeProtectorTime(_owner))) {\n            uint num;\n            num = ProtectorInstance.ownerUpgradeProtectorTime(_owner).div(  ProtectorInstance.levelOfProtector(_owner).mul(ProtectorInstance.UpgradeProtectorTime()) );\n            ProtectorInstance.setNumOfProtector(_owner, ProtectorInstance.numOfProtector(_owner) + (num));\n            ProtectorInstance.setStartUpgradeTime(_owner, 0);\n            ProtectorInstance.setUpgradeProtectorTime(_owner, 0);\n            ProtectorInstance._updateProtectorPower(_owner);\n            return 0;\n        }\n        else {\n            uint remainingTime = (ProtectorInstance.ownerStartUpgradeTime(_owner) + ProtectorInstance.ownerUpgradeProtectorTime(_owner)).sub(now);\n            return remainingTime;\n        }\n    }\n\n    function startUpgradeCannon() public returns(uint) {\n        address _owner = msg.sender;\n        if(CannonInstance.ownerStartUpgradeTime(_owner) != 0) return uint(0); // check if there is already creating Cannons\n        bool enoughResource;\n        uint lvOfCannon;\n        enoughResource = CannonInstance._UpgradeCannon(_owner);\n        lvOfCannon =  CannonInstance.levelOfCannon(_owner);\n        if(enoughResource == false) return uint(0);\n        CannonInstance.setStartUpgradeTime(_owner, uint(now));\n        CannonInstance.setUpgradeCannonTime(_owner, CannonInstance.UpgradeCannonTime() * lvOfCannon);\n        return CannonInstance.ownerUpgradeCannonTime(_owner);\n    }\n\n    function getUpgradeCannonTime() public view returns(uint, uint) {\n        return ( now - CannonInstance.ownerStartUpgradeTime(msg.sender), CannonInstance.ownerUpgradeCannonTime(msg.sender) ) ;\n    }\n\n    // // return 0 if success else return remaining time\n    function updateUpgradeCannon(address _owner) public returns(uint) {\n        if (CannonInstance.ownerStartUpgradeTime(_owner) == 0) return 0;\n        if (now >= CannonInstance.ownerStartUpgradeTime(_owner).add(CannonInstance.ownerUpgradeCannonTime(_owner))) {\n            uint num;\n            num = CannonInstance.ownerUpgradeCannonTime(_owner).div(  CannonInstance.levelOfCannon(_owner).mul(CannonInstance.UpgradeCannonTime()) );\n            CannonInstance.setNumOfCannon(_owner, CannonInstance.numOfCannon(_owner) + (num));\n            CannonInstance.setStartUpgradeTime(_owner, 0);\n            CannonInstance.setUpgradeCannonTime(_owner, 0);\n            CannonInstance._updateCannonPower(_owner);\n            return 0;\n        }\n        else {\n            uint remainingTime = (CannonInstance.ownerStartUpgradeTime(_owner) + CannonInstance.ownerUpgradeCannonTime(_owner)).sub(now);\n            return remainingTime;\n        }\n    }\n\n    function startUpgradeSpy() public returns(uint) {\n        address _owner = msg.sender;\n        if(SpyInstance.ownerStartUpgradeTime(_owner) != 0) return uint(0); // check if there is already creating Spys\n        bool enoughResource;\n        uint lvOfSpy;\n        enoughResource = SpyInstance._UpgradeSpy(_owner);\n        lvOfSpy =  SpyInstance.levelOfSpy(_owner);\n        if(enoughResource == false) return uint(0);\n        SpyInstance.setStartUpgradeTime(_owner, uint(now));\n        SpyInstance.setUpgradeSpyTime(_owner, SpyInstance.UpgradeSpyTime() * lvOfSpy);\n        return SpyInstance.ownerUpgradeSpyTime(_owner);\n    }\n\n    function getUpgradeSpyTime() public view returns(uint, uint) {\n        return ( now - SpyInstance.ownerStartUpgradeTime(msg.sender), SpyInstance.ownerUpgradeSpyTime(msg.sender) ) ;\n    }\n\n    // // return 0 if success else return remaining time\n    function updateUpgradeSpy(address _owner) public returns(uint) {\n        if (SpyInstance.ownerStartUpgradeTime(_owner) == 0) return 0;\n        if (now >= SpyInstance.ownerStartUpgradeTime(_owner).add(SpyInstance.ownerUpgradeSpyTime(_owner))) {\n            uint num;\n            num = SpyInstance.ownerUpgradeSpyTime(_owner).div(  SpyInstance.levelOfSpy(_owner).mul(SpyInstance.UpgradeSpyTime()) );\n            SpyInstance.setNumOfSpy(_owner, SpyInstance.numOfSpy(_owner) + (num));\n            SpyInstance.setStartUpgradeTime(_owner, 0);\n            SpyInstance.setUpgradeSpyTime(_owner, 0);\n            SpyInstance._updateSpyPower(_owner);\n            return 0;\n        }\n        else {\n            uint remainingTime = (SpyInstance.ownerStartUpgradeTime(_owner) + SpyInstance.ownerUpgradeSpyTime(_owner)).sub(now);\n            return remainingTime;\n        }\n    }\n\n    function getSoldierLevel(address _owner) public view returns(uint) {\n        return soldierInstance.levelOfSoldier(_owner);\n    }\n\n    function getProtectorLevel(address _owner) public view returns(uint) {\n        return ProtectorInstance.levelOfProtector(_owner);\n    }\n\n    function getCannonLevel(address _owner) public view returns(uint) {\n        return CannonInstance.levelOfCannon(_owner);\n    }\n\n    function getSpyLevel(address _owner) public view returns(uint) {\n        return SpyInstance.levelOfSpy(_owner);\n    }\n}",
  "sourcePath": "/Users/seanwang0823/NMLab_Final/contracts/Laboratory.sol",
  "compiler": {
    "name": "solc",
    "version": "0.5.16+commit.9c3226ce.Emscripten.clang"
  },
  "schemaVersion": "3.4.0",
  "updatedAt": "2021-06-12T03:10:04.813Z",
  "networkType": "ethereum",
  "devdoc": {
    "methods": {}
  },
  "userdoc": {
    "methods": {}
  }
}