{
  "contractName": "Laboratory",
  "abi": [
    {
      "inputs": [
        {
          "internalType": "address",
          "name": "_building_address",
          "type": "address"
        },
        {
          "internalType": "address",
          "name": "_soldier_address",
          "type": "address"
        },
        {
          "internalType": "address",
          "name": "_spy_instance",
          "type": "address"
        },
        {
          "internalType": "address",
          "name": "_cannon_instance",
          "type": "address"
        },
        {
          "internalType": "address",
          "name": "_protector_instance",
          "type": "address"
        }
      ],
      "payable": false,
      "stateMutability": "nonpayable",
      "type": "constructor"
    },
    {
      "constant": true,
      "inputs": [
        {
          "internalType": "address",
          "name": "",
          "type": "address"
        }
      ],
      "name": "ownerLabProduceTime",
      "outputs": [
        {
          "internalType": "uint256",
          "name": "",
          "type": "uint256"
        }
      ],
      "payable": false,
      "stateMutability": "view",
      "type": "function"
    },
    {
      "constant": false,
      "inputs": [
        {
          "internalType": "uint256",
          "name": "_x",
          "type": "uint256"
        },
        {
          "internalType": "uint256",
          "name": "_y",
          "type": "uint256"
        }
      ],
      "name": "createLaboratory",
      "outputs": [],
      "payable": false,
      "stateMutability": "nonpayable",
      "type": "function"
    },
    {
      "constant": false,
      "inputs": [
        {
          "internalType": "address",
          "name": "_owner",
          "type": "address"
        }
      ],
      "name": "_updateLaboratory",
      "outputs": [],
      "payable": false,
      "stateMutability": "nonpayable",
      "type": "function"
    },
    {
      "constant": false,
      "inputs": [
        {
          "internalType": "address",
          "name": "_owner",
          "type": "address"
        }
      ],
      "name": "upgradeSoldier",
      "outputs": [],
      "payable": false,
      "stateMutability": "nonpayable",
      "type": "function"
    },
    {
      "constant": false,
      "inputs": [
        {
          "internalType": "address",
          "name": "_owner",
          "type": "address"
        }
      ],
      "name": "upgradeProtector",
      "outputs": [],
      "payable": false,
      "stateMutability": "nonpayable",
      "type": "function"
    },
    {
      "constant": false,
      "inputs": [
        {
          "internalType": "address",
          "name": "_owner",
          "type": "address"
        }
      ],
      "name": "upgradeCannon",
      "outputs": [],
      "payable": false,
      "stateMutability": "nonpayable",
      "type": "function"
    },
    {
      "constant": false,
      "inputs": [
        {
          "internalType": "address",
          "name": "_owner",
          "type": "address"
        }
      ],
      "name": "upgradeSpy",
      "outputs": [],
      "payable": false,
      "stateMutability": "nonpayable",
      "type": "function"
    }
  ],
  "bytecode": "0x608060405234801561001057600080fd5b5060405161191e38038061191e833981810160405260a081101561003357600080fd5b810190808051906020019092919080519060200190929190805190602001909291908051906020019092919080519060200190929190505050846000806101000a81548173ffffffffffffffffffffffffffffffffffffffff021916908373ffffffffffffffffffffffffffffffffffffffff16021790555083600160006101000a81548173ffffffffffffffffffffffffffffffffffffffff021916908373ffffffffffffffffffffffffffffffffffffffff16021790555082600460006101000a81548173ffffffffffffffffffffffffffffffffffffffff021916908373ffffffffffffffffffffffffffffffffffffffff16021790555080600260006101000a81548173ffffffffffffffffffffffffffffffffffffffff021916908373ffffffffffffffffffffffffffffffffffffffff16021790555081600360006101000a81548173ffffffffffffffffffffffffffffffffffffffff021916908373ffffffffffffffffffffffffffffffffffffffff160217905550505050505061175a806101c46000396000f3fe608060405234801561001057600080fd5b506004361061007d5760003560e01c80639dc298f41161005b5780639dc298f414610156578063c1cf7ebc1461019a578063f2ff9deb146101de578063f9587279146102225761007d565b806337237970146100825780635daa950b146100ba5780638bb6efc5146100fe575b600080fd5b6100b86004803603604081101561009857600080fd5b810190808035906020019092919080359060200190929190505050610266565b005b6100fc600480360360208110156100d057600080fd5b81019080803573ffffffffffffffffffffffffffffffffffffffff169060200190929190505050610398565b005b6101406004803603602081101561011457600080fd5b81019080803573ffffffffffffffffffffffffffffffffffffffff169060200190929190505050610772565b6040518082815260200191505060405180910390f35b6101986004803603602081101561016c57600080fd5b81019080803573ffffffffffffffffffffffffffffffffffffffff16906020019092919050505061078a565b005b6101dc600480360360208110156101b057600080fd5b81019080803573ffffffffffffffffffffffffffffffffffffffff169060200190929190505050610b64565b005b610220600480360360208110156101f457600080fd5b81019080803573ffffffffffffffffffffffffffffffffffffffff169060200190929190505050610f3e565b005b6102646004803603602081101561023857600080fd5b81019080803573ffffffffffffffffffffffffffffffffffffffff16906020019092919050505061123b565b005b6000809054906101000a900473ffffffffffffffffffffffffffffffffffffffff1673ffffffffffffffffffffffffffffffffffffffff166321241b3f3384846040518463ffffffff1660e01b8152600401808473ffffffffffffffffffffffffffffffffffffffff1673ffffffffffffffffffffffffffffffffffffffff168152602001806020018481526020018381526020018281038252600a8152602001807f4c61626f7261746f727900000000000000000000000000000000000000000000815250602001945050505050602060405180830381600087803b15801561034f57600080fd5b505af1158015610363573d6000803e3d6000fd5b505050506040513d602081101561037957600080fd5b81019080805190602001909291905050505061039433610f3e565b5050565b60606000809054906101000a900473ffffffffffffffffffffffffffffffffffffffff1673ffffffffffffffffffffffffffffffffffffffff16632c79c523836040518263ffffffff1660e01b8152600401808273ffffffffffffffffffffffffffffffffffffffff1673ffffffffffffffffffffffffffffffffffffffff168152602001806020018281038252600a8152602001807f4c61626f7261746f7279000000000000000000000000000000000000000000008152506020019250505060006040518083038186803b15801561047157600080fd5b505afa158015610485573d6000803e3d6000fd5b505050506040513d6000823e3d601f19601f8201168201806040525060208110156104af57600080fd5b81019080805160405193929190846401000000008211156104cf57600080fd5b838201915060208201858111156104e557600080fd5b825186602082028301116401000000008211171561050257600080fd5b8083526020830192505050908051906020019060200280838360005b8381101561053957808201518184015260208101905061051e565b5050505090500160405250505090506000600560008473ffffffffffffffffffffffffffffffffffffffff1673ffffffffffffffffffffffffffffffffffffffff168152602001908152602001600020541480610597575060008151145b156105e65742600560008473ffffffffffffffffffffffffffffffffffffffff1673ffffffffffffffffffffffffffffffffffffffff168152602001908152602001600020819055505061076f565b600061063d600a600560008673ffffffffffffffffffffffffffffffffffffffff1673ffffffffffffffffffffffffffffffffffffffff16815260200190815260200160002054420361161590919063ffffffff16565b905080600a02600560008573ffffffffffffffffffffffffffffffffffffffff1673ffffffffffffffffffffffffffffffffffffffff16815260200190815260200160002060008282540192505081905550600260009054906101000a900473ffffffffffffffffffffffffffffffffffffffff1673ffffffffffffffffffffffffffffffffffffffff1663348fa346846040518263ffffffff1660e01b8152600401808273ffffffffffffffffffffffffffffffffffffffff1673ffffffffffffffffffffffffffffffffffffffff168152602001915050602060405180830381600087803b15801561073057600080fd5b505af1158015610744573d6000803e3d6000fd5b505050506040513d602081101561075a57600080fd5b81019080805190602001909291905050505050505b50565b60056020528060005260406000206000915090505481565b60606000809054906101000a900473ffffffffffffffffffffffffffffffffffffffff1673ffffffffffffffffffffffffffffffffffffffff16632c79c523836040518263ffffffff1660e01b8152600401808273ffffffffffffffffffffffffffffffffffffffff1673ffffffffffffffffffffffffffffffffffffffff168152602001806020018281038252600a8152602001807f4c61626f7261746f7279000000000000000000000000000000000000000000008152506020019250505060006040518083038186803b15801561086357600080fd5b505afa158015610877573d6000803e3d6000fd5b505050506040513d6000823e3d601f19601f8201168201806040525060208110156108a157600080fd5b81019080805160405193929190846401000000008211156108c157600080fd5b838201915060208201858111156108d757600080fd5b82518660208202830111640100000000821117156108f457600080fd5b8083526020830192505050908051906020019060200280838360005b8381101561092b578082015181840152602081019050610910565b5050505090500160405250505090506000600560008473ffffffffffffffffffffffffffffffffffffffff1673ffffffffffffffffffffffffffffffffffffffff168152602001908152602001600020541480610989575060008151145b156109d85742600560008473ffffffffffffffffffffffffffffffffffffffff1673ffffffffffffffffffffffffffffffffffffffff1681526020019081526020016000208190555050610b61565b6000610a2f600a600560008673ffffffffffffffffffffffffffffffffffffffff1673ffffffffffffffffffffffffffffffffffffffff16815260200190815260200160002054420361161590919063ffffffff16565b905080600a02600560008573ffffffffffffffffffffffffffffffffffffffff1673ffffffffffffffffffffffffffffffffffffffff16815260200190815260200160002060008282540192505081905550600160009054906101000a900473ffffffffffffffffffffffffffffffffffffffff1673ffffffffffffffffffffffffffffffffffffffff166386d327ef846040518263ffffffff1660e01b8152600401808273ffffffffffffffffffffffffffffffffffffffff1673ffffffffffffffffffffffffffffffffffffffff168152602001915050602060405180830381600087803b158015610b2257600080fd5b505af1158015610b36573d6000803e3d6000fd5b505050506040513d6020811015610b4c57600080fd5b81019080805190602001909291905050505050505b50565b60606000809054906101000a900473ffffffffffffffffffffffffffffffffffffffff1673ffffffffffffffffffffffffffffffffffffffff16632c79c523836040518263ffffffff1660e01b8152600401808273ffffffffffffffffffffffffffffffffffffffff1673ffffffffffffffffffffffffffffffffffffffff168152602001806020018281038252600a8152602001807f4c61626f7261746f7279000000000000000000000000000000000000000000008152506020019250505060006040518083038186803b158015610c3d57600080fd5b505afa158015610c51573d6000803e3d6000fd5b505050506040513d6000823e3d601f19601f820116820180604052506020811015610c7b57600080fd5b8101908080516040519392919084640100000000821115610c9b57600080fd5b83820191506020820185811115610cb157600080fd5b8251866020820283011164010000000082111715610cce57600080fd5b8083526020830192505050908051906020019060200280838360005b83811015610d05578082015181840152602081019050610cea565b5050505090500160405250505090506000600560008473ffffffffffffffffffffffffffffffffffffffff1673ffffffffffffffffffffffffffffffffffffffff168152602001908152602001600020541480610d63575060008151145b15610db25742600560008473ffffffffffffffffffffffffffffffffffffffff1673ffffffffffffffffffffffffffffffffffffffff1681526020019081526020016000208190555050610f3b565b6000610e09600a600560008673ffffffffffffffffffffffffffffffffffffffff1673ffffffffffffffffffffffffffffffffffffffff16815260200190815260200160002054420361161590919063ffffffff16565b905080600a02600560008573ffffffffffffffffffffffffffffffffffffffff1673ffffffffffffffffffffffffffffffffffffffff16815260200190815260200160002060008282540192505081905550600360009054906101000a900473ffffffffffffffffffffffffffffffffffffffff1673ffffffffffffffffffffffffffffffffffffffff166355d7b68c846040518263ffffffff1660e01b8152600401808273ffffffffffffffffffffffffffffffffffffffff1673ffffffffffffffffffffffffffffffffffffffff168152602001915050602060405180830381600087803b158015610efc57600080fd5b505af1158015610f10573d6000803e3d6000fd5b505050506040513d6020811015610f2657600080fd5b81019080805190602001909291905050505050505b50565b60606000809054906101000a900473ffffffffffffffffffffffffffffffffffffffff1673ffffffffffffffffffffffffffffffffffffffff16632c79c523836040518263ffffffff1660e01b8152600401808273ffffffffffffffffffffffffffffffffffffffff1673ffffffffffffffffffffffffffffffffffffffff168152602001806020018281038252600a8152602001807f4c61626f7261746f7279000000000000000000000000000000000000000000008152506020019250505060006040518083038186803b15801561101757600080fd5b505afa15801561102b573d6000803e3d6000fd5b505050506040513d6000823e3d601f19601f82011682018060405250602081101561105557600080fd5b810190808051604051939291908464010000000082111561107557600080fd5b8382019150602082018581111561108b57600080fd5b82518660208202830111640100000000821117156110a857600080fd5b8083526020830192505050908051906020019060200280838360005b838110156110df5780820151818401526020810190506110c4565b5050505090500160405250505090506000600560008473ffffffffffffffffffffffffffffffffffffffff1673ffffffffffffffffffffffffffffffffffffffff16815260200190815260200160002054148061113d575060008151145b1561118c5742600560008473ffffffffffffffffffffffffffffffffffffffff1673ffffffffffffffffffffffffffffffffffffffff1681526020019081526020016000208190555050611238565b60006111e3600a600560008673ffffffffffffffffffffffffffffffffffffffff1673ffffffffffffffffffffffffffffffffffffffff16815260200190815260200160002054420361161590919063ffffffff16565b905080600a02600560008573ffffffffffffffffffffffffffffffffffffffff1673ffffffffffffffffffffffffffffffffffffffff1681526020019081526020016000206000828254019250508190555050505b50565b60606000809054906101000a900473ffffffffffffffffffffffffffffffffffffffff1673ffffffffffffffffffffffffffffffffffffffff16632c79c523836040518263ffffffff1660e01b8152600401808273ffffffffffffffffffffffffffffffffffffffff1673ffffffffffffffffffffffffffffffffffffffff168152602001806020018281038252600a8152602001807f4c61626f7261746f7279000000000000000000000000000000000000000000008152506020019250505060006040518083038186803b15801561131457600080fd5b505afa158015611328573d6000803e3d6000fd5b505050506040513d6000823e3d601f19601f82011682018060405250602081101561135257600080fd5b810190808051604051939291908464010000000082111561137257600080fd5b8382019150602082018581111561138857600080fd5b82518660208202830111640100000000821117156113a557600080fd5b8083526020830192505050908051906020019060200280838360005b838110156113dc5780820151818401526020810190506113c1565b5050505090500160405250505090506000600560008473ffffffffffffffffffffffffffffffffffffffff1673ffffffffffffffffffffffffffffffffffffffff16815260200190815260200160002054148061143a575060008151145b156114895742600560008473ffffffffffffffffffffffffffffffffffffffff1673ffffffffffffffffffffffffffffffffffffffff1681526020019081526020016000208190555050611612565b60006114e0600a600560008673ffffffffffffffffffffffffffffffffffffffff1673ffffffffffffffffffffffffffffffffffffffff16815260200190815260200160002054420361161590919063ffffffff16565b905080600a02600560008573ffffffffffffffffffffffffffffffffffffffff1673ffffffffffffffffffffffffffffffffffffffff16815260200190815260200160002060008282540192505081905550600460009054906101000a900473ffffffffffffffffffffffffffffffffffffffff1673ffffffffffffffffffffffffffffffffffffffff1663cf44ac64846040518263ffffffff1660e01b8152600401808273ffffffffffffffffffffffffffffffffffffffff1673ffffffffffffffffffffffffffffffffffffffff168152602001915050602060405180830381600087803b1580156115d357600080fd5b505af11580156115e7573d6000803e3d6000fd5b505050506040513d60208110156115fd57600080fd5b81019080805190602001909291905050505050505b50565b600061165783836040518060400160405280601a81526020017f536166654d6174683a206469766973696f6e206279207a65726f00000000000081525061165f565b905092915050565b6000808311829061170b576040517f08c379a00000000000000000000000000000000000000000000000000000000081526004018080602001828103825283818151815260200191508051906020019080838360005b838110156116d05780820151818401526020810190506116b5565b50505050905090810190601f1680156116fd5780820380516001836020036101000a031916815260200191505b509250505060405180910390fd5b50600083858161171757fe5b04905080915050939250505056fea265627a7a72315820fb97c3cbd60bceb6c36cc7cdb8968e6b4b9ea1d0a65f9a937605753f6df8899464736f6c63430005100032",
  "source": "pragma solidity >=0.4.21 <0.7.0;\n\nimport \"./SafeMath.sol\";\nimport \"./BuildingFactory.sol\";\nimport \"./Soldier.sol\";\nimport \"./Spy.sol\";\nimport \"./Cannon.sol\";\nimport \"./Protector.sol\";\n\ncontract Laboratory {\n    \n    using SafeMath for uint;\n    \n    // Account accountInstance;\n    BuildingFactory buildingInstance;\n    Soldier soldierInstance;\n    Protector ProtectorInstance;\n    Cannon CannonInstance;\n    Spy SpyInstance;\n    constructor(address _building_address, address _soldier_address, address _spy_instance, address _cannon_instance, address _protector_instance) public {\n        buildingInstance = BuildingFactory(_building_address);\n        soldierInstance = Soldier(_soldier_address);\n        SpyInstance = Spy(_spy_instance);\n        ProtectorInstance = Protector(_protector_instance);\n        CannonInstance = Cannon(_cannon_instance);\n    }\n    \n    mapping (address => uint) public ownerLabProduceTime;\n\n\n    function createLaboratory(uint _x, uint _y) public {\n        buildingInstance._createBuilding(msg.sender, \"Laboratory\", _x, _y);\n        _updateLaboratory(msg.sender);\n    }\n\n    function _updateLaboratory(address _owner) public {\n        uint[] memory labs = buildingInstance.getSpecificBuildingByOwner(_owner, \"Laboratory\");\n        if (ownerLabProduceTime[_owner] == 0 || labs.length == 0) {\n            ownerLabProduceTime[_owner] = now;\n            return;\n        }\n        uint periodCounts = (now - ownerLabProduceTime[_owner]).div(10 seconds);\n        // uint produceAbilitySum = 0;\n        // for (uint i=0; i<farms.length; i++) {\n        //     produceAbilitySum += buildingInstance.getBuildingLevel(labs[i]) * produceLabAbility;\n        // }\n        // accountInstance.setLabOwnerCount(_owner, accountInstance.getFoodOwnerCount(_owner) + periodCounts * produceAbilitySum);\n        ownerLabProduceTime[_owner] += 10 * periodCounts;\n    }\n\n\n    function upgradeSoldier(address _owner) public {\n        uint[] memory labs = buildingInstance.getSpecificBuildingByOwner(_owner, \"Laboratory\");\n        if (ownerLabProduceTime[_owner] == 0 || labs.length == 0) {\n            ownerLabProduceTime[_owner] = now;\n            return;\n        }\n        uint periodCounts = (now - ownerLabProduceTime[_owner]).div(10 seconds);\n        ownerLabProduceTime[_owner] += 10 * periodCounts;\n        soldierInstance._upgradeSoldier(_owner);\n    }\n\n    function upgradeProtector(address _owner) public {\n        uint[] memory labs = buildingInstance.getSpecificBuildingByOwner(_owner, \"Laboratory\");\n        if (ownerLabProduceTime[_owner] == 0 || labs.length == 0) {\n            ownerLabProduceTime[_owner] = now;\n            return;\n        }\n        uint periodCounts = (now - ownerLabProduceTime[_owner]).div(10 seconds);\n        ownerLabProduceTime[_owner] += 10 * periodCounts;\n        ProtectorInstance._upgradeProtector(_owner);\n    }\n\n    function upgradeCannon(address _owner) public {\n        uint[] memory labs = buildingInstance.getSpecificBuildingByOwner(_owner, \"Laboratory\");\n        if (ownerLabProduceTime[_owner] == 0 || labs.length == 0) {\n            ownerLabProduceTime[_owner] = now;\n            return;\n        }\n        uint periodCounts = (now - ownerLabProduceTime[_owner]).div(10 seconds);\n        ownerLabProduceTime[_owner] += 10 * periodCounts;\n        CannonInstance._upgradeCannon(_owner);\n    }\n\n    function upgradeSpy(address _owner) public {\n        uint[] memory labs = buildingInstance.getSpecificBuildingByOwner(_owner, \"Laboratory\");\n        if (ownerLabProduceTime[_owner] == 0 || labs.length == 0) {\n            ownerLabProduceTime[_owner] = now;\n            return;\n        }\n        uint periodCounts = (now - ownerLabProduceTime[_owner]).div(10 seconds);\n        ownerLabProduceTime[_owner] += 10 * periodCounts;\n        SpyInstance._upgradeSpy(_owner);\n    }\n\n    // function upgradeSoldier(address _owner) public {\n    //     soldierInstance._upgradeSoldier(_owner);\n    // }\n\n    // function upgradeProtector(address _owner) public {\n    //     ProtectorInstance._upgradeProtector(_owner);\n    // }\n\n    // function upgradeCannon(address _owner) public {\n    //     CannonInstance._upgradeCannon(_owner);\n    // }\n\n    // function upgradeSpy(address _owner) public {\n    //     SpyInstance._upgradeSpy(_owner);\n    // }\n\n    \n\n\n\n    // return 0 if failed (maybe already creating or not enough resource) otherwise return createtime\n    // function startCreateSpy(uint number) public returns(uint) {\n    //     address _owner = msg.sender;\n    //     if(ownerStartCreateTime[_owner] != 0) return uint(0); // check if there is already creating Spys\n    //     bool enoughResource;\n    //     uint lvOfSpy;\n    //     enoughResource = _createSpy(_owner, number);\n    //     lvOfSpy =  levelOfSpy[_owner];\n    //     if(enoughResource == false) return uint(0);\n    //     ownerStartCreateTime[_owner] = uint(now);\n    //     ownerCreateSpyTime[_owner] = createSpyTime * lvOfSpy * number;\n    //     return ownerCreateSpyTime[_owner];\n    // }\n\n    // function getCreateSpyTime() public view returns(uint, uint) {\n    //     return ( now - ownerStartCreateTime[msg.sender], ownerCreateSpyTime[msg.sender] ) ;\n    // }\n\n    // // // return 0 if success else return remaining time\n    // function updateCreateSpy(address _owner) public returns(uint) {\n    //     if (ownerStartCreateTime[_owner] == 0) return 0;\n    //     if (now >= ownerStartCreateTime[_owner].add(ownerCreateSpyTime[_owner])) {\n    //         uint num;\n    //         num = ownerCreateSpyTime[_owner].div(  levelOfSpy[_owner].mul(createSpyTime) );\n    //         numOfSpy[_owner] = numOfSpy[_owner] + (num);\n    //         ownerStartCreateTime[_owner] = 0;\n    //         ownerCreateSpyTime[_owner] = 0;\n    //         _updateSpyPower(_owner);\n    //         return 0;\n    //     }\n    //     else {\n    //         uint remainingTime = (ownerStartCreateTime[_owner] + ownerCreateSpyTime[_owner]).sub(now);\n    //         return remainingTime;\n    //     }\n    // }\n}",
  "sourcePath": "/Users/seanwang0823/NMLab_Final/contracts/Laboratory.sol",
  "compiler": {
    "name": "solc",
    "version": "0.5.16+commit.9c3226ce.Emscripten.clang"
  },
  "schemaVersion": "3.4.0",
  "updatedAt": "2021-06-08T03:19:59.602Z",
  "networkType": "ethereum",
  "devdoc": {
    "methods": {}
  },
  "userdoc": {
    "methods": {}
  }
}