{
  "contractName": "Laboratory",
  "abi": [
    {
      "inputs": [
        {
          "internalType": "address",
          "name": "_building_address",
          "type": "address"
        }
      ],
      "payable": false,
      "stateMutability": "nonpayable",
      "type": "constructor"
    },
    {
      "constant": true,
      "inputs": [],
      "name": "labAbility",
      "outputs": [
        {
          "internalType": "uint256",
          "name": "",
          "type": "uint256"
        }
      ],
      "payable": false,
      "stateMutability": "view",
      "type": "function"
    },
    {
      "constant": true,
      "inputs": [
        {
          "internalType": "address",
          "name": "",
          "type": "address"
        }
      ],
      "name": "ownerLabProduceTime",
      "outputs": [
        {
          "internalType": "uint256",
          "name": "",
          "type": "uint256"
        }
      ],
      "payable": false,
      "stateMutability": "view",
      "type": "function"
    },
    {
      "constant": false,
      "inputs": [
        {
          "internalType": "uint256",
          "name": "_x",
          "type": "uint256"
        },
        {
          "internalType": "uint256",
          "name": "_y",
          "type": "uint256"
        }
      ],
      "name": "createLaboratory",
      "outputs": [],
      "payable": false,
      "stateMutability": "nonpayable",
      "type": "function"
    },
    {
      "constant": false,
      "inputs": [
        {
          "internalType": "address",
          "name": "_owner",
          "type": "address"
        }
      ],
      "name": "_updateLaboratory",
      "outputs": [],
      "payable": false,
      "stateMutability": "nonpayable",
      "type": "function"
    }
  ],
  "bytecode": "0x6080604052600160025534801561001557600080fd5b5060405161077f38038061077f8339818101604052602081101561003857600080fd5b8101908080519060200190929190505050806000806101000a81548173ffffffffffffffffffffffffffffffffffffffff021916908373ffffffffffffffffffffffffffffffffffffffff160217905550506106e6806100996000396000f3fe608060405234801561001057600080fd5b506004361061004c5760003560e01c806337237970146100515780638bb6efc514610089578063a57c6f0d146100e1578063f2ff9deb146100ff575b600080fd5b6100876004803603604081101561006757600080fd5b810190808035906020019092919080359060200190929190505050610143565b005b6100cb6004803603602081101561009f57600080fd5b81019080803573ffffffffffffffffffffffffffffffffffffffff169060200190929190505050610275565b6040518082815260200191505060405180910390f35b6100e961028d565b6040518082815260200191505060405180910390f35b6101416004803603602081101561011557600080fd5b81019080803573ffffffffffffffffffffffffffffffffffffffff169060200190929190505050610293565b005b6000809054906101000a900473ffffffffffffffffffffffffffffffffffffffff1673ffffffffffffffffffffffffffffffffffffffff166321241b3f3384846040518463ffffffff1660e01b8152600401808473ffffffffffffffffffffffffffffffffffffffff1673ffffffffffffffffffffffffffffffffffffffff168152602001806020018481526020018381526020018281038252600a8152602001807f4c61626f7261746f727900000000000000000000000000000000000000000000815250602001945050505050602060405180830381600087803b15801561022c57600080fd5b505af1158015610240573d6000803e3d6000fd5b505050506040513d602081101561025657600080fd5b81019080805190602001909291905050505061027133610293565b5050565b60016020528060005260406000206000915090505481565b60025481565b60606000809054906101000a900473ffffffffffffffffffffffffffffffffffffffff1673ffffffffffffffffffffffffffffffffffffffff16632c79c523836040518263ffffffff1660e01b8152600401808273ffffffffffffffffffffffffffffffffffffffff1673ffffffffffffffffffffffffffffffffffffffff168152602001806020018281038252600a8152602001807f4c61626f7261746f7279000000000000000000000000000000000000000000008152506020019250505060006040518083038186803b15801561036c57600080fd5b505afa158015610380573d6000803e3d6000fd5b505050506040513d6000823e3d601f19601f8201168201806040525060208110156103aa57600080fd5b81019080805160405193929190846401000000008211156103ca57600080fd5b838201915060208201858111156103e057600080fd5b82518660208202830111640100000000821117156103fd57600080fd5b8083526020830192505050908051906020019060200280838360005b83811015610434578082015181840152602081019050610419565b5050505090500160405250505090506000600160008473ffffffffffffffffffffffffffffffffffffffff1673ffffffffffffffffffffffffffffffffffffffff168152602001908152602001600020541480610492575060008151145b156104e15742600160008473ffffffffffffffffffffffffffffffffffffffff1673ffffffffffffffffffffffffffffffffffffffff168152602001908152602001600020819055505061059e565b6000610538600a600160008673ffffffffffffffffffffffffffffffffffffffff1673ffffffffffffffffffffffffffffffffffffffff1681526020019081526020016000205442036105a190919063ffffffff16565b905080600a02600160008573ffffffffffffffffffffffffffffffffffffffff1673ffffffffffffffffffffffffffffffffffffffff16815260200190815260200160002060008282540192505081905550600160026000828254019250508190555050505b50565b60006105e383836040518060400160405280601a81526020017f536166654d6174683a206469766973696f6e206279207a65726f0000000000008152506105eb565b905092915050565b60008083118290610697576040517f08c379a00000000000000000000000000000000000000000000000000000000081526004018080602001828103825283818151815260200191508051906020019080838360005b8381101561065c578082015181840152602081019050610641565b50505050905090810190601f1680156106895780820380516001836020036101000a031916815260200191505b509250505060405180910390fd5b5060008385816106a357fe5b04905080915050939250505056fea265627a7a72315820f424516fbeeb1cf3e2a167855e4b200393089bebfaa40c1696235c02623d6a3464736f6c63430005100032",
  "source": "pragma solidity >=0.4.21 <0.7.0;\n\nimport \"./SafeMath.sol\";\nimport \"./BuildingFactory.sol\";\n\ncontract Laboratory {\n    \n    using SafeMath for uint;\n    \n    // Account accountInstance;\n    BuildingFactory buildingInstance;\n    constructor(address _building_address) public {\n        // accountInstance = Account(_account_address);\n        buildingInstance = BuildingFactory(_building_address);\n    }\n    \n    mapping (address => uint) public ownerLabProduceTime;\n    uint public labAbility = 1;\n\n    function createLaboratory(uint _x, uint _y) public {\n        buildingInstance._createBuilding(msg.sender, \"Laboratory\", _x, _y);\n        _updateLaboratory(msg.sender);\n    }\n\n\n    function _updateLaboratory(address _owner) public {\n        uint[] memory labs = buildingInstance.getSpecificBuildingByOwner(_owner, \"Laboratory\");\n        if (ownerLabProduceTime[_owner] == 0 || labs.length == 0) {\n            ownerLabProduceTime[_owner] = now;\n            return;\n        }\n        uint periodCounts = (now - ownerLabProduceTime[_owner]).div(10 seconds);\n        // uint produceAbilitySum = 0;\n        // for (uint i=0; i<farms.length; i++) {\n        //     produceAbilitySum += buildingInstance.getBuildingLevel(labs[i]) * produceLabAbility;\n        // }\n        // accountInstance.setLabOwnerCount(_owner, accountInstance.getFoodOwnerCount(_owner) + periodCounts * produceAbilitySum);\n        ownerLabProduceTime[_owner] += 10 * periodCounts;\n        labAbility += 1;\n    }\n\n\n\n    // return 0 if failed (maybe already creating or not enough resource) otherwise return createtime\n    // function startCreateSpy(uint number) public returns(uint) {\n    //     address _owner = msg.sender;\n    //     if(ownerStartCreateTime[_owner] != 0) return uint(0); // check if there is already creating Spys\n    //     bool enoughResource;\n    //     uint lvOfSpy;\n    //     enoughResource = _createSpy(_owner, number);\n    //     lvOfSpy =  levelOfSpy[_owner];\n    //     if(enoughResource == false) return uint(0);\n    //     ownerStartCreateTime[_owner] = uint(now);\n    //     ownerCreateSpyTime[_owner] = createSpyTime * lvOfSpy * number;\n    //     return ownerCreateSpyTime[_owner];\n    // }\n\n    // function getCreateSpyTime() public view returns(uint, uint) {\n    //     return ( now - ownerStartCreateTime[msg.sender], ownerCreateSpyTime[msg.sender] ) ;\n    // }\n\n    // // // return 0 if success else return remaining time\n    // function updateCreateSpy(address _owner) public returns(uint) {\n    //     if (ownerStartCreateTime[_owner] == 0) return 0;\n    //     if (now >= ownerStartCreateTime[_owner].add(ownerCreateSpyTime[_owner])) {\n    //         uint num;\n    //         num = ownerCreateSpyTime[_owner].div(  levelOfSpy[_owner].mul(createSpyTime) );\n    //         numOfSpy[_owner] = numOfSpy[_owner] + (num);\n    //         ownerStartCreateTime[_owner] = 0;\n    //         ownerCreateSpyTime[_owner] = 0;\n    //         _updateSpyPower(_owner);\n    //         return 0;\n    //     }\n    //     else {\n    //         uint remainingTime = (ownerStartCreateTime[_owner] + ownerCreateSpyTime[_owner]).sub(now);\n    //         return remainingTime;\n    //     }\n    // }\n}",
  "sourcePath": "/Users/seanwang0823/NMLab_Final/contracts/Laboratory.sol",
  "compiler": {
    "name": "solc",
    "version": "0.5.16+commit.9c3226ce.Emscripten.clang"
  },
  "schemaVersion": "3.4.0",
  "updatedAt": "2021-06-07T08:54:40.847Z",
  "networkType": "ethereum",
  "devdoc": {
    "methods": {}
  },
  "userdoc": {
    "methods": {}
  }
}