{
  "contractName": "Laboratory",
  "abi": [
    {
      "inputs": [
        {
          "internalType": "address",
          "name": "_building_address",
          "type": "address"
        },
        {
          "internalType": "address",
          "name": "_soldier_address",
          "type": "address"
        },
        {
          "internalType": "address",
          "name": "_spy_instance",
          "type": "address"
        },
        {
          "internalType": "address",
          "name": "_cannon_instance",
          "type": "address"
        },
        {
          "internalType": "address",
          "name": "_protector_instance",
          "type": "address"
        }
      ],
      "payable": false,
      "stateMutability": "nonpayable",
      "type": "constructor"
    },
    {
      "constant": true,
      "inputs": [
        {
          "internalType": "address",
          "name": "",
          "type": "address"
        }
      ],
      "name": "ownerLabProduceTime",
      "outputs": [
        {
          "internalType": "uint256",
          "name": "",
          "type": "uint256"
        }
      ],
      "payable": false,
      "stateMutability": "view",
      "type": "function"
    },
    {
      "constant": false,
      "inputs": [
        {
          "internalType": "uint256",
          "name": "_x",
          "type": "uint256"
        },
        {
          "internalType": "uint256",
          "name": "_y",
          "type": "uint256"
        }
      ],
      "name": "createLaboratory",
      "outputs": [],
      "payable": false,
      "stateMutability": "nonpayable",
      "type": "function"
    },
    {
      "constant": false,
      "inputs": [
        {
          "internalType": "address",
          "name": "_owner",
          "type": "address"
        }
      ],
      "name": "_updateLaboratory",
      "outputs": [],
      "payable": false,
      "stateMutability": "nonpayable",
      "type": "function"
    },
    {
      "constant": false,
      "inputs": [],
      "name": "startUpgradeSoldier",
      "outputs": [
        {
          "internalType": "uint256",
          "name": "",
          "type": "uint256"
        }
      ],
      "payable": false,
      "stateMutability": "nonpayable",
      "type": "function"
    },
    {
      "constant": true,
      "inputs": [],
      "name": "getUpgradeSoldierTime",
      "outputs": [
        {
          "internalType": "uint256",
          "name": "",
          "type": "uint256"
        },
        {
          "internalType": "uint256",
          "name": "",
          "type": "uint256"
        }
      ],
      "payable": false,
      "stateMutability": "view",
      "type": "function"
    },
    {
      "constant": false,
      "inputs": [
        {
          "internalType": "address",
          "name": "_owner",
          "type": "address"
        }
      ],
      "name": "updateUpgradeSoldier",
      "outputs": [
        {
          "internalType": "uint256",
          "name": "",
          "type": "uint256"
        }
      ],
      "payable": false,
      "stateMutability": "nonpayable",
      "type": "function"
    },
    {
      "constant": false,
      "inputs": [],
      "name": "startUpgradeProtector",
      "outputs": [
        {
          "internalType": "uint256",
          "name": "",
          "type": "uint256"
        }
      ],
      "payable": false,
      "stateMutability": "nonpayable",
      "type": "function"
    },
    {
      "constant": true,
      "inputs": [],
      "name": "getUpgradeProtectorTime",
      "outputs": [
        {
          "internalType": "uint256",
          "name": "",
          "type": "uint256"
        },
        {
          "internalType": "uint256",
          "name": "",
          "type": "uint256"
        }
      ],
      "payable": false,
      "stateMutability": "view",
      "type": "function"
    },
    {
      "constant": false,
      "inputs": [
        {
          "internalType": "address",
          "name": "_owner",
          "type": "address"
        }
      ],
      "name": "updateUpgradeProtector",
      "outputs": [
        {
          "internalType": "uint256",
          "name": "",
          "type": "uint256"
        }
      ],
      "payable": false,
      "stateMutability": "nonpayable",
      "type": "function"
    },
    {
      "constant": false,
      "inputs": [],
      "name": "startUpgradeCannon",
      "outputs": [
        {
          "internalType": "uint256",
          "name": "",
          "type": "uint256"
        }
      ],
      "payable": false,
      "stateMutability": "nonpayable",
      "type": "function"
    },
    {
      "constant": true,
      "inputs": [],
      "name": "getUpgradeCannonTime",
      "outputs": [
        {
          "internalType": "uint256",
          "name": "",
          "type": "uint256"
        },
        {
          "internalType": "uint256",
          "name": "",
          "type": "uint256"
        }
      ],
      "payable": false,
      "stateMutability": "view",
      "type": "function"
    },
    {
      "constant": false,
      "inputs": [
        {
          "internalType": "address",
          "name": "_owner",
          "type": "address"
        }
      ],
      "name": "updateUpgradeCannon",
      "outputs": [
        {
          "internalType": "uint256",
          "name": "",
          "type": "uint256"
        }
      ],
      "payable": false,
      "stateMutability": "nonpayable",
      "type": "function"
    },
    {
      "constant": false,
      "inputs": [],
      "name": "startUpgradeSpy",
      "outputs": [
        {
          "internalType": "uint256",
          "name": "",
          "type": "uint256"
        }
      ],
      "payable": false,
      "stateMutability": "nonpayable",
      "type": "function"
    },
    {
      "constant": true,
      "inputs": [],
      "name": "getUpgradeSpyTime",
      "outputs": [
        {
          "internalType": "uint256",
          "name": "",
          "type": "uint256"
        },
        {
          "internalType": "uint256",
          "name": "",
          "type": "uint256"
        }
      ],
      "payable": false,
      "stateMutability": "view",
      "type": "function"
    },
    {
      "constant": false,
      "inputs": [
        {
          "internalType": "address",
          "name": "_owner",
          "type": "address"
        }
      ],
      "name": "updateUpgradeSpy",
      "outputs": [
        {
          "internalType": "uint256",
          "name": "",
          "type": "uint256"
        }
      ],
      "payable": false,
      "stateMutability": "nonpayable",
      "type": "function"
    }
  ],
  "bytecode": "0x60806040523480156200001157600080fd5b50604051620057bc380380620057bc833981810160405260a08110156200003757600080fd5b810190808051906020019092919080519060200190929190805190602001909291908051906020019092919080519060200190929190505050846000806101000a81548173ffffffffffffffffffffffffffffffffffffffff021916908373ffffffffffffffffffffffffffffffffffffffff16021790555083600160006101000a81548173ffffffffffffffffffffffffffffffffffffffff021916908373ffffffffffffffffffffffffffffffffffffffff16021790555082600460006101000a81548173ffffffffffffffffffffffffffffffffffffffff021916908373ffffffffffffffffffffffffffffffffffffffff16021790555080600260006101000a81548173ffffffffffffffffffffffffffffffffffffffff021916908373ffffffffffffffffffffffffffffffffffffffff16021790555081600360006101000a81548173ffffffffffffffffffffffffffffffffffffffff021916908373ffffffffffffffffffffffffffffffffffffffff16021790555050505050506155f380620001c96000396000f3fe608060405234801561001057600080fd5b50600436106100f55760003560e01c80636213249111610097578063b9c7fb2c11610066578063b9c7fb2c1461035b578063be22457414610380578063e80be1801461039e578063f2ff9deb146103f6576100f5565b806362132491146102a25780638bb6efc5146102c75780639b6116ac1461031f578063a60e60ee1461033d576100f5565b806341499097116100d357806341499097146101a8578063456fc61d146102005780635509a92614610225578063616918cd1461027d576100f5565b80630b77bc2e146100fa5780632d4838ba146101525780633723797014610170575b600080fd5b61013c6004803603602081101561011057600080fd5b81019080803573ffffffffffffffffffffffffffffffffffffffff16906020019092919050505061043a565b6040518082815260200191505060405180910390f35b61015a610f26565b6040518082815260200191505060405180910390f35b6101a66004803603604081101561018657600080fd5b8101908080359060200190929190803590602001909291905050506114f6565b005b6101ea600480360360208110156101be57600080fd5b81019080803573ffffffffffffffffffffffffffffffffffffffff169060200190929190505050611628565b6040518082815260200191505060405180910390f35b610208612114565b604051808381526020018281526020019250505060405180910390f35b6102676004803603602081101561023b57600080fd5b81019080803573ffffffffffffffffffffffffffffffffffffffff1690602001909291905050506122d5565b6040518082815260200191505060405180910390f35b610285612dc1565b604051808381526020018281526020019250505060405180910390f35b6102aa612f82565b604051808381526020018281526020019250505060405180910390f35b610309600480360360208110156102dd57600080fd5b81019080803573ffffffffffffffffffffffffffffffffffffffff169060200190929190505050613143565b6040518082815260200191505060405180910390f35b61032761315b565b6040518082815260200191505060405180910390f35b61034561372b565b6040518082815260200191505060405180910390f35b610363613cfb565b604051808381526020018281526020019250505060405180910390f35b610388613ebc565b6040518082815260200191505060405180910390f35b6103e0600480360360208110156103b457600080fd5b81019080803573ffffffffffffffffffffffffffffffffffffffff16906020019092919050505061448c565b6040518082815260200191505060405180910390f35b6104386004803603602081101561040c57600080fd5b81019080803573ffffffffffffffffffffffffffffffffffffffff169060200190929190505050614f78565b005b600080600260009054906101000a900473ffffffffffffffffffffffffffffffffffffffff1673ffffffffffffffffffffffffffffffffffffffff166313306881846040518263ffffffff1660e01b8152600401808273ffffffffffffffffffffffffffffffffffffffff1673ffffffffffffffffffffffffffffffffffffffff16815260200191505060206040518083038186803b1580156104dc57600080fd5b505afa1580156104f0573d6000803e3d6000fd5b505050506040513d602081101561050657600080fd5b810190808051906020019092919050505014156105265760009050610f21565b6106eb600260009054906101000a900473ffffffffffffffffffffffffffffffffffffffff1673ffffffffffffffffffffffffffffffffffffffff16635fad0242846040518263ffffffff1660e01b8152600401808273ffffffffffffffffffffffffffffffffffffffff1673ffffffffffffffffffffffffffffffffffffffff16815260200191505060206040518083038186803b1580156105c857600080fd5b505afa1580156105dc573d6000803e3d6000fd5b505050506040513d60208110156105f257600080fd5b8101908080519060200190929190505050600260009054906101000a900473ffffffffffffffffffffffffffffffffffffffff1673ffffffffffffffffffffffffffffffffffffffff166313306881856040518263ffffffff1660e01b8152600401808273ffffffffffffffffffffffffffffffffffffffff1673ffffffffffffffffffffffffffffffffffffffff16815260200191505060206040518083038186803b1580156106a257600080fd5b505afa1580156106b6573d6000803e3d6000fd5b505050506040513d60208110156106cc57600080fd5b810190808051906020019092919050505061527590919063ffffffff16565b4210610d5157600061096c610884600260009054906101000a900473ffffffffffffffffffffffffffffffffffffffff1673ffffffffffffffffffffffffffffffffffffffff16636e35e1eb6040518163ffffffff1660e01b815260040160206040518083038186803b15801561076157600080fd5b505afa158015610775573d6000803e3d6000fd5b505050506040513d602081101561078b57600080fd5b8101908080519060200190929190505050600260009054906101000a900473ffffffffffffffffffffffffffffffffffffffff1673ffffffffffffffffffffffffffffffffffffffff1663b47711fa876040518263ffffffff1660e01b8152600401808273ffffffffffffffffffffffffffffffffffffffff1673ffffffffffffffffffffffffffffffffffffffff16815260200191505060206040518083038186803b15801561083b57600080fd5b505afa15801561084f573d6000803e3d6000fd5b505050506040513d602081101561086557600080fd5b81019080805190602001909291905050506152fd90919063ffffffff16565b600260009054906101000a900473ffffffffffffffffffffffffffffffffffffffff1673ffffffffffffffffffffffffffffffffffffffff16635fad0242866040518263ffffffff1660e01b8152600401808273ffffffffffffffffffffffffffffffffffffffff1673ffffffffffffffffffffffffffffffffffffffff16815260200191505060206040518083038186803b15801561092357600080fd5b505afa158015610937573d6000803e3d6000fd5b505050506040513d602081101561094d57600080fd5b810190808051906020019092919050505061538390919063ffffffff16565b9050600260009054906101000a900473ffffffffffffffffffffffffffffffffffffffff1673ffffffffffffffffffffffffffffffffffffffff1663dda0a3bf8483600260009054906101000a900473ffffffffffffffffffffffffffffffffffffffff1673ffffffffffffffffffffffffffffffffffffffff166332469342886040518263ffffffff1660e01b8152600401808273ffffffffffffffffffffffffffffffffffffffff1673ffffffffffffffffffffffffffffffffffffffff16815260200191505060206040518083038186803b158015610a4d57600080fd5b505afa158015610a61573d6000803e3d6000fd5b505050506040513d6020811015610a7757600080fd5b8101908080519060200190929190505050016040518363ffffffff1660e01b8152600401808373ffffffffffffffffffffffffffffffffffffffff1673ffffffffffffffffffffffffffffffffffffffff16815260200182815260200192505050600060405180830381600087803b158015610af257600080fd5b505af1158015610b06573d6000803e3d6000fd5b50505050600260009054906101000a900473ffffffffffffffffffffffffffffffffffffffff1673ffffffffffffffffffffffffffffffffffffffff16630f03c43d8460006040518363ffffffff1660e01b8152600401808373ffffffffffffffffffffffffffffffffffffffff1673ffffffffffffffffffffffffffffffffffffffff16815260200182815260200192505050600060405180830381600087803b158015610bb457600080fd5b505af1158015610bc8573d6000803e3d6000fd5b50505050600260009054906101000a900473ffffffffffffffffffffffffffffffffffffffff1673ffffffffffffffffffffffffffffffffffffffff16635a59ad408460006040518363ffffffff1660e01b8152600401808373ffffffffffffffffffffffffffffffffffffffff1673ffffffffffffffffffffffffffffffffffffffff16815260200182815260200192505050600060405180830381600087803b158015610c7657600080fd5b505af1158015610c8a573d6000803e3d6000fd5b50505050600260009054906101000a900473ffffffffffffffffffffffffffffffffffffffff1673ffffffffffffffffffffffffffffffffffffffff1663fa9f3096846040518263ffffffff1660e01b8152600401808273ffffffffffffffffffffffffffffffffffffffff1673ffffffffffffffffffffffffffffffffffffffff168152602001915050600060405180830381600087803b158015610d2f57600080fd5b505af1158015610d43573d6000803e3d6000fd5b505050506000915050610f21565b6000610f1a42600260009054906101000a900473ffffffffffffffffffffffffffffffffffffffff1673ffffffffffffffffffffffffffffffffffffffff16635fad0242866040518263ffffffff1660e01b8152600401808273ffffffffffffffffffffffffffffffffffffffff1673ffffffffffffffffffffffffffffffffffffffff16815260200191505060206040518083038186803b158015610df657600080fd5b505afa158015610e0a573d6000803e3d6000fd5b505050506040513d6020811015610e2057600080fd5b8101908080519060200190929190505050600260009054906101000a900473ffffffffffffffffffffffffffffffffffffffff1673ffffffffffffffffffffffffffffffffffffffff166313306881876040518263ffffffff1660e01b8152600401808273ffffffffffffffffffffffffffffffffffffffff1673ffffffffffffffffffffffffffffffffffffffff16815260200191505060206040518083038186803b158015610ed057600080fd5b505afa158015610ee4573d6000803e3d6000fd5b505050506040513d6020811015610efa57600080fd5b8101908080519060200190929190505050016153cd90919063ffffffff16565b9050809150505b919050565b6000803390506000600460009054906101000a900473ffffffffffffffffffffffffffffffffffffffff1673ffffffffffffffffffffffffffffffffffffffff166313306881836040518263ffffffff1660e01b8152600401808273ffffffffffffffffffffffffffffffffffffffff1673ffffffffffffffffffffffffffffffffffffffff16815260200191505060206040518083038186803b158015610fcd57600080fd5b505afa158015610fe1573d6000803e3d6000fd5b505050506040513d6020811015610ff757600080fd5b8101908080519060200190929190505050146110175760009150506114f3565b600080600460009054906101000a900473ffffffffffffffffffffffffffffffffffffffff1673ffffffffffffffffffffffffffffffffffffffff1663bbece62e846040518263ffffffff1660e01b8152600401808273ffffffffffffffffffffffffffffffffffffffff1673ffffffffffffffffffffffffffffffffffffffff168152602001915050602060405180830381600087803b1580156110bb57600080fd5b505af11580156110cf573d6000803e3d6000fd5b505050506040513d60208110156110e557600080fd5b81019080805190602001909291905050509150600460009054906101000a900473ffffffffffffffffffffffffffffffffffffffff1673ffffffffffffffffffffffffffffffffffffffff1663de634152846040518263ffffffff1660e01b8152600401808273ffffffffffffffffffffffffffffffffffffffff1673ffffffffffffffffffffffffffffffffffffffff16815260200191505060206040518083038186803b15801561119757600080fd5b505afa1580156111ab573d6000803e3d6000fd5b505050506040513d60208110156111c157600080fd5b810190808051906020019092919050505090506000151582151514156111ed57600093505050506114f3565b600460009054906101000a900473ffffffffffffffffffffffffffffffffffffffff1673ffffffffffffffffffffffffffffffffffffffff16630f03c43d84426040518363ffffffff1660e01b8152600401808373ffffffffffffffffffffffffffffffffffffffff1673ffffffffffffffffffffffffffffffffffffffff16815260200182815260200192505050600060405180830381600087803b15801561129657600080fd5b505af11580156112aa573d6000803e3d6000fd5b50505050600460009054906101000a900473ffffffffffffffffffffffffffffffffffffffff1673ffffffffffffffffffffffffffffffffffffffff16633f069a198483600460009054906101000a900473ffffffffffffffffffffffffffffffffffffffff1673ffffffffffffffffffffffffffffffffffffffff1663601bf56e6040518163ffffffff1660e01b815260040160206040518083038186803b15801561135657600080fd5b505afa15801561136a573d6000803e3d6000fd5b505050506040513d602081101561138057600080fd5b8101908080519060200190929190505050026040518363ffffffff1660e01b8152600401808373ffffffffffffffffffffffffffffffffffffffff1673ffffffffffffffffffffffffffffffffffffffff16815260200182815260200192505050600060405180830381600087803b1580156113fb57600080fd5b505af115801561140f573d6000803e3d6000fd5b50505050600460009054906101000a900473ffffffffffffffffffffffffffffffffffffffff1673ffffffffffffffffffffffffffffffffffffffff166316511096846040518263ffffffff1660e01b8152600401808273ffffffffffffffffffffffffffffffffffffffff1673ffffffffffffffffffffffffffffffffffffffff16815260200191505060206040518083038186803b1580156114b257600080fd5b505afa1580156114c6573d6000803e3d6000fd5b505050506040513d60208110156114dc57600080fd5b810190808051906020019092919050505093505050505b90565b6000809054906101000a900473ffffffffffffffffffffffffffffffffffffffff1673ffffffffffffffffffffffffffffffffffffffff166321241b3f3384846040518463ffffffff1660e01b8152600401808473ffffffffffffffffffffffffffffffffffffffff1673ffffffffffffffffffffffffffffffffffffffff168152602001806020018481526020018381526020018281038252600a8152602001807f4c61626f7261746f727900000000000000000000000000000000000000000000815250602001945050505050602060405180830381600087803b1580156115df57600080fd5b505af11580156115f3573d6000803e3d6000fd5b505050506040513d602081101561160957600080fd5b81019080805190602001909291905050505061162433614f78565b5050565b600080600360009054906101000a900473ffffffffffffffffffffffffffffffffffffffff1673ffffffffffffffffffffffffffffffffffffffff166313306881846040518263ffffffff1660e01b8152600401808273ffffffffffffffffffffffffffffffffffffffff1673ffffffffffffffffffffffffffffffffffffffff16815260200191505060206040518083038186803b1580156116ca57600080fd5b505afa1580156116de573d6000803e3d6000fd5b505050506040513d60208110156116f457600080fd5b81019080805190602001909291905050501415611714576000905061210f565b6118d9600360009054906101000a900473ffffffffffffffffffffffffffffffffffffffff1673ffffffffffffffffffffffffffffffffffffffff1663476432c3846040518263ffffffff1660e01b8152600401808273ffffffffffffffffffffffffffffffffffffffff1673ffffffffffffffffffffffffffffffffffffffff16815260200191505060206040518083038186803b1580156117b657600080fd5b505afa1580156117ca573d6000803e3d6000fd5b505050506040513d60208110156117e057600080fd5b8101908080519060200190929190505050600360009054906101000a900473ffffffffffffffffffffffffffffffffffffffff1673ffffffffffffffffffffffffffffffffffffffff166313306881856040518263ffffffff1660e01b8152600401808273ffffffffffffffffffffffffffffffffffffffff1673ffffffffffffffffffffffffffffffffffffffff16815260200191505060206040518083038186803b15801561189057600080fd5b505afa1580156118a4573d6000803e3d6000fd5b505050506040513d60208110156118ba57600080fd5b810190808051906020019092919050505061527590919063ffffffff16565b4210611f3f576000611b5a611a72600360009054906101000a900473ffffffffffffffffffffffffffffffffffffffff1673ffffffffffffffffffffffffffffffffffffffff1663c88eb9846040518163ffffffff1660e01b815260040160206040518083038186803b15801561194f57600080fd5b505afa158015611963573d6000803e3d6000fd5b505050506040513d602081101561197957600080fd5b8101908080519060200190929190505050600360009054906101000a900473ffffffffffffffffffffffffffffffffffffffff1673ffffffffffffffffffffffffffffffffffffffff1663d0bb9e90876040518263ffffffff1660e01b8152600401808273ffffffffffffffffffffffffffffffffffffffff1673ffffffffffffffffffffffffffffffffffffffff16815260200191505060206040518083038186803b158015611a2957600080fd5b505afa158015611a3d573d6000803e3d6000fd5b505050506040513d6020811015611a5357600080fd5b81019080805190602001909291905050506152fd90919063ffffffff16565b600360009054906101000a900473ffffffffffffffffffffffffffffffffffffffff1673ffffffffffffffffffffffffffffffffffffffff1663476432c3866040518263ffffffff1660e01b8152600401808273ffffffffffffffffffffffffffffffffffffffff1673ffffffffffffffffffffffffffffffffffffffff16815260200191505060206040518083038186803b158015611b1157600080fd5b505afa158015611b25573d6000803e3d6000fd5b505050506040513d6020811015611b3b57600080fd5b810190808051906020019092919050505061538390919063ffffffff16565b9050600360009054906101000a900473ffffffffffffffffffffffffffffffffffffffff1673ffffffffffffffffffffffffffffffffffffffff16632b16a5648483600360009054906101000a900473ffffffffffffffffffffffffffffffffffffffff1673ffffffffffffffffffffffffffffffffffffffff166357f683d3886040518263ffffffff1660e01b8152600401808273ffffffffffffffffffffffffffffffffffffffff1673ffffffffffffffffffffffffffffffffffffffff16815260200191505060206040518083038186803b158015611c3b57600080fd5b505afa158015611c4f573d6000803e3d6000fd5b505050506040513d6020811015611c6557600080fd5b8101908080519060200190929190505050016040518363ffffffff1660e01b8152600401808373ffffffffffffffffffffffffffffffffffffffff1673ffffffffffffffffffffffffffffffffffffffff16815260200182815260200192505050600060405180830381600087803b158015611ce057600080fd5b505af1158015611cf4573d6000803e3d6000fd5b50505050600360009054906101000a900473ffffffffffffffffffffffffffffffffffffffff1673ffffffffffffffffffffffffffffffffffffffff16630f03c43d8460006040518363ffffffff1660e01b8152600401808373ffffffffffffffffffffffffffffffffffffffff1673ffffffffffffffffffffffffffffffffffffffff16815260200182815260200192505050600060405180830381600087803b158015611da257600080fd5b505af1158015611db6573d6000803e3d6000fd5b50505050600360009054906101000a900473ffffffffffffffffffffffffffffffffffffffff1673ffffffffffffffffffffffffffffffffffffffff16639a1d52928460006040518363ffffffff1660e01b8152600401808373ffffffffffffffffffffffffffffffffffffffff1673ffffffffffffffffffffffffffffffffffffffff16815260200182815260200192505050600060405180830381600087803b158015611e6457600080fd5b505af1158015611e78573d6000803e3d6000fd5b50505050600360009054906101000a900473ffffffffffffffffffffffffffffffffffffffff1673ffffffffffffffffffffffffffffffffffffffff1663598b8e4e846040518263ffffffff1660e01b8152600401808273ffffffffffffffffffffffffffffffffffffffff1673ffffffffffffffffffffffffffffffffffffffff168152602001915050600060405180830381600087803b158015611f1d57600080fd5b505af1158015611f31573d6000803e3d6000fd5b50505050600091505061210f565b600061210842600360009054906101000a900473ffffffffffffffffffffffffffffffffffffffff1673ffffffffffffffffffffffffffffffffffffffff1663476432c3866040518263ffffffff1660e01b8152600401808273ffffffffffffffffffffffffffffffffffffffff1673ffffffffffffffffffffffffffffffffffffffff16815260200191505060206040518083038186803b158015611fe457600080fd5b505afa158015611ff8573d6000803e3d6000fd5b505050506040513d602081101561200e57600080fd5b8101908080519060200190929190505050600360009054906101000a900473ffffffffffffffffffffffffffffffffffffffff1673ffffffffffffffffffffffffffffffffffffffff166313306881876040518263ffffffff1660e01b8152600401808273ffffffffffffffffffffffffffffffffffffffff1673ffffffffffffffffffffffffffffffffffffffff16815260200191505060206040518083038186803b1580156120be57600080fd5b505afa1580156120d2573d6000803e3d6000fd5b505050506040513d60208110156120e857600080fd5b8101908080519060200190929190505050016153cd90919063ffffffff16565b9050809150505b919050565b600080600160009054906101000a900473ffffffffffffffffffffffffffffffffffffffff1673ffffffffffffffffffffffffffffffffffffffff166313306881336040518263ffffffff1660e01b8152600401808273ffffffffffffffffffffffffffffffffffffffff1673ffffffffffffffffffffffffffffffffffffffff16815260200191505060206040518083038186803b1580156121b657600080fd5b505afa1580156121ca573d6000803e3d6000fd5b505050506040513d60208110156121e057600080fd5b81019080805190602001909291905050504203600160009054906101000a900473ffffffffffffffffffffffffffffffffffffffff1673ffffffffffffffffffffffffffffffffffffffff16632429042d336040518263ffffffff1660e01b8152600401808273ffffffffffffffffffffffffffffffffffffffff1673ffffffffffffffffffffffffffffffffffffffff16815260200191505060206040518083038186803b15801561229257600080fd5b505afa1580156122a6573d6000803e3d6000fd5b505050506040513d60208110156122bc57600080fd5b8101908080519060200190929190505050915091509091565b600080600460009054906101000a900473ffffffffffffffffffffffffffffffffffffffff1673ffffffffffffffffffffffffffffffffffffffff166313306881846040518263ffffffff1660e01b8152600401808273ffffffffffffffffffffffffffffffffffffffff1673ffffffffffffffffffffffffffffffffffffffff16815260200191505060206040518083038186803b15801561237757600080fd5b505afa15801561238b573d6000803e3d6000fd5b505050506040513d60208110156123a157600080fd5b810190808051906020019092919050505014156123c15760009050612dbc565b612586600460009054906101000a900473ffffffffffffffffffffffffffffffffffffffff1673ffffffffffffffffffffffffffffffffffffffff166316511096846040518263ffffffff1660e01b8152600401808273ffffffffffffffffffffffffffffffffffffffff1673ffffffffffffffffffffffffffffffffffffffff16815260200191505060206040518083038186803b15801561246357600080fd5b505afa158015612477573d6000803e3d6000fd5b505050506040513d602081101561248d57600080fd5b8101908080519060200190929190505050600460009054906101000a900473ffffffffffffffffffffffffffffffffffffffff1673ffffffffffffffffffffffffffffffffffffffff166313306881856040518263ffffffff1660e01b8152600401808273ffffffffffffffffffffffffffffffffffffffff1673ffffffffffffffffffffffffffffffffffffffff16815260200191505060206040518083038186803b15801561253d57600080fd5b505afa158015612551573d6000803e3d6000fd5b505050506040513d602081101561256757600080fd5b810190808051906020019092919050505061527590919063ffffffff16565b4210612bec57600061280761271f600460009054906101000a900473ffffffffffffffffffffffffffffffffffffffff1673ffffffffffffffffffffffffffffffffffffffff1663601bf56e6040518163ffffffff1660e01b815260040160206040518083038186803b1580156125fc57600080fd5b505afa158015612610573d6000803e3d6000fd5b505050506040513d602081101561262657600080fd5b8101908080519060200190929190505050600460009054906101000a900473ffffffffffffffffffffffffffffffffffffffff1673ffffffffffffffffffffffffffffffffffffffff1663de634152876040518263ffffffff1660e01b8152600401808273ffffffffffffffffffffffffffffffffffffffff1673ffffffffffffffffffffffffffffffffffffffff16815260200191505060206040518083038186803b1580156126d657600080fd5b505afa1580156126ea573d6000803e3d6000fd5b505050506040513d602081101561270057600080fd5b81019080805190602001909291905050506152fd90919063ffffffff16565b600460009054906101000a900473ffffffffffffffffffffffffffffffffffffffff1673ffffffffffffffffffffffffffffffffffffffff166316511096866040518263ffffffff1660e01b8152600401808273ffffffffffffffffffffffffffffffffffffffff1673ffffffffffffffffffffffffffffffffffffffff16815260200191505060206040518083038186803b1580156127be57600080fd5b505afa1580156127d2573d6000803e3d6000fd5b505050506040513d60208110156127e857600080fd5b810190808051906020019092919050505061538390919063ffffffff16565b9050600460009054906101000a900473ffffffffffffffffffffffffffffffffffffffff1673ffffffffffffffffffffffffffffffffffffffff16632d96a77b8483600460009054906101000a900473ffffffffffffffffffffffffffffffffffffffff1673ffffffffffffffffffffffffffffffffffffffff1663af3437ae886040518263ffffffff1660e01b8152600401808273ffffffffffffffffffffffffffffffffffffffff1673ffffffffffffffffffffffffffffffffffffffff16815260200191505060206040518083038186803b1580156128e857600080fd5b505afa1580156128fc573d6000803e3d6000fd5b505050506040513d602081101561291257600080fd5b8101908080519060200190929190505050016040518363ffffffff1660e01b8152600401808373ffffffffffffffffffffffffffffffffffffffff1673ffffffffffffffffffffffffffffffffffffffff16815260200182815260200192505050600060405180830381600087803b15801561298d57600080fd5b505af11580156129a1573d6000803e3d6000fd5b50505050600460009054906101000a900473ffffffffffffffffffffffffffffffffffffffff1673ffffffffffffffffffffffffffffffffffffffff16630f03c43d8460006040518363ffffffff1660e01b8152600401808373ffffffffffffffffffffffffffffffffffffffff1673ffffffffffffffffffffffffffffffffffffffff16815260200182815260200192505050600060405180830381600087803b158015612a4f57600080fd5b505af1158015612a63573d6000803e3d6000fd5b50505050600460009054906101000a900473ffffffffffffffffffffffffffffffffffffffff1673ffffffffffffffffffffffffffffffffffffffff16633f069a198460006040518363ffffffff1660e01b8152600401808373ffffffffffffffffffffffffffffffffffffffff1673ffffffffffffffffffffffffffffffffffffffff16815260200182815260200192505050600060405180830381600087803b158015612b1157600080fd5b505af1158015612b25573d6000803e3d6000fd5b50505050600460009054906101000a900473ffffffffffffffffffffffffffffffffffffffff1673ffffffffffffffffffffffffffffffffffffffff1663f6716496846040518263ffffffff1660e01b8152600401808273ffffffffffffffffffffffffffffffffffffffff1673ffffffffffffffffffffffffffffffffffffffff168152602001915050600060405180830381600087803b158015612bca57600080fd5b505af1158015612bde573d6000803e3d6000fd5b505050506000915050612dbc565b6000612db542600460009054906101000a900473ffffffffffffffffffffffffffffffffffffffff1673ffffffffffffffffffffffffffffffffffffffff166316511096866040518263ffffffff1660e01b8152600401808273ffffffffffffffffffffffffffffffffffffffff1673ffffffffffffffffffffffffffffffffffffffff16815260200191505060206040518083038186803b158015612c9157600080fd5b505afa158015612ca5573d6000803e3d6000fd5b505050506040513d6020811015612cbb57600080fd5b8101908080519060200190929190505050600460009054906101000a900473ffffffffffffffffffffffffffffffffffffffff1673ffffffffffffffffffffffffffffffffffffffff166313306881876040518263ffffffff1660e01b8152600401808273ffffffffffffffffffffffffffffffffffffffff1673ffffffffffffffffffffffffffffffffffffffff16815260200191505060206040518083038186803b158015612d6b57600080fd5b505afa158015612d7f573d6000803e3d6000fd5b505050506040513d6020811015612d9557600080fd5b8101908080519060200190929190505050016153cd90919063ffffffff16565b9050809150505b919050565b600080600260009054906101000a900473ffffffffffffffffffffffffffffffffffffffff1673ffffffffffffffffffffffffffffffffffffffff166313306881336040518263ffffffff1660e01b8152600401808273ffffffffffffffffffffffffffffffffffffffff1673ffffffffffffffffffffffffffffffffffffffff16815260200191505060206040518083038186803b158015612e6357600080fd5b505afa158015612e77573d6000803e3d6000fd5b505050506040513d6020811015612e8d57600080fd5b81019080805190602001909291905050504203600260009054906101000a900473ffffffffffffffffffffffffffffffffffffffff1673ffffffffffffffffffffffffffffffffffffffff16635fad0242336040518263ffffffff1660e01b8152600401808273ffffffffffffffffffffffffffffffffffffffff1673ffffffffffffffffffffffffffffffffffffffff16815260200191505060206040518083038186803b158015612f3f57600080fd5b505afa158015612f53573d6000803e3d6000fd5b505050506040513d6020811015612f6957600080fd5b8101908080519060200190929190505050915091509091565b600080600460009054906101000a900473ffffffffffffffffffffffffffffffffffffffff1673ffffffffffffffffffffffffffffffffffffffff166313306881336040518263ffffffff1660e01b8152600401808273ffffffffffffffffffffffffffffffffffffffff1673ffffffffffffffffffffffffffffffffffffffff16815260200191505060206040518083038186803b15801561302457600080fd5b505afa158015613038573d6000803e3d6000fd5b505050506040513d602081101561304e57600080fd5b81019080805190602001909291905050504203600460009054906101000a900473ffffffffffffffffffffffffffffffffffffffff1673ffffffffffffffffffffffffffffffffffffffff166316511096336040518263ffffffff1660e01b8152600401808273ffffffffffffffffffffffffffffffffffffffff1673ffffffffffffffffffffffffffffffffffffffff16815260200191505060206040518083038186803b15801561310057600080fd5b505afa158015613114573d6000803e3d6000fd5b505050506040513d602081101561312a57600080fd5b8101908080519060200190929190505050915091509091565b60056020528060005260406000206000915090505481565b6000803390506000600360009054906101000a900473ffffffffffffffffffffffffffffffffffffffff1673ffffffffffffffffffffffffffffffffffffffff166313306881836040518263ffffffff1660e01b8152600401808273ffffffffffffffffffffffffffffffffffffffff1673ffffffffffffffffffffffffffffffffffffffff16815260200191505060206040518083038186803b15801561320257600080fd5b505afa158015613216573d6000803e3d6000fd5b505050506040513d602081101561322c57600080fd5b81019080805190602001909291905050501461324c576000915050613728565b600080600360009054906101000a900473ffffffffffffffffffffffffffffffffffffffff1673ffffffffffffffffffffffffffffffffffffffff1663ac4ccf1f846040518263ffffffff1660e01b8152600401808273ffffffffffffffffffffffffffffffffffffffff1673ffffffffffffffffffffffffffffffffffffffff168152602001915050602060405180830381600087803b1580156132f057600080fd5b505af1158015613304573d6000803e3d6000fd5b505050506040513d602081101561331a57600080fd5b81019080805190602001909291905050509150600360009054906101000a900473ffffffffffffffffffffffffffffffffffffffff1673ffffffffffffffffffffffffffffffffffffffff1663d0bb9e90846040518263ffffffff1660e01b8152600401808273ffffffffffffffffffffffffffffffffffffffff1673ffffffffffffffffffffffffffffffffffffffff16815260200191505060206040518083038186803b1580156133cc57600080fd5b505afa1580156133e0573d6000803e3d6000fd5b505050506040513d60208110156133f657600080fd5b810190808051906020019092919050505090506000151582151514156134225760009350505050613728565b600360009054906101000a900473ffffffffffffffffffffffffffffffffffffffff1673ffffffffffffffffffffffffffffffffffffffff16630f03c43d84426040518363ffffffff1660e01b8152600401808373ffffffffffffffffffffffffffffffffffffffff1673ffffffffffffffffffffffffffffffffffffffff16815260200182815260200192505050600060405180830381600087803b1580156134cb57600080fd5b505af11580156134df573d6000803e3d6000fd5b50505050600360009054906101000a900473ffffffffffffffffffffffffffffffffffffffff1673ffffffffffffffffffffffffffffffffffffffff16639a1d52928483600360009054906101000a900473ffffffffffffffffffffffffffffffffffffffff1673ffffffffffffffffffffffffffffffffffffffff1663c88eb9846040518163ffffffff1660e01b815260040160206040518083038186803b15801561358b57600080fd5b505afa15801561359f573d6000803e3d6000fd5b505050506040513d60208110156135b557600080fd5b8101908080519060200190929190505050026040518363ffffffff1660e01b8152600401808373ffffffffffffffffffffffffffffffffffffffff1673ffffffffffffffffffffffffffffffffffffffff16815260200182815260200192505050600060405180830381600087803b15801561363057600080fd5b505af1158015613644573d6000803e3d6000fd5b50505050600360009054906101000a900473ffffffffffffffffffffffffffffffffffffffff1673ffffffffffffffffffffffffffffffffffffffff1663476432c3846040518263ffffffff1660e01b8152600401808273ffffffffffffffffffffffffffffffffffffffff1673ffffffffffffffffffffffffffffffffffffffff16815260200191505060206040518083038186803b1580156136e757600080fd5b505afa1580156136fb573d6000803e3d6000fd5b505050506040513d602081101561371157600080fd5b810190808051906020019092919050505093505050505b90565b6000803390506000600260009054906101000a900473ffffffffffffffffffffffffffffffffffffffff1673ffffffffffffffffffffffffffffffffffffffff166313306881836040518263ffffffff1660e01b8152600401808273ffffffffffffffffffffffffffffffffffffffff1673ffffffffffffffffffffffffffffffffffffffff16815260200191505060206040518083038186803b1580156137d257600080fd5b505afa1580156137e6573d6000803e3d6000fd5b505050506040513d60208110156137fc57600080fd5b81019080805190602001909291905050501461381c576000915050613cf8565b600080600260009054906101000a900473ffffffffffffffffffffffffffffffffffffffff1673ffffffffffffffffffffffffffffffffffffffff16632998630d846040518263ffffffff1660e01b8152600401808273ffffffffffffffffffffffffffffffffffffffff1673ffffffffffffffffffffffffffffffffffffffff168152602001915050602060405180830381600087803b1580156138c057600080fd5b505af11580156138d4573d6000803e3d6000fd5b505050506040513d60208110156138ea57600080fd5b81019080805190602001909291905050509150600260009054906101000a900473ffffffffffffffffffffffffffffffffffffffff1673ffffffffffffffffffffffffffffffffffffffff1663b47711fa846040518263ffffffff1660e01b8152600401808273ffffffffffffffffffffffffffffffffffffffff1673ffffffffffffffffffffffffffffffffffffffff16815260200191505060206040518083038186803b15801561399c57600080fd5b505afa1580156139b0573d6000803e3d6000fd5b505050506040513d60208110156139c657600080fd5b810190808051906020019092919050505090506000151582151514156139f25760009350505050613cf8565b600260009054906101000a900473ffffffffffffffffffffffffffffffffffffffff1673ffffffffffffffffffffffffffffffffffffffff16630f03c43d84426040518363ffffffff1660e01b8152600401808373ffffffffffffffffffffffffffffffffffffffff1673ffffffffffffffffffffffffffffffffffffffff16815260200182815260200192505050600060405180830381600087803b158015613a9b57600080fd5b505af1158015613aaf573d6000803e3d6000fd5b50505050600260009054906101000a900473ffffffffffffffffffffffffffffffffffffffff1673ffffffffffffffffffffffffffffffffffffffff16635a59ad408483600260009054906101000a900473ffffffffffffffffffffffffffffffffffffffff1673ffffffffffffffffffffffffffffffffffffffff16636e35e1eb6040518163ffffffff1660e01b815260040160206040518083038186803b158015613b5b57600080fd5b505afa158015613b6f573d6000803e3d6000fd5b505050506040513d6020811015613b8557600080fd5b8101908080519060200190929190505050026040518363ffffffff1660e01b8152600401808373ffffffffffffffffffffffffffffffffffffffff1673ffffffffffffffffffffffffffffffffffffffff16815260200182815260200192505050600060405180830381600087803b158015613c0057600080fd5b505af1158015613c14573d6000803e3d6000fd5b50505050600260009054906101000a900473ffffffffffffffffffffffffffffffffffffffff1673ffffffffffffffffffffffffffffffffffffffff16635fad0242846040518263ffffffff1660e01b8152600401808273ffffffffffffffffffffffffffffffffffffffff1673ffffffffffffffffffffffffffffffffffffffff16815260200191505060206040518083038186803b158015613cb757600080fd5b505afa158015613ccb573d6000803e3d6000fd5b505050506040513d6020811015613ce157600080fd5b810190808051906020019092919050505093505050505b90565b600080600360009054906101000a900473ffffffffffffffffffffffffffffffffffffffff1673ffffffffffffffffffffffffffffffffffffffff166313306881336040518263ffffffff1660e01b8152600401808273ffffffffffffffffffffffffffffffffffffffff1673ffffffffffffffffffffffffffffffffffffffff16815260200191505060206040518083038186803b158015613d9d57600080fd5b505afa158015613db1573d6000803e3d6000fd5b505050506040513d6020811015613dc757600080fd5b81019080805190602001909291905050504203600360009054906101000a900473ffffffffffffffffffffffffffffffffffffffff1673ffffffffffffffffffffffffffffffffffffffff1663476432c3336040518263ffffffff1660e01b8152600401808273ffffffffffffffffffffffffffffffffffffffff1673ffffffffffffffffffffffffffffffffffffffff16815260200191505060206040518083038186803b158015613e7957600080fd5b505afa158015613e8d573d6000803e3d6000fd5b505050506040513d6020811015613ea357600080fd5b8101908080519060200190929190505050915091509091565b6000803390506000600160009054906101000a900473ffffffffffffffffffffffffffffffffffffffff1673ffffffffffffffffffffffffffffffffffffffff166313306881836040518263ffffffff1660e01b8152600401808273ffffffffffffffffffffffffffffffffffffffff1673ffffffffffffffffffffffffffffffffffffffff16815260200191505060206040518083038186803b158015613f6357600080fd5b505afa158015613f77573d6000803e3d6000fd5b505050506040513d6020811015613f8d57600080fd5b810190808051906020019092919050505014613fad576000915050614489565b600080600160009054906101000a900473ffffffffffffffffffffffffffffffffffffffff1673ffffffffffffffffffffffffffffffffffffffff1663c75fbb56846040518263ffffffff1660e01b8152600401808273ffffffffffffffffffffffffffffffffffffffff1673ffffffffffffffffffffffffffffffffffffffff168152602001915050602060405180830381600087803b15801561405157600080fd5b505af1158015614065573d6000803e3d6000fd5b505050506040513d602081101561407b57600080fd5b81019080805190602001909291905050509150600160009054906101000a900473ffffffffffffffffffffffffffffffffffffffff1673ffffffffffffffffffffffffffffffffffffffff166329058536846040518263ffffffff1660e01b8152600401808273ffffffffffffffffffffffffffffffffffffffff1673ffffffffffffffffffffffffffffffffffffffff16815260200191505060206040518083038186803b15801561412d57600080fd5b505afa158015614141573d6000803e3d6000fd5b505050506040513d602081101561415757600080fd5b810190808051906020019092919050505090506000151582151514156141835760009350505050614489565b600160009054906101000a900473ffffffffffffffffffffffffffffffffffffffff1673ffffffffffffffffffffffffffffffffffffffff16630f03c43d84426040518363ffffffff1660e01b8152600401808373ffffffffffffffffffffffffffffffffffffffff1673ffffffffffffffffffffffffffffffffffffffff16815260200182815260200192505050600060405180830381600087803b15801561422c57600080fd5b505af1158015614240573d6000803e3d6000fd5b50505050600160009054906101000a900473ffffffffffffffffffffffffffffffffffffffff1673ffffffffffffffffffffffffffffffffffffffff166322e4b6fc8483600160009054906101000a900473ffffffffffffffffffffffffffffffffffffffff1673ffffffffffffffffffffffffffffffffffffffff16636f2fdae56040518163ffffffff1660e01b815260040160206040518083038186803b1580156142ec57600080fd5b505afa158015614300573d6000803e3d6000fd5b505050506040513d602081101561431657600080fd5b8101908080519060200190929190505050026040518363ffffffff1660e01b8152600401808373ffffffffffffffffffffffffffffffffffffffff1673ffffffffffffffffffffffffffffffffffffffff16815260200182815260200192505050600060405180830381600087803b15801561439157600080fd5b505af11580156143a5573d6000803e3d6000fd5b50505050600160009054906101000a900473ffffffffffffffffffffffffffffffffffffffff1673ffffffffffffffffffffffffffffffffffffffff16632429042d846040518263ffffffff1660e01b8152600401808273ffffffffffffffffffffffffffffffffffffffff1673ffffffffffffffffffffffffffffffffffffffff16815260200191505060206040518083038186803b15801561444857600080fd5b505afa15801561445c573d6000803e3d6000fd5b505050506040513d602081101561447257600080fd5b810190808051906020019092919050505093505050505b90565b600080600160009054906101000a900473ffffffffffffffffffffffffffffffffffffffff1673ffffffffffffffffffffffffffffffffffffffff166313306881846040518263ffffffff1660e01b8152600401808273ffffffffffffffffffffffffffffffffffffffff1673ffffffffffffffffffffffffffffffffffffffff16815260200191505060206040518083038186803b15801561452e57600080fd5b505afa158015614542573d6000803e3d6000fd5b505050506040513d602081101561455857600080fd5b810190808051906020019092919050505014156145785760009050614f73565b61473d600160009054906101000a900473ffffffffffffffffffffffffffffffffffffffff1673ffffffffffffffffffffffffffffffffffffffff16632429042d846040518263ffffffff1660e01b8152600401808273ffffffffffffffffffffffffffffffffffffffff1673ffffffffffffffffffffffffffffffffffffffff16815260200191505060206040518083038186803b15801561461a57600080fd5b505afa15801561462e573d6000803e3d6000fd5b505050506040513d602081101561464457600080fd5b8101908080519060200190929190505050600160009054906101000a900473ffffffffffffffffffffffffffffffffffffffff1673ffffffffffffffffffffffffffffffffffffffff166313306881856040518263ffffffff1660e01b8152600401808273ffffffffffffffffffffffffffffffffffffffff1673ffffffffffffffffffffffffffffffffffffffff16815260200191505060206040518083038186803b1580156146f457600080fd5b505afa158015614708573d6000803e3d6000fd5b505050506040513d602081101561471e57600080fd5b810190808051906020019092919050505061527590919063ffffffff16565b4210614da35760006149be6148d6600160009054906101000a900473ffffffffffffffffffffffffffffffffffffffff1673ffffffffffffffffffffffffffffffffffffffff16636f2fdae56040518163ffffffff1660e01b815260040160206040518083038186803b1580156147b357600080fd5b505afa1580156147c7573d6000803e3d6000fd5b505050506040513d60208110156147dd57600080fd5b8101908080519060200190929190505050600160009054906101000a900473ffffffffffffffffffffffffffffffffffffffff1673ffffffffffffffffffffffffffffffffffffffff166329058536876040518263ffffffff1660e01b8152600401808273ffffffffffffffffffffffffffffffffffffffff1673ffffffffffffffffffffffffffffffffffffffff16815260200191505060206040518083038186803b15801561488d57600080fd5b505afa1580156148a1573d6000803e3d6000fd5b505050506040513d60208110156148b757600080fd5b81019080805190602001909291905050506152fd90919063ffffffff16565b600160009054906101000a900473ffffffffffffffffffffffffffffffffffffffff1673ffffffffffffffffffffffffffffffffffffffff16632429042d866040518263ffffffff1660e01b8152600401808273ffffffffffffffffffffffffffffffffffffffff1673ffffffffffffffffffffffffffffffffffffffff16815260200191505060206040518083038186803b15801561497557600080fd5b505afa158015614989573d6000803e3d6000fd5b505050506040513d602081101561499f57600080fd5b810190808051906020019092919050505061538390919063ffffffff16565b9050600160009054906101000a900473ffffffffffffffffffffffffffffffffffffffff1673ffffffffffffffffffffffffffffffffffffffff16633dabc4df8483600160009054906101000a900473ffffffffffffffffffffffffffffffffffffffff1673ffffffffffffffffffffffffffffffffffffffff16635697b21a886040518263ffffffff1660e01b8152600401808273ffffffffffffffffffffffffffffffffffffffff1673ffffffffffffffffffffffffffffffffffffffff16815260200191505060206040518083038186803b158015614a9f57600080fd5b505afa158015614ab3573d6000803e3d6000fd5b505050506040513d6020811015614ac957600080fd5b8101908080519060200190929190505050016040518363ffffffff1660e01b8152600401808373ffffffffffffffffffffffffffffffffffffffff1673ffffffffffffffffffffffffffffffffffffffff16815260200182815260200192505050600060405180830381600087803b158015614b4457600080fd5b505af1158015614b58573d6000803e3d6000fd5b50505050600160009054906101000a900473ffffffffffffffffffffffffffffffffffffffff1673ffffffffffffffffffffffffffffffffffffffff16630f03c43d8460006040518363ffffffff1660e01b8152600401808373ffffffffffffffffffffffffffffffffffffffff1673ffffffffffffffffffffffffffffffffffffffff16815260200182815260200192505050600060405180830381600087803b158015614c0657600080fd5b505af1158015614c1a573d6000803e3d6000fd5b50505050600160009054906101000a900473ffffffffffffffffffffffffffffffffffffffff1673ffffffffffffffffffffffffffffffffffffffff166322e4b6fc8460006040518363ffffffff1660e01b8152600401808373ffffffffffffffffffffffffffffffffffffffff1673ffffffffffffffffffffffffffffffffffffffff16815260200182815260200192505050600060405180830381600087803b158015614cc857600080fd5b505af1158015614cdc573d6000803e3d6000fd5b50505050600160009054906101000a900473ffffffffffffffffffffffffffffffffffffffff1673ffffffffffffffffffffffffffffffffffffffff16632f47faeb846040518263ffffffff1660e01b8152600401808273ffffffffffffffffffffffffffffffffffffffff1673ffffffffffffffffffffffffffffffffffffffff168152602001915050600060405180830381600087803b158015614d8157600080fd5b505af1158015614d95573d6000803e3d6000fd5b505050506000915050614f73565b6000614f6c42600160009054906101000a900473ffffffffffffffffffffffffffffffffffffffff1673ffffffffffffffffffffffffffffffffffffffff16632429042d866040518263ffffffff1660e01b8152600401808273ffffffffffffffffffffffffffffffffffffffff1673ffffffffffffffffffffffffffffffffffffffff16815260200191505060206040518083038186803b158015614e4857600080fd5b505afa158015614e5c573d6000803e3d6000fd5b505050506040513d6020811015614e7257600080fd5b8101908080519060200190929190505050600160009054906101000a900473ffffffffffffffffffffffffffffffffffffffff1673ffffffffffffffffffffffffffffffffffffffff166313306881876040518263ffffffff1660e01b8152600401808273ffffffffffffffffffffffffffffffffffffffff1673ffffffffffffffffffffffffffffffffffffffff16815260200191505060206040518083038186803b158015614f2257600080fd5b505afa158015614f36573d6000803e3d6000fd5b505050506040513d6020811015614f4c57600080fd5b8101908080519060200190929190505050016153cd90919063ffffffff16565b9050809150505b919050565b60606000809054906101000a900473ffffffffffffffffffffffffffffffffffffffff1673ffffffffffffffffffffffffffffffffffffffff16632c79c523836040518263ffffffff1660e01b8152600401808273ffffffffffffffffffffffffffffffffffffffff1673ffffffffffffffffffffffffffffffffffffffff168152602001806020018281038252600a8152602001807f4c61626f7261746f7279000000000000000000000000000000000000000000008152506020019250505060006040518083038186803b15801561505157600080fd5b505afa158015615065573d6000803e3d6000fd5b505050506040513d6000823e3d601f19601f82011682018060405250602081101561508f57600080fd5b81019080805160405193929190846401000000008211156150af57600080fd5b838201915060208201858111156150c557600080fd5b82518660208202830111640100000000821117156150e257600080fd5b8083526020830192505050908051906020019060200280838360005b838110156151195780820151818401526020810190506150fe565b5050505090500160405250505090506000600560008473ffffffffffffffffffffffffffffffffffffffff1673ffffffffffffffffffffffffffffffffffffffff168152602001908152602001600020541480615177575060008151145b156151c65742600560008473ffffffffffffffffffffffffffffffffffffffff1673ffffffffffffffffffffffffffffffffffffffff1681526020019081526020016000208190555050615272565b600061521d600a600560008673ffffffffffffffffffffffffffffffffffffffff1673ffffffffffffffffffffffffffffffffffffffff16815260200190815260200160002054420361538390919063ffffffff16565b905080600a02600560008573ffffffffffffffffffffffffffffffffffffffff1673ffffffffffffffffffffffffffffffffffffffff1681526020019081526020016000206000828254019250508190555050505b50565b6000808284019050838110156152f3576040517f08c379a000000000000000000000000000000000000000000000000000000000815260040180806020018281038252601b8152602001807f536166654d6174683a206164646974696f6e206f766572666c6f77000000000081525060200191505060405180910390fd5b8091505092915050565b600080831415615310576000905061537d565b600082840290508284828161532157fe5b0414615378576040517f08c379a000000000000000000000000000000000000000000000000000000000815260040180806020018281038252602181526020018061559e6021913960400191505060405180910390fd5b809150505b92915050565b60006153c583836040518060400160405280601a81526020017f536166654d6174683a206469766973696f6e206279207a65726f000000000000815250615417565b905092915050565b600061540f83836040518060400160405280601e81526020017f536166654d6174683a207375627472616374696f6e206f766572666c6f7700008152506154dd565b905092915050565b600080831182906154c3576040517f08c379a00000000000000000000000000000000000000000000000000000000081526004018080602001828103825283818151815260200191508051906020019080838360005b8381101561548857808201518184015260208101905061546d565b50505050905090810190601f1680156154b55780820380516001836020036101000a031916815260200191505b509250505060405180910390fd5b5060008385816154cf57fe5b049050809150509392505050565b600083831115829061558a576040517f08c379a00000000000000000000000000000000000000000000000000000000081526004018080602001828103825283818151815260200191508051906020019080838360005b8381101561554f578082015181840152602081019050615534565b50505050905090810190601f16801561557c5780820380516001836020036101000a031916815260200191505b509250505060405180910390fd5b506000838503905080915050939250505056fe536166654d6174683a206d756c7469706c69636174696f6e206f766572666c6f77a265627a7a7231582085def3e1809c8812264f390bc90abea3bb72482fab98fc12380100962ab9c90b64736f6c63430005100032",
  "source": "pragma solidity >=0.4.21 <0.7.0;\n\nimport \"./SafeMath.sol\";\nimport \"./BuildingFactory.sol\";\nimport \"./Soldier.sol\";\nimport \"./Spy.sol\";\nimport \"./Cannon.sol\";\nimport \"./Protector.sol\";\n\ncontract Laboratory {\n    \n    using SafeMath for uint;\n    \n    // Account accountInstance;\n    BuildingFactory buildingInstance;\n    Soldier soldierInstance;\n    Protector ProtectorInstance;\n    Cannon CannonInstance;\n    Spy SpyInstance;\n    constructor(address _building_address, address _soldier_address, address _spy_instance, address _cannon_instance, address _protector_instance) public {\n        buildingInstance = BuildingFactory(_building_address);\n        soldierInstance = Soldier(_soldier_address);\n        SpyInstance = Spy(_spy_instance);\n        ProtectorInstance = Protector(_protector_instance);\n        CannonInstance = Cannon(_cannon_instance);\n    }\n    \n    mapping (address => uint) public ownerLabProduceTime;\n\n\n    function createLaboratory(uint _x, uint _y) public {\n        buildingInstance._createBuilding(msg.sender, \"Laboratory\", _x, _y);\n        _updateLaboratory(msg.sender);\n    }\n\n    function _updateLaboratory(address _owner) public {\n        uint[] memory labs = buildingInstance.getSpecificBuildingByOwner(_owner, \"Laboratory\");\n        if (ownerLabProduceTime[_owner] == 0 || labs.length == 0) {\n            ownerLabProduceTime[_owner] = now;\n            return;\n        }\n        uint periodCounts = (now - ownerLabProduceTime[_owner]).div(10 seconds);\n        // uint produceAbilitySum = 0;\n        // for (uint i=0; i<farms.length; i++) {\n        //     produceAbilitySum += buildingInstance.getBuildingLevel(labs[i]) * produceLabAbility;\n        // }\n        // accountInstance.setLabOwnerCount(_owner, accountInstance.getFoodOwnerCount(_owner) + periodCounts * produceAbilitySum);\n        ownerLabProduceTime[_owner] += 10 * periodCounts;\n    }\n\n        function startUpgradeSoldier() public returns(uint) {\n        address _owner = msg.sender;\n        if(soldierInstance.ownerStartUpgradeTime(_owner) != 0) return uint(0); // check if there is already creating soldiers\n        bool enoughResource;\n        uint lvOfSoldier;\n        enoughResource = soldierInstance._UpgradeSoldier(_owner);\n        lvOfSoldier =  soldierInstance.levelOfSoldier(_owner);\n        if(enoughResource == false) return uint(0);\n        soldierInstance.setStartUpgradeTime(_owner, uint(now));\n        soldierInstance.setUpgradeSoldierTime(_owner, soldierInstance.UpgradeSoldierTime() * lvOfSoldier);\n        return soldierInstance.ownerUpgradeSoldierTime(_owner);\n    }\n\n    function getUpgradeSoldierTime() public view returns(uint, uint) {\n        return ( now - soldierInstance.ownerStartUpgradeTime(msg.sender), soldierInstance.ownerUpgradeSoldierTime(msg.sender) ) ;\n    }\n\n    // // return 0 if success else return remaining time\n    function updateUpgradeSoldier(address _owner) public returns(uint) {\n        if (soldierInstance.ownerStartUpgradeTime(_owner) == 0) return 0;\n        if (now >= soldierInstance.ownerStartUpgradeTime(_owner).add(soldierInstance.ownerUpgradeSoldierTime(_owner))) {\n            uint num;\n            num = soldierInstance.ownerUpgradeSoldierTime(_owner).div(  soldierInstance.levelOfSoldier(_owner).mul(soldierInstance.UpgradeSoldierTime()) );\n            soldierInstance.setNumOfSoldier(_owner, soldierInstance.numOfSoldier(_owner) + (num));\n            soldierInstance.setStartUpgradeTime(_owner, 0);\n            soldierInstance.setUpgradeSoldierTime(_owner, 0);\n            soldierInstance._updatePower(_owner);\n            return 0;\n        }\n        else {\n            uint remainingTime = (soldierInstance.ownerStartUpgradeTime(_owner) + soldierInstance.ownerUpgradeSoldierTime(_owner)).sub(now);\n            return remainingTime;\n        }\n    }\n\n    function startUpgradeProtector() public returns(uint) {\n        address _owner = msg.sender;\n        if(ProtectorInstance.ownerStartUpgradeTime(_owner) != 0) return uint(0); // check if there is already creating Protectors\n        bool enoughResource;\n        uint lvOfProtector;\n        enoughResource = ProtectorInstance._UpgradeProtector(_owner);\n        lvOfProtector =  ProtectorInstance.levelOfProtector(_owner);\n        if(enoughResource == false) return uint(0);\n        ProtectorInstance.setStartUpgradeTime(_owner, uint(now));\n        ProtectorInstance.setUpgradeProtectorTime(_owner, ProtectorInstance.UpgradeProtectorTime() * lvOfProtector);\n        return ProtectorInstance.ownerUpgradeProtectorTime(_owner);\n    }\n\n    function getUpgradeProtectorTime() public view returns(uint, uint) {\n        return ( now - ProtectorInstance.ownerStartUpgradeTime(msg.sender), ProtectorInstance.ownerUpgradeProtectorTime(msg.sender) ) ;\n    }\n\n    // // return 0 if success else return remaining time\n    function updateUpgradeProtector(address _owner) public returns(uint) {\n        if (ProtectorInstance.ownerStartUpgradeTime(_owner) == 0) return 0;\n        if (now >= ProtectorInstance.ownerStartUpgradeTime(_owner).add(ProtectorInstance.ownerUpgradeProtectorTime(_owner))) {\n            uint num;\n            num = ProtectorInstance.ownerUpgradeProtectorTime(_owner).div(  ProtectorInstance.levelOfProtector(_owner).mul(ProtectorInstance.UpgradeProtectorTime()) );\n            ProtectorInstance.setNumOfProtector(_owner, ProtectorInstance.numOfProtector(_owner) + (num));\n            ProtectorInstance.setStartUpgradeTime(_owner, 0);\n            ProtectorInstance.setUpgradeProtectorTime(_owner, 0);\n            ProtectorInstance._updateProtectorPower(_owner);\n            return 0;\n        }\n        else {\n            uint remainingTime = (ProtectorInstance.ownerStartUpgradeTime(_owner) + ProtectorInstance.ownerUpgradeProtectorTime(_owner)).sub(now);\n            return remainingTime;\n        }\n    }\n\n    function startUpgradeCannon() public returns(uint) {\n        address _owner = msg.sender;\n        if(CannonInstance.ownerStartUpgradeTime(_owner) != 0) return uint(0); // check if there is already creating Cannons\n        bool enoughResource;\n        uint lvOfCannon;\n        enoughResource = CannonInstance._UpgradeCannon(_owner);\n        lvOfCannon =  CannonInstance.levelOfCannon(_owner);\n        if(enoughResource == false) return uint(0);\n        CannonInstance.setStartUpgradeTime(_owner, uint(now));\n        CannonInstance.setUpgradeCannonTime(_owner, CannonInstance.UpgradeCannonTime() * lvOfCannon);\n        return CannonInstance.ownerUpgradeCannonTime(_owner);\n    }\n\n    function getUpgradeCannonTime() public view returns(uint, uint) {\n        return ( now - CannonInstance.ownerStartUpgradeTime(msg.sender), CannonInstance.ownerUpgradeCannonTime(msg.sender) ) ;\n    }\n\n    // // return 0 if success else return remaining time\n    function updateUpgradeCannon(address _owner) public returns(uint) {\n        if (CannonInstance.ownerStartUpgradeTime(_owner) == 0) return 0;\n        if (now >= CannonInstance.ownerStartUpgradeTime(_owner).add(CannonInstance.ownerUpgradeCannonTime(_owner))) {\n            uint num;\n            num = CannonInstance.ownerUpgradeCannonTime(_owner).div(  CannonInstance.levelOfCannon(_owner).mul(CannonInstance.UpgradeCannonTime()) );\n            CannonInstance.setNumOfCannon(_owner, CannonInstance.numOfCannon(_owner) + (num));\n            CannonInstance.setStartUpgradeTime(_owner, 0);\n            CannonInstance.setUpgradeCannonTime(_owner, 0);\n            CannonInstance._updateCannonPower(_owner);\n            return 0;\n        }\n        else {\n            uint remainingTime = (CannonInstance.ownerStartUpgradeTime(_owner) + CannonInstance.ownerUpgradeCannonTime(_owner)).sub(now);\n            return remainingTime;\n        }\n    }\n\n    function startUpgradeSpy() public returns(uint) {\n        address _owner = msg.sender;\n        if(SpyInstance.ownerStartUpgradeTime(_owner) != 0) return uint(0); // check if there is already creating Spys\n        bool enoughResource;\n        uint lvOfSpy;\n        enoughResource = SpyInstance._UpgradeSpy(_owner);\n        lvOfSpy =  SpyInstance.levelOfSpy(_owner);\n        if(enoughResource == false) return uint(0);\n        SpyInstance.setStartUpgradeTime(_owner, uint(now));\n        SpyInstance.setUpgradeSpyTime(_owner, SpyInstance.UpgradeSpyTime() * lvOfSpy);\n        return SpyInstance.ownerUpgradeSpyTime(_owner);\n    }\n\n    function getUpgradeSpyTime() public view returns(uint, uint) {\n        return ( now - SpyInstance.ownerStartUpgradeTime(msg.sender), SpyInstance.ownerUpgradeSpyTime(msg.sender) ) ;\n    }\n\n    // // return 0 if success else return remaining time\n    function updateUpgradeSpy(address _owner) public returns(uint) {\n        if (SpyInstance.ownerStartUpgradeTime(_owner) == 0) return 0;\n        if (now >= SpyInstance.ownerStartUpgradeTime(_owner).add(SpyInstance.ownerUpgradeSpyTime(_owner))) {\n            uint num;\n            num = SpyInstance.ownerUpgradeSpyTime(_owner).div(  SpyInstance.levelOfSpy(_owner).mul(SpyInstance.UpgradeSpyTime()) );\n            SpyInstance.setNumOfSpy(_owner, SpyInstance.numOfSpy(_owner) + (num));\n            SpyInstance.setStartUpgradeTime(_owner, 0);\n            SpyInstance.setUpgradeSpyTime(_owner, 0);\n            SpyInstance._updateSpyPower(_owner);\n            return 0;\n        }\n        else {\n            uint remainingTime = (SpyInstance.ownerStartUpgradeTime(_owner) + SpyInstance.ownerUpgradeSpyTime(_owner)).sub(now);\n            return remainingTime;\n        }\n    }\n}",
  "sourcePath": "/Users/seanwang0823/NMLab_Final/contracts/Laboratory.sol",
  "compiler": {
    "name": "solc",
    "version": "0.5.16+commit.9c3226ce.Emscripten.clang"
  },
  "schemaVersion": "3.4.0",
  "updatedAt": "2021-06-08T10:05:09.209Z",
  "networkType": "ethereum",
  "devdoc": {
    "methods": {}
  },
  "userdoc": {
    "methods": {}
  }
}