{
  "contractName": "Laboratory",
  "abi": [
    {
      "constant": true,
      "inputs": [
        {
          "internalType": "uint256",
          "name": "",
          "type": "uint256"
        }
      ],
      "name": "buildingToOwner",
      "outputs": [
        {
          "internalType": "address",
          "name": "",
          "type": "address"
        }
      ],
      "payable": false,
      "stateMutability": "view",
      "type": "function"
    },
    {
      "constant": true,
      "inputs": [
        {
          "internalType": "uint256",
          "name": "",
          "type": "uint256"
        }
      ],
      "name": "buildings",
      "outputs": [
        {
          "internalType": "string",
          "name": "name",
          "type": "string"
        },
        {
          "internalType": "uint256",
          "name": "placeX",
          "type": "uint256"
        },
        {
          "internalType": "uint256",
          "name": "placeY",
          "type": "uint256"
        },
        {
          "internalType": "uint256",
          "name": "level",
          "type": "uint256"
        }
      ],
      "payable": false,
      "stateMutability": "view",
      "type": "function"
    },
    {
      "constant": true,
      "inputs": [
        {
          "internalType": "uint256",
          "name": "",
          "type": "uint256"
        }
      ],
      "name": "castleToOwner",
      "outputs": [
        {
          "internalType": "address",
          "name": "",
          "type": "address"
        }
      ],
      "payable": false,
      "stateMutability": "view",
      "type": "function"
    },
    {
      "constant": true,
      "inputs": [],
      "name": "checkUserAddress",
      "outputs": [
        {
          "internalType": "bool",
          "name": "",
          "type": "bool"
        }
      ],
      "payable": false,
      "stateMutability": "view",
      "type": "function"
    },
    {
      "constant": true,
      "inputs": [
        {
          "internalType": "address",
          "name": "",
          "type": "address"
        }
      ],
      "name": "coinOwnerCount",
      "outputs": [
        {
          "internalType": "uint256",
          "name": "",
          "type": "uint256"
        }
      ],
      "payable": false,
      "stateMutability": "view",
      "type": "function"
    },
    {
      "constant": true,
      "inputs": [],
      "name": "createSpyTime",
      "outputs": [
        {
          "internalType": "uint256",
          "name": "",
          "type": "uint256"
        }
      ],
      "payable": false,
      "stateMutability": "view",
      "type": "function"
    },
    {
      "constant": true,
      "inputs": [
        {
          "internalType": "address",
          "name": "",
          "type": "address"
        }
      ],
      "name": "foodOwnerCount",
      "outputs": [
        {
          "internalType": "uint256",
          "name": "",
          "type": "uint256"
        }
      ],
      "payable": false,
      "stateMutability": "view",
      "type": "function"
    },
    {
      "constant": true,
      "inputs": [
        {
          "internalType": "uint256",
          "name": "idx",
          "type": "uint256"
        }
      ],
      "name": "getBuildingById",
      "outputs": [
        {
          "internalType": "bool",
          "name": "",
          "type": "bool"
        },
        {
          "internalType": "string",
          "name": "",
          "type": "string"
        },
        {
          "internalType": "uint256",
          "name": "",
          "type": "uint256"
        }
      ],
      "payable": false,
      "stateMutability": "view",
      "type": "function"
    },
    {
      "constant": true,
      "inputs": [
        {
          "internalType": "address",
          "name": "_owner",
          "type": "address"
        },
        {
          "internalType": "uint256",
          "name": "_placeX",
          "type": "uint256"
        },
        {
          "internalType": "uint256",
          "name": "_placeY",
          "type": "uint256"
        }
      ],
      "name": "getBuildingByOwner",
      "outputs": [
        {
          "internalType": "uint256",
          "name": "",
          "type": "uint256"
        },
        {
          "internalType": "string",
          "name": "",
          "type": "string"
        }
      ],
      "payable": false,
      "stateMutability": "view",
      "type": "function"
    },
    {
      "constant": true,
      "inputs": [
        {
          "internalType": "address",
          "name": "_owner",
          "type": "address"
        }
      ],
      "name": "getBuildingsByOwner",
      "outputs": [
        {
          "internalType": "uint256[]",
          "name": "",
          "type": "uint256[]"
        }
      ],
      "payable": false,
      "stateMutability": "view",
      "type": "function"
    },
    {
      "constant": true,
      "inputs": [],
      "name": "getBuildingsLen",
      "outputs": [
        {
          "internalType": "uint256",
          "name": "",
          "type": "uint256"
        }
      ],
      "payable": false,
      "stateMutability": "view",
      "type": "function"
    },
    {
      "constant": true,
      "inputs": [],
      "name": "getCoinAmount",
      "outputs": [
        {
          "internalType": "uint256",
          "name": "",
          "type": "uint256"
        }
      ],
      "payable": false,
      "stateMutability": "view",
      "type": "function"
    },
    {
      "constant": true,
      "inputs": [],
      "name": "getFoodAmount",
      "outputs": [
        {
          "internalType": "uint256",
          "name": "",
          "type": "uint256"
        }
      ],
      "payable": false,
      "stateMutability": "view",
      "type": "function"
    },
    {
      "constant": true,
      "inputs": [],
      "name": "getIronAmount",
      "outputs": [
        {
          "internalType": "uint256",
          "name": "",
          "type": "uint256"
        }
      ],
      "payable": false,
      "stateMutability": "view",
      "type": "function"
    },
    {
      "constant": true,
      "inputs": [],
      "name": "getKingdomAmount",
      "outputs": [
        {
          "internalType": "uint256",
          "name": "",
          "type": "uint256"
        }
      ],
      "payable": false,
      "stateMutability": "view",
      "type": "function"
    },
    {
      "constant": true,
      "inputs": [],
      "name": "getMyIdx",
      "outputs": [
        {
          "internalType": "uint256",
          "name": "",
          "type": "uint256"
        }
      ],
      "payable": false,
      "stateMutability": "view",
      "type": "function"
    },
    {
      "constant": true,
      "inputs": [
        {
          "internalType": "address",
          "name": "_owner",
          "type": "address"
        }
      ],
      "name": "getRemainingTime",
      "outputs": [
        {
          "internalType": "uint256",
          "name": "",
          "type": "uint256"
        }
      ],
      "payable": false,
      "stateMutability": "view",
      "type": "function"
    },
    {
      "constant": true,
      "inputs": [
        {
          "internalType": "address",
          "name": "_owner",
          "type": "address"
        },
        {
          "internalType": "string",
          "name": "_name",
          "type": "string"
        }
      ],
      "name": "getSpecificBuildingByOwner",
      "outputs": [
        {
          "internalType": "uint256[]",
          "name": "",
          "type": "uint256[]"
        }
      ],
      "payable": false,
      "stateMutability": "view",
      "type": "function"
    },
    {
      "constant": true,
      "inputs": [
        {
          "internalType": "address",
          "name": "_owner",
          "type": "address"
        }
      ],
      "name": "getSpyAmount",
      "outputs": [
        {
          "internalType": "uint256",
          "name": "",
          "type": "uint256"
        }
      ],
      "payable": false,
      "stateMutability": "view",
      "type": "function"
    },
    {
      "constant": true,
      "inputs": [],
      "name": "getStoneAmount",
      "outputs": [
        {
          "internalType": "uint256",
          "name": "",
          "type": "uint256"
        }
      ],
      "payable": false,
      "stateMutability": "view",
      "type": "function"
    },
    {
      "constant": true,
      "inputs": [
        {
          "internalType": "address",
          "name": "_owner",
          "type": "address"
        }
      ],
      "name": "getUpgradingId",
      "outputs": [
        {
          "internalType": "uint256",
          "name": "",
          "type": "uint256"
        }
      ],
      "payable": false,
      "stateMutability": "view",
      "type": "function"
    },
    {
      "constant": true,
      "inputs": [
        {
          "internalType": "uint256",
          "name": "idx",
          "type": "uint256"
        }
      ],
      "name": "getUserHealth",
      "outputs": [
        {
          "internalType": "uint256",
          "name": "",
          "type": "uint256"
        }
      ],
      "payable": false,
      "stateMutability": "view",
      "type": "function"
    },
    {
      "constant": true,
      "inputs": [
        {
          "internalType": "uint256",
          "name": "idx",
          "type": "uint256"
        }
      ],
      "name": "getUserPower",
      "outputs": [
        {
          "internalType": "uint256",
          "name": "",
          "type": "uint256"
        }
      ],
      "payable": false,
      "stateMutability": "view",
      "type": "function"
    },
    {
      "constant": true,
      "inputs": [
        {
          "internalType": "uint256",
          "name": "idx",
          "type": "uint256"
        }
      ],
      "name": "getUserSpyPower",
      "outputs": [
        {
          "internalType": "uint256",
          "name": "",
          "type": "uint256"
        }
      ],
      "payable": false,
      "stateMutability": "view",
      "type": "function"
    },
    {
      "constant": true,
      "inputs": [],
      "name": "getWoodAmount",
      "outputs": [
        {
          "internalType": "uint256",
          "name": "",
          "type": "uint256"
        }
      ],
      "payable": false,
      "stateMutability": "view",
      "type": "function"
    },
    {
      "constant": true,
      "inputs": [
        {
          "internalType": "address",
          "name": "",
          "type": "address"
        }
      ],
      "name": "health",
      "outputs": [
        {
          "internalType": "uint256",
          "name": "",
          "type": "uint256"
        }
      ],
      "payable": false,
      "stateMutability": "view",
      "type": "function"
    },
    {
      "constant": true,
      "inputs": [
        {
          "internalType": "address",
          "name": "",
          "type": "address"
        }
      ],
      "name": "ironOwnerCount",
      "outputs": [
        {
          "internalType": "uint256",
          "name": "",
          "type": "uint256"
        }
      ],
      "payable": false,
      "stateMutability": "view",
      "type": "function"
    },
    {
      "constant": true,
      "inputs": [],
      "name": "kingdomAmount",
      "outputs": [
        {
          "internalType": "uint256",
          "name": "",
          "type": "uint256"
        }
      ],
      "payable": false,
      "stateMutability": "view",
      "type": "function"
    },
    {
      "constant": true,
      "inputs": [
        {
          "internalType": "address",
          "name": "",
          "type": "address"
        }
      ],
      "name": "levelOfSpy",
      "outputs": [
        {
          "internalType": "uint256",
          "name": "",
          "type": "uint256"
        }
      ],
      "payable": false,
      "stateMutability": "view",
      "type": "function"
    },
    {
      "constant": true,
      "inputs": [],
      "name": "levelUpSpyTime",
      "outputs": [
        {
          "internalType": "uint256",
          "name": "",
          "type": "uint256"
        }
      ],
      "payable": false,
      "stateMutability": "view",
      "type": "function"
    },
    {
      "constant": true,
      "inputs": [
        {
          "internalType": "address",
          "name": "",
          "type": "address"
        }
      ],
      "name": "numOfSpy",
      "outputs": [
        {
          "internalType": "uint256",
          "name": "",
          "type": "uint256"
        }
      ],
      "payable": false,
      "stateMutability": "view",
      "type": "function"
    },
    {
      "constant": true,
      "inputs": [
        {
          "internalType": "address",
          "name": "",
          "type": "address"
        }
      ],
      "name": "ownerCastleCount",
      "outputs": [
        {
          "internalType": "uint256",
          "name": "",
          "type": "uint256"
        }
      ],
      "payable": false,
      "stateMutability": "view",
      "type": "function"
    },
    {
      "constant": true,
      "inputs": [
        {
          "internalType": "address",
          "name": "",
          "type": "address"
        }
      ],
      "name": "ownerCreateSpyTime",
      "outputs": [
        {
          "internalType": "uint256",
          "name": "",
          "type": "uint256"
        }
      ],
      "payable": false,
      "stateMutability": "view",
      "type": "function"
    },
    {
      "constant": true,
      "inputs": [
        {
          "internalType": "address",
          "name": "",
          "type": "address"
        }
      ],
      "name": "ownerStartCreateTime",
      "outputs": [
        {
          "internalType": "uint256",
          "name": "",
          "type": "uint256"
        }
      ],
      "payable": false,
      "stateMutability": "view",
      "type": "function"
    },
    {
      "constant": true,
      "inputs": [
        {
          "internalType": "address",
          "name": "",
          "type": "address"
        }
      ],
      "name": "ownerStartLevelUpTime",
      "outputs": [
        {
          "internalType": "uint256",
          "name": "",
          "type": "uint256"
        }
      ],
      "payable": false,
      "stateMutability": "view",
      "type": "function"
    },
    {
      "constant": true,
      "inputs": [
        {
          "internalType": "address",
          "name": "",
          "type": "address"
        }
      ],
      "name": "power",
      "outputs": [
        {
          "internalType": "uint256",
          "name": "",
          "type": "uint256"
        }
      ],
      "payable": false,
      "stateMutability": "view",
      "type": "function"
    },
    {
      "constant": false,
      "inputs": [
        {
          "internalType": "uint256",
          "name": "_ownerId",
          "type": "uint256"
        },
        {
          "internalType": "uint256",
          "name": "_attackedCastleId",
          "type": "uint256"
        }
      ],
      "name": "sendSpy",
      "outputs": [
        {
          "internalType": "bool",
          "name": "",
          "type": "bool"
        }
      ],
      "payable": false,
      "stateMutability": "nonpayable",
      "type": "function"
    },
    {
      "constant": true,
      "inputs": [
        {
          "internalType": "address",
          "name": "",
          "type": "address"
        }
      ],
      "name": "spyPower",
      "outputs": [
        {
          "internalType": "uint256",
          "name": "",
          "type": "uint256"
        }
      ],
      "payable": false,
      "stateMutability": "view",
      "type": "function"
    },
    {
      "constant": false,
      "inputs": [
        {
          "internalType": "address",
          "name": "_owner",
          "type": "address"
        },
        {
          "internalType": "uint256",
          "name": "_x",
          "type": "uint256"
        },
        {
          "internalType": "uint256",
          "name": "_y",
          "type": "uint256"
        }
      ],
      "name": "startBuild",
      "outputs": [
        {
          "internalType": "uint256",
          "name": "",
          "type": "uint256"
        }
      ],
      "payable": false,
      "stateMutability": "nonpayable",
      "type": "function"
    },
    {
      "constant": true,
      "inputs": [
        {
          "internalType": "address",
          "name": "",
          "type": "address"
        }
      ],
      "name": "stoneOwnerCount",
      "outputs": [
        {
          "internalType": "uint256",
          "name": "",
          "type": "uint256"
        }
      ],
      "payable": false,
      "stateMutability": "view",
      "type": "function"
    },
    {
      "constant": false,
      "inputs": [
        {
          "internalType": "address",
          "name": "_owner",
          "type": "address"
        }
      ],
      "name": "updateBuild",
      "outputs": [
        {
          "internalType": "uint256",
          "name": "",
          "type": "uint256"
        }
      ],
      "payable": false,
      "stateMutability": "nonpayable",
      "type": "function"
    },
    {
      "constant": true,
      "inputs": [
        {
          "internalType": "address",
          "name": "",
          "type": "address"
        }
      ],
      "name": "woodOwnerCount",
      "outputs": [
        {
          "internalType": "uint256",
          "name": "",
          "type": "uint256"
        }
      ],
      "payable": false,
      "stateMutability": "view",
      "type": "function"
    },
    {
      "constant": false,
      "inputs": [
        {
          "internalType": "uint256",
          "name": "_x",
          "type": "uint256"
        },
        {
          "internalType": "uint256",
          "name": "_y",
          "type": "uint256"
        }
      ],
      "name": "createLaboratory",
      "outputs": [],
      "payable": false,
      "stateMutability": "nonpayable",
      "type": "function"
    },
    {
      "constant": false,
      "inputs": [
        {
          "internalType": "uint256",
          "name": "number",
          "type": "uint256"
        }
      ],
      "name": "startCreateSpy",
      "outputs": [
        {
          "internalType": "uint256",
          "name": "",
          "type": "uint256"
        }
      ],
      "payable": false,
      "stateMutability": "nonpayable",
      "type": "function"
    },
    {
      "constant": true,
      "inputs": [],
      "name": "getCreateSpyTime",
      "outputs": [
        {
          "internalType": "uint256",
          "name": "",
          "type": "uint256"
        },
        {
          "internalType": "uint256",
          "name": "",
          "type": "uint256"
        }
      ],
      "payable": false,
      "stateMutability": "view",
      "type": "function"
    },
    {
      "constant": false,
      "inputs": [
        {
          "internalType": "address",
          "name": "_owner",
          "type": "address"
        }
      ],
      "name": "updateCreateSpy",
      "outputs": [
        {
          "internalType": "uint256",
          "name": "",
          "type": "uint256"
        }
      ],
      "payable": false,
      "stateMutability": "nonpayable",
      "type": "function"
    }
  ],
  "bytecode": "0x60806040526010600b55600b54600a0a600c55600a600d556064600f55600a602155600a60225534801561003257600080fd5b50614675806100426000396000f3fe608060405234801561001057600080fd5b506004361061028a5760003560e01c806382a418281161015c578063ccf358a4116100ce578063e5b285f211610087578063e5b285f214610faa578063e9933a4b14611002578063ef78b6dc1461105a578063f4ab27f0146110b2578063fd8ccf2714611120578063ff4581f11461113e5761028a565b8063ccf358a414610dd4578063db2ace2a14610df2578063de63415214610e4a578063e21843fd14610ea2578063e2d8ebee14610efa578063e428afa014610f525761028a565b80639073af81116101205780639073af8114610c00578063aba19ece14610c58578063ad1c89cc14610cc4578063af3437ae14610ce2578063b5c3e40214610d3a578063c8b4eeff14610d925761028a565b806382a41828146109d3578063834af9b614610a6c578063842a89fa14610aae578063867b84e214610b865780638919a9ca14610bde5761028a565b80634807c3d511610200578063623e9ba6116101b9578063623e9ba61461088757806369cddf1d146108a5578063789630be146108fd57806378eb4df41461091b5780637e2b875b1461095d5780638226e5301461097b5761028a565b80634807c3d5146106715780634c96a0621461068f578063503371a51461074b5780635192b291146107a357806356074209146108115780635ad60993146108695761028a565b80631a653e8b116102525780631a653e8b146104335780631c980beb146104515780632c79c5231461046f578063323a46861461059f57806337237970146105e157806346125f84146106195761028a565b80630194b6131461028f5780630acdea6f146102df5780630e85117a146103045780630f130a391461035c578063194c717b14610415575b600080fd5b6102c5600480360360408110156102a557600080fd5b810190808035906020019092919080359060200190929190505050611196565b604051808215151515815260200191505060405180910390f35b6102e7611287565b604051808381526020018281526020019250505060405180910390f35b6103466004803603602081101561031a57600080fd5b81019080803573ffffffffffffffffffffffffffffffffffffffff169060200190929190505050611314565b6040518082815260200191505060405180910390f35b6103886004803603602081101561037257600080fd5b8101908080359060200190929190505050611490565b604051808415151515815260200180602001838152602001828103825284818151815260200191508051906020019080838360005b838110156103d85780820151818401526020810190506103bd565b50505050905090810190601f1680156104055780820380516001836020036101000a031916815260200191505b5094505050505060405180910390f35b61041d6115d3565b6040518082815260200191505060405180910390f35b61043b6115d9565b6040518082815260200191505060405180910390f35b6104596115df565b6040518082815260200191505060405180910390f35b6105486004803603604081101561048557600080fd5b81019080803573ffffffffffffffffffffffffffffffffffffffff169060200190929190803590602001906401000000008111156104c257600080fd5b8201836020820111156104d457600080fd5b803590602001918460018302840111640100000000831117156104f657600080fd5b91908080601f016020809104026020016040519081016040528093929190818152602001838380828437600081840152601f19601f820116905080830192505050505050509192919290505050611625565b6040518080602001828103825283818151815260200191508051906020019060200280838360005b8381101561058b578082015181840152602081019050610570565b505050509050019250505060405180910390f35b6105cb600480360360208110156105b557600080fd5b8101908080359060200190929190505050611c53565b6040518082815260200191505060405180910390f35b610617600480360360408110156105f757600080fd5b810190808035906020019092919080359060200190929190505050611ce3565b005b61065b6004803603602081101561062f57600080fd5b81019080803573ffffffffffffffffffffffffffffffffffffffff169060200190929190505050611d6e565b6040518082815260200191505060405180910390f35b610679611d86565b6040518082815260200191505060405180910390f35b6106bb600480360360208110156106a557600080fd5b8101908080359060200190929190505050611d8c565b6040518080602001858152602001848152602001838152602001828103825286818151815260200191508051906020019080838360005b8381101561070d5780820151818401526020810190506106f2565b50505050905090810190601f16801561073a5780820380516001836020036101000a031916815260200191505b509550505050505060405180910390f35b61078d6004803603602081101561076157600080fd5b81019080803573ffffffffffffffffffffffffffffffffffffffff169060200190929190505050611e61565b6040518082815260200191505060405180910390f35b6107cf600480360360208110156107b957600080fd5b8101908080359060200190929190505050611e79565b604051808273ffffffffffffffffffffffffffffffffffffffff1673ffffffffffffffffffffffffffffffffffffffff16815260200191505060405180910390f35b6108536004803603602081101561082757600080fd5b81019080803573ffffffffffffffffffffffffffffffffffffffff169060200190929190505050611eac565b6040518082815260200191505060405180910390f35b610871612106565b6040518082815260200191505060405180910390f35b61088f61214d565b6040518082815260200191505060405180910390f35b6108e7600480360360208110156108bb57600080fd5b81019080803573ffffffffffffffffffffffffffffffffffffffff169060200190929190505050612194565b6040518082815260200191505060405180910390f35b6109056124e9565b6040518082815260200191505060405180910390f35b6109476004803603602081101561093157600080fd5b8101908080359060200190929190505050612580565b6040518082815260200191505060405180910390f35b61096561271a565b6040518082815260200191505060405180910390f35b6109bd6004803603602081101561099157600080fd5b81019080803573ffffffffffffffffffffffffffffffffffffffff169060200190929190505050612724565b6040518082815260200191505060405180910390f35b610a15600480360360208110156109e957600080fd5b81019080803573ffffffffffffffffffffffffffffffffffffffff16906020019092919050505061273c565b6040518080602001828103825283818151815260200191508051906020019060200280838360005b83811015610a58578082015181840152602081019050610a3d565b505050509050019250505060405180910390f35b610a9860048036036020811015610a8257600080fd5b81019080803590602001909291905050506129fd565b6040518082815260200191505060405180910390f35b610b0460048036036060811015610ac457600080fd5b81019080803573ffffffffffffffffffffffffffffffffffffffff1690602001909291908035906020019092919080359060200190929190505050612a8d565b6040518083815260200180602001828103825283818151815260200191508051906020019080838360005b83811015610b4a578082015181840152602081019050610b2f565b50505050905090810190601f168015610b775780820380516001836020036101000a031916815260200191505b50935050505060405180910390f35b610bc860048036036020811015610b9c57600080fd5b81019080803573ffffffffffffffffffffffffffffffffffffffff169060200190929190505050612c76565b6040518082815260200191505060405180910390f35b610be6612c8e565b604051808215151515815260200191505060405180910390f35b610c4260048036036020811015610c1657600080fd5b81019080803573ffffffffffffffffffffffffffffffffffffffff169060200190929190505050612ce8565b6040518082815260200191505060405180910390f35b610cae60048036036060811015610c6e57600080fd5b81019080803573ffffffffffffffffffffffffffffffffffffffff1690602001909291908035906020019092919080359060200190929190505050612d00565b6040518082815260200191505060405180910390f35b610ccc612f2a565b6040518082815260200191505060405180910390f35b610d2460048036036020811015610cf857600080fd5b81019080803573ffffffffffffffffffffffffffffffffffffffff169060200190929190505050612f37565b6040518082815260200191505060405180910390f35b610d7c60048036036020811015610d5057600080fd5b81019080803573ffffffffffffffffffffffffffffffffffffffff169060200190929190505050612f4f565b6040518082815260200191505060405180910390f35b610dbe60048036036020811015610da857600080fd5b8101908080359060200190929190505050612f67565b6040518082815260200191505060405180910390f35b610ddc612ff7565b6040518082815260200191505060405180910390f35b610e3460048036036020811015610e0857600080fd5b81019080803573ffffffffffffffffffffffffffffffffffffffff16906020019092919050505061303e565b6040518082815260200191505060405180910390f35b610e8c60048036036020811015610e6057600080fd5b81019080803573ffffffffffffffffffffffffffffffffffffffff169060200190929190505050613087565b6040518082815260200191505060405180910390f35b610ee460048036036020811015610eb857600080fd5b81019080803573ffffffffffffffffffffffffffffffffffffffff16906020019092919050505061309f565b6040518082815260200191505060405180910390f35b610f3c60048036036020811015610f1057600080fd5b81019080803573ffffffffffffffffffffffffffffffffffffffff1690602001909291905050506130e8565b6040518082815260200191505060405180910390f35b610f9460048036036020811015610f6857600080fd5b81019080803573ffffffffffffffffffffffffffffffffffffffff169060200190929190505050613100565b6040518082815260200191505060405180910390f35b610fec60048036036020811015610fc057600080fd5b81019080803573ffffffffffffffffffffffffffffffffffffffff169060200190929190505050613118565b6040518082815260200191505060405180910390f35b6110446004803603602081101561101857600080fd5b81019080803573ffffffffffffffffffffffffffffffffffffffff169060200190929190505050613130565b6040518082815260200191505060405180910390f35b61109c6004803603602081101561107057600080fd5b81019080803573ffffffffffffffffffffffffffffffffffffffff169060200190929190505050613148565b6040518082815260200191505060405180910390f35b6110de600480360360208110156110c857600080fd5b8101908080359060200190929190505050613160565b604051808273ffffffffffffffffffffffffffffffffffffffff1673ffffffffffffffffffffffffffffffffffffffff16815260200191505060405180910390f35b611128613193565b6040518082815260200191505060405180910390f35b6111806004803603602081101561115457600080fd5b81019080803573ffffffffffffffffffffffffffffffffffffffff1690602001909291905050506131da565b6040518082815260200191505060405180910390f35b60006009600084815260200190815260200160002060009054906101000a900473ffffffffffffffffffffffffffffffffffffffff1673ffffffffffffffffffffffffffffffffffffffff163373ffffffffffffffffffffffffffffffffffffffff161461120357600080fd5b60006009600085815260200190815260200160002060009054906101000a900473ffffffffffffffffffffffffffffffffffffffff16905060006009600085815260200190815260200160002060009054906101000a900473ffffffffffffffffffffffffffffffffffffffff16905061127d82826131f1565b9250505092915050565b600080601e60003373ffffffffffffffffffffffffffffffffffffffff1673ffffffffffffffffffffffffffffffffffffffff168152602001908152602001600020544203601f60003373ffffffffffffffffffffffffffffffffffffffff1673ffffffffffffffffffffffffffffffffffffffff16815260200190815260200160002054915091509091565b600080601260008473ffffffffffffffffffffffffffffffffffffffff1673ffffffffffffffffffffffffffffffffffffffff1681526020019081526020016000205490506000601160008573ffffffffffffffffffffffffffffffffffffffff1673ffffffffffffffffffffffffffffffffffffffff168152602001908152602001600020541415801561140c5750600d54600e82815481106113b457fe5b90600052602060002090600402016003015402601160008573ffffffffffffffffffffffffffffffffffffffff1673ffffffffffffffffffffffffffffffffffffffff16815260200190815260200160002054014210155b1561141b57600091505061148b565b600042600d54600e848154811061142e57fe5b90600052602060002090600402016003015402601160008773ffffffffffffffffffffffffffffffffffffffff1673ffffffffffffffffffffffffffffffffffffffff168152602001908152602001600020540103905080925050505b919050565b600060606000600e8054905084106114ea576000806040518060400160405280601381526020017f696e76616c6964206275696c64696e6720696400000000000000000000000000815250908090509250925092506115cc565b6001600e85815481106114f957fe5b9060005260206000209060040201600001600e868154811061151757fe5b906000526020600020906004020160030154818054600181600116156101000203166002900480601f0160208091040260200160405190810160405280929190818152602001828054600181600116156101000203166002900480156115be5780601f10611593576101008083540402835291602001916115be565b820191906000526020600020905b8154815290600101906020018083116115a157829003601f168201915b505050505091509250925092505b9193909250565b60085481565b60225481565b60008060003373ffffffffffffffffffffffffffffffffffffffff1673ffffffffffffffffffffffffffffffffffffffff16815260200190815260200160002054905090565b606060008090506040518060400160405280600481526020017f4661726d0000000000000000000000000000000000000000000000000000000081525080519060200120838051906020012014156116be57601460008573ffffffffffffffffffffffffffffffffffffffff1673ffffffffffffffffffffffffffffffffffffffff168152602001908152602001600020549050611abf565b6040518060400160405280600481526020017f4d696e6500000000000000000000000000000000000000000000000000000000815250805190602001208380519060200120141561175057601560008573ffffffffffffffffffffffffffffffffffffffff1673ffffffffffffffffffffffffffffffffffffffff168152602001908152602001600020549050611abe565b6040518060400160405280600581526020017f4d616e6f7200000000000000000000000000000000000000000000000000000081525080519060200120838051906020012014156117e257601660008573ffffffffffffffffffffffffffffffffffffffff1673ffffffffffffffffffffffffffffffffffffffff168152602001908152602001600020549050611abd565b6040518060400160405280600681526020017f5175617272790000000000000000000000000000000000000000000000000000815250805190602001208380519060200120141561187457601760008573ffffffffffffffffffffffffffffffffffffffff1673ffffffffffffffffffffffffffffffffffffffff168152602001908152602001600020549050611abc565b6040518060400160405280600781526020017f5361776d696c6c00000000000000000000000000000000000000000000000000815250805190602001208380519060200120141561190657601860008573ffffffffffffffffffffffffffffffffffffffff1673ffffffffffffffffffffffffffffffffffffffff168152602001908152602001600020549050611abb565b6040518060400160405280600681526020017f43656c6c61720000000000000000000000000000000000000000000000000000815250805190602001208380519060200120141561199857601960008573ffffffffffffffffffffffffffffffffffffffff1673ffffffffffffffffffffffffffffffffffffffff168152602001908152602001600020549050611aba565b6040518060400160405280600781526020017f4261727261636b000000000000000000000000000000000000000000000000008152508051906020012083805190602001201415611a2a57601a60008573ffffffffffffffffffffffffffffffffffffffff1673ffffffffffffffffffffffffffffffffffffffff168152602001908152602001600020549050611ab9565b6040518060400160405280600a81526020017f4c61626f7261746f7279000000000000000000000000000000000000000000008152508051906020012083805190602001201415611ab857601b60008573ffffffffffffffffffffffffffffffffffffffff1673ffffffffffffffffffffffffffffffffffffffff1681526020019081526020016000205490505b5b5b5b5b5b5b5b606081604051908082528060200260200182016040528015611af05781602001602082028038833980820191505090505b509050600080905060008090505b600e80549050811015611c46578673ffffffffffffffffffffffffffffffffffffffff166010600083815260200190815260200160002060009054906101000a900473ffffffffffffffffffffffffffffffffffffffff1673ffffffffffffffffffffffffffffffffffffffff16148015611c0457508580519060200120600e8281548110611b8957fe5b90600052602060002090600402016000016040518082805460018160011615610100020316600290048015611bf55780601f10611bd3576101008083540402835291820191611bf5565b820191906000526020600020905b815481529060010190602001808311611be1575b50509150506040518091039020145b15611c395780838381518110611c1657fe5b602002602001018181525050611c366001836132a390919063ffffffff16565b91505b8080600101915050611afe565b5081935050505092915050565b6000600854821015611cd957600760006009600085815260200190815260200160002060009054906101000a900473ffffffffffffffffffffffffffffffffffffffff1673ffffffffffffffffffffffffffffffffffffffff1673ffffffffffffffffffffffffffffffffffffffff168152602001908152602001600020549050611cde565b600090505b919050565b611d24336040518060400160405280600a81526020017f4c61626f7261746f727900000000000000000000000000000000000000000000815250848461332b565b506001601d60003373ffffffffffffffffffffffffffffffffffffffff1673ffffffffffffffffffffffffffffffffffffffff168152602001908152602001600020819055505050565b600a6020528060005260406000206000915090505481565b60215481565b600e8181548110611d9957fe5b9060005260206000209060040201600091509050806000018054600181600116156101000203166002900480601f016020809104026020016040519081016040528092919081815260200182805460018160011615610100020316600290048015611e455780601f10611e1a57610100808354040283529160200191611e45565b820191906000526020600020905b815481529060010190602001808311611e2857829003601f168201915b5050505050908060010154908060020154908060030154905084565b60056020528060005260406000206000915090505481565b60106020528060005260406000206000915054906101000a900473ffffffffffffffffffffffffffffffffffffffff1681565b600080601260008473ffffffffffffffffffffffffffffffffffffffff1673ffffffffffffffffffffffffffffffffffffffff1681526020019081526020016000205490506000601160008573ffffffffffffffffffffffffffffffffffffffff1673ffffffffffffffffffffffffffffffffffffffff1681526020019081526020016000205414158015611fa45750600d54600e8281548110611f4c57fe5b90600052602060002090600402016003015402601160008573ffffffffffffffffffffffffffffffffffffffff1673ffffffffffffffffffffffffffffffffffffffff16815260200190815260200160002054014210155b1561209157611fdb6001600e8381548110611fbb57fe5b9060005260206000209060040201600301546132a390919063ffffffff16565b600e8281548110611fe857fe5b9060005260206000209060040201600301819055506000601160008573ffffffffffffffffffffffffffffffffffffffff1673ffffffffffffffffffffffffffffffffffffffff168152602001908152602001600020819055506000601260008573ffffffffffffffffffffffffffffffffffffffff1673ffffffffffffffffffffffffffffffffffffffff168152602001908152602001600020819055506000915050612101565b600042600d54600e84815481106120a457fe5b90600052602060002090600402016003015402601160008773ffffffffffffffffffffffffffffffffffffffff1673ffffffffffffffffffffffffffffffffffffffff168152602001908152602001600020540103905080925050505b919050565b6000600260003373ffffffffffffffffffffffffffffffffffffffff1673ffffffffffffffffffffffffffffffffffffffff16815260200190815260200160002054905090565b6000600360003373ffffffffffffffffffffffffffffffffffffffff1673ffffffffffffffffffffffffffffffffffffffff16815260200190815260200160002054905090565b600080601e60008473ffffffffffffffffffffffffffffffffffffffff1673ffffffffffffffffffffffffffffffffffffffff1681526020019081526020016000205414156121e657600090506124e4565b612277601f60008473ffffffffffffffffffffffffffffffffffffffff1673ffffffffffffffffffffffffffffffffffffffff16815260200190815260200160002054601e60008573ffffffffffffffffffffffffffffffffffffffff1673ffffffffffffffffffffffffffffffffffffffff168152602001908152602001600020546132a390919063ffffffff16565b42106124485760006123246122d6602154601d60008773ffffffffffffffffffffffffffffffffffffffff1673ffffffffffffffffffffffffffffffffffffffff16815260200190815260200160002054613c9f90919063ffffffff16565b601f60008673ffffffffffffffffffffffffffffffffffffffff1673ffffffffffffffffffffffffffffffffffffffff16815260200190815260200160002054613d2590919063ffffffff16565b905080601c60008573ffffffffffffffffffffffffffffffffffffffff1673ffffffffffffffffffffffffffffffffffffffff1681526020019081526020016000205401601c60008573ffffffffffffffffffffffffffffffffffffffff1673ffffffffffffffffffffffffffffffffffffffff168152602001908152602001600020819055506000601e60008573ffffffffffffffffffffffffffffffffffffffff1673ffffffffffffffffffffffffffffffffffffffff168152602001908152602001600020819055506000601f60008573ffffffffffffffffffffffffffffffffffffffff1673ffffffffffffffffffffffffffffffffffffffff1681526020019081526020016000208190555061243e83613d6f565b60009150506124e4565b60006124dd42601f60008673ffffffffffffffffffffffffffffffffffffffff1673ffffffffffffffffffffffffffffffffffffffff16815260200190815260200160002054601e60008773ffffffffffffffffffffffffffffffffffffffff1673ffffffffffffffffffffffffffffffffffffffff1681526020019081526020016000205401613e3690919063ffffffff16565b9050809150505b919050565b600080600090505b600854811015612576573373ffffffffffffffffffffffffffffffffffffffff166009600083815260200190815260200160002060009054906101000a900473ffffffffffffffffffffffffffffffffffffffff1673ffffffffffffffffffffffffffffffffffffffff16141561256b578091505061257d565b8060010190506124f1565b5060085490505b90565b6000803390506000601e60008373ffffffffffffffffffffffffffffffffffffffff1673ffffffffffffffffffffffffffffffffffffffff16815260200190815260200160002054146125d7576000915050612715565b6000806125e48386613e80565b9150601d60008473ffffffffffffffffffffffffffffffffffffffff1673ffffffffffffffffffffffffffffffffffffffff1681526020019081526020016000205490506000151582151514156126415760009350505050612715565b42601e60008573ffffffffffffffffffffffffffffffffffffffff1673ffffffffffffffffffffffffffffffffffffffff1681526020019081526020016000208190555084816021540202601f60008573ffffffffffffffffffffffffffffffffffffffff1673ffffffffffffffffffffffffffffffffffffffff16815260200190815260200160002081905550601f60008473ffffffffffffffffffffffffffffffffffffffff1673ffffffffffffffffffffffffffffffffffffffff1681526020019081526020016000205493505050505b919050565b6000600854905090565b60016020528060005260406000206000915090505481565b606080601a60008473ffffffffffffffffffffffffffffffffffffffff1673ffffffffffffffffffffffffffffffffffffffff16815260200190815260200160002054601960008573ffffffffffffffffffffffffffffffffffffffff1673ffffffffffffffffffffffffffffffffffffffff16815260200190815260200160002054601860008673ffffffffffffffffffffffffffffffffffffffff1673ffffffffffffffffffffffffffffffffffffffff16815260200190815260200160002054601760008773ffffffffffffffffffffffffffffffffffffffff1673ffffffffffffffffffffffffffffffffffffffff16815260200190815260200160002054601660008873ffffffffffffffffffffffffffffffffffffffff1673ffffffffffffffffffffffffffffffffffffffff16815260200190815260200160002054601560008973ffffffffffffffffffffffffffffffffffffffff1673ffffffffffffffffffffffffffffffffffffffff16815260200190815260200160002054601460008a73ffffffffffffffffffffffffffffffffffffffff1673ffffffffffffffffffffffffffffffffffffffff168152602001908152602001600020540101010101016040519080825280602002602001820160405280156129335781602001602082028038833980820191505090505b509050600080905060008090505b600e805490508110156129f2578473ffffffffffffffffffffffffffffffffffffffff166010600083815260200190815260200160002060009054906101000a900473ffffffffffffffffffffffffffffffffffffffff1673ffffffffffffffffffffffffffffffffffffffff1614156129e557808383815181106129c257fe5b6020026020010181815250506129e26001836132a390919063ffffffff16565b91505b8080600101915050612941565b508192505050919050565b6000600854821015612a8357600660006009600085815260200190815260200160002060009054906101000a900473ffffffffffffffffffffffffffffffffffffffff1673ffffffffffffffffffffffffffffffffffffffff1673ffffffffffffffffffffffffffffffffffffffff168152602001908152602001600020549050612a88565b600090505b919050565b6000606060008090505b600e80549050811015612c2d578573ffffffffffffffffffffffffffffffffffffffff166010600083815260200190815260200160002060009054906101000a900473ffffffffffffffffffffffffffffffffffffffff1673ffffffffffffffffffffffffffffffffffffffff161415612c205784600e8281548110612b1957fe5b906000526020600020906004020160010154148015612b55575083600e8281548110612b4157fe5b906000526020600020906004020160020154145b15612c1f5780600e8281548110612b6857fe5b9060005260206000209060040201600001808054600181600116156101000203166002900480601f016020809104026020016040519081016040528092919081815260200182805460018160011615610100020316600290048015612c0e5780601f10612be357610100808354040283529160200191612c0e565b820191906000526020600020905b815481529060010190602001808311612bf157829003601f168201915b505050505090509250925050612c6e565b5b8080600101915050612a97565b60008090506040518060400160405280600481526020017f4e6f6e650000000000000000000000000000000000000000000000000000000081525092509250505b935093915050565b60046020528060005260406000206000915090505481565b600080600a60003373ffffffffffffffffffffffffffffffffffffffff1673ffffffffffffffffffffffffffffffffffffffff168152602001908152602001600020541115612ce05760019050612ce5565b600090505b90565b601e6020528060005260406000206000915090505481565b600080612d0e858585612a8d565b50809150506000811415612d26576000915050612f23565b6040518060400160405280600681526020017f436173746c65000000000000000000000000000000000000000000000000000081525080519060200120600e8281548110612d7057fe5b90600052602060002090600402016000016040518082805460018160011615610100020316600290048015612ddc5780601f10612dba576101008083540402835291820191612ddc565b820191906000526020600020905b815481529060010190602001808311612dc8575b5050915050604051809103902050506000601160008773ffffffffffffffffffffffffffffffffffffffff1673ffffffffffffffffffffffffffffffffffffffff1681526020019081526020016000205414612e3c576000915050612f23565b80601260008773ffffffffffffffffffffffffffffffffffffffff1673ffffffffffffffffffffffffffffffffffffffff1681526020019081526020016000208190555042601160008773ffffffffffffffffffffffffffffffffffffffff1673ffffffffffffffffffffffffffffffffffffffff168152602001908152602001600020819055506000600f54600e8381548110612ed657fe5b906000526020600020906004020160030154029050612efa86600083848586613f80565b50600d54600e8381548110612f0b57fe5b90600052602060002090600402016003015402925050505b9392505050565b6000600e80549050905090565b601c6020528060005260406000206000915090505481565b601f6020528060005260406000206000915090505481565b6000600854821015612fed57600560006009600085815260200190815260200160002060009054906101000a900473ffffffffffffffffffffffffffffffffffffffff1673ffffffffffffffffffffffffffffffffffffffff1673ffffffffffffffffffffffffffffffffffffffff168152602001908152602001600020549050612ff2565b600090505b919050565b6000600460003373ffffffffffffffffffffffffffffffffffffffff1673ffffffffffffffffffffffffffffffffffffffff16815260200190815260200160002054905090565b6000601260008373ffffffffffffffffffffffffffffffffffffffff1673ffffffffffffffffffffffffffffffffffffffff168152602001908152602001600020549050919050565b601d6020528060005260406000206000915090505481565b6000601c60008373ffffffffffffffffffffffffffffffffffffffff1673ffffffffffffffffffffffffffffffffffffffff168152602001908152602001600020549050919050565b60066020528060005260406000206000915090505481565b60006020528060005260406000206000915090505481565b60026020528060005260406000206000915090505481565b60076020528060005260406000206000915090505481565b60036020528060005260406000206000915090505481565b60096020528060005260406000206000915054906101000a900473ffffffffffffffffffffffffffffffffffffffff1681565b6000600160003373ffffffffffffffffffffffffffffffffffffffff1673ffffffffffffffffffffffffffffffffffffffff16815260200190815260200160002054905090565b602080528060005260406000206000915090505481565b600080600080600760008673ffffffffffffffffffffffffffffffffffffffff1673ffffffffffffffffffffffffffffffffffffffff16815260200190815260200160002054600760008873ffffffffffffffffffffffffffffffffffffffff1673ffffffffffffffffffffffffffffffffffffffff16815260200190815260200160002054111561328c5785925084915060019050613297565b849250859150600090505b80935050505092915050565b600080828401905083811015613321576040517f08c379a000000000000000000000000000000000000000000000000000000000815260040180806020018281038252601b8152602001807f536166654d6174683a206164646974696f6e206f766572666c6f77000000000081525060200191505060405180910390fd5b8091505092915050565b600080600e80549050141561345357600e60405180608001604052806040518060400160405280600f81526020017f66697273745f6275696c64696e67210000000000000000000000000000000000815250815260200160008152602001600081526020016103e88152509080600181540180825580915050906001820390600052602060002090600402016000909192909190915060008201518160000190805190602001906133dd92919061457a565b5060208201518160010155604082015181600201556060820151816003015550505060006010600080815260200190815260200160002060006101000a81548173ffffffffffffffffffffffffffffffffffffffff021916908373ffffffffffffffffffffffffffffffffffffffff1602179055505b60006134f46001600e604051806080016040528089815260200188815260200187815260200160018152509080600181540180825580915050906001820390600052602060002090600402016000909192909190915060008201518160000190805190602001906134c592919061457a565b506020820151816001015560408201518160020155606082015181600301555050613e3690919063ffffffff16565b905061350d866000600f54600f54600f54600f54613f80565b50856010600083815260200190815260200160002060006101000a81548173ffffffffffffffffffffffffffffffffffffffff021916908373ffffffffffffffffffffffffffffffffffffffff1602179055506040518060400160405280600481526020017f4661726d000000000000000000000000000000000000000000000000000000008152508051906020012085805190602001201415613646576135fe6001601460008973ffffffffffffffffffffffffffffffffffffffff1673ffffffffffffffffffffffffffffffffffffffff168152602001908152602001600020546132a390919063ffffffff16565b601460008873ffffffffffffffffffffffffffffffffffffffff1673ffffffffffffffffffffffffffffffffffffffff16815260200190815260200160002081905550613c93565b6040518060400160405280600481526020017f4d696e6500000000000000000000000000000000000000000000000000000000815250805190602001208580519060200120141561372c576136e46001601560008973ffffffffffffffffffffffffffffffffffffffff1673ffffffffffffffffffffffffffffffffffffffff168152602001908152602001600020546132a390919063ffffffff16565b601560008873ffffffffffffffffffffffffffffffffffffffff1673ffffffffffffffffffffffffffffffffffffffff16815260200190815260200160002081905550613c92565b6040518060400160405280600581526020017f4d616e6f720000000000000000000000000000000000000000000000000000008152508051906020012085805190602001201415613812576137ca6001601660008973ffffffffffffffffffffffffffffffffffffffff1673ffffffffffffffffffffffffffffffffffffffff168152602001908152602001600020546132a390919063ffffffff16565b601660008873ffffffffffffffffffffffffffffffffffffffff1673ffffffffffffffffffffffffffffffffffffffff16815260200190815260200160002081905550613c91565b6040518060400160405280600681526020017f517561727279000000000000000000000000000000000000000000000000000081525080519060200120858051906020012014156138f8576138b06001601760008973ffffffffffffffffffffffffffffffffffffffff1673ffffffffffffffffffffffffffffffffffffffff168152602001908152602001600020546132a390919063ffffffff16565b601760008873ffffffffffffffffffffffffffffffffffffffff1673ffffffffffffffffffffffffffffffffffffffff16815260200190815260200160002081905550613c90565b6040518060400160405280600781526020017f5361776d696c6c0000000000000000000000000000000000000000000000000081525080519060200120858051906020012014156139de576139966001601860008973ffffffffffffffffffffffffffffffffffffffff1673ffffffffffffffffffffffffffffffffffffffff168152602001908152602001600020546132a390919063ffffffff16565b601860008873ffffffffffffffffffffffffffffffffffffffff1673ffffffffffffffffffffffffffffffffffffffff16815260200190815260200160002081905550613c8f565b6040518060400160405280600681526020017f43656c6c617200000000000000000000000000000000000000000000000000008152508051906020012085805190602001201415613ac457613a7c6001601960008973ffffffffffffffffffffffffffffffffffffffff1673ffffffffffffffffffffffffffffffffffffffff168152602001908152602001600020546132a390919063ffffffff16565b601960008873ffffffffffffffffffffffffffffffffffffffff1673ffffffffffffffffffffffffffffffffffffffff16815260200190815260200160002081905550613c8e565b6040518060400160405280600781526020017f4261727261636b000000000000000000000000000000000000000000000000008152508051906020012085805190602001201415613baa57613b626001601a60008973ffffffffffffffffffffffffffffffffffffffff1673ffffffffffffffffffffffffffffffffffffffff168152602001908152602001600020546132a390919063ffffffff16565b601a60008873ffffffffffffffffffffffffffffffffffffffff1673ffffffffffffffffffffffffffffffffffffffff16815260200190815260200160002081905550613c8d565b6040518060400160405280600a81526020017f4c61626f7261746f7279000000000000000000000000000000000000000000008152508051906020012085805190602001201415613c8c57613c486001601b60008973ffffffffffffffffffffffffffffffffffffffff1673ffffffffffffffffffffffffffffffffffffffff168152602001908152602001600020546132a390919063ffffffff16565b601b60008873ffffffffffffffffffffffffffffffffffffffff1673ffffffffffffffffffffffffffffffffffffffff168152602001908152602001600020819055505b5b5b5b5b5b5b5b80915050949350505050565b600080831415613cb25760009050613d1f565b6000828402905082848281613cc357fe5b0414613d1a576040517f08c379a00000000000000000000000000000000000000000000000000000000081526004018080602001828103825260218152602001806146206021913960400191505060405180910390fd5b809150505b92915050565b6000613d6783836040518060400160405280601a81526020017f536166654d6174683a206469766973696f6e206279207a65726f0000000000008152506143f4565b905092915050565b601d60008273ffffffffffffffffffffffffffffffffffffffff1673ffffffffffffffffffffffffffffffffffffffff16815260200190815260200160002054601c60008373ffffffffffffffffffffffffffffffffffffffff1673ffffffffffffffffffffffffffffffffffffffff1681526020019081526020016000205402600760008373ffffffffffffffffffffffffffffffffffffffff1673ffffffffffffffffffffffffffffffffffffffff1681526020019081526020016000208190555050565b6000613e7883836040518060400160405280601e81526020017f536166654d6174683a207375627472616374696f6e206f766572666c6f7700008152506144ba565b905092915050565b600080826005601d60008773ffffffffffffffffffffffffffffffffffffffff1673ffffffffffffffffffffffffffffffffffffffff16815260200190815260200160002054601902030290506000836005601d60008873ffffffffffffffffffffffffffffffffffffffff1673ffffffffffffffffffffffffffffffffffffffff16815260200190815260200160002054601902030290506000846005601d60008973ffffffffffffffffffffffffffffffffffffffff1673ffffffffffffffffffffffffffffffffffffffff1681526020019081526020016000205460190203029050613f758684600085600086613f80565b935050505092915050565b600085600260008973ffffffffffffffffffffffffffffffffffffffff1673ffffffffffffffffffffffffffffffffffffffff1681526020019081526020016000205410158015614010575084600460008973ffffffffffffffffffffffffffffffffffffffff1673ffffffffffffffffffffffffffffffffffffffff1681526020019081526020016000205410155b801561405b575083600160008973ffffffffffffffffffffffffffffffffffffffff1673ffffffffffffffffffffffffffffffffffffffff1681526020019081526020016000205410155b80156140a55750826000808973ffffffffffffffffffffffffffffffffffffffff1673ffffffffffffffffffffffffffffffffffffffff1681526020019081526020016000205410155b80156140f0575081600360008973ffffffffffffffffffffffffffffffffffffffff1673ffffffffffffffffffffffffffffffffffffffff1681526020019081526020016000205410155b156143e55761414786600260008a73ffffffffffffffffffffffffffffffffffffffff1673ffffffffffffffffffffffffffffffffffffffff16815260200190815260200160002054613e3690919063ffffffff16565b600260008973ffffffffffffffffffffffffffffffffffffffff1673ffffffffffffffffffffffffffffffffffffffff168152602001908152602001600020819055506141dc85600460008a73ffffffffffffffffffffffffffffffffffffffff1673ffffffffffffffffffffffffffffffffffffffff16815260200190815260200160002054613e3690919063ffffffff16565b600460008973ffffffffffffffffffffffffffffffffffffffff1673ffffffffffffffffffffffffffffffffffffffff1681526020019081526020016000208190555061427184600160008a73ffffffffffffffffffffffffffffffffffffffff1673ffffffffffffffffffffffffffffffffffffffff16815260200190815260200160002054613e3690919063ffffffff16565b600160008973ffffffffffffffffffffffffffffffffffffffff1673ffffffffffffffffffffffffffffffffffffffff16815260200190815260200160002081905550614305836000808a73ffffffffffffffffffffffffffffffffffffffff1673ffffffffffffffffffffffffffffffffffffffff16815260200190815260200160002054613e3690919063ffffffff16565b6000808973ffffffffffffffffffffffffffffffffffffffff1673ffffffffffffffffffffffffffffffffffffffff1681526020019081526020016000208190555061439982600360008a73ffffffffffffffffffffffffffffffffffffffff1673ffffffffffffffffffffffffffffffffffffffff16815260200190815260200160002054613e3690919063ffffffff16565b600360008973ffffffffffffffffffffffffffffffffffffffff1673ffffffffffffffffffffffffffffffffffffffff16815260200190815260200160002081905550600190506143ea565b600090505b9695505050505050565b600080831182906144a0576040517f08c379a00000000000000000000000000000000000000000000000000000000081526004018080602001828103825283818151815260200191508051906020019080838360005b8381101561446557808201518184015260208101905061444a565b50505050905090810190601f1680156144925780820380516001836020036101000a031916815260200191505b509250505060405180910390fd5b5060008385816144ac57fe5b049050809150509392505050565b6000838311158290614567576040517f08c379a00000000000000000000000000000000000000000000000000000000081526004018080602001828103825283818151815260200191508051906020019080838360005b8381101561452c578082015181840152602081019050614511565b50505050905090810190601f1680156145595780820380516001836020036101000a031916815260200191505b509250505060405180910390fd5b5060008385039050809150509392505050565b828054600181600116156101000203166002900490600052602060002090601f016020900481019282601f106145bb57805160ff19168380011785556145e9565b828001600101855582156145e9579182015b828111156145e85782518255916020019190600101906145cd565b5b5090506145f691906145fa565b5090565b61461c91905b80821115614618576000816000905550600101614600565b5090565b9056fe536166654d6174683a206d756c7469706c69636174696f6e206f766572666c6f77a265627a7a72315820339f3a30e2e36f5e21a87fbecac097f79ebb480a870c9690d5cef7cefb410ac564736f6c63430005100032",
  "source": "pragma solidity >=0.4.21 <0.7.0;\n\nimport \"./SafeMath.sol\";\nimport \"./BuildingFactory.sol\";\nimport \"./Spy.sol\";\n\ncontract Laboratory is BuildingFactory, Spy {\n    \n    using SafeMath for uint;\n    using SafeMath for uint;\n\n    function createLaboratory(uint _x, uint _y) public {\n        _createBuilding(msg.sender, \"Laboratory\", _x, _y);\n        levelOfSpy[msg.sender] = 1;\n    }\n\n    // return 0 if failed (maybe already creating or not enough resource) otherwise return createtime\n    function startCreateSpy(uint number) public returns(uint) {\n        address _owner = msg.sender;\n        if(ownerStartCreateTime[_owner] != 0) return uint(0); // check if there is already creating Spys\n        bool enoughResource;\n        uint lvOfSpy;\n        enoughResource = _createSpy(_owner, number);\n        lvOfSpy =  levelOfSpy[_owner];\n        if(enoughResource == false) return uint(0);\n        ownerStartCreateTime[_owner] = uint(now);\n        ownerCreateSpyTime[_owner] = createSpyTime * lvOfSpy * number;\n        return ownerCreateSpyTime[_owner];\n    }\n\n    function getCreateSpyTime() public view returns(uint, uint) {\n        return ( now - ownerStartCreateTime[msg.sender], ownerCreateSpyTime[msg.sender] ) ;\n    }\n\n    // // return 0 if success else return remaining time\n    function updateCreateSpy(address _owner) public returns(uint) {\n        if (ownerStartCreateTime[_owner] == 0) return 0;\n        if (now >= ownerStartCreateTime[_owner].add(ownerCreateSpyTime[_owner])) {\n            uint num;\n            num = ownerCreateSpyTime[_owner].div(  levelOfSpy[_owner].mul(createSpyTime) );\n            numOfSpy[_owner] = numOfSpy[_owner] + (num);\n            ownerStartCreateTime[_owner] = 0;\n            ownerCreateSpyTime[_owner] = 0;\n            _updateSpyPower(_owner);\n            return 0;\n        }\n        else {\n            uint remainingTime = (ownerStartCreateTime[_owner] + ownerCreateSpyTime[_owner]).sub(now);\n            return remainingTime;\n        }\n    }\n}",
  "sourcePath": "/Users/cyl/Desktop//NMlab_Final/contracts/Laboratory.sol",
  "compiler": {
    "name": "solc",
    "version": "0.5.16+commit.9c3226ce.Emscripten.clang"
  },
  "schemaVersion": "3.4.1",
  "updatedAt": "2021-05-31T04:52:28.791Z",
  "networkType": "ethereum",
  "devdoc": {
    "methods": {}
  },
  "userdoc": {
    "methods": {}
  }
}