{
  "contractName": "ManorFactory",
  "abi": [
    {
      "inputs": [
        {
          "internalType": "address",
          "name": "_account_address",
          "type": "address"
        },
        {
          "internalType": "address",
          "name": "_building_address",
          "type": "address"
        }
      ],
      "payable": false,
      "stateMutability": "nonpayable",
      "type": "constructor"
    },
    {
      "constant": true,
      "inputs": [
        {
          "internalType": "address",
          "name": "",
          "type": "address"
        }
      ],
      "name": "ownerCoinProduceTime",
      "outputs": [
        {
          "internalType": "uint256",
          "name": "",
          "type": "uint256"
        }
      ],
      "payable": false,
      "stateMutability": "view",
      "type": "function"
    },
    {
      "constant": false,
      "inputs": [
        {
          "internalType": "uint256",
          "name": "_x",
          "type": "uint256"
        },
        {
          "internalType": "uint256",
          "name": "_y",
          "type": "uint256"
        }
      ],
      "name": "createManor",
      "outputs": [],
      "payable": false,
      "stateMutability": "nonpayable",
      "type": "function"
    }
  ],
  "bytecode": "0x6080604052600160035534801561001557600080fd5b506040516109c63803806109c68339818101604052604081101561003857600080fd5b810190808051906020019092919080519060200190929190505050816000806101000a81548173ffffffffffffffffffffffffffffffffffffffff021916908373ffffffffffffffffffffffffffffffffffffffff16021790555080600160006101000a81548173ffffffffffffffffffffffffffffffffffffffff021916908373ffffffffffffffffffffffffffffffffffffffff16021790555050506108e1806100e56000396000f3fe608060405234801561001057600080fd5b50600436106100365760003560e01c806344a0529e1461003b578063e742c98d14610073575b600080fd5b6100716004803603604081101561005157600080fd5b8101908080359060200190929190803590602001909291905050506100cb565b005b6100b56004803603602081101561008957600080fd5b81019080803573ffffffffffffffffffffffffffffffffffffffff1690602001909291905050506101fe565b6040518082815260200191505060405180910390f35b600160009054906101000a900473ffffffffffffffffffffffffffffffffffffffff1673ffffffffffffffffffffffffffffffffffffffff166321241b3f3384846040518463ffffffff1660e01b8152600401808473ffffffffffffffffffffffffffffffffffffffff1673ffffffffffffffffffffffffffffffffffffffff16815260200180602001848152602001838152602001828103825260058152602001807f4d616e6f72000000000000000000000000000000000000000000000000000000815250602001945050505050602060405180830381600087803b1580156101b557600080fd5b505af11580156101c9573d6000803e3d6000fd5b505050506040513d60208110156101df57600080fd5b8101908080519060200190929190505050506101fa33610216565b5050565b60026020528060005260406000206000915090505481565b6060600160009054906101000a900473ffffffffffffffffffffffffffffffffffffffff1673ffffffffffffffffffffffffffffffffffffffff16632c79c523836040518263ffffffff1660e01b8152600401808273ffffffffffffffffffffffffffffffffffffffff1673ffffffffffffffffffffffffffffffffffffffff16815260200180602001828103825260058152602001807f4d616e6f720000000000000000000000000000000000000000000000000000008152506020019250505060006040518083038186803b1580156102f057600080fd5b505afa158015610304573d6000803e3d6000fd5b505050506040513d6000823e3d601f19601f82011682018060405250602081101561032e57600080fd5b810190808051604051939291908464010000000082111561034e57600080fd5b8382019150602082018581111561036457600080fd5b825186602082028301116401000000008211171561038157600080fd5b8083526020830192505050908051906020019060200280838360005b838110156103b857808201518184015260208101905061039d565b5050505090500160405250505090506000600260008473ffffffffffffffffffffffffffffffffffffffff1673ffffffffffffffffffffffffffffffffffffffff168152602001908152602001600020541480610416575060008151145b156104655742600260008473ffffffffffffffffffffffffffffffffffffffff1673ffffffffffffffffffffffffffffffffffffffff1681526020019081526020016000208190555050610799565b60006104bc600a600260008673ffffffffffffffffffffffffffffffffffffffff1673ffffffffffffffffffffffffffffffffffffffff16815260200190815260200160002054420361079c90919063ffffffff16565b9050600080905060008090505b83518110156105a857600354600160009054906101000a900473ffffffffffffffffffffffffffffffffffffffff1673ffffffffffffffffffffffffffffffffffffffff1663b2e2541586848151811061051f57fe5b60200260200101516040518263ffffffff1660e01b81526004018082815260200191505060206040518083038186803b15801561055b57600080fd5b505afa15801561056f573d6000803e3d6000fd5b505050506040513d602081101561058557600080fd5b8101908080519060200190929190505050028201915080806001019150506104c9565b506000809054906101000a900473ffffffffffffffffffffffffffffffffffffffff1673ffffffffffffffffffffffffffffffffffffffff1663a580af02858385026000809054906101000a900473ffffffffffffffffffffffffffffffffffffffff1673ffffffffffffffffffffffffffffffffffffffff16636ed82fbb896040518263ffffffff1660e01b8152600401808273ffffffffffffffffffffffffffffffffffffffff1673ffffffffffffffffffffffffffffffffffffffff16815260200191505060206040518083038186803b15801561068857600080fd5b505afa15801561069c573d6000803e3d6000fd5b505050506040513d60208110156106b257600080fd5b8101908080519060200190929190505050016040518363ffffffff1660e01b8152600401808373ffffffffffffffffffffffffffffffffffffffff1673ffffffffffffffffffffffffffffffffffffffff16815260200182815260200192505050600060405180830381600087803b15801561072d57600080fd5b505af1158015610741573d6000803e3d6000fd5b5050505081600a02600260008673ffffffffffffffffffffffffffffffffffffffff1673ffffffffffffffffffffffffffffffffffffffff168152602001908152602001600020600082825401925050819055505050505b50565b60006107de83836040518060400160405280601a81526020017f536166654d6174683a206469766973696f6e206279207a65726f0000000000008152506107e6565b905092915050565b60008083118290610892576040517f08c379a00000000000000000000000000000000000000000000000000000000081526004018080602001828103825283818151815260200191508051906020019080838360005b8381101561085757808201518184015260208101905061083c565b50505050905090810190601f1680156108845780820380516001836020036101000a031916815260200191505b509250505060405180910390fd5b50600083858161089e57fe5b04905080915050939250505056fea265627a7a72315820ce23e2fe9054da49c5f1e9c854b6ad4b0a030703bfdc8b98d85a975e58b2d74e64736f6c63430005100032",
  "source": "pragma solidity >=0.4.21 <0.7.0;\n\nimport \"./SafeMath.sol\";\nimport \"./BuildingFactory.sol\";\n\ncontract ManorFactory {\n    \n    using SafeMath for uint;\n\n    Account accountInstance;\n    BuildingFactory buildingInstance;\n    constructor(address _account_address, address _building_address) public {\n        accountInstance = Account(_account_address);\n        buildingInstance = BuildingFactory(_building_address);\n    }\n    \n    mapping (address => uint) public ownerCoinProduceTime;\n    uint produceCoinAbility = 1;\n\n    function createManor(uint _x, uint _y) public {\n        buildingInstance._createBuilding(msg.sender, \"Manor\", _x, _y);\n        _updateProduceCoin(msg.sender);\n    }\n\n\n    function _updateProduceCoin(address _owner) internal {\n        uint[] memory manors = buildingInstance.getSpecificBuildingByOwner(_owner, \"Manor\");\n        if (ownerCoinProduceTime[_owner] == 0 || manors.length == 0) {\n            ownerCoinProduceTime[_owner] = now;\n            return;\n        }\n        uint periodCounts = (now - ownerCoinProduceTime[_owner]).div(10 seconds);\n        uint produceAbilitySum = 0;\n        for (uint i=0; i<manors.length; i++) {\n            produceAbilitySum += buildingInstance.getBuildingLevel(manors[i]) * produceCoinAbility;\n        }\n        accountInstance.setCoinOwnerCount(_owner,  accountInstance.getCoinOwnerCount(_owner) + periodCounts * produceAbilitySum);\n        ownerCoinProduceTime[_owner] += 10 * periodCounts;\n    }\n}",
  "sourcePath": "/Users/seanwang0823/NMLab_Final/contracts/Manor.sol",
  "compiler": {
    "name": "solc",
    "version": "0.5.16+commit.9c3226ce.Emscripten.clang"
  },
  "schemaVersion": "3.4.0",
  "updatedAt": "2021-06-02T05:16:33.515Z",
  "devdoc": {
    "methods": {}
  },
  "userdoc": {
    "methods": {}
  }
}