{
  "contractName": "Mine",
  "abi": [
    {
      "inputs": [
        {
          "internalType": "address",
          "name": "_account_address",
          "type": "address"
        },
        {
          "internalType": "address",
          "name": "_building_address",
          "type": "address"
        }
      ],
      "payable": false,
      "stateMutability": "nonpayable",
      "type": "constructor"
    },
    {
      "constant": true,
      "inputs": [
        {
          "internalType": "address",
          "name": "",
          "type": "address"
        }
      ],
      "name": "ownerIronProduceTime",
      "outputs": [
        {
          "internalType": "uint256",
          "name": "",
          "type": "uint256"
        }
      ],
      "payable": false,
      "stateMutability": "view",
      "type": "function"
    },
    {
      "constant": false,
      "inputs": [
        {
          "internalType": "uint256",
          "name": "_x",
          "type": "uint256"
        },
        {
          "internalType": "uint256",
          "name": "_y",
          "type": "uint256"
        }
      ],
      "name": "createMine",
      "outputs": [],
      "payable": false,
      "stateMutability": "nonpayable",
      "type": "function"
    },
    {
      "constant": false,
      "inputs": [
        {
          "internalType": "address",
          "name": "_owner",
          "type": "address"
        }
      ],
      "name": "_updateProduceIron",
      "outputs": [],
      "payable": false,
      "stateMutability": "nonpayable",
      "type": "function"
    }
  ],
  "bytecode": "0x6080604052600160035534801561001557600080fd5b50604051610a15380380610a158339818101604052604081101561003857600080fd5b810190808051906020019092919080519060200190929190505050816000806101000a81548173ffffffffffffffffffffffffffffffffffffffff021916908373ffffffffffffffffffffffffffffffffffffffff16021790555080600160006101000a81548173ffffffffffffffffffffffffffffffffffffffff021916908373ffffffffffffffffffffffffffffffffffffffff1602179055505050610930806100e56000396000f3fe608060405234801561001057600080fd5b50600436106100415760003560e01c806305c4ae3f146100465780634d51d00d1461007e578063c787fd09146100c2575b600080fd5b61007c6004803603604081101561005c57600080fd5b81019080803590602001909291908035906020019092919050505061011a565b005b6100c06004803603602081101561009457600080fd5b81019080803573ffffffffffffffffffffffffffffffffffffffff16906020019092919050505061024d565b005b610104600480360360208110156100d857600080fd5b81019080803573ffffffffffffffffffffffffffffffffffffffff1690602001909291905050506107d3565b6040518082815260200191505060405180910390f35b600160009054906101000a900473ffffffffffffffffffffffffffffffffffffffff1673ffffffffffffffffffffffffffffffffffffffff166321241b3f3384846040518463ffffffff1660e01b8152600401808473ffffffffffffffffffffffffffffffffffffffff1673ffffffffffffffffffffffffffffffffffffffff16815260200180602001848152602001838152602001828103825260048152602001807f4d696e6500000000000000000000000000000000000000000000000000000000815250602001945050505050602060405180830381600087803b15801561020457600080fd5b505af1158015610218573d6000803e3d6000fd5b505050506040513d602081101561022e57600080fd5b8101908080519060200190929190505050506102493361024d565b5050565b6060600160009054906101000a900473ffffffffffffffffffffffffffffffffffffffff1673ffffffffffffffffffffffffffffffffffffffff16632c79c523836040518263ffffffff1660e01b8152600401808273ffffffffffffffffffffffffffffffffffffffff1673ffffffffffffffffffffffffffffffffffffffff16815260200180602001828103825260048152602001807f4d696e65000000000000000000000000000000000000000000000000000000008152506020019250505060006040518083038186803b15801561032757600080fd5b505afa15801561033b573d6000803e3d6000fd5b505050506040513d6000823e3d601f19601f82011682018060405250602081101561036557600080fd5b810190808051604051939291908464010000000082111561038557600080fd5b8382019150602082018581111561039b57600080fd5b82518660208202830111640100000000821117156103b857600080fd5b8083526020830192505050908051906020019060200280838360005b838110156103ef5780820151818401526020810190506103d4565b5050505090500160405250505090506000600260008473ffffffffffffffffffffffffffffffffffffffff1673ffffffffffffffffffffffffffffffffffffffff16815260200190815260200160002054148061044d575060008151145b1561049c5742600260008473ffffffffffffffffffffffffffffffffffffffff1673ffffffffffffffffffffffffffffffffffffffff16815260200190815260200160002081905550506107d0565b60006104f3600a600260008673ffffffffffffffffffffffffffffffffffffffff1673ffffffffffffffffffffffffffffffffffffffff1681526020019081526020016000205442036107eb90919063ffffffff16565b9050600080905060008090505b83518110156105df57600354600160009054906101000a900473ffffffffffffffffffffffffffffffffffffffff1673ffffffffffffffffffffffffffffffffffffffff1663b2e2541586848151811061055657fe5b60200260200101516040518263ffffffff1660e01b81526004018082815260200191505060206040518083038186803b15801561059257600080fd5b505afa1580156105a6573d6000803e3d6000fd5b505050506040513d60208110156105bc57600080fd5b810190808051906020019092919050505002820191508080600101915050610500565b506000809054906101000a900473ffffffffffffffffffffffffffffffffffffffff1673ffffffffffffffffffffffffffffffffffffffff16634454be42858385026000809054906101000a900473ffffffffffffffffffffffffffffffffffffffff1673ffffffffffffffffffffffffffffffffffffffff16639e723013896040518263ffffffff1660e01b8152600401808273ffffffffffffffffffffffffffffffffffffffff1673ffffffffffffffffffffffffffffffffffffffff16815260200191505060206040518083038186803b1580156106bf57600080fd5b505afa1580156106d3573d6000803e3d6000fd5b505050506040513d60208110156106e957600080fd5b8101908080519060200190929190505050016040518363ffffffff1660e01b8152600401808373ffffffffffffffffffffffffffffffffffffffff1673ffffffffffffffffffffffffffffffffffffffff16815260200182815260200192505050600060405180830381600087803b15801561076457600080fd5b505af1158015610778573d6000803e3d6000fd5b5050505081600a02600260008673ffffffffffffffffffffffffffffffffffffffff1673ffffffffffffffffffffffffffffffffffffffff168152602001908152602001600020600082825401925050819055505050505b50565b60026020528060005260406000206000915090505481565b600061082d83836040518060400160405280601a81526020017f536166654d6174683a206469766973696f6e206279207a65726f000000000000815250610835565b905092915050565b600080831182906108e1576040517f08c379a00000000000000000000000000000000000000000000000000000000081526004018080602001828103825283818151815260200191508051906020019080838360005b838110156108a657808201518184015260208101905061088b565b50505050905090810190601f1680156108d35780820380516001836020036101000a031916815260200191505b509250505060405180910390fd5b5060008385816108ed57fe5b04905080915050939250505056fea265627a7a723158204917a7c17faff81f0006b490047a7192248d99a1bf9db1266552324645569ef864736f6c63430005100032",
  "source": "pragma solidity >=0.4.21 <0.7.0;\n\nimport \"./SafeMath.sol\";\nimport \"./BuildingFactory.sol\";\n\ncontract Mine {\n    \n    using SafeMath for uint;\n\n    Account accountInstance;\n    BuildingFactory buildingInstance;\n    constructor(address _account_address, address _building_address) public {\n        accountInstance = Account(_account_address);\n        buildingInstance = BuildingFactory(_building_address);\n    }\n    \n    mapping (address => uint) public ownerIronProduceTime;\n    uint produceIronAbility = 1;\n\n    function createMine(uint _x, uint _y) public {\n        buildingInstance._createBuilding(msg.sender, \"Mine\", _x, _y);\n        _updateProduceIron(msg.sender);\n    }\n\n\n    function _updateProduceIron(address _owner) public {\n        uint[] memory mines = buildingInstance.getSpecificBuildingByOwner(_owner, \"Mine\");\n        if (ownerIronProduceTime[_owner] == 0 || mines.length == 0) {\n            ownerIronProduceTime[_owner] = now;\n            return;\n        }\n        uint periodCounts = (now - ownerIronProduceTime[_owner]).div(10 seconds);\n        uint produceAbilitySum = 0;\n        for (uint i=0; i<mines.length; i++) {\n            produceAbilitySum += buildingInstance.getBuildingLevel(mines[i]) * produceIronAbility;\n        }\n        accountInstance.setIronOwnerCount(_owner, accountInstance.getIronOwnerCount(_owner) + periodCounts * produceAbilitySum);\n        ownerIronProduceTime[_owner] += 10 * periodCounts;\n    }\n}",
  "sourcePath": "/Users/cyl/Desktop/網多/NMlab_Final/contracts/Mine.sol",
  "compiler": {
    "name": "solc",
    "version": "0.5.16+commit.9c3226ce.Emscripten.clang"
  },
  "schemaVersion": "3.4.1",
  "updatedAt": "2021-06-25T03:59:09.991Z",
  "networkType": "ethereum",
  "devdoc": {
    "methods": {}
  },
  "userdoc": {
    "methods": {}
  }
}