{
  "contractName": "Produce",
  "abi": [
    {
      "constant": false,
      "inputs": [
        {
          "internalType": "uint256",
          "name": "_ownerId",
          "type": "uint256"
        },
        {
          "internalType": "uint256",
          "name": "_attackedCastleId",
          "type": "uint256"
        }
      ],
      "name": "attack",
      "outputs": [],
      "payable": false,
      "stateMutability": "nonpayable",
      "type": "function"
    },
    {
      "constant": true,
      "inputs": [
        {
          "internalType": "uint256",
          "name": "",
          "type": "uint256"
        }
      ],
      "name": "buildingToOwner",
      "outputs": [
        {
          "internalType": "address",
          "name": "",
          "type": "address"
        }
      ],
      "payable": false,
      "stateMutability": "view",
      "type": "function"
    },
    {
      "constant": true,
      "inputs": [
        {
          "internalType": "uint256",
          "name": "",
          "type": "uint256"
        }
      ],
      "name": "buildings",
      "outputs": [
        {
          "internalType": "string",
          "name": "name",
          "type": "string"
        },
        {
          "internalType": "uint256",
          "name": "placeX",
          "type": "uint256"
        },
        {
          "internalType": "uint256",
          "name": "placeY",
          "type": "uint256"
        },
        {
          "internalType": "uint256",
          "name": "level",
          "type": "uint256"
        }
      ],
      "payable": false,
      "stateMutability": "view",
      "type": "function"
    },
    {
      "constant": true,
      "inputs": [
        {
          "internalType": "uint256",
          "name": "",
          "type": "uint256"
        }
      ],
      "name": "castleToOwner",
      "outputs": [
        {
          "internalType": "address",
          "name": "",
          "type": "address"
        }
      ],
      "payable": false,
      "stateMutability": "view",
      "type": "function"
    },
    {
      "constant": true,
      "inputs": [],
      "name": "checkUserAddress",
      "outputs": [
        {
          "internalType": "bool",
          "name": "",
          "type": "bool"
        }
      ],
      "payable": false,
      "stateMutability": "view",
      "type": "function"
    },
    {
      "constant": true,
      "inputs": [
        {
          "internalType": "address",
          "name": "",
          "type": "address"
        }
      ],
      "name": "coinOwnerCount",
      "outputs": [
        {
          "internalType": "uint256",
          "name": "",
          "type": "uint256"
        }
      ],
      "payable": false,
      "stateMutability": "view",
      "type": "function"
    },
    {
      "constant": false,
      "inputs": [
        {
          "internalType": "uint256",
          "name": "_x",
          "type": "uint256"
        },
        {
          "internalType": "uint256",
          "name": "_y",
          "type": "uint256"
        }
      ],
      "name": "createBarrack",
      "outputs": [],
      "payable": false,
      "stateMutability": "nonpayable",
      "type": "function"
    },
    {
      "constant": false,
      "inputs": [
        {
          "internalType": "uint256",
          "name": "_x",
          "type": "uint256"
        },
        {
          "internalType": "uint256",
          "name": "_y",
          "type": "uint256"
        }
      ],
      "name": "createCastle",
      "outputs": [],
      "payable": false,
      "stateMutability": "nonpayable",
      "type": "function"
    },
    {
      "constant": false,
      "inputs": [
        {
          "internalType": "uint256",
          "name": "_x",
          "type": "uint256"
        },
        {
          "internalType": "uint256",
          "name": "_y",
          "type": "uint256"
        }
      ],
      "name": "createFarm",
      "outputs": [],
      "payable": false,
      "stateMutability": "nonpayable",
      "type": "function"
    },
    {
      "constant": false,
      "inputs": [
        {
          "internalType": "uint256",
          "name": "_x",
          "type": "uint256"
        },
        {
          "internalType": "uint256",
          "name": "_y",
          "type": "uint256"
        }
      ],
      "name": "createLaboratory",
      "outputs": [],
      "payable": false,
      "stateMutability": "nonpayable",
      "type": "function"
    },
    {
      "constant": false,
      "inputs": [
        {
          "internalType": "uint256",
          "name": "_x",
          "type": "uint256"
        },
        {
          "internalType": "uint256",
          "name": "_y",
          "type": "uint256"
        }
      ],
      "name": "createManor",
      "outputs": [],
      "payable": false,
      "stateMutability": "nonpayable",
      "type": "function"
    },
    {
      "constant": false,
      "inputs": [
        {
          "internalType": "uint256",
          "name": "_x",
          "type": "uint256"
        },
        {
          "internalType": "uint256",
          "name": "_y",
          "type": "uint256"
        }
      ],
      "name": "createMine",
      "outputs": [],
      "payable": false,
      "stateMutability": "nonpayable",
      "type": "function"
    },
    {
      "constant": false,
      "inputs": [
        {
          "internalType": "uint256",
          "name": "_x",
          "type": "uint256"
        },
        {
          "internalType": "uint256",
          "name": "_y",
          "type": "uint256"
        }
      ],
      "name": "createQuarry",
      "outputs": [],
      "payable": false,
      "stateMutability": "nonpayable",
      "type": "function"
    },
    {
      "constant": false,
      "inputs": [
        {
          "internalType": "uint256",
          "name": "_x",
          "type": "uint256"
        },
        {
          "internalType": "uint256",
          "name": "_y",
          "type": "uint256"
        }
      ],
      "name": "createSawmill",
      "outputs": [],
      "payable": false,
      "stateMutability": "nonpayable",
      "type": "function"
    },
    {
      "constant": true,
      "inputs": [],
      "name": "createSoldierTime",
      "outputs": [
        {
          "internalType": "uint256",
          "name": "",
          "type": "uint256"
        }
      ],
      "payable": false,
      "stateMutability": "view",
      "type": "function"
    },
    {
      "constant": true,
      "inputs": [],
      "name": "createSpyTime",
      "outputs": [
        {
          "internalType": "uint256",
          "name": "",
          "type": "uint256"
        }
      ],
      "payable": false,
      "stateMutability": "view",
      "type": "function"
    },
    {
      "constant": true,
      "inputs": [
        {
          "internalType": "address",
          "name": "",
          "type": "address"
        }
      ],
      "name": "foodOwnerCount",
      "outputs": [
        {
          "internalType": "uint256",
          "name": "",
          "type": "uint256"
        }
      ],
      "payable": false,
      "stateMutability": "view",
      "type": "function"
    },
    {
      "constant": true,
      "inputs": [
        {
          "internalType": "uint256",
          "name": "idx",
          "type": "uint256"
        }
      ],
      "name": "getBuildingById",
      "outputs": [
        {
          "internalType": "bool",
          "name": "",
          "type": "bool"
        },
        {
          "internalType": "string",
          "name": "",
          "type": "string"
        },
        {
          "internalType": "uint256",
          "name": "",
          "type": "uint256"
        }
      ],
      "payable": false,
      "stateMutability": "view",
      "type": "function"
    },
    {
      "constant": true,
      "inputs": [
        {
          "internalType": "address",
          "name": "_owner",
          "type": "address"
        },
        {
          "internalType": "uint256",
          "name": "_placeX",
          "type": "uint256"
        },
        {
          "internalType": "uint256",
          "name": "_placeY",
          "type": "uint256"
        }
      ],
      "name": "getBuildingByOwner",
      "outputs": [
        {
          "internalType": "uint256",
          "name": "",
          "type": "uint256"
        },
        {
          "internalType": "string",
          "name": "",
          "type": "string"
        }
      ],
      "payable": false,
      "stateMutability": "view",
      "type": "function"
    },
    {
      "constant": true,
      "inputs": [
        {
          "internalType": "address",
          "name": "_owner",
          "type": "address"
        }
      ],
      "name": "getBuildingsByOwner",
      "outputs": [
        {
          "internalType": "uint256[]",
          "name": "",
          "type": "uint256[]"
        }
      ],
      "payable": false,
      "stateMutability": "view",
      "type": "function"
    },
    {
      "constant": true,
      "inputs": [],
      "name": "getBuildingsLen",
      "outputs": [
        {
          "internalType": "uint256",
          "name": "",
          "type": "uint256"
        }
      ],
      "payable": false,
      "stateMutability": "view",
      "type": "function"
    },
    {
      "constant": true,
      "inputs": [],
      "name": "getCoinAmount",
      "outputs": [
        {
          "internalType": "uint256",
          "name": "",
          "type": "uint256"
        }
      ],
      "payable": false,
      "stateMutability": "view",
      "type": "function"
    },
    {
      "constant": true,
      "inputs": [],
      "name": "getCreateSoldierTime",
      "outputs": [
        {
          "internalType": "uint256",
          "name": "",
          "type": "uint256"
        },
        {
          "internalType": "uint256",
          "name": "",
          "type": "uint256"
        }
      ],
      "payable": false,
      "stateMutability": "view",
      "type": "function"
    },
    {
      "constant": true,
      "inputs": [],
      "name": "getCreateSpyTime",
      "outputs": [
        {
          "internalType": "uint256",
          "name": "",
          "type": "uint256"
        },
        {
          "internalType": "uint256",
          "name": "",
          "type": "uint256"
        }
      ],
      "payable": false,
      "stateMutability": "view",
      "type": "function"
    },
    {
      "constant": true,
      "inputs": [],
      "name": "getFoodAmount",
      "outputs": [
        {
          "internalType": "uint256",
          "name": "",
          "type": "uint256"
        }
      ],
      "payable": false,
      "stateMutability": "view",
      "type": "function"
    },
    {
      "constant": true,
      "inputs": [],
      "name": "getIronAmount",
      "outputs": [
        {
          "internalType": "uint256",
          "name": "",
          "type": "uint256"
        }
      ],
      "payable": false,
      "stateMutability": "view",
      "type": "function"
    },
    {
      "constant": true,
      "inputs": [],
      "name": "getKingdomAmount",
      "outputs": [
        {
          "internalType": "uint256",
          "name": "",
          "type": "uint256"
        }
      ],
      "payable": false,
      "stateMutability": "view",
      "type": "function"
    },
    {
      "constant": true,
      "inputs": [],
      "name": "getMyIdx",
      "outputs": [
        {
          "internalType": "uint256",
          "name": "",
          "type": "uint256"
        }
      ],
      "payable": false,
      "stateMutability": "view",
      "type": "function"
    },
    {
      "constant": true,
      "inputs": [
        {
          "internalType": "address",
          "name": "_owner",
          "type": "address"
        }
      ],
      "name": "getRemainingTime",
      "outputs": [
        {
          "internalType": "uint256",
          "name": "",
          "type": "uint256"
        }
      ],
      "payable": false,
      "stateMutability": "view",
      "type": "function"
    },
    {
      "constant": true,
      "inputs": [
        {
          "internalType": "address",
          "name": "_owner",
          "type": "address"
        }
      ],
      "name": "getSoldierAmount",
      "outputs": [
        {
          "internalType": "uint256",
          "name": "",
          "type": "uint256"
        }
      ],
      "payable": false,
      "stateMutability": "view",
      "type": "function"
    },
    {
      "constant": true,
      "inputs": [
        {
          "internalType": "address",
          "name": "_owner",
          "type": "address"
        },
        {
          "internalType": "string",
          "name": "_name",
          "type": "string"
        }
      ],
      "name": "getSpecificBuildingByOwner",
      "outputs": [
        {
          "internalType": "uint256[]",
          "name": "",
          "type": "uint256[]"
        }
      ],
      "payable": false,
      "stateMutability": "view",
      "type": "function"
    },
    {
      "constant": true,
      "inputs": [
        {
          "internalType": "address",
          "name": "_owner",
          "type": "address"
        }
      ],
      "name": "getSpyAmount",
      "outputs": [
        {
          "internalType": "uint256",
          "name": "",
          "type": "uint256"
        }
      ],
      "payable": false,
      "stateMutability": "view",
      "type": "function"
    },
    {
      "constant": true,
      "inputs": [],
      "name": "getStoneAmount",
      "outputs": [
        {
          "internalType": "uint256",
          "name": "",
          "type": "uint256"
        }
      ],
      "payable": false,
      "stateMutability": "view",
      "type": "function"
    },
    {
      "constant": true,
      "inputs": [
        {
          "internalType": "address",
          "name": "_owner",
          "type": "address"
        }
      ],
      "name": "getUpgradingId",
      "outputs": [
        {
          "internalType": "uint256",
          "name": "",
          "type": "uint256"
        }
      ],
      "payable": false,
      "stateMutability": "view",
      "type": "function"
    },
    {
      "constant": true,
      "inputs": [
        {
          "internalType": "uint256",
          "name": "idx",
          "type": "uint256"
        }
      ],
      "name": "getUserHealth",
      "outputs": [
        {
          "internalType": "uint256",
          "name": "",
          "type": "uint256"
        }
      ],
      "payable": false,
      "stateMutability": "view",
      "type": "function"
    },
    {
      "constant": true,
      "inputs": [
        {
          "internalType": "uint256",
          "name": "idx",
          "type": "uint256"
        }
      ],
      "name": "getUserPower",
      "outputs": [
        {
          "internalType": "uint256",
          "name": "",
          "type": "uint256"
        }
      ],
      "payable": false,
      "stateMutability": "view",
      "type": "function"
    },
    {
      "constant": true,
      "inputs": [
        {
          "internalType": "uint256",
          "name": "idx",
          "type": "uint256"
        }
      ],
      "name": "getUserSpyPower",
      "outputs": [
        {
          "internalType": "uint256",
          "name": "",
          "type": "uint256"
        }
      ],
      "payable": false,
      "stateMutability": "view",
      "type": "function"
    },
    {
      "constant": true,
      "inputs": [],
      "name": "getWoodAmount",
      "outputs": [
        {
          "internalType": "uint256",
          "name": "",
          "type": "uint256"
        }
      ],
      "payable": false,
      "stateMutability": "view",
      "type": "function"
    },
    {
      "constant": true,
      "inputs": [
        {
          "internalType": "address",
          "name": "",
          "type": "address"
        }
      ],
      "name": "health",
      "outputs": [
        {
          "internalType": "uint256",
          "name": "",
          "type": "uint256"
        }
      ],
      "payable": false,
      "stateMutability": "view",
      "type": "function"
    },
    {
      "constant": true,
      "inputs": [
        {
          "internalType": "address",
          "name": "",
          "type": "address"
        }
      ],
      "name": "ironOwnerCount",
      "outputs": [
        {
          "internalType": "uint256",
          "name": "",
          "type": "uint256"
        }
      ],
      "payable": false,
      "stateMutability": "view",
      "type": "function"
    },
    {
      "constant": true,
      "inputs": [],
      "name": "kingdomAmount",
      "outputs": [
        {
          "internalType": "uint256",
          "name": "",
          "type": "uint256"
        }
      ],
      "payable": false,
      "stateMutability": "view",
      "type": "function"
    },
    {
      "constant": true,
      "inputs": [
        {
          "internalType": "address",
          "name": "",
          "type": "address"
        }
      ],
      "name": "levelOfSoldier",
      "outputs": [
        {
          "internalType": "uint256",
          "name": "",
          "type": "uint256"
        }
      ],
      "payable": false,
      "stateMutability": "view",
      "type": "function"
    },
    {
      "constant": true,
      "inputs": [
        {
          "internalType": "address",
          "name": "",
          "type": "address"
        }
      ],
      "name": "levelOfSpy",
      "outputs": [
        {
          "internalType": "uint256",
          "name": "",
          "type": "uint256"
        }
      ],
      "payable": false,
      "stateMutability": "view",
      "type": "function"
    },
    {
      "constant": true,
      "inputs": [],
      "name": "levelUpSoldierTime",
      "outputs": [
        {
          "internalType": "uint256",
          "name": "",
          "type": "uint256"
        }
      ],
      "payable": false,
      "stateMutability": "view",
      "type": "function"
    },
    {
      "constant": true,
      "inputs": [],
      "name": "levelUpSpyTime",
      "outputs": [
        {
          "internalType": "uint256",
          "name": "",
          "type": "uint256"
        }
      ],
      "payable": false,
      "stateMutability": "view",
      "type": "function"
    },
    {
      "constant": true,
      "inputs": [
        {
          "internalType": "address",
          "name": "",
          "type": "address"
        }
      ],
      "name": "numOfSoldier",
      "outputs": [
        {
          "internalType": "uint256",
          "name": "",
          "type": "uint256"
        }
      ],
      "payable": false,
      "stateMutability": "view",
      "type": "function"
    },
    {
      "constant": true,
      "inputs": [
        {
          "internalType": "address",
          "name": "",
          "type": "address"
        }
      ],
      "name": "numOfSpy",
      "outputs": [
        {
          "internalType": "uint256",
          "name": "",
          "type": "uint256"
        }
      ],
      "payable": false,
      "stateMutability": "view",
      "type": "function"
    },
    {
      "constant": true,
      "inputs": [
        {
          "internalType": "address",
          "name": "",
          "type": "address"
        }
      ],
      "name": "ownerCastleCount",
      "outputs": [
        {
          "internalType": "uint256",
          "name": "",
          "type": "uint256"
        }
      ],
      "payable": false,
      "stateMutability": "view",
      "type": "function"
    },
    {
      "constant": true,
      "inputs": [
        {
          "internalType": "address",
          "name": "",
          "type": "address"
        }
      ],
      "name": "ownerCoinProduceTime",
      "outputs": [
        {
          "internalType": "uint256",
          "name": "",
          "type": "uint256"
        }
      ],
      "payable": false,
      "stateMutability": "view",
      "type": "function"
    },
    {
      "constant": true,
      "inputs": [
        {
          "internalType": "address",
          "name": "",
          "type": "address"
        }
      ],
      "name": "ownerCreateSoldierTime",
      "outputs": [
        {
          "internalType": "uint256",
          "name": "",
          "type": "uint256"
        }
      ],
      "payable": false,
      "stateMutability": "view",
      "type": "function"
    },
    {
      "constant": true,
      "inputs": [
        {
          "internalType": "address",
          "name": "",
          "type": "address"
        }
      ],
      "name": "ownerCreateSpyTime",
      "outputs": [
        {
          "internalType": "uint256",
          "name": "",
          "type": "uint256"
        }
      ],
      "payable": false,
      "stateMutability": "view",
      "type": "function"
    },
    {
      "constant": true,
      "inputs": [
        {
          "internalType": "address",
          "name": "",
          "type": "address"
        }
      ],
      "name": "ownerFoodProduceTime",
      "outputs": [
        {
          "internalType": "uint256",
          "name": "",
          "type": "uint256"
        }
      ],
      "payable": false,
      "stateMutability": "view",
      "type": "function"
    },
    {
      "constant": true,
      "inputs": [
        {
          "internalType": "address",
          "name": "",
          "type": "address"
        }
      ],
      "name": "ownerIronProduceTime",
      "outputs": [
        {
          "internalType": "uint256",
          "name": "",
          "type": "uint256"
        }
      ],
      "payable": false,
      "stateMutability": "view",
      "type": "function"
    },
    {
      "constant": true,
      "inputs": [
        {
          "internalType": "address",
          "name": "",
          "type": "address"
        }
      ],
      "name": "ownerStartCreateTime",
      "outputs": [
        {
          "internalType": "uint256",
          "name": "",
          "type": "uint256"
        }
      ],
      "payable": false,
      "stateMutability": "view",
      "type": "function"
    },
    {
      "constant": true,
      "inputs": [
        {
          "internalType": "address",
          "name": "",
          "type": "address"
        }
      ],
      "name": "ownerStartLevelUpTime",
      "outputs": [
        {
          "internalType": "uint256",
          "name": "",
          "type": "uint256"
        }
      ],
      "payable": false,
      "stateMutability": "view",
      "type": "function"
    },
    {
      "constant": true,
      "inputs": [
        {
          "internalType": "address",
          "name": "",
          "type": "address"
        }
      ],
      "name": "ownerStoneProduceTime",
      "outputs": [
        {
          "internalType": "uint256",
          "name": "",
          "type": "uint256"
        }
      ],
      "payable": false,
      "stateMutability": "view",
      "type": "function"
    },
    {
      "constant": true,
      "inputs": [
        {
          "internalType": "address",
          "name": "",
          "type": "address"
        }
      ],
      "name": "ownerWoodProduceTime",
      "outputs": [
        {
          "internalType": "uint256",
          "name": "",
          "type": "uint256"
        }
      ],
      "payable": false,
      "stateMutability": "view",
      "type": "function"
    },
    {
      "constant": true,
      "inputs": [
        {
          "internalType": "address",
          "name": "",
          "type": "address"
        }
      ],
      "name": "power",
      "outputs": [
        {
          "internalType": "uint256",
          "name": "",
          "type": "uint256"
        }
      ],
      "payable": false,
      "stateMutability": "view",
      "type": "function"
    },
    {
      "constant": false,
      "inputs": [
        {
          "internalType": "uint256",
          "name": "_ownerId",
          "type": "uint256"
        },
        {
          "internalType": "uint256",
          "name": "_attackedCastleId",
          "type": "uint256"
        }
      ],
      "name": "sendSpy",
      "outputs": [
        {
          "internalType": "bool",
          "name": "",
          "type": "bool"
        }
      ],
      "payable": false,
      "stateMutability": "nonpayable",
      "type": "function"
    },
    {
      "constant": true,
      "inputs": [],
      "name": "soldierHealth",
      "outputs": [
        {
          "internalType": "uint256",
          "name": "",
          "type": "uint256"
        }
      ],
      "payable": false,
      "stateMutability": "view",
      "type": "function"
    },
    {
      "constant": true,
      "inputs": [],
      "name": "soldierPower",
      "outputs": [
        {
          "internalType": "uint256",
          "name": "",
          "type": "uint256"
        }
      ],
      "payable": false,
      "stateMutability": "view",
      "type": "function"
    },
    {
      "constant": true,
      "inputs": [
        {
          "internalType": "address",
          "name": "",
          "type": "address"
        }
      ],
      "name": "spyPower",
      "outputs": [
        {
          "internalType": "uint256",
          "name": "",
          "type": "uint256"
        }
      ],
      "payable": false,
      "stateMutability": "view",
      "type": "function"
    },
    {
      "constant": false,
      "inputs": [
        {
          "internalType": "address",
          "name": "_owner",
          "type": "address"
        },
        {
          "internalType": "uint256",
          "name": "_x",
          "type": "uint256"
        },
        {
          "internalType": "uint256",
          "name": "_y",
          "type": "uint256"
        }
      ],
      "name": "startBuild",
      "outputs": [
        {
          "internalType": "uint256",
          "name": "",
          "type": "uint256"
        }
      ],
      "payable": false,
      "stateMutability": "nonpayable",
      "type": "function"
    },
    {
      "constant": false,
      "inputs": [
        {
          "internalType": "uint256",
          "name": "number",
          "type": "uint256"
        }
      ],
      "name": "startCreateSoldier",
      "outputs": [
        {
          "internalType": "uint256",
          "name": "",
          "type": "uint256"
        }
      ],
      "payable": false,
      "stateMutability": "nonpayable",
      "type": "function"
    },
    {
      "constant": false,
      "inputs": [
        {
          "internalType": "uint256",
          "name": "number",
          "type": "uint256"
        }
      ],
      "name": "startCreateSpy",
      "outputs": [
        {
          "internalType": "uint256",
          "name": "",
          "type": "uint256"
        }
      ],
      "payable": false,
      "stateMutability": "nonpayable",
      "type": "function"
    },
    {
      "constant": true,
      "inputs": [
        {
          "internalType": "address",
          "name": "",
          "type": "address"
        }
      ],
      "name": "stoneOwnerCount",
      "outputs": [
        {
          "internalType": "uint256",
          "name": "",
          "type": "uint256"
        }
      ],
      "payable": false,
      "stateMutability": "view",
      "type": "function"
    },
    {
      "constant": false,
      "inputs": [
        {
          "internalType": "address",
          "name": "_owner",
          "type": "address"
        }
      ],
      "name": "updateBuild",
      "outputs": [
        {
          "internalType": "uint256",
          "name": "",
          "type": "uint256"
        }
      ],
      "payable": false,
      "stateMutability": "nonpayable",
      "type": "function"
    },
    {
      "constant": false,
      "inputs": [
        {
          "internalType": "address",
          "name": "_owner",
          "type": "address"
        }
      ],
      "name": "updateCreateSoldier",
      "outputs": [
        {
          "internalType": "uint256",
          "name": "",
          "type": "uint256"
        }
      ],
      "payable": false,
      "stateMutability": "nonpayable",
      "type": "function"
    },
    {
      "constant": false,
      "inputs": [
        {
          "internalType": "address",
          "name": "_owner",
          "type": "address"
        }
      ],
      "name": "updateCreateSpy",
      "outputs": [
        {
          "internalType": "uint256",
          "name": "",
          "type": "uint256"
        }
      ],
      "payable": false,
      "stateMutability": "nonpayable",
      "type": "function"
    },
    {
      "constant": true,
      "inputs": [
        {
          "internalType": "address",
          "name": "",
          "type": "address"
        }
      ],
      "name": "woodOwnerCount",
      "outputs": [
        {
          "internalType": "uint256",
          "name": "",
          "type": "uint256"
        }
      ],
      "payable": false,
      "stateMutability": "view",
      "type": "function"
    },
    {
      "constant": false,
      "inputs": [
        {
          "internalType": "address",
          "name": "_owner",
          "type": "address"
        }
      ],
      "name": "updateProduce",
      "outputs": [],
      "payable": false,
      "stateMutability": "nonpayable",
      "type": "function"
    }
  ],
  "bytecode": "0x60806040526010600b55600b54600a0a600c55600a600d556064600f556001601d556001601f55600160215560016023556001602555600a602b55600a602c556001602d556001602e55600a603455600a60355534801561005f57600080fd5b50616f4e80620000706000396000f3fe608060405234801561001057600080fd5b506004361061041d5760003560e01c806382a418281161022b578063c8b4eeff11610130578063e5b285f2116100b8578063f25a178211610087578063f25a178214611855578063f4ab27f01461187a578063f7a24660146118e8578063fd8ccf2714611906578063ff4581f1146119245761041d565b8063e5b285f2146116f5578063e742c98d1461174d578063e9933a4b146117a5578063ef78b6dc146117fd5761041d565b8063de634152116100ff578063de6341521461155d578063e1fa7638146115b5578063e21843fd146115ed578063e2d8ebee14611645578063e428afa01461169d5761041d565b8063c8b4eeff1461146d578063ccf358a4146114af578063d1405a4e146114cd578063db2ace2a146115055761041d565b80639c2fa9b8116101b3578063ad1c89cc11610182578063ad1c89cc1461130f578063af3437ae1461132d578063b5c3e40214611385578063b7c47d6e146113dd578063c787fd09146114155761041d565b80639c2fa9b8146111f5578063a4b1919d1461122d578063a706be8114611285578063aba19ece146112a35761041d565b8063867b84e2116101fa578063867b84e2146110c35780638919a9ca1461111b5780638c5f68541461113d5780638e3c81921461117f5780639073af811461119d5761041d565b806382a4182814610ecc578063834af9b614610f6557806383ed5be214610fa7578063842a89fa14610feb5761041d565b806346125f84116103315780635d0ea1ab116102b9578063789630be11610288578063789630be14610dbe57806378eb4df414610ddc5780637e2b875b14610e1e578063807f53f514610e3c5780638226e53014610e745761041d565b80635d0ea1ab14610cb8578063623e9ba614610cf057806369cddf1d14610d0e5780637736a2ec14610d665761041d565b8063503371a511610300578063503371a514610b245780635192b29114610b7c5780635607420914610bea5780635697b21a14610c425780635ad6099314610c9a5761041d565b806346125f84146109d457806347dcb51c14610a2c5780634807c3d514610a4a5780634c96a06214610a685761041d565b80631a653e8b116103b45780632c79c523116103835780632c79c5231461079a57806330542043146108ca578063323a468614610922578063372379701461096457806344a0529e1461099c5761041d565b80631a653e8b146106ae5780631c1b625a146106cc5780631c980beb1461072457806329058536146107425761041d565b80630ddcafad116103f05780630ddcafad146105275780630e85117a1461057f5780630f130a39146105d7578063194c717b146106905761041d565b80630194b6131461042257806305c4ae3f146104725780630acdea6f146104aa5780630c2b6904146104cf575b600080fd5b6104586004803603604081101561043857600080fd5b81019080803590602001909291908035906020019092919050505061197c565b604051808215151515815260200191505060405180910390f35b6104a86004803603604081101561048857600080fd5b810190808035906020019092919080359060200190929190505050611a6d565b005b6104b2611abc565b604051808381526020018281526020019250505060405180910390f35b610511600480360360208110156104e557600080fd5b81019080803573ffffffffffffffffffffffffffffffffffffffff169060200190929190505050611b49565b6040518082815260200191505060405180910390f35b6105696004803603602081101561053d57600080fd5b81019080803573ffffffffffffffffffffffffffffffffffffffff169060200190929190505050611b61565b6040518082815260200191505060405180910390f35b6105c16004803603602081101561059557600080fd5b81019080803573ffffffffffffffffffffffffffffffffffffffff169060200190929190505050611b78565b6040518082815260200191505060405180910390f35b610603600480360360208110156105ed57600080fd5b8101908080359060200190929190505050611cf4565b604051808415151515815260200180602001838152602001828103825284818151815260200191508051906020019080838360005b83811015610653578082015181840152602081019050610638565b50505050905090810190601f1680156106805780820380516001836020036101000a031916815260200191505b5094505050505060405180910390f35b610698611e37565b6040518082815260200191505060405180910390f35b6106b6611e3d565b6040518082815260200191505060405180910390f35b61070e600480360360208110156106e257600080fd5b81019080803573ffffffffffffffffffffffffffffffffffffffff169060200190929190505050611e43565b6040518082815260200191505060405180910390f35b61072c612198565b6040518082815260200191505060405180910390f35b6107846004803603602081101561075857600080fd5b81019080803573ffffffffffffffffffffffffffffffffffffffff1690602001909291905050506121de565b6040518082815260200191505060405180910390f35b610873600480360360408110156107b057600080fd5b81019080803573ffffffffffffffffffffffffffffffffffffffff169060200190929190803590602001906401000000008111156107ed57600080fd5b8201836020820111156107ff57600080fd5b8035906020019184600183028401116401000000008311171561082157600080fd5b91908080601f016020809104026020016040519081016040528093929190818152602001838380828437600081840152601f19601f8201169050808301925050505050505091929192905050506121f6565b6040518080602001828103825283818151815260200191508051906020019060200280838360005b838110156108b657808201518184015260208101905061089b565b505050509050019250505060405180910390f35b61090c600480360360208110156108e057600080fd5b81019080803573ffffffffffffffffffffffffffffffffffffffff169060200190929190505050612824565b6040518082815260200191505060405180910390f35b61094e6004803603602081101561093857600080fd5b810190808035906020019092919050505061283c565b6040518082815260200191505060405180910390f35b61099a6004803603604081101561097a57600080fd5b8101908080359060200190929190803590602001909291905050506128cc565b005b6109d2600480360360408110156109b257600080fd5b810190808035906020019092919080359060200190929190505050612957565b005b610a16600480360360208110156109ea57600080fd5b81019080803573ffffffffffffffffffffffffffffffffffffffff1690602001909291905050506129a6565b6040518082815260200191505060405180910390f35b610a346129be565b6040518082815260200191505060405180910390f35b610a526129c4565b6040518082815260200191505060405180910390f35b610a9460048036036020811015610a7e57600080fd5b81019080803590602001909291905050506129ca565b6040518080602001858152602001848152602001838152602001828103825286818151815260200191508051906020019080838360005b83811015610ae6578082015181840152602081019050610acb565b50505050905090810190601f168015610b135780820380516001836020036101000a031916815260200191505b509550505050505060405180910390f35b610b6660048036036020811015610b3a57600080fd5b81019080803573ffffffffffffffffffffffffffffffffffffffff169060200190929190505050612a9f565b6040518082815260200191505060405180910390f35b610ba860048036036020811015610b9257600080fd5b8101908080359060200190929190505050612ab7565b604051808273ffffffffffffffffffffffffffffffffffffffff1673ffffffffffffffffffffffffffffffffffffffff16815260200191505060405180910390f35b610c2c60048036036020811015610c0057600080fd5b81019080803573ffffffffffffffffffffffffffffffffffffffff169060200190929190505050612aea565b6040518082815260200191505060405180910390f35b610c8460048036036020811015610c5857600080fd5b81019080803573ffffffffffffffffffffffffffffffffffffffff169060200190929190505050612d44565b6040518082815260200191505060405180910390f35b610ca2612d5c565b6040518082815260200191505060405180910390f35b610cee60048036036040811015610cce57600080fd5b810190808035906020019092919080359060200190929190505050612da3565b005b610cf8612df2565b6040518082815260200191505060405180910390f35b610d5060048036036020811015610d2457600080fd5b81019080803573ffffffffffffffffffffffffffffffffffffffff169060200190929190505050612e39565b6040518082815260200191505060405180910390f35b610da860048036036020811015610d7c57600080fd5b81019080803573ffffffffffffffffffffffffffffffffffffffff16906020019092919050505061318e565b6040518082815260200191505060405180910390f35b610dc66131a6565b6040518082815260200191505060405180910390f35b610e0860048036036020811015610df257600080fd5b810190808035906020019092919050505061323d565b6040518082815260200191505060405180910390f35b610e266133d7565b6040518082815260200191505060405180910390f35b610e7260048036036040811015610e5257600080fd5b8101908080359060200190929190803590602001909291905050506133e1565b005b610eb660048036036020811015610e8a57600080fd5b81019080803573ffffffffffffffffffffffffffffffffffffffff169060200190929190505050613430565b6040518082815260200191505060405180910390f35b610f0e60048036036020811015610ee257600080fd5b81019080803573ffffffffffffffffffffffffffffffffffffffff169060200190929190505050613448565b6040518080602001828103825283818151815260200191508051906020019060200280838360005b83811015610f51578082015181840152602081019050610f36565b505050509050019250505060405180910390f35b610f9160048036036020811015610f7b57600080fd5b8101908080359060200190929190505050613709565b6040518082815260200191505060405180910390f35b610fe960048036036020811015610fbd57600080fd5b81019080803573ffffffffffffffffffffffffffffffffffffffff169060200190929190505050613799565b005b6110416004803603606081101561100157600080fd5b81019080803573ffffffffffffffffffffffffffffffffffffffff16906020019092919080359060200190929190803590602001909291905050506137c9565b6040518083815260200180602001828103825283818151815260200191508051906020019080838360005b8381101561108757808201518184015260208101905061106c565b50505050905090810190601f1680156110b45780820380516001836020036101000a031916815260200191505b50935050505060405180910390f35b611105600480360360208110156110d957600080fd5b81019080803573ffffffffffffffffffffffffffffffffffffffff1690602001909291905050506139b2565b6040518082815260200191505060405180910390f35b6111236139ca565b604051808215151515815260200191505060405180910390f35b6111696004803603602081101561115357600080fd5b8101908080359060200190929190505050613a24565b6040518082815260200191505060405180910390f35b611187613bbe565b6040518082815260200191505060405180910390f35b6111df600480360360208110156111b357600080fd5b81019080803573ffffffffffffffffffffffffffffffffffffffff169060200190929190505050613bc4565b6040518082815260200191505060405180910390f35b61122b6004803603604081101561120b57600080fd5b810190808035906020019092919080359060200190929190505050613bdc565b005b61126f6004803603602081101561124357600080fd5b81019080803573ffffffffffffffffffffffffffffffffffffffff169060200190929190505050613c2b565b6040518082815260200191505060405180910390f35b61128d613c74565b6040518082815260200191505060405180910390f35b6112f9600480360360608110156112b957600080fd5b81019080803573ffffffffffffffffffffffffffffffffffffffff1690602001909291908035906020019092919080359060200190929190505050613c7a565b6040518082815260200191505060405180910390f35b611317613ea4565b6040518082815260200191505060405180910390f35b61136f6004803603602081101561134357600080fd5b81019080803573ffffffffffffffffffffffffffffffffffffffff169060200190929190505050613eb1565b6040518082815260200191505060405180910390f35b6113c76004803603602081101561139b57600080fd5b81019080803573ffffffffffffffffffffffffffffffffffffffff169060200190929190505050613ec9565b6040518082815260200191505060405180910390f35b611413600480360360408110156113f357600080fd5b810190808035906020019092919080359060200190929190505050613ee1565b005b6114576004803603602081101561142b57600080fd5b81019080803573ffffffffffffffffffffffffffffffffffffffff169060200190929190505050613f6c565b6040518082815260200191505060405180910390f35b6114996004803603602081101561148357600080fd5b8101908080359060200190929190505050613f84565b6040518082815260200191505060405180910390f35b6114b7614014565b6040518082815260200191505060405180910390f35b611503600480360360408110156114e357600080fd5b81019080803590602001909291908035906020019092919050505061405b565b005b6115476004803603602081101561151b57600080fd5b81019080803573ffffffffffffffffffffffffffffffffffffffff1690602001909291905050506140ef565b6040518082815260200191505060405180910390f35b61159f6004803603602081101561157357600080fd5b81019080803573ffffffffffffffffffffffffffffffffffffffff169060200190929190505050614138565b6040518082815260200191505060405180910390f35b6115eb600480360360408110156115cb57600080fd5b810190808035906020019092919080359060200190929190505050614150565b005b61162f6004803603602081101561160357600080fd5b81019080803573ffffffffffffffffffffffffffffffffffffffff16906020019092919050505061423b565b6040518082815260200191505060405180910390f35b6116876004803603602081101561165b57600080fd5b81019080803573ffffffffffffffffffffffffffffffffffffffff169060200190929190505050614284565b6040518082815260200191505060405180910390f35b6116df600480360360208110156116b357600080fd5b81019080803573ffffffffffffffffffffffffffffffffffffffff16906020019092919050505061429c565b6040518082815260200191505060405180910390f35b6117376004803603602081101561170b57600080fd5b81019080803573ffffffffffffffffffffffffffffffffffffffff1690602001909291905050506142b4565b6040518082815260200191505060405180910390f35b61178f6004803603602081101561176357600080fd5b81019080803573ffffffffffffffffffffffffffffffffffffffff1690602001909291905050506142cc565b6040518082815260200191505060405180910390f35b6117e7600480360360208110156117bb57600080fd5b81019080803573ffffffffffffffffffffffffffffffffffffffff1690602001909291905050506142e4565b6040518082815260200191505060405180910390f35b61183f6004803603602081101561181357600080fd5b81019080803573ffffffffffffffffffffffffffffffffffffffff1690602001909291905050506142fc565b6040518082815260200191505060405180910390f35b61185d614314565b604051808381526020018281526020019250505060405180910390f35b6118a66004803603602081101561189057600080fd5b81019080803590602001909291905050506143a1565b604051808273ffffffffffffffffffffffffffffffffffffffff1673ffffffffffffffffffffffffffffffffffffffff16815260200191505060405180910390f35b6118f06143d4565b6040518082815260200191505060405180910390f35b61190e6143da565b6040518082815260200191505060405180910390f35b6119666004803603602081101561193a57600080fd5b81019080803573ffffffffffffffffffffffffffffffffffffffff169060200190929190505050614421565b6040518082815260200191505060405180910390f35b60006009600084815260200190815260200160002060009054906101000a900473ffffffffffffffffffffffffffffffffffffffff1673ffffffffffffffffffffffffffffffffffffffff163373ffffffffffffffffffffffffffffffffffffffff16146119e957600080fd5b60006009600085815260200190815260200160002060009054906101000a900473ffffffffffffffffffffffffffffffffffffffff16905060006009600085815260200190815260200160002060009054906101000a900473ffffffffffffffffffffffffffffffffffffffff169050611a638282614439565b9250505092915050565b611aae336040518060400160405280600481526020017f4d696e650000000000000000000000000000000000000000000000000000000081525084846144eb565b50611ab833614e5f565b5050565b600080603160003373ffffffffffffffffffffffffffffffffffffffff1673ffffffffffffffffffffffffffffffffffffffff168152602001908152602001600020544203603260003373ffffffffffffffffffffffffffffffffffffffff1673ffffffffffffffffffffffffffffffffffffffff16815260200190815260200160002054915091509091565b60296020528060005260406000206000915090505481565b602080528060005260406000206000915090505481565b600080601260008473ffffffffffffffffffffffffffffffffffffffff1673ffffffffffffffffffffffffffffffffffffffff1681526020019081526020016000205490506000601160008573ffffffffffffffffffffffffffffffffffffffff1673ffffffffffffffffffffffffffffffffffffffff1681526020019081526020016000205414158015611c705750600d54600e8281548110611c1857fe5b90600052602060002090600402016003015402601160008573ffffffffffffffffffffffffffffffffffffffff1673ffffffffffffffffffffffffffffffffffffffff16815260200190815260200160002054014210155b15611c7f576000915050611cef565b600042600d54600e8481548110611c9257fe5b90600052602060002090600402016003015402601160008773ffffffffffffffffffffffffffffffffffffffff1673ffffffffffffffffffffffffffffffffffffffff168152602001908152602001600020540103905080925050505b919050565b600060606000600e805490508410611d4e576000806040518060400160405280601381526020017f696e76616c6964206275696c64696e672069640000000000000000000000000081525090809050925092509250611e30565b6001600e8581548110611d5d57fe5b9060005260206000209060040201600001600e8681548110611d7b57fe5b906000526020600020906004020160030154818054600181600116156101000203166002900480601f016020809104026020016040519081016040528092919081815260200182805460018160011615610100020316600290048015611e225780601f10611df757610100808354040283529160200191611e22565b820191906000526020600020905b815481529060010190602001808311611e0557829003601f168201915b505050505091509250925092505b9193909250565b60085481565b60355481565b600080602860008473ffffffffffffffffffffffffffffffffffffffff1673ffffffffffffffffffffffffffffffffffffffff168152602001908152602001600020541415611e955760009050612193565b611f26602960008473ffffffffffffffffffffffffffffffffffffffff1673ffffffffffffffffffffffffffffffffffffffff16815260200190815260200160002054602860008573ffffffffffffffffffffffffffffffffffffffff1673ffffffffffffffffffffffffffffffffffffffff1681526020019081526020016000205461509b90919063ffffffff16565b42106120f7576000611fd3611f85602b54602760008773ffffffffffffffffffffffffffffffffffffffff1673ffffffffffffffffffffffffffffffffffffffff1681526020019081526020016000205461512390919063ffffffff16565b602960008673ffffffffffffffffffffffffffffffffffffffff1673ffffffffffffffffffffffffffffffffffffffff168152602001908152602001600020546151a990919063ffffffff16565b905080602660008573ffffffffffffffffffffffffffffffffffffffff1673ffffffffffffffffffffffffffffffffffffffff1681526020019081526020016000205401602660008573ffffffffffffffffffffffffffffffffffffffff1673ffffffffffffffffffffffffffffffffffffffff168152602001908152602001600020819055506000602860008573ffffffffffffffffffffffffffffffffffffffff1673ffffffffffffffffffffffffffffffffffffffff168152602001908152602001600020819055506000602960008573ffffffffffffffffffffffffffffffffffffffff1673ffffffffffffffffffffffffffffffffffffffff168152602001908152602001600020819055506120ed836151f3565b6000915050612193565b600061218c42602960008673ffffffffffffffffffffffffffffffffffffffff1673ffffffffffffffffffffffffffffffffffffffff16815260200190815260200160002054602860008773ffffffffffffffffffffffffffffffffffffffff1673ffffffffffffffffffffffffffffffffffffffff168152602001908152602001600020540161538690919063ffffffff16565b9050809150505b919050565b60008060003373ffffffffffffffffffffffffffffffffffffffff1673ffffffffffffffffffffffffffffffffffffffff16815260200190815260200160002054905090565b60276020528060005260406000206000915090505481565b606060008090506040518060400160405280600481526020017f4661726d00000000000000000000000000000000000000000000000000000000815250805190602001208380519060200120141561228f57601460008573ffffffffffffffffffffffffffffffffffffffff1673ffffffffffffffffffffffffffffffffffffffff168152602001908152602001600020549050612690565b6040518060400160405280600481526020017f4d696e6500000000000000000000000000000000000000000000000000000000815250805190602001208380519060200120141561232157601560008573ffffffffffffffffffffffffffffffffffffffff1673ffffffffffffffffffffffffffffffffffffffff16815260200190815260200160002054905061268f565b6040518060400160405280600581526020017f4d616e6f7200000000000000000000000000000000000000000000000000000081525080519060200120838051906020012014156123b357601660008573ffffffffffffffffffffffffffffffffffffffff1673ffffffffffffffffffffffffffffffffffffffff16815260200190815260200160002054905061268e565b6040518060400160405280600681526020017f5175617272790000000000000000000000000000000000000000000000000000815250805190602001208380519060200120141561244557601760008573ffffffffffffffffffffffffffffffffffffffff1673ffffffffffffffffffffffffffffffffffffffff16815260200190815260200160002054905061268d565b6040518060400160405280600781526020017f5361776d696c6c0000000000000000000000000000000000000000000000000081525080519060200120838051906020012014156124d757601860008573ffffffffffffffffffffffffffffffffffffffff1673ffffffffffffffffffffffffffffffffffffffff16815260200190815260200160002054905061268c565b6040518060400160405280600681526020017f43656c6c61720000000000000000000000000000000000000000000000000000815250805190602001208380519060200120141561256957601960008573ffffffffffffffffffffffffffffffffffffffff1673ffffffffffffffffffffffffffffffffffffffff16815260200190815260200160002054905061268b565b6040518060400160405280600781526020017f4261727261636b0000000000000000000000000000000000000000000000000081525080519060200120838051906020012014156125fb57601a60008573ffffffffffffffffffffffffffffffffffffffff1673ffffffffffffffffffffffffffffffffffffffff16815260200190815260200160002054905061268a565b6040518060400160405280600a81526020017f4c61626f7261746f727900000000000000000000000000000000000000000000815250805190602001208380519060200120141561268957601b60008573ffffffffffffffffffffffffffffffffffffffff1673ffffffffffffffffffffffffffffffffffffffff1681526020019081526020016000205490505b5b5b5b5b5b5b5b6060816040519080825280602002602001820160405280156126c15781602001602082028038833980820191505090505b509050600080905060008090505b600e80549050811015612817578673ffffffffffffffffffffffffffffffffffffffff166010600083815260200190815260200160002060009054906101000a900473ffffffffffffffffffffffffffffffffffffffff1673ffffffffffffffffffffffffffffffffffffffff161480156127d557508580519060200120600e828154811061275a57fe5b906000526020600020906004020160000160405180828054600181600116156101000203166002900480156127c65780601f106127a45761010080835404028352918201916127c6565b820191906000526020600020905b8154815290600101906020018083116127b2575b50509150506040518091039020145b1561280a57808383815181106127e757fe5b60200260200101818152505061280760018361509b90919063ffffffff16565b91505b80806001019150506126cf565b5081935050505092915050565b601c6020528060005260406000206000915090505481565b60006008548210156128c257600760006009600085815260200190815260200160002060009054906101000a900473ffffffffffffffffffffffffffffffffffffffff1673ffffffffffffffffffffffffffffffffffffffff1673ffffffffffffffffffffffffffffffffffffffff1681526020019081526020016000205490506128c7565b600090505b919050565b61290d336040518060400160405280600a81526020017f4c61626f7261746f72790000000000000000000000000000000000000000000081525084846144eb565b506001603060003373ffffffffffffffffffffffffffffffffffffffff1673ffffffffffffffffffffffffffffffffffffffff168152602001908152602001600020819055505050565b612998336040518060400160405280600581526020017f4d616e6f7200000000000000000000000000000000000000000000000000000081525084846144eb565b506129a2336153d0565b5050565b600a6020528060005260406000206000915090505481565b602b5481565b60345481565b600e81815481106129d757fe5b9060005260206000209060040201600091509050806000018054600181600116156101000203166002900480601f016020809104026020016040519081016040528092919081815260200182805460018160011615610100020316600290048015612a835780601f10612a5857610100808354040283529160200191612a83565b820191906000526020600020905b815481529060010190602001808311612a6657829003601f168201915b5050505050908060010154908060020154908060030154905084565b60056020528060005260406000206000915090505481565b60106020528060005260406000206000915054906101000a900473ffffffffffffffffffffffffffffffffffffffff1681565b600080601260008473ffffffffffffffffffffffffffffffffffffffff1673ffffffffffffffffffffffffffffffffffffffff1681526020019081526020016000205490506000601160008573ffffffffffffffffffffffffffffffffffffffff1673ffffffffffffffffffffffffffffffffffffffff1681526020019081526020016000205414158015612be25750600d54600e8281548110612b8a57fe5b90600052602060002090600402016003015402601160008573ffffffffffffffffffffffffffffffffffffffff1673ffffffffffffffffffffffffffffffffffffffff16815260200190815260200160002054014210155b15612ccf57612c196001600e8381548110612bf957fe5b90600052602060002090600402016003015461509b90919063ffffffff16565b600e8281548110612c2657fe5b9060005260206000209060040201600301819055506000601160008573ffffffffffffffffffffffffffffffffffffffff1673ffffffffffffffffffffffffffffffffffffffff168152602001908152602001600020819055506000601260008573ffffffffffffffffffffffffffffffffffffffff1673ffffffffffffffffffffffffffffffffffffffff168152602001908152602001600020819055506000915050612d3f565b600042600d54600e8481548110612ce257fe5b90600052602060002090600402016003015402601160008773ffffffffffffffffffffffffffffffffffffffff1673ffffffffffffffffffffffffffffffffffffffff168152602001908152602001600020540103905080925050505b919050565b60266020528060005260406000206000915090505481565b6000600260003373ffffffffffffffffffffffffffffffffffffffff1673ffffffffffffffffffffffffffffffffffffffff16815260200190815260200160002054905090565b612de4336040518060400160405280600481526020017f4661726d0000000000000000000000000000000000000000000000000000000081525084846144eb565b50612dee3361560c565b5050565b6000600360003373ffffffffffffffffffffffffffffffffffffffff1673ffffffffffffffffffffffffffffffffffffffff16815260200190815260200160002054905090565b600080603160008473ffffffffffffffffffffffffffffffffffffffff1673ffffffffffffffffffffffffffffffffffffffff168152602001908152602001600020541415612e8b5760009050613189565b612f1c603260008473ffffffffffffffffffffffffffffffffffffffff1673ffffffffffffffffffffffffffffffffffffffff16815260200190815260200160002054603160008573ffffffffffffffffffffffffffffffffffffffff1673ffffffffffffffffffffffffffffffffffffffff1681526020019081526020016000205461509b90919063ffffffff16565b42106130ed576000612fc9612f7b603454603060008773ffffffffffffffffffffffffffffffffffffffff1673ffffffffffffffffffffffffffffffffffffffff1681526020019081526020016000205461512390919063ffffffff16565b603260008673ffffffffffffffffffffffffffffffffffffffff1673ffffffffffffffffffffffffffffffffffffffff168152602001908152602001600020546151a990919063ffffffff16565b905080602f60008573ffffffffffffffffffffffffffffffffffffffff1673ffffffffffffffffffffffffffffffffffffffff1681526020019081526020016000205401602f60008573ffffffffffffffffffffffffffffffffffffffff1673ffffffffffffffffffffffffffffffffffffffff168152602001908152602001600020819055506000603160008573ffffffffffffffffffffffffffffffffffffffff1673ffffffffffffffffffffffffffffffffffffffff168152602001908152602001600020819055506000603260008573ffffffffffffffffffffffffffffffffffffffff1673ffffffffffffffffffffffffffffffffffffffff168152602001908152602001600020819055506130e383615848565b6000915050613189565b600061318242603260008673ffffffffffffffffffffffffffffffffffffffff1673ffffffffffffffffffffffffffffffffffffffff16815260200190815260200160002054603160008773ffffffffffffffffffffffffffffffffffffffff1673ffffffffffffffffffffffffffffffffffffffff168152602001908152602001600020540161538690919063ffffffff16565b9050809150505b919050565b60246020528060005260406000206000915090505481565b600080600090505b600854811015613233573373ffffffffffffffffffffffffffffffffffffffff166009600083815260200190815260200160002060009054906101000a900473ffffffffffffffffffffffffffffffffffffffff1673ffffffffffffffffffffffffffffffffffffffff161415613228578091505061323a565b8060010190506131ae565b5060085490505b90565b6000803390506000603160008373ffffffffffffffffffffffffffffffffffffffff1673ffffffffffffffffffffffffffffffffffffffff16815260200190815260200160002054146132945760009150506133d2565b6000806132a1838661590f565b9150603060008473ffffffffffffffffffffffffffffffffffffffff1673ffffffffffffffffffffffffffffffffffffffff1681526020019081526020016000205490506000151582151514156132fe57600093505050506133d2565b42603160008573ffffffffffffffffffffffffffffffffffffffff1673ffffffffffffffffffffffffffffffffffffffff1681526020019081526020016000208190555084816034540202603260008573ffffffffffffffffffffffffffffffffffffffff1673ffffffffffffffffffffffffffffffffffffffff16815260200190815260200160002081905550603260008473ffffffffffffffffffffffffffffffffffffffff1673ffffffffffffffffffffffffffffffffffffffff1681526020019081526020016000205493505050505b919050565b6000600854905090565b613422336040518060400160405280600781526020017f5361776d696c6c0000000000000000000000000000000000000000000000000081525084846144eb565b5061342c33615a0f565b5050565b60016020528060005260406000206000915090505481565b606080601a60008473ffffffffffffffffffffffffffffffffffffffff1673ffffffffffffffffffffffffffffffffffffffff16815260200190815260200160002054601960008573ffffffffffffffffffffffffffffffffffffffff1673ffffffffffffffffffffffffffffffffffffffff16815260200190815260200160002054601860008673ffffffffffffffffffffffffffffffffffffffff1673ffffffffffffffffffffffffffffffffffffffff16815260200190815260200160002054601760008773ffffffffffffffffffffffffffffffffffffffff1673ffffffffffffffffffffffffffffffffffffffff16815260200190815260200160002054601660008873ffffffffffffffffffffffffffffffffffffffff1673ffffffffffffffffffffffffffffffffffffffff16815260200190815260200160002054601560008973ffffffffffffffffffffffffffffffffffffffff1673ffffffffffffffffffffffffffffffffffffffff16815260200190815260200160002054601460008a73ffffffffffffffffffffffffffffffffffffffff1673ffffffffffffffffffffffffffffffffffffffff1681526020019081526020016000205401010101010160405190808252806020026020018201604052801561363f5781602001602082028038833980820191505090505b509050600080905060008090505b600e805490508110156136fe578473ffffffffffffffffffffffffffffffffffffffff166010600083815260200190815260200160002060009054906101000a900473ffffffffffffffffffffffffffffffffffffffff1673ffffffffffffffffffffffffffffffffffffffff1614156136f157808383815181106136ce57fe5b6020026020010181815250506136ee60018361509b90919063ffffffff16565b91505b808060010191505061364d565b508192505050919050565b600060085482101561378f57600660006009600085815260200190815260200160002060009054906101000a900473ffffffffffffffffffffffffffffffffffffffff1673ffffffffffffffffffffffffffffffffffffffff1673ffffffffffffffffffffffffffffffffffffffff168152602001908152602001600020549050613794565b600090505b919050565b6137a2816153d0565b6137ab81614e5f565b6137b48161560c565b6137bd81615c4b565b6137c681615a0f565b50565b6000606060008090505b600e80549050811015613969578573ffffffffffffffffffffffffffffffffffffffff166010600083815260200190815260200160002060009054906101000a900473ffffffffffffffffffffffffffffffffffffffff1673ffffffffffffffffffffffffffffffffffffffff16141561395c5784600e828154811061385557fe5b906000526020600020906004020160010154148015613891575083600e828154811061387d57fe5b906000526020600020906004020160020154145b1561395b5780600e82815481106138a457fe5b9060005260206000209060040201600001808054600181600116156101000203166002900480601f01602080910402602001604051908101604052809291908181526020018280546001816001161561010002031660029004801561394a5780601f1061391f5761010080835404028352916020019161394a565b820191906000526020600020905b81548152906001019060200180831161392d57829003601f168201915b5050505050905092509250506139aa565b5b80806001019150506137d3565b60008090506040518060400160405280600481526020017f4e6f6e650000000000000000000000000000000000000000000000000000000081525092509250505b935093915050565b60046020528060005260406000206000915090505481565b600080600a60003373ffffffffffffffffffffffffffffffffffffffff1673ffffffffffffffffffffffffffffffffffffffff168152602001908152602001600020541115613a1c5760019050613a21565b600090505b90565b6000803390506000602860008373ffffffffffffffffffffffffffffffffffffffff1673ffffffffffffffffffffffffffffffffffffffff1681526020019081526020016000205414613a7b576000915050613bb9565b600080613a888386615e86565b9150602760008473ffffffffffffffffffffffffffffffffffffffff1673ffffffffffffffffffffffffffffffffffffffff168152602001908152602001600020549050600015158215151415613ae55760009350505050613bb9565b42602860008573ffffffffffffffffffffffffffffffffffffffff1673ffffffffffffffffffffffffffffffffffffffff168152602001908152602001600020819055508481602b540202602960008573ffffffffffffffffffffffffffffffffffffffff1673ffffffffffffffffffffffffffffffffffffffff16815260200190815260200160002081905550602960008473ffffffffffffffffffffffffffffffffffffffff1673ffffffffffffffffffffffffffffffffffffffff1681526020019081526020016000205493505050505b919050565b602d5481565b60316020528060005260406000206000915090505481565b613c1d336040518060400160405280600681526020017f517561727279000000000000000000000000000000000000000000000000000081525084846144eb565b50613c2733615c4b565b5050565b6000602660008373ffffffffffffffffffffffffffffffffffffffff1673ffffffffffffffffffffffffffffffffffffffff168152602001908152602001600020549050919050565b602e5481565b600080613c888585856137c9565b50809150506000811415613ca0576000915050613e9d565b6040518060400160405280600681526020017f436173746c65000000000000000000000000000000000000000000000000000081525080519060200120600e8281548110613cea57fe5b90600052602060002090600402016000016040518082805460018160011615610100020316600290048015613d565780601f10613d34576101008083540402835291820191613d56565b820191906000526020600020905b815481529060010190602001808311613d42575b5050915050604051809103902050506000601160008773ffffffffffffffffffffffffffffffffffffffff1673ffffffffffffffffffffffffffffffffffffffff1681526020019081526020016000205414613db6576000915050613e9d565b80601260008773ffffffffffffffffffffffffffffffffffffffff1673ffffffffffffffffffffffffffffffffffffffff1681526020019081526020016000208190555042601160008773ffffffffffffffffffffffffffffffffffffffff1673ffffffffffffffffffffffffffffffffffffffff168152602001908152602001600020819055506000600f54600e8381548110613e5057fe5b906000526020600020906004020160030154029050613e7486600083848586615f86565b50600d54600e8381548110613e8557fe5b90600052602060002090600402016003015402925050505b9392505050565b6000600e80549050905090565b602f6020528060005260406000206000915090505481565b60326020528060005260406000206000915090505481565b613f22336040518060400160405280600781526020017f4261727261636b0000000000000000000000000000000000000000000000000081525084846144eb565b506001602760003373ffffffffffffffffffffffffffffffffffffffff1673ffffffffffffffffffffffffffffffffffffffff168152602001908152602001600020819055505050565b601e6020528060005260406000206000915090505481565b600060085482101561400a57600560006009600085815260200190815260200160002060009054906101000a900473ffffffffffffffffffffffffffffffffffffffff1673ffffffffffffffffffffffffffffffffffffffff1673ffffffffffffffffffffffffffffffffffffffff16815260200190815260200160002054905061400f565b600090505b919050565b6000600460003373ffffffffffffffffffffffffffffffffffffffff1673ffffffffffffffffffffffffffffffffffffffff16815260200190815260200160002054905090565b61409c336040518060400160405280600681526020017f436173746c65000000000000000000000000000000000000000000000000000081525084846144eb565b506140a6336163fa565b6001601360003373ffffffffffffffffffffffffffffffffffffffff1673ffffffffffffffffffffffffffffffffffffffff168152602001908152602001600020819055505050565b6000601260008373ffffffffffffffffffffffffffffffffffffffff1673ffffffffffffffffffffffffffffffffffffffff168152602001908152602001600020549050919050565b60306020528060005260406000206000915090505481565b6009600083815260200190815260200160002060009054906101000a900473ffffffffffffffffffffffffffffffffffffffff1673ffffffffffffffffffffffffffffffffffffffff163373ffffffffffffffffffffffffffffffffffffffff16146141bb57600080fd5b60006009600084815260200190815260200160002060009054906101000a900473ffffffffffffffffffffffffffffffffffffffff16905060006009600084815260200190815260200160002060009054906101000a900473ffffffffffffffffffffffffffffffffffffffff169050614235828261672a565b50505050565b6000602f60008373ffffffffffffffffffffffffffffffffffffffff1673ffffffffffffffffffffffffffffffffffffffff168152602001908152602001600020549050919050565b60066020528060005260406000206000915090505481565b60006020528060005260406000206000915090505481565b60026020528060005260406000206000915090505481565b60226020528060005260406000206000915090505481565b60076020528060005260406000206000915090505481565b60036020528060005260406000206000915090505481565b600080602860003373ffffffffffffffffffffffffffffffffffffffff1673ffffffffffffffffffffffffffffffffffffffff168152602001908152602001600020544203602960003373ffffffffffffffffffffffffffffffffffffffff1673ffffffffffffffffffffffffffffffffffffffff16815260200190815260200160002054915091509091565b60096020528060005260406000206000915054906101000a900473ffffffffffffffffffffffffffffffffffffffff1681565b602c5481565b6000600160003373ffffffffffffffffffffffffffffffffffffffff1673ffffffffffffffffffffffffffffffffffffffff16815260200190815260200160002054905090565b60336020528060005260406000206000915090505481565b600080600080600760008673ffffffffffffffffffffffffffffffffffffffff1673ffffffffffffffffffffffffffffffffffffffff16815260200190815260200160002054600760008873ffffffffffffffffffffffffffffffffffffffff1673ffffffffffffffffffffffffffffffffffffffff1681526020019081526020016000205411156144d457859250849150600190506144df565b849250859150600090505b80935050505092915050565b600080600e80549050141561461357600e60405180608001604052806040518060400160405280600f81526020017f66697273745f6275696c64696e67210000000000000000000000000000000000815250815260200160008152602001600081526020016103e881525090806001815401808255809150509060018203906000526020600020906004020160009091929091909150600082015181600001908051906020019061459d929190616e53565b5060208201518160010155604082015181600201556060820151816003015550505060006010600080815260200190815260200160002060006101000a81548173ffffffffffffffffffffffffffffffffffffffff021916908373ffffffffffffffffffffffffffffffffffffffff1602179055505b60006146b46001600e60405180608001604052808981526020018881526020018781526020016001815250908060018154018082558091505090600182039060005260206000209060040201600090919290919091506000820151816000019080519060200190614685929190616e53565b50602082015181600101556040820151816002015560608201518160030155505061538690919063ffffffff16565b90506146cd866000600f54600f54600f54600f54615f86565b50856010600083815260200190815260200160002060006101000a81548173ffffffffffffffffffffffffffffffffffffffff021916908373ffffffffffffffffffffffffffffffffffffffff1602179055506040518060400160405280600481526020017f4661726d000000000000000000000000000000000000000000000000000000008152508051906020012085805190602001201415614806576147be6001601460008973ffffffffffffffffffffffffffffffffffffffff1673ffffffffffffffffffffffffffffffffffffffff1681526020019081526020016000205461509b90919063ffffffff16565b601460008873ffffffffffffffffffffffffffffffffffffffff1673ffffffffffffffffffffffffffffffffffffffff16815260200190815260200160002081905550614e53565b6040518060400160405280600481526020017f4d696e650000000000000000000000000000000000000000000000000000000081525080519060200120858051906020012014156148ec576148a46001601560008973ffffffffffffffffffffffffffffffffffffffff1673ffffffffffffffffffffffffffffffffffffffff1681526020019081526020016000205461509b90919063ffffffff16565b601560008873ffffffffffffffffffffffffffffffffffffffff1673ffffffffffffffffffffffffffffffffffffffff16815260200190815260200160002081905550614e52565b6040518060400160405280600581526020017f4d616e6f7200000000000000000000000000000000000000000000000000000081525080519060200120858051906020012014156149d25761498a6001601660008973ffffffffffffffffffffffffffffffffffffffff1673ffffffffffffffffffffffffffffffffffffffff1681526020019081526020016000205461509b90919063ffffffff16565b601660008873ffffffffffffffffffffffffffffffffffffffff1673ffffffffffffffffffffffffffffffffffffffff16815260200190815260200160002081905550614e51565b6040518060400160405280600681526020017f51756172727900000000000000000000000000000000000000000000000000008152508051906020012085805190602001201415614ab857614a706001601760008973ffffffffffffffffffffffffffffffffffffffff1673ffffffffffffffffffffffffffffffffffffffff1681526020019081526020016000205461509b90919063ffffffff16565b601760008873ffffffffffffffffffffffffffffffffffffffff1673ffffffffffffffffffffffffffffffffffffffff16815260200190815260200160002081905550614e50565b6040518060400160405280600781526020017f5361776d696c6c000000000000000000000000000000000000000000000000008152508051906020012085805190602001201415614b9e57614b566001601860008973ffffffffffffffffffffffffffffffffffffffff1673ffffffffffffffffffffffffffffffffffffffff1681526020019081526020016000205461509b90919063ffffffff16565b601860008873ffffffffffffffffffffffffffffffffffffffff1673ffffffffffffffffffffffffffffffffffffffff16815260200190815260200160002081905550614e4f565b6040518060400160405280600681526020017f43656c6c617200000000000000000000000000000000000000000000000000008152508051906020012085805190602001201415614c8457614c3c6001601960008973ffffffffffffffffffffffffffffffffffffffff1673ffffffffffffffffffffffffffffffffffffffff1681526020019081526020016000205461509b90919063ffffffff16565b601960008873ffffffffffffffffffffffffffffffffffffffff1673ffffffffffffffffffffffffffffffffffffffff16815260200190815260200160002081905550614e4e565b6040518060400160405280600781526020017f4261727261636b000000000000000000000000000000000000000000000000008152508051906020012085805190602001201415614d6a57614d226001601a60008973ffffffffffffffffffffffffffffffffffffffff1673ffffffffffffffffffffffffffffffffffffffff1681526020019081526020016000205461509b90919063ffffffff16565b601a60008873ffffffffffffffffffffffffffffffffffffffff1673ffffffffffffffffffffffffffffffffffffffff16815260200190815260200160002081905550614e4d565b6040518060400160405280600a81526020017f4c61626f7261746f7279000000000000000000000000000000000000000000008152508051906020012085805190602001201415614e4c57614e086001601b60008973ffffffffffffffffffffffffffffffffffffffff1673ffffffffffffffffffffffffffffffffffffffff1681526020019081526020016000205461509b90919063ffffffff16565b601b60008873ffffffffffffffffffffffffffffffffffffffff1673ffffffffffffffffffffffffffffffffffffffff168152602001908152602001600020819055505b5b5b5b5b5b5b5b80915050949350505050565b6060614ea0826040518060400160405280600481526020017f4d696e65000000000000000000000000000000000000000000000000000000008152506121f6565b90506000601e60008473ffffffffffffffffffffffffffffffffffffffff1673ffffffffffffffffffffffffffffffffffffffff168152602001908152602001600020541480614ef1575060008151145b15614f405742601e60008473ffffffffffffffffffffffffffffffffffffffff1673ffffffffffffffffffffffffffffffffffffffff1681526020019081526020016000208190555050615098565b6000614f97600a601e60008673ffffffffffffffffffffffffffffffffffffffff1673ffffffffffffffffffffffffffffffffffffffff1681526020019081526020016000205442036151a990919063ffffffff16565b9050600080905060008090505b8351811015614ff457601f54600e858381518110614fbe57fe5b602002602001015181548110614fd057fe5b90600052602060002090600402016003015402820191508080600101915050614fa4565b50808202600160008673ffffffffffffffffffffffffffffffffffffffff1673ffffffffffffffffffffffffffffffffffffffff1681526020019081526020016000206000828254019250508190555081600a02601e60008673ffffffffffffffffffffffffffffffffffffffff1673ffffffffffffffffffffffffffffffffffffffff168152602001908152602001600020600082825401925050819055505050505b50565b600080828401905083811015615119576040517f08c379a000000000000000000000000000000000000000000000000000000000815260040180806020018281038252601b8152602001807f536166654d6174683a206164646974696f6e206f766572666c6f77000000000081525060200191505060405180910390fd5b8091505092915050565b60008083141561513657600090506151a3565b600082840290508284828161514757fe5b041461519e576040517f08c379a0000000000000000000000000000000000000000000000000000000008152600401808060200182810382526021815260200180616ef96021913960400191505060405180910390fd5b809150505b92915050565b60006151eb83836040518060400160405280601a81526020017f536166654d6174683a206469766973696f6e206279207a65726f000000000000815250616ccd565b905092915050565b602d54602760008373ffffffffffffffffffffffffffffffffffffffff1673ffffffffffffffffffffffffffffffffffffffff16815260200190815260200160002054602660008473ffffffffffffffffffffffffffffffffffffffff1673ffffffffffffffffffffffffffffffffffffffff168152602001908152602001600020540202600560008373ffffffffffffffffffffffffffffffffffffffff1673ffffffffffffffffffffffffffffffffffffffff16815260200190815260200160002081905550602e54602760008373ffffffffffffffffffffffffffffffffffffffff1673ffffffffffffffffffffffffffffffffffffffff16815260200190815260200160002054602660008473ffffffffffffffffffffffffffffffffffffffff1673ffffffffffffffffffffffffffffffffffffffff168152602001908152602001600020540202600660008373ffffffffffffffffffffffffffffffffffffffff1673ffffffffffffffffffffffffffffffffffffffff1681526020019081526020016000208190555050565b60006153c883836040518060400160405280601e81526020017f536166654d6174683a207375627472616374696f6e206f766572666c6f770000815250616d93565b905092915050565b6060615411826040518060400160405280600581526020017f4d616e6f720000000000000000000000000000000000000000000000000000008152506121f6565b90506000602260008473ffffffffffffffffffffffffffffffffffffffff1673ffffffffffffffffffffffffffffffffffffffff168152602001908152602001600020541480615462575060008151145b156154b15742602260008473ffffffffffffffffffffffffffffffffffffffff1673ffffffffffffffffffffffffffffffffffffffff1681526020019081526020016000208190555050615609565b6000615508600a602260008673ffffffffffffffffffffffffffffffffffffffff1673ffffffffffffffffffffffffffffffffffffffff1681526020019081526020016000205442036151a990919063ffffffff16565b9050600080905060008090505b835181101561556557602354600e85838151811061552f57fe5b60200260200101518154811061554157fe5b90600052602060002090600402016003015402820191508080600101915050615515565b50808202600360008673ffffffffffffffffffffffffffffffffffffffff1673ffffffffffffffffffffffffffffffffffffffff1681526020019081526020016000206000828254019250508190555081600a02602260008673ffffffffffffffffffffffffffffffffffffffff1673ffffffffffffffffffffffffffffffffffffffff168152602001908152602001600020600082825401925050819055505050505b50565b606061564d826040518060400160405280600481526020017f4661726d000000000000000000000000000000000000000000000000000000008152506121f6565b90506000602060008473ffffffffffffffffffffffffffffffffffffffff1673ffffffffffffffffffffffffffffffffffffffff16815260200190815260200160002054148061569e575060008151145b156156ed5742602060008473ffffffffffffffffffffffffffffffffffffffff1673ffffffffffffffffffffffffffffffffffffffff1681526020019081526020016000208190555050615845565b6000615744600a602060008673ffffffffffffffffffffffffffffffffffffffff1673ffffffffffffffffffffffffffffffffffffffff1681526020019081526020016000205442036151a990919063ffffffff16565b9050600080905060008090505b83518110156157a157602154600e85838151811061576b57fe5b60200260200101518154811061577d57fe5b90600052602060002090600402016003015402820191508080600101915050615751565b50808202600260008673ffffffffffffffffffffffffffffffffffffffff1673ffffffffffffffffffffffffffffffffffffffff1681526020019081526020016000206000828254019250508190555081600a02602060008673ffffffffffffffffffffffffffffffffffffffff1673ffffffffffffffffffffffffffffffffffffffff168152602001908152602001600020600082825401925050819055505050505b50565b603060008273ffffffffffffffffffffffffffffffffffffffff1673ffffffffffffffffffffffffffffffffffffffff16815260200190815260200160002054602f60008373ffffffffffffffffffffffffffffffffffffffff1673ffffffffffffffffffffffffffffffffffffffff1681526020019081526020016000205402600760008373ffffffffffffffffffffffffffffffffffffffff1673ffffffffffffffffffffffffffffffffffffffff1681526020019081526020016000208190555050565b600080826005603060008773ffffffffffffffffffffffffffffffffffffffff1673ffffffffffffffffffffffffffffffffffffffff16815260200190815260200160002054601902030290506000836005603060008873ffffffffffffffffffffffffffffffffffffffff1673ffffffffffffffffffffffffffffffffffffffff16815260200190815260200160002054601902030290506000846005603060008973ffffffffffffffffffffffffffffffffffffffff1673ffffffffffffffffffffffffffffffffffffffff1681526020019081526020016000205460190203029050615a048684600085600086615f86565b935050505092915050565b6060615a50826040518060400160405280600781526020017f5361776d696c6c000000000000000000000000000000000000000000000000008152506121f6565b90506000602460008473ffffffffffffffffffffffffffffffffffffffff1673ffffffffffffffffffffffffffffffffffffffff168152602001908152602001600020541480615aa1575060008151145b15615af05742602460008473ffffffffffffffffffffffffffffffffffffffff1673ffffffffffffffffffffffffffffffffffffffff1681526020019081526020016000208190555050615c48565b6000615b47600a602460008673ffffffffffffffffffffffffffffffffffffffff1673ffffffffffffffffffffffffffffffffffffffff1681526020019081526020016000205442036151a990919063ffffffff16565b9050600080905060008090505b8351811015615ba457602554600e858381518110615b6e57fe5b602002602001015181548110615b8057fe5b90600052602060002090600402016003015402820191508080600101915050615b54565b50808202600460008673ffffffffffffffffffffffffffffffffffffffff1673ffffffffffffffffffffffffffffffffffffffff1681526020019081526020016000206000828254019250508190555081600a02602460008673ffffffffffffffffffffffffffffffffffffffff1673ffffffffffffffffffffffffffffffffffffffff168152602001908152602001600020600082825401925050819055505050505b50565b6060615c8c826040518060400160405280600681526020017f51756172727900000000000000000000000000000000000000000000000000008152506121f6565b90506000601c60008473ffffffffffffffffffffffffffffffffffffffff1673ffffffffffffffffffffffffffffffffffffffff168152602001908152602001600020541480615cdd575060008151145b15615d2c5742601c60008473ffffffffffffffffffffffffffffffffffffffff1673ffffffffffffffffffffffffffffffffffffffff1681526020019081526020016000208190555050615e83565b6000615d83600a601c60008673ffffffffffffffffffffffffffffffffffffffff1673ffffffffffffffffffffffffffffffffffffffff1681526020019081526020016000205442036151a990919063ffffffff16565b9050600080905060008090505b8351811015615de057601d54600e858381518110615daa57fe5b602002602001015181548110615dbc57fe5b90600052602060002090600402016003015402820191508080600101915050615d90565b508082026000808673ffffffffffffffffffffffffffffffffffffffff1673ffffffffffffffffffffffffffffffffffffffff1681526020019081526020016000206000828254019250508190555081600a02601c60008673ffffffffffffffffffffffffffffffffffffffff1673ffffffffffffffffffffffffffffffffffffffff168152602001908152602001600020600082825401925050819055505050505b50565b600080826005602760008773ffffffffffffffffffffffffffffffffffffffff1673ffffffffffffffffffffffffffffffffffffffff16815260200190815260200160002054601902030290506000836005602760008873ffffffffffffffffffffffffffffffffffffffff1673ffffffffffffffffffffffffffffffffffffffff16815260200190815260200160002054601902030290506000846005602760008973ffffffffffffffffffffffffffffffffffffffff1673ffffffffffffffffffffffffffffffffffffffff1681526020019081526020016000205460190203029050615f7b8684600085600086615f86565b935050505092915050565b600085600260008973ffffffffffffffffffffffffffffffffffffffff1673ffffffffffffffffffffffffffffffffffffffff1681526020019081526020016000205410158015616016575084600460008973ffffffffffffffffffffffffffffffffffffffff1673ffffffffffffffffffffffffffffffffffffffff1681526020019081526020016000205410155b8015616061575083600160008973ffffffffffffffffffffffffffffffffffffffff1673ffffffffffffffffffffffffffffffffffffffff1681526020019081526020016000205410155b80156160ab5750826000808973ffffffffffffffffffffffffffffffffffffffff1673ffffffffffffffffffffffffffffffffffffffff1681526020019081526020016000205410155b80156160f6575081600360008973ffffffffffffffffffffffffffffffffffffffff1673ffffffffffffffffffffffffffffffffffffffff1681526020019081526020016000205410155b156163eb5761614d86600260008a73ffffffffffffffffffffffffffffffffffffffff1673ffffffffffffffffffffffffffffffffffffffff1681526020019081526020016000205461538690919063ffffffff16565b600260008973ffffffffffffffffffffffffffffffffffffffff1673ffffffffffffffffffffffffffffffffffffffff168152602001908152602001600020819055506161e285600460008a73ffffffffffffffffffffffffffffffffffffffff1673ffffffffffffffffffffffffffffffffffffffff1681526020019081526020016000205461538690919063ffffffff16565b600460008973ffffffffffffffffffffffffffffffffffffffff1673ffffffffffffffffffffffffffffffffffffffff1681526020019081526020016000208190555061627784600160008a73ffffffffffffffffffffffffffffffffffffffff1673ffffffffffffffffffffffffffffffffffffffff1681526020019081526020016000205461538690919063ffffffff16565b600160008973ffffffffffffffffffffffffffffffffffffffff1673ffffffffffffffffffffffffffffffffffffffff1681526020019081526020016000208190555061630b836000808a73ffffffffffffffffffffffffffffffffffffffff1673ffffffffffffffffffffffffffffffffffffffff1681526020019081526020016000205461538690919063ffffffff16565b6000808973ffffffffffffffffffffffffffffffffffffffff1673ffffffffffffffffffffffffffffffffffffffff1681526020019081526020016000208190555061639f82600360008a73ffffffffffffffffffffffffffffffffffffffff1673ffffffffffffffffffffffffffffffffffffffff1681526020019081526020016000205461538690919063ffffffff16565b600360008973ffffffffffffffffffffffffffffffffffffffff1673ffffffffffffffffffffffffffffffffffffffff16815260200190815260200160002081905550600190506163f0565b600090505b9695505050505050565b6000600a60008373ffffffffffffffffffffffffffffffffffffffff1673ffffffffffffffffffffffffffffffffffffffff168152602001908152602001600020541461644657600080fd5b8060096000600854815260200190815260200160002060006101000a81548173ffffffffffffffffffffffffffffffffffffffff021916908373ffffffffffffffffffffffffffffffffffffffff160217905550600860008154809291906001019190505550600a60008273ffffffffffffffffffffffffffffffffffffffff1673ffffffffffffffffffffffffffffffffffffffff16815260200190815260200160002060008154809291906001019190505550612710600260008373ffffffffffffffffffffffffffffffffffffffff1673ffffffffffffffffffffffffffffffffffffffff16815260200190815260200160002081905550612710600460008373ffffffffffffffffffffffffffffffffffffffff1673ffffffffffffffffffffffffffffffffffffffff168152602001908152602001600020819055506127106000808373ffffffffffffffffffffffffffffffffffffffff1673ffffffffffffffffffffffffffffffffffffffff16815260200190815260200160002081905550612710600160008373ffffffffffffffffffffffffffffffffffffffff1673ffffffffffffffffffffffffffffffffffffffff16815260200190815260200160002081905550612710600360008373ffffffffffffffffffffffffffffffffffffffff1673ffffffffffffffffffffffffffffffffffffffff168152602001908152602001600020819055506000600560008373ffffffffffffffffffffffffffffffffffffffff1673ffffffffffffffffffffffffffffffffffffffff168152602001908152602001600020819055506000600660008373ffffffffffffffffffffffffffffffffffffffff1673ffffffffffffffffffffffffffffffffffffffff168152602001908152602001600020819055506000600760008373ffffffffffffffffffffffffffffffffffffffff1673ffffffffffffffffffffffffffffffffffffffff1681526020019081526020016000208190555050565b600080600560008473ffffffffffffffffffffffffffffffffffffffff1673ffffffffffffffffffffffffffffffffffffffff16815260200190815260200160002054600560008673ffffffffffffffffffffffffffffffffffffffff1673ffffffffffffffffffffffffffffffffffffffff1681526020019081526020016000205411156167be578391508290506167c5565b8291508390505b60056004600260008473ffffffffffffffffffffffffffffffffffffffff1673ffffffffffffffffffffffffffffffffffffffff16815260200190815260200160002054028161681157fe5b04600260008473ffffffffffffffffffffffffffffffffffffffff1673ffffffffffffffffffffffffffffffffffffffff1681526020019081526020016000205401600260008473ffffffffffffffffffffffffffffffffffffffff1673ffffffffffffffffffffffffffffffffffffffff1681526020019081526020016000208190555060056004600360008473ffffffffffffffffffffffffffffffffffffffff1673ffffffffffffffffffffffffffffffffffffffff1681526020019081526020016000205402816168e257fe5b04600360008473ffffffffffffffffffffffffffffffffffffffff1673ffffffffffffffffffffffffffffffffffffffff1681526020019081526020016000205401600360008473ffffffffffffffffffffffffffffffffffffffff1673ffffffffffffffffffffffffffffffffffffffff1681526020019081526020016000208190555060056004600260008473ffffffffffffffffffffffffffffffffffffffff1673ffffffffffffffffffffffffffffffffffffffff1681526020019081526020016000205402816169b357fe5b04600260008373ffffffffffffffffffffffffffffffffffffffff1673ffffffffffffffffffffffffffffffffffffffff1681526020019081526020016000205403600260008373ffffffffffffffffffffffffffffffffffffffff1673ffffffffffffffffffffffffffffffffffffffff1681526020019081526020016000208190555060056004600360008473ffffffffffffffffffffffffffffffffffffffff1673ffffffffffffffffffffffffffffffffffffffff168152602001908152602001600020540281616a8457fe5b04600360008373ffffffffffffffffffffffffffffffffffffffff1673ffffffffffffffffffffffffffffffffffffffff1681526020019081526020016000205403600360008373ffffffffffffffffffffffffffffffffffffffff1673ffffffffffffffffffffffffffffffffffffffff1681526020019081526020016000208190555060006002600560008473ffffffffffffffffffffffffffffffffffffffff1673ffffffffffffffffffffffffffffffffffffffff1681526020019081526020016000205481616b5457fe5b049050602760008473ffffffffffffffffffffffffffffffffffffffff1673ffffffffffffffffffffffffffffffffffffffff1681526020019081526020016000205481600560008673ffffffffffffffffffffffffffffffffffffffff1673ffffffffffffffffffffffffffffffffffffffff168152602001908152602001600020540381616be057fe5b04602660008573ffffffffffffffffffffffffffffffffffffffff1673ffffffffffffffffffffffffffffffffffffffff1681526020019081526020016000208190555060056004602660008573ffffffffffffffffffffffffffffffffffffffff1673ffffffffffffffffffffffffffffffffffffffff168152602001908152602001600020540281616c7057fe5b04602660008473ffffffffffffffffffffffffffffffffffffffff1673ffffffffffffffffffffffffffffffffffffffff16815260200190815260200160002081905550616cbd836151f3565b616cc6826151f3565b5050505050565b60008083118290616d79576040517f08c379a00000000000000000000000000000000000000000000000000000000081526004018080602001828103825283818151815260200191508051906020019080838360005b83811015616d3e578082015181840152602081019050616d23565b50505050905090810190601f168015616d6b5780820380516001836020036101000a031916815260200191505b509250505060405180910390fd5b506000838581616d8557fe5b049050809150509392505050565b6000838311158290616e40576040517f08c379a00000000000000000000000000000000000000000000000000000000081526004018080602001828103825283818151815260200191508051906020019080838360005b83811015616e05578082015181840152602081019050616dea565b50505050905090810190601f168015616e325780820380516001836020036101000a031916815260200191505b509250505060405180910390fd5b5060008385039050809150509392505050565b828054600181600116156101000203166002900490600052602060002090601f016020900481019282601f10616e9457805160ff1916838001178555616ec2565b82800160010185558215616ec2579182015b82811115616ec1578251825591602001919060010190616ea6565b5b509050616ecf9190616ed3565b5090565b616ef591905b80821115616ef1576000816000905550600101616ed9565b5090565b9056fe536166654d6174683a206d756c7469706c69636174696f6e206f766572666c6f77a265627a7a72315820be9c47d0e0f04cff1fbea6344c5724d27f08d054b7e6b746b3d25eeb01aec19e64736f6c63430005100032",
  "source": "pragma solidity >=0.4.21 <0.7.0;\n\nimport \"./SafeMath.sol\";\nimport \"./Quarry.sol\";\nimport \"./Mine.sol\";\nimport \"./Farm.sol\";\nimport \"./Manor.sol\";\nimport \"./Sawmill.sol\";\nimport \"./Soldier.sol\";\nimport \"./Barrack.sol\";\nimport \"./Laboratory.sol\";\n\ncontract Produce is QuarryFactory, MineFactory, FarmFactory, ManorFactory, SawmillFactory, Barrack, Laboratory {\n\n    function updateProduce(address _owner) public {\n        _updateProduceCoin(_owner);\n        _updateProduceIron(_owner);\n        _updateProduceFood(_owner);\n        _updateProduceStone(_owner);\n        _updateProduceWood(_owner);\n    }\n\n}",
  "sourcePath": "/Users/cyl/Desktop//NMlab_Final/contracts/Produce.sol",
  "compiler": {
    "name": "solc",
    "version": "0.5.16+commit.9c3226ce.Emscripten.clang"
  },
  "schemaVersion": "3.4.1",
  "updatedAt": "2021-05-29T15:23:33.070Z",
  "devdoc": {
    "methods": {}
  },
  "userdoc": {
    "methods": {}
  }
}