{
  "contractName": "Produce",
  "abi": [
    {
      "constant": true,
      "inputs": [
        {
          "internalType": "uint256",
          "name": "",
          "type": "uint256"
        }
      ],
      "name": "buildingToOwner",
      "outputs": [
        {
          "internalType": "address",
          "name": "",
          "type": "address"
        }
      ],
      "payable": false,
      "stateMutability": "view",
      "type": "function"
    },
    {
      "constant": true,
      "inputs": [
        {
          "internalType": "uint256",
          "name": "",
          "type": "uint256"
        }
      ],
      "name": "buildings",
      "outputs": [
        {
          "internalType": "string",
          "name": "name",
          "type": "string"
        },
        {
          "internalType": "uint256",
          "name": "placeX",
          "type": "uint256"
        },
        {
          "internalType": "uint256",
          "name": "placeY",
          "type": "uint256"
        },
        {
          "internalType": "uint256",
          "name": "level",
          "type": "uint256"
        }
      ],
      "payable": false,
      "stateMutability": "view",
      "type": "function"
    },
    {
      "constant": true,
      "inputs": [
        {
          "internalType": "uint256",
          "name": "",
          "type": "uint256"
        }
      ],
      "name": "castleToOwner",
      "outputs": [
        {
          "internalType": "address",
          "name": "",
          "type": "address"
        }
      ],
      "payable": false,
      "stateMutability": "view",
      "type": "function"
    },
    {
      "constant": true,
      "inputs": [],
      "name": "checkUserAddress",
      "outputs": [
        {
          "internalType": "bool",
          "name": "",
          "type": "bool"
        }
      ],
      "payable": false,
      "stateMutability": "view",
      "type": "function"
    },
    {
      "constant": true,
      "inputs": [
        {
          "internalType": "address",
          "name": "",
          "type": "address"
        }
      ],
      "name": "coinOwnerCount",
      "outputs": [
        {
          "internalType": "uint256",
          "name": "",
          "type": "uint256"
        }
      ],
      "payable": false,
      "stateMutability": "view",
      "type": "function"
    },
    {
      "constant": false,
      "inputs": [
        {
          "internalType": "uint256",
          "name": "_x",
          "type": "uint256"
        },
        {
          "internalType": "uint256",
          "name": "_y",
          "type": "uint256"
        }
      ],
      "name": "createCastle",
      "outputs": [],
      "payable": false,
      "stateMutability": "nonpayable",
      "type": "function"
    },
    {
      "constant": false,
      "inputs": [
        {
          "internalType": "uint256",
          "name": "_x",
          "type": "uint256"
        },
        {
          "internalType": "uint256",
          "name": "_y",
          "type": "uint256"
        }
      ],
      "name": "createFarm",
      "outputs": [],
      "payable": false,
      "stateMutability": "nonpayable",
      "type": "function"
    },
    {
      "constant": false,
      "inputs": [
        {
          "internalType": "uint256",
          "name": "_x",
          "type": "uint256"
        },
        {
          "internalType": "uint256",
          "name": "_y",
          "type": "uint256"
        }
      ],
      "name": "createManor",
      "outputs": [],
      "payable": false,
      "stateMutability": "nonpayable",
      "type": "function"
    },
    {
      "constant": false,
      "inputs": [
        {
          "internalType": "uint256",
          "name": "_x",
          "type": "uint256"
        },
        {
          "internalType": "uint256",
          "name": "_y",
          "type": "uint256"
        }
      ],
      "name": "createMine",
      "outputs": [],
      "payable": false,
      "stateMutability": "nonpayable",
      "type": "function"
    },
    {
      "constant": false,
      "inputs": [
        {
          "internalType": "uint256",
          "name": "_x",
          "type": "uint256"
        },
        {
          "internalType": "uint256",
          "name": "_y",
          "type": "uint256"
        }
      ],
      "name": "createQuarry",
      "outputs": [],
      "payable": false,
      "stateMutability": "nonpayable",
      "type": "function"
    },
    {
      "constant": false,
      "inputs": [
        {
          "internalType": "uint256",
          "name": "_x",
          "type": "uint256"
        },
        {
          "internalType": "uint256",
          "name": "_y",
          "type": "uint256"
        }
      ],
      "name": "createSawmill",
      "outputs": [],
      "payable": false,
      "stateMutability": "nonpayable",
      "type": "function"
    },
    {
      "constant": true,
      "inputs": [
        {
          "internalType": "address",
          "name": "",
          "type": "address"
        }
      ],
      "name": "foodOwnerCount",
      "outputs": [
        {
          "internalType": "uint256",
          "name": "",
          "type": "uint256"
        }
      ],
      "payable": false,
      "stateMutability": "view",
      "type": "function"
    },
    {
      "constant": true,
      "inputs": [
        {
          "internalType": "uint256",
          "name": "idx",
          "type": "uint256"
        }
      ],
      "name": "getBuildingById",
      "outputs": [
        {
          "internalType": "bool",
          "name": "",
          "type": "bool"
        },
        {
          "internalType": "string",
          "name": "",
          "type": "string"
        },
        {
          "internalType": "uint256",
          "name": "",
          "type": "uint256"
        }
      ],
      "payable": false,
      "stateMutability": "view",
      "type": "function"
    },
    {
      "constant": true,
      "inputs": [
        {
          "internalType": "address",
          "name": "_owner",
          "type": "address"
        },
        {
          "internalType": "uint256",
          "name": "_placeX",
          "type": "uint256"
        },
        {
          "internalType": "uint256",
          "name": "_placeY",
          "type": "uint256"
        }
      ],
      "name": "getBuildingByOwner",
      "outputs": [
        {
          "internalType": "uint256",
          "name": "",
          "type": "uint256"
        },
        {
          "internalType": "string",
          "name": "",
          "type": "string"
        }
      ],
      "payable": false,
      "stateMutability": "view",
      "type": "function"
    },
    {
      "constant": true,
      "inputs": [
        {
          "internalType": "address",
          "name": "_owner",
          "type": "address"
        }
      ],
      "name": "getBuildingsByOwner",
      "outputs": [
        {
          "internalType": "uint256[]",
          "name": "",
          "type": "uint256[]"
        }
      ],
      "payable": false,
      "stateMutability": "view",
      "type": "function"
    },
    {
      "constant": true,
      "inputs": [],
      "name": "getBuildingsLen",
      "outputs": [
        {
          "internalType": "uint256",
          "name": "",
          "type": "uint256"
        }
      ],
      "payable": false,
      "stateMutability": "view",
      "type": "function"
    },
    {
      "constant": true,
      "inputs": [],
      "name": "getCoinAmount",
      "outputs": [
        {
          "internalType": "uint256",
          "name": "",
          "type": "uint256"
        }
      ],
      "payable": false,
      "stateMutability": "view",
      "type": "function"
    },
    {
      "constant": true,
      "inputs": [],
      "name": "getFoodAmount",
      "outputs": [
        {
          "internalType": "uint256",
          "name": "",
          "type": "uint256"
        }
      ],
      "payable": false,
      "stateMutability": "view",
      "type": "function"
    },
    {
      "constant": true,
      "inputs": [],
      "name": "getIronAmount",
      "outputs": [
        {
          "internalType": "uint256",
          "name": "",
          "type": "uint256"
        }
      ],
      "payable": false,
      "stateMutability": "view",
      "type": "function"
    },
    {
      "constant": true,
      "inputs": [],
      "name": "getKingdomAmount",
      "outputs": [
        {
          "internalType": "uint256",
          "name": "",
          "type": "uint256"
        }
      ],
      "payable": false,
      "stateMutability": "view",
      "type": "function"
    },
    {
      "constant": true,
      "inputs": [],
      "name": "getMyIdx",
      "outputs": [
        {
          "internalType": "uint256",
          "name": "",
          "type": "uint256"
        }
      ],
      "payable": false,
      "stateMutability": "view",
      "type": "function"
    },
    {
      "constant": true,
      "inputs": [
        {
          "internalType": "address",
          "name": "_owner",
          "type": "address"
        }
      ],
      "name": "getRemainingTime",
      "outputs": [
        {
          "internalType": "uint256",
          "name": "",
          "type": "uint256"
        }
      ],
      "payable": false,
      "stateMutability": "view",
      "type": "function"
    },
    {
      "constant": true,
      "inputs": [
        {
          "internalType": "address",
          "name": "_owner",
          "type": "address"
        },
        {
          "internalType": "string",
          "name": "_name",
          "type": "string"
        }
      ],
      "name": "getSpecificBuildingByOwner",
      "outputs": [
        {
          "internalType": "uint256[]",
          "name": "",
          "type": "uint256[]"
        }
      ],
      "payable": false,
      "stateMutability": "view",
      "type": "function"
    },
    {
      "constant": true,
      "inputs": [],
      "name": "getStoneAmount",
      "outputs": [
        {
          "internalType": "uint256",
          "name": "",
          "type": "uint256"
        }
      ],
      "payable": false,
      "stateMutability": "view",
      "type": "function"
    },
    {
      "constant": true,
      "inputs": [
        {
          "internalType": "address",
          "name": "_owner",
          "type": "address"
        }
      ],
      "name": "getUpgradingId",
      "outputs": [
        {
          "internalType": "uint256",
          "name": "",
          "type": "uint256"
        }
      ],
      "payable": false,
      "stateMutability": "view",
      "type": "function"
    },
    {
      "constant": true,
      "inputs": [
        {
          "internalType": "uint256",
          "name": "idx",
          "type": "uint256"
        }
      ],
      "name": "getUserHealth",
      "outputs": [
        {
          "internalType": "uint256",
          "name": "",
          "type": "uint256"
        }
      ],
      "payable": false,
      "stateMutability": "view",
      "type": "function"
    },
    {
      "constant": true,
      "inputs": [
        {
          "internalType": "uint256",
          "name": "idx",
          "type": "uint256"
        }
      ],
      "name": "getUserPower",
      "outputs": [
        {
          "internalType": "uint256",
          "name": "",
          "type": "uint256"
        }
      ],
      "payable": false,
      "stateMutability": "view",
      "type": "function"
    },
    {
      "constant": true,
      "inputs": [
        {
          "internalType": "uint256",
          "name": "idx",
          "type": "uint256"
        }
      ],
      "name": "getUserSpyPower",
      "outputs": [
        {
          "internalType": "uint256",
          "name": "",
          "type": "uint256"
        }
      ],
      "payable": false,
      "stateMutability": "view",
      "type": "function"
    },
    {
      "constant": true,
      "inputs": [],
      "name": "getWoodAmount",
      "outputs": [
        {
          "internalType": "uint256",
          "name": "",
          "type": "uint256"
        }
      ],
      "payable": false,
      "stateMutability": "view",
      "type": "function"
    },
    {
      "constant": true,
      "inputs": [
        {
          "internalType": "address",
          "name": "",
          "type": "address"
        }
      ],
      "name": "health",
      "outputs": [
        {
          "internalType": "uint256",
          "name": "",
          "type": "uint256"
        }
      ],
      "payable": false,
      "stateMutability": "view",
      "type": "function"
    },
    {
      "constant": true,
      "inputs": [
        {
          "internalType": "address",
          "name": "",
          "type": "address"
        }
      ],
      "name": "ironOwnerCount",
      "outputs": [
        {
          "internalType": "uint256",
          "name": "",
          "type": "uint256"
        }
      ],
      "payable": false,
      "stateMutability": "view",
      "type": "function"
    },
    {
      "constant": true,
      "inputs": [],
      "name": "kingdomAmount",
      "outputs": [
        {
          "internalType": "uint256",
          "name": "",
          "type": "uint256"
        }
      ],
      "payable": false,
      "stateMutability": "view",
      "type": "function"
    },
    {
      "constant": true,
      "inputs": [
        {
          "internalType": "address",
          "name": "",
          "type": "address"
        }
      ],
      "name": "ownerCastleCount",
      "outputs": [
        {
          "internalType": "uint256",
          "name": "",
          "type": "uint256"
        }
      ],
      "payable": false,
      "stateMutability": "view",
      "type": "function"
    },
    {
      "constant": true,
      "inputs": [
        {
          "internalType": "address",
          "name": "",
          "type": "address"
        }
      ],
      "name": "ownerCoinProduceTime",
      "outputs": [
        {
          "internalType": "uint256",
          "name": "",
          "type": "uint256"
        }
      ],
      "payable": false,
      "stateMutability": "view",
      "type": "function"
    },
    {
      "constant": true,
      "inputs": [
        {
          "internalType": "address",
          "name": "",
          "type": "address"
        }
      ],
      "name": "ownerFoodProduceTime",
      "outputs": [
        {
          "internalType": "uint256",
          "name": "",
          "type": "uint256"
        }
      ],
      "payable": false,
      "stateMutability": "view",
      "type": "function"
    },
    {
      "constant": true,
      "inputs": [
        {
          "internalType": "address",
          "name": "",
          "type": "address"
        }
      ],
      "name": "ownerIronProduceTime",
      "outputs": [
        {
          "internalType": "uint256",
          "name": "",
          "type": "uint256"
        }
      ],
      "payable": false,
      "stateMutability": "view",
      "type": "function"
    },
    {
      "constant": true,
      "inputs": [
        {
          "internalType": "address",
          "name": "",
          "type": "address"
        }
      ],
      "name": "ownerStoneProduceTime",
      "outputs": [
        {
          "internalType": "uint256",
          "name": "",
          "type": "uint256"
        }
      ],
      "payable": false,
      "stateMutability": "view",
      "type": "function"
    },
    {
      "constant": true,
      "inputs": [
        {
          "internalType": "address",
          "name": "",
          "type": "address"
        }
      ],
      "name": "ownerWoodProduceTime",
      "outputs": [
        {
          "internalType": "uint256",
          "name": "",
          "type": "uint256"
        }
      ],
      "payable": false,
      "stateMutability": "view",
      "type": "function"
    },
    {
      "constant": true,
      "inputs": [
        {
          "internalType": "address",
          "name": "",
          "type": "address"
        }
      ],
      "name": "power",
      "outputs": [
        {
          "internalType": "uint256",
          "name": "",
          "type": "uint256"
        }
      ],
      "payable": false,
      "stateMutability": "view",
      "type": "function"
    },
    {
      "constant": true,
      "inputs": [
        {
          "internalType": "address",
          "name": "",
          "type": "address"
        }
      ],
      "name": "spyPower",
      "outputs": [
        {
          "internalType": "uint256",
          "name": "",
          "type": "uint256"
        }
      ],
      "payable": false,
      "stateMutability": "view",
      "type": "function"
    },
    {
      "constant": false,
      "inputs": [
        {
          "internalType": "address",
          "name": "_owner",
          "type": "address"
        },
        {
          "internalType": "uint256",
          "name": "_x",
          "type": "uint256"
        },
        {
          "internalType": "uint256",
          "name": "_y",
          "type": "uint256"
        }
      ],
      "name": "startBuild",
      "outputs": [
        {
          "internalType": "uint256",
          "name": "",
          "type": "uint256"
        }
      ],
      "payable": false,
      "stateMutability": "nonpayable",
      "type": "function"
    },
    {
      "constant": true,
      "inputs": [
        {
          "internalType": "address",
          "name": "",
          "type": "address"
        }
      ],
      "name": "stoneOwnerCount",
      "outputs": [
        {
          "internalType": "uint256",
          "name": "",
          "type": "uint256"
        }
      ],
      "payable": false,
      "stateMutability": "view",
      "type": "function"
    },
    {
      "constant": false,
      "inputs": [
        {
          "internalType": "address",
          "name": "_owner",
          "type": "address"
        }
      ],
      "name": "updateBuild",
      "outputs": [
        {
          "internalType": "uint256",
          "name": "",
          "type": "uint256"
        }
      ],
      "payable": false,
      "stateMutability": "nonpayable",
      "type": "function"
    },
    {
      "constant": true,
      "inputs": [
        {
          "internalType": "address",
          "name": "",
          "type": "address"
        }
      ],
      "name": "woodOwnerCount",
      "outputs": [
        {
          "internalType": "uint256",
          "name": "",
          "type": "uint256"
        }
      ],
      "payable": false,
      "stateMutability": "view",
      "type": "function"
    },
    {
      "constant": false,
      "inputs": [
        {
          "internalType": "address",
          "name": "_owner",
          "type": "address"
        }
      ],
      "name": "updateProduce",
      "outputs": [],
      "payable": false,
      "stateMutability": "nonpayable",
      "type": "function"
    }
  ],
  "bytecode": "0x60806040526010600b55600b54600a0a600c55600a600d556064600f556001601d556001601f5560016021556001602355600160255534801561004157600080fd5b50614c60806100516000396000f3fe608060405234801561001057600080fd5b506004361061027f5760003560e01c80638226e5301161015c578063c8b4eeff116100ce578063e5b285f211610087578063e5b285f214610f58578063e742c98d14610fb0578063e9933a4b14611008578063ef78b6dc14611060578063f4ab27f0146110b8578063fd8ccf27146111265761027f565b8063c8b4eeff14610db8578063ccf358a414610dfa578063d1405a4e14610e18578063db2ace2a14610e50578063e2d8ebee14610ea8578063e428afa014610f005761027f565b8063867b84e211610120578063867b84e214610c245780638919a9ca14610c7c5780639c2fa9b814610c9e578063aba19ece14610cd6578063ad1c89cc14610d42578063c787fd0914610d605761027f565b80638226e530146109d557806382a4182814610a2d578063834af9b614610ac657806383ed5be214610b08578063842a89fa14610b4c5761027f565b80634c96a062116101f55780635d0ea1ab116101b95780635d0ea1ab146108b3578063623e9ba6146108eb5780637736a2ec14610909578063789630be146109615780637e2b875b1461097f578063807f53f51461099d5761027f565b80634c96a062146106bb578063503371a5146107775780635192b291146107cf578063560742091461083d5780635ad60993146108955761027f565b80631c980beb116102475780631c980beb146104435780632c79c523146104615780633054204314610591578063323a4686146105e957806344a0529e1461062b57806346125f84146106635761027f565b806305c4ae3f146102845780630ddcafad146102bc5780630e85117a146103145780630f130a391461036c578063194c717b14610425575b600080fd5b6102ba6004803603604081101561029a57600080fd5b810190808035906020019092919080359060200190929190505050611144565b005b6102fe600480360360208110156102d257600080fd5b81019080803573ffffffffffffffffffffffffffffffffffffffff169060200190929190505050611193565b6040518082815260200191505060405180910390f35b6103566004803603602081101561032a57600080fd5b81019080803573ffffffffffffffffffffffffffffffffffffffff1690602001909291905050506111aa565b6040518082815260200191505060405180910390f35b6103986004803603602081101561038257600080fd5b8101908080359060200190929190505050611326565b604051808415151515815260200180602001838152602001828103825284818151815260200191508051906020019080838360005b838110156103e85780820151818401526020810190506103cd565b50505050905090810190601f1680156104155780820380516001836020036101000a031916815260200191505b5094505050505060405180910390f35b61042d611469565b6040518082815260200191505060405180910390f35b61044b61146f565b6040518082815260200191505060405180910390f35b61053a6004803603604081101561047757600080fd5b81019080803573ffffffffffffffffffffffffffffffffffffffff169060200190929190803590602001906401000000008111156104b457600080fd5b8201836020820111156104c657600080fd5b803590602001918460018302840111640100000000831117156104e857600080fd5b91908080601f016020809104026020016040519081016040528093929190818152602001838380828437600081840152601f19601f8201169050808301925050505050505091929192905050506114b5565b6040518080602001828103825283818151815260200191508051906020019060200280838360005b8381101561057d578082015181840152602081019050610562565b505050509050019250505060405180910390f35b6105d3600480360360208110156105a757600080fd5b81019080803573ffffffffffffffffffffffffffffffffffffffff169060200190929190505050611ae3565b6040518082815260200191505060405180910390f35b610615600480360360208110156105ff57600080fd5b8101908080359060200190929190505050611afb565b6040518082815260200191505060405180910390f35b6106616004803603604081101561064157600080fd5b810190808035906020019092919080359060200190929190505050611b8b565b005b6106a56004803603602081101561067957600080fd5b81019080803573ffffffffffffffffffffffffffffffffffffffff169060200190929190505050611bda565b6040518082815260200191505060405180910390f35b6106e7600480360360208110156106d157600080fd5b8101908080359060200190929190505050611bf2565b6040518080602001858152602001848152602001838152602001828103825286818151815260200191508051906020019080838360005b8381101561073957808201518184015260208101905061071e565b50505050905090810190601f1680156107665780820380516001836020036101000a031916815260200191505b509550505050505060405180910390f35b6107b96004803603602081101561078d57600080fd5b81019080803573ffffffffffffffffffffffffffffffffffffffff169060200190929190505050611cc7565b6040518082815260200191505060405180910390f35b6107fb600480360360208110156107e557600080fd5b8101908080359060200190929190505050611cdf565b604051808273ffffffffffffffffffffffffffffffffffffffff1673ffffffffffffffffffffffffffffffffffffffff16815260200191505060405180910390f35b61087f6004803603602081101561085357600080fd5b81019080803573ffffffffffffffffffffffffffffffffffffffff169060200190929190505050611d12565b6040518082815260200191505060405180910390f35b61089d611f6c565b6040518082815260200191505060405180910390f35b6108e9600480360360408110156108c957600080fd5b810190808035906020019092919080359060200190929190505050611fb3565b005b6108f3612002565b6040518082815260200191505060405180910390f35b61094b6004803603602081101561091f57600080fd5b81019080803573ffffffffffffffffffffffffffffffffffffffff169060200190929190505050612049565b6040518082815260200191505060405180910390f35b610969612061565b6040518082815260200191505060405180910390f35b6109876120f8565b6040518082815260200191505060405180910390f35b6109d3600480360360408110156109b357600080fd5b810190808035906020019092919080359060200190929190505050612102565b005b610a17600480360360208110156109eb57600080fd5b81019080803573ffffffffffffffffffffffffffffffffffffffff169060200190929190505050612151565b6040518082815260200191505060405180910390f35b610a6f60048036036020811015610a4357600080fd5b81019080803573ffffffffffffffffffffffffffffffffffffffff169060200190929190505050612169565b6040518080602001828103825283818151815260200191508051906020019060200280838360005b83811015610ab2578082015181840152602081019050610a97565b505050509050019250505060405180910390f35b610af260048036036020811015610adc57600080fd5b810190808035906020019092919050505061242a565b6040518082815260200191505060405180910390f35b610b4a60048036036020811015610b1e57600080fd5b81019080803573ffffffffffffffffffffffffffffffffffffffff1690602001909291905050506124ba565b005b610ba260048036036060811015610b6257600080fd5b81019080803573ffffffffffffffffffffffffffffffffffffffff16906020019092919080359060200190929190803590602001909291905050506124ea565b6040518083815260200180602001828103825283818151815260200191508051906020019080838360005b83811015610be8578082015181840152602081019050610bcd565b50505050905090810190601f168015610c155780820380516001836020036101000a031916815260200191505b50935050505060405180910390f35b610c6660048036036020811015610c3a57600080fd5b81019080803573ffffffffffffffffffffffffffffffffffffffff1690602001909291905050506126d3565b6040518082815260200191505060405180910390f35b610c846126eb565b604051808215151515815260200191505060405180910390f35b610cd460048036036040811015610cb457600080fd5b810190808035906020019092919080359060200190929190505050612745565b005b610d2c60048036036060811015610cec57600080fd5b81019080803573ffffffffffffffffffffffffffffffffffffffff1690602001909291908035906020019092919080359060200190929190505050612794565b6040518082815260200191505060405180910390f35b610d4a6129be565b6040518082815260200191505060405180910390f35b610da260048036036020811015610d7657600080fd5b81019080803573ffffffffffffffffffffffffffffffffffffffff1690602001909291905050506129cb565b6040518082815260200191505060405180910390f35b610de460048036036020811015610dce57600080fd5b81019080803590602001909291905050506129e3565b6040518082815260200191505060405180910390f35b610e02612a73565b6040518082815260200191505060405180910390f35b610e4e60048036036040811015610e2e57600080fd5b810190808035906020019092919080359060200190929190505050612aba565b005b610e9260048036036020811015610e6657600080fd5b81019080803573ffffffffffffffffffffffffffffffffffffffff169060200190929190505050612b4e565b6040518082815260200191505060405180910390f35b610eea60048036036020811015610ebe57600080fd5b81019080803573ffffffffffffffffffffffffffffffffffffffff169060200190929190505050612b97565b6040518082815260200191505060405180910390f35b610f4260048036036020811015610f1657600080fd5b81019080803573ffffffffffffffffffffffffffffffffffffffff169060200190929190505050612baf565b6040518082815260200191505060405180910390f35b610f9a60048036036020811015610f6e57600080fd5b81019080803573ffffffffffffffffffffffffffffffffffffffff169060200190929190505050612bc7565b6040518082815260200191505060405180910390f35b610ff260048036036020811015610fc657600080fd5b81019080803573ffffffffffffffffffffffffffffffffffffffff169060200190929190505050612bdf565b6040518082815260200191505060405180910390f35b61104a6004803603602081101561101e57600080fd5b81019080803573ffffffffffffffffffffffffffffffffffffffff169060200190929190505050612bf7565b6040518082815260200191505060405180910390f35b6110a26004803603602081101561107657600080fd5b81019080803573ffffffffffffffffffffffffffffffffffffffff169060200190929190505050612c0f565b6040518082815260200191505060405180910390f35b6110e4600480360360208110156110ce57600080fd5b8101908080359060200190929190505050612c27565b604051808273ffffffffffffffffffffffffffffffffffffffff1673ffffffffffffffffffffffffffffffffffffffff16815260200191505060405180910390f35b61112e612c5a565b6040518082815260200191505060405180910390f35b611185336040518060400160405280600481526020017f4d696e65000000000000000000000000000000000000000000000000000000008152508484612ca1565b5061118f33613615565b5050565b602080528060005260406000206000915090505481565b600080601260008473ffffffffffffffffffffffffffffffffffffffff1673ffffffffffffffffffffffffffffffffffffffff1681526020019081526020016000205490506000601160008573ffffffffffffffffffffffffffffffffffffffff1673ffffffffffffffffffffffffffffffffffffffff16815260200190815260200160002054141580156112a25750600d54600e828154811061124a57fe5b90600052602060002090600402016003015402601160008573ffffffffffffffffffffffffffffffffffffffff1673ffffffffffffffffffffffffffffffffffffffff16815260200190815260200160002054014210155b156112b1576000915050611321565b600042600d54600e84815481106112c457fe5b90600052602060002090600402016003015402601160008773ffffffffffffffffffffffffffffffffffffffff1673ffffffffffffffffffffffffffffffffffffffff168152602001908152602001600020540103905080925050505b919050565b600060606000600e805490508410611380576000806040518060400160405280601381526020017f696e76616c6964206275696c64696e672069640000000000000000000000000081525090809050925092509250611462565b6001600e858154811061138f57fe5b9060005260206000209060040201600001600e86815481106113ad57fe5b906000526020600020906004020160030154818054600181600116156101000203166002900480601f0160208091040260200160405190810160405280929190818152602001828054600181600116156101000203166002900480156114545780601f1061142957610100808354040283529160200191611454565b820191906000526020600020905b81548152906001019060200180831161143757829003601f168201915b505050505091509250925092505b9193909250565b60085481565b60008060003373ffffffffffffffffffffffffffffffffffffffff1673ffffffffffffffffffffffffffffffffffffffff16815260200190815260200160002054905090565b606060008090506040518060400160405280600481526020017f4661726d00000000000000000000000000000000000000000000000000000000815250805190602001208380519060200120141561154e57601460008573ffffffffffffffffffffffffffffffffffffffff1673ffffffffffffffffffffffffffffffffffffffff16815260200190815260200160002054905061194f565b6040518060400160405280600481526020017f4d696e650000000000000000000000000000000000000000000000000000000081525080519060200120838051906020012014156115e057601560008573ffffffffffffffffffffffffffffffffffffffff1673ffffffffffffffffffffffffffffffffffffffff16815260200190815260200160002054905061194e565b6040518060400160405280600581526020017f4d616e6f72000000000000000000000000000000000000000000000000000000815250805190602001208380519060200120141561167257601660008573ffffffffffffffffffffffffffffffffffffffff1673ffffffffffffffffffffffffffffffffffffffff16815260200190815260200160002054905061194d565b6040518060400160405280600681526020017f5175617272790000000000000000000000000000000000000000000000000000815250805190602001208380519060200120141561170457601760008573ffffffffffffffffffffffffffffffffffffffff1673ffffffffffffffffffffffffffffffffffffffff16815260200190815260200160002054905061194c565b6040518060400160405280600781526020017f5361776d696c6c00000000000000000000000000000000000000000000000000815250805190602001208380519060200120141561179657601860008573ffffffffffffffffffffffffffffffffffffffff1673ffffffffffffffffffffffffffffffffffffffff16815260200190815260200160002054905061194b565b6040518060400160405280600681526020017f43656c6c61720000000000000000000000000000000000000000000000000000815250805190602001208380519060200120141561182857601960008573ffffffffffffffffffffffffffffffffffffffff1673ffffffffffffffffffffffffffffffffffffffff16815260200190815260200160002054905061194a565b6040518060400160405280600781526020017f4261727261636b0000000000000000000000000000000000000000000000000081525080519060200120838051906020012014156118ba57601a60008573ffffffffffffffffffffffffffffffffffffffff1673ffffffffffffffffffffffffffffffffffffffff168152602001908152602001600020549050611949565b6040518060400160405280600a81526020017f4c61626f7261746f727900000000000000000000000000000000000000000000815250805190602001208380519060200120141561194857601b60008573ffffffffffffffffffffffffffffffffffffffff1673ffffffffffffffffffffffffffffffffffffffff1681526020019081526020016000205490505b5b5b5b5b5b5b5b6060816040519080825280602002602001820160405280156119805781602001602082028038833980820191505090505b509050600080905060008090505b600e80549050811015611ad6578673ffffffffffffffffffffffffffffffffffffffff166010600083815260200190815260200160002060009054906101000a900473ffffffffffffffffffffffffffffffffffffffff1673ffffffffffffffffffffffffffffffffffffffff16148015611a9457508580519060200120600e8281548110611a1957fe5b90600052602060002090600402016000016040518082805460018160011615610100020316600290048015611a855780601f10611a63576101008083540402835291820191611a85565b820191906000526020600020905b815481529060010190602001808311611a71575b50509150506040518091039020145b15611ac95780838381518110611aa657fe5b602002602001018181525050611ac660018361385190919063ffffffff16565b91505b808060010191505061198e565b5081935050505092915050565b601c6020528060005260406000206000915090505481565b6000600854821015611b8157600760006009600085815260200190815260200160002060009054906101000a900473ffffffffffffffffffffffffffffffffffffffff1673ffffffffffffffffffffffffffffffffffffffff1673ffffffffffffffffffffffffffffffffffffffff168152602001908152602001600020549050611b86565b600090505b919050565b611bcc336040518060400160405280600581526020017f4d616e6f720000000000000000000000000000000000000000000000000000008152508484612ca1565b50611bd6336138d9565b5050565b600a6020528060005260406000206000915090505481565b600e8181548110611bff57fe5b9060005260206000209060040201600091509050806000018054600181600116156101000203166002900480601f016020809104026020016040519081016040528092919081815260200182805460018160011615610100020316600290048015611cab5780601f10611c8057610100808354040283529160200191611cab565b820191906000526020600020905b815481529060010190602001808311611c8e57829003601f168201915b5050505050908060010154908060020154908060030154905084565b60056020528060005260406000206000915090505481565b60106020528060005260406000206000915054906101000a900473ffffffffffffffffffffffffffffffffffffffff1681565b600080601260008473ffffffffffffffffffffffffffffffffffffffff1673ffffffffffffffffffffffffffffffffffffffff1681526020019081526020016000205490506000601160008573ffffffffffffffffffffffffffffffffffffffff1673ffffffffffffffffffffffffffffffffffffffff1681526020019081526020016000205414158015611e0a5750600d54600e8281548110611db257fe5b90600052602060002090600402016003015402601160008573ffffffffffffffffffffffffffffffffffffffff1673ffffffffffffffffffffffffffffffffffffffff16815260200190815260200160002054014210155b15611ef757611e416001600e8381548110611e2157fe5b90600052602060002090600402016003015461385190919063ffffffff16565b600e8281548110611e4e57fe5b9060005260206000209060040201600301819055506000601160008573ffffffffffffffffffffffffffffffffffffffff1673ffffffffffffffffffffffffffffffffffffffff168152602001908152602001600020819055506000601260008573ffffffffffffffffffffffffffffffffffffffff1673ffffffffffffffffffffffffffffffffffffffff168152602001908152602001600020819055506000915050611f67565b600042600d54600e8481548110611f0a57fe5b90600052602060002090600402016003015402601160008773ffffffffffffffffffffffffffffffffffffffff1673ffffffffffffffffffffffffffffffffffffffff168152602001908152602001600020540103905080925050505b919050565b6000600260003373ffffffffffffffffffffffffffffffffffffffff1673ffffffffffffffffffffffffffffffffffffffff16815260200190815260200160002054905090565b611ff4336040518060400160405280600481526020017f4661726d000000000000000000000000000000000000000000000000000000008152508484612ca1565b50611ffe33613b15565b5050565b6000600360003373ffffffffffffffffffffffffffffffffffffffff1673ffffffffffffffffffffffffffffffffffffffff16815260200190815260200160002054905090565b60246020528060005260406000206000915090505481565b600080600090505b6008548110156120ee573373ffffffffffffffffffffffffffffffffffffffff166009600083815260200190815260200160002060009054906101000a900473ffffffffffffffffffffffffffffffffffffffff1673ffffffffffffffffffffffffffffffffffffffff1614156120e357809150506120f5565b806001019050612069565b5060085490505b90565b6000600854905090565b612143336040518060400160405280600781526020017f5361776d696c6c000000000000000000000000000000000000000000000000008152508484612ca1565b5061214d33613d51565b5050565b60016020528060005260406000206000915090505481565b606080601a60008473ffffffffffffffffffffffffffffffffffffffff1673ffffffffffffffffffffffffffffffffffffffff16815260200190815260200160002054601960008573ffffffffffffffffffffffffffffffffffffffff1673ffffffffffffffffffffffffffffffffffffffff16815260200190815260200160002054601860008673ffffffffffffffffffffffffffffffffffffffff1673ffffffffffffffffffffffffffffffffffffffff16815260200190815260200160002054601760008773ffffffffffffffffffffffffffffffffffffffff1673ffffffffffffffffffffffffffffffffffffffff16815260200190815260200160002054601660008873ffffffffffffffffffffffffffffffffffffffff1673ffffffffffffffffffffffffffffffffffffffff16815260200190815260200160002054601560008973ffffffffffffffffffffffffffffffffffffffff1673ffffffffffffffffffffffffffffffffffffffff16815260200190815260200160002054601460008a73ffffffffffffffffffffffffffffffffffffffff1673ffffffffffffffffffffffffffffffffffffffff168152602001908152602001600020540101010101016040519080825280602002602001820160405280156123605781602001602082028038833980820191505090505b509050600080905060008090505b600e8054905081101561241f578473ffffffffffffffffffffffffffffffffffffffff166010600083815260200190815260200160002060009054906101000a900473ffffffffffffffffffffffffffffffffffffffff1673ffffffffffffffffffffffffffffffffffffffff16141561241257808383815181106123ef57fe5b60200260200101818152505061240f60018361385190919063ffffffff16565b91505b808060010191505061236e565b508192505050919050565b60006008548210156124b057600660006009600085815260200190815260200160002060009054906101000a900473ffffffffffffffffffffffffffffffffffffffff1673ffffffffffffffffffffffffffffffffffffffff1673ffffffffffffffffffffffffffffffffffffffff1681526020019081526020016000205490506124b5565b600090505b919050565b6124c3816138d9565b6124cc81613615565b6124d581613b15565b6124de81613f8d565b6124e781613d51565b50565b6000606060008090505b600e8054905081101561268a578573ffffffffffffffffffffffffffffffffffffffff166010600083815260200190815260200160002060009054906101000a900473ffffffffffffffffffffffffffffffffffffffff1673ffffffffffffffffffffffffffffffffffffffff16141561267d5784600e828154811061257657fe5b9060005260206000209060040201600101541480156125b2575083600e828154811061259e57fe5b906000526020600020906004020160020154145b1561267c5780600e82815481106125c557fe5b9060005260206000209060040201600001808054600181600116156101000203166002900480601f01602080910402602001604051908101604052809291908181526020018280546001816001161561010002031660029004801561266b5780601f106126405761010080835404028352916020019161266b565b820191906000526020600020905b81548152906001019060200180831161264e57829003601f168201915b5050505050905092509250506126cb565b5b80806001019150506124f4565b60008090506040518060400160405280600481526020017f4e6f6e650000000000000000000000000000000000000000000000000000000081525092509250505b935093915050565b60046020528060005260406000206000915090505481565b600080600a60003373ffffffffffffffffffffffffffffffffffffffff1673ffffffffffffffffffffffffffffffffffffffff16815260200190815260200160002054111561273d5760019050612742565b600090505b90565b612786336040518060400160405280600681526020017f51756172727900000000000000000000000000000000000000000000000000008152508484612ca1565b5061279033613f8d565b5050565b6000806127a28585856124ea565b508091505060008114156127ba5760009150506129b7565b6040518060400160405280600681526020017f436173746c65000000000000000000000000000000000000000000000000000081525080519060200120600e828154811061280457fe5b906000526020600020906004020160000160405180828054600181600116156101000203166002900480156128705780601f1061284e576101008083540402835291820191612870565b820191906000526020600020905b81548152906001019060200180831161285c575b5050915050604051809103902050506000601160008773ffffffffffffffffffffffffffffffffffffffff1673ffffffffffffffffffffffffffffffffffffffff16815260200190815260200160002054146128d05760009150506129b7565b80601260008773ffffffffffffffffffffffffffffffffffffffff1673ffffffffffffffffffffffffffffffffffffffff1681526020019081526020016000208190555042601160008773ffffffffffffffffffffffffffffffffffffffff1673ffffffffffffffffffffffffffffffffffffffff168152602001908152602001600020819055506000600f54600e838154811061296a57fe5b90600052602060002090600402016003015402905061298e866000838485866141c8565b50600d54600e838154811061299f57fe5b90600052602060002090600402016003015402925050505b9392505050565b6000600e80549050905090565b601e6020528060005260406000206000915090505481565b6000600854821015612a6957600560006009600085815260200190815260200160002060009054906101000a900473ffffffffffffffffffffffffffffffffffffffff1673ffffffffffffffffffffffffffffffffffffffff1673ffffffffffffffffffffffffffffffffffffffff168152602001908152602001600020549050612a6e565b600090505b919050565b6000600460003373ffffffffffffffffffffffffffffffffffffffff1673ffffffffffffffffffffffffffffffffffffffff16815260200190815260200160002054905090565b612afb336040518060400160405280600681526020017f436173746c6500000000000000000000000000000000000000000000000000008152508484612ca1565b50612b053361463c565b6001601360003373ffffffffffffffffffffffffffffffffffffffff1673ffffffffffffffffffffffffffffffffffffffff168152602001908152602001600020819055505050565b6000601260008373ffffffffffffffffffffffffffffffffffffffff1673ffffffffffffffffffffffffffffffffffffffff168152602001908152602001600020549050919050565b60066020528060005260406000206000915090505481565b60006020528060005260406000206000915090505481565b60026020528060005260406000206000915090505481565b60226020528060005260406000206000915090505481565b60076020528060005260406000206000915090505481565b60036020528060005260406000206000915090505481565b60096020528060005260406000206000915054906101000a900473ffffffffffffffffffffffffffffffffffffffff1681565b6000600160003373ffffffffffffffffffffffffffffffffffffffff1673ffffffffffffffffffffffffffffffffffffffff16815260200190815260200160002054905090565b600080600e805490501415612dc957600e60405180608001604052806040518060400160405280600f81526020017f66697273745f6275696c64696e67210000000000000000000000000000000000815250815260200160008152602001600081526020016103e8815250908060018154018082558091505090600182039060005260206000209060040201600090919290919091506000820151816000019080519060200190612d53929190614b86565b5060208201518160010155604082015181600201556060820151816003015550505060006010600080815260200190815260200160002060006101000a81548173ffffffffffffffffffffffffffffffffffffffff021916908373ffffffffffffffffffffffffffffffffffffffff1602179055505b6000612e6a6001600e60405180608001604052808981526020018881526020018781526020016001815250908060018154018082558091505090600182039060005260206000209060040201600090919290919091506000820151816000019080519060200190612e3b929190614b86565b50602082015181600101556040820151816002015560608201518160030155505061496c90919063ffffffff16565b9050612e83866000600f54600f54600f54600f546141c8565b50856010600083815260200190815260200160002060006101000a81548173ffffffffffffffffffffffffffffffffffffffff021916908373ffffffffffffffffffffffffffffffffffffffff1602179055506040518060400160405280600481526020017f4661726d000000000000000000000000000000000000000000000000000000008152508051906020012085805190602001201415612fbc57612f746001601460008973ffffffffffffffffffffffffffffffffffffffff1673ffffffffffffffffffffffffffffffffffffffff1681526020019081526020016000205461385190919063ffffffff16565b601460008873ffffffffffffffffffffffffffffffffffffffff1673ffffffffffffffffffffffffffffffffffffffff16815260200190815260200160002081905550613609565b6040518060400160405280600481526020017f4d696e650000000000000000000000000000000000000000000000000000000081525080519060200120858051906020012014156130a25761305a6001601560008973ffffffffffffffffffffffffffffffffffffffff1673ffffffffffffffffffffffffffffffffffffffff1681526020019081526020016000205461385190919063ffffffff16565b601560008873ffffffffffffffffffffffffffffffffffffffff1673ffffffffffffffffffffffffffffffffffffffff16815260200190815260200160002081905550613608565b6040518060400160405280600581526020017f4d616e6f720000000000000000000000000000000000000000000000000000008152508051906020012085805190602001201415613188576131406001601660008973ffffffffffffffffffffffffffffffffffffffff1673ffffffffffffffffffffffffffffffffffffffff1681526020019081526020016000205461385190919063ffffffff16565b601660008873ffffffffffffffffffffffffffffffffffffffff1673ffffffffffffffffffffffffffffffffffffffff16815260200190815260200160002081905550613607565b6040518060400160405280600681526020017f5175617272790000000000000000000000000000000000000000000000000000815250805190602001208580519060200120141561326e576132266001601760008973ffffffffffffffffffffffffffffffffffffffff1673ffffffffffffffffffffffffffffffffffffffff1681526020019081526020016000205461385190919063ffffffff16565b601760008873ffffffffffffffffffffffffffffffffffffffff1673ffffffffffffffffffffffffffffffffffffffff16815260200190815260200160002081905550613606565b6040518060400160405280600781526020017f5361776d696c6c0000000000000000000000000000000000000000000000000081525080519060200120858051906020012014156133545761330c6001601860008973ffffffffffffffffffffffffffffffffffffffff1673ffffffffffffffffffffffffffffffffffffffff1681526020019081526020016000205461385190919063ffffffff16565b601860008873ffffffffffffffffffffffffffffffffffffffff1673ffffffffffffffffffffffffffffffffffffffff16815260200190815260200160002081905550613605565b6040518060400160405280600681526020017f43656c6c61720000000000000000000000000000000000000000000000000000815250805190602001208580519060200120141561343a576133f26001601960008973ffffffffffffffffffffffffffffffffffffffff1673ffffffffffffffffffffffffffffffffffffffff1681526020019081526020016000205461385190919063ffffffff16565b601960008873ffffffffffffffffffffffffffffffffffffffff1673ffffffffffffffffffffffffffffffffffffffff16815260200190815260200160002081905550613604565b6040518060400160405280600781526020017f4261727261636b000000000000000000000000000000000000000000000000008152508051906020012085805190602001201415613520576134d86001601a60008973ffffffffffffffffffffffffffffffffffffffff1673ffffffffffffffffffffffffffffffffffffffff1681526020019081526020016000205461385190919063ffffffff16565b601a60008873ffffffffffffffffffffffffffffffffffffffff1673ffffffffffffffffffffffffffffffffffffffff16815260200190815260200160002081905550613603565b6040518060400160405280600a81526020017f4c61626f7261746f7279000000000000000000000000000000000000000000008152508051906020012085805190602001201415613602576135be6001601b60008973ffffffffffffffffffffffffffffffffffffffff1673ffffffffffffffffffffffffffffffffffffffff1681526020019081526020016000205461385190919063ffffffff16565b601b60008873ffffffffffffffffffffffffffffffffffffffff1673ffffffffffffffffffffffffffffffffffffffff168152602001908152602001600020819055505b5b5b5b5b5b5b5b80915050949350505050565b6060613656826040518060400160405280600481526020017f4d696e65000000000000000000000000000000000000000000000000000000008152506114b5565b90506000601e60008473ffffffffffffffffffffffffffffffffffffffff1673ffffffffffffffffffffffffffffffffffffffff1681526020019081526020016000205414806136a7575060008151145b156136f65742601e60008473ffffffffffffffffffffffffffffffffffffffff1673ffffffffffffffffffffffffffffffffffffffff168152602001908152602001600020819055505061384e565b600061374d600a601e60008673ffffffffffffffffffffffffffffffffffffffff1673ffffffffffffffffffffffffffffffffffffffff1681526020019081526020016000205442036149b690919063ffffffff16565b9050600080905060008090505b83518110156137aa57601f54600e85838151811061377457fe5b60200260200101518154811061378657fe5b9060005260206000209060040201600301540282019150808060010191505061375a565b50808202600160008673ffffffffffffffffffffffffffffffffffffffff1673ffffffffffffffffffffffffffffffffffffffff1681526020019081526020016000206000828254019250508190555081600a02601e60008673ffffffffffffffffffffffffffffffffffffffff1673ffffffffffffffffffffffffffffffffffffffff168152602001908152602001600020600082825401925050819055505050505b50565b6000808284019050838110156138cf576040517f08c379a000000000000000000000000000000000000000000000000000000000815260040180806020018281038252601b8152602001807f536166654d6174683a206164646974696f6e206f766572666c6f77000000000081525060200191505060405180910390fd5b8091505092915050565b606061391a826040518060400160405280600581526020017f4d616e6f720000000000000000000000000000000000000000000000000000008152506114b5565b90506000602260008473ffffffffffffffffffffffffffffffffffffffff1673ffffffffffffffffffffffffffffffffffffffff16815260200190815260200160002054148061396b575060008151145b156139ba5742602260008473ffffffffffffffffffffffffffffffffffffffff1673ffffffffffffffffffffffffffffffffffffffff1681526020019081526020016000208190555050613b12565b6000613a11600a602260008673ffffffffffffffffffffffffffffffffffffffff1673ffffffffffffffffffffffffffffffffffffffff1681526020019081526020016000205442036149b690919063ffffffff16565b9050600080905060008090505b8351811015613a6e57602354600e858381518110613a3857fe5b602002602001015181548110613a4a57fe5b90600052602060002090600402016003015402820191508080600101915050613a1e565b50808202600360008673ffffffffffffffffffffffffffffffffffffffff1673ffffffffffffffffffffffffffffffffffffffff1681526020019081526020016000206000828254019250508190555081600a02602260008673ffffffffffffffffffffffffffffffffffffffff1673ffffffffffffffffffffffffffffffffffffffff168152602001908152602001600020600082825401925050819055505050505b50565b6060613b56826040518060400160405280600481526020017f4661726d000000000000000000000000000000000000000000000000000000008152506114b5565b90506000602060008473ffffffffffffffffffffffffffffffffffffffff1673ffffffffffffffffffffffffffffffffffffffff168152602001908152602001600020541480613ba7575060008151145b15613bf65742602060008473ffffffffffffffffffffffffffffffffffffffff1673ffffffffffffffffffffffffffffffffffffffff1681526020019081526020016000208190555050613d4e565b6000613c4d600a602060008673ffffffffffffffffffffffffffffffffffffffff1673ffffffffffffffffffffffffffffffffffffffff1681526020019081526020016000205442036149b690919063ffffffff16565b9050600080905060008090505b8351811015613caa57602154600e858381518110613c7457fe5b602002602001015181548110613c8657fe5b90600052602060002090600402016003015402820191508080600101915050613c5a565b50808202600260008673ffffffffffffffffffffffffffffffffffffffff1673ffffffffffffffffffffffffffffffffffffffff1681526020019081526020016000206000828254019250508190555081600a02602060008673ffffffffffffffffffffffffffffffffffffffff1673ffffffffffffffffffffffffffffffffffffffff168152602001908152602001600020600082825401925050819055505050505b50565b6060613d92826040518060400160405280600781526020017f5361776d696c6c000000000000000000000000000000000000000000000000008152506114b5565b90506000602460008473ffffffffffffffffffffffffffffffffffffffff1673ffffffffffffffffffffffffffffffffffffffff168152602001908152602001600020541480613de3575060008151145b15613e325742602460008473ffffffffffffffffffffffffffffffffffffffff1673ffffffffffffffffffffffffffffffffffffffff1681526020019081526020016000208190555050613f8a565b6000613e89600a602460008673ffffffffffffffffffffffffffffffffffffffff1673ffffffffffffffffffffffffffffffffffffffff1681526020019081526020016000205442036149b690919063ffffffff16565b9050600080905060008090505b8351811015613ee657602554600e858381518110613eb057fe5b602002602001015181548110613ec257fe5b90600052602060002090600402016003015402820191508080600101915050613e96565b50808202600460008673ffffffffffffffffffffffffffffffffffffffff1673ffffffffffffffffffffffffffffffffffffffff1681526020019081526020016000206000828254019250508190555081600a02602460008673ffffffffffffffffffffffffffffffffffffffff1673ffffffffffffffffffffffffffffffffffffffff168152602001908152602001600020600082825401925050819055505050505b50565b6060613fce826040518060400160405280600681526020017f51756172727900000000000000000000000000000000000000000000000000008152506114b5565b90506000601c60008473ffffffffffffffffffffffffffffffffffffffff1673ffffffffffffffffffffffffffffffffffffffff16815260200190815260200160002054148061401f575060008151145b1561406e5742601c60008473ffffffffffffffffffffffffffffffffffffffff1673ffffffffffffffffffffffffffffffffffffffff16815260200190815260200160002081905550506141c5565b60006140c5600a601c60008673ffffffffffffffffffffffffffffffffffffffff1673ffffffffffffffffffffffffffffffffffffffff1681526020019081526020016000205442036149b690919063ffffffff16565b9050600080905060008090505b835181101561412257601d54600e8583815181106140ec57fe5b6020026020010151815481106140fe57fe5b906000526020600020906004020160030154028201915080806001019150506140d2565b508082026000808673ffffffffffffffffffffffffffffffffffffffff1673ffffffffffffffffffffffffffffffffffffffff1681526020019081526020016000206000828254019250508190555081600a02601c60008673ffffffffffffffffffffffffffffffffffffffff1673ffffffffffffffffffffffffffffffffffffffff168152602001908152602001600020600082825401925050819055505050505b50565b600085600260008973ffffffffffffffffffffffffffffffffffffffff1673ffffffffffffffffffffffffffffffffffffffff1681526020019081526020016000205410158015614258575084600460008973ffffffffffffffffffffffffffffffffffffffff1673ffffffffffffffffffffffffffffffffffffffff1681526020019081526020016000205410155b80156142a3575083600160008973ffffffffffffffffffffffffffffffffffffffff1673ffffffffffffffffffffffffffffffffffffffff1681526020019081526020016000205410155b80156142ed5750826000808973ffffffffffffffffffffffffffffffffffffffff1673ffffffffffffffffffffffffffffffffffffffff1681526020019081526020016000205410155b8015614338575081600360008973ffffffffffffffffffffffffffffffffffffffff1673ffffffffffffffffffffffffffffffffffffffff1681526020019081526020016000205410155b1561462d5761438f86600260008a73ffffffffffffffffffffffffffffffffffffffff1673ffffffffffffffffffffffffffffffffffffffff1681526020019081526020016000205461496c90919063ffffffff16565b600260008973ffffffffffffffffffffffffffffffffffffffff1673ffffffffffffffffffffffffffffffffffffffff1681526020019081526020016000208190555061442485600460008a73ffffffffffffffffffffffffffffffffffffffff1673ffffffffffffffffffffffffffffffffffffffff1681526020019081526020016000205461496c90919063ffffffff16565b600460008973ffffffffffffffffffffffffffffffffffffffff1673ffffffffffffffffffffffffffffffffffffffff168152602001908152602001600020819055506144b984600160008a73ffffffffffffffffffffffffffffffffffffffff1673ffffffffffffffffffffffffffffffffffffffff1681526020019081526020016000205461496c90919063ffffffff16565b600160008973ffffffffffffffffffffffffffffffffffffffff1673ffffffffffffffffffffffffffffffffffffffff1681526020019081526020016000208190555061454d836000808a73ffffffffffffffffffffffffffffffffffffffff1673ffffffffffffffffffffffffffffffffffffffff1681526020019081526020016000205461496c90919063ffffffff16565b6000808973ffffffffffffffffffffffffffffffffffffffff1673ffffffffffffffffffffffffffffffffffffffff168152602001908152602001600020819055506145e182600360008a73ffffffffffffffffffffffffffffffffffffffff1673ffffffffffffffffffffffffffffffffffffffff1681526020019081526020016000205461496c90919063ffffffff16565b600360008973ffffffffffffffffffffffffffffffffffffffff1673ffffffffffffffffffffffffffffffffffffffff1681526020019081526020016000208190555060019050614632565b600090505b9695505050505050565b6000600a60008373ffffffffffffffffffffffffffffffffffffffff1673ffffffffffffffffffffffffffffffffffffffff168152602001908152602001600020541461468857600080fd5b8060096000600854815260200190815260200160002060006101000a81548173ffffffffffffffffffffffffffffffffffffffff021916908373ffffffffffffffffffffffffffffffffffffffff160217905550600860008154809291906001019190505550600a60008273ffffffffffffffffffffffffffffffffffffffff1673ffffffffffffffffffffffffffffffffffffffff16815260200190815260200160002060008154809291906001019190505550612710600260008373ffffffffffffffffffffffffffffffffffffffff1673ffffffffffffffffffffffffffffffffffffffff16815260200190815260200160002081905550612710600460008373ffffffffffffffffffffffffffffffffffffffff1673ffffffffffffffffffffffffffffffffffffffff168152602001908152602001600020819055506127106000808373ffffffffffffffffffffffffffffffffffffffff1673ffffffffffffffffffffffffffffffffffffffff16815260200190815260200160002081905550612710600160008373ffffffffffffffffffffffffffffffffffffffff1673ffffffffffffffffffffffffffffffffffffffff16815260200190815260200160002081905550612710600360008373ffffffffffffffffffffffffffffffffffffffff1673ffffffffffffffffffffffffffffffffffffffff168152602001908152602001600020819055506000600560008373ffffffffffffffffffffffffffffffffffffffff1673ffffffffffffffffffffffffffffffffffffffff168152602001908152602001600020819055506000600660008373ffffffffffffffffffffffffffffffffffffffff1673ffffffffffffffffffffffffffffffffffffffff168152602001908152602001600020819055506000600760008373ffffffffffffffffffffffffffffffffffffffff1673ffffffffffffffffffffffffffffffffffffffff1681526020019081526020016000208190555050565b60006149ae83836040518060400160405280601e81526020017f536166654d6174683a207375627472616374696f6e206f766572666c6f770000815250614a00565b905092915050565b60006149f883836040518060400160405280601a81526020017f536166654d6174683a206469766973696f6e206279207a65726f000000000000815250614ac0565b905092915050565b6000838311158290614aad576040517f08c379a00000000000000000000000000000000000000000000000000000000081526004018080602001828103825283818151815260200191508051906020019080838360005b83811015614a72578082015181840152602081019050614a57565b50505050905090810190601f168015614a9f5780820380516001836020036101000a031916815260200191505b509250505060405180910390fd5b5060008385039050809150509392505050565b60008083118290614b6c576040517f08c379a00000000000000000000000000000000000000000000000000000000081526004018080602001828103825283818151815260200191508051906020019080838360005b83811015614b31578082015181840152602081019050614b16565b50505050905090810190601f168015614b5e5780820380516001836020036101000a031916815260200191505b509250505060405180910390fd5b506000838581614b7857fe5b049050809150509392505050565b828054600181600116156101000203166002900490600052602060002090601f016020900481019282601f10614bc757805160ff1916838001178555614bf5565b82800160010185558215614bf5579182015b82811115614bf4578251825591602001919060010190614bd9565b5b509050614c029190614c06565b5090565b614c2891905b80821115614c24576000816000905550600101614c0c565b5090565b9056fea265627a7a72315820f5a8d132d24f756dbe10df663e88af1046ceaf7c679c0dd4f1e01a742ad10d3f64736f6c63430005100032",
  "source": "pragma solidity >=0.4.21 <0.7.0;\n\nimport \"./SafeMath.sol\";\nimport \"./Quarry.sol\";\nimport \"./Mine.sol\";\nimport \"./Farm.sol\";\nimport \"./Manor.sol\";\nimport \"./Sawmill.sol\";\nimport \"./Soldier.sol\";\nimport \"./Barrack.sol\";\nimport \"./Laboratory.sol\";\n\ncontract Produce is QuarryFactory, MineFactory, FarmFactory, ManorFactory, SawmillFactory {\n\n    function updateProduce(address _owner) public {\n        _updateProduceCoin(_owner);\n        _updateProduceIron(_owner);\n        _updateProduceFood(_owner);\n        _updateProduceStone(_owner);\n        _updateProduceWood(_owner);\n    }\n\n}",
  "sourcePath": "/Users/cyl/Desktop//NMlab_Final/contracts/Produce.sol",
  "compiler": {
    "name": "solc",
    "version": "0.5.16+commit.9c3226ce.Emscripten.clang"
  },
  "schemaVersion": "3.4.1",
  "updatedAt": "2021-05-29T17:15:05.091Z",
  "networkType": "ethereum",
  "devdoc": {
    "methods": {}
  },
  "userdoc": {
    "methods": {}
  }
}