{
  "contractName": "Produce",
  "abi": [
    {
      "inputs": [
        {
          "internalType": "address",
          "name": "_farm_address",
          "type": "address"
        },
        {
          "internalType": "address",
          "name": "_manor_address",
          "type": "address"
        },
        {
          "internalType": "address",
          "name": "_sawmill_instance",
          "type": "address"
        },
        {
          "internalType": "address",
          "name": "_mine_instance",
          "type": "address"
        },
        {
          "internalType": "address",
          "name": "_quarry_instance",
          "type": "address"
        },
        {
          "internalType": "address",
          "name": "_building_address",
          "type": "address"
        }
      ],
      "payable": false,
      "stateMutability": "nonpayable",
      "type": "constructor"
    },
    {
      "constant": false,
      "inputs": [
        {
          "internalType": "address",
          "name": "_owner",
          "type": "address"
        }
      ],
      "name": "updateProduce",
      "outputs": [],
      "payable": false,
      "stateMutability": "nonpayable",
      "type": "function"
    },
    {
      "constant": false,
      "inputs": [
        {
          "internalType": "address",
          "name": "_owner",
          "type": "address"
        },
        {
          "internalType": "string",
          "name": "_name",
          "type": "string"
        },
        {
          "internalType": "uint256",
          "name": "_x",
          "type": "uint256"
        },
        {
          "internalType": "uint256",
          "name": "_y",
          "type": "uint256"
        }
      ],
      "name": "createBuilding",
      "outputs": [],
      "payable": false,
      "stateMutability": "nonpayable",
      "type": "function"
    }
  ],
  "bytecode": "0x608060405234801561001057600080fd5b50604051610dde380380610dde833981810160405260c081101561003357600080fd5b81019080805190602001909291908051906020019092919080519060200190929190805190602001909291908051906020019092919080519060200190929190505050856000806101000a81548173ffffffffffffffffffffffffffffffffffffffff021916908373ffffffffffffffffffffffffffffffffffffffff16021790555084600160006101000a81548173ffffffffffffffffffffffffffffffffffffffff021916908373ffffffffffffffffffffffffffffffffffffffff16021790555083600260006101000a81548173ffffffffffffffffffffffffffffffffffffffff021916908373ffffffffffffffffffffffffffffffffffffffff16021790555081600460006101000a81548173ffffffffffffffffffffffffffffffffffffffff021916908373ffffffffffffffffffffffffffffffffffffffff16021790555082600360006101000a81548173ffffffffffffffffffffffffffffffffffffffff021916908373ffffffffffffffffffffffffffffffffffffffff16021790555080600560006101000a81548173ffffffffffffffffffffffffffffffffffffffff021916908373ffffffffffffffffffffffffffffffffffffffff160217905550505050505050610bce806102106000396000f3fe608060405234801561001057600080fd5b50600436106100365760003560e01c806383ed5be21461003b578063c56390221461007f575b600080fd5b61007d6004803603602081101561005157600080fd5b81019080803573ffffffffffffffffffffffffffffffffffffffff16906020019092919050505061016e565b005b61016c6004803603608081101561009557600080fd5b81019080803573ffffffffffffffffffffffffffffffffffffffff169060200190929190803590602001906401000000008111156100d257600080fd5b8201836020820111156100e457600080fd5b8035906020019184600183028401116401000000008311171561010657600080fd5b91908080601f016020809104026020016040519081016040528093929190818152602001838380828437600081840152601f19601f820116905080830192505050505050509192919290803590602001909291908035906020019092919050505061050d565b005b600160009054906101000a900473ffffffffffffffffffffffffffffffffffffffff1673ffffffffffffffffffffffffffffffffffffffff16635b63d076826040518263ffffffff1660e01b8152600401808273ffffffffffffffffffffffffffffffffffffffff1673ffffffffffffffffffffffffffffffffffffffff168152602001915050600060405180830381600087803b15801561020f57600080fd5b505af1158015610223573d6000803e3d6000fd5b50505050600360009054906101000a900473ffffffffffffffffffffffffffffffffffffffff1673ffffffffffffffffffffffffffffffffffffffff16634d51d00d826040518263ffffffff1660e01b8152600401808273ffffffffffffffffffffffffffffffffffffffff1673ffffffffffffffffffffffffffffffffffffffff168152602001915050600060405180830381600087803b1580156102c857600080fd5b505af11580156102dc573d6000803e3d6000fd5b505050506000809054906101000a900473ffffffffffffffffffffffffffffffffffffffff1673ffffffffffffffffffffffffffffffffffffffff1663a94d8b14826040518263ffffffff1660e01b8152600401808273ffffffffffffffffffffffffffffffffffffffff1673ffffffffffffffffffffffffffffffffffffffff168152602001915050600060405180830381600087803b15801561038057600080fd5b505af1158015610394573d6000803e3d6000fd5b50505050600460009054906101000a900473ffffffffffffffffffffffffffffffffffffffff1673ffffffffffffffffffffffffffffffffffffffff166399803d62826040518263ffffffff1660e01b8152600401808273ffffffffffffffffffffffffffffffffffffffff1673ffffffffffffffffffffffffffffffffffffffff168152602001915050600060405180830381600087803b15801561043957600080fd5b505af115801561044d573d6000803e3d6000fd5b50505050600260009054906101000a900473ffffffffffffffffffffffffffffffffffffffff1673ffffffffffffffffffffffffffffffffffffffff166381ed6a7d826040518263ffffffff1660e01b8152600401808273ffffffffffffffffffffffffffffffffffffffff1673ffffffffffffffffffffffffffffffffffffffff168152602001915050600060405180830381600087803b1580156104f257600080fd5b505af1158015610506573d6000803e3d6000fd5b5050505050565b600560009054906101000a900473ffffffffffffffffffffffffffffffffffffffff1673ffffffffffffffffffffffffffffffffffffffff166321241b3f858585856040518563ffffffff1660e01b8152600401808573ffffffffffffffffffffffffffffffffffffffff1673ffffffffffffffffffffffffffffffffffffffff16815260200180602001848152602001838152602001828103825285818151815260200191508051906020019080838360005b838110156105dc5780820151818401526020810190506105c1565b50505050905090810190601f1680156106095780820380516001836020036101000a031916815260200191505b5095505050505050602060405180830381600087803b15801561062b57600080fd5b505af115801561063f573d6000803e3d6000fd5b505050506040513d602081101561065557600080fd5b8101908080519060200190929190505050506040518060400160405280600481526020017f4661726d00000000000000000000000000000000000000000000000000000000815250805190602001208380519060200120141561076f576000809054906101000a900473ffffffffffffffffffffffffffffffffffffffff1673ffffffffffffffffffffffffffffffffffffffff1663a94d8b14856040518263ffffffff1660e01b8152600401808273ffffffffffffffffffffffffffffffffffffffff1673ffffffffffffffffffffffffffffffffffffffff168152602001915050600060405180830381600087803b15801561075257600080fd5b505af1158015610766573d6000803e3d6000fd5b50505050610b93565b6040518060400160405280600481526020017f4d696e6500000000000000000000000000000000000000000000000000000000815250805190602001208380519060200120141561087857600360009054906101000a900473ffffffffffffffffffffffffffffffffffffffff1673ffffffffffffffffffffffffffffffffffffffff16634d51d00d856040518263ffffffff1660e01b8152600401808273ffffffffffffffffffffffffffffffffffffffff1673ffffffffffffffffffffffffffffffffffffffff168152602001915050600060405180830381600087803b15801561085b57600080fd5b505af115801561086f573d6000803e3d6000fd5b50505050610b92565b6040518060400160405280600581526020017f4d616e6f72000000000000000000000000000000000000000000000000000000815250805190602001208380519060200120141561098157600160009054906101000a900473ffffffffffffffffffffffffffffffffffffffff1673ffffffffffffffffffffffffffffffffffffffff16635b63d076856040518263ffffffff1660e01b8152600401808273ffffffffffffffffffffffffffffffffffffffff1673ffffffffffffffffffffffffffffffffffffffff168152602001915050600060405180830381600087803b15801561096457600080fd5b505af1158015610978573d6000803e3d6000fd5b50505050610b91565b6040518060400160405280600681526020017f51756172727900000000000000000000000000000000000000000000000000008152508051906020012083805190602001201415610a8a57600460009054906101000a900473ffffffffffffffffffffffffffffffffffffffff1673ffffffffffffffffffffffffffffffffffffffff166399803d62856040518263ffffffff1660e01b8152600401808273ffffffffffffffffffffffffffffffffffffffff1673ffffffffffffffffffffffffffffffffffffffff168152602001915050600060405180830381600087803b158015610a6d57600080fd5b505af1158015610a81573d6000803e3d6000fd5b50505050610b90565b6040518060400160405280600781526020017f5361776d696c6c000000000000000000000000000000000000000000000000008152508051906020012083805190602001201415610b8f57600260009054906101000a900473ffffffffffffffffffffffffffffffffffffffff1673ffffffffffffffffffffffffffffffffffffffff166381ed6a7d856040518263ffffffff1660e01b8152600401808273ffffffffffffffffffffffffffffffffffffffff1673ffffffffffffffffffffffffffffffffffffffff168152602001915050600060405180830381600087803b158015610b7657600080fd5b505af1158015610b8a573d6000803e3d6000fd5b505050505b5b5b5b5b5050505056fea265627a7a7231582055981ce13d4367a6f78fde82088a21434bf2b3f3bdb02e74b4fae91985ccb96d64736f6c63430005100032",
  "source": "pragma solidity >=0.4.21 <0.7.0;\n\nimport \"./SafeMath.sol\";\nimport \"./Quarry.sol\";\nimport \"./Mine.sol\";\nimport \"./FarmFactory.sol\";\nimport \"./Manor.sol\";\nimport \"./Sawmill.sol\";\nimport \"./BuildingFactory.sol\";\n\ncontract Produce {\n    FarmFactory farmInstance;\n    Manor manorInstance;\n    Sawmill sawmillInstance;\n    Mine mineInstance;\n    Quarry quarryInstance;\n    BuildingFactory buildingInstance;\n    constructor(address _farm_address, address _manor_address, address _sawmill_instance, address _mine_instance, address _quarry_instance, address _building_address) public {\n        farmInstance = FarmFactory(_farm_address);\n        manorInstance = Manor(_manor_address);\n        sawmillInstance = Sawmill(_sawmill_instance);\n        quarryInstance = Quarry(_quarry_instance);\n        mineInstance = Mine(_mine_instance);\n        buildingInstance = BuildingFactory(_building_address);\n    }\n\n\n\n    \n    function updateProduce(address _owner) public {\n        manorInstance._updateProduceCoin(_owner);\n        mineInstance._updateProduceIron(_owner);\n        farmInstance._updateProduceFood(_owner);\n        quarryInstance._updateProduceStone(_owner);\n        sawmillInstance._updateProduceWood(_owner);\n    }\n\n    function createBuilding(address _owner, string memory _name, uint _x, uint _y) public {\n        buildingInstance._createBuilding(_owner, _name, _x, _y);\n        if (keccak256(bytes(_name)) == keccak256(bytes(\"Farm\"))) {\n            farmInstance._updateProduceFood(_owner);\n        }\n        else if (keccak256(bytes(_name)) == keccak256(bytes(\"Mine\"))) {\n            mineInstance._updateProduceIron(_owner);\n        }\n        else if (keccak256(bytes(_name)) == keccak256(bytes(\"Manor\"))) {\n            manorInstance._updateProduceCoin(_owner);\n        }\n        else if (keccak256(bytes(_name)) == keccak256(bytes(\"Quarry\"))) {\n            quarryInstance._updateProduceStone(_owner);\n        }\n        else if (keccak256(bytes(_name)) == keccak256(bytes(\"Sawmill\"))) {\n            sawmillInstance._updateProduceWood(_owner);\n        }\n    }\n\n}",
  "sourcePath": "/Users/seanwang0823/NMLab_Final/contracts/Produce.sol",
  "compiler": {
    "name": "solc",
    "version": "0.5.16+commit.9c3226ce.Emscripten.clang"
  },
  "schemaVersion": "3.4.0",
  "updatedAt": "2021-06-08T03:19:59.579Z",
  "networkType": "ethereum",
  "devdoc": {
    "methods": {}
  },
  "userdoc": {
    "methods": {}
  }
}