{
  "contractName": "Protector",
  "abi": [
    {
      "inputs": [
        {
          "internalType": "address",
          "name": "_account_address",
          "type": "address"
        }
      ],
      "payable": false,
      "stateMutability": "nonpayable",
      "type": "constructor"
    },
    {
      "constant": true,
      "inputs": [],
      "name": "createProtectorTime",
      "outputs": [
        {
          "internalType": "uint256",
          "name": "",
          "type": "uint256"
        }
      ],
      "payable": false,
      "stateMutability": "view",
      "type": "function"
    },
    {
      "constant": true,
      "inputs": [
        {
          "internalType": "address",
          "name": "",
          "type": "address"
        }
      ],
      "name": "levelOfProtector",
      "outputs": [
        {
          "internalType": "uint256",
          "name": "",
          "type": "uint256"
        }
      ],
      "payable": false,
      "stateMutability": "view",
      "type": "function"
    },
    {
      "constant": true,
      "inputs": [],
      "name": "levelUpProtectorTime",
      "outputs": [
        {
          "internalType": "uint256",
          "name": "",
          "type": "uint256"
        }
      ],
      "payable": false,
      "stateMutability": "view",
      "type": "function"
    },
    {
      "constant": true,
      "inputs": [
        {
          "internalType": "address",
          "name": "",
          "type": "address"
        }
      ],
      "name": "numOfProtector",
      "outputs": [
        {
          "internalType": "uint256",
          "name": "",
          "type": "uint256"
        }
      ],
      "payable": false,
      "stateMutability": "view",
      "type": "function"
    },
    {
      "constant": true,
      "inputs": [
        {
          "internalType": "address",
          "name": "",
          "type": "address"
        }
      ],
      "name": "ownerCreateProtectorTime",
      "outputs": [
        {
          "internalType": "uint256",
          "name": "",
          "type": "uint256"
        }
      ],
      "payable": false,
      "stateMutability": "view",
      "type": "function"
    },
    {
      "constant": true,
      "inputs": [
        {
          "internalType": "address",
          "name": "",
          "type": "address"
        }
      ],
      "name": "ownerStartCreateTime",
      "outputs": [
        {
          "internalType": "uint256",
          "name": "",
          "type": "uint256"
        }
      ],
      "payable": false,
      "stateMutability": "view",
      "type": "function"
    },
    {
      "constant": true,
      "inputs": [
        {
          "internalType": "address",
          "name": "",
          "type": "address"
        }
      ],
      "name": "ownerStartLevelUpTime",
      "outputs": [
        {
          "internalType": "uint256",
          "name": "",
          "type": "uint256"
        }
      ],
      "payable": false,
      "stateMutability": "view",
      "type": "function"
    },
    {
      "constant": true,
      "inputs": [],
      "name": "protectorArmour",
      "outputs": [
        {
          "internalType": "uint256",
          "name": "",
          "type": "uint256"
        }
      ],
      "payable": false,
      "stateMutability": "view",
      "type": "function"
    },
    {
      "constant": true,
      "inputs": [],
      "name": "protectorCapacity",
      "outputs": [
        {
          "internalType": "uint256",
          "name": "",
          "type": "uint256"
        }
      ],
      "payable": false,
      "stateMutability": "view",
      "type": "function"
    },
    {
      "constant": true,
      "inputs": [],
      "name": "protectorFrequency",
      "outputs": [
        {
          "internalType": "uint256",
          "name": "",
          "type": "uint256"
        }
      ],
      "payable": false,
      "stateMutability": "view",
      "type": "function"
    },
    {
      "constant": true,
      "inputs": [],
      "name": "protectorHealth",
      "outputs": [
        {
          "internalType": "uint256",
          "name": "",
          "type": "uint256"
        }
      ],
      "payable": false,
      "stateMutability": "view",
      "type": "function"
    },
    {
      "constant": true,
      "inputs": [],
      "name": "protectorPower",
      "outputs": [
        {
          "internalType": "uint256",
          "name": "",
          "type": "uint256"
        }
      ],
      "payable": false,
      "stateMutability": "view",
      "type": "function"
    },
    {
      "constant": true,
      "inputs": [],
      "name": "protectorSpeed",
      "outputs": [
        {
          "internalType": "uint256",
          "name": "",
          "type": "uint256"
        }
      ],
      "payable": false,
      "stateMutability": "view",
      "type": "function"
    },
    {
      "constant": false,
      "inputs": [
        {
          "internalType": "address",
          "name": "_owner",
          "type": "address"
        },
        {
          "internalType": "uint256",
          "name": "value",
          "type": "uint256"
        }
      ],
      "name": "setProtectorLevel",
      "outputs": [],
      "payable": false,
      "stateMutability": "nonpayable",
      "type": "function"
    },
    {
      "constant": false,
      "inputs": [
        {
          "internalType": "address",
          "name": "_owner",
          "type": "address"
        },
        {
          "internalType": "uint256",
          "name": "value",
          "type": "uint256"
        }
      ],
      "name": "setStartCreateTime",
      "outputs": [],
      "payable": false,
      "stateMutability": "nonpayable",
      "type": "function"
    },
    {
      "constant": false,
      "inputs": [
        {
          "internalType": "address",
          "name": "_owner",
          "type": "address"
        },
        {
          "internalType": "uint256",
          "name": "value",
          "type": "uint256"
        }
      ],
      "name": "setCreateProtectorTime",
      "outputs": [],
      "payable": false,
      "stateMutability": "nonpayable",
      "type": "function"
    },
    {
      "constant": false,
      "inputs": [
        {
          "internalType": "address",
          "name": "_owner",
          "type": "address"
        },
        {
          "internalType": "uint256",
          "name": "value",
          "type": "uint256"
        }
      ],
      "name": "setNumOfProtector",
      "outputs": [],
      "payable": false,
      "stateMutability": "nonpayable",
      "type": "function"
    },
    {
      "constant": false,
      "inputs": [
        {
          "internalType": "address",
          "name": "_owner",
          "type": "address"
        }
      ],
      "name": "_updateProtectorPower",
      "outputs": [],
      "payable": false,
      "stateMutability": "nonpayable",
      "type": "function"
    },
    {
      "constant": false,
      "inputs": [
        {
          "internalType": "address",
          "name": "_owner",
          "type": "address"
        },
        {
          "internalType": "uint256",
          "name": "number",
          "type": "uint256"
        }
      ],
      "name": "_createProtector",
      "outputs": [
        {
          "internalType": "bool",
          "name": "",
          "type": "bool"
        }
      ],
      "payable": false,
      "stateMutability": "nonpayable",
      "type": "function"
    },
    {
      "constant": true,
      "inputs": [
        {
          "internalType": "address",
          "name": "_owner",
          "type": "address"
        }
      ],
      "name": "getProtectorAmount",
      "outputs": [
        {
          "internalType": "uint256",
          "name": "",
          "type": "uint256"
        }
      ],
      "payable": false,
      "stateMutability": "view",
      "type": "function"
    },
    {
      "constant": false,
      "inputs": [
        {
          "internalType": "uint256",
          "name": "_ownerId",
          "type": "uint256"
        },
        {
          "internalType": "uint256",
          "name": "_attackedCastleId",
          "type": "uint256"
        }
      ],
      "name": "attack",
      "outputs": [],
      "payable": false,
      "stateMutability": "nonpayable",
      "type": "function"
    }
  ],
  "bytecode": "0x6080604052600a600655600a600755600360085560036009556002600a556001600b5560c8600c556003600d5534801561003857600080fd5b50604051611eed380380611eed8339818101604052602081101561005b57600080fd5b8101908080519060200190929190505050806000806101000a81548173ffffffffffffffffffffffffffffffffffffffff021916908373ffffffffffffffffffffffffffffffffffffffff16021790555050611e31806100bc6000396000f3fe608060405234801561001057600080fd5b50600436106101375760003560e01c8063a03e7df1116100b8578063e1fa76381161007c578063e1fa7638146104be578063e5726f01146104f6578063e57d01f614610514578063e9439b031461056c578063fa9f3096146105ba578063ff4581f1146105fe57610137565b8063a03e7df114610376578063adc2a34e14610394578063b47711fa146103b2578063c0e8b7671461040a578063dda0a3bf1461047057610137565b80638ed97202116100ff5780638ed97202146102765780639073af81146102c45780639b1933b81461031c5780639e5e132a1461033a5780639f4f74961461035857610137565b806324ab6dc51461013c578063324693421461018a5780636b7262cd146101e2578063718963781461020057806373e75f1614610258575b600080fd5b6101886004803603604081101561015257600080fd5b81019080803573ffffffffffffffffffffffffffffffffffffffff16906020019092919080359060200190929190505050610656565b005b6101cc600480360360208110156101a057600080fd5b81019080803573ffffffffffffffffffffffffffffffffffffffff16906020019092919050505061069e565b6040518082815260200191505060405180910390f35b6101ea6106b6565b6040518082815260200191505060405180910390f35b6102426004803603602081101561021657600080fd5b81019080803573ffffffffffffffffffffffffffffffffffffffff1690602001909291905050506106bc565b6040518082815260200191505060405180910390f35b610260610705565b6040518082815260200191505060405180910390f35b6102c26004803603604081101561028c57600080fd5b81019080803573ffffffffffffffffffffffffffffffffffffffff1690602001909291908035906020019092919050505061070b565b005b610306600480360360208110156102da57600080fd5b81019080803573ffffffffffffffffffffffffffffffffffffffff169060200190929190505050610753565b6040518082815260200191505060405180910390f35b61032461076b565b6040518082815260200191505060405180910390f35b610342610771565b6040518082815260200191505060405180910390f35b610360610777565b6040518082815260200191505060405180910390f35b61037e61077d565b6040518082815260200191505060405180910390f35b61039c610783565b6040518082815260200191505060405180910390f35b6103f4600480360360208110156103c857600080fd5b81019080803573ffffffffffffffffffffffffffffffffffffffff169060200190929190505050610789565b6040518082815260200191505060405180910390f35b6104566004803603604081101561042057600080fd5b81019080803573ffffffffffffffffffffffffffffffffffffffff169060200190929190803590602001909291905050506107a1565b604051808215151515815260200191505060405180910390f35b6104bc6004803603604081101561048657600080fd5b81019080803573ffffffffffffffffffffffffffffffffffffffff16906020019092919080359060200190929190505050610996565b005b6104f4600480360360408110156104d457600080fd5b8101908080359060200190929190803590602001909291905050506109de565b005b6104fe610c34565b6040518082815260200191505060405180910390f35b6105566004803603602081101561052a57600080fd5b81019080803573ffffffffffffffffffffffffffffffffffffffff169060200190929190505050610c3a565b6040518082815260200191505060405180910390f35b6105b86004803603604081101561058257600080fd5b81019080803573ffffffffffffffffffffffffffffffffffffffff16906020019092919080359060200190929190505050610c52565b005b6105fc600480360360208110156105d057600080fd5b81019080803573ffffffffffffffffffffffffffffffffffffffff169060200190929190505050610c9a565b005b6106406004803603602081101561061457600080fd5b81019080803573ffffffffffffffffffffffffffffffffffffffff169060200190929190505050610f25565b6040518082815260200191505060405180910390f35b80600260008473ffffffffffffffffffffffffffffffffffffffff1673ffffffffffffffffffffffffffffffffffffffff168152602001908152602001600020819055505050565b60016020528060005260406000206000915090505481565b600a5481565b6000600160008373ffffffffffffffffffffffffffffffffffffffff1673ffffffffffffffffffffffffffffffffffffffff168152602001908152602001600020549050919050565b600d5481565b80600360008473ffffffffffffffffffffffffffffffffffffffff1673ffffffffffffffffffffffffffffffffffffffff168152602001908152602001600020819055505050565b60036020528060005260406000206000915090505481565b60075481565b600c5481565b60095481565b60065481565b60085481565b60026020528060005260406000206000915090505481565b600080826005600260008773ffffffffffffffffffffffffffffffffffffffff1673ffffffffffffffffffffffffffffffffffffffff16815260200190815260200160002054601902030290506000836005600260008873ffffffffffffffffffffffffffffffffffffffff1673ffffffffffffffffffffffffffffffffffffffff16815260200190815260200160002054601902030290506000846005600260008973ffffffffffffffffffffffffffffffffffffffff1673ffffffffffffffffffffffffffffffffffffffff16815260200190815260200160002054601902030290506000809054906101000a900473ffffffffffffffffffffffffffffffffffffffff1673ffffffffffffffffffffffffffffffffffffffff16631e9ac0bf87856000866000876040518763ffffffff1660e01b8152600401808773ffffffffffffffffffffffffffffffffffffffff1673ffffffffffffffffffffffffffffffffffffffff1681526020018681526020018581526020018481526020018381526020018281526020019650505050505050602060405180830381600087803b15801561095057600080fd5b505af1158015610964573d6000803e3d6000fd5b505050506040513d602081101561097a57600080fd5b8101908080519060200190929190505050935050505092915050565b80600160008473ffffffffffffffffffffffffffffffffffffffff1673ffffffffffffffffffffffffffffffffffffffff168152602001908152602001600020819055505050565b6000809054906101000a900473ffffffffffffffffffffffffffffffffffffffff1673ffffffffffffffffffffffffffffffffffffffff166383ef9eb1836040518263ffffffff1660e01b81526004018082815260200191505060206040518083038186803b158015610a5057600080fd5b505afa158015610a64573d6000803e3d6000fd5b505050506040513d6020811015610a7a57600080fd5b810190808051906020019092919050505073ffffffffffffffffffffffffffffffffffffffff163373ffffffffffffffffffffffffffffffffffffffff1614610ac257600080fd5b60008060009054906101000a900473ffffffffffffffffffffffffffffffffffffffff1673ffffffffffffffffffffffffffffffffffffffff166383ef9eb1846040518263ffffffff1660e01b81526004018082815260200191505060206040518083038186803b158015610b3657600080fd5b505afa158015610b4a573d6000803e3d6000fd5b505050506040513d6020811015610b6057600080fd5b8101908080519060200190929190505050905060008060009054906101000a900473ffffffffffffffffffffffffffffffffffffffff1673ffffffffffffffffffffffffffffffffffffffff166383ef9eb1846040518263ffffffff1660e01b81526004018082815260200191505060206040518083038186803b158015610be757600080fd5b505afa158015610bfb573d6000803e3d6000fd5b505050506040513d6020811015610c1157600080fd5b81019080805190602001909291905050509050610c2e8282610f3d565b50505050565b600b5481565b60046020528060005260406000206000915090505481565b80600460008473ffffffffffffffffffffffffffffffffffffffff1673ffffffffffffffffffffffffffffffffffffffff168152602001908152602001600020819055505050565b6000809054906101000a900473ffffffffffffffffffffffffffffffffffffffff1673ffffffffffffffffffffffffffffffffffffffff166388adb7e082600954600260008673ffffffffffffffffffffffffffffffffffffffff1673ffffffffffffffffffffffffffffffffffffffff16815260200190815260200160002054600160008773ffffffffffffffffffffffffffffffffffffffff1673ffffffffffffffffffffffffffffffffffffffff1681526020019081526020016000205402026040518363ffffffff1660e01b8152600401808373ffffffffffffffffffffffffffffffffffffffff1673ffffffffffffffffffffffffffffffffffffffff16815260200182815260200192505050600060405180830381600087803b158015610dc657600080fd5b505af1158015610dda573d6000803e3d6000fd5b505050506000809054906101000a900473ffffffffffffffffffffffffffffffffffffffff1673ffffffffffffffffffffffffffffffffffffffff1663a50316ec82600854600260008673ffffffffffffffffffffffffffffffffffffffff1673ffffffffffffffffffffffffffffffffffffffff16815260200190815260200160002054600160008773ffffffffffffffffffffffffffffffffffffffff1673ffffffffffffffffffffffffffffffffffffffff1681526020019081526020016000205402026040518363ffffffff1660e01b8152600401808373ffffffffffffffffffffffffffffffffffffffff1673ffffffffffffffffffffffffffffffffffffffff16815260200182815260200192505050600060405180830381600087803b158015610f0a57600080fd5b505af1158015610f1e573d6000803e3d6000fd5b5050505050565b60056020528060005260406000206000915090505481565b6000806000809054906101000a900473ffffffffffffffffffffffffffffffffffffffff1673ffffffffffffffffffffffffffffffffffffffff166302931e59846040518263ffffffff1660e01b8152600401808273ffffffffffffffffffffffffffffffffffffffff1673ffffffffffffffffffffffffffffffffffffffff16815260200191505060206040518083038186803b158015610fde57600080fd5b505afa158015610ff2573d6000803e3d6000fd5b505050506040513d602081101561100857600080fd5b81019080805190602001909291905050506000809054906101000a900473ffffffffffffffffffffffffffffffffffffffff1673ffffffffffffffffffffffffffffffffffffffff166302931e59866040518263ffffffff1660e01b8152600401808273ffffffffffffffffffffffffffffffffffffffff1673ffffffffffffffffffffffffffffffffffffffff16815260200191505060206040518083038186803b1580156110b757600080fd5b505afa1580156110cb573d6000803e3d6000fd5b505050506040513d60208110156110e157600080fd5b810190808051906020019092919050505011156111035783915082905061110a565b8291508390505b6000809054906101000a900473ffffffffffffffffffffffffffffffffffffffff1673ffffffffffffffffffffffffffffffffffffffff1663af7cd0e583600560046000809054906101000a900473ffffffffffffffffffffffffffffffffffffffff1673ffffffffffffffffffffffffffffffffffffffff166341d42330876040518263ffffffff1660e01b8152600401808273ffffffffffffffffffffffffffffffffffffffff1673ffffffffffffffffffffffffffffffffffffffff16815260200191505060206040518083038186803b1580156111ea57600080fd5b505afa1580156111fe573d6000803e3d6000fd5b505050506040513d602081101561121457600080fd5b8101908080519060200190929190505050028161122d57fe5b046000809054906101000a900473ffffffffffffffffffffffffffffffffffffffff1673ffffffffffffffffffffffffffffffffffffffff166341d42330876040518263ffffffff1660e01b8152600401808273ffffffffffffffffffffffffffffffffffffffff1673ffffffffffffffffffffffffffffffffffffffff16815260200191505060206040518083038186803b1580156112cc57600080fd5b505afa1580156112e0573d6000803e3d6000fd5b505050506040513d60208110156112f657600080fd5b8101908080519060200190929190505050016040518363ffffffff1660e01b8152600401808373ffffffffffffffffffffffffffffffffffffffff1673ffffffffffffffffffffffffffffffffffffffff16815260200182815260200192505050600060405180830381600087803b15801561137157600080fd5b505af1158015611385573d6000803e3d6000fd5b505050506000809054906101000a900473ffffffffffffffffffffffffffffffffffffffff1673ffffffffffffffffffffffffffffffffffffffff1663a580af0283600560046000809054906101000a900473ffffffffffffffffffffffffffffffffffffffff1673ffffffffffffffffffffffffffffffffffffffff16636ed82fbb876040518263ffffffff1660e01b8152600401808273ffffffffffffffffffffffffffffffffffffffff1673ffffffffffffffffffffffffffffffffffffffff16815260200191505060206040518083038186803b15801561146957600080fd5b505afa15801561147d573d6000803e3d6000fd5b505050506040513d602081101561149357600080fd5b810190808051906020019092919050505002816114ac57fe5b046000809054906101000a900473ffffffffffffffffffffffffffffffffffffffff1673ffffffffffffffffffffffffffffffffffffffff16636ed82fbb876040518263ffffffff1660e01b8152600401808273ffffffffffffffffffffffffffffffffffffffff1673ffffffffffffffffffffffffffffffffffffffff16815260200191505060206040518083038186803b15801561154b57600080fd5b505afa15801561155f573d6000803e3d6000fd5b505050506040513d602081101561157557600080fd5b8101908080519060200190929190505050016040518363ffffffff1660e01b8152600401808373ffffffffffffffffffffffffffffffffffffffff1673ffffffffffffffffffffffffffffffffffffffff16815260200182815260200192505050600060405180830381600087803b1580156115f057600080fd5b505af1158015611604573d6000803e3d6000fd5b505050506000809054906101000a900473ffffffffffffffffffffffffffffffffffffffff1673ffffffffffffffffffffffffffffffffffffffff1663a580af0282600560046000809054906101000a900473ffffffffffffffffffffffffffffffffffffffff1673ffffffffffffffffffffffffffffffffffffffff16636ed82fbb876040518263ffffffff1660e01b8152600401808273ffffffffffffffffffffffffffffffffffffffff1673ffffffffffffffffffffffffffffffffffffffff16815260200191505060206040518083038186803b1580156116e857600080fd5b505afa1580156116fc573d6000803e3d6000fd5b505050506040513d602081101561171257600080fd5b8101908080519060200190929190505050028161172b57fe5b046000809054906101000a900473ffffffffffffffffffffffffffffffffffffffff1673ffffffffffffffffffffffffffffffffffffffff16636ed82fbb866040518263ffffffff1660e01b8152600401808273ffffffffffffffffffffffffffffffffffffffff1673ffffffffffffffffffffffffffffffffffffffff16815260200191505060206040518083038186803b1580156117ca57600080fd5b505afa1580156117de573d6000803e3d6000fd5b505050506040513d60208110156117f457600080fd5b8101908080519060200190929190505050036040518363ffffffff1660e01b8152600401808373ffffffffffffffffffffffffffffffffffffffff1673ffffffffffffffffffffffffffffffffffffffff16815260200182815260200192505050600060405180830381600087803b15801561186f57600080fd5b505af1158015611883573d6000803e3d6000fd5b505050506000809054906101000a900473ffffffffffffffffffffffffffffffffffffffff1673ffffffffffffffffffffffffffffffffffffffff1663af7cd0e582600560046000809054906101000a900473ffffffffffffffffffffffffffffffffffffffff1673ffffffffffffffffffffffffffffffffffffffff166341d42330876040518263ffffffff1660e01b8152600401808273ffffffffffffffffffffffffffffffffffffffff1673ffffffffffffffffffffffffffffffffffffffff16815260200191505060206040518083038186803b15801561196757600080fd5b505afa15801561197b573d6000803e3d6000fd5b505050506040513d602081101561199157600080fd5b810190808051906020019092919050505002816119aa57fe5b046000809054906101000a900473ffffffffffffffffffffffffffffffffffffffff1673ffffffffffffffffffffffffffffffffffffffff166341d42330866040518263ffffffff1660e01b8152600401808273ffffffffffffffffffffffffffffffffffffffff1673ffffffffffffffffffffffffffffffffffffffff16815260200191505060206040518083038186803b158015611a4957600080fd5b505afa158015611a5d573d6000803e3d6000fd5b505050506040513d6020811015611a7357600080fd5b8101908080519060200190929190505050036040518363ffffffff1660e01b8152600401808373ffffffffffffffffffffffffffffffffffffffff1673ffffffffffffffffffffffffffffffffffffffff16815260200182815260200192505050600060405180830381600087803b158015611aee57600080fd5b505af1158015611b02573d6000803e3d6000fd5b50505050600060026000809054906101000a900473ffffffffffffffffffffffffffffffffffffffff1673ffffffffffffffffffffffffffffffffffffffff166302931e59846040518263ffffffff1660e01b8152600401808273ffffffffffffffffffffffffffffffffffffffff1673ffffffffffffffffffffffffffffffffffffffff16815260200191505060206040518083038186803b158015611ba857600080fd5b505afa158015611bbc573d6000803e3d6000fd5b505050506040513d6020811015611bd257600080fd5b810190808051906020019092919050505081611bea57fe5b049050600260008473ffffffffffffffffffffffffffffffffffffffff1673ffffffffffffffffffffffffffffffffffffffff16815260200190815260200160002054816000809054906101000a900473ffffffffffffffffffffffffffffffffffffffff1673ffffffffffffffffffffffffffffffffffffffff166302931e59866040518263ffffffff1660e01b8152600401808273ffffffffffffffffffffffffffffffffffffffff1673ffffffffffffffffffffffffffffffffffffffff16815260200191505060206040518083038186803b158015611ccc57600080fd5b505afa158015611ce0573d6000803e3d6000fd5b505050506040513d6020811015611cf657600080fd5b81019080805190602001909291905050500381611d0f57fe5b04600160008573ffffffffffffffffffffffffffffffffffffffff1673ffffffffffffffffffffffffffffffffffffffff1681526020019081526020016000208190555060056004600160008573ffffffffffffffffffffffffffffffffffffffff1673ffffffffffffffffffffffffffffffffffffffff168152602001908152602001600020540281611d9f57fe5b04600160008473ffffffffffffffffffffffffffffffffffffffff1673ffffffffffffffffffffffffffffffffffffffff16815260200190815260200160002081905550611dec83610c9a565b611df582610c9a565b505050505056fea265627a7a723158204e708aabb598b956560cef2e1c98d4e560c250dd190ee05c0cc6b897a85683b864736f6c63430005100032",
  "source": "pragma solidity >=0.4.21 <0.7.0;\n\nimport \"./Account.sol\";\n\ncontract Protector {\n\n    Account accountInstance;\n    constructor(address _account_address) public {\n        accountInstance = Account(_account_address);\n    }\n\n    mapping (address => uint) public numOfProtector;\n\n    mapping (address => uint) public levelOfProtector;\n\n    mapping (address => uint) public ownerStartCreateTime;\n    mapping (address => uint) public ownerCreateProtectorTime;\n    mapping (address => uint) public ownerStartLevelUpTime;\n    uint public createProtectorTime = 10;\n    uint public levelUpProtectorTime = 10;\n\n    uint public protectorHealth = 3;\n    uint public protectorPower = 3;\n    uint public protectorFrequency = 2;\n    uint public protectorArmour = 1;\n    uint public protectorCapacity = 200;\n    uint public protectorSpeed = 3;\n    \n\n    function setProtectorLevel(address _owner, uint value) public {\n        levelOfProtector[_owner] = value;\n    }\n\n    function setStartCreateTime(address _owner, uint value) public {\n        ownerStartCreateTime[_owner] = value;\n    }\n\n    function setCreateProtectorTime(address _owner, uint value) public {\n        ownerCreateProtectorTime[_owner] = value;\n    }\n\n    function setNumOfProtector(address _owner, uint value) public {\n        numOfProtector[_owner] = value;\n    }\n\n    // function getProtectorStartCreateTime(address _owner) public view return(uint) {\n    //     return ownerStartCreateTime[_owner];\n    // }\n\n\n    function _updateProtectorPower(address _owner) public {\n        accountInstance.setUserPower(_owner, numOfProtector[_owner] * levelOfProtector[_owner] * protectorPower);\n        accountInstance.setUserHealth(_owner, numOfProtector[_owner] * levelOfProtector[_owner] * protectorHealth);\n\n    }\n\n    function _createProtector(address _owner, uint number) public returns(bool) {\n        uint foodCost = (25* levelOfProtector[_owner] - 5) * number;\n        uint ironCost = (25* levelOfProtector[_owner] - 5) * number;\n        uint coinCost = (25* levelOfProtector[_owner] - 5) * number;\n\n        return accountInstance.cost(_owner, foodCost, uint(0), ironCost, uint(0), coinCost);\n    }\n    \n    function _upgradeProtector(address _owner) internal returns(bool){\n        uint foodCost = 500* levelOfProtector[_owner] - 125;\n        uint ironCost = 500* levelOfProtector[_owner] - 125;\n        uint coinCost = 500* levelOfProtector[_owner] - 125;\n\n        return accountInstance.cost(_owner, foodCost, uint(0), ironCost, uint(0), coinCost);\n    }\n\n    function getProtectorAmount(address _owner) public view returns(uint) {\n        return numOfProtector[_owner];\n    }\n\n    function _fight(address myCastle, address attackedCastle) internal{\n        address winner;\n        address loser;\n\n        if (accountInstance.getUserPower(myCastle) > accountInstance.getUserPower(attackedCastle)){\n            winner = myCastle;\n            loser = attackedCastle;\n        }\n        else {\n            winner = attackedCastle;\n            loser = myCastle;\n        }\n        \n        accountInstance.setFoodOwnerCount(winner, accountInstance.getFoodOwnerCount(winner) + (accountInstance.getFoodOwnerCount(loser) * 4/5));\n        // woodOwnerCount[winner] = woodOwnerCount[winner] + (woodOwnerCount[loser] * 4/5);\n        // ironOwnerCount[winner] = ironOwnerCount[winner] + (ironOwnerCount[loser] * 4/5);\n        // stoneOwnerCount[winner] = stoneOwnerCount[winner] + (stoneOwnerCount[loser] * 4/5);\n        accountInstance.setCoinOwnerCount(winner, accountInstance.getCoinOwnerCount(winner) + (accountInstance.getCoinOwnerCount(loser) * 4/5));\n        accountInstance.setCoinOwnerCount(loser, accountInstance.getCoinOwnerCount(loser) - (accountInstance.getCoinOwnerCount(loser) * 4/5));\n        accountInstance.setFoodOwnerCount(loser, accountInstance.getFoodOwnerCount(loser) - (accountInstance.getFoodOwnerCount(loser) * 4/5));\n\n        // foodOwnerCount[loser] = foodOwnerCount[loser] - (foodOwnerCount[loser] * 4/5);\n        // woodOwnerCount[loser] = woodOwnerCount[loser] - (woodOwnerCount[loser] * 4/5);\n        // ironOwnerCount[loser] = ironOwnerCount[loser] - (ironOwnerCount[loser] * 4/5);\n        // stoneOwnerCount[loser] = stoneOwnerCount[loser] - (stoneOwnerCount[loser] * 4/5);\n        // coinOwnerCount[loser] = coinOwnerCount[loser] - (coinOwnerCount[loser] * 4/5);\n\n        uint winnerPowerLose = accountInstance.getUserPower(loser)/2;\n\n        numOfProtector[winner] = (accountInstance.getUserPower(winner) - winnerPowerLose) / levelOfProtector[winner];\n\n        numOfProtector[loser] = numOfProtector[loser] * 4 / 5;\n\n        _updateProtectorPower(winner);\n        _updateProtectorPower(loser);\n    }\n\n    function attack(uint _ownerId, uint _attackedCastleId) public {\n        require(msg.sender == accountInstance.convertCastleToOwner(_ownerId));\n        address myCastle = accountInstance.convertCastleToOwner(_ownerId);\n        address attackedCastle = accountInstance.convertCastleToOwner(_attackedCastleId);\n        _fight(myCastle, attackedCastle);\n    }\n}",
  "sourcePath": "/Users/cyl/Desktop//NMlab_Final/contracts/Protector.sol",
  "compiler": {
    "name": "solc",
    "version": "0.5.16+commit.9c3226ce.Emscripten.clang"
  },
  "schemaVersion": "3.4.1",
  "updatedAt": "2021-06-05T02:22:02.812Z",
  "networkType": "ethereum",
  "devdoc": {
    "methods": {}
  },
  "userdoc": {
    "methods": {}
  }
}