{
  "contractName": "Protector",
  "abi": [
    {
      "inputs": [
        {
          "internalType": "address",
          "name": "_account_address",
          "type": "address"
        }
      ],
      "payable": false,
      "stateMutability": "nonpayable",
      "type": "constructor"
    },
    {
      "constant": true,
      "inputs": [],
      "name": "UpgradeProtectorTime",
      "outputs": [
        {
          "internalType": "uint256",
          "name": "",
          "type": "uint256"
        }
      ],
      "payable": false,
      "stateMutability": "view",
      "type": "function"
    },
    {
      "constant": true,
      "inputs": [],
      "name": "createProtectorTime",
      "outputs": [
        {
          "internalType": "uint256",
          "name": "",
          "type": "uint256"
        }
      ],
      "payable": false,
      "stateMutability": "view",
      "type": "function"
    },
    {
      "constant": true,
      "inputs": [
        {
          "internalType": "address",
          "name": "",
          "type": "address"
        }
      ],
      "name": "levelOfProtector",
      "outputs": [
        {
          "internalType": "uint256",
          "name": "",
          "type": "uint256"
        }
      ],
      "payable": false,
      "stateMutability": "view",
      "type": "function"
    },
    {
      "constant": true,
      "inputs": [
        {
          "internalType": "address",
          "name": "",
          "type": "address"
        }
      ],
      "name": "numOfProtector",
      "outputs": [
        {
          "internalType": "uint256",
          "name": "",
          "type": "uint256"
        }
      ],
      "payable": false,
      "stateMutability": "view",
      "type": "function"
    },
    {
      "constant": true,
      "inputs": [
        {
          "internalType": "address",
          "name": "",
          "type": "address"
        }
      ],
      "name": "ownerCreateProtectorTime",
      "outputs": [
        {
          "internalType": "uint256",
          "name": "",
          "type": "uint256"
        }
      ],
      "payable": false,
      "stateMutability": "view",
      "type": "function"
    },
    {
      "constant": true,
      "inputs": [
        {
          "internalType": "address",
          "name": "",
          "type": "address"
        }
      ],
      "name": "ownerStartCreateTime",
      "outputs": [
        {
          "internalType": "uint256",
          "name": "",
          "type": "uint256"
        }
      ],
      "payable": false,
      "stateMutability": "view",
      "type": "function"
    },
    {
      "constant": true,
      "inputs": [
        {
          "internalType": "address",
          "name": "",
          "type": "address"
        }
      ],
      "name": "ownerStartUpgradeTime",
      "outputs": [
        {
          "internalType": "uint256",
          "name": "",
          "type": "uint256"
        }
      ],
      "payable": false,
      "stateMutability": "view",
      "type": "function"
    },
    {
      "constant": true,
      "inputs": [
        {
          "internalType": "address",
          "name": "",
          "type": "address"
        }
      ],
      "name": "ownerUpgradeProtectorTime",
      "outputs": [
        {
          "internalType": "uint256",
          "name": "",
          "type": "uint256"
        }
      ],
      "payable": false,
      "stateMutability": "view",
      "type": "function"
    },
    {
      "constant": true,
      "inputs": [],
      "name": "protectorArmour",
      "outputs": [
        {
          "internalType": "uint256",
          "name": "",
          "type": "uint256"
        }
      ],
      "payable": false,
      "stateMutability": "view",
      "type": "function"
    },
    {
      "constant": true,
      "inputs": [],
      "name": "protectorCapacity",
      "outputs": [
        {
          "internalType": "uint256",
          "name": "",
          "type": "uint256"
        }
      ],
      "payable": false,
      "stateMutability": "view",
      "type": "function"
    },
    {
      "constant": true,
      "inputs": [],
      "name": "protectorFrequency",
      "outputs": [
        {
          "internalType": "uint256",
          "name": "",
          "type": "uint256"
        }
      ],
      "payable": false,
      "stateMutability": "view",
      "type": "function"
    },
    {
      "constant": true,
      "inputs": [],
      "name": "protectorHealth",
      "outputs": [
        {
          "internalType": "uint256",
          "name": "",
          "type": "uint256"
        }
      ],
      "payable": false,
      "stateMutability": "view",
      "type": "function"
    },
    {
      "constant": true,
      "inputs": [],
      "name": "protectorPower",
      "outputs": [
        {
          "internalType": "uint256",
          "name": "",
          "type": "uint256"
        }
      ],
      "payable": false,
      "stateMutability": "view",
      "type": "function"
    },
    {
      "constant": true,
      "inputs": [],
      "name": "protectorSpeed",
      "outputs": [
        {
          "internalType": "uint256",
          "name": "",
          "type": "uint256"
        }
      ],
      "payable": false,
      "stateMutability": "view",
      "type": "function"
    },
    {
      "constant": false,
      "inputs": [
        {
          "internalType": "address",
          "name": "_owner",
          "type": "address"
        },
        {
          "internalType": "uint256",
          "name": "value",
          "type": "uint256"
        }
      ],
      "name": "setProtectorLevel",
      "outputs": [],
      "payable": false,
      "stateMutability": "nonpayable",
      "type": "function"
    },
    {
      "constant": false,
      "inputs": [
        {
          "internalType": "address",
          "name": "_owner",
          "type": "address"
        },
        {
          "internalType": "uint256",
          "name": "value",
          "type": "uint256"
        }
      ],
      "name": "setStartCreateTime",
      "outputs": [],
      "payable": false,
      "stateMutability": "nonpayable",
      "type": "function"
    },
    {
      "constant": false,
      "inputs": [
        {
          "internalType": "address",
          "name": "_owner",
          "type": "address"
        },
        {
          "internalType": "uint256",
          "name": "value",
          "type": "uint256"
        }
      ],
      "name": "setCreateProtectorTime",
      "outputs": [],
      "payable": false,
      "stateMutability": "nonpayable",
      "type": "function"
    },
    {
      "constant": false,
      "inputs": [
        {
          "internalType": "address",
          "name": "_owner",
          "type": "address"
        },
        {
          "internalType": "uint256",
          "name": "value",
          "type": "uint256"
        }
      ],
      "name": "setStartUpgradeTime",
      "outputs": [],
      "payable": false,
      "stateMutability": "nonpayable",
      "type": "function"
    },
    {
      "constant": false,
      "inputs": [
        {
          "internalType": "address",
          "name": "_owner",
          "type": "address"
        },
        {
          "internalType": "uint256",
          "name": "value",
          "type": "uint256"
        }
      ],
      "name": "setUpgradeProtectorTime",
      "outputs": [],
      "payable": false,
      "stateMutability": "nonpayable",
      "type": "function"
    },
    {
      "constant": false,
      "inputs": [
        {
          "internalType": "address",
          "name": "_owner",
          "type": "address"
        },
        {
          "internalType": "uint256",
          "name": "value",
          "type": "uint256"
        }
      ],
      "name": "setNumOfProtector",
      "outputs": [],
      "payable": false,
      "stateMutability": "nonpayable",
      "type": "function"
    },
    {
      "constant": false,
      "inputs": [
        {
          "internalType": "address",
          "name": "_owner",
          "type": "address"
        }
      ],
      "name": "_updateProtectorPower",
      "outputs": [],
      "payable": false,
      "stateMutability": "nonpayable",
      "type": "function"
    },
    {
      "constant": false,
      "inputs": [
        {
          "internalType": "address",
          "name": "_owner",
          "type": "address"
        },
        {
          "internalType": "uint256",
          "name": "number",
          "type": "uint256"
        }
      ],
      "name": "_createProtector",
      "outputs": [
        {
          "internalType": "bool",
          "name": "",
          "type": "bool"
        }
      ],
      "payable": false,
      "stateMutability": "nonpayable",
      "type": "function"
    },
    {
      "constant": false,
      "inputs": [
        {
          "internalType": "address",
          "name": "_owner",
          "type": "address"
        }
      ],
      "name": "_UpgradeProtector",
      "outputs": [
        {
          "internalType": "bool",
          "name": "",
          "type": "bool"
        }
      ],
      "payable": false,
      "stateMutability": "nonpayable",
      "type": "function"
    },
    {
      "constant": true,
      "inputs": [
        {
          "internalType": "address",
          "name": "_owner",
          "type": "address"
        }
      ],
      "name": "getProtectorAmount",
      "outputs": [
        {
          "internalType": "uint256",
          "name": "",
          "type": "uint256"
        }
      ],
      "payable": false,
      "stateMutability": "view",
      "type": "function"
    },
    {
      "constant": false,
      "inputs": [
        {
          "internalType": "uint256",
          "name": "_ownerId",
          "type": "uint256"
        },
        {
          "internalType": "uint256",
          "name": "_attackedCastleId",
          "type": "uint256"
        }
      ],
      "name": "attack",
      "outputs": [],
      "payable": false,
      "stateMutability": "nonpayable",
      "type": "function"
    }
  ],
  "bytecode": "0x6080604052600a600755600a60085560036009556003600a556002600b556001600c5560c8600d556003600e5534801561003857600080fd5b506040516123603803806123608339818101604052602081101561005b57600080fd5b8101908080519060200190929190505050806000806101000a81548173ffffffffffffffffffffffffffffffffffffffff021916908373ffffffffffffffffffffffffffffffffffffffff160217905550506122a4806100bc6000396000f3fe608060405234801561001057600080fd5b50600436106101735760003560e01c80639073af81116100de578063c0e8b76711610097578063e5726f0111610071578063e5726f01146106da578063e57d01f6146106f8578063e9439b0314610750578063fa9f30961461079e57610173565b8063c0e8b767146105ee578063dda0a3bf14610654578063e1fa7638146106a257610173565b80639073af81146104c65780639e5e132a1461051e5780639f4f74961461053c578063a03e7df11461055a578063adc2a34e14610578578063b47711fa1461059657610173565b80635fad0242116101305780635fad02421461036e5780636b7262cd146103c65780636e35e1eb146103e4578063718963781461040257806373e75f161461045a5780638ed972021461047857610173565b80630f03c43d1461017857806313306881146101c657806324ab6dc51461021e5780632998630d1461026c57806332469342146102c85780635a59ad4014610320575b600080fd5b6101c46004803603604081101561018e57600080fd5b81019080803573ffffffffffffffffffffffffffffffffffffffff169060200190929190803590602001909291905050506107e2565b005b610208600480360360208110156101dc57600080fd5b81019080803573ffffffffffffffffffffffffffffffffffffffff16906020019092919050505061082a565b6040518082815260200191505060405180910390f35b61026a6004803603604081101561023457600080fd5b81019080803573ffffffffffffffffffffffffffffffffffffffff16906020019092919080359060200190929190505050610842565b005b6102ae6004803603602081101561028257600080fd5b81019080803573ffffffffffffffffffffffffffffffffffffffff16906020019092919050505061088a565b604051808215151515815260200191505060405180910390f35b61030a600480360360208110156102de57600080fd5b81019080803573ffffffffffffffffffffffffffffffffffffffff169060200190929190505050610ac9565b6040518082815260200191505060405180910390f35b61036c6004803603604081101561033657600080fd5b81019080803573ffffffffffffffffffffffffffffffffffffffff16906020019092919080359060200190929190505050610ae1565b005b6103b06004803603602081101561038457600080fd5b81019080803573ffffffffffffffffffffffffffffffffffffffff169060200190929190505050610b29565b6040518082815260200191505060405180910390f35b6103ce610b41565b6040518082815260200191505060405180910390f35b6103ec610b47565b6040518082815260200191505060405180910390f35b6104446004803603602081101561041857600080fd5b81019080803573ffffffffffffffffffffffffffffffffffffffff169060200190929190505050610b4d565b6040518082815260200191505060405180910390f35b610462610b96565b6040518082815260200191505060405180910390f35b6104c46004803603604081101561048e57600080fd5b81019080803573ffffffffffffffffffffffffffffffffffffffff16906020019092919080359060200190929190505050610b9c565b005b610508600480360360208110156104dc57600080fd5b81019080803573ffffffffffffffffffffffffffffffffffffffff169060200190929190505050610be4565b6040518082815260200191505060405180910390f35b610526610bfc565b6040518082815260200191505060405180910390f35b610544610c02565b6040518082815260200191505060405180910390f35b610562610c08565b6040518082815260200191505060405180910390f35b610580610c0e565b6040518082815260200191505060405180910390f35b6105d8600480360360208110156105ac57600080fd5b81019080803573ffffffffffffffffffffffffffffffffffffffff169060200190929190505050610c14565b6040518082815260200191505060405180910390f35b61063a6004803603604081101561060457600080fd5b81019080803573ffffffffffffffffffffffffffffffffffffffff16906020019092919080359060200190929190505050610c2c565b604051808215151515815260200191505060405180910390f35b6106a06004803603604081101561066a57600080fd5b81019080803573ffffffffffffffffffffffffffffffffffffffff16906020019092919080359060200190929190505050610e21565b005b6106d8600480360360408110156106b857600080fd5b810190808035906020019092919080359060200190929190505050610e69565b005b6106e26110bf565b6040518082815260200191505060405180910390f35b61073a6004803603602081101561070e57600080fd5b81019080803573ffffffffffffffffffffffffffffffffffffffff1690602001909291905050506110c5565b6040518082815260200191505060405180910390f35b61079c6004803603604081101561076657600080fd5b81019080803573ffffffffffffffffffffffffffffffffffffffff169060200190929190803590602001909291905050506110dd565b005b6107e0600480360360208110156107b457600080fd5b81019080803573ffffffffffffffffffffffffffffffffffffffff169060200190929190505050611125565b005b80600560008473ffffffffffffffffffffffffffffffffffffffff1673ffffffffffffffffffffffffffffffffffffffff168152602001908152602001600020819055505050565b60056020528060005260406000206000915090505481565b80600260008473ffffffffffffffffffffffffffffffffffffffff1673ffffffffffffffffffffffffffffffffffffffff168152602001908152602001600020819055505050565b600080607d600260008573ffffffffffffffffffffffffffffffffffffffff1673ffffffffffffffffffffffffffffffffffffffff168152602001908152602001600020546101f4020390506000607d600260008673ffffffffffffffffffffffffffffffffffffffff1673ffffffffffffffffffffffffffffffffffffffff168152602001908152602001600020546101f4020390506000607d600260008773ffffffffffffffffffffffffffffffffffffffff1673ffffffffffffffffffffffffffffffffffffffff168152602001908152602001600020546101f4020390506001600260008773ffffffffffffffffffffffffffffffffffffffff1673ffffffffffffffffffffffffffffffffffffffff168152602001908152602001600020600082825401925050819055506000809054906101000a900473ffffffffffffffffffffffffffffffffffffffff1673ffffffffffffffffffffffffffffffffffffffff16631e9ac0bf86856000866000876040518763ffffffff1660e01b8152600401808773ffffffffffffffffffffffffffffffffffffffff1673ffffffffffffffffffffffffffffffffffffffff1681526020018681526020018581526020018481526020018381526020018281526020019650505050505050602060405180830381600087803b158015610a8457600080fd5b505af1158015610a98573d6000803e3d6000fd5b505050506040513d6020811015610aae57600080fd5b81019080805190602001909291905050509350505050919050565b60016020528060005260406000206000915090505481565b80600660008473ffffffffffffffffffffffffffffffffffffffff1673ffffffffffffffffffffffffffffffffffffffff168152602001908152602001600020819055505050565b60066020528060005260406000206000915090505481565b600b5481565b60085481565b6000600160008373ffffffffffffffffffffffffffffffffffffffff1673ffffffffffffffffffffffffffffffffffffffff168152602001908152602001600020549050919050565b600e5481565b80600360008473ffffffffffffffffffffffffffffffffffffffff1673ffffffffffffffffffffffffffffffffffffffff168152602001908152602001600020819055505050565b60036020528060005260406000206000915090505481565b600d5481565b600a5481565b60075481565b60095481565b60026020528060005260406000206000915090505481565b600080826005600260008773ffffffffffffffffffffffffffffffffffffffff1673ffffffffffffffffffffffffffffffffffffffff16815260200190815260200160002054601902030290506000836005600260008873ffffffffffffffffffffffffffffffffffffffff1673ffffffffffffffffffffffffffffffffffffffff16815260200190815260200160002054601902030290506000846005600260008973ffffffffffffffffffffffffffffffffffffffff1673ffffffffffffffffffffffffffffffffffffffff16815260200190815260200160002054601902030290506000809054906101000a900473ffffffffffffffffffffffffffffffffffffffff1673ffffffffffffffffffffffffffffffffffffffff16631e9ac0bf87856000866000876040518763ffffffff1660e01b8152600401808773ffffffffffffffffffffffffffffffffffffffff1673ffffffffffffffffffffffffffffffffffffffff1681526020018681526020018581526020018481526020018381526020018281526020019650505050505050602060405180830381600087803b158015610ddb57600080fd5b505af1158015610def573d6000803e3d6000fd5b505050506040513d6020811015610e0557600080fd5b8101908080519060200190929190505050935050505092915050565b80600160008473ffffffffffffffffffffffffffffffffffffffff1673ffffffffffffffffffffffffffffffffffffffff168152602001908152602001600020819055505050565b6000809054906101000a900473ffffffffffffffffffffffffffffffffffffffff1673ffffffffffffffffffffffffffffffffffffffff166383ef9eb1836040518263ffffffff1660e01b81526004018082815260200191505060206040518083038186803b158015610edb57600080fd5b505afa158015610eef573d6000803e3d6000fd5b505050506040513d6020811015610f0557600080fd5b810190808051906020019092919050505073ffffffffffffffffffffffffffffffffffffffff163373ffffffffffffffffffffffffffffffffffffffff1614610f4d57600080fd5b60008060009054906101000a900473ffffffffffffffffffffffffffffffffffffffff1673ffffffffffffffffffffffffffffffffffffffff166383ef9eb1846040518263ffffffff1660e01b81526004018082815260200191505060206040518083038186803b158015610fc157600080fd5b505afa158015610fd5573d6000803e3d6000fd5b505050506040513d6020811015610feb57600080fd5b8101908080519060200190929190505050905060008060009054906101000a900473ffffffffffffffffffffffffffffffffffffffff1673ffffffffffffffffffffffffffffffffffffffff166383ef9eb1846040518263ffffffff1660e01b81526004018082815260200191505060206040518083038186803b15801561107257600080fd5b505afa158015611086573d6000803e3d6000fd5b505050506040513d602081101561109c57600080fd5b810190808051906020019092919050505090506110b982826113b0565b50505050565b600c5481565b60046020528060005260406000206000915090505481565b80600460008473ffffffffffffffffffffffffffffffffffffffff1673ffffffffffffffffffffffffffffffffffffffff168152602001908152602001600020819055505050565b6000809054906101000a900473ffffffffffffffffffffffffffffffffffffffff1673ffffffffffffffffffffffffffffffffffffffff166388adb7e082600a54600260008673ffffffffffffffffffffffffffffffffffffffff1673ffffffffffffffffffffffffffffffffffffffff16815260200190815260200160002054600160008773ffffffffffffffffffffffffffffffffffffffff1673ffffffffffffffffffffffffffffffffffffffff1681526020019081526020016000205402026040518363ffffffff1660e01b8152600401808373ffffffffffffffffffffffffffffffffffffffff1673ffffffffffffffffffffffffffffffffffffffff16815260200182815260200192505050600060405180830381600087803b15801561125157600080fd5b505af1158015611265573d6000803e3d6000fd5b505050506000809054906101000a900473ffffffffffffffffffffffffffffffffffffffff1673ffffffffffffffffffffffffffffffffffffffff1663a50316ec82600954600260008673ffffffffffffffffffffffffffffffffffffffff1673ffffffffffffffffffffffffffffffffffffffff16815260200190815260200160002054600160008773ffffffffffffffffffffffffffffffffffffffff1673ffffffffffffffffffffffffffffffffffffffff1681526020019081526020016000205402026040518363ffffffff1660e01b8152600401808373ffffffffffffffffffffffffffffffffffffffff1673ffffffffffffffffffffffffffffffffffffffff16815260200182815260200192505050600060405180830381600087803b15801561139557600080fd5b505af11580156113a9573d6000803e3d6000fd5b5050505050565b6000806000809054906101000a900473ffffffffffffffffffffffffffffffffffffffff1673ffffffffffffffffffffffffffffffffffffffff166302931e59846040518263ffffffff1660e01b8152600401808273ffffffffffffffffffffffffffffffffffffffff1673ffffffffffffffffffffffffffffffffffffffff16815260200191505060206040518083038186803b15801561145157600080fd5b505afa158015611465573d6000803e3d6000fd5b505050506040513d602081101561147b57600080fd5b81019080805190602001909291905050506000809054906101000a900473ffffffffffffffffffffffffffffffffffffffff1673ffffffffffffffffffffffffffffffffffffffff166302931e59866040518263ffffffff1660e01b8152600401808273ffffffffffffffffffffffffffffffffffffffff1673ffffffffffffffffffffffffffffffffffffffff16815260200191505060206040518083038186803b15801561152a57600080fd5b505afa15801561153e573d6000803e3d6000fd5b505050506040513d602081101561155457600080fd5b810190808051906020019092919050505011156115765783915082905061157d565b8291508390505b6000809054906101000a900473ffffffffffffffffffffffffffffffffffffffff1673ffffffffffffffffffffffffffffffffffffffff1663af7cd0e583600560046000809054906101000a900473ffffffffffffffffffffffffffffffffffffffff1673ffffffffffffffffffffffffffffffffffffffff166341d42330876040518263ffffffff1660e01b8152600401808273ffffffffffffffffffffffffffffffffffffffff1673ffffffffffffffffffffffffffffffffffffffff16815260200191505060206040518083038186803b15801561165d57600080fd5b505afa158015611671573d6000803e3d6000fd5b505050506040513d602081101561168757600080fd5b810190808051906020019092919050505002816116a057fe5b046000809054906101000a900473ffffffffffffffffffffffffffffffffffffffff1673ffffffffffffffffffffffffffffffffffffffff166341d42330876040518263ffffffff1660e01b8152600401808273ffffffffffffffffffffffffffffffffffffffff1673ffffffffffffffffffffffffffffffffffffffff16815260200191505060206040518083038186803b15801561173f57600080fd5b505afa158015611753573d6000803e3d6000fd5b505050506040513d602081101561176957600080fd5b8101908080519060200190929190505050016040518363ffffffff1660e01b8152600401808373ffffffffffffffffffffffffffffffffffffffff1673ffffffffffffffffffffffffffffffffffffffff16815260200182815260200192505050600060405180830381600087803b1580156117e457600080fd5b505af11580156117f8573d6000803e3d6000fd5b505050506000809054906101000a900473ffffffffffffffffffffffffffffffffffffffff1673ffffffffffffffffffffffffffffffffffffffff1663a580af0283600560046000809054906101000a900473ffffffffffffffffffffffffffffffffffffffff1673ffffffffffffffffffffffffffffffffffffffff16636ed82fbb876040518263ffffffff1660e01b8152600401808273ffffffffffffffffffffffffffffffffffffffff1673ffffffffffffffffffffffffffffffffffffffff16815260200191505060206040518083038186803b1580156118dc57600080fd5b505afa1580156118f0573d6000803e3d6000fd5b505050506040513d602081101561190657600080fd5b8101908080519060200190929190505050028161191f57fe5b046000809054906101000a900473ffffffffffffffffffffffffffffffffffffffff1673ffffffffffffffffffffffffffffffffffffffff16636ed82fbb876040518263ffffffff1660e01b8152600401808273ffffffffffffffffffffffffffffffffffffffff1673ffffffffffffffffffffffffffffffffffffffff16815260200191505060206040518083038186803b1580156119be57600080fd5b505afa1580156119d2573d6000803e3d6000fd5b505050506040513d60208110156119e857600080fd5b8101908080519060200190929190505050016040518363ffffffff1660e01b8152600401808373ffffffffffffffffffffffffffffffffffffffff1673ffffffffffffffffffffffffffffffffffffffff16815260200182815260200192505050600060405180830381600087803b158015611a6357600080fd5b505af1158015611a77573d6000803e3d6000fd5b505050506000809054906101000a900473ffffffffffffffffffffffffffffffffffffffff1673ffffffffffffffffffffffffffffffffffffffff1663a580af0282600560046000809054906101000a900473ffffffffffffffffffffffffffffffffffffffff1673ffffffffffffffffffffffffffffffffffffffff16636ed82fbb876040518263ffffffff1660e01b8152600401808273ffffffffffffffffffffffffffffffffffffffff1673ffffffffffffffffffffffffffffffffffffffff16815260200191505060206040518083038186803b158015611b5b57600080fd5b505afa158015611b6f573d6000803e3d6000fd5b505050506040513d6020811015611b8557600080fd5b81019080805190602001909291905050500281611b9e57fe5b046000809054906101000a900473ffffffffffffffffffffffffffffffffffffffff1673ffffffffffffffffffffffffffffffffffffffff16636ed82fbb866040518263ffffffff1660e01b8152600401808273ffffffffffffffffffffffffffffffffffffffff1673ffffffffffffffffffffffffffffffffffffffff16815260200191505060206040518083038186803b158015611c3d57600080fd5b505afa158015611c51573d6000803e3d6000fd5b505050506040513d6020811015611c6757600080fd5b8101908080519060200190929190505050036040518363ffffffff1660e01b8152600401808373ffffffffffffffffffffffffffffffffffffffff1673ffffffffffffffffffffffffffffffffffffffff16815260200182815260200192505050600060405180830381600087803b158015611ce257600080fd5b505af1158015611cf6573d6000803e3d6000fd5b505050506000809054906101000a900473ffffffffffffffffffffffffffffffffffffffff1673ffffffffffffffffffffffffffffffffffffffff1663af7cd0e582600560046000809054906101000a900473ffffffffffffffffffffffffffffffffffffffff1673ffffffffffffffffffffffffffffffffffffffff166341d42330876040518263ffffffff1660e01b8152600401808273ffffffffffffffffffffffffffffffffffffffff1673ffffffffffffffffffffffffffffffffffffffff16815260200191505060206040518083038186803b158015611dda57600080fd5b505afa158015611dee573d6000803e3d6000fd5b505050506040513d6020811015611e0457600080fd5b81019080805190602001909291905050500281611e1d57fe5b046000809054906101000a900473ffffffffffffffffffffffffffffffffffffffff1673ffffffffffffffffffffffffffffffffffffffff166341d42330866040518263ffffffff1660e01b8152600401808273ffffffffffffffffffffffffffffffffffffffff1673ffffffffffffffffffffffffffffffffffffffff16815260200191505060206040518083038186803b158015611ebc57600080fd5b505afa158015611ed0573d6000803e3d6000fd5b505050506040513d6020811015611ee657600080fd5b8101908080519060200190929190505050036040518363ffffffff1660e01b8152600401808373ffffffffffffffffffffffffffffffffffffffff1673ffffffffffffffffffffffffffffffffffffffff16815260200182815260200192505050600060405180830381600087803b158015611f6157600080fd5b505af1158015611f75573d6000803e3d6000fd5b50505050600060026000809054906101000a900473ffffffffffffffffffffffffffffffffffffffff1673ffffffffffffffffffffffffffffffffffffffff166302931e59846040518263ffffffff1660e01b8152600401808273ffffffffffffffffffffffffffffffffffffffff1673ffffffffffffffffffffffffffffffffffffffff16815260200191505060206040518083038186803b15801561201b57600080fd5b505afa15801561202f573d6000803e3d6000fd5b505050506040513d602081101561204557600080fd5b81019080805190602001909291905050508161205d57fe5b049050600260008473ffffffffffffffffffffffffffffffffffffffff1673ffffffffffffffffffffffffffffffffffffffff16815260200190815260200160002054816000809054906101000a900473ffffffffffffffffffffffffffffffffffffffff1673ffffffffffffffffffffffffffffffffffffffff166302931e59866040518263ffffffff1660e01b8152600401808273ffffffffffffffffffffffffffffffffffffffff1673ffffffffffffffffffffffffffffffffffffffff16815260200191505060206040518083038186803b15801561213f57600080fd5b505afa158015612153573d6000803e3d6000fd5b505050506040513d602081101561216957600080fd5b8101908080519060200190929190505050038161218257fe5b04600160008573ffffffffffffffffffffffffffffffffffffffff1673ffffffffffffffffffffffffffffffffffffffff1681526020019081526020016000208190555060056004600160008573ffffffffffffffffffffffffffffffffffffffff1673ffffffffffffffffffffffffffffffffffffffff16815260200190815260200160002054028161221257fe5b04600160008473ffffffffffffffffffffffffffffffffffffffff1673ffffffffffffffffffffffffffffffffffffffff1681526020019081526020016000208190555061225f83611125565b61226882611125565b505050505056fea265627a7a7231582058a6522170305175beca2183df1e5874638c01d6ebdd9ed519fdeab964785a8664736f6c63430005100032",
  "source": "pragma solidity >=0.4.21 <0.7.0;\n\nimport \"./Account.sol\";\n\ncontract Protector {\n\n    Account accountInstance;\n    constructor(address _account_address) public {\n        accountInstance = Account(_account_address);\n    }\n\n    mapping (address => uint) public numOfProtector;\n\n    mapping (address => uint) public levelOfProtector;\n\n    mapping (address => uint) public ownerStartCreateTime;\n    mapping (address => uint) public ownerCreateProtectorTime;\n    mapping (address => uint) public ownerStartUpgradeTime;\n    mapping (address => uint) public ownerUpgradeProtectorTime;\n    uint public createProtectorTime = 10;\n    uint public UpgradeProtectorTime = 10;\n\n    uint public protectorHealth = 3;\n    uint public protectorPower = 3;\n    uint public protectorFrequency = 2;\n    uint public protectorArmour = 1;\n    uint public protectorCapacity = 200;\n    uint public protectorSpeed = 3;\n    \n\n    function setProtectorLevel(address _owner, uint value) public {\n        levelOfProtector[_owner] = value;\n    }\n\n    function setStartCreateTime(address _owner, uint value) public {\n        ownerStartCreateTime[_owner] = value;\n    }\n\n    function setCreateProtectorTime(address _owner, uint value) public {\n        ownerCreateProtectorTime[_owner] = value;\n    }\n\n    function setStartUpgradeTime(address _owner, uint value) public {\n        ownerStartUpgradeTime[_owner] = value;\n    }\n\n    function setUpgradeProtectorTime(address _owner, uint value) public {\n        ownerUpgradeProtectorTime[_owner] = value;\n    }\n\n    function setNumOfProtector(address _owner, uint value) public {\n        numOfProtector[_owner] = value;\n    }\n\n    // function getProtectorStartCreateTime(address _owner) public view return(uint) {\n    //     return ownerStartCreateTime[_owner];\n    // }\n\n\n    function _updateProtectorPower(address _owner) public {\n        accountInstance.setUserPower(_owner, numOfProtector[_owner] * levelOfProtector[_owner] * protectorPower);\n        accountInstance.setUserHealth(_owner, numOfProtector[_owner] * levelOfProtector[_owner] * protectorHealth);\n\n    }\n\n    function _createProtector(address _owner, uint number) public returns(bool) {\n        uint foodCost = (25* levelOfProtector[_owner] - 5) * number;\n        uint ironCost = (25* levelOfProtector[_owner] - 5) * number;\n        uint coinCost = (25* levelOfProtector[_owner] - 5) * number;\n\n        return accountInstance.cost(_owner, foodCost, uint(0), ironCost, uint(0), coinCost);\n    }\n    \n    function _UpgradeProtector(address _owner) public returns(bool){\n        uint foodCost = 500* levelOfProtector[_owner] - 125;\n        uint ironCost = 500* levelOfProtector[_owner] - 125;\n        uint coinCost = 500* levelOfProtector[_owner] - 125;\n        levelOfProtector[_owner] += 1;\n        return accountInstance.cost(_owner, foodCost, uint(0), ironCost, uint(0), coinCost);\n    }\n\n    function getProtectorAmount(address _owner) public view returns(uint) {\n        return numOfProtector[_owner];\n    }\n\n    function _fight(address myCastle, address attackedCastle) internal{\n        address winner;\n        address loser;\n\n        if (accountInstance.getUserPower(myCastle) > accountInstance.getUserPower(attackedCastle)){\n            winner = myCastle;\n            loser = attackedCastle;\n        }\n        else {\n            winner = attackedCastle;\n            loser = myCastle;\n        }\n        \n        accountInstance.setFoodOwnerCount(winner, accountInstance.getFoodOwnerCount(winner) + (accountInstance.getFoodOwnerCount(loser) * 4/5));\n        // woodOwnerCount[winner] = woodOwnerCount[winner] + (woodOwnerCount[loser] * 4/5);\n        // ironOwnerCount[winner] = ironOwnerCount[winner] + (ironOwnerCount[loser] * 4/5);\n        // stoneOwnerCount[winner] = stoneOwnerCount[winner] + (stoneOwnerCount[loser] * 4/5);\n        accountInstance.setCoinOwnerCount(winner, accountInstance.getCoinOwnerCount(winner) + (accountInstance.getCoinOwnerCount(loser) * 4/5));\n        accountInstance.setCoinOwnerCount(loser, accountInstance.getCoinOwnerCount(loser) - (accountInstance.getCoinOwnerCount(loser) * 4/5));\n        accountInstance.setFoodOwnerCount(loser, accountInstance.getFoodOwnerCount(loser) - (accountInstance.getFoodOwnerCount(loser) * 4/5));\n\n        // foodOwnerCount[loser] = foodOwnerCount[loser] - (foodOwnerCount[loser] * 4/5);\n        // woodOwnerCount[loser] = woodOwnerCount[loser] - (woodOwnerCount[loser] * 4/5);\n        // ironOwnerCount[loser] = ironOwnerCount[loser] - (ironOwnerCount[loser] * 4/5);\n        // stoneOwnerCount[loser] = stoneOwnerCount[loser] - (stoneOwnerCount[loser] * 4/5);\n        // coinOwnerCount[loser] = coinOwnerCount[loser] - (coinOwnerCount[loser] * 4/5);\n\n        uint winnerPowerLose = accountInstance.getUserPower(loser)/2;\n\n        numOfProtector[winner] = (accountInstance.getUserPower(winner) - winnerPowerLose) / levelOfProtector[winner];\n\n        numOfProtector[loser] = numOfProtector[loser] * 4 / 5;\n\n        _updateProtectorPower(winner);\n        _updateProtectorPower(loser);\n    }\n\n    function attack(uint _ownerId, uint _attackedCastleId) public {\n        require(msg.sender == accountInstance.convertCastleToOwner(_ownerId));\n        address myCastle = accountInstance.convertCastleToOwner(_ownerId);\n        address attackedCastle = accountInstance.convertCastleToOwner(_attackedCastleId);\n        _fight(myCastle, attackedCastle);\n    }\n}",
  "sourcePath": "/Users/seanwang0823/NMLab_Final/contracts/Protector.sol",
  "compiler": {
    "name": "solc",
    "version": "0.5.16+commit.9c3226ce.Emscripten.clang"
  },
  "schemaVersion": "3.4.0",
  "updatedAt": "2021-06-08T15:35:34.567Z",
  "networkType": "ethereum",
  "devdoc": {
    "methods": {}
  },
  "userdoc": {
    "methods": {}
  }
}