{
  "contractName": "QuarryFactory",
  "abi": [
    {
      "constant": true,
      "inputs": [
        {
          "internalType": "uint256",
          "name": "",
          "type": "uint256"
        }
      ],
      "name": "buildingToOwner",
      "outputs": [
        {
          "internalType": "address",
          "name": "",
          "type": "address"
        }
      ],
      "payable": false,
      "stateMutability": "view",
      "type": "function"
    },
    {
      "constant": true,
      "inputs": [
        {
          "internalType": "uint256",
          "name": "",
          "type": "uint256"
        }
      ],
      "name": "buildings",
      "outputs": [
        {
          "internalType": "string",
          "name": "name",
          "type": "string"
        },
        {
          "internalType": "uint256",
          "name": "placeX",
          "type": "uint256"
        },
        {
          "internalType": "uint256",
          "name": "placeY",
          "type": "uint256"
        },
        {
          "internalType": "uint256",
          "name": "level",
          "type": "uint256"
        }
      ],
      "payable": false,
      "stateMutability": "view",
      "type": "function"
    },
    {
      "constant": true,
      "inputs": [
        {
          "internalType": "uint256",
          "name": "",
          "type": "uint256"
        }
      ],
      "name": "castleToOwner",
      "outputs": [
        {
          "internalType": "address",
          "name": "",
          "type": "address"
        }
      ],
      "payable": false,
      "stateMutability": "view",
      "type": "function"
    },
    {
      "constant": true,
      "inputs": [],
      "name": "checkUserAddress",
      "outputs": [
        {
          "internalType": "bool",
          "name": "",
          "type": "bool"
        }
      ],
      "payable": false,
      "stateMutability": "view",
      "type": "function"
    },
    {
      "constant": true,
      "inputs": [
        {
          "internalType": "address",
          "name": "",
          "type": "address"
        }
      ],
      "name": "coinOwnerCount",
      "outputs": [
        {
          "internalType": "uint256",
          "name": "",
          "type": "uint256"
        }
      ],
      "payable": false,
      "stateMutability": "view",
      "type": "function"
    },
    {
      "constant": false,
      "inputs": [
        {
          "internalType": "uint256",
          "name": "_x",
          "type": "uint256"
        },
        {
          "internalType": "uint256",
          "name": "_y",
          "type": "uint256"
        }
      ],
      "name": "createCastle",
      "outputs": [],
      "payable": false,
      "stateMutability": "nonpayable",
      "type": "function"
    },
    {
      "constant": true,
      "inputs": [
        {
          "internalType": "address",
          "name": "",
          "type": "address"
        }
      ],
      "name": "foodOwnerCount",
      "outputs": [
        {
          "internalType": "uint256",
          "name": "",
          "type": "uint256"
        }
      ],
      "payable": false,
      "stateMutability": "view",
      "type": "function"
    },
    {
      "constant": true,
      "inputs": [
        {
          "internalType": "uint256",
          "name": "idx",
          "type": "uint256"
        }
      ],
      "name": "getBuildingById",
      "outputs": [
        {
          "internalType": "bool",
          "name": "",
          "type": "bool"
        },
        {
          "internalType": "string",
          "name": "",
          "type": "string"
        },
        {
          "internalType": "uint256",
          "name": "",
          "type": "uint256"
        }
      ],
      "payable": false,
      "stateMutability": "view",
      "type": "function"
    },
    {
      "constant": true,
      "inputs": [
        {
          "internalType": "address",
          "name": "_owner",
          "type": "address"
        },
        {
          "internalType": "uint256",
          "name": "_placeX",
          "type": "uint256"
        },
        {
          "internalType": "uint256",
          "name": "_placeY",
          "type": "uint256"
        }
      ],
      "name": "getBuildingByOwner",
      "outputs": [
        {
          "internalType": "uint256",
          "name": "",
          "type": "uint256"
        },
        {
          "internalType": "string",
          "name": "",
          "type": "string"
        }
      ],
      "payable": false,
      "stateMutability": "view",
      "type": "function"
    },
    {
      "constant": true,
      "inputs": [
        {
          "internalType": "address",
          "name": "_owner",
          "type": "address"
        }
      ],
      "name": "getBuildingsByOwner",
      "outputs": [
        {
          "internalType": "uint256[]",
          "name": "",
          "type": "uint256[]"
        }
      ],
      "payable": false,
      "stateMutability": "view",
      "type": "function"
    },
    {
      "constant": true,
      "inputs": [],
      "name": "getBuildingsLen",
      "outputs": [
        {
          "internalType": "uint256",
          "name": "",
          "type": "uint256"
        }
      ],
      "payable": false,
      "stateMutability": "view",
      "type": "function"
    },
    {
      "constant": true,
      "inputs": [],
      "name": "getCoinAmount",
      "outputs": [
        {
          "internalType": "uint256",
          "name": "",
          "type": "uint256"
        }
      ],
      "payable": false,
      "stateMutability": "view",
      "type": "function"
    },
    {
      "constant": true,
      "inputs": [],
      "name": "getFoodAmount",
      "outputs": [
        {
          "internalType": "uint256",
          "name": "",
          "type": "uint256"
        }
      ],
      "payable": false,
      "stateMutability": "view",
      "type": "function"
    },
    {
      "constant": true,
      "inputs": [],
      "name": "getIronAmount",
      "outputs": [
        {
          "internalType": "uint256",
          "name": "",
          "type": "uint256"
        }
      ],
      "payable": false,
      "stateMutability": "view",
      "type": "function"
    },
    {
      "constant": true,
      "inputs": [],
      "name": "getKingdomAmount",
      "outputs": [
        {
          "internalType": "uint256",
          "name": "",
          "type": "uint256"
        }
      ],
      "payable": false,
      "stateMutability": "view",
      "type": "function"
    },
    {
      "constant": true,
      "inputs": [],
      "name": "getMyIdx",
      "outputs": [
        {
          "internalType": "uint256",
          "name": "",
          "type": "uint256"
        }
      ],
      "payable": false,
      "stateMutability": "view",
      "type": "function"
    },
    {
      "constant": true,
      "inputs": [
        {
          "internalType": "address",
          "name": "_owner",
          "type": "address"
        }
      ],
      "name": "getRemainingTime",
      "outputs": [
        {
          "internalType": "uint256",
          "name": "",
          "type": "uint256"
        }
      ],
      "payable": false,
      "stateMutability": "view",
      "type": "function"
    },
    {
      "constant": true,
      "inputs": [
        {
          "internalType": "address",
          "name": "_owner",
          "type": "address"
        },
        {
          "internalType": "string",
          "name": "_name",
          "type": "string"
        }
      ],
      "name": "getSpecificBuildingByOwner",
      "outputs": [
        {
          "internalType": "uint256[]",
          "name": "",
          "type": "uint256[]"
        }
      ],
      "payable": false,
      "stateMutability": "view",
      "type": "function"
    },
    {
      "constant": true,
      "inputs": [],
      "name": "getStoneAmount",
      "outputs": [
        {
          "internalType": "uint256",
          "name": "",
          "type": "uint256"
        }
      ],
      "payable": false,
      "stateMutability": "view",
      "type": "function"
    },
    {
      "constant": true,
      "inputs": [
        {
          "internalType": "address",
          "name": "_owner",
          "type": "address"
        }
      ],
      "name": "getUpgradingId",
      "outputs": [
        {
          "internalType": "uint256",
          "name": "",
          "type": "uint256"
        }
      ],
      "payable": false,
      "stateMutability": "view",
      "type": "function"
    },
    {
      "constant": true,
      "inputs": [
        {
          "internalType": "uint256",
          "name": "idx",
          "type": "uint256"
        }
      ],
      "name": "getUserPower",
      "outputs": [
        {
          "internalType": "uint256",
          "name": "",
          "type": "uint256"
        }
      ],
      "payable": false,
      "stateMutability": "view",
      "type": "function"
    },
    {
      "constant": true,
      "inputs": [],
      "name": "getWoodAmount",
      "outputs": [
        {
          "internalType": "uint256",
          "name": "",
          "type": "uint256"
        }
      ],
      "payable": false,
      "stateMutability": "view",
      "type": "function"
    },
    {
      "constant": true,
      "inputs": [
        {
          "internalType": "address",
          "name": "",
          "type": "address"
        }
      ],
      "name": "ironOwnerCount",
      "outputs": [
        {
          "internalType": "uint256",
          "name": "",
          "type": "uint256"
        }
      ],
      "payable": false,
      "stateMutability": "view",
      "type": "function"
    },
    {
      "constant": true,
      "inputs": [],
      "name": "kingdomAmount",
      "outputs": [
        {
          "internalType": "uint256",
          "name": "",
          "type": "uint256"
        }
      ],
      "payable": false,
      "stateMutability": "view",
      "type": "function"
    },
    {
      "constant": true,
      "inputs": [
        {
          "internalType": "address",
          "name": "",
          "type": "address"
        }
      ],
      "name": "ownerCastleCount",
      "outputs": [
        {
          "internalType": "uint256",
          "name": "",
          "type": "uint256"
        }
      ],
      "payable": false,
      "stateMutability": "view",
      "type": "function"
    },
    {
      "constant": true,
      "inputs": [
        {
          "internalType": "address",
          "name": "",
          "type": "address"
        }
      ],
      "name": "ownerStoneProduceTime",
      "outputs": [
        {
          "internalType": "uint256",
          "name": "",
          "type": "uint256"
        }
      ],
      "payable": false,
      "stateMutability": "view",
      "type": "function"
    },
    {
      "constant": true,
      "inputs": [
        {
          "internalType": "address",
          "name": "",
          "type": "address"
        }
      ],
      "name": "power",
      "outputs": [
        {
          "internalType": "uint256",
          "name": "",
          "type": "uint256"
        }
      ],
      "payable": false,
      "stateMutability": "view",
      "type": "function"
    },
    {
      "constant": false,
      "inputs": [
        {
          "internalType": "address",
          "name": "_owner",
          "type": "address"
        },
        {
          "internalType": "uint256",
          "name": "_x",
          "type": "uint256"
        },
        {
          "internalType": "uint256",
          "name": "_y",
          "type": "uint256"
        }
      ],
      "name": "startBuild",
      "outputs": [
        {
          "internalType": "uint256",
          "name": "",
          "type": "uint256"
        }
      ],
      "payable": false,
      "stateMutability": "nonpayable",
      "type": "function"
    },
    {
      "constant": true,
      "inputs": [
        {
          "internalType": "address",
          "name": "",
          "type": "address"
        }
      ],
      "name": "stoneOwnerCount",
      "outputs": [
        {
          "internalType": "uint256",
          "name": "",
          "type": "uint256"
        }
      ],
      "payable": false,
      "stateMutability": "view",
      "type": "function"
    },
    {
      "constant": false,
      "inputs": [
        {
          "internalType": "address",
          "name": "_owner",
          "type": "address"
        }
      ],
      "name": "updateBuild",
      "outputs": [
        {
          "internalType": "uint256",
          "name": "",
          "type": "uint256"
        }
      ],
      "payable": false,
      "stateMutability": "nonpayable",
      "type": "function"
    },
    {
      "constant": true,
      "inputs": [
        {
          "internalType": "address",
          "name": "",
          "type": "address"
        }
      ],
      "name": "woodOwnerCount",
      "outputs": [
        {
          "internalType": "uint256",
          "name": "",
          "type": "uint256"
        }
      ],
      "payable": false,
      "stateMutability": "view",
      "type": "function"
    },
    {
      "constant": false,
      "inputs": [
        {
          "internalType": "uint256",
          "name": "_x",
          "type": "uint256"
        },
        {
          "internalType": "uint256",
          "name": "_y",
          "type": "uint256"
        }
      ],
      "name": "createQuarry",
      "outputs": [],
      "payable": false,
      "stateMutability": "nonpayable",
      "type": "function"
    }
  ],
  "bytecode": "0x60806040526010600955600954600a0a600a55600a600b556064600d556001601a5534801561002d57600080fd5b50613a0a8061003d6000396000f3fe608060405234801561001057600080fd5b50600436106101f05760003560e01c806382a418281161010f578063ccf358a4116100a2578063e5b285f211610071578063e5b285f214610bc1578063ef78b6dc14610c19578063f4ab27f014610c71578063fd8ccf2714610cdf576101f0565b8063ccf358a414610abb578063d1405a4e14610ad9578063db2ace2a14610b11578063e428afa014610b69576101f0565b80639c2fa9b8116100de5780639c2fa9b8146109b7578063aba19ece146109ef578063ad1c89cc14610a5b578063c8b4eeff14610a79576101f0565b806382a41828146107cc578063842a89fa14610865578063867b84e21461093d5780638919a9ca14610995576101f0565b8063503371a511610187578063623e9ba611610156578063623e9ba61461071a578063789630be146107385780637e2b875b146107565780638226e53014610774576101f0565b8063503371a5146105de5780635192b2911461063657806356074209146106a45780635ad60993146106fc576101f0565b80632c79c523116101c35780632c79c52314610342578063305420431461047257806346125f84146104ca5780634c96a06214610522576101f0565b80630e85117a146101f55780630f130a391461024d578063194c717b146103065780631c980beb14610324575b600080fd5b6102376004803603602081101561020b57600080fd5b81019080803573ffffffffffffffffffffffffffffffffffffffff169060200190929190505050610cfd565b6040518082815260200191505060405180910390f35b6102796004803603602081101561026357600080fd5b8101908080359060200190929190505050610e79565b604051808415151515815260200180602001838152602001828103825284818151815260200191508051906020019080838360005b838110156102c95780820151818401526020810190506102ae565b50505050905090810190601f1680156102f65780820380516001836020036101000a031916815260200191505b5094505050505060405180910390f35b61030e610fbc565b6040518082815260200191505060405180910390f35b61032c610fc2565b6040518082815260200191505060405180910390f35b61041b6004803603604081101561035857600080fd5b81019080803573ffffffffffffffffffffffffffffffffffffffff1690602001909291908035906020019064010000000081111561039557600080fd5b8201836020820111156103a757600080fd5b803590602001918460018302840111640100000000831117156103c957600080fd5b91908080601f016020809104026020016040519081016040528093929190818152602001838380828437600081840152601f19601f820116905080830192505050505050509192919290505050611008565b6040518080602001828103825283818151815260200191508051906020019060200280838360005b8381101561045e578082015181840152602081019050610443565b505050509050019250505060405180910390f35b6104b46004803603602081101561048857600080fd5b81019080803573ffffffffffffffffffffffffffffffffffffffff1690602001909291905050506115a3565b6040518082815260200191505060405180910390f35b61050c600480360360208110156104e057600080fd5b81019080803573ffffffffffffffffffffffffffffffffffffffff1690602001909291905050506115bb565b6040518082815260200191505060405180910390f35b61054e6004803603602081101561053857600080fd5b81019080803590602001909291905050506115d3565b6040518080602001858152602001848152602001838152602001828103825286818151815260200191508051906020019080838360005b838110156105a0578082015181840152602081019050610585565b50505050905090810190601f1680156105cd5780820380516001836020036101000a031916815260200191505b509550505050505060405180910390f35b610620600480360360208110156105f457600080fd5b81019080803573ffffffffffffffffffffffffffffffffffffffff1690602001909291905050506116a8565b6040518082815260200191505060405180910390f35b6106626004803603602081101561064c57600080fd5b81019080803590602001909291905050506116c0565b604051808273ffffffffffffffffffffffffffffffffffffffff1673ffffffffffffffffffffffffffffffffffffffff16815260200191505060405180910390f35b6106e6600480360360208110156106ba57600080fd5b81019080803573ffffffffffffffffffffffffffffffffffffffff1690602001909291905050506116f3565b6040518082815260200191505060405180910390f35b61070461194d565b6040518082815260200191505060405180910390f35b610722611994565b6040518082815260200191505060405180910390f35b6107406119db565b6040518082815260200191505060405180910390f35b61075e611a72565b6040518082815260200191505060405180910390f35b6107b66004803603602081101561078a57600080fd5b81019080803573ffffffffffffffffffffffffffffffffffffffff169060200190929190505050611a7c565b6040518082815260200191505060405180910390f35b61080e600480360360208110156107e257600080fd5b81019080803573ffffffffffffffffffffffffffffffffffffffff169060200190929190505050611a94565b6040518080602001828103825283818151815260200191508051906020019060200280838360005b83811015610851578082015181840152602081019050610836565b505050509050019250505060405180910390f35b6108bb6004803603606081101561087b57600080fd5b81019080803573ffffffffffffffffffffffffffffffffffffffff1690602001909291908035906020019092919080359060200190929190505050611d55565b6040518083815260200180602001828103825283818151815260200191508051906020019080838360005b838110156109015780820151818401526020810190506108e6565b50505050905090810190601f16801561092e5780820380516001836020036101000a031916815260200191505b50935050505060405180910390f35b61097f6004803603602081101561095357600080fd5b81019080803573ffffffffffffffffffffffffffffffffffffffff169060200190929190505050611f3e565b6040518082815260200191505060405180910390f35b61099d611f56565b604051808215151515815260200191505060405180910390f35b6109ed600480360360408110156109cd57600080fd5b810190808035906020019092919080359060200190929190505050611fb0565b005b610a4560048036036060811015610a0557600080fd5b81019080803573ffffffffffffffffffffffffffffffffffffffff1690602001909291908035906020019092919080359060200190929190505050611fff565b6040518082815260200191505060405180910390f35b610a63612229565b6040518082815260200191505060405180910390f35b610aa560048036036020811015610a8f57600080fd5b8101908080359060200190929190505050612236565b6040518082815260200191505060405180910390f35b610ac36122c6565b6040518082815260200191505060405180910390f35b610b0f60048036036040811015610aef57600080fd5b81019080803590602001909291908035906020019092919050505061230d565b005b610b5360048036036020811015610b2757600080fd5b81019080803573ffffffffffffffffffffffffffffffffffffffff1690602001909291905050506123a1565b6040518082815260200191505060405180910390f35b610bab60048036036020811015610b7f57600080fd5b81019080803573ffffffffffffffffffffffffffffffffffffffff1690602001909291905050506123ea565b6040518082815260200191505060405180910390f35b610c0360048036036020811015610bd757600080fd5b81019080803573ffffffffffffffffffffffffffffffffffffffff169060200190929190505050612402565b6040518082815260200191505060405180910390f35b610c5b60048036036020811015610c2f57600080fd5b81019080803573ffffffffffffffffffffffffffffffffffffffff16906020019092919050505061241a565b6040518082815260200191505060405180910390f35b610c9d60048036036020811015610c8757600080fd5b8101908080359060200190929190505050612432565b604051808273ffffffffffffffffffffffffffffffffffffffff1673ffffffffffffffffffffffffffffffffffffffff16815260200191505060405180910390f35b610ce7612465565b6040518082815260200191505060405180910390f35b600080601060008473ffffffffffffffffffffffffffffffffffffffff1673ffffffffffffffffffffffffffffffffffffffff1681526020019081526020016000205490506000600f60008573ffffffffffffffffffffffffffffffffffffffff1673ffffffffffffffffffffffffffffffffffffffff1681526020019081526020016000205414158015610df55750600b54600c8281548110610d9d57fe5b90600052602060002090600402016003015402600f60008573ffffffffffffffffffffffffffffffffffffffff1673ffffffffffffffffffffffffffffffffffffffff16815260200190815260200160002054014210155b15610e04576000915050610e74565b600042600b54600c8481548110610e1757fe5b90600052602060002090600402016003015402600f60008773ffffffffffffffffffffffffffffffffffffffff1673ffffffffffffffffffffffffffffffffffffffff168152602001908152602001600020540103905080925050505b919050565b600060606000600c805490508410610ed3576000806040518060400160405280601381526020017f696e76616c6964206275696c64696e672069640000000000000000000000000081525090809050925092509250610fb5565b6001600c8581548110610ee257fe5b9060005260206000209060040201600001600c8681548110610f0057fe5b906000526020600020906004020160030154818054600181600116156101000203166002900480601f016020809104026020016040519081016040528092919081815260200182805460018160011615610100020316600290048015610fa75780601f10610f7c57610100808354040283529160200191610fa7565b820191906000526020600020905b815481529060010190602001808311610f8a57829003601f168201915b505050505091509250925092505b9193909250565b60065481565b60008060003373ffffffffffffffffffffffffffffffffffffffff1673ffffffffffffffffffffffffffffffffffffffff16815260200190815260200160002054905090565b606060008090506040518060400160405280600481526020017f4661726d0000000000000000000000000000000000000000000000000000000081525080519060200120838051906020012014156110a157601260008573ffffffffffffffffffffffffffffffffffffffff1673ffffffffffffffffffffffffffffffffffffffff16815260200190815260200160002054905061140f565b6040518060400160405280600481526020017f4d696e6500000000000000000000000000000000000000000000000000000000815250805190602001208380519060200120141561113357601360008573ffffffffffffffffffffffffffffffffffffffff1673ffffffffffffffffffffffffffffffffffffffff16815260200190815260200160002054905061140e565b6040518060400160405280600581526020017f4d616e6f7200000000000000000000000000000000000000000000000000000081525080519060200120838051906020012014156111c557601460008573ffffffffffffffffffffffffffffffffffffffff1673ffffffffffffffffffffffffffffffffffffffff16815260200190815260200160002054905061140d565b6040518060400160405280600681526020017f5175617272790000000000000000000000000000000000000000000000000000815250805190602001208380519060200120141561125757601560008573ffffffffffffffffffffffffffffffffffffffff1673ffffffffffffffffffffffffffffffffffffffff16815260200190815260200160002054905061140c565b6040518060400160405280600781526020017f5361776d696c6c0000000000000000000000000000000000000000000000000081525080519060200120838051906020012014156112e957601660008573ffffffffffffffffffffffffffffffffffffffff1673ffffffffffffffffffffffffffffffffffffffff16815260200190815260200160002054905061140b565b6040518060400160405280600681526020017f43656c6c61720000000000000000000000000000000000000000000000000000815250805190602001208380519060200120141561137b57601760008573ffffffffffffffffffffffffffffffffffffffff1673ffffffffffffffffffffffffffffffffffffffff16815260200190815260200160002054905061140a565b6040518060400160405280600781526020017f4261727261636b00000000000000000000000000000000000000000000000000815250805190602001208380519060200120141561140957601860008573ffffffffffffffffffffffffffffffffffffffff1673ffffffffffffffffffffffffffffffffffffffff1681526020019081526020016000205490505b5b5b5b5b5b5b6060816040519080825280602002602001820160405280156114405781602001602082028038833980820191505090505b509050600080905060008090505b600c80549050811015611596578673ffffffffffffffffffffffffffffffffffffffff16600e600083815260200190815260200160002060009054906101000a900473ffffffffffffffffffffffffffffffffffffffff1673ffffffffffffffffffffffffffffffffffffffff1614801561155457508580519060200120600c82815481106114d957fe5b906000526020600020906004020160000160405180828054600181600116156101000203166002900480156115455780601f10611523576101008083540402835291820191611545565b820191906000526020600020905b815481529060010190602001808311611531575b50509150506040518091039020145b15611589578083838151811061156657fe5b6020026020010181815250506115866001836124ac90919063ffffffff16565b91505b808060010191505061144e565b5081935050505092915050565b60196020528060005260406000206000915090505481565b60086020528060005260406000206000915090505481565b600c81815481106115e057fe5b9060005260206000209060040201600091509050806000018054600181600116156101000203166002900480601f01602080910402602001604051908101604052809291908181526020018280546001816001161561010002031660029004801561168c5780601f106116615761010080835404028352916020019161168c565b820191906000526020600020905b81548152906001019060200180831161166f57829003601f168201915b5050505050908060010154908060020154908060030154905084565b60056020528060005260406000206000915090505481565b600e6020528060005260406000206000915054906101000a900473ffffffffffffffffffffffffffffffffffffffff1681565b600080601060008473ffffffffffffffffffffffffffffffffffffffff1673ffffffffffffffffffffffffffffffffffffffff1681526020019081526020016000205490506000600f60008573ffffffffffffffffffffffffffffffffffffffff1673ffffffffffffffffffffffffffffffffffffffff16815260200190815260200160002054141580156117eb5750600b54600c828154811061179357fe5b90600052602060002090600402016003015402600f60008573ffffffffffffffffffffffffffffffffffffffff1673ffffffffffffffffffffffffffffffffffffffff16815260200190815260200160002054014210155b156118d8576118226001600c838154811061180257fe5b9060005260206000209060040201600301546124ac90919063ffffffff16565b600c828154811061182f57fe5b9060005260206000209060040201600301819055506000600f60008573ffffffffffffffffffffffffffffffffffffffff1673ffffffffffffffffffffffffffffffffffffffff168152602001908152602001600020819055506000601060008573ffffffffffffffffffffffffffffffffffffffff1673ffffffffffffffffffffffffffffffffffffffff168152602001908152602001600020819055506000915050611948565b600042600b54600c84815481106118eb57fe5b90600052602060002090600402016003015402600f60008773ffffffffffffffffffffffffffffffffffffffff1673ffffffffffffffffffffffffffffffffffffffff168152602001908152602001600020540103905080925050505b919050565b6000600260003373ffffffffffffffffffffffffffffffffffffffff1673ffffffffffffffffffffffffffffffffffffffff16815260200190815260200160002054905090565b6000600360003373ffffffffffffffffffffffffffffffffffffffff1673ffffffffffffffffffffffffffffffffffffffff16815260200190815260200160002054905090565b600080600090505b600654811015611a68573373ffffffffffffffffffffffffffffffffffffffff166007600083815260200190815260200160002060009054906101000a900473ffffffffffffffffffffffffffffffffffffffff1673ffffffffffffffffffffffffffffffffffffffff161415611a5d5780915050611a6f565b8060010190506119e3565b5060065490505b90565b6000600654905090565b60016020528060005260406000206000915090505481565b606080601860008473ffffffffffffffffffffffffffffffffffffffff1673ffffffffffffffffffffffffffffffffffffffff16815260200190815260200160002054601760008573ffffffffffffffffffffffffffffffffffffffff1673ffffffffffffffffffffffffffffffffffffffff16815260200190815260200160002054601660008673ffffffffffffffffffffffffffffffffffffffff1673ffffffffffffffffffffffffffffffffffffffff16815260200190815260200160002054601560008773ffffffffffffffffffffffffffffffffffffffff1673ffffffffffffffffffffffffffffffffffffffff16815260200190815260200160002054601460008873ffffffffffffffffffffffffffffffffffffffff1673ffffffffffffffffffffffffffffffffffffffff16815260200190815260200160002054601360008973ffffffffffffffffffffffffffffffffffffffff1673ffffffffffffffffffffffffffffffffffffffff16815260200190815260200160002054601260008a73ffffffffffffffffffffffffffffffffffffffff1673ffffffffffffffffffffffffffffffffffffffff16815260200190815260200160002054010101010101604051908082528060200260200182016040528015611c8b5781602001602082028038833980820191505090505b509050600080905060008090505b600c80549050811015611d4a578473ffffffffffffffffffffffffffffffffffffffff16600e600083815260200190815260200160002060009054906101000a900473ffffffffffffffffffffffffffffffffffffffff1673ffffffffffffffffffffffffffffffffffffffff161415611d3d5780838381518110611d1a57fe5b602002602001018181525050611d3a6001836124ac90919063ffffffff16565b91505b8080600101915050611c99565b508192505050919050565b6000606060008090505b600c80549050811015611ef5578573ffffffffffffffffffffffffffffffffffffffff16600e600083815260200190815260200160002060009054906101000a900473ffffffffffffffffffffffffffffffffffffffff1673ffffffffffffffffffffffffffffffffffffffff161415611ee85784600c8281548110611de157fe5b906000526020600020906004020160010154148015611e1d575083600c8281548110611e0957fe5b906000526020600020906004020160020154145b15611ee75780600c8281548110611e3057fe5b9060005260206000209060040201600001808054600181600116156101000203166002900480601f016020809104026020016040519081016040528092919081815260200182805460018160011615610100020316600290048015611ed65780601f10611eab57610100808354040283529160200191611ed6565b820191906000526020600020905b815481529060010190602001808311611eb957829003601f168201915b505050505090509250925050611f36565b5b8080600101915050611d5f565b60008090506040518060400160405280600481526020017f4e6f6e650000000000000000000000000000000000000000000000000000000081525092509250505b935093915050565b60046020528060005260406000206000915090505481565b600080600860003373ffffffffffffffffffffffffffffffffffffffff1673ffffffffffffffffffffffffffffffffffffffff168152602001908152602001600020541115611fa85760019050611fad565b600090505b90565b611ff1336040518060400160405280600681526020017f51756172727900000000000000000000000000000000000000000000000000008152508484612534565b50611ffb33612dc1565b5050565b60008061200d858585611d55565b50809150506000811415612025576000915050612222565b6040518060400160405280600681526020017f436173746c65000000000000000000000000000000000000000000000000000081525080519060200120600c828154811061206f57fe5b906000526020600020906004020160000160405180828054600181600116156101000203166002900480156120db5780601f106120b95761010080835404028352918201916120db565b820191906000526020600020905b8154815290600101906020018083116120c7575b5050915050604051809103902050506000600f60008773ffffffffffffffffffffffffffffffffffffffff1673ffffffffffffffffffffffffffffffffffffffff168152602001908152602001600020541461213b576000915050612222565b80601060008773ffffffffffffffffffffffffffffffffffffffff1673ffffffffffffffffffffffffffffffffffffffff1681526020019081526020016000208190555042600f60008773ffffffffffffffffffffffffffffffffffffffff1673ffffffffffffffffffffffffffffffffffffffff168152602001908152602001600020819055506000600d54600c83815481106121d557fe5b9060005260206000209060040201600301540290506121f986600083848586612ffc565b50600b54600c838154811061220a57fe5b90600052602060002090600402016003015402925050505b9392505050565b6000600c80549050905090565b60006006548210156122bc57600560006007600085815260200190815260200160002060009054906101000a900473ffffffffffffffffffffffffffffffffffffffff1673ffffffffffffffffffffffffffffffffffffffff1673ffffffffffffffffffffffffffffffffffffffff1681526020019081526020016000205490506122c1565b600090505b919050565b6000600460003373ffffffffffffffffffffffffffffffffffffffff1673ffffffffffffffffffffffffffffffffffffffff16815260200190815260200160002054905090565b61234e336040518060400160405280600681526020017f436173746c6500000000000000000000000000000000000000000000000000008152508484612534565b5061235833613470565b6001601160003373ffffffffffffffffffffffffffffffffffffffff1673ffffffffffffffffffffffffffffffffffffffff168152602001908152602001600020819055505050565b6000601060008373ffffffffffffffffffffffffffffffffffffffff1673ffffffffffffffffffffffffffffffffffffffff168152602001908152602001600020549050919050565b60006020528060005260406000206000915090505481565b60026020528060005260406000206000915090505481565b60036020528060005260406000206000915090505481565b60076020528060005260406000206000915054906101000a900473ffffffffffffffffffffffffffffffffffffffff1681565b6000600160003373ffffffffffffffffffffffffffffffffffffffff1673ffffffffffffffffffffffffffffffffffffffff16815260200190815260200160002054905090565b60008082840190508381101561252a576040517f08c379a000000000000000000000000000000000000000000000000000000000815260040180806020018281038252601b8152602001807f536166654d6174683a206164646974696f6e206f766572666c6f77000000000081525060200191505060405180910390fd5b8091505092915050565b600080600c80549050141561265c57600c60405180608001604052806040518060400160405280600f81526020017f66697273745f6275696c64696e67210000000000000000000000000000000000815250815260200160008152602001600081526020016103e88152509080600181540180825580915050906001820390600052602060002090600402016000909192909190915060008201518160000190805190602001906125e6929190613930565b506020820151816001015560408201518160020155606082015181600301555050506000600e600080815260200190815260200160002060006101000a81548173ffffffffffffffffffffffffffffffffffffffff021916908373ffffffffffffffffffffffffffffffffffffffff1602179055505b60006126fd6001600c604051806080016040528089815260200188815260200187815260200160018152509080600181540180825580915050906001820390600052602060002090600402016000909192909190915060008201518160000190805190602001906126ce929190613930565b50602082015181600101556040820151816002015560608201518160030155505061371690919063ffffffff16565b9050612716866000600d54600d54600d54600d54612ffc565b5085600e600083815260200190815260200160002060006101000a81548173ffffffffffffffffffffffffffffffffffffffff021916908373ffffffffffffffffffffffffffffffffffffffff1602179055506040518060400160405280600481526020017f4661726d00000000000000000000000000000000000000000000000000000000815250805190602001208580519060200120141561284f576128076001601260008973ffffffffffffffffffffffffffffffffffffffff1673ffffffffffffffffffffffffffffffffffffffff168152602001908152602001600020546124ac90919063ffffffff16565b601260008873ffffffffffffffffffffffffffffffffffffffff1673ffffffffffffffffffffffffffffffffffffffff16815260200190815260200160002081905550612db5565b6040518060400160405280600481526020017f4d696e65000000000000000000000000000000000000000000000000000000008152508051906020012085805190602001201415612935576128ed6001601360008973ffffffffffffffffffffffffffffffffffffffff1673ffffffffffffffffffffffffffffffffffffffff168152602001908152602001600020546124ac90919063ffffffff16565b601360008873ffffffffffffffffffffffffffffffffffffffff1673ffffffffffffffffffffffffffffffffffffffff16815260200190815260200160002081905550612db4565b6040518060400160405280600581526020017f4d616e6f720000000000000000000000000000000000000000000000000000008152508051906020012085805190602001201415612a1b576129d36001601460008973ffffffffffffffffffffffffffffffffffffffff1673ffffffffffffffffffffffffffffffffffffffff168152602001908152602001600020546124ac90919063ffffffff16565b601460008873ffffffffffffffffffffffffffffffffffffffff1673ffffffffffffffffffffffffffffffffffffffff16815260200190815260200160002081905550612db3565b6040518060400160405280600681526020017f51756172727900000000000000000000000000000000000000000000000000008152508051906020012085805190602001201415612b0157612ab96001601560008973ffffffffffffffffffffffffffffffffffffffff1673ffffffffffffffffffffffffffffffffffffffff168152602001908152602001600020546124ac90919063ffffffff16565b601560008873ffffffffffffffffffffffffffffffffffffffff1673ffffffffffffffffffffffffffffffffffffffff16815260200190815260200160002081905550612db2565b6040518060400160405280600781526020017f5361776d696c6c000000000000000000000000000000000000000000000000008152508051906020012085805190602001201415612be757612b9f6001601660008973ffffffffffffffffffffffffffffffffffffffff1673ffffffffffffffffffffffffffffffffffffffff168152602001908152602001600020546124ac90919063ffffffff16565b601660008873ffffffffffffffffffffffffffffffffffffffff1673ffffffffffffffffffffffffffffffffffffffff16815260200190815260200160002081905550612db1565b6040518060400160405280600681526020017f43656c6c617200000000000000000000000000000000000000000000000000008152508051906020012085805190602001201415612ccd57612c856001601760008973ffffffffffffffffffffffffffffffffffffffff1673ffffffffffffffffffffffffffffffffffffffff168152602001908152602001600020546124ac90919063ffffffff16565b601760008873ffffffffffffffffffffffffffffffffffffffff1673ffffffffffffffffffffffffffffffffffffffff16815260200190815260200160002081905550612db0565b6040518060400160405280600781526020017f4261727261636b000000000000000000000000000000000000000000000000008152508051906020012085805190602001201415612daf57612d6b6001601860008973ffffffffffffffffffffffffffffffffffffffff1673ffffffffffffffffffffffffffffffffffffffff168152602001908152602001600020546124ac90919063ffffffff16565b601860008873ffffffffffffffffffffffffffffffffffffffff1673ffffffffffffffffffffffffffffffffffffffff168152602001908152602001600020819055505b5b5b5b5b5b5b80915050949350505050565b6060612e02826040518060400160405280600681526020017f5175617272790000000000000000000000000000000000000000000000000000815250611008565b90506000601960008473ffffffffffffffffffffffffffffffffffffffff1673ffffffffffffffffffffffffffffffffffffffff168152602001908152602001600020541480612e53575060008151145b15612ea25742601960008473ffffffffffffffffffffffffffffffffffffffff1673ffffffffffffffffffffffffffffffffffffffff1681526020019081526020016000208190555050612ff9565b6000612ef9600a601960008673ffffffffffffffffffffffffffffffffffffffff1673ffffffffffffffffffffffffffffffffffffffff16815260200190815260200160002054420361376090919063ffffffff16565b9050600080905060008090505b8351811015612f5657601a54600c858381518110612f2057fe5b602002602001015181548110612f3257fe5b90600052602060002090600402016003015402820191508080600101915050612f06565b508082026000808673ffffffffffffffffffffffffffffffffffffffff1673ffffffffffffffffffffffffffffffffffffffff1681526020019081526020016000206000828254019250508190555081600a02601960008673ffffffffffffffffffffffffffffffffffffffff1673ffffffffffffffffffffffffffffffffffffffff168152602001908152602001600020600082825401925050819055505050505b50565b600085600260008973ffffffffffffffffffffffffffffffffffffffff1673ffffffffffffffffffffffffffffffffffffffff168152602001908152602001600020541015801561308c575084600460008973ffffffffffffffffffffffffffffffffffffffff1673ffffffffffffffffffffffffffffffffffffffff1681526020019081526020016000205410155b80156130d7575083600160008973ffffffffffffffffffffffffffffffffffffffff1673ffffffffffffffffffffffffffffffffffffffff1681526020019081526020016000205410155b80156131215750826000808973ffffffffffffffffffffffffffffffffffffffff1673ffffffffffffffffffffffffffffffffffffffff1681526020019081526020016000205410155b801561316c575081600360008973ffffffffffffffffffffffffffffffffffffffff1673ffffffffffffffffffffffffffffffffffffffff1681526020019081526020016000205410155b15613461576131c386600260008a73ffffffffffffffffffffffffffffffffffffffff1673ffffffffffffffffffffffffffffffffffffffff1681526020019081526020016000205461371690919063ffffffff16565b600260008973ffffffffffffffffffffffffffffffffffffffff1673ffffffffffffffffffffffffffffffffffffffff1681526020019081526020016000208190555061325885600460008a73ffffffffffffffffffffffffffffffffffffffff1673ffffffffffffffffffffffffffffffffffffffff1681526020019081526020016000205461371690919063ffffffff16565b600460008973ffffffffffffffffffffffffffffffffffffffff1673ffffffffffffffffffffffffffffffffffffffff168152602001908152602001600020819055506132ed84600160008a73ffffffffffffffffffffffffffffffffffffffff1673ffffffffffffffffffffffffffffffffffffffff1681526020019081526020016000205461371690919063ffffffff16565b600160008973ffffffffffffffffffffffffffffffffffffffff1673ffffffffffffffffffffffffffffffffffffffff16815260200190815260200160002081905550613381836000808a73ffffffffffffffffffffffffffffffffffffffff1673ffffffffffffffffffffffffffffffffffffffff1681526020019081526020016000205461371690919063ffffffff16565b6000808973ffffffffffffffffffffffffffffffffffffffff1673ffffffffffffffffffffffffffffffffffffffff1681526020019081526020016000208190555061341582600360008a73ffffffffffffffffffffffffffffffffffffffff1673ffffffffffffffffffffffffffffffffffffffff1681526020019081526020016000205461371690919063ffffffff16565b600360008973ffffffffffffffffffffffffffffffffffffffff1673ffffffffffffffffffffffffffffffffffffffff1681526020019081526020016000208190555060019050613466565b600090505b9695505050505050565b6000600860008373ffffffffffffffffffffffffffffffffffffffff1673ffffffffffffffffffffffffffffffffffffffff16815260200190815260200160002054146134bc57600080fd5b8060076000600654815260200190815260200160002060006101000a81548173ffffffffffffffffffffffffffffffffffffffff021916908373ffffffffffffffffffffffffffffffffffffffff160217905550600660008154809291906001019190505550600860008273ffffffffffffffffffffffffffffffffffffffff1673ffffffffffffffffffffffffffffffffffffffff16815260200190815260200160002060008154809291906001019190505550612710600260008373ffffffffffffffffffffffffffffffffffffffff1673ffffffffffffffffffffffffffffffffffffffff16815260200190815260200160002081905550612710600460008373ffffffffffffffffffffffffffffffffffffffff1673ffffffffffffffffffffffffffffffffffffffff168152602001908152602001600020819055506127106000808373ffffffffffffffffffffffffffffffffffffffff1673ffffffffffffffffffffffffffffffffffffffff16815260200190815260200160002081905550612710600160008373ffffffffffffffffffffffffffffffffffffffff1673ffffffffffffffffffffffffffffffffffffffff16815260200190815260200160002081905550612710600360008373ffffffffffffffffffffffffffffffffffffffff1673ffffffffffffffffffffffffffffffffffffffff168152602001908152602001600020819055506000600560008373ffffffffffffffffffffffffffffffffffffffff1673ffffffffffffffffffffffffffffffffffffffff1681526020019081526020016000208190555050565b600061375883836040518060400160405280601e81526020017f536166654d6174683a207375627472616374696f6e206f766572666c6f7700008152506137aa565b905092915050565b60006137a283836040518060400160405280601a81526020017f536166654d6174683a206469766973696f6e206279207a65726f00000000000081525061386a565b905092915050565b6000838311158290613857576040517f08c379a00000000000000000000000000000000000000000000000000000000081526004018080602001828103825283818151815260200191508051906020019080838360005b8381101561381c578082015181840152602081019050613801565b50505050905090810190601f1680156138495780820380516001836020036101000a031916815260200191505b509250505060405180910390fd5b5060008385039050809150509392505050565b60008083118290613916576040517f08c379a00000000000000000000000000000000000000000000000000000000081526004018080602001828103825283818151815260200191508051906020019080838360005b838110156138db5780820151818401526020810190506138c0565b50505050905090810190601f1680156139085780820380516001836020036101000a031916815260200191505b509250505060405180910390fd5b50600083858161392257fe5b049050809150509392505050565b828054600181600116156101000203166002900490600052602060002090601f016020900481019282601f1061397157805160ff191683800117855561399f565b8280016001018555821561399f579182015b8281111561399e578251825591602001919060010190613983565b5b5090506139ac91906139b0565b5090565b6139d291905b808211156139ce5760008160009055506001016139b6565b5090565b9056fea265627a7a72315820bbc68c986182c27b0eeb5726dcd3b9ba2e7b3aa9d03c92eefde7e2edfc9066f464736f6c63430005100032",
  "source": "pragma solidity >=0.4.21 <0.7.0;\n\nimport \"./SafeMath.sol\";\nimport \"./Castle.sol\";\n\ncontract QuarryFactory is CastleFactory {\n    \n    using SafeMath for uint;\n    \n    mapping (address => uint) public ownerStoneProduceTime;\n    uint produceStoneAbility = 1;\n\n\n    function createQuarry(uint _x, uint _y) public {\n        _createBuilding(msg.sender, \"Quarry\", _x, _y);\n        _updateProduceStone(msg.sender);\n    }\n\n    \n    function _updateProduceStone(address _owner) internal {\n        uint[] memory quarries = getSpecificBuildingByOwner(_owner, \"Quarry\");\n        if (ownerStoneProduceTime[_owner] == 0 || quarries.length == 0) {\n            ownerStoneProduceTime[_owner] = now;\n            return;\n        }\n        uint periodCounts = (now - ownerStoneProduceTime[_owner]).div(10 seconds);\n        uint produceAbilitySum = 0;\n        for (uint i=0; i<quarries.length; i++) {\n            produceAbilitySum += buildings[quarries[i]].level * produceStoneAbility;\n        }\n        stoneOwnerCount[_owner] += periodCounts * produceAbilitySum;\n        ownerStoneProduceTime[_owner] += 10 * periodCounts;\n        // while (now > ownerStoneProduceTime[_owner].add(10 seconds)) { //too slow\n        //     for (uint i = 0; i < quarries.length; i++) {\n        //         stoneOwnerCount[_owner] = stoneOwnerCount[_owner].add(buildings[quarries[i]].level * produceStoneAbility ); //cost too much\n        //     }\n        //     ownerStoneProduceTime[_owner] = ownerStoneProduceTime[_owner].add(10 seconds);\n        // }\n    }\n}",
  "sourcePath": "/Users/seanwang0823/NMLab_Final/contracts/Quarry.sol",
  "compiler": {
    "name": "solc",
    "version": "0.5.16+commit.9c3226ce.Emscripten.clang"
  },
  "schemaVersion": "3.4.0",
  "updatedAt": "2021-05-28T06:29:31.978Z",
  "devdoc": {
    "methods": {}
  },
  "userdoc": {
    "methods": {}
  }
}