{
  "contractName": "Soldier",
  "abi": [
    {
      "constant": true,
      "inputs": [
        {
          "internalType": "uint256",
          "name": "",
          "type": "uint256"
        }
      ],
      "name": "castleToOwner",
      "outputs": [
        {
          "internalType": "address",
          "name": "",
          "type": "address"
        }
      ],
      "payable": false,
      "stateMutability": "view",
      "type": "function"
    },
    {
      "constant": true,
      "inputs": [],
      "name": "checkUserAddress",
      "outputs": [
        {
          "internalType": "bool",
          "name": "",
          "type": "bool"
        }
      ],
      "payable": false,
      "stateMutability": "view",
      "type": "function"
    },
    {
      "constant": true,
      "inputs": [
        {
          "internalType": "address",
          "name": "",
          "type": "address"
        }
      ],
      "name": "coinOwnerCount",
      "outputs": [
        {
          "internalType": "uint256",
          "name": "",
          "type": "uint256"
        }
      ],
      "payable": false,
      "stateMutability": "view",
      "type": "function"
    },
    {
      "constant": true,
      "inputs": [],
      "name": "createSoldierTime",
      "outputs": [
        {
          "internalType": "uint256",
          "name": "",
          "type": "uint256"
        }
      ],
      "payable": false,
      "stateMutability": "view",
      "type": "function"
    },
    {
      "constant": true,
      "inputs": [
        {
          "internalType": "address",
          "name": "",
          "type": "address"
        }
      ],
      "name": "foodOwnerCount",
      "outputs": [
        {
          "internalType": "uint256",
          "name": "",
          "type": "uint256"
        }
      ],
      "payable": false,
      "stateMutability": "view",
      "type": "function"
    },
    {
      "constant": true,
      "inputs": [],
      "name": "getCoinAmount",
      "outputs": [
        {
          "internalType": "uint256",
          "name": "",
          "type": "uint256"
        }
      ],
      "payable": false,
      "stateMutability": "view",
      "type": "function"
    },
    {
      "constant": true,
      "inputs": [],
      "name": "getFoodAmount",
      "outputs": [
        {
          "internalType": "uint256",
          "name": "",
          "type": "uint256"
        }
      ],
      "payable": false,
      "stateMutability": "view",
      "type": "function"
    },
    {
      "constant": true,
      "inputs": [],
      "name": "getIronAmount",
      "outputs": [
        {
          "internalType": "uint256",
          "name": "",
          "type": "uint256"
        }
      ],
      "payable": false,
      "stateMutability": "view",
      "type": "function"
    },
    {
      "constant": true,
      "inputs": [],
      "name": "getKingdomAmount",
      "outputs": [
        {
          "internalType": "uint256",
          "name": "",
          "type": "uint256"
        }
      ],
      "payable": false,
      "stateMutability": "view",
      "type": "function"
    },
    {
      "constant": true,
      "inputs": [],
      "name": "getMyIdx",
      "outputs": [
        {
          "internalType": "uint256",
          "name": "",
          "type": "uint256"
        }
      ],
      "payable": false,
      "stateMutability": "view",
      "type": "function"
    },
    {
      "constant": true,
      "inputs": [],
      "name": "getStoneAmount",
      "outputs": [
        {
          "internalType": "uint256",
          "name": "",
          "type": "uint256"
        }
      ],
      "payable": false,
      "stateMutability": "view",
      "type": "function"
    },
    {
      "constant": true,
      "inputs": [
        {
          "internalType": "uint256",
          "name": "idx",
          "type": "uint256"
        }
      ],
      "name": "getUserPower",
      "outputs": [
        {
          "internalType": "uint256",
          "name": "",
          "type": "uint256"
        }
      ],
      "payable": false,
      "stateMutability": "view",
      "type": "function"
    },
    {
      "constant": true,
      "inputs": [],
      "name": "getWoodAmount",
      "outputs": [
        {
          "internalType": "uint256",
          "name": "",
          "type": "uint256"
        }
      ],
      "payable": false,
      "stateMutability": "view",
      "type": "function"
    },
    {
      "constant": true,
      "inputs": [
        {
          "internalType": "address",
          "name": "",
          "type": "address"
        }
      ],
      "name": "ironOwnerCount",
      "outputs": [
        {
          "internalType": "uint256",
          "name": "",
          "type": "uint256"
        }
      ],
      "payable": false,
      "stateMutability": "view",
      "type": "function"
    },
    {
      "constant": true,
      "inputs": [],
      "name": "kingdomAmount",
      "outputs": [
        {
          "internalType": "uint256",
          "name": "",
          "type": "uint256"
        }
      ],
      "payable": false,
      "stateMutability": "view",
      "type": "function"
    },
    {
      "constant": true,
      "inputs": [
        {
          "internalType": "address",
          "name": "",
          "type": "address"
        }
      ],
      "name": "levelOfSoldier",
      "outputs": [
        {
          "internalType": "uint256",
          "name": "",
          "type": "uint256"
        }
      ],
      "payable": false,
      "stateMutability": "view",
      "type": "function"
    },
    {
      "constant": true,
      "inputs": [],
      "name": "levelUpSoldierTime",
      "outputs": [
        {
          "internalType": "uint256",
          "name": "",
          "type": "uint256"
        }
      ],
      "payable": false,
      "stateMutability": "view",
      "type": "function"
    },
    {
      "constant": true,
      "inputs": [
        {
          "internalType": "address",
          "name": "",
          "type": "address"
        }
      ],
      "name": "numOfSoldier",
      "outputs": [
        {
          "internalType": "uint256",
          "name": "",
          "type": "uint256"
        }
      ],
      "payable": false,
      "stateMutability": "view",
      "type": "function"
    },
    {
      "constant": true,
      "inputs": [
        {
          "internalType": "address",
          "name": "",
          "type": "address"
        }
      ],
      "name": "ownerCastleCount",
      "outputs": [
        {
          "internalType": "uint256",
          "name": "",
          "type": "uint256"
        }
      ],
      "payable": false,
      "stateMutability": "view",
      "type": "function"
    },
    {
      "constant": true,
      "inputs": [
        {
          "internalType": "address",
          "name": "",
          "type": "address"
        }
      ],
      "name": "ownerCreateSoldierTime",
      "outputs": [
        {
          "internalType": "uint256",
          "name": "",
          "type": "uint256"
        }
      ],
      "payable": false,
      "stateMutability": "view",
      "type": "function"
    },
    {
      "constant": true,
      "inputs": [
        {
          "internalType": "address",
          "name": "",
          "type": "address"
        }
      ],
      "name": "ownerStartCreateTime",
      "outputs": [
        {
          "internalType": "uint256",
          "name": "",
          "type": "uint256"
        }
      ],
      "payable": false,
      "stateMutability": "view",
      "type": "function"
    },
    {
      "constant": true,
      "inputs": [
        {
          "internalType": "address",
          "name": "",
          "type": "address"
        }
      ],
      "name": "ownerStartLevelUpTime",
      "outputs": [
        {
          "internalType": "uint256",
          "name": "",
          "type": "uint256"
        }
      ],
      "payable": false,
      "stateMutability": "view",
      "type": "function"
    },
    {
      "constant": true,
      "inputs": [
        {
          "internalType": "address",
          "name": "",
          "type": "address"
        }
      ],
      "name": "power",
      "outputs": [
        {
          "internalType": "uint256",
          "name": "",
          "type": "uint256"
        }
      ],
      "payable": false,
      "stateMutability": "view",
      "type": "function"
    },
    {
      "constant": true,
      "inputs": [
        {
          "internalType": "address",
          "name": "",
          "type": "address"
        }
      ],
      "name": "stoneOwnerCount",
      "outputs": [
        {
          "internalType": "uint256",
          "name": "",
          "type": "uint256"
        }
      ],
      "payable": false,
      "stateMutability": "view",
      "type": "function"
    },
    {
      "constant": true,
      "inputs": [
        {
          "internalType": "address",
          "name": "",
          "type": "address"
        }
      ],
      "name": "woodOwnerCount",
      "outputs": [
        {
          "internalType": "uint256",
          "name": "",
          "type": "uint256"
        }
      ],
      "payable": false,
      "stateMutability": "view",
      "type": "function"
    },
    {
      "constant": true,
      "inputs": [
        {
          "internalType": "address",
          "name": "_owner",
          "type": "address"
        }
      ],
      "name": "getSoldierAmount",
      "outputs": [
        {
          "internalType": "uint256",
          "name": "",
          "type": "uint256"
        }
      ],
      "payable": false,
      "stateMutability": "view",
      "type": "function"
    },
    {
      "constant": false,
      "inputs": [
        {
          "internalType": "uint256",
          "name": "_ownerId",
          "type": "uint256"
        },
        {
          "internalType": "uint256",
          "name": "_attackedCastleId",
          "type": "uint256"
        }
      ],
      "name": "attack",
      "outputs": [],
      "payable": false,
      "stateMutability": "nonpayable",
      "type": "function"
    }
  ],
  "bytecode": "0x60806040526010600955600954600a0a600a55600a601055600a60115534801561002857600080fd5b50611481806100386000396000f3fe608060405234801561001057600080fd5b50600436106101a95760003560e01c8063867b84e2116100f9578063e428afa011610097578063f4ab27f011610071578063f4ab27f01461075a578063f7a24660146107c8578063fd8ccf27146107e6578063ff4581f114610804576101a9565b8063e428afa014610652578063e5b285f2146106aa578063ef78b6dc14610702576101a9565b8063a4b1919d116100d3578063a4b1919d14610562578063c8b4eeff146105ba578063ccf358a4146105fc578063e1fa76381461061a576101a9565b8063867b84e2146104905780638919a9ca146104e85780639073af811461050a576101a9565b8063503371a511610166578063623e9ba611610140578063623e9ba6146103de578063789630be146103fc5780637e2b875b1461041a5780638226e53014610438576101a9565b8063503371a5146103105780635697b21a146103685780635ad60993146103c0576101a9565b80630c2b6904146101ae578063194c717b146102065780631c980beb14610224578063290585361461024257806346125f841461029a57806347dcb51c146102f2575b600080fd5b6101f0600480360360208110156101c457600080fd5b81019080803573ffffffffffffffffffffffffffffffffffffffff16906020019092919050505061085c565b6040518082815260200191505060405180910390f35b61020e610874565b6040518082815260200191505060405180910390f35b61022c61087a565b6040518082815260200191505060405180910390f35b6102846004803603602081101561025857600080fd5b81019080803573ffffffffffffffffffffffffffffffffffffffff1690602001909291905050506108c0565b6040518082815260200191505060405180910390f35b6102dc600480360360208110156102b057600080fd5b81019080803573ffffffffffffffffffffffffffffffffffffffff1690602001909291905050506108d8565b6040518082815260200191505060405180910390f35b6102fa6108f0565b6040518082815260200191505060405180910390f35b6103526004803603602081101561032657600080fd5b81019080803573ffffffffffffffffffffffffffffffffffffffff1690602001909291905050506108f6565b6040518082815260200191505060405180910390f35b6103aa6004803603602081101561037e57600080fd5b81019080803573ffffffffffffffffffffffffffffffffffffffff16906020019092919050505061090e565b6040518082815260200191505060405180910390f35b6103c8610926565b6040518082815260200191505060405180910390f35b6103e661096d565b6040518082815260200191505060405180910390f35b6104046109b4565b6040518082815260200191505060405180910390f35b610422610a4b565b6040518082815260200191505060405180910390f35b61047a6004803603602081101561044e57600080fd5b81019080803573ffffffffffffffffffffffffffffffffffffffff169060200190929190505050610a55565b6040518082815260200191505060405180910390f35b6104d2600480360360208110156104a657600080fd5b81019080803573ffffffffffffffffffffffffffffffffffffffff169060200190929190505050610a6d565b6040518082815260200191505060405180910390f35b6104f0610a85565b604051808215151515815260200191505060405180910390f35b61054c6004803603602081101561052057600080fd5b81019080803573ffffffffffffffffffffffffffffffffffffffff169060200190929190505050610adf565b6040518082815260200191505060405180910390f35b6105a46004803603602081101561057857600080fd5b81019080803573ffffffffffffffffffffffffffffffffffffffff169060200190929190505050610af7565b6040518082815260200191505060405180910390f35b6105e6600480360360208110156105d057600080fd5b8101908080359060200190929190505050610b40565b6040518082815260200191505060405180910390f35b610604610bd0565b6040518082815260200191505060405180910390f35b6106506004803603604081101561063057600080fd5b810190808035906020019092919080359060200190929190505050610c17565b005b6106946004803603602081101561066857600080fd5b81019080803573ffffffffffffffffffffffffffffffffffffffff169060200190929190505050610d02565b6040518082815260200191505060405180910390f35b6106ec600480360360208110156106c057600080fd5b81019080803573ffffffffffffffffffffffffffffffffffffffff169060200190929190505050610d1a565b6040518082815260200191505060405180910390f35b6107446004803603602081101561071857600080fd5b81019080803573ffffffffffffffffffffffffffffffffffffffff169060200190929190505050610d32565b6040518082815260200191505060405180910390f35b6107866004803603602081101561077057600080fd5b8101908080359060200190929190505050610d4a565b604051808273ffffffffffffffffffffffffffffffffffffffff1673ffffffffffffffffffffffffffffffffffffffff16815260200191505060405180910390f35b6107d0610d7d565b6040518082815260200191505060405180910390f35b6107ee610d83565b6040518082815260200191505060405180910390f35b6108466004803603602081101561081a57600080fd5b81019080803573ffffffffffffffffffffffffffffffffffffffff169060200190929190505050610dca565b6040518082815260200191505060405180910390f35b600e6020528060005260406000206000915090505481565b60065481565b60008060003373ffffffffffffffffffffffffffffffffffffffff1673ffffffffffffffffffffffffffffffffffffffff16815260200190815260200160002054905090565b600c6020528060005260406000206000915090505481565b60086020528060005260406000206000915090505481565b60105481565b60056020528060005260406000206000915090505481565b600b6020528060005260406000206000915090505481565b6000600260003373ffffffffffffffffffffffffffffffffffffffff1673ffffffffffffffffffffffffffffffffffffffff16815260200190815260200160002054905090565b6000600360003373ffffffffffffffffffffffffffffffffffffffff1673ffffffffffffffffffffffffffffffffffffffff16815260200190815260200160002054905090565b600080600090505b600654811015610a41573373ffffffffffffffffffffffffffffffffffffffff166007600083815260200190815260200160002060009054906101000a900473ffffffffffffffffffffffffffffffffffffffff1673ffffffffffffffffffffffffffffffffffffffff161415610a365780915050610a48565b8060010190506109bc565b5060065490505b90565b6000600654905090565b60016020528060005260406000206000915090505481565b60046020528060005260406000206000915090505481565b600080600860003373ffffffffffffffffffffffffffffffffffffffff1673ffffffffffffffffffffffffffffffffffffffff168152602001908152602001600020541115610ad75760019050610adc565b600090505b90565b600d6020528060005260406000206000915090505481565b6000600b60008373ffffffffffffffffffffffffffffffffffffffff1673ffffffffffffffffffffffffffffffffffffffff168152602001908152602001600020549050919050565b6000600654821015610bc657600560006007600085815260200190815260200160002060009054906101000a900473ffffffffffffffffffffffffffffffffffffffff1673ffffffffffffffffffffffffffffffffffffffff1673ffffffffffffffffffffffffffffffffffffffff168152602001908152602001600020549050610bcb565b600090505b919050565b6000600460003373ffffffffffffffffffffffffffffffffffffffff1673ffffffffffffffffffffffffffffffffffffffff16815260200190815260200160002054905090565b6007600083815260200190815260200160002060009054906101000a900473ffffffffffffffffffffffffffffffffffffffff1673ffffffffffffffffffffffffffffffffffffffff163373ffffffffffffffffffffffffffffffffffffffff1614610c8257600080fd5b60006007600084815260200190815260200160002060009054906101000a900473ffffffffffffffffffffffffffffffffffffffff16905060006007600084815260200190815260200160002060009054906101000a900473ffffffffffffffffffffffffffffffffffffffff169050610cfc8282610de2565b50505050565b60006020528060005260406000206000915090505481565b60026020528060005260406000206000915090505481565b60036020528060005260406000206000915090505481565b60076020528060005260406000206000915054906101000a900473ffffffffffffffffffffffffffffffffffffffff1681565b60115481565b6000600160003373ffffffffffffffffffffffffffffffffffffffff1673ffffffffffffffffffffffffffffffffffffffff16815260200190815260200160002054905090565b600f6020528060005260406000206000915090505481565b600080600560008473ffffffffffffffffffffffffffffffffffffffff1673ffffffffffffffffffffffffffffffffffffffff16815260200190815260200160002054600560008673ffffffffffffffffffffffffffffffffffffffff1673ffffffffffffffffffffffffffffffffffffffff168152602001908152602001600020541115610e7657839150829050610e7d565b8291508390505b60056004600260008473ffffffffffffffffffffffffffffffffffffffff1673ffffffffffffffffffffffffffffffffffffffff168152602001908152602001600020540281610ec957fe5b04600260008473ffffffffffffffffffffffffffffffffffffffff1673ffffffffffffffffffffffffffffffffffffffff1681526020019081526020016000205401600260008473ffffffffffffffffffffffffffffffffffffffff1673ffffffffffffffffffffffffffffffffffffffff1681526020019081526020016000208190555060056004600360008473ffffffffffffffffffffffffffffffffffffffff1673ffffffffffffffffffffffffffffffffffffffff168152602001908152602001600020540281610f9a57fe5b04600360008473ffffffffffffffffffffffffffffffffffffffff1673ffffffffffffffffffffffffffffffffffffffff1681526020019081526020016000205401600360008473ffffffffffffffffffffffffffffffffffffffff1673ffffffffffffffffffffffffffffffffffffffff1681526020019081526020016000208190555060056004600260008473ffffffffffffffffffffffffffffffffffffffff1673ffffffffffffffffffffffffffffffffffffffff16815260200190815260200160002054028161106b57fe5b04600260008373ffffffffffffffffffffffffffffffffffffffff1673ffffffffffffffffffffffffffffffffffffffff1681526020019081526020016000205403600260008373ffffffffffffffffffffffffffffffffffffffff1673ffffffffffffffffffffffffffffffffffffffff1681526020019081526020016000208190555060056004600360008473ffffffffffffffffffffffffffffffffffffffff1673ffffffffffffffffffffffffffffffffffffffff16815260200190815260200160002054028161113c57fe5b04600360008373ffffffffffffffffffffffffffffffffffffffff1673ffffffffffffffffffffffffffffffffffffffff1681526020019081526020016000205403600360008373ffffffffffffffffffffffffffffffffffffffff1673ffffffffffffffffffffffffffffffffffffffff1681526020019081526020016000208190555060006002600560008473ffffffffffffffffffffffffffffffffffffffff1673ffffffffffffffffffffffffffffffffffffffff168152602001908152602001600020548161120c57fe5b049050600c60008473ffffffffffffffffffffffffffffffffffffffff1673ffffffffffffffffffffffffffffffffffffffff1681526020019081526020016000205481600560008673ffffffffffffffffffffffffffffffffffffffff1673ffffffffffffffffffffffffffffffffffffffff16815260200190815260200160002054038161129857fe5b04600b60008573ffffffffffffffffffffffffffffffffffffffff1673ffffffffffffffffffffffffffffffffffffffff1681526020019081526020016000208190555060056004600b60008573ffffffffffffffffffffffffffffffffffffffff1673ffffffffffffffffffffffffffffffffffffffff16815260200190815260200160002054028161132857fe5b04600b60008473ffffffffffffffffffffffffffffffffffffffff1673ffffffffffffffffffffffffffffffffffffffff1681526020019081526020016000208190555061137583611385565b61137e82611385565b5050505050565b600c60008273ffffffffffffffffffffffffffffffffffffffff1673ffffffffffffffffffffffffffffffffffffffff16815260200190815260200160002054600b60008373ffffffffffffffffffffffffffffffffffffffff1673ffffffffffffffffffffffffffffffffffffffff1681526020019081526020016000205402600560008373ffffffffffffffffffffffffffffffffffffffff1673ffffffffffffffffffffffffffffffffffffffff168152602001908152602001600020819055505056fea265627a7a723158209fb1300db759bfd8e3369a5e6e85649e78f44485d53a2280cd989447c42a261364736f6c63430005100032",
  "source": "pragma solidity >=0.4.21 <0.7.0;\n\nimport \"./Account.sol\";\n\ncontract Soldier is Account {\n    mapping (address => uint) public numOfSoldier;\n\n    mapping (address => uint) public levelOfSoldier;\n\n    mapping (address => uint) public ownerStartCreateTime;\n    mapping (address => uint) public ownerCreateSoldierTime;\n    mapping (address => uint) public ownerStartLevelUpTime;\n    uint public createSoldierTime = 10;\n    uint public levelUpSoldierTime = 10;\n\n\n    function _updatePower(address _owner) internal {\n        power[_owner] = numOfSoldier[_owner] * levelOfSoldier[_owner];\n    }\n\n    function _createSoldier(address _owner, uint number) internal returns(bool) {\n        uint foodCost = (25* levelOfSoldier[_owner] - 5) * number;\n        uint ironCost = (25* levelOfSoldier[_owner] - 5) * number;\n        uint coinCost = (25* levelOfSoldier[_owner] - 5) * number;\n\n        return _cost(_owner, foodCost, uint(0), ironCost, uint(0), coinCost);\n    }\n    \n    function _upgradeSoldier(address _owner) internal returns(bool){\n        uint foodCost = 500* levelOfSoldier[_owner] - 125;\n        uint ironCost = 500* levelOfSoldier[_owner] - 125;\n        uint coinCost = 500* levelOfSoldier[_owner] - 125;\n\n        return _cost(_owner, foodCost, uint(0), ironCost, uint(0), coinCost);\n    }\n\n    function getSoldierAmount(address _owner) public view returns(uint) {\n        return numOfSoldier[_owner];\n    }\n\n    function _fight(address myCastle, address attackedCastle) internal{\n        address winner;\n        address loser;\n\n        if (power[myCastle] > power[attackedCastle]){\n            winner = myCastle;\n            loser = attackedCastle;\n        }\n        else {\n            winner = attackedCastle;\n            loser = myCastle;\n        }\n        \n        foodOwnerCount[winner] = foodOwnerCount[winner] + (foodOwnerCount[loser] * 4/5);\n        // woodOwnerCount[winner] = woodOwnerCount[winner] + (woodOwnerCount[loser] * 4/5);\n        // ironOwnerCount[winner] = ironOwnerCount[winner] + (ironOwnerCount[loser] * 4/5);\n        // stoneOwnerCount[winner] = stoneOwnerCount[winner] + (stoneOwnerCount[loser] * 4/5);\n        coinOwnerCount[winner] = coinOwnerCount[winner] + (coinOwnerCount[loser] * 4/5);\n        foodOwnerCount[loser] = foodOwnerCount[loser] - (foodOwnerCount[loser] * 4/5);\n        // woodOwnerCount[loser] = woodOwnerCount[loser] - (woodOwnerCount[loser] * 4/5);\n        // ironOwnerCount[loser] = ironOwnerCount[loser] - (ironOwnerCount[loser] * 4/5);\n        // stoneOwnerCount[loser] = stoneOwnerCount[loser] - (stoneOwnerCount[loser] * 4/5);\n        coinOwnerCount[loser] = coinOwnerCount[loser] - (coinOwnerCount[loser] * 4/5);\n\n        uint winnerPowerLose = power[loser] / 2;\n\n        numOfSoldier[winner] = (power[winner] - winnerPowerLose) / levelOfSoldier[winner];\n\n        numOfSoldier[loser] = numOfSoldier[loser] * 4 / 5;\n\n        _updatePower(winner);\n        _updatePower(loser);\n    }\n\n    function attack(uint _ownerId, uint _attackedCastleId) public {\n        require(msg.sender == castleToOwner[_ownerId]);\n        address myCastle = castleToOwner[_ownerId];\n        address attackedCastle = castleToOwner[_attackedCastleId];\n        _fight(myCastle, attackedCastle);\n    }\n}",
  "sourcePath": "/Users/cyl/Downloads/NmlabFinal-main/contracts/Soldier.sol",
  "compiler": {
    "name": "solc",
    "version": "0.5.16+commit.9c3226ce.Emscripten.clang"
  },
  "schemaVersion": "3.4.1",
  "updatedAt": "2021-05-26T14:22:57.853Z",
  "devdoc": {
    "methods": {}
  },
  "userdoc": {
    "methods": {}
  }
}