{
  "contractName": "Soldier",
  "abi": [
    {
      "inputs": [
        {
          "internalType": "address",
          "name": "_account_address",
          "type": "address"
        }
      ],
      "payable": false,
      "stateMutability": "nonpayable",
      "type": "constructor"
    },
    {
      "constant": true,
      "inputs": [],
      "name": "UpgradeSoldierTime",
      "outputs": [
        {
          "internalType": "uint256",
          "name": "",
          "type": "uint256"
        }
      ],
      "payable": false,
      "stateMutability": "view",
      "type": "function"
    },
    {
      "constant": true,
      "inputs": [],
      "name": "createSoldierTime",
      "outputs": [
        {
          "internalType": "uint256",
          "name": "",
          "type": "uint256"
        }
      ],
      "payable": false,
      "stateMutability": "view",
      "type": "function"
    },
    {
      "constant": true,
      "inputs": [
        {
          "internalType": "address",
          "name": "",
          "type": "address"
        }
      ],
      "name": "levelOfSoldier",
      "outputs": [
        {
          "internalType": "uint256",
          "name": "",
          "type": "uint256"
        }
      ],
      "payable": false,
      "stateMutability": "view",
      "type": "function"
    },
    {
      "constant": true,
      "inputs": [
        {
          "internalType": "address",
          "name": "",
          "type": "address"
        }
      ],
      "name": "numOfSoldier",
      "outputs": [
        {
          "internalType": "uint256",
          "name": "",
          "type": "uint256"
        }
      ],
      "payable": false,
      "stateMutability": "view",
      "type": "function"
    },
    {
      "constant": true,
      "inputs": [
        {
          "internalType": "address",
          "name": "",
          "type": "address"
        }
      ],
      "name": "ownerCreateSoldierTime",
      "outputs": [
        {
          "internalType": "uint256",
          "name": "",
          "type": "uint256"
        }
      ],
      "payable": false,
      "stateMutability": "view",
      "type": "function"
    },
    {
      "constant": true,
      "inputs": [
        {
          "internalType": "address",
          "name": "",
          "type": "address"
        }
      ],
      "name": "ownerStartCreateTime",
      "outputs": [
        {
          "internalType": "uint256",
          "name": "",
          "type": "uint256"
        }
      ],
      "payable": false,
      "stateMutability": "view",
      "type": "function"
    },
    {
      "constant": true,
      "inputs": [
        {
          "internalType": "address",
          "name": "",
          "type": "address"
        }
      ],
      "name": "ownerStartUpgradeTime",
      "outputs": [
        {
          "internalType": "uint256",
          "name": "",
          "type": "uint256"
        }
      ],
      "payable": false,
      "stateMutability": "view",
      "type": "function"
    },
    {
      "constant": true,
      "inputs": [
        {
          "internalType": "address",
          "name": "",
          "type": "address"
        }
      ],
      "name": "ownerUpgradeSoldierTime",
      "outputs": [
        {
          "internalType": "uint256",
          "name": "",
          "type": "uint256"
        }
      ],
      "payable": false,
      "stateMutability": "view",
      "type": "function"
    },
    {
      "constant": true,
      "inputs": [],
      "name": "soldierArmour",
      "outputs": [
        {
          "internalType": "uint256",
          "name": "",
          "type": "uint256"
        }
      ],
      "payable": false,
      "stateMutability": "view",
      "type": "function"
    },
    {
      "constant": true,
      "inputs": [],
      "name": "soldierCapacity",
      "outputs": [
        {
          "internalType": "uint256",
          "name": "",
          "type": "uint256"
        }
      ],
      "payable": false,
      "stateMutability": "view",
      "type": "function"
    },
    {
      "constant": true,
      "inputs": [],
      "name": "soldierFrequency",
      "outputs": [
        {
          "internalType": "uint256",
          "name": "",
          "type": "uint256"
        }
      ],
      "payable": false,
      "stateMutability": "view",
      "type": "function"
    },
    {
      "constant": true,
      "inputs": [],
      "name": "soldierHealth",
      "outputs": [
        {
          "internalType": "uint256",
          "name": "",
          "type": "uint256"
        }
      ],
      "payable": false,
      "stateMutability": "view",
      "type": "function"
    },
    {
      "constant": true,
      "inputs": [],
      "name": "soldierPower",
      "outputs": [
        {
          "internalType": "uint256",
          "name": "",
          "type": "uint256"
        }
      ],
      "payable": false,
      "stateMutability": "view",
      "type": "function"
    },
    {
      "constant": true,
      "inputs": [],
      "name": "soldierSpeed",
      "outputs": [
        {
          "internalType": "uint256",
          "name": "",
          "type": "uint256"
        }
      ],
      "payable": false,
      "stateMutability": "view",
      "type": "function"
    },
    {
      "constant": false,
      "inputs": [
        {
          "internalType": "address",
          "name": "_owner",
          "type": "address"
        },
        {
          "internalType": "uint256",
          "name": "value",
          "type": "uint256"
        }
      ],
      "name": "setSoldierLevel",
      "outputs": [],
      "payable": false,
      "stateMutability": "nonpayable",
      "type": "function"
    },
    {
      "constant": false,
      "inputs": [
        {
          "internalType": "address",
          "name": "_owner",
          "type": "address"
        },
        {
          "internalType": "uint256",
          "name": "value",
          "type": "uint256"
        }
      ],
      "name": "setStartCreateTime",
      "outputs": [],
      "payable": false,
      "stateMutability": "nonpayable",
      "type": "function"
    },
    {
      "constant": false,
      "inputs": [
        {
          "internalType": "address",
          "name": "_owner",
          "type": "address"
        },
        {
          "internalType": "uint256",
          "name": "value",
          "type": "uint256"
        }
      ],
      "name": "setCreateSoldierTime",
      "outputs": [],
      "payable": false,
      "stateMutability": "nonpayable",
      "type": "function"
    },
    {
      "constant": false,
      "inputs": [
        {
          "internalType": "address",
          "name": "_owner",
          "type": "address"
        },
        {
          "internalType": "uint256",
          "name": "value",
          "type": "uint256"
        }
      ],
      "name": "setStartUpgradeTime",
      "outputs": [],
      "payable": false,
      "stateMutability": "nonpayable",
      "type": "function"
    },
    {
      "constant": false,
      "inputs": [
        {
          "internalType": "address",
          "name": "_owner",
          "type": "address"
        },
        {
          "internalType": "uint256",
          "name": "value",
          "type": "uint256"
        }
      ],
      "name": "setUpgradeSoldierTime",
      "outputs": [],
      "payable": false,
      "stateMutability": "nonpayable",
      "type": "function"
    },
    {
      "constant": false,
      "inputs": [
        {
          "internalType": "address",
          "name": "_owner",
          "type": "address"
        },
        {
          "internalType": "uint256",
          "name": "value",
          "type": "uint256"
        }
      ],
      "name": "setNumOfSoldier",
      "outputs": [],
      "payable": false,
      "stateMutability": "nonpayable",
      "type": "function"
    },
    {
      "constant": false,
      "inputs": [
        {
          "internalType": "address",
          "name": "_owner",
          "type": "address"
        }
      ],
      "name": "_updatePower",
      "outputs": [],
      "payable": false,
      "stateMutability": "nonpayable",
      "type": "function"
    },
    {
      "constant": false,
      "inputs": [
        {
          "internalType": "address",
          "name": "_owner",
          "type": "address"
        },
        {
          "internalType": "uint256",
          "name": "number",
          "type": "uint256"
        }
      ],
      "name": "_createSoldier",
      "outputs": [
        {
          "internalType": "bool",
          "name": "",
          "type": "bool"
        }
      ],
      "payable": false,
      "stateMutability": "nonpayable",
      "type": "function"
    },
    {
      "constant": false,
      "inputs": [
        {
          "internalType": "address",
          "name": "_owner",
          "type": "address"
        }
      ],
      "name": "_UpgradeSoldier",
      "outputs": [
        {
          "internalType": "bool",
          "name": "",
          "type": "bool"
        }
      ],
      "payable": false,
      "stateMutability": "nonpayable",
      "type": "function"
    },
    {
      "constant": true,
      "inputs": [
        {
          "internalType": "address",
          "name": "_owner",
          "type": "address"
        }
      ],
      "name": "getSoldierAmount",
      "outputs": [
        {
          "internalType": "uint256",
          "name": "",
          "type": "uint256"
        }
      ],
      "payable": false,
      "stateMutability": "view",
      "type": "function"
    },
    {
      "constant": false,
      "inputs": [
        {
          "internalType": "uint256",
          "name": "_ownerId",
          "type": "uint256"
        },
        {
          "internalType": "uint256",
          "name": "_attackedCastleId",
          "type": "uint256"
        }
      ],
      "name": "attack",
      "outputs": [],
      "payable": false,
      "stateMutability": "nonpayable",
      "type": "function"
    }
  ],
  "bytecode": "0x6080604052600a600755600a60085560036009556003600a556002600b556001600c5560c8600d556003600e5534801561003857600080fd5b506040516123603803806123608339818101604052602081101561005b57600080fd5b8101908080519060200190929190505050806000806101000a81548173ffffffffffffffffffffffffffffffffffffffff021916908373ffffffffffffffffffffffffffffffffffffffff160217905550506122a4806100bc6000396000f3fe608060405234801561001057600080fd5b50600436106101735760003560e01c80636f2fdae5116100de5780639073af8111610097578063a964322011610071578063a964322014610712578063c75fbb5614610730578063e1fa76381461078c578063e9bbed5a146107c457610173565b80639073af8114610644578063a4b1919d1461069c578063a706be81146106f457610173565b80636f2fdae5146105005780636f58051b1461051e5780637e23dbd11461056c57806383fba3be146105ba5780638e3c8192146105d85780638ed97202146105f657610173565b80632f47faeb116101305780632f47faeb146103745780633dabc4df146103b857806347dcb51c14610406578063551502d4146104245780635697b21a1461048a5780636ee9b976146104e257610173565b80630c2b6904146101785780630f03c43d146101d0578063133068811461021e57806322e4b6fc146102765780632429042d146102c4578063290585361461031c575b600080fd5b6101ba6004803603602081101561018e57600080fd5b81019080803573ffffffffffffffffffffffffffffffffffffffff1690602001909291905050506107e2565b6040518082815260200191505060405180910390f35b61021c600480360360408110156101e657600080fd5b81019080803573ffffffffffffffffffffffffffffffffffffffff169060200190929190803590602001909291905050506107fa565b005b6102606004803603602081101561023457600080fd5b81019080803573ffffffffffffffffffffffffffffffffffffffff169060200190929190505050610842565b6040518082815260200191505060405180910390f35b6102c26004803603604081101561028c57600080fd5b81019080803573ffffffffffffffffffffffffffffffffffffffff1690602001909291908035906020019092919050505061085a565b005b610306600480360360208110156102da57600080fd5b81019080803573ffffffffffffffffffffffffffffffffffffffff1690602001909291905050506108a2565b6040518082815260200191505060405180910390f35b61035e6004803603602081101561033257600080fd5b81019080803573ffffffffffffffffffffffffffffffffffffffff1690602001909291905050506108ba565b6040518082815260200191505060405180910390f35b6103b66004803603602081101561038a57600080fd5b81019080803573ffffffffffffffffffffffffffffffffffffffff1690602001909291905050506108d2565b005b610404600480360360408110156103ce57600080fd5b81019080803573ffffffffffffffffffffffffffffffffffffffff16906020019092919080359060200190929190505050610b5d565b005b61040e610ba5565b6040518082815260200191505060405180910390f35b6104706004803603604081101561043a57600080fd5b81019080803573ffffffffffffffffffffffffffffffffffffffff16906020019092919080359060200190929190505050610bab565b604051808215151515815260200191505060405180910390f35b6104cc600480360360208110156104a057600080fd5b81019080803573ffffffffffffffffffffffffffffffffffffffff169060200190929190505050610da0565b6040518082815260200191505060405180910390f35b6104ea610db8565b6040518082815260200191505060405180910390f35b610508610dbe565b6040518082815260200191505060405180910390f35b61056a6004803603604081101561053457600080fd5b81019080803573ffffffffffffffffffffffffffffffffffffffff16906020019092919080359060200190929190505050610dc4565b005b6105b86004803603604081101561058257600080fd5b81019080803573ffffffffffffffffffffffffffffffffffffffff16906020019092919080359060200190929190505050610e0c565b005b6105c2610e54565b6040518082815260200191505060405180910390f35b6105e0610e5a565b6040518082815260200191505060405180910390f35b6106426004803603604081101561060c57600080fd5b81019080803573ffffffffffffffffffffffffffffffffffffffff16906020019092919080359060200190929190505050610e60565b005b6106866004803603602081101561065a57600080fd5b81019080803573ffffffffffffffffffffffffffffffffffffffff169060200190929190505050610ea8565b6040518082815260200191505060405180910390f35b6106de600480360360208110156106b257600080fd5b81019080803573ffffffffffffffffffffffffffffffffffffffff169060200190929190505050610ec0565b6040518082815260200191505060405180910390f35b6106fc610f09565b6040518082815260200191505060405180910390f35b61071a610f0f565b6040518082815260200191505060405180910390f35b6107726004803603602081101561074657600080fd5b81019080803573ffffffffffffffffffffffffffffffffffffffff169060200190929190505050610f15565b604051808215151515815260200191505060405180910390f35b6107c2600480360360408110156107a257600080fd5b810190808035906020019092919080359060200190929190505050611154565b005b6107cc6113aa565b6040518082815260200191505060405180910390f35b60046020528060005260406000206000915090505481565b80600560008473ffffffffffffffffffffffffffffffffffffffff1673ffffffffffffffffffffffffffffffffffffffff168152602001908152602001600020819055505050565b60056020528060005260406000206000915090505481565b80600660008473ffffffffffffffffffffffffffffffffffffffff1673ffffffffffffffffffffffffffffffffffffffff168152602001908152602001600020819055505050565b60066020528060005260406000206000915090505481565b60026020528060005260406000206000915090505481565b6000809054906101000a900473ffffffffffffffffffffffffffffffffffffffff1673ffffffffffffffffffffffffffffffffffffffff166388adb7e082600a54600260008673ffffffffffffffffffffffffffffffffffffffff1673ffffffffffffffffffffffffffffffffffffffff16815260200190815260200160002054600160008773ffffffffffffffffffffffffffffffffffffffff1673ffffffffffffffffffffffffffffffffffffffff1681526020019081526020016000205402026040518363ffffffff1660e01b8152600401808373ffffffffffffffffffffffffffffffffffffffff1673ffffffffffffffffffffffffffffffffffffffff16815260200182815260200192505050600060405180830381600087803b1580156109fe57600080fd5b505af1158015610a12573d6000803e3d6000fd5b505050506000809054906101000a900473ffffffffffffffffffffffffffffffffffffffff1673ffffffffffffffffffffffffffffffffffffffff1663a50316ec82600954600260008673ffffffffffffffffffffffffffffffffffffffff1673ffffffffffffffffffffffffffffffffffffffff16815260200190815260200160002054600160008773ffffffffffffffffffffffffffffffffffffffff1673ffffffffffffffffffffffffffffffffffffffff1681526020019081526020016000205402026040518363ffffffff1660e01b8152600401808373ffffffffffffffffffffffffffffffffffffffff1673ffffffffffffffffffffffffffffffffffffffff16815260200182815260200192505050600060405180830381600087803b158015610b4257600080fd5b505af1158015610b56573d6000803e3d6000fd5b5050505050565b80600160008473ffffffffffffffffffffffffffffffffffffffff1673ffffffffffffffffffffffffffffffffffffffff168152602001908152602001600020819055505050565b60075481565b600080826005600260008773ffffffffffffffffffffffffffffffffffffffff1673ffffffffffffffffffffffffffffffffffffffff16815260200190815260200160002054601902030290506000836005600260008873ffffffffffffffffffffffffffffffffffffffff1673ffffffffffffffffffffffffffffffffffffffff16815260200190815260200160002054601902030290506000846005600260008973ffffffffffffffffffffffffffffffffffffffff1673ffffffffffffffffffffffffffffffffffffffff16815260200190815260200160002054601902030290506000809054906101000a900473ffffffffffffffffffffffffffffffffffffffff1673ffffffffffffffffffffffffffffffffffffffff16631e9ac0bf87856000866000876040518763ffffffff1660e01b8152600401808773ffffffffffffffffffffffffffffffffffffffff1673ffffffffffffffffffffffffffffffffffffffff1681526020018681526020018581526020018481526020018381526020018281526020019650505050505050602060405180830381600087803b158015610d5a57600080fd5b505af1158015610d6e573d6000803e3d6000fd5b505050506040513d6020811015610d8457600080fd5b8101908080519060200190929190505050935050505092915050565b60016020528060005260406000206000915090505481565b600b5481565b60085481565b80600260008473ffffffffffffffffffffffffffffffffffffffff1673ffffffffffffffffffffffffffffffffffffffff168152602001908152602001600020819055505050565b80600460008473ffffffffffffffffffffffffffffffffffffffff1673ffffffffffffffffffffffffffffffffffffffff168152602001908152602001600020819055505050565b600e5481565b600a5481565b80600360008473ffffffffffffffffffffffffffffffffffffffff1673ffffffffffffffffffffffffffffffffffffffff168152602001908152602001600020819055505050565b60036020528060005260406000206000915090505481565b6000600160008373ffffffffffffffffffffffffffffffffffffffff1673ffffffffffffffffffffffffffffffffffffffff168152602001908152602001600020549050919050565b60095481565b600c5481565b600080607d600260008573ffffffffffffffffffffffffffffffffffffffff1673ffffffffffffffffffffffffffffffffffffffff168152602001908152602001600020546101f4020390506000607d600260008673ffffffffffffffffffffffffffffffffffffffff1673ffffffffffffffffffffffffffffffffffffffff168152602001908152602001600020546101f4020390506000607d600260008773ffffffffffffffffffffffffffffffffffffffff1673ffffffffffffffffffffffffffffffffffffffff168152602001908152602001600020546101f4020390506001600260008773ffffffffffffffffffffffffffffffffffffffff1673ffffffffffffffffffffffffffffffffffffffff168152602001908152602001600020600082825401925050819055506000809054906101000a900473ffffffffffffffffffffffffffffffffffffffff1673ffffffffffffffffffffffffffffffffffffffff16631e9ac0bf86856000866000876040518763ffffffff1660e01b8152600401808773ffffffffffffffffffffffffffffffffffffffff1673ffffffffffffffffffffffffffffffffffffffff1681526020018681526020018581526020018481526020018381526020018281526020019650505050505050602060405180830381600087803b15801561110f57600080fd5b505af1158015611123573d6000803e3d6000fd5b505050506040513d602081101561113957600080fd5b81019080805190602001909291905050509350505050919050565b6000809054906101000a900473ffffffffffffffffffffffffffffffffffffffff1673ffffffffffffffffffffffffffffffffffffffff166383ef9eb1836040518263ffffffff1660e01b81526004018082815260200191505060206040518083038186803b1580156111c657600080fd5b505afa1580156111da573d6000803e3d6000fd5b505050506040513d60208110156111f057600080fd5b810190808051906020019092919050505073ffffffffffffffffffffffffffffffffffffffff163373ffffffffffffffffffffffffffffffffffffffff161461123857600080fd5b60008060009054906101000a900473ffffffffffffffffffffffffffffffffffffffff1673ffffffffffffffffffffffffffffffffffffffff166383ef9eb1846040518263ffffffff1660e01b81526004018082815260200191505060206040518083038186803b1580156112ac57600080fd5b505afa1580156112c0573d6000803e3d6000fd5b505050506040513d60208110156112d657600080fd5b8101908080519060200190929190505050905060008060009054906101000a900473ffffffffffffffffffffffffffffffffffffffff1673ffffffffffffffffffffffffffffffffffffffff166383ef9eb1846040518263ffffffff1660e01b81526004018082815260200191505060206040518083038186803b15801561135d57600080fd5b505afa158015611371573d6000803e3d6000fd5b505050506040513d602081101561138757600080fd5b810190808051906020019092919050505090506113a482826113b0565b50505050565b600d5481565b6000806000809054906101000a900473ffffffffffffffffffffffffffffffffffffffff1673ffffffffffffffffffffffffffffffffffffffff166302931e59846040518263ffffffff1660e01b8152600401808273ffffffffffffffffffffffffffffffffffffffff1673ffffffffffffffffffffffffffffffffffffffff16815260200191505060206040518083038186803b15801561145157600080fd5b505afa158015611465573d6000803e3d6000fd5b505050506040513d602081101561147b57600080fd5b81019080805190602001909291905050506000809054906101000a900473ffffffffffffffffffffffffffffffffffffffff1673ffffffffffffffffffffffffffffffffffffffff166302931e59866040518263ffffffff1660e01b8152600401808273ffffffffffffffffffffffffffffffffffffffff1673ffffffffffffffffffffffffffffffffffffffff16815260200191505060206040518083038186803b15801561152a57600080fd5b505afa15801561153e573d6000803e3d6000fd5b505050506040513d602081101561155457600080fd5b810190808051906020019092919050505011156115765783915082905061157d565b8291508390505b6000809054906101000a900473ffffffffffffffffffffffffffffffffffffffff1673ffffffffffffffffffffffffffffffffffffffff1663af7cd0e583600560046000809054906101000a900473ffffffffffffffffffffffffffffffffffffffff1673ffffffffffffffffffffffffffffffffffffffff166341d42330876040518263ffffffff1660e01b8152600401808273ffffffffffffffffffffffffffffffffffffffff1673ffffffffffffffffffffffffffffffffffffffff16815260200191505060206040518083038186803b15801561165d57600080fd5b505afa158015611671573d6000803e3d6000fd5b505050506040513d602081101561168757600080fd5b810190808051906020019092919050505002816116a057fe5b046000809054906101000a900473ffffffffffffffffffffffffffffffffffffffff1673ffffffffffffffffffffffffffffffffffffffff166341d42330876040518263ffffffff1660e01b8152600401808273ffffffffffffffffffffffffffffffffffffffff1673ffffffffffffffffffffffffffffffffffffffff16815260200191505060206040518083038186803b15801561173f57600080fd5b505afa158015611753573d6000803e3d6000fd5b505050506040513d602081101561176957600080fd5b8101908080519060200190929190505050016040518363ffffffff1660e01b8152600401808373ffffffffffffffffffffffffffffffffffffffff1673ffffffffffffffffffffffffffffffffffffffff16815260200182815260200192505050600060405180830381600087803b1580156117e457600080fd5b505af11580156117f8573d6000803e3d6000fd5b505050506000809054906101000a900473ffffffffffffffffffffffffffffffffffffffff1673ffffffffffffffffffffffffffffffffffffffff1663a580af0283600560046000809054906101000a900473ffffffffffffffffffffffffffffffffffffffff1673ffffffffffffffffffffffffffffffffffffffff16636ed82fbb876040518263ffffffff1660e01b8152600401808273ffffffffffffffffffffffffffffffffffffffff1673ffffffffffffffffffffffffffffffffffffffff16815260200191505060206040518083038186803b1580156118dc57600080fd5b505afa1580156118f0573d6000803e3d6000fd5b505050506040513d602081101561190657600080fd5b8101908080519060200190929190505050028161191f57fe5b046000809054906101000a900473ffffffffffffffffffffffffffffffffffffffff1673ffffffffffffffffffffffffffffffffffffffff16636ed82fbb876040518263ffffffff1660e01b8152600401808273ffffffffffffffffffffffffffffffffffffffff1673ffffffffffffffffffffffffffffffffffffffff16815260200191505060206040518083038186803b1580156119be57600080fd5b505afa1580156119d2573d6000803e3d6000fd5b505050506040513d60208110156119e857600080fd5b8101908080519060200190929190505050016040518363ffffffff1660e01b8152600401808373ffffffffffffffffffffffffffffffffffffffff1673ffffffffffffffffffffffffffffffffffffffff16815260200182815260200192505050600060405180830381600087803b158015611a6357600080fd5b505af1158015611a77573d6000803e3d6000fd5b505050506000809054906101000a900473ffffffffffffffffffffffffffffffffffffffff1673ffffffffffffffffffffffffffffffffffffffff1663a580af0282600560046000809054906101000a900473ffffffffffffffffffffffffffffffffffffffff1673ffffffffffffffffffffffffffffffffffffffff16636ed82fbb876040518263ffffffff1660e01b8152600401808273ffffffffffffffffffffffffffffffffffffffff1673ffffffffffffffffffffffffffffffffffffffff16815260200191505060206040518083038186803b158015611b5b57600080fd5b505afa158015611b6f573d6000803e3d6000fd5b505050506040513d6020811015611b8557600080fd5b81019080805190602001909291905050500281611b9e57fe5b046000809054906101000a900473ffffffffffffffffffffffffffffffffffffffff1673ffffffffffffffffffffffffffffffffffffffff16636ed82fbb866040518263ffffffff1660e01b8152600401808273ffffffffffffffffffffffffffffffffffffffff1673ffffffffffffffffffffffffffffffffffffffff16815260200191505060206040518083038186803b158015611c3d57600080fd5b505afa158015611c51573d6000803e3d6000fd5b505050506040513d6020811015611c6757600080fd5b8101908080519060200190929190505050036040518363ffffffff1660e01b8152600401808373ffffffffffffffffffffffffffffffffffffffff1673ffffffffffffffffffffffffffffffffffffffff16815260200182815260200192505050600060405180830381600087803b158015611ce257600080fd5b505af1158015611cf6573d6000803e3d6000fd5b505050506000809054906101000a900473ffffffffffffffffffffffffffffffffffffffff1673ffffffffffffffffffffffffffffffffffffffff1663af7cd0e582600560046000809054906101000a900473ffffffffffffffffffffffffffffffffffffffff1673ffffffffffffffffffffffffffffffffffffffff166341d42330876040518263ffffffff1660e01b8152600401808273ffffffffffffffffffffffffffffffffffffffff1673ffffffffffffffffffffffffffffffffffffffff16815260200191505060206040518083038186803b158015611dda57600080fd5b505afa158015611dee573d6000803e3d6000fd5b505050506040513d6020811015611e0457600080fd5b81019080805190602001909291905050500281611e1d57fe5b046000809054906101000a900473ffffffffffffffffffffffffffffffffffffffff1673ffffffffffffffffffffffffffffffffffffffff166341d42330866040518263ffffffff1660e01b8152600401808273ffffffffffffffffffffffffffffffffffffffff1673ffffffffffffffffffffffffffffffffffffffff16815260200191505060206040518083038186803b158015611ebc57600080fd5b505afa158015611ed0573d6000803e3d6000fd5b505050506040513d6020811015611ee657600080fd5b8101908080519060200190929190505050036040518363ffffffff1660e01b8152600401808373ffffffffffffffffffffffffffffffffffffffff1673ffffffffffffffffffffffffffffffffffffffff16815260200182815260200192505050600060405180830381600087803b158015611f6157600080fd5b505af1158015611f75573d6000803e3d6000fd5b50505050600060026000809054906101000a900473ffffffffffffffffffffffffffffffffffffffff1673ffffffffffffffffffffffffffffffffffffffff166302931e59846040518263ffffffff1660e01b8152600401808273ffffffffffffffffffffffffffffffffffffffff1673ffffffffffffffffffffffffffffffffffffffff16815260200191505060206040518083038186803b15801561201b57600080fd5b505afa15801561202f573d6000803e3d6000fd5b505050506040513d602081101561204557600080fd5b81019080805190602001909291905050508161205d57fe5b049050600260008473ffffffffffffffffffffffffffffffffffffffff1673ffffffffffffffffffffffffffffffffffffffff16815260200190815260200160002054816000809054906101000a900473ffffffffffffffffffffffffffffffffffffffff1673ffffffffffffffffffffffffffffffffffffffff166302931e59866040518263ffffffff1660e01b8152600401808273ffffffffffffffffffffffffffffffffffffffff1673ffffffffffffffffffffffffffffffffffffffff16815260200191505060206040518083038186803b15801561213f57600080fd5b505afa158015612153573d6000803e3d6000fd5b505050506040513d602081101561216957600080fd5b8101908080519060200190929190505050038161218257fe5b04600160008573ffffffffffffffffffffffffffffffffffffffff1673ffffffffffffffffffffffffffffffffffffffff1681526020019081526020016000208190555060056004600160008573ffffffffffffffffffffffffffffffffffffffff1673ffffffffffffffffffffffffffffffffffffffff16815260200190815260200160002054028161221257fe5b04600160008473ffffffffffffffffffffffffffffffffffffffff1673ffffffffffffffffffffffffffffffffffffffff1681526020019081526020016000208190555061225f836108d2565b612268826108d2565b505050505056fea265627a7a72315820408fb0937a199e6522ed2b1821d864e82735abfba3bd185d672b76e76f77507f64736f6c63430005100032",
  "source": "pragma solidity >=0.4.21 <0.7.0;\n\nimport \"./Account.sol\";\n\ncontract Soldier {\n\n    Account accountInstance;\n    constructor(address _account_address) public {\n        accountInstance = Account(_account_address);\n    }\n\n    mapping (address => uint) public numOfSoldier;\n\n    mapping (address => uint) public levelOfSoldier;\n\n    mapping (address => uint) public ownerStartCreateTime;\n    mapping (address => uint) public ownerCreateSoldierTime;\n    mapping (address => uint) public ownerStartUpgradeTime;\n    mapping (address => uint) public ownerUpgradeSoldierTime;\n    uint public createSoldierTime = 10;\n    uint public UpgradeSoldierTime = 10;\n\n    uint public soldierHealth = 3;\n    uint public soldierPower = 3;\n    uint public soldierFrequency = 2;\n    uint public soldierArmour = 1;\n    uint public soldierCapacity = 200;\n    uint public soldierSpeed = 3;\n    \n\n    function setSoldierLevel(address _owner, uint value) public {\n        levelOfSoldier[_owner] = value;\n    }\n\n    function setStartCreateTime(address _owner, uint value) public {\n        ownerStartCreateTime[_owner] = value;\n    }\n\n    function setCreateSoldierTime(address _owner, uint value) public {\n        ownerCreateSoldierTime[_owner] = value;\n    }\n\n    function setStartUpgradeTime(address _owner, uint value) public {\n        ownerStartUpgradeTime[_owner] = value;\n    }\n\n    function setUpgradeSoldierTime(address _owner, uint value) public {\n        ownerUpgradeSoldierTime[_owner] = value;\n    }\n\n    function setNumOfSoldier(address _owner, uint value) public {\n        numOfSoldier[_owner] = value;\n    }\n\n    // function getSoldierStartCreateTime(address _owner) public view return(uint) {\n    //     return ownerStartCreateTime[_owner];\n    // }\n\n\n    function _updatePower(address _owner) public {\n        accountInstance.setUserPower(_owner, numOfSoldier[_owner] * levelOfSoldier[_owner] * soldierPower);\n        accountInstance.setUserHealth(_owner, numOfSoldier[_owner] * levelOfSoldier[_owner] * soldierHealth);\n\n    }\n\n    function _createSoldier(address _owner, uint number) public returns(bool) {\n        uint foodCost = (25* levelOfSoldier[_owner] - 5) * number;\n        uint ironCost = (25* levelOfSoldier[_owner] - 5) * number;\n        uint coinCost = (25* levelOfSoldier[_owner] - 5) * number;\n\n        return accountInstance.cost(_owner, foodCost, uint(0), ironCost, uint(0), coinCost);\n    }\n    \n    function _UpgradeSoldier(address _owner) public returns(bool){\n        uint foodCost = 500* levelOfSoldier[_owner] - 125;\n        uint ironCost = 500* levelOfSoldier[_owner] - 125;\n        uint coinCost = 500* levelOfSoldier[_owner] - 125;\n        levelOfSoldier[_owner] += 1;\n\n        return accountInstance.cost(_owner, foodCost, uint(0), ironCost, uint(0), coinCost);\n    }\n\n    function getSoldierAmount(address _owner) public view returns(uint) {\n        return numOfSoldier[_owner];\n    }\n\n    function _fight(address myCastle, address attackedCastle) internal{\n        address winner;\n        address loser;\n\n        if (accountInstance.getUserPower(myCastle) > accountInstance.getUserPower(attackedCastle)){\n            winner = myCastle;\n            loser = attackedCastle;\n        }\n        else {\n            winner = attackedCastle;\n            loser = myCastle;\n        }\n        \n        accountInstance.setFoodOwnerCount(winner, accountInstance.getFoodOwnerCount(winner) + (accountInstance.getFoodOwnerCount(loser) * 4/5));\n        // woodOwnerCount[winner] = woodOwnerCount[winner] + (woodOwnerCount[loser] * 4/5);\n        // ironOwnerCount[winner] = ironOwnerCount[winner] + (ironOwnerCount[loser] * 4/5);\n        // stoneOwnerCount[winner] = stoneOwnerCount[winner] + (stoneOwnerCount[loser] * 4/5);\n        accountInstance.setCoinOwnerCount(winner, accountInstance.getCoinOwnerCount(winner) + (accountInstance.getCoinOwnerCount(loser) * 4/5));\n        accountInstance.setCoinOwnerCount(loser, accountInstance.getCoinOwnerCount(loser) - (accountInstance.getCoinOwnerCount(loser) * 4/5));\n        accountInstance.setFoodOwnerCount(loser, accountInstance.getFoodOwnerCount(loser) - (accountInstance.getFoodOwnerCount(loser) * 4/5));\n\n        // foodOwnerCount[loser] = foodOwnerCount[loser] - (foodOwnerCount[loser] * 4/5);\n        // woodOwnerCount[loser] = woodOwnerCount[loser] - (woodOwnerCount[loser] * 4/5);\n        // ironOwnerCount[loser] = ironOwnerCount[loser] - (ironOwnerCount[loser] * 4/5);\n        // stoneOwnerCount[loser] = stoneOwnerCount[loser] - (stoneOwnerCount[loser] * 4/5);\n        // coinOwnerCount[loser] = coinOwnerCount[loser] - (coinOwnerCount[loser] * 4/5);\n\n        uint winnerPowerLose = accountInstance.getUserPower(loser)/2;\n\n        numOfSoldier[winner] = (accountInstance.getUserPower(winner) - winnerPowerLose) / levelOfSoldier[winner];\n\n        numOfSoldier[loser] = numOfSoldier[loser] * 4 / 5;\n\n        _updatePower(winner);\n        _updatePower(loser);\n    }\n\n    function attack(uint _ownerId, uint _attackedCastleId) public {\n        require(msg.sender == accountInstance.convertCastleToOwner(_ownerId));\n        address myCastle = accountInstance.convertCastleToOwner(_ownerId);\n        address attackedCastle = accountInstance.convertCastleToOwner(_attackedCastleId);\n        _fight(myCastle, attackedCastle);\n    }\n}",
  "sourcePath": "/Users/seanwang0823/NMLab_Final/contracts/Soldier.sol",
  "compiler": {
    "name": "solc",
    "version": "0.5.16+commit.9c3226ce.Emscripten.clang"
  },
  "schemaVersion": "3.4.0",
  "updatedAt": "2021-06-12T03:10:04.722Z",
  "networkType": "ethereum",
  "devdoc": {
    "methods": {}
  },
  "userdoc": {
    "methods": {}
  }
}