{
  "contractName": "Soldier",
  "abi": [
    {
      "constant": true,
      "inputs": [
        {
          "internalType": "uint256",
          "name": "",
          "type": "uint256"
        }
      ],
      "name": "castleToOwner",
      "outputs": [
        {
          "internalType": "address",
          "name": "",
          "type": "address"
        }
      ],
      "payable": false,
      "stateMutability": "view",
      "type": "function"
    },
    {
      "constant": true,
      "inputs": [],
      "name": "checkUserAddress",
      "outputs": [
        {
          "internalType": "bool",
          "name": "",
          "type": "bool"
        }
      ],
      "payable": false,
      "stateMutability": "view",
      "type": "function"
    },
    {
      "constant": true,
      "inputs": [
        {
          "internalType": "address",
          "name": "",
          "type": "address"
        }
      ],
      "name": "coinOwnerCount",
      "outputs": [
        {
          "internalType": "uint256",
          "name": "",
          "type": "uint256"
        }
      ],
      "payable": false,
      "stateMutability": "view",
      "type": "function"
    },
    {
      "constant": false,
      "inputs": [
        {
          "internalType": "address",
          "name": "_owner",
          "type": "address"
        },
        {
          "internalType": "uint256",
          "name": "food",
          "type": "uint256"
        },
        {
          "internalType": "uint256",
          "name": "wood",
          "type": "uint256"
        },
        {
          "internalType": "uint256",
          "name": "iron",
          "type": "uint256"
        },
        {
          "internalType": "uint256",
          "name": "stone",
          "type": "uint256"
        },
        {
          "internalType": "uint256",
          "name": "coin",
          "type": "uint256"
        }
      ],
      "name": "cost",
      "outputs": [
        {
          "internalType": "bool",
          "name": "",
          "type": "bool"
        }
      ],
      "payable": false,
      "stateMutability": "nonpayable",
      "type": "function"
    },
    {
      "constant": true,
      "inputs": [],
      "name": "createSoldierTime",
      "outputs": [
        {
          "internalType": "uint256",
          "name": "",
          "type": "uint256"
        }
      ],
      "payable": false,
      "stateMutability": "view",
      "type": "function"
    },
    {
      "constant": true,
      "inputs": [
        {
          "internalType": "address",
          "name": "",
          "type": "address"
        }
      ],
      "name": "foodOwnerCount",
      "outputs": [
        {
          "internalType": "uint256",
          "name": "",
          "type": "uint256"
        }
      ],
      "payable": false,
      "stateMutability": "view",
      "type": "function"
    },
    {
      "constant": true,
      "inputs": [],
      "name": "getCoinAmount",
      "outputs": [
        {
          "internalType": "uint256",
          "name": "",
          "type": "uint256"
        }
      ],
      "payable": false,
      "stateMutability": "view",
      "type": "function"
    },
    {
      "constant": true,
      "inputs": [
        {
          "internalType": "address",
          "name": "_owner",
          "type": "address"
        }
      ],
      "name": "getCoinOwnerCount",
      "outputs": [
        {
          "internalType": "uint256",
          "name": "",
          "type": "uint256"
        }
      ],
      "payable": false,
      "stateMutability": "view",
      "type": "function"
    },
    {
      "constant": true,
      "inputs": [],
      "name": "getFoodAmount",
      "outputs": [
        {
          "internalType": "uint256",
          "name": "",
          "type": "uint256"
        }
      ],
      "payable": false,
      "stateMutability": "view",
      "type": "function"
    },
    {
      "constant": true,
      "inputs": [
        {
          "internalType": "address",
          "name": "_owner",
          "type": "address"
        }
      ],
      "name": "getFoodOwnerCount",
      "outputs": [
        {
          "internalType": "uint256",
          "name": "",
          "type": "uint256"
        }
      ],
      "payable": false,
      "stateMutability": "view",
      "type": "function"
    },
    {
      "constant": true,
      "inputs": [],
      "name": "getIronAmount",
      "outputs": [
        {
          "internalType": "uint256",
          "name": "",
          "type": "uint256"
        }
      ],
      "payable": false,
      "stateMutability": "view",
      "type": "function"
    },
    {
      "constant": true,
      "inputs": [
        {
          "internalType": "address",
          "name": "_owner",
          "type": "address"
        }
      ],
      "name": "getIronOwnerCount",
      "outputs": [
        {
          "internalType": "uint256",
          "name": "",
          "type": "uint256"
        }
      ],
      "payable": false,
      "stateMutability": "view",
      "type": "function"
    },
    {
      "constant": true,
      "inputs": [],
      "name": "getKingdomAmount",
      "outputs": [
        {
          "internalType": "uint256",
          "name": "",
          "type": "uint256"
        }
      ],
      "payable": false,
      "stateMutability": "view",
      "type": "function"
    },
    {
      "constant": true,
      "inputs": [],
      "name": "getMyIdx",
      "outputs": [
        {
          "internalType": "uint256",
          "name": "",
          "type": "uint256"
        }
      ],
      "payable": false,
      "stateMutability": "view",
      "type": "function"
    },
    {
      "constant": true,
      "inputs": [],
      "name": "getStoneAmount",
      "outputs": [
        {
          "internalType": "uint256",
          "name": "",
          "type": "uint256"
        }
      ],
      "payable": false,
      "stateMutability": "view",
      "type": "function"
    },
    {
      "constant": true,
      "inputs": [
        {
          "internalType": "address",
          "name": "_owner",
          "type": "address"
        }
      ],
      "name": "getStoneOwnerCount",
      "outputs": [
        {
          "internalType": "uint256",
          "name": "",
          "type": "uint256"
        }
      ],
      "payable": false,
      "stateMutability": "view",
      "type": "function"
    },
    {
      "constant": true,
      "inputs": [
        {
          "internalType": "uint256",
          "name": "idx",
          "type": "uint256"
        }
      ],
      "name": "getUserHealth",
      "outputs": [
        {
          "internalType": "uint256",
          "name": "",
          "type": "uint256"
        }
      ],
      "payable": false,
      "stateMutability": "view",
      "type": "function"
    },
    {
      "constant": true,
      "inputs": [
        {
          "internalType": "uint256",
          "name": "idx",
          "type": "uint256"
        }
      ],
      "name": "getUserPower",
      "outputs": [
        {
          "internalType": "uint256",
          "name": "",
          "type": "uint256"
        }
      ],
      "payable": false,
      "stateMutability": "view",
      "type": "function"
    },
    {
      "constant": true,
      "inputs": [
        {
          "internalType": "uint256",
          "name": "idx",
          "type": "uint256"
        }
      ],
      "name": "getUserSpyPower",
      "outputs": [
        {
          "internalType": "uint256",
          "name": "",
          "type": "uint256"
        }
      ],
      "payable": false,
      "stateMutability": "view",
      "type": "function"
    },
    {
      "constant": true,
      "inputs": [],
      "name": "getWoodAmount",
      "outputs": [
        {
          "internalType": "uint256",
          "name": "",
          "type": "uint256"
        }
      ],
      "payable": false,
      "stateMutability": "view",
      "type": "function"
    },
    {
      "constant": true,
      "inputs": [
        {
          "internalType": "address",
          "name": "_owner",
          "type": "address"
        }
      ],
      "name": "getWoodOwnerCount",
      "outputs": [
        {
          "internalType": "uint256",
          "name": "",
          "type": "uint256"
        }
      ],
      "payable": false,
      "stateMutability": "view",
      "type": "function"
    },
    {
      "constant": true,
      "inputs": [
        {
          "internalType": "address",
          "name": "",
          "type": "address"
        }
      ],
      "name": "health",
      "outputs": [
        {
          "internalType": "uint256",
          "name": "",
          "type": "uint256"
        }
      ],
      "payable": false,
      "stateMutability": "view",
      "type": "function"
    },
    {
      "constant": false,
      "inputs": [
        {
          "internalType": "address",
          "name": "_owner",
          "type": "address"
        }
      ],
      "name": "initializeKingdom",
      "outputs": [],
      "payable": false,
      "stateMutability": "nonpayable",
      "type": "function"
    },
    {
      "constant": true,
      "inputs": [
        {
          "internalType": "address",
          "name": "",
          "type": "address"
        }
      ],
      "name": "ironOwnerCount",
      "outputs": [
        {
          "internalType": "uint256",
          "name": "",
          "type": "uint256"
        }
      ],
      "payable": false,
      "stateMutability": "view",
      "type": "function"
    },
    {
      "constant": true,
      "inputs": [],
      "name": "kingdomAmount",
      "outputs": [
        {
          "internalType": "uint256",
          "name": "",
          "type": "uint256"
        }
      ],
      "payable": false,
      "stateMutability": "view",
      "type": "function"
    },
    {
      "constant": true,
      "inputs": [
        {
          "internalType": "address",
          "name": "",
          "type": "address"
        }
      ],
      "name": "levelOfSoldier",
      "outputs": [
        {
          "internalType": "uint256",
          "name": "",
          "type": "uint256"
        }
      ],
      "payable": false,
      "stateMutability": "view",
      "type": "function"
    },
    {
      "constant": true,
      "inputs": [],
      "name": "levelUpSoldierTime",
      "outputs": [
        {
          "internalType": "uint256",
          "name": "",
          "type": "uint256"
        }
      ],
      "payable": false,
      "stateMutability": "view",
      "type": "function"
    },
    {
      "constant": true,
      "inputs": [
        {
          "internalType": "address",
          "name": "",
          "type": "address"
        }
      ],
      "name": "numOfSoldier",
      "outputs": [
        {
          "internalType": "uint256",
          "name": "",
          "type": "uint256"
        }
      ],
      "payable": false,
      "stateMutability": "view",
      "type": "function"
    },
    {
      "constant": true,
      "inputs": [
        {
          "internalType": "address",
          "name": "",
          "type": "address"
        }
      ],
      "name": "ownerCastleCount",
      "outputs": [
        {
          "internalType": "uint256",
          "name": "",
          "type": "uint256"
        }
      ],
      "payable": false,
      "stateMutability": "view",
      "type": "function"
    },
    {
      "constant": true,
      "inputs": [
        {
          "internalType": "address",
          "name": "",
          "type": "address"
        }
      ],
      "name": "ownerCreateSoldierTime",
      "outputs": [
        {
          "internalType": "uint256",
          "name": "",
          "type": "uint256"
        }
      ],
      "payable": false,
      "stateMutability": "view",
      "type": "function"
    },
    {
      "constant": true,
      "inputs": [
        {
          "internalType": "address",
          "name": "",
          "type": "address"
        }
      ],
      "name": "ownerStartCreateTime",
      "outputs": [
        {
          "internalType": "uint256",
          "name": "",
          "type": "uint256"
        }
      ],
      "payable": false,
      "stateMutability": "view",
      "type": "function"
    },
    {
      "constant": true,
      "inputs": [
        {
          "internalType": "address",
          "name": "",
          "type": "address"
        }
      ],
      "name": "ownerStartLevelUpTime",
      "outputs": [
        {
          "internalType": "uint256",
          "name": "",
          "type": "uint256"
        }
      ],
      "payable": false,
      "stateMutability": "view",
      "type": "function"
    },
    {
      "constant": true,
      "inputs": [
        {
          "internalType": "address",
          "name": "",
          "type": "address"
        }
      ],
      "name": "power",
      "outputs": [
        {
          "internalType": "uint256",
          "name": "",
          "type": "uint256"
        }
      ],
      "payable": false,
      "stateMutability": "view",
      "type": "function"
    },
    {
      "constant": false,
      "inputs": [
        {
          "internalType": "address",
          "name": "_owner",
          "type": "address"
        },
        {
          "internalType": "uint256",
          "name": "value",
          "type": "uint256"
        }
      ],
      "name": "setCoinOwnerCount",
      "outputs": [],
      "payable": false,
      "stateMutability": "nonpayable",
      "type": "function"
    },
    {
      "constant": false,
      "inputs": [
        {
          "internalType": "address",
          "name": "_owner",
          "type": "address"
        },
        {
          "internalType": "uint256",
          "name": "value",
          "type": "uint256"
        }
      ],
      "name": "setFoodOwnerCount",
      "outputs": [],
      "payable": false,
      "stateMutability": "nonpayable",
      "type": "function"
    },
    {
      "constant": false,
      "inputs": [
        {
          "internalType": "address",
          "name": "_owner",
          "type": "address"
        },
        {
          "internalType": "uint256",
          "name": "value",
          "type": "uint256"
        }
      ],
      "name": "setIronOwnerCount",
      "outputs": [],
      "payable": false,
      "stateMutability": "nonpayable",
      "type": "function"
    },
    {
      "constant": false,
      "inputs": [
        {
          "internalType": "address",
          "name": "_owner",
          "type": "address"
        },
        {
          "internalType": "uint256",
          "name": "value",
          "type": "uint256"
        }
      ],
      "name": "setStoneOwnerCount",
      "outputs": [],
      "payable": false,
      "stateMutability": "nonpayable",
      "type": "function"
    },
    {
      "constant": false,
      "inputs": [
        {
          "internalType": "address",
          "name": "_owner",
          "type": "address"
        },
        {
          "internalType": "uint256",
          "name": "value",
          "type": "uint256"
        }
      ],
      "name": "setWoodOwnerCount",
      "outputs": [],
      "payable": false,
      "stateMutability": "nonpayable",
      "type": "function"
    },
    {
      "constant": true,
      "inputs": [],
      "name": "soldierHealth",
      "outputs": [
        {
          "internalType": "uint256",
          "name": "",
          "type": "uint256"
        }
      ],
      "payable": false,
      "stateMutability": "view",
      "type": "function"
    },
    {
      "constant": true,
      "inputs": [],
      "name": "soldierPower",
      "outputs": [
        {
          "internalType": "uint256",
          "name": "",
          "type": "uint256"
        }
      ],
      "payable": false,
      "stateMutability": "view",
      "type": "function"
    },
    {
      "constant": true,
      "inputs": [
        {
          "internalType": "address",
          "name": "",
          "type": "address"
        }
      ],
      "name": "spyPower",
      "outputs": [
        {
          "internalType": "uint256",
          "name": "",
          "type": "uint256"
        }
      ],
      "payable": false,
      "stateMutability": "view",
      "type": "function"
    },
    {
      "constant": true,
      "inputs": [
        {
          "internalType": "address",
          "name": "",
          "type": "address"
        }
      ],
      "name": "stoneOwnerCount",
      "outputs": [
        {
          "internalType": "uint256",
          "name": "",
          "type": "uint256"
        }
      ],
      "payable": false,
      "stateMutability": "view",
      "type": "function"
    },
    {
      "constant": true,
      "inputs": [
        {
          "internalType": "address",
          "name": "",
          "type": "address"
        }
      ],
      "name": "woodOwnerCount",
      "outputs": [
        {
          "internalType": "uint256",
          "name": "",
          "type": "uint256"
        }
      ],
      "payable": false,
      "stateMutability": "view",
      "type": "function"
    },
    {
      "constant": true,
      "inputs": [
        {
          "internalType": "address",
          "name": "_owner",
          "type": "address"
        }
      ],
      "name": "getSoldierAmount",
      "outputs": [
        {
          "internalType": "uint256",
          "name": "",
          "type": "uint256"
        }
      ],
      "payable": false,
      "stateMutability": "view",
      "type": "function"
    },
    {
      "constant": false,
      "inputs": [
        {
          "internalType": "uint256",
          "name": "_ownerId",
          "type": "uint256"
        },
        {
          "internalType": "uint256",
          "name": "_attackedCastleId",
          "type": "uint256"
        }
      ],
      "name": "attack",
      "outputs": [],
      "payable": false,
      "stateMutability": "nonpayable",
      "type": "function"
    }
  ],
  "bytecode": "0x60806040526010600b55600b54600a0a600c55600a601255600a6013556001601455600160155534801561003257600080fd5b50612880806100426000396000f3fe608060405234801561001057600080fd5b506004361061027f5760003560e01c8063867b84e21161015c578063e1fa7638116100ce578063ef78b6dc11610087578063ef78b6dc14610d14578063f064b42b14610d6c578063f4ab27f014610db0578063f7a2466014610e1e578063fd8ccf2714610e3c578063ff4581f114610e5a5761027f565b8063e1fa763814610b2e578063e2d8ebee14610b66578063e428afa014610bbe578063e5b285f214610c16578063e9933a4b14610c6e578063e9df149814610cc65761027f565b8063a4b1919d11610120578063a4b1919d146109bc578063a580af0214610a14578063a706be8114610a62578063af7cd0e514610a80578063c8b4eeff14610ace578063ccf358a414610b105761027f565b8063867b84e2146108745780638919a9ca146108cc5780638e3c8192146108ee5780639073af811461090c5780639e723013146109645761027f565b8063503371a5116101f55780636ed82fbb116101b95780636ed82fbb146106ee5780636f60f1df14610746578063789630be1461079e5780637e2b875b146107bc5780638226e530146107da578063834af9b6146108325761027f565b8063503371a5146105b45780635697b21a1461060c5780635ad6099314610664578063623e9ba61461068257806364afdf07146106a05761027f565b8063323a468611610247578063323a4686146103fe5780633c4265991461044057806341d42330146104985780634454be42146104f057806346125f841461053e57806347dcb51c146105965761027f565b80630c2b690414610284578063194c717b146102dc5780631c980beb146102fa5780631e9ac0bf1461031857806329058536146103a6575b600080fd5b6102c66004803603602081101561029a57600080fd5b81019080803573ffffffffffffffffffffffffffffffffffffffff169060200190929190505050610eb2565b6040518082815260200191505060405180910390f35b6102e4610eca565b6040518082815260200191505060405180910390f35b610302610ed0565b6040518082815260200191505060405180910390f35b61038c600480360360c081101561032e57600080fd5b81019080803573ffffffffffffffffffffffffffffffffffffffff1690602001909291908035906020019092919080359060200190929190803590602001909291908035906020019092919080359060200190929190505050610f16565b604051808215151515815260200191505060405180910390f35b6103e8600480360360208110156103bc57600080fd5b81019080803573ffffffffffffffffffffffffffffffffffffffff16906020019092919050505061138a565b6040518082815260200191505060405180910390f35b61042a6004803603602081101561041457600080fd5b81019080803590602001909291905050506113a2565b6040518082815260200191505060405180910390f35b6104826004803603602081101561045657600080fd5b81019080803573ffffffffffffffffffffffffffffffffffffffff169060200190929190505050611432565b6040518082815260200191505060405180910390f35b6104da600480360360208110156104ae57600080fd5b81019080803573ffffffffffffffffffffffffffffffffffffffff16906020019092919050505061147a565b6040518082815260200191505060405180910390f35b61053c6004803603604081101561050657600080fd5b81019080803573ffffffffffffffffffffffffffffffffffffffff169060200190929190803590602001909291905050506114c3565b005b6105806004803603602081101561055457600080fd5b81019080803573ffffffffffffffffffffffffffffffffffffffff16906020019092919050505061150b565b6040518082815260200191505060405180910390f35b61059e611523565b6040518082815260200191505060405180910390f35b6105f6600480360360208110156105ca57600080fd5b81019080803573ffffffffffffffffffffffffffffffffffffffff169060200190929190505050611529565b6040518082815260200191505060405180910390f35b61064e6004803603602081101561062257600080fd5b81019080803573ffffffffffffffffffffffffffffffffffffffff169060200190929190505050611541565b6040518082815260200191505060405180910390f35b61066c611559565b6040518082815260200191505060405180910390f35b61068a6115a0565b6040518082815260200191505060405180910390f35b6106ec600480360360408110156106b657600080fd5b81019080803573ffffffffffffffffffffffffffffffffffffffff169060200190929190803590602001909291905050506115e7565b005b6107306004803603602081101561070457600080fd5b81019080803573ffffffffffffffffffffffffffffffffffffffff16906020019092919050505061162f565b6040518082815260200191505060405180910390f35b6107886004803603602081101561075c57600080fd5b81019080803573ffffffffffffffffffffffffffffffffffffffff169060200190929190505050611678565b6040518082815260200191505060405180910390f35b6107a66116c1565b6040518082815260200191505060405180910390f35b6107c4611758565b6040518082815260200191505060405180910390f35b61081c600480360360208110156107f057600080fd5b81019080803573ffffffffffffffffffffffffffffffffffffffff169060200190929190505050611762565b6040518082815260200191505060405180910390f35b61085e6004803603602081101561084857600080fd5b810190808035906020019092919050505061177a565b6040518082815260200191505060405180910390f35b6108b66004803603602081101561088a57600080fd5b81019080803573ffffffffffffffffffffffffffffffffffffffff16906020019092919050505061180a565b6040518082815260200191505060405180910390f35b6108d4611822565b604051808215151515815260200191505060405180910390f35b6108f661187c565b6040518082815260200191505060405180910390f35b61094e6004803603602081101561092257600080fd5b81019080803573ffffffffffffffffffffffffffffffffffffffff169060200190929190505050611882565b6040518082815260200191505060405180910390f35b6109a66004803603602081101561097a57600080fd5b81019080803573ffffffffffffffffffffffffffffffffffffffff16906020019092919050505061189a565b6040518082815260200191505060405180910390f35b6109fe600480360360208110156109d257600080fd5b81019080803573ffffffffffffffffffffffffffffffffffffffff1690602001909291905050506118e3565b6040518082815260200191505060405180910390f35b610a6060048036036040811015610a2a57600080fd5b81019080803573ffffffffffffffffffffffffffffffffffffffff1690602001909291908035906020019092919050505061192c565b005b610a6a611974565b6040518082815260200191505060405180910390f35b610acc60048036036040811015610a9657600080fd5b81019080803573ffffffffffffffffffffffffffffffffffffffff1690602001909291908035906020019092919050505061197a565b005b610afa60048036036020811015610ae457600080fd5b81019080803590602001909291905050506119c2565b6040518082815260200191505060405180910390f35b610b18611a52565b6040518082815260200191505060405180910390f35b610b6460048036036040811015610b4457600080fd5b810190808035906020019092919080359060200190929190505050611a99565b005b610ba860048036036020811015610b7c57600080fd5b81019080803573ffffffffffffffffffffffffffffffffffffffff169060200190929190505050611b84565b6040518082815260200191505060405180910390f35b610c0060048036036020811015610bd457600080fd5b81019080803573ffffffffffffffffffffffffffffffffffffffff169060200190929190505050611b9c565b6040518082815260200191505060405180910390f35b610c5860048036036020811015610c2c57600080fd5b81019080803573ffffffffffffffffffffffffffffffffffffffff169060200190929190505050611bb4565b6040518082815260200191505060405180910390f35b610cb060048036036020811015610c8457600080fd5b81019080803573ffffffffffffffffffffffffffffffffffffffff169060200190929190505050611bcc565b6040518082815260200191505060405180910390f35b610d1260048036036040811015610cdc57600080fd5b81019080803573ffffffffffffffffffffffffffffffffffffffff16906020019092919080359060200190929190505050611be4565b005b610d5660048036036020811015610d2a57600080fd5b81019080803573ffffffffffffffffffffffffffffffffffffffff169060200190929190505050611c2b565b6040518082815260200191505060405180910390f35b610dae60048036036020811015610d8257600080fd5b81019080803573ffffffffffffffffffffffffffffffffffffffff169060200190929190505050611c43565b005b610ddc60048036036020811015610dc657600080fd5b8101908080359060200190929190505050611f73565b604051808273ffffffffffffffffffffffffffffffffffffffff1673ffffffffffffffffffffffffffffffffffffffff16815260200191505060405180910390f35b610e26611fa6565b6040518082815260200191505060405180910390f35b610e44611fac565b6040518082815260200191505060405180910390f35b610e9c60048036036020811015610e7057600080fd5b81019080803573ffffffffffffffffffffffffffffffffffffffff169060200190929190505050611ff3565b6040518082815260200191505060405180910390f35b60106020528060005260406000206000915090505481565b60085481565b60008060003373ffffffffffffffffffffffffffffffffffffffff1673ffffffffffffffffffffffffffffffffffffffff16815260200190815260200160002054905090565b600085600260008973ffffffffffffffffffffffffffffffffffffffff1673ffffffffffffffffffffffffffffffffffffffff1681526020019081526020016000205410158015610fa6575084600460008973ffffffffffffffffffffffffffffffffffffffff1673ffffffffffffffffffffffffffffffffffffffff1681526020019081526020016000205410155b8015610ff1575083600160008973ffffffffffffffffffffffffffffffffffffffff1673ffffffffffffffffffffffffffffffffffffffff1681526020019081526020016000205410155b801561103b5750826000808973ffffffffffffffffffffffffffffffffffffffff1673ffffffffffffffffffffffffffffffffffffffff1681526020019081526020016000205410155b8015611086575081600360008973ffffffffffffffffffffffffffffffffffffffff1673ffffffffffffffffffffffffffffffffffffffff1681526020019081526020016000205410155b1561137b576110dd86600260008a73ffffffffffffffffffffffffffffffffffffffff1673ffffffffffffffffffffffffffffffffffffffff1681526020019081526020016000205461200b90919063ffffffff16565b600260008973ffffffffffffffffffffffffffffffffffffffff1673ffffffffffffffffffffffffffffffffffffffff1681526020019081526020016000208190555061117285600460008a73ffffffffffffffffffffffffffffffffffffffff1673ffffffffffffffffffffffffffffffffffffffff1681526020019081526020016000205461200b90919063ffffffff16565b600460008973ffffffffffffffffffffffffffffffffffffffff1673ffffffffffffffffffffffffffffffffffffffff1681526020019081526020016000208190555061120784600160008a73ffffffffffffffffffffffffffffffffffffffff1673ffffffffffffffffffffffffffffffffffffffff1681526020019081526020016000205461200b90919063ffffffff16565b600160008973ffffffffffffffffffffffffffffffffffffffff1673ffffffffffffffffffffffffffffffffffffffff1681526020019081526020016000208190555061129b836000808a73ffffffffffffffffffffffffffffffffffffffff1673ffffffffffffffffffffffffffffffffffffffff1681526020019081526020016000205461200b90919063ffffffff16565b6000808973ffffffffffffffffffffffffffffffffffffffff1673ffffffffffffffffffffffffffffffffffffffff1681526020019081526020016000208190555061132f82600360008a73ffffffffffffffffffffffffffffffffffffffff1673ffffffffffffffffffffffffffffffffffffffff1681526020019081526020016000205461200b90919063ffffffff16565b600360008973ffffffffffffffffffffffffffffffffffffffff1673ffffffffffffffffffffffffffffffffffffffff1681526020019081526020016000208190555060019050611380565b600090505b9695505050505050565b600e6020528060005260406000206000915090505481565b600060085482101561142857600760006009600085815260200190815260200160002060009054906101000a900473ffffffffffffffffffffffffffffffffffffffff1673ffffffffffffffffffffffffffffffffffffffff1673ffffffffffffffffffffffffffffffffffffffff16815260200190815260200160002054905061142d565b600090505b919050565b60008060008373ffffffffffffffffffffffffffffffffffffffff1673ffffffffffffffffffffffffffffffffffffffff168152602001908152602001600020549050919050565b6000600260008373ffffffffffffffffffffffffffffffffffffffff1673ffffffffffffffffffffffffffffffffffffffff168152602001908152602001600020549050919050565b80600160008473ffffffffffffffffffffffffffffffffffffffff1673ffffffffffffffffffffffffffffffffffffffff168152602001908152602001600020819055505050565b600a6020528060005260406000206000915090505481565b60125481565b60056020528060005260406000206000915090505481565b600d6020528060005260406000206000915090505481565b6000600260003373ffffffffffffffffffffffffffffffffffffffff1673ffffffffffffffffffffffffffffffffffffffff16815260200190815260200160002054905090565b6000600360003373ffffffffffffffffffffffffffffffffffffffff1673ffffffffffffffffffffffffffffffffffffffff16815260200190815260200160002054905090565b80600460008473ffffffffffffffffffffffffffffffffffffffff1673ffffffffffffffffffffffffffffffffffffffff168152602001908152602001600020819055505050565b6000600360008373ffffffffffffffffffffffffffffffffffffffff1673ffffffffffffffffffffffffffffffffffffffff168152602001908152602001600020549050919050565b6000600460008373ffffffffffffffffffffffffffffffffffffffff1673ffffffffffffffffffffffffffffffffffffffff168152602001908152602001600020549050919050565b600080600090505b60085481101561174e573373ffffffffffffffffffffffffffffffffffffffff166009600083815260200190815260200160002060009054906101000a900473ffffffffffffffffffffffffffffffffffffffff1673ffffffffffffffffffffffffffffffffffffffff1614156117435780915050611755565b8060010190506116c9565b5060085490505b90565b6000600854905090565b60016020528060005260406000206000915090505481565b600060085482101561180057600660006009600085815260200190815260200160002060009054906101000a900473ffffffffffffffffffffffffffffffffffffffff1673ffffffffffffffffffffffffffffffffffffffff1673ffffffffffffffffffffffffffffffffffffffff168152602001908152602001600020549050611805565b600090505b919050565b60046020528060005260406000206000915090505481565b600080600a60003373ffffffffffffffffffffffffffffffffffffffff1673ffffffffffffffffffffffffffffffffffffffff1681526020019081526020016000205411156118745760019050611879565b600090505b90565b60145481565b600f6020528060005260406000206000915090505481565b6000600160008373ffffffffffffffffffffffffffffffffffffffff1673ffffffffffffffffffffffffffffffffffffffff168152602001908152602001600020549050919050565b6000600d60008373ffffffffffffffffffffffffffffffffffffffff1673ffffffffffffffffffffffffffffffffffffffff168152602001908152602001600020549050919050565b80600360008473ffffffffffffffffffffffffffffffffffffffff1673ffffffffffffffffffffffffffffffffffffffff168152602001908152602001600020819055505050565b60155481565b80600260008473ffffffffffffffffffffffffffffffffffffffff1673ffffffffffffffffffffffffffffffffffffffff168152602001908152602001600020819055505050565b6000600854821015611a4857600560006009600085815260200190815260200160002060009054906101000a900473ffffffffffffffffffffffffffffffffffffffff1673ffffffffffffffffffffffffffffffffffffffff1673ffffffffffffffffffffffffffffffffffffffff168152602001908152602001600020549050611a4d565b600090505b919050565b6000600460003373ffffffffffffffffffffffffffffffffffffffff1673ffffffffffffffffffffffffffffffffffffffff16815260200190815260200160002054905090565b6009600083815260200190815260200160002060009054906101000a900473ffffffffffffffffffffffffffffffffffffffff1673ffffffffffffffffffffffffffffffffffffffff163373ffffffffffffffffffffffffffffffffffffffff1614611b0457600080fd5b60006009600084815260200190815260200160002060009054906101000a900473ffffffffffffffffffffffffffffffffffffffff16905060006009600084815260200190815260200160002060009054906101000a900473ffffffffffffffffffffffffffffffffffffffff169050611b7e8282612055565b50505050565b60066020528060005260406000206000915090505481565b60006020528060005260406000206000915090505481565b60026020528060005260406000206000915090505481565b60076020528060005260406000206000915090505481565b806000808473ffffffffffffffffffffffffffffffffffffffff1673ffffffffffffffffffffffffffffffffffffffff168152602001908152602001600020819055505050565b60036020528060005260406000206000915090505481565b6000600a60008373ffffffffffffffffffffffffffffffffffffffff1673ffffffffffffffffffffffffffffffffffffffff1681526020019081526020016000205414611c8f57600080fd5b8060096000600854815260200190815260200160002060006101000a81548173ffffffffffffffffffffffffffffffffffffffff021916908373ffffffffffffffffffffffffffffffffffffffff160217905550600860008154809291906001019190505550600a60008273ffffffffffffffffffffffffffffffffffffffff1673ffffffffffffffffffffffffffffffffffffffff16815260200190815260200160002060008154809291906001019190505550612710600260008373ffffffffffffffffffffffffffffffffffffffff1673ffffffffffffffffffffffffffffffffffffffff16815260200190815260200160002081905550612710600460008373ffffffffffffffffffffffffffffffffffffffff1673ffffffffffffffffffffffffffffffffffffffff168152602001908152602001600020819055506127106000808373ffffffffffffffffffffffffffffffffffffffff1673ffffffffffffffffffffffffffffffffffffffff16815260200190815260200160002081905550612710600160008373ffffffffffffffffffffffffffffffffffffffff1673ffffffffffffffffffffffffffffffffffffffff16815260200190815260200160002081905550612710600360008373ffffffffffffffffffffffffffffffffffffffff1673ffffffffffffffffffffffffffffffffffffffff168152602001908152602001600020819055506000600560008373ffffffffffffffffffffffffffffffffffffffff1673ffffffffffffffffffffffffffffffffffffffff168152602001908152602001600020819055506000600660008373ffffffffffffffffffffffffffffffffffffffff1673ffffffffffffffffffffffffffffffffffffffff168152602001908152602001600020819055506000600760008373ffffffffffffffffffffffffffffffffffffffff1673ffffffffffffffffffffffffffffffffffffffff1681526020019081526020016000208190555050565b60096020528060005260406000206000915054906101000a900473ffffffffffffffffffffffffffffffffffffffff1681565b60135481565b6000600160003373ffffffffffffffffffffffffffffffffffffffff1673ffffffffffffffffffffffffffffffffffffffff16815260200190815260200160002054905090565b60116020528060005260406000206000915090505481565b600061204d83836040518060400160405280601e81526020017f536166654d6174683a207375627472616374696f6e206f766572666c6f7700008152506125f8565b905092915050565b600080600560008473ffffffffffffffffffffffffffffffffffffffff1673ffffffffffffffffffffffffffffffffffffffff16815260200190815260200160002054600560008673ffffffffffffffffffffffffffffffffffffffff1673ffffffffffffffffffffffffffffffffffffffff1681526020019081526020016000205411156120e9578391508290506120f0565b8291508390505b60056004600260008473ffffffffffffffffffffffffffffffffffffffff1673ffffffffffffffffffffffffffffffffffffffff16815260200190815260200160002054028161213c57fe5b04600260008473ffffffffffffffffffffffffffffffffffffffff1673ffffffffffffffffffffffffffffffffffffffff1681526020019081526020016000205401600260008473ffffffffffffffffffffffffffffffffffffffff1673ffffffffffffffffffffffffffffffffffffffff1681526020019081526020016000208190555060056004600360008473ffffffffffffffffffffffffffffffffffffffff1673ffffffffffffffffffffffffffffffffffffffff16815260200190815260200160002054028161220d57fe5b04600360008473ffffffffffffffffffffffffffffffffffffffff1673ffffffffffffffffffffffffffffffffffffffff1681526020019081526020016000205401600360008473ffffffffffffffffffffffffffffffffffffffff1673ffffffffffffffffffffffffffffffffffffffff1681526020019081526020016000208190555060056004600260008473ffffffffffffffffffffffffffffffffffffffff1673ffffffffffffffffffffffffffffffffffffffff1681526020019081526020016000205402816122de57fe5b04600260008373ffffffffffffffffffffffffffffffffffffffff1673ffffffffffffffffffffffffffffffffffffffff1681526020019081526020016000205403600260008373ffffffffffffffffffffffffffffffffffffffff1673ffffffffffffffffffffffffffffffffffffffff1681526020019081526020016000208190555060056004600360008473ffffffffffffffffffffffffffffffffffffffff1673ffffffffffffffffffffffffffffffffffffffff1681526020019081526020016000205402816123af57fe5b04600360008373ffffffffffffffffffffffffffffffffffffffff1673ffffffffffffffffffffffffffffffffffffffff1681526020019081526020016000205403600360008373ffffffffffffffffffffffffffffffffffffffff1673ffffffffffffffffffffffffffffffffffffffff1681526020019081526020016000208190555060006002600560008473ffffffffffffffffffffffffffffffffffffffff1673ffffffffffffffffffffffffffffffffffffffff168152602001908152602001600020548161247f57fe5b049050600e60008473ffffffffffffffffffffffffffffffffffffffff1673ffffffffffffffffffffffffffffffffffffffff1681526020019081526020016000205481600560008673ffffffffffffffffffffffffffffffffffffffff1673ffffffffffffffffffffffffffffffffffffffff16815260200190815260200160002054038161250b57fe5b04600d60008573ffffffffffffffffffffffffffffffffffffffff1673ffffffffffffffffffffffffffffffffffffffff1681526020019081526020016000208190555060056004600d60008573ffffffffffffffffffffffffffffffffffffffff1673ffffffffffffffffffffffffffffffffffffffff16815260200190815260200160002054028161259b57fe5b04600d60008473ffffffffffffffffffffffffffffffffffffffff1673ffffffffffffffffffffffffffffffffffffffff168152602001908152602001600020819055506125e8836126b8565b6125f1826126b8565b5050505050565b60008383111582906126a5576040517f08c379a00000000000000000000000000000000000000000000000000000000081526004018080602001828103825283818151815260200191508051906020019080838360005b8381101561266a57808201518184015260208101905061264f565b50505050905090810190601f1680156126975780820380516001836020036101000a031916815260200191505b509250505060405180910390fd5b5060008385039050809150509392505050565b601454600e60008373ffffffffffffffffffffffffffffffffffffffff1673ffffffffffffffffffffffffffffffffffffffff16815260200190815260200160002054600d60008473ffffffffffffffffffffffffffffffffffffffff1673ffffffffffffffffffffffffffffffffffffffff168152602001908152602001600020540202600560008373ffffffffffffffffffffffffffffffffffffffff1673ffffffffffffffffffffffffffffffffffffffff16815260200190815260200160002081905550601554600e60008373ffffffffffffffffffffffffffffffffffffffff1673ffffffffffffffffffffffffffffffffffffffff16815260200190815260200160002054600d60008473ffffffffffffffffffffffffffffffffffffffff1673ffffffffffffffffffffffffffffffffffffffff168152602001908152602001600020540202600660008373ffffffffffffffffffffffffffffffffffffffff1673ffffffffffffffffffffffffffffffffffffffff168152602001908152602001600020819055505056fea265627a7a723158205bc4d9b7701a5a555864301704f0a0824aec4aca54a3667bb40cf2b51677be8e64736f6c63430005100032",
  "source": "pragma solidity >=0.4.21 <0.7.0;\n\nimport \"./Account.sol\";\n\ncontract Soldier is Account {\n    mapping (address => uint) public numOfSoldier;\n\n    mapping (address => uint) public levelOfSoldier;\n\n    mapping (address => uint) public ownerStartCreateTime;\n    mapping (address => uint) public ownerCreateSoldierTime;\n    mapping (address => uint) public ownerStartLevelUpTime;\n    uint public createSoldierTime = 10;\n    uint public levelUpSoldierTime = 10;\n\n    uint public soldierPower = 1;\n    uint public soldierHealth = 1;\n\n\n    function _updatePower(address _owner) internal {\n        power[_owner] = numOfSoldier[_owner] * levelOfSoldier[_owner] * soldierPower;\n        health[_owner] = numOfSoldier[_owner] * levelOfSoldier[_owner] * soldierHealth;\n\n    }\n\n    function _createSoldier(address _owner, uint number) internal returns(bool) {\n        uint foodCost = (25* levelOfSoldier[_owner] - 5) * number;\n        uint ironCost = (25* levelOfSoldier[_owner] - 5) * number;\n        uint coinCost = (25* levelOfSoldier[_owner] - 5) * number;\n\n        return cost(_owner, foodCost, uint(0), ironCost, uint(0), coinCost);\n    }\n    \n    function _upgradeSoldier(address _owner) internal returns(bool){\n        uint foodCost = 500* levelOfSoldier[_owner] - 125;\n        uint ironCost = 500* levelOfSoldier[_owner] - 125;\n        uint coinCost = 500* levelOfSoldier[_owner] - 125;\n\n        return cost(_owner, foodCost, uint(0), ironCost, uint(0), coinCost);\n    }\n\n    function getSoldierAmount(address _owner) public view returns(uint) {\n        return numOfSoldier[_owner];\n    }\n\n    function _fight(address myCastle, address attackedCastle) internal{\n        address winner;\n        address loser;\n\n        if (power[myCastle] > power[attackedCastle]){\n            winner = myCastle;\n            loser = attackedCastle;\n        }\n        else {\n            winner = attackedCastle;\n            loser = myCastle;\n        }\n        \n        foodOwnerCount[winner] = foodOwnerCount[winner] + (foodOwnerCount[loser] * 4/5);\n        // woodOwnerCount[winner] = woodOwnerCount[winner] + (woodOwnerCount[loser] * 4/5);\n        // ironOwnerCount[winner] = ironOwnerCount[winner] + (ironOwnerCount[loser] * 4/5);\n        // stoneOwnerCount[winner] = stoneOwnerCount[winner] + (stoneOwnerCount[loser] * 4/5);\n        coinOwnerCount[winner] = coinOwnerCount[winner] + (coinOwnerCount[loser] * 4/5);\n        foodOwnerCount[loser] = foodOwnerCount[loser] - (foodOwnerCount[loser] * 4/5);\n        // woodOwnerCount[loser] = woodOwnerCount[loser] - (woodOwnerCount[loser] * 4/5);\n        // ironOwnerCount[loser] = ironOwnerCount[loser] - (ironOwnerCount[loser] * 4/5);\n        // stoneOwnerCount[loser] = stoneOwnerCount[loser] - (stoneOwnerCount[loser] * 4/5);\n        coinOwnerCount[loser] = coinOwnerCount[loser] - (coinOwnerCount[loser] * 4/5);\n\n        uint winnerPowerLose = power[loser] / 2;\n\n        numOfSoldier[winner] = (power[winner] - winnerPowerLose) / levelOfSoldier[winner];\n\n        numOfSoldier[loser] = numOfSoldier[loser] * 4 / 5;\n\n        _updatePower(winner);\n        _updatePower(loser);\n    }\n\n    function attack(uint _ownerId, uint _attackedCastleId) public {\n        require(msg.sender == castleToOwner[_ownerId]);\n        address myCastle = castleToOwner[_ownerId];\n        address attackedCastle = castleToOwner[_attackedCastleId];\n        _fight(myCastle, attackedCastle);\n    }\n}",
  "sourcePath": "/Users/seanwang0823/NMLab_Final/contracts/Soldier.sol",
  "compiler": {
    "name": "solc",
    "version": "0.5.16+commit.9c3226ce.Emscripten.clang"
  },
  "schemaVersion": "3.4.0",
  "updatedAt": "2021-06-01T08:52:10.654Z",
  "devdoc": {
    "methods": {}
  },
  "userdoc": {
    "methods": {}
  }
}