{
  "contractName": "Spy",
  "abi": [
    {
      "constant": true,
      "inputs": [
        {
          "internalType": "uint256",
          "name": "",
          "type": "uint256"
        }
      ],
      "name": "castleToOwner",
      "outputs": [
        {
          "internalType": "address",
          "name": "",
          "type": "address"
        }
      ],
      "payable": false,
      "stateMutability": "view",
      "type": "function"
    },
    {
      "constant": true,
      "inputs": [],
      "name": "checkUserAddress",
      "outputs": [
        {
          "internalType": "bool",
          "name": "",
          "type": "bool"
        }
      ],
      "payable": false,
      "stateMutability": "view",
      "type": "function"
    },
    {
      "constant": true,
      "inputs": [
        {
          "internalType": "address",
          "name": "",
          "type": "address"
        }
      ],
      "name": "coinOwnerCount",
      "outputs": [
        {
          "internalType": "uint256",
          "name": "",
          "type": "uint256"
        }
      ],
      "payable": false,
      "stateMutability": "view",
      "type": "function"
    },
    {
      "constant": true,
      "inputs": [],
      "name": "createSpyTime",
      "outputs": [
        {
          "internalType": "uint256",
          "name": "",
          "type": "uint256"
        }
      ],
      "payable": false,
      "stateMutability": "view",
      "type": "function"
    },
    {
      "constant": true,
      "inputs": [
        {
          "internalType": "address",
          "name": "",
          "type": "address"
        }
      ],
      "name": "foodOwnerCount",
      "outputs": [
        {
          "internalType": "uint256",
          "name": "",
          "type": "uint256"
        }
      ],
      "payable": false,
      "stateMutability": "view",
      "type": "function"
    },
    {
      "constant": true,
      "inputs": [],
      "name": "getCoinAmount",
      "outputs": [
        {
          "internalType": "uint256",
          "name": "",
          "type": "uint256"
        }
      ],
      "payable": false,
      "stateMutability": "view",
      "type": "function"
    },
    {
      "constant": true,
      "inputs": [],
      "name": "getFoodAmount",
      "outputs": [
        {
          "internalType": "uint256",
          "name": "",
          "type": "uint256"
        }
      ],
      "payable": false,
      "stateMutability": "view",
      "type": "function"
    },
    {
      "constant": true,
      "inputs": [],
      "name": "getIronAmount",
      "outputs": [
        {
          "internalType": "uint256",
          "name": "",
          "type": "uint256"
        }
      ],
      "payable": false,
      "stateMutability": "view",
      "type": "function"
    },
    {
      "constant": true,
      "inputs": [],
      "name": "getKingdomAmount",
      "outputs": [
        {
          "internalType": "uint256",
          "name": "",
          "type": "uint256"
        }
      ],
      "payable": false,
      "stateMutability": "view",
      "type": "function"
    },
    {
      "constant": true,
      "inputs": [],
      "name": "getMyIdx",
      "outputs": [
        {
          "internalType": "uint256",
          "name": "",
          "type": "uint256"
        }
      ],
      "payable": false,
      "stateMutability": "view",
      "type": "function"
    },
    {
      "constant": true,
      "inputs": [],
      "name": "getStoneAmount",
      "outputs": [
        {
          "internalType": "uint256",
          "name": "",
          "type": "uint256"
        }
      ],
      "payable": false,
      "stateMutability": "view",
      "type": "function"
    },
    {
      "constant": true,
      "inputs": [
        {
          "internalType": "uint256",
          "name": "idx",
          "type": "uint256"
        }
      ],
      "name": "getUserHealth",
      "outputs": [
        {
          "internalType": "uint256",
          "name": "",
          "type": "uint256"
        }
      ],
      "payable": false,
      "stateMutability": "view",
      "type": "function"
    },
    {
      "constant": true,
      "inputs": [
        {
          "internalType": "uint256",
          "name": "idx",
          "type": "uint256"
        }
      ],
      "name": "getUserPower",
      "outputs": [
        {
          "internalType": "uint256",
          "name": "",
          "type": "uint256"
        }
      ],
      "payable": false,
      "stateMutability": "view",
      "type": "function"
    },
    {
      "constant": true,
      "inputs": [
        {
          "internalType": "uint256",
          "name": "idx",
          "type": "uint256"
        }
      ],
      "name": "getUserSpyPower",
      "outputs": [
        {
          "internalType": "uint256",
          "name": "",
          "type": "uint256"
        }
      ],
      "payable": false,
      "stateMutability": "view",
      "type": "function"
    },
    {
      "constant": true,
      "inputs": [],
      "name": "getWoodAmount",
      "outputs": [
        {
          "internalType": "uint256",
          "name": "",
          "type": "uint256"
        }
      ],
      "payable": false,
      "stateMutability": "view",
      "type": "function"
    },
    {
      "constant": true,
      "inputs": [
        {
          "internalType": "address",
          "name": "",
          "type": "address"
        }
      ],
      "name": "health",
      "outputs": [
        {
          "internalType": "uint256",
          "name": "",
          "type": "uint256"
        }
      ],
      "payable": false,
      "stateMutability": "view",
      "type": "function"
    },
    {
      "constant": true,
      "inputs": [
        {
          "internalType": "address",
          "name": "",
          "type": "address"
        }
      ],
      "name": "ironOwnerCount",
      "outputs": [
        {
          "internalType": "uint256",
          "name": "",
          "type": "uint256"
        }
      ],
      "payable": false,
      "stateMutability": "view",
      "type": "function"
    },
    {
      "constant": true,
      "inputs": [],
      "name": "kingdomAmount",
      "outputs": [
        {
          "internalType": "uint256",
          "name": "",
          "type": "uint256"
        }
      ],
      "payable": false,
      "stateMutability": "view",
      "type": "function"
    },
    {
      "constant": true,
      "inputs": [
        {
          "internalType": "address",
          "name": "",
          "type": "address"
        }
      ],
      "name": "levelOfSpy",
      "outputs": [
        {
          "internalType": "uint256",
          "name": "",
          "type": "uint256"
        }
      ],
      "payable": false,
      "stateMutability": "view",
      "type": "function"
    },
    {
      "constant": true,
      "inputs": [],
      "name": "levelUpSpyTime",
      "outputs": [
        {
          "internalType": "uint256",
          "name": "",
          "type": "uint256"
        }
      ],
      "payable": false,
      "stateMutability": "view",
      "type": "function"
    },
    {
      "constant": true,
      "inputs": [
        {
          "internalType": "address",
          "name": "",
          "type": "address"
        }
      ],
      "name": "numOfSpy",
      "outputs": [
        {
          "internalType": "uint256",
          "name": "",
          "type": "uint256"
        }
      ],
      "payable": false,
      "stateMutability": "view",
      "type": "function"
    },
    {
      "constant": true,
      "inputs": [
        {
          "internalType": "address",
          "name": "",
          "type": "address"
        }
      ],
      "name": "ownerCastleCount",
      "outputs": [
        {
          "internalType": "uint256",
          "name": "",
          "type": "uint256"
        }
      ],
      "payable": false,
      "stateMutability": "view",
      "type": "function"
    },
    {
      "constant": true,
      "inputs": [
        {
          "internalType": "address",
          "name": "",
          "type": "address"
        }
      ],
      "name": "ownerCreateSpyTime",
      "outputs": [
        {
          "internalType": "uint256",
          "name": "",
          "type": "uint256"
        }
      ],
      "payable": false,
      "stateMutability": "view",
      "type": "function"
    },
    {
      "constant": true,
      "inputs": [
        {
          "internalType": "address",
          "name": "",
          "type": "address"
        }
      ],
      "name": "ownerStartCreateTime",
      "outputs": [
        {
          "internalType": "uint256",
          "name": "",
          "type": "uint256"
        }
      ],
      "payable": false,
      "stateMutability": "view",
      "type": "function"
    },
    {
      "constant": true,
      "inputs": [
        {
          "internalType": "address",
          "name": "",
          "type": "address"
        }
      ],
      "name": "ownerStartLevelUpTime",
      "outputs": [
        {
          "internalType": "uint256",
          "name": "",
          "type": "uint256"
        }
      ],
      "payable": false,
      "stateMutability": "view",
      "type": "function"
    },
    {
      "constant": true,
      "inputs": [
        {
          "internalType": "address",
          "name": "",
          "type": "address"
        }
      ],
      "name": "power",
      "outputs": [
        {
          "internalType": "uint256",
          "name": "",
          "type": "uint256"
        }
      ],
      "payable": false,
      "stateMutability": "view",
      "type": "function"
    },
    {
      "constant": true,
      "inputs": [
        {
          "internalType": "address",
          "name": "",
          "type": "address"
        }
      ],
      "name": "spyPower",
      "outputs": [
        {
          "internalType": "uint256",
          "name": "",
          "type": "uint256"
        }
      ],
      "payable": false,
      "stateMutability": "view",
      "type": "function"
    },
    {
      "constant": true,
      "inputs": [
        {
          "internalType": "address",
          "name": "",
          "type": "address"
        }
      ],
      "name": "stoneOwnerCount",
      "outputs": [
        {
          "internalType": "uint256",
          "name": "",
          "type": "uint256"
        }
      ],
      "payable": false,
      "stateMutability": "view",
      "type": "function"
    },
    {
      "constant": true,
      "inputs": [
        {
          "internalType": "address",
          "name": "",
          "type": "address"
        }
      ],
      "name": "woodOwnerCount",
      "outputs": [
        {
          "internalType": "uint256",
          "name": "",
          "type": "uint256"
        }
      ],
      "payable": false,
      "stateMutability": "view",
      "type": "function"
    },
    {
      "constant": true,
      "inputs": [
        {
          "internalType": "address",
          "name": "_owner",
          "type": "address"
        }
      ],
      "name": "getSpyAmount",
      "outputs": [
        {
          "internalType": "uint256",
          "name": "",
          "type": "uint256"
        }
      ],
      "payable": false,
      "stateMutability": "view",
      "type": "function"
    },
    {
      "constant": false,
      "inputs": [
        {
          "internalType": "uint256",
          "name": "_ownerId",
          "type": "uint256"
        },
        {
          "internalType": "uint256",
          "name": "_attackedCastleId",
          "type": "uint256"
        }
      ],
      "name": "sendSpy",
      "outputs": [
        {
          "internalType": "bool",
          "name": "",
          "type": "bool"
        }
      ],
      "payable": false,
      "stateMutability": "nonpayable",
      "type": "function"
    }
  ],
  "bytecode": "0x60806040526010600b55600b54600a0a600c55600a601255600a60135534801561002857600080fd5b506111a7806100386000396000f3fe608060405234801561001057600080fd5b50600436106101e55760003560e01c80638919a9ca1161010f578063e2d8ebee116100a2578063ef78b6dc11610071578063ef78b6dc146108a8578063f4ab27f014610900578063fd8ccf271461096e578063ff4581f11461098c576101e5565b8063e2d8ebee14610748578063e428afa0146107a0578063e5b285f2146107f8578063e9933a4b14610850576101e5565b8063c8b4eeff116100de578063c8b4eeff14610638578063ccf358a41461067a578063de63415214610698578063e21843fd146106f0576101e5565b80638919a9ca1461050e5780639073af8114610530578063af3437ae14610588578063b5c3e402146105e0576101e5565b8063503371a5116101875780637e2b875b116101565780637e2b875b146103fe5780638226e5301461041c578063834af9b614610474578063867b84e2146104b6576101e5565b8063503371a51461034c5780635ad60993146103a4578063623e9ba6146103c2578063789630be146103e0576101e5565b80631c980beb116101c35780631c980beb14610276578063323a46861461029457806346125f84146102d65780634807c3d51461032e576101e5565b80630194b613146101ea578063194c717b1461023a5780631a653e8b14610258575b600080fd5b6102206004803603604081101561020057600080fd5b8101908080359060200190929190803590602001909291905050506109e4565b604051808215151515815260200191505060405180910390f35b610242610ad5565b6040518082815260200191505060405180910390f35b610260610adb565b6040518082815260200191505060405180910390f35b61027e610ae1565b6040518082815260200191505060405180910390f35b6102c0600480360360208110156102aa57600080fd5b8101908080359060200190929190505050610b27565b6040518082815260200191505060405180910390f35b610318600480360360208110156102ec57600080fd5b81019080803573ffffffffffffffffffffffffffffffffffffffff169060200190929190505050610bb7565b6040518082815260200191505060405180910390f35b610336610bcf565b6040518082815260200191505060405180910390f35b61038e6004803603602081101561036257600080fd5b81019080803573ffffffffffffffffffffffffffffffffffffffff169060200190929190505050610bd5565b6040518082815260200191505060405180910390f35b6103ac610bed565b6040518082815260200191505060405180910390f35b6103ca610c34565b6040518082815260200191505060405180910390f35b6103e8610c7b565b6040518082815260200191505060405180910390f35b610406610d12565b6040518082815260200191505060405180910390f35b61045e6004803603602081101561043257600080fd5b81019080803573ffffffffffffffffffffffffffffffffffffffff169060200190929190505050610d1c565b6040518082815260200191505060405180910390f35b6104a06004803603602081101561048a57600080fd5b8101908080359060200190929190505050610d34565b6040518082815260200191505060405180910390f35b6104f8600480360360208110156104cc57600080fd5b81019080803573ffffffffffffffffffffffffffffffffffffffff169060200190929190505050610dc4565b6040518082815260200191505060405180910390f35b610516610ddc565b604051808215151515815260200191505060405180910390f35b6105726004803603602081101561054657600080fd5b81019080803573ffffffffffffffffffffffffffffffffffffffff169060200190929190505050610e36565b6040518082815260200191505060405180910390f35b6105ca6004803603602081101561059e57600080fd5b81019080803573ffffffffffffffffffffffffffffffffffffffff169060200190929190505050610e4e565b6040518082815260200191505060405180910390f35b610622600480360360208110156105f657600080fd5b81019080803573ffffffffffffffffffffffffffffffffffffffff169060200190929190505050610e66565b6040518082815260200191505060405180910390f35b6106646004803603602081101561064e57600080fd5b8101908080359060200190929190505050610e7e565b6040518082815260200191505060405180910390f35b610682610f0e565b6040518082815260200191505060405180910390f35b6106da600480360360208110156106ae57600080fd5b81019080803573ffffffffffffffffffffffffffffffffffffffff169060200190929190505050610f55565b6040518082815260200191505060405180910390f35b6107326004803603602081101561070657600080fd5b81019080803573ffffffffffffffffffffffffffffffffffffffff169060200190929190505050610f6d565b6040518082815260200191505060405180910390f35b61078a6004803603602081101561075e57600080fd5b81019080803573ffffffffffffffffffffffffffffffffffffffff169060200190929190505050610fb6565b6040518082815260200191505060405180910390f35b6107e2600480360360208110156107b657600080fd5b81019080803573ffffffffffffffffffffffffffffffffffffffff169060200190929190505050610fce565b6040518082815260200191505060405180910390f35b61083a6004803603602081101561080e57600080fd5b81019080803573ffffffffffffffffffffffffffffffffffffffff169060200190929190505050610fe6565b6040518082815260200191505060405180910390f35b6108926004803603602081101561086657600080fd5b81019080803573ffffffffffffffffffffffffffffffffffffffff169060200190929190505050610ffe565b6040518082815260200191505060405180910390f35b6108ea600480360360208110156108be57600080fd5b81019080803573ffffffffffffffffffffffffffffffffffffffff169060200190929190505050611016565b6040518082815260200191505060405180910390f35b61092c6004803603602081101561091657600080fd5b810190808035906020019092919050505061102e565b604051808273ffffffffffffffffffffffffffffffffffffffff1673ffffffffffffffffffffffffffffffffffffffff16815260200191505060405180910390f35b610976611061565b6040518082815260200191505060405180910390f35b6109ce600480360360208110156109a257600080fd5b81019080803573ffffffffffffffffffffffffffffffffffffffff1690602001909291905050506110a8565b6040518082815260200191505060405180910390f35b60006009600084815260200190815260200160002060009054906101000a900473ffffffffffffffffffffffffffffffffffffffff1673ffffffffffffffffffffffffffffffffffffffff163373ffffffffffffffffffffffffffffffffffffffff1614610a5157600080fd5b60006009600085815260200190815260200160002060009054906101000a900473ffffffffffffffffffffffffffffffffffffffff16905060006009600085815260200190815260200160002060009054906101000a900473ffffffffffffffffffffffffffffffffffffffff169050610acb82826110c0565b9250505092915050565b60085481565b60135481565b60008060003373ffffffffffffffffffffffffffffffffffffffff1673ffffffffffffffffffffffffffffffffffffffff16815260200190815260200160002054905090565b6000600854821015610bad57600760006009600085815260200190815260200160002060009054906101000a900473ffffffffffffffffffffffffffffffffffffffff1673ffffffffffffffffffffffffffffffffffffffff1673ffffffffffffffffffffffffffffffffffffffff168152602001908152602001600020549050610bb2565b600090505b919050565b600a6020528060005260406000206000915090505481565b60125481565b60056020528060005260406000206000915090505481565b6000600260003373ffffffffffffffffffffffffffffffffffffffff1673ffffffffffffffffffffffffffffffffffffffff16815260200190815260200160002054905090565b6000600360003373ffffffffffffffffffffffffffffffffffffffff1673ffffffffffffffffffffffffffffffffffffffff16815260200190815260200160002054905090565b600080600090505b600854811015610d08573373ffffffffffffffffffffffffffffffffffffffff166009600083815260200190815260200160002060009054906101000a900473ffffffffffffffffffffffffffffffffffffffff1673ffffffffffffffffffffffffffffffffffffffff161415610cfd5780915050610d0f565b806001019050610c83565b5060085490505b90565b6000600854905090565b60016020528060005260406000206000915090505481565b6000600854821015610dba57600660006009600085815260200190815260200160002060009054906101000a900473ffffffffffffffffffffffffffffffffffffffff1673ffffffffffffffffffffffffffffffffffffffff1673ffffffffffffffffffffffffffffffffffffffff168152602001908152602001600020549050610dbf565b600090505b919050565b60046020528060005260406000206000915090505481565b600080600a60003373ffffffffffffffffffffffffffffffffffffffff1673ffffffffffffffffffffffffffffffffffffffff168152602001908152602001600020541115610e2e5760019050610e33565b600090505b90565b600f6020528060005260406000206000915090505481565b600d6020528060005260406000206000915090505481565b60106020528060005260406000206000915090505481565b6000600854821015610f0457600560006009600085815260200190815260200160002060009054906101000a900473ffffffffffffffffffffffffffffffffffffffff1673ffffffffffffffffffffffffffffffffffffffff1673ffffffffffffffffffffffffffffffffffffffff168152602001908152602001600020549050610f09565b600090505b919050565b6000600460003373ffffffffffffffffffffffffffffffffffffffff1673ffffffffffffffffffffffffffffffffffffffff16815260200190815260200160002054905090565b600e6020528060005260406000206000915090505481565b6000600d60008373ffffffffffffffffffffffffffffffffffffffff1673ffffffffffffffffffffffffffffffffffffffff168152602001908152602001600020549050919050565b60066020528060005260406000206000915090505481565b60006020528060005260406000206000915090505481565b60026020528060005260406000206000915090505481565b60076020528060005260406000206000915090505481565b60036020528060005260406000206000915090505481565b60096020528060005260406000206000915054906101000a900473ffffffffffffffffffffffffffffffffffffffff1681565b6000600160003373ffffffffffffffffffffffffffffffffffffffff1673ffffffffffffffffffffffffffffffffffffffff16815260200190815260200160002054905090565b60116020528060005260406000206000915090505481565b600080600080600760008673ffffffffffffffffffffffffffffffffffffffff1673ffffffffffffffffffffffffffffffffffffffff16815260200190815260200160002054600760008873ffffffffffffffffffffffffffffffffffffffff1673ffffffffffffffffffffffffffffffffffffffff16815260200190815260200160002054111561115b5785925084915060019050611166565b849250859150600090505b8093505050509291505056fea265627a7a723158209a2167363fc57b06dee309dc9363778dde9daf58ae8029cdf842612e255e33b364736f6c63430005100032",
  "source": "pragma solidity >=0.4.21 <0.7.0;\n\nimport \"./Account.sol\";\n\ncontract Spy is Account {\n    mapping (address => uint) public numOfSpy;\n\n    mapping (address => uint) public levelOfSpy;\n\n    mapping (address => uint) public ownerStartCreateTime;\n    mapping (address => uint) public ownerCreateSpyTime;\n    mapping (address => uint) public ownerStartLevelUpTime;\n    uint public createSpyTime = 10;\n    uint public levelUpSpyTime = 10;\n\n\n    function _updateSpyPower(address _owner) internal {\n        // power[_owner] = numOfSpy[_owner] * levelOfSpy[_owner];\n        spyPower[_owner] = numOfSpy[_owner] * levelOfSpy[_owner];\n    }\n\n    function _createSpy(address _owner, uint number) internal returns(bool) {\n        uint foodCost = (25* levelOfSpy[_owner] - 5) * number;\n        uint ironCost = (25* levelOfSpy[_owner] - 5) * number;\n        uint coinCost = (25* levelOfSpy[_owner] - 5) * number;\n\n        return _cost(_owner, foodCost, uint(0), ironCost, uint(0), coinCost);\n    }\n    \n    function _upgradeSpy(address _owner) internal returns(bool){\n        uint foodCost = 500* levelOfSpy[_owner] - 125;\n        uint ironCost = 500* levelOfSpy[_owner] - 125;\n        uint coinCost = 500* levelOfSpy[_owner] - 125;\n\n        return _cost(_owner, foodCost, uint(0), ironCost, uint(0), coinCost);\n    }\n\n    function getSpyAmount(address _owner) public view returns(uint) {\n        return numOfSpy[_owner];\n    }\n\n    function _spy(address myCastle, address attackedCastle) internal returns(bool) {\n        address winner;\n        address loser;\n        bool win;\n        //bool win = -1;\n\n        if (spyPower[myCastle] > spyPower[attackedCastle]){\n            winner = myCastle;\n            loser = attackedCastle;\n            win = true;\n        }\n        else {\n            winner = attackedCastle;\n            loser = myCastle;\n            win = false;\n        }\n        return win;\n    }\n\n    function sendSpy(uint _ownerId, uint _attackedCastleId) public returns(bool) {\n        require(msg.sender == castleToOwner[_ownerId]);\n        address myCastle = castleToOwner[_ownerId];\n        address attackedCastle = castleToOwner[_attackedCastleId];\n\n        //returns TRUE if spy of myCastle > attackedCastle\n        return _spy(myCastle, attackedCastle);\n    }\n}",
  "sourcePath": "/Users/cyl/Desktop/網多/NMlab_Final/contracts/Spy.sol",
  "compiler": {
    "name": "solc",
    "version": "0.5.16+commit.9c3226ce.Emscripten.clang"
  },
  "schemaVersion": "3.4.1",
  "updatedAt": "2021-05-29T15:23:33.082Z",
  "devdoc": {
    "methods": {}
  },
  "userdoc": {
    "methods": {}
  }
}