{
  "contractName": "Spy",
  "abi": [
    {
      "inputs": [
        {
          "internalType": "address",
          "name": "_account_address",
          "type": "address"
        }
      ],
      "payable": false,
      "stateMutability": "nonpayable",
      "type": "constructor"
    },
    {
      "constant": true,
      "inputs": [],
      "name": "UpgradeSpyTime",
      "outputs": [
        {
          "internalType": "uint256",
          "name": "",
          "type": "uint256"
        }
      ],
      "payable": false,
      "stateMutability": "view",
      "type": "function"
    },
    {
      "constant": true,
      "inputs": [],
      "name": "createSpyTime",
      "outputs": [
        {
          "internalType": "uint256",
          "name": "",
          "type": "uint256"
        }
      ],
      "payable": false,
      "stateMutability": "view",
      "type": "function"
    },
    {
      "constant": true,
      "inputs": [
        {
          "internalType": "address",
          "name": "",
          "type": "address"
        }
      ],
      "name": "levelOfSpy",
      "outputs": [
        {
          "internalType": "uint256",
          "name": "",
          "type": "uint256"
        }
      ],
      "payable": false,
      "stateMutability": "view",
      "type": "function"
    },
    {
      "constant": true,
      "inputs": [
        {
          "internalType": "address",
          "name": "",
          "type": "address"
        }
      ],
      "name": "numOfSpy",
      "outputs": [
        {
          "internalType": "uint256",
          "name": "",
          "type": "uint256"
        }
      ],
      "payable": false,
      "stateMutability": "view",
      "type": "function"
    },
    {
      "constant": true,
      "inputs": [
        {
          "internalType": "address",
          "name": "",
          "type": "address"
        }
      ],
      "name": "ownerCreateSpyTime",
      "outputs": [
        {
          "internalType": "uint256",
          "name": "",
          "type": "uint256"
        }
      ],
      "payable": false,
      "stateMutability": "view",
      "type": "function"
    },
    {
      "constant": true,
      "inputs": [
        {
          "internalType": "address",
          "name": "",
          "type": "address"
        }
      ],
      "name": "ownerStartCreateTime",
      "outputs": [
        {
          "internalType": "uint256",
          "name": "",
          "type": "uint256"
        }
      ],
      "payable": false,
      "stateMutability": "view",
      "type": "function"
    },
    {
      "constant": true,
      "inputs": [
        {
          "internalType": "address",
          "name": "",
          "type": "address"
        }
      ],
      "name": "ownerStartUpgradeTime",
      "outputs": [
        {
          "internalType": "uint256",
          "name": "",
          "type": "uint256"
        }
      ],
      "payable": false,
      "stateMutability": "view",
      "type": "function"
    },
    {
      "constant": true,
      "inputs": [
        {
          "internalType": "address",
          "name": "",
          "type": "address"
        }
      ],
      "name": "ownerUpgradeSpyTime",
      "outputs": [
        {
          "internalType": "uint256",
          "name": "",
          "type": "uint256"
        }
      ],
      "payable": false,
      "stateMutability": "view",
      "type": "function"
    },
    {
      "constant": true,
      "inputs": [],
      "name": "spyArmour",
      "outputs": [
        {
          "internalType": "uint256",
          "name": "",
          "type": "uint256"
        }
      ],
      "payable": false,
      "stateMutability": "view",
      "type": "function"
    },
    {
      "constant": true,
      "inputs": [],
      "name": "spyCapacity",
      "outputs": [
        {
          "internalType": "uint256",
          "name": "",
          "type": "uint256"
        }
      ],
      "payable": false,
      "stateMutability": "view",
      "type": "function"
    },
    {
      "constant": true,
      "inputs": [],
      "name": "spyFrequency",
      "outputs": [
        {
          "internalType": "uint256",
          "name": "",
          "type": "uint256"
        }
      ],
      "payable": false,
      "stateMutability": "view",
      "type": "function"
    },
    {
      "constant": true,
      "inputs": [],
      "name": "spyHealth",
      "outputs": [
        {
          "internalType": "uint256",
          "name": "",
          "type": "uint256"
        }
      ],
      "payable": false,
      "stateMutability": "view",
      "type": "function"
    },
    {
      "constant": true,
      "inputs": [],
      "name": "spyPower",
      "outputs": [
        {
          "internalType": "uint256",
          "name": "",
          "type": "uint256"
        }
      ],
      "payable": false,
      "stateMutability": "view",
      "type": "function"
    },
    {
      "constant": true,
      "inputs": [],
      "name": "spySpeed",
      "outputs": [
        {
          "internalType": "uint256",
          "name": "",
          "type": "uint256"
        }
      ],
      "payable": false,
      "stateMutability": "view",
      "type": "function"
    },
    {
      "constant": false,
      "inputs": [
        {
          "internalType": "address",
          "name": "_owner",
          "type": "address"
        },
        {
          "internalType": "uint256",
          "name": "value",
          "type": "uint256"
        }
      ],
      "name": "setSpyLevel",
      "outputs": [],
      "payable": false,
      "stateMutability": "nonpayable",
      "type": "function"
    },
    {
      "constant": false,
      "inputs": [
        {
          "internalType": "address",
          "name": "_owner",
          "type": "address"
        },
        {
          "internalType": "uint256",
          "name": "value",
          "type": "uint256"
        }
      ],
      "name": "setStartCreateTime",
      "outputs": [],
      "payable": false,
      "stateMutability": "nonpayable",
      "type": "function"
    },
    {
      "constant": false,
      "inputs": [
        {
          "internalType": "address",
          "name": "_owner",
          "type": "address"
        },
        {
          "internalType": "uint256",
          "name": "value",
          "type": "uint256"
        }
      ],
      "name": "setCreateSpyTime",
      "outputs": [],
      "payable": false,
      "stateMutability": "nonpayable",
      "type": "function"
    },
    {
      "constant": false,
      "inputs": [
        {
          "internalType": "address",
          "name": "_owner",
          "type": "address"
        },
        {
          "internalType": "uint256",
          "name": "value",
          "type": "uint256"
        }
      ],
      "name": "setStartUpgradeTime",
      "outputs": [],
      "payable": false,
      "stateMutability": "nonpayable",
      "type": "function"
    },
    {
      "constant": false,
      "inputs": [
        {
          "internalType": "address",
          "name": "_owner",
          "type": "address"
        },
        {
          "internalType": "uint256",
          "name": "value",
          "type": "uint256"
        }
      ],
      "name": "setUpgradeSpyTime",
      "outputs": [],
      "payable": false,
      "stateMutability": "nonpayable",
      "type": "function"
    },
    {
      "constant": false,
      "inputs": [
        {
          "internalType": "address",
          "name": "_owner",
          "type": "address"
        },
        {
          "internalType": "uint256",
          "name": "value",
          "type": "uint256"
        }
      ],
      "name": "setNumOfSpy",
      "outputs": [],
      "payable": false,
      "stateMutability": "nonpayable",
      "type": "function"
    },
    {
      "constant": false,
      "inputs": [
        {
          "internalType": "address",
          "name": "_owner",
          "type": "address"
        }
      ],
      "name": "_updateSpyPower",
      "outputs": [],
      "payable": false,
      "stateMutability": "nonpayable",
      "type": "function"
    },
    {
      "constant": false,
      "inputs": [
        {
          "internalType": "address",
          "name": "_owner",
          "type": "address"
        },
        {
          "internalType": "uint256",
          "name": "number",
          "type": "uint256"
        }
      ],
      "name": "_createSpy",
      "outputs": [
        {
          "internalType": "bool",
          "name": "",
          "type": "bool"
        }
      ],
      "payable": false,
      "stateMutability": "nonpayable",
      "type": "function"
    },
    {
      "constant": false,
      "inputs": [
        {
          "internalType": "address",
          "name": "_owner",
          "type": "address"
        }
      ],
      "name": "_UpgradeSpy",
      "outputs": [
        {
          "internalType": "bool",
          "name": "",
          "type": "bool"
        }
      ],
      "payable": false,
      "stateMutability": "nonpayable",
      "type": "function"
    },
    {
      "constant": true,
      "inputs": [
        {
          "internalType": "address",
          "name": "_owner",
          "type": "address"
        }
      ],
      "name": "getSpyAmount",
      "outputs": [
        {
          "internalType": "uint256",
          "name": "",
          "type": "uint256"
        }
      ],
      "payable": false,
      "stateMutability": "view",
      "type": "function"
    },
    {
      "constant": true,
      "inputs": [
        {
          "internalType": "address",
          "name": "myCastle",
          "type": "address"
        },
        {
          "internalType": "address",
          "name": "attackedCastle",
          "type": "address"
        }
      ],
      "name": "_spy",
      "outputs": [
        {
          "internalType": "bool",
          "name": "",
          "type": "bool"
        }
      ],
      "payable": false,
      "stateMutability": "view",
      "type": "function"
    },
    {
      "constant": true,
      "inputs": [
        {
          "internalType": "uint256",
          "name": "_ownerId",
          "type": "uint256"
        },
        {
          "internalType": "uint256",
          "name": "_attackedCastleId",
          "type": "uint256"
        }
      ],
      "name": "sendSpy",
      "outputs": [
        {
          "internalType": "bool",
          "name": "",
          "type": "bool"
        }
      ],
      "payable": false,
      "stateMutability": "view",
      "type": "function"
    },
    {
      "constant": false,
      "inputs": [
        {
          "internalType": "uint256",
          "name": "number",
          "type": "uint256"
        }
      ],
      "name": "startCreateSpy",
      "outputs": [
        {
          "internalType": "uint256",
          "name": "",
          "type": "uint256"
        }
      ],
      "payable": false,
      "stateMutability": "nonpayable",
      "type": "function"
    },
    {
      "constant": true,
      "inputs": [],
      "name": "getCreateSpyTime",
      "outputs": [
        {
          "internalType": "uint256",
          "name": "",
          "type": "uint256"
        },
        {
          "internalType": "uint256",
          "name": "",
          "type": "uint256"
        }
      ],
      "payable": false,
      "stateMutability": "view",
      "type": "function"
    },
    {
      "constant": false,
      "inputs": [
        {
          "internalType": "address",
          "name": "_owner",
          "type": "address"
        }
      ],
      "name": "updateCreateSpy",
      "outputs": [
        {
          "internalType": "uint256",
          "name": "",
          "type": "uint256"
        }
      ],
      "payable": false,
      "stateMutability": "nonpayable",
      "type": "function"
    }
  ],
  "bytecode": "0x6080604052600a600755600a60085560016009556001600a556001600b556001600c556001600d556001600e5534801561003857600080fd5b50604051611db0380380611db08339818101604052602081101561005b57600080fd5b8101908080519060200190929190505050806000806101000a81548173ffffffffffffffffffffffffffffffffffffffff021916908373ffffffffffffffffffffffffffffffffffffffff16021790555050611cf4806100bc6000396000f3fe608060405234801561001057600080fd5b50600436106101cf5760003560e01c8063801e959011610104578063b97efe40116100a2578063e21843fd11610071578063e21843fd146108b9578063f51c21cc14610911578063f67164961461092f578063f79c721514610973576101cf565b8063b97efe401461076b578063bbece62e14610789578063dde88fc0146107e5578063de63415214610861576101cf565b8063a562a479116100de578063a562a47914610637578063a7e3cce114610655578063af3437ae146106bb578063b5c3e40214610713576101cf565b8063801e9590146105435780638ed97202146105915780639073af81146105df576101cf565b80632d96a77b11610171578063601bf56e1161014b578063601bf56e1461046d57806369cddf1d1461048b57806378aa685c146104e357806378eb4df414610501576101cf565b80632d96a77b146103b35780633f069a19146104015780634807c3d51461044f576101cf565b80630f03c43d116101ad5780630f03c43d1461029757806313306881146102e5578063165110961461033d57806329a5045114610395576101cf565b80630194b613146101d45780630acdea6f146102245780630de12cb314610249575b600080fd5b61020a600480360360408110156101ea57600080fd5b810190808035906020019092919080359060200190929190505050610991565b604051808215151515815260200191505060405180910390f35b61022c610b08565b604051808381526020018281526020019250505060405180910390f35b6102956004803603604081101561025f57600080fd5b81019080803573ffffffffffffffffffffffffffffffffffffffff16906020019092919080359060200190929190505050610b95565b005b6102e3600480360360408110156102ad57600080fd5b81019080803573ffffffffffffffffffffffffffffffffffffffff16906020019092919080359060200190929190505050610bdd565b005b610327600480360360208110156102fb57600080fd5b81019080803573ffffffffffffffffffffffffffffffffffffffff169060200190929190505050610c25565b6040518082815260200191505060405180910390f35b61037f6004803603602081101561035357600080fd5b81019080803573ffffffffffffffffffffffffffffffffffffffff169060200190929190505050610c3d565b6040518082815260200191505060405180910390f35b61039d610c55565b6040518082815260200191505060405180910390f35b6103ff600480360360408110156103c957600080fd5b81019080803573ffffffffffffffffffffffffffffffffffffffff16906020019092919080359060200190929190505050610c5b565b005b61044d6004803603604081101561041757600080fd5b81019080803573ffffffffffffffffffffffffffffffffffffffff16906020019092919080359060200190929190505050610ca3565b005b610457610ceb565b6040518082815260200191505060405180910390f35b610475610cf1565b6040518082815260200191505060405180910390f35b6104cd600480360360208110156104a157600080fd5b81019080803573ffffffffffffffffffffffffffffffffffffffff169060200190929190505050610cf7565b6040518082815260200191505060405180910390f35b6104eb610f9e565b6040518082815260200191505060405180910390f35b61052d6004803603602081101561051757600080fd5b8101908080359060200190929190505050610fa4565b6040518082815260200191505060405180910390f35b61058f6004803603604081101561055957600080fd5b81019080803573ffffffffffffffffffffffffffffffffffffffff169060200190929190803590602001909291905050506110ca565b005b6105dd600480360360408110156105a757600080fd5b81019080803573ffffffffffffffffffffffffffffffffffffffff16906020019092919080359060200190929190505050611112565b005b610621600480360360208110156105f557600080fd5b81019080803573ffffffffffffffffffffffffffffffffffffffff16906020019092919050505061115a565b6040518082815260200191505060405180910390f35b61063f611172565b6040518082815260200191505060405180910390f35b6106a16004803603604081101561066b57600080fd5b81019080803573ffffffffffffffffffffffffffffffffffffffff16906020019092919080359060200190929190505050611178565b604051808215151515815260200191505060405180910390f35b6106fd600480360360208110156106d157600080fd5b81019080803573ffffffffffffffffffffffffffffffffffffffff16906020019092919050505061136d565b6040518082815260200191505060405180910390f35b6107556004803603602081101561072957600080fd5b81019080803573ffffffffffffffffffffffffffffffffffffffff169060200190929190505050611385565b6040518082815260200191505060405180910390f35b61077361139d565b6040518082815260200191505060405180910390f35b6107cb6004803603602081101561079f57600080fd5b81019080803573ffffffffffffffffffffffffffffffffffffffff1690602001909291905050506113a3565b604051808215151515815260200191505060405180910390f35b610847600480360360408110156107fb57600080fd5b81019080803573ffffffffffffffffffffffffffffffffffffffff169060200190929190803573ffffffffffffffffffffffffffffffffffffffff1690602001909291905050506115e2565b604051808215151515815260200191505060405180910390f35b6108a36004803603602081101561087757600080fd5b81019080803573ffffffffffffffffffffffffffffffffffffffff1690602001909291905050506117c6565b6040518082815260200191505060405180910390f35b6108fb600480360360208110156108cf57600080fd5b81019080803573ffffffffffffffffffffffffffffffffffffffff1690602001909291905050506117de565b6040518082815260200191505060405180910390f35b610919611827565b6040518082815260200191505060405180910390f35b6109716004803603602081101561094557600080fd5b81019080803573ffffffffffffffffffffffffffffffffffffffff16906020019092919050505061182d565b005b61097b611970565b6040518082815260200191505060405180910390f35b6000806000809054906101000a900473ffffffffffffffffffffffffffffffffffffffff1673ffffffffffffffffffffffffffffffffffffffff166383ef9eb1856040518263ffffffff1660e01b81526004018082815260200191505060206040518083038186803b158015610a0657600080fd5b505afa158015610a1a573d6000803e3d6000fd5b505050506040513d6020811015610a3057600080fd5b8101908080519060200190929190505050905060008060009054906101000a900473ffffffffffffffffffffffffffffffffffffffff1673ffffffffffffffffffffffffffffffffffffffff166383ef9eb1856040518263ffffffff1660e01b81526004018082815260200191505060206040518083038186803b158015610ab757600080fd5b505afa158015610acb573d6000803e3d6000fd5b505050506040513d6020811015610ae157600080fd5b81019080805190602001909291905050509050610afe82826115e2565b9250505092915050565b600080600360003373ffffffffffffffffffffffffffffffffffffffff1673ffffffffffffffffffffffffffffffffffffffff168152602001908152602001600020544203600460003373ffffffffffffffffffffffffffffffffffffffff1673ffffffffffffffffffffffffffffffffffffffff16815260200190815260200160002054915091509091565b80600260008473ffffffffffffffffffffffffffffffffffffffff1673ffffffffffffffffffffffffffffffffffffffff168152602001908152602001600020819055505050565b80600560008473ffffffffffffffffffffffffffffffffffffffff1673ffffffffffffffffffffffffffffffffffffffff168152602001908152602001600020819055505050565b60056020528060005260406000206000915090505481565b60066020528060005260406000206000915090505481565b600d5481565b80600160008473ffffffffffffffffffffffffffffffffffffffff1673ffffffffffffffffffffffffffffffffffffffff168152602001908152602001600020819055505050565b80600660008473ffffffffffffffffffffffffffffffffffffffff1673ffffffffffffffffffffffffffffffffffffffff168152602001908152602001600020819055505050565b60075481565b60085481565b600080600360008473ffffffffffffffffffffffffffffffffffffffff1673ffffffffffffffffffffffffffffffffffffffff168152602001908152602001600020541415610d495760009050610f99565b610dda600460008473ffffffffffffffffffffffffffffffffffffffff1673ffffffffffffffffffffffffffffffffffffffff16815260200190815260200160002054600360008573ffffffffffffffffffffffffffffffffffffffff1673ffffffffffffffffffffffffffffffffffffffff1681526020019081526020016000205461197690919063ffffffff16565b4210610efd576000610e87610e39600754600260008773ffffffffffffffffffffffffffffffffffffffff1673ffffffffffffffffffffffffffffffffffffffff168152602001908152602001600020546119fe90919063ffffffff16565b600460008673ffffffffffffffffffffffffffffffffffffffff1673ffffffffffffffffffffffffffffffffffffffff16815260200190815260200160002054611a8490919063ffffffff16565b9050610ed48382600160008773ffffffffffffffffffffffffffffffffffffffff1673ffffffffffffffffffffffffffffffffffffffff1681526020019081526020016000205401610c5b565b610edf836000611112565b610eea8360006110ca565b610ef38361182d565b6000915050610f99565b6000610f9242600460008673ffffffffffffffffffffffffffffffffffffffff1673ffffffffffffffffffffffffffffffffffffffff16815260200190815260200160002054600360008773ffffffffffffffffffffffffffffffffffffffff1673ffffffffffffffffffffffffffffffffffffffff1681526020019081526020016000205401611ace90919063ffffffff16565b9050809150505b919050565b600e5481565b6000803390506000600360008373ffffffffffffffffffffffffffffffffffffffff1673ffffffffffffffffffffffffffffffffffffffff1681526020019081526020016000205414610ffb5760009150506110c5565b6000806110088386611178565b9150600260008473ffffffffffffffffffffffffffffffffffffffff1673ffffffffffffffffffffffffffffffffffffffff16815260200190815260200160002054905060001515821515141561106557600093505050506110c5565b61106f8342611112565b61107f83868360075402026110ca565b600460008473ffffffffffffffffffffffffffffffffffffffff1673ffffffffffffffffffffffffffffffffffffffff1681526020019081526020016000205493505050505b919050565b80600460008473ffffffffffffffffffffffffffffffffffffffff1673ffffffffffffffffffffffffffffffffffffffff168152602001908152602001600020819055505050565b80600360008473ffffffffffffffffffffffffffffffffffffffff1673ffffffffffffffffffffffffffffffffffffffff168152602001908152602001600020819055505050565b60036020528060005260406000206000915090505481565b600a5481565b600080826005600260008773ffffffffffffffffffffffffffffffffffffffff1673ffffffffffffffffffffffffffffffffffffffff16815260200190815260200160002054601902030290506000836005600260008873ffffffffffffffffffffffffffffffffffffffff1673ffffffffffffffffffffffffffffffffffffffff16815260200190815260200160002054601902030290506000846005600260008973ffffffffffffffffffffffffffffffffffffffff1673ffffffffffffffffffffffffffffffffffffffff16815260200190815260200160002054601902030290506000809054906101000a900473ffffffffffffffffffffffffffffffffffffffff1673ffffffffffffffffffffffffffffffffffffffff16631e9ac0bf87856000866000876040518763ffffffff1660e01b8152600401808773ffffffffffffffffffffffffffffffffffffffff1673ffffffffffffffffffffffffffffffffffffffff1681526020018681526020018581526020018481526020018381526020018281526020019650505050505050602060405180830381600087803b15801561132757600080fd5b505af115801561133b573d6000803e3d6000fd5b505050506040513d602081101561135157600080fd5b8101908080519060200190929190505050935050505092915050565b60016020528060005260406000206000915090505481565b60046020528060005260406000206000915090505481565b60095481565b600080607d600260008573ffffffffffffffffffffffffffffffffffffffff1673ffffffffffffffffffffffffffffffffffffffff168152602001908152602001600020546101f4020390506000607d600260008673ffffffffffffffffffffffffffffffffffffffff1673ffffffffffffffffffffffffffffffffffffffff168152602001908152602001600020546101f4020390506000607d600260008773ffffffffffffffffffffffffffffffffffffffff1673ffffffffffffffffffffffffffffffffffffffff168152602001908152602001600020546101f4020390506001600260008773ffffffffffffffffffffffffffffffffffffffff1673ffffffffffffffffffffffffffffffffffffffff168152602001908152602001600020600082825401925050819055506000809054906101000a900473ffffffffffffffffffffffffffffffffffffffff1673ffffffffffffffffffffffffffffffffffffffff16631e9ac0bf86856000866000876040518763ffffffff1660e01b8152600401808773ffffffffffffffffffffffffffffffffffffffff1673ffffffffffffffffffffffffffffffffffffffff1681526020018681526020018581526020018481526020018381526020018281526020019650505050505050602060405180830381600087803b15801561159d57600080fd5b505af11580156115b1573d6000803e3d6000fd5b505050506040513d60208110156115c757600080fd5b81019080805190602001909291905050509350505050919050565b6000806000806000809054906101000a900473ffffffffffffffffffffffffffffffffffffffff1673ffffffffffffffffffffffffffffffffffffffff16636bf67718866040518263ffffffff1660e01b8152600401808273ffffffffffffffffffffffffffffffffffffffff1673ffffffffffffffffffffffffffffffffffffffff16815260200191505060206040518083038186803b15801561168657600080fd5b505afa15801561169a573d6000803e3d6000fd5b505050506040513d60208110156116b057600080fd5b81019080805190602001909291905050506000809054906101000a900473ffffffffffffffffffffffffffffffffffffffff1673ffffffffffffffffffffffffffffffffffffffff16636bf67718886040518263ffffffff1660e01b8152600401808273ffffffffffffffffffffffffffffffffffffffff1673ffffffffffffffffffffffffffffffffffffffff16815260200191505060206040518083038186803b15801561175f57600080fd5b505afa158015611773573d6000803e3d6000fd5b505050506040513d602081101561178957600080fd5b810190808051906020019092919050505011156117af57859250849150600190506117ba565b849250859150600090505b80935050505092915050565b60026020528060005260406000206000915090505481565b6000600160008373ffffffffffffffffffffffffffffffffffffffff1673ffffffffffffffffffffffffffffffffffffffff168152602001908152602001600020549050919050565b600b5481565b6000809054906101000a900473ffffffffffffffffffffffffffffffffffffffff1673ffffffffffffffffffffffffffffffffffffffff1663e0a7cbdd82600260008573ffffffffffffffffffffffffffffffffffffffff1673ffffffffffffffffffffffffffffffffffffffff16815260200190815260200160002054600160008673ffffffffffffffffffffffffffffffffffffffff1673ffffffffffffffffffffffffffffffffffffffff16815260200190815260200160002054026040518363ffffffff1660e01b8152600401808373ffffffffffffffffffffffffffffffffffffffff1673ffffffffffffffffffffffffffffffffffffffff16815260200182815260200192505050600060405180830381600087803b15801561195557600080fd5b505af1158015611969573d6000803e3d6000fd5b5050505050565b600c5481565b6000808284019050838110156119f4576040517f08c379a000000000000000000000000000000000000000000000000000000000815260040180806020018281038252601b8152602001807f536166654d6174683a206164646974696f6e206f766572666c6f77000000000081525060200191505060405180910390fd5b8091505092915050565b600080831415611a115760009050611a7e565b6000828402905082848281611a2257fe5b0414611a79576040517f08c379a0000000000000000000000000000000000000000000000000000000008152600401808060200182810382526021815260200180611c9f6021913960400191505060405180910390fd5b809150505b92915050565b6000611ac683836040518060400160405280601a81526020017f536166654d6174683a206469766973696f6e206279207a65726f000000000000815250611b18565b905092915050565b6000611b1083836040518060400160405280601e81526020017f536166654d6174683a207375627472616374696f6e206f766572666c6f770000815250611bde565b905092915050565b60008083118290611bc4576040517f08c379a00000000000000000000000000000000000000000000000000000000081526004018080602001828103825283818151815260200191508051906020019080838360005b83811015611b89578082015181840152602081019050611b6e565b50505050905090810190601f168015611bb65780820380516001836020036101000a031916815260200191505b509250505060405180910390fd5b506000838581611bd057fe5b049050809150509392505050565b6000838311158290611c8b576040517f08c379a00000000000000000000000000000000000000000000000000000000081526004018080602001828103825283818151815260200191508051906020019080838360005b83811015611c50578082015181840152602081019050611c35565b50505050905090810190601f168015611c7d5780820380516001836020036101000a031916815260200191505b509250505060405180910390fd5b506000838503905080915050939250505056fe536166654d6174683a206d756c7469706c69636174696f6e206f766572666c6f77a265627a7a72315820cb9a1b8b084821bc3b591020d5938d142ee59cdcf6fbbd0e0cdc212373b953e464736f6c63430005100032",
  "source": "pragma solidity >=0.4.21 <0.7.0;\n\nimport \"./Account.sol\";\n\ncontract Spy {\n\n    using SafeMath for uint;\n\n    Account accountInstance;\n    constructor(address _account_address) public {\n        accountInstance = Account(_account_address);\n    }\n\n    mapping (address => uint) public numOfSpy;\n\n    mapping (address => uint) public levelOfSpy;\n\n    mapping (address => uint) public ownerStartCreateTime;\n    mapping (address => uint) public ownerCreateSpyTime;\n    mapping (address => uint) public ownerStartUpgradeTime;\n    mapping (address => uint) public ownerUpgradeSpyTime;\n    uint public createSpyTime = 10;\n    uint public UpgradeSpyTime = 10;\n    \n    uint public spyHealth = 1;\n    uint public spyPower = 1;\n    uint public spyFrequency = 1;\n    uint public spyArmour = 1;\n    uint public spyCapacity = 1;\n    uint public spySpeed = 1;\n    \n\n    function setSpyLevel(address _owner, uint value) public {\n        levelOfSpy[_owner] = value;\n    }\n\n    function setStartCreateTime(address _owner, uint value) public {\n        ownerStartCreateTime[_owner] = value;\n    }\n\n    function setCreateSpyTime(address _owner, uint value) public {\n        ownerCreateSpyTime[_owner] = value;\n    }\n\n    function setStartUpgradeTime(address _owner, uint value) public {\n        ownerStartUpgradeTime[_owner] = value;\n    }\n\n    function setUpgradeSpyTime(address _owner, uint value) public {\n        ownerUpgradeSpyTime[_owner] = value;\n    }\n\n    function setNumOfSpy(address _owner, uint value) public {\n        numOfSpy[_owner] = value;\n    }\n\n\n    function _updateSpyPower(address _owner) public {\n        // power[_owner] = numOfSpy[_owner] * levelOfSpy[_owner];\n        accountInstance.setUserSpyPower(_owner, numOfSpy[_owner] * levelOfSpy[_owner]);\n    }\n\n    function _createSpy(address _owner, uint number) public returns(bool) {\n        uint foodCost = (25* levelOfSpy[_owner] - 5) * number;\n        uint ironCost = (25* levelOfSpy[_owner] - 5) * number;\n        uint coinCost = (25* levelOfSpy[_owner] - 5) * number;\n\n        return accountInstance.cost(_owner, foodCost, uint(0), ironCost, uint(0), coinCost);\n    }\n    \n    function _UpgradeSpy(address _owner) public returns(bool){\n        uint foodCost = 500* levelOfSpy[_owner] - 125;\n        uint ironCost = 500* levelOfSpy[_owner] - 125;\n        uint coinCost = 500* levelOfSpy[_owner] - 125;\n        levelOfSpy[_owner] += 1;\n        return accountInstance.cost(_owner, foodCost, uint(0), ironCost, uint(0), coinCost);\n    }\n\n    function getSpyAmount(address _owner) public view returns(uint) {\n        return numOfSpy[_owner];\n    }\n\n    function _spy(address myCastle, address attackedCastle) public view returns(bool) {\n        address winner;\n        address loser;\n        bool win;\n        //bool win = -1;\n\n        if (accountInstance.getUserSpyPower(myCastle) > accountInstance.getUserSpyPower(attackedCastle)){\n            winner = myCastle;\n            loser = attackedCastle;\n            win = true;\n        }\n        else {\n            winner = attackedCastle;\n            loser = myCastle;\n            win = false;\n        }\n        return win;\n    }\n\n    function sendSpy(uint _ownerId, uint _attackedCastleId) public view returns(bool) {\n        //require(msg.sender == accountInstance.convertCastleToOwner(_ownerId));\n        address myCastle = accountInstance.convertCastleToOwner(_ownerId);\n        address attackedCastle = accountInstance.convertCastleToOwner(_attackedCastleId);\n\n        //returns TRUE if spy of myCastle > attackedCastle\n        return _spy(myCastle, attackedCastle);\n    }\n\n\n    // return 0 if failed (maybe already creating or not enough resource) otherwise return createtime\n    function startCreateSpy(uint number) public returns(uint) {\n        address _owner = msg.sender;\n        if(ownerStartCreateTime[_owner] != 0) return uint(0); // check if there is already creating spys\n        bool enoughResource;\n        uint lvOfSpy;\n        enoughResource = _createSpy(_owner, number);\n        lvOfSpy =  levelOfSpy[_owner];\n        if(enoughResource == false) return uint(0);\n        setStartCreateTime(_owner, uint(now));\n        setCreateSpyTime(_owner, createSpyTime * lvOfSpy * number);\n        return ownerCreateSpyTime[_owner];\n    }\n\n    function getCreateSpyTime() public view returns(uint, uint) {\n        return ( now - ownerStartCreateTime[msg.sender], ownerCreateSpyTime[msg.sender] ) ;\n    }\n\n    // // return 0 if success else return remaining time\n    function updateCreateSpy(address _owner) public returns(uint) {\n        if (ownerStartCreateTime[_owner] == 0) return 0;\n        if (now >= ownerStartCreateTime[_owner].add(ownerCreateSpyTime[_owner])) {\n            uint num;\n            num = ownerCreateSpyTime[_owner].div(  levelOfSpy[_owner].mul(createSpyTime) );\n            setNumOfSpy(_owner, numOfSpy[_owner] + (num));\n            setStartCreateTime(_owner, 0);\n            setCreateSpyTime(_owner, 0);\n            _updateSpyPower(_owner);\n            return 0;\n        }\n        else {\n            uint remainingTime = (ownerStartCreateTime[_owner] + ownerCreateSpyTime[_owner]).sub(now);\n            return remainingTime;\n        }\n    }\n}",
  "sourcePath": "/Users/cyl/Desktop//NMlab_Final/contracts/Spy.sol",
  "compiler": {
    "name": "solc",
    "version": "0.5.16+commit.9c3226ce.Emscripten.clang"
  },
  "schemaVersion": "3.4.1",
  "updatedAt": "2021-06-22T16:53:26.493Z",
  "networkType": "ethereum",
  "devdoc": {
    "methods": {}
  },
  "userdoc": {
    "methods": {}
  }
}