{
  "contractName": "Spy",
  "abi": [
    {
      "constant": true,
      "inputs": [
        {
          "internalType": "uint256",
          "name": "",
          "type": "uint256"
        }
      ],
      "name": "castleToOwner",
      "outputs": [
        {
          "internalType": "address",
          "name": "",
          "type": "address"
        }
      ],
      "payable": false,
      "stateMutability": "view",
      "type": "function"
    },
    {
      "constant": true,
      "inputs": [],
      "name": "checkUserAddress",
      "outputs": [
        {
          "internalType": "bool",
          "name": "",
          "type": "bool"
        }
      ],
      "payable": false,
      "stateMutability": "view",
      "type": "function"
    },
    {
      "constant": true,
      "inputs": [
        {
          "internalType": "address",
          "name": "",
          "type": "address"
        }
      ],
      "name": "coinOwnerCount",
      "outputs": [
        {
          "internalType": "uint256",
          "name": "",
          "type": "uint256"
        }
      ],
      "payable": false,
      "stateMutability": "view",
      "type": "function"
    },
    {
      "constant": false,
      "inputs": [
        {
          "internalType": "address",
          "name": "_owner",
          "type": "address"
        },
        {
          "internalType": "uint256",
          "name": "food",
          "type": "uint256"
        },
        {
          "internalType": "uint256",
          "name": "wood",
          "type": "uint256"
        },
        {
          "internalType": "uint256",
          "name": "iron",
          "type": "uint256"
        },
        {
          "internalType": "uint256",
          "name": "stone",
          "type": "uint256"
        },
        {
          "internalType": "uint256",
          "name": "coin",
          "type": "uint256"
        }
      ],
      "name": "cost",
      "outputs": [
        {
          "internalType": "bool",
          "name": "",
          "type": "bool"
        }
      ],
      "payable": false,
      "stateMutability": "nonpayable",
      "type": "function"
    },
    {
      "constant": true,
      "inputs": [],
      "name": "createSpyTime",
      "outputs": [
        {
          "internalType": "uint256",
          "name": "",
          "type": "uint256"
        }
      ],
      "payable": false,
      "stateMutability": "view",
      "type": "function"
    },
    {
      "constant": true,
      "inputs": [
        {
          "internalType": "address",
          "name": "",
          "type": "address"
        }
      ],
      "name": "foodOwnerCount",
      "outputs": [
        {
          "internalType": "uint256",
          "name": "",
          "type": "uint256"
        }
      ],
      "payable": false,
      "stateMutability": "view",
      "type": "function"
    },
    {
      "constant": true,
      "inputs": [],
      "name": "getCoinAmount",
      "outputs": [
        {
          "internalType": "uint256",
          "name": "",
          "type": "uint256"
        }
      ],
      "payable": false,
      "stateMutability": "view",
      "type": "function"
    },
    {
      "constant": true,
      "inputs": [
        {
          "internalType": "address",
          "name": "_owner",
          "type": "address"
        }
      ],
      "name": "getCoinOwnerCount",
      "outputs": [
        {
          "internalType": "uint256",
          "name": "",
          "type": "uint256"
        }
      ],
      "payable": false,
      "stateMutability": "view",
      "type": "function"
    },
    {
      "constant": true,
      "inputs": [],
      "name": "getFoodAmount",
      "outputs": [
        {
          "internalType": "uint256",
          "name": "",
          "type": "uint256"
        }
      ],
      "payable": false,
      "stateMutability": "view",
      "type": "function"
    },
    {
      "constant": true,
      "inputs": [
        {
          "internalType": "address",
          "name": "_owner",
          "type": "address"
        }
      ],
      "name": "getFoodOwnerCount",
      "outputs": [
        {
          "internalType": "uint256",
          "name": "",
          "type": "uint256"
        }
      ],
      "payable": false,
      "stateMutability": "view",
      "type": "function"
    },
    {
      "constant": true,
      "inputs": [],
      "name": "getIronAmount",
      "outputs": [
        {
          "internalType": "uint256",
          "name": "",
          "type": "uint256"
        }
      ],
      "payable": false,
      "stateMutability": "view",
      "type": "function"
    },
    {
      "constant": true,
      "inputs": [
        {
          "internalType": "address",
          "name": "_owner",
          "type": "address"
        }
      ],
      "name": "getIronOwnerCount",
      "outputs": [
        {
          "internalType": "uint256",
          "name": "",
          "type": "uint256"
        }
      ],
      "payable": false,
      "stateMutability": "view",
      "type": "function"
    },
    {
      "constant": true,
      "inputs": [],
      "name": "getKingdomAmount",
      "outputs": [
        {
          "internalType": "uint256",
          "name": "",
          "type": "uint256"
        }
      ],
      "payable": false,
      "stateMutability": "view",
      "type": "function"
    },
    {
      "constant": true,
      "inputs": [],
      "name": "getMyIdx",
      "outputs": [
        {
          "internalType": "uint256",
          "name": "",
          "type": "uint256"
        }
      ],
      "payable": false,
      "stateMutability": "view",
      "type": "function"
    },
    {
      "constant": true,
      "inputs": [],
      "name": "getStoneAmount",
      "outputs": [
        {
          "internalType": "uint256",
          "name": "",
          "type": "uint256"
        }
      ],
      "payable": false,
      "stateMutability": "view",
      "type": "function"
    },
    {
      "constant": true,
      "inputs": [
        {
          "internalType": "address",
          "name": "_owner",
          "type": "address"
        }
      ],
      "name": "getStoneOwnerCount",
      "outputs": [
        {
          "internalType": "uint256",
          "name": "",
          "type": "uint256"
        }
      ],
      "payable": false,
      "stateMutability": "view",
      "type": "function"
    },
    {
      "constant": true,
      "inputs": [
        {
          "internalType": "address",
          "name": "idx",
          "type": "address"
        }
      ],
      "name": "getUserHealth",
      "outputs": [
        {
          "internalType": "uint256",
          "name": "",
          "type": "uint256"
        }
      ],
      "payable": false,
      "stateMutability": "view",
      "type": "function"
    },
    {
      "constant": true,
      "inputs": [
        {
          "internalType": "address",
          "name": "idx",
          "type": "address"
        }
      ],
      "name": "getUserPower",
      "outputs": [
        {
          "internalType": "uint256",
          "name": "",
          "type": "uint256"
        }
      ],
      "payable": false,
      "stateMutability": "view",
      "type": "function"
    },
    {
      "constant": true,
      "inputs": [
        {
          "internalType": "address",
          "name": "idx",
          "type": "address"
        }
      ],
      "name": "getUserSpyPower",
      "outputs": [
        {
          "internalType": "uint256",
          "name": "",
          "type": "uint256"
        }
      ],
      "payable": false,
      "stateMutability": "view",
      "type": "function"
    },
    {
      "constant": true,
      "inputs": [],
      "name": "getWoodAmount",
      "outputs": [
        {
          "internalType": "uint256",
          "name": "",
          "type": "uint256"
        }
      ],
      "payable": false,
      "stateMutability": "view",
      "type": "function"
    },
    {
      "constant": true,
      "inputs": [
        {
          "internalType": "address",
          "name": "_owner",
          "type": "address"
        }
      ],
      "name": "getWoodOwnerCount",
      "outputs": [
        {
          "internalType": "uint256",
          "name": "",
          "type": "uint256"
        }
      ],
      "payable": false,
      "stateMutability": "view",
      "type": "function"
    },
    {
      "constant": true,
      "inputs": [
        {
          "internalType": "address",
          "name": "",
          "type": "address"
        }
      ],
      "name": "health",
      "outputs": [
        {
          "internalType": "uint256",
          "name": "",
          "type": "uint256"
        }
      ],
      "payable": false,
      "stateMutability": "view",
      "type": "function"
    },
    {
      "constant": false,
      "inputs": [
        {
          "internalType": "address",
          "name": "_owner",
          "type": "address"
        }
      ],
      "name": "initializeKingdom",
      "outputs": [],
      "payable": false,
      "stateMutability": "nonpayable",
      "type": "function"
    },
    {
      "constant": true,
      "inputs": [
        {
          "internalType": "address",
          "name": "",
          "type": "address"
        }
      ],
      "name": "ironOwnerCount",
      "outputs": [
        {
          "internalType": "uint256",
          "name": "",
          "type": "uint256"
        }
      ],
      "payable": false,
      "stateMutability": "view",
      "type": "function"
    },
    {
      "constant": true,
      "inputs": [],
      "name": "kingdomAmount",
      "outputs": [
        {
          "internalType": "uint256",
          "name": "",
          "type": "uint256"
        }
      ],
      "payable": false,
      "stateMutability": "view",
      "type": "function"
    },
    {
      "constant": true,
      "inputs": [
        {
          "internalType": "address",
          "name": "",
          "type": "address"
        }
      ],
      "name": "levelOfSpy",
      "outputs": [
        {
          "internalType": "uint256",
          "name": "",
          "type": "uint256"
        }
      ],
      "payable": false,
      "stateMutability": "view",
      "type": "function"
    },
    {
      "constant": true,
      "inputs": [],
      "name": "levelUpSpyTime",
      "outputs": [
        {
          "internalType": "uint256",
          "name": "",
          "type": "uint256"
        }
      ],
      "payable": false,
      "stateMutability": "view",
      "type": "function"
    },
    {
      "constant": true,
      "inputs": [
        {
          "internalType": "address",
          "name": "",
          "type": "address"
        }
      ],
      "name": "numOfSpy",
      "outputs": [
        {
          "internalType": "uint256",
          "name": "",
          "type": "uint256"
        }
      ],
      "payable": false,
      "stateMutability": "view",
      "type": "function"
    },
    {
      "constant": true,
      "inputs": [
        {
          "internalType": "address",
          "name": "",
          "type": "address"
        }
      ],
      "name": "ownerCastleCount",
      "outputs": [
        {
          "internalType": "uint256",
          "name": "",
          "type": "uint256"
        }
      ],
      "payable": false,
      "stateMutability": "view",
      "type": "function"
    },
    {
      "constant": true,
      "inputs": [
        {
          "internalType": "address",
          "name": "",
          "type": "address"
        }
      ],
      "name": "ownerCreateSpyTime",
      "outputs": [
        {
          "internalType": "uint256",
          "name": "",
          "type": "uint256"
        }
      ],
      "payable": false,
      "stateMutability": "view",
      "type": "function"
    },
    {
      "constant": true,
      "inputs": [
        {
          "internalType": "address",
          "name": "",
          "type": "address"
        }
      ],
      "name": "ownerStartCreateTime",
      "outputs": [
        {
          "internalType": "uint256",
          "name": "",
          "type": "uint256"
        }
      ],
      "payable": false,
      "stateMutability": "view",
      "type": "function"
    },
    {
      "constant": true,
      "inputs": [
        {
          "internalType": "address",
          "name": "",
          "type": "address"
        }
      ],
      "name": "ownerStartLevelUpTime",
      "outputs": [
        {
          "internalType": "uint256",
          "name": "",
          "type": "uint256"
        }
      ],
      "payable": false,
      "stateMutability": "view",
      "type": "function"
    },
    {
      "constant": true,
      "inputs": [
        {
          "internalType": "address",
          "name": "",
          "type": "address"
        }
      ],
      "name": "power",
      "outputs": [
        {
          "internalType": "uint256",
          "name": "",
          "type": "uint256"
        }
      ],
      "payable": false,
      "stateMutability": "view",
      "type": "function"
    },
    {
      "constant": false,
      "inputs": [
        {
          "internalType": "address",
          "name": "_owner",
          "type": "address"
        },
        {
          "internalType": "uint256",
          "name": "value",
          "type": "uint256"
        }
      ],
      "name": "setCoinOwnerCount",
      "outputs": [],
      "payable": false,
      "stateMutability": "nonpayable",
      "type": "function"
    },
    {
      "constant": false,
      "inputs": [
        {
          "internalType": "address",
          "name": "_owner",
          "type": "address"
        },
        {
          "internalType": "uint256",
          "name": "value",
          "type": "uint256"
        }
      ],
      "name": "setFoodOwnerCount",
      "outputs": [],
      "payable": false,
      "stateMutability": "nonpayable",
      "type": "function"
    },
    {
      "constant": false,
      "inputs": [
        {
          "internalType": "address",
          "name": "_owner",
          "type": "address"
        },
        {
          "internalType": "uint256",
          "name": "value",
          "type": "uint256"
        }
      ],
      "name": "setIronOwnerCount",
      "outputs": [],
      "payable": false,
      "stateMutability": "nonpayable",
      "type": "function"
    },
    {
      "constant": false,
      "inputs": [
        {
          "internalType": "address",
          "name": "_owner",
          "type": "address"
        },
        {
          "internalType": "uint256",
          "name": "value",
          "type": "uint256"
        }
      ],
      "name": "setStoneOwnerCount",
      "outputs": [],
      "payable": false,
      "stateMutability": "nonpayable",
      "type": "function"
    },
    {
      "constant": false,
      "inputs": [
        {
          "internalType": "address",
          "name": "idx",
          "type": "address"
        },
        {
          "internalType": "uint256",
          "name": "value",
          "type": "uint256"
        }
      ],
      "name": "setUserHealth",
      "outputs": [],
      "payable": false,
      "stateMutability": "nonpayable",
      "type": "function"
    },
    {
      "constant": false,
      "inputs": [
        {
          "internalType": "address",
          "name": "idx",
          "type": "address"
        },
        {
          "internalType": "uint256",
          "name": "value",
          "type": "uint256"
        }
      ],
      "name": "setUserPower",
      "outputs": [],
      "payable": false,
      "stateMutability": "nonpayable",
      "type": "function"
    },
    {
      "constant": false,
      "inputs": [
        {
          "internalType": "address",
          "name": "idx",
          "type": "address"
        },
        {
          "internalType": "uint256",
          "name": "value",
          "type": "uint256"
        }
      ],
      "name": "setUserSpyPower",
      "outputs": [],
      "payable": false,
      "stateMutability": "nonpayable",
      "type": "function"
    },
    {
      "constant": false,
      "inputs": [
        {
          "internalType": "address",
          "name": "_owner",
          "type": "address"
        },
        {
          "internalType": "uint256",
          "name": "value",
          "type": "uint256"
        }
      ],
      "name": "setWoodOwnerCount",
      "outputs": [],
      "payable": false,
      "stateMutability": "nonpayable",
      "type": "function"
    },
    {
      "constant": true,
      "inputs": [
        {
          "internalType": "address",
          "name": "",
          "type": "address"
        }
      ],
      "name": "spyPower",
      "outputs": [
        {
          "internalType": "uint256",
          "name": "",
          "type": "uint256"
        }
      ],
      "payable": false,
      "stateMutability": "view",
      "type": "function"
    },
    {
      "constant": true,
      "inputs": [
        {
          "internalType": "address",
          "name": "",
          "type": "address"
        }
      ],
      "name": "stoneOwnerCount",
      "outputs": [
        {
          "internalType": "uint256",
          "name": "",
          "type": "uint256"
        }
      ],
      "payable": false,
      "stateMutability": "view",
      "type": "function"
    },
    {
      "constant": true,
      "inputs": [
        {
          "internalType": "address",
          "name": "",
          "type": "address"
        }
      ],
      "name": "woodOwnerCount",
      "outputs": [
        {
          "internalType": "uint256",
          "name": "",
          "type": "uint256"
        }
      ],
      "payable": false,
      "stateMutability": "view",
      "type": "function"
    },
    {
      "constant": true,
      "inputs": [
        {
          "internalType": "address",
          "name": "_owner",
          "type": "address"
        }
      ],
      "name": "getSpyAmount",
      "outputs": [
        {
          "internalType": "uint256",
          "name": "",
          "type": "uint256"
        }
      ],
      "payable": false,
      "stateMutability": "view",
      "type": "function"
    },
    {
      "constant": false,
      "inputs": [
        {
          "internalType": "uint256",
          "name": "_ownerId",
          "type": "uint256"
        },
        {
          "internalType": "uint256",
          "name": "_attackedCastleId",
          "type": "uint256"
        }
      ],
      "name": "sendSpy",
      "outputs": [
        {
          "internalType": "bool",
          "name": "",
          "type": "bool"
        }
      ],
      "payable": false,
      "stateMutability": "nonpayable",
      "type": "function"
    }
  ],
  "bytecode": "0x60806040526010600b55600b54600a0a600c55600a601255600a60135534801561002857600080fd5b5061230c806100386000396000f3fe608060405234801561001057600080fd5b506004361061028a5760003560e01c80638919a9ca1161015c578063e21843fd116100ce578063ef78b6dc11610087578063ef78b6dc14610ded578063f064b42b14610e45578063f4ab27f014610e89578063f9d6c03b14610ef7578063fd8ccf2714610f4f578063ff4581f114610f6d5761028a565b8063e21843fd14610be7578063e2d8ebee14610c3f578063e428afa014610c97578063e5b285f214610cef578063e9933a4b14610d47578063e9df149814610d9f5761028a565b8063af3437ae11610120578063af3437ae14610a25578063af7cd0e514610a7d578063b5c3e40214610acb578063ccf358a414610b23578063de63415214610b41578063e0a7cbdd14610b995761028a565b80638919a9ca146108b75780639073af81146108d95780639e72301314610931578063a50316ec14610989578063a580af02146109d75761028a565b8063503371a5116102005780636f60f1df116101b95780636f60f1df14610725578063789630be1461077d5780637e2b875b1461079b5780638226e530146107b9578063867b84e21461081157806388adb7e0146108695761028a565b8063503371a5146105935780635ad60993146105eb578063623e9ba61461060957806364afdf07146106275780636bf67718146106755780636ed82fbb146106cd5761028a565b80631e9ac0bf116102525780631e9ac0bf146103915780633c4265991461041f57806341d42330146104775780634454be42146104cf57806346125f841461051d5780634807c3d5146105755761028a565b80630194b6131461028f57806302931e59146102df578063194c717b146103375780631a653e8b146103555780631c980beb14610373575b600080fd5b6102c5600480360360408110156102a557600080fd5b810190808035906020019092919080359060200190929190505050610fc5565b604051808215151515815260200191505060405180910390f35b610321600480360360208110156102f557600080fd5b81019080803573ffffffffffffffffffffffffffffffffffffffff1690602001909291905050506110b6565b6040518082815260200191505060405180910390f35b61033f6110ff565b6040518082815260200191505060405180910390f35b61035d611105565b6040518082815260200191505060405180910390f35b61037b61110b565b6040518082815260200191505060405180910390f35b610405600480360360c08110156103a757600080fd5b81019080803573ffffffffffffffffffffffffffffffffffffffff1690602001909291908035906020019092919080359060200190929190803590602001909291908035906020019092919080359060200190929190505050611151565b604051808215151515815260200191505060405180910390f35b6104616004803603602081101561043557600080fd5b81019080803573ffffffffffffffffffffffffffffffffffffffff1690602001909291905050506115c5565b6040518082815260200191505060405180910390f35b6104b96004803603602081101561048d57600080fd5b81019080803573ffffffffffffffffffffffffffffffffffffffff16906020019092919050505061160d565b6040518082815260200191505060405180910390f35b61051b600480360360408110156104e557600080fd5b81019080803573ffffffffffffffffffffffffffffffffffffffff16906020019092919080359060200190929190505050611656565b005b61055f6004803603602081101561053357600080fd5b81019080803573ffffffffffffffffffffffffffffffffffffffff16906020019092919050505061169e565b6040518082815260200191505060405180910390f35b61057d6116b6565b6040518082815260200191505060405180910390f35b6105d5600480360360208110156105a957600080fd5b81019080803573ffffffffffffffffffffffffffffffffffffffff1690602001909291905050506116bc565b6040518082815260200191505060405180910390f35b6105f36116d4565b6040518082815260200191505060405180910390f35b61061161171b565b6040518082815260200191505060405180910390f35b6106736004803603604081101561063d57600080fd5b81019080803573ffffffffffffffffffffffffffffffffffffffff16906020019092919080359060200190929190505050611762565b005b6106b76004803603602081101561068b57600080fd5b81019080803573ffffffffffffffffffffffffffffffffffffffff1690602001909291905050506117aa565b6040518082815260200191505060405180910390f35b61070f600480360360208110156106e357600080fd5b81019080803573ffffffffffffffffffffffffffffffffffffffff1690602001909291905050506117f3565b6040518082815260200191505060405180910390f35b6107676004803603602081101561073b57600080fd5b81019080803573ffffffffffffffffffffffffffffffffffffffff16906020019092919050505061183c565b6040518082815260200191505060405180910390f35b610785611885565b6040518082815260200191505060405180910390f35b6107a361191c565b6040518082815260200191505060405180910390f35b6107fb600480360360208110156107cf57600080fd5b81019080803573ffffffffffffffffffffffffffffffffffffffff169060200190929190505050611926565b6040518082815260200191505060405180910390f35b6108536004803603602081101561082757600080fd5b81019080803573ffffffffffffffffffffffffffffffffffffffff16906020019092919050505061193e565b6040518082815260200191505060405180910390f35b6108b56004803603604081101561087f57600080fd5b81019080803573ffffffffffffffffffffffffffffffffffffffff16906020019092919080359060200190929190505050611956565b005b6108bf61199e565b604051808215151515815260200191505060405180910390f35b61091b600480360360208110156108ef57600080fd5b81019080803573ffffffffffffffffffffffffffffffffffffffff1690602001909291905050506119f8565b6040518082815260200191505060405180910390f35b6109736004803603602081101561094757600080fd5b81019080803573ffffffffffffffffffffffffffffffffffffffff169060200190929190505050611a10565b6040518082815260200191505060405180910390f35b6109d56004803603604081101561099f57600080fd5b81019080803573ffffffffffffffffffffffffffffffffffffffff16906020019092919080359060200190929190505050611a59565b005b610a23600480360360408110156109ed57600080fd5b81019080803573ffffffffffffffffffffffffffffffffffffffff16906020019092919080359060200190929190505050611aa1565b005b610a6760048036036020811015610a3b57600080fd5b81019080803573ffffffffffffffffffffffffffffffffffffffff169060200190929190505050611ae9565b6040518082815260200191505060405180910390f35b610ac960048036036040811015610a9357600080fd5b81019080803573ffffffffffffffffffffffffffffffffffffffff16906020019092919080359060200190929190505050611b01565b005b610b0d60048036036020811015610ae157600080fd5b81019080803573ffffffffffffffffffffffffffffffffffffffff169060200190929190505050611b49565b6040518082815260200191505060405180910390f35b610b2b611b61565b6040518082815260200191505060405180910390f35b610b8360048036036020811015610b5757600080fd5b81019080803573ffffffffffffffffffffffffffffffffffffffff169060200190929190505050611ba8565b6040518082815260200191505060405180910390f35b610be560048036036040811015610baf57600080fd5b81019080803573ffffffffffffffffffffffffffffffffffffffff16906020019092919080359060200190929190505050611bc0565b005b610c2960048036036020811015610bfd57600080fd5b81019080803573ffffffffffffffffffffffffffffffffffffffff169060200190929190505050611c08565b6040518082815260200191505060405180910390f35b610c8160048036036020811015610c5557600080fd5b81019080803573ffffffffffffffffffffffffffffffffffffffff169060200190929190505050611c51565b6040518082815260200191505060405180910390f35b610cd960048036036020811015610cad57600080fd5b81019080803573ffffffffffffffffffffffffffffffffffffffff169060200190929190505050611c69565b6040518082815260200191505060405180910390f35b610d3160048036036020811015610d0557600080fd5b81019080803573ffffffffffffffffffffffffffffffffffffffff169060200190929190505050611c81565b6040518082815260200191505060405180910390f35b610d8960048036036020811015610d5d57600080fd5b81019080803573ffffffffffffffffffffffffffffffffffffffff169060200190929190505050611c99565b6040518082815260200191505060405180910390f35b610deb60048036036040811015610db557600080fd5b81019080803573ffffffffffffffffffffffffffffffffffffffff16906020019092919080359060200190929190505050611cb1565b005b610e2f60048036036020811015610e0357600080fd5b81019080803573ffffffffffffffffffffffffffffffffffffffff169060200190929190505050611cf8565b6040518082815260200191505060405180910390f35b610e8760048036036020811015610e5b57600080fd5b81019080803573ffffffffffffffffffffffffffffffffffffffff169060200190929190505050611d10565b005b610eb560048036036020811015610e9f57600080fd5b8101908080359060200190929190505050612040565b604051808273ffffffffffffffffffffffffffffffffffffffff1673ffffffffffffffffffffffffffffffffffffffff16815260200191505060405180910390f35b610f3960048036036020811015610f0d57600080fd5b81019080803573ffffffffffffffffffffffffffffffffffffffff169060200190929190505050612073565b6040518082815260200191505060405180910390f35b610f576120bc565b6040518082815260200191505060405180910390f35b610faf60048036036020811015610f8357600080fd5b81019080803573ffffffffffffffffffffffffffffffffffffffff169060200190929190505050612103565b6040518082815260200191505060405180910390f35b60006009600084815260200190815260200160002060009054906101000a900473ffffffffffffffffffffffffffffffffffffffff1673ffffffffffffffffffffffffffffffffffffffff163373ffffffffffffffffffffffffffffffffffffffff161461103257600080fd5b60006009600085815260200190815260200160002060009054906101000a900473ffffffffffffffffffffffffffffffffffffffff16905060006009600085815260200190815260200160002060009054906101000a900473ffffffffffffffffffffffffffffffffffffffff1690506110ac828261211b565b9250505092915050565b6000600560008373ffffffffffffffffffffffffffffffffffffffff1673ffffffffffffffffffffffffffffffffffffffff168152602001908152602001600020549050919050565b60085481565b60135481565b60008060003373ffffffffffffffffffffffffffffffffffffffff1673ffffffffffffffffffffffffffffffffffffffff16815260200190815260200160002054905090565b600085600260008973ffffffffffffffffffffffffffffffffffffffff1673ffffffffffffffffffffffffffffffffffffffff16815260200190815260200160002054101580156111e1575084600460008973ffffffffffffffffffffffffffffffffffffffff1673ffffffffffffffffffffffffffffffffffffffff1681526020019081526020016000205410155b801561122c575083600160008973ffffffffffffffffffffffffffffffffffffffff1673ffffffffffffffffffffffffffffffffffffffff1681526020019081526020016000205410155b80156112765750826000808973ffffffffffffffffffffffffffffffffffffffff1673ffffffffffffffffffffffffffffffffffffffff1681526020019081526020016000205410155b80156112c1575081600360008973ffffffffffffffffffffffffffffffffffffffff1673ffffffffffffffffffffffffffffffffffffffff1681526020019081526020016000205410155b156115b65761131886600260008a73ffffffffffffffffffffffffffffffffffffffff1673ffffffffffffffffffffffffffffffffffffffff168152602001908152602001600020546121cd90919063ffffffff16565b600260008973ffffffffffffffffffffffffffffffffffffffff1673ffffffffffffffffffffffffffffffffffffffff168152602001908152602001600020819055506113ad85600460008a73ffffffffffffffffffffffffffffffffffffffff1673ffffffffffffffffffffffffffffffffffffffff168152602001908152602001600020546121cd90919063ffffffff16565b600460008973ffffffffffffffffffffffffffffffffffffffff1673ffffffffffffffffffffffffffffffffffffffff1681526020019081526020016000208190555061144284600160008a73ffffffffffffffffffffffffffffffffffffffff1673ffffffffffffffffffffffffffffffffffffffff168152602001908152602001600020546121cd90919063ffffffff16565b600160008973ffffffffffffffffffffffffffffffffffffffff1673ffffffffffffffffffffffffffffffffffffffff168152602001908152602001600020819055506114d6836000808a73ffffffffffffffffffffffffffffffffffffffff1673ffffffffffffffffffffffffffffffffffffffff168152602001908152602001600020546121cd90919063ffffffff16565b6000808973ffffffffffffffffffffffffffffffffffffffff1673ffffffffffffffffffffffffffffffffffffffff1681526020019081526020016000208190555061156a82600360008a73ffffffffffffffffffffffffffffffffffffffff1673ffffffffffffffffffffffffffffffffffffffff168152602001908152602001600020546121cd90919063ffffffff16565b600360008973ffffffffffffffffffffffffffffffffffffffff1673ffffffffffffffffffffffffffffffffffffffff16815260200190815260200160002081905550600190506115bb565b600090505b9695505050505050565b60008060008373ffffffffffffffffffffffffffffffffffffffff1673ffffffffffffffffffffffffffffffffffffffff168152602001908152602001600020549050919050565b6000600260008373ffffffffffffffffffffffffffffffffffffffff1673ffffffffffffffffffffffffffffffffffffffff168152602001908152602001600020549050919050565b80600160008473ffffffffffffffffffffffffffffffffffffffff1673ffffffffffffffffffffffffffffffffffffffff168152602001908152602001600020819055505050565b600a6020528060005260406000206000915090505481565b60125481565b60056020528060005260406000206000915090505481565b6000600260003373ffffffffffffffffffffffffffffffffffffffff1673ffffffffffffffffffffffffffffffffffffffff16815260200190815260200160002054905090565b6000600360003373ffffffffffffffffffffffffffffffffffffffff1673ffffffffffffffffffffffffffffffffffffffff16815260200190815260200160002054905090565b80600460008473ffffffffffffffffffffffffffffffffffffffff1673ffffffffffffffffffffffffffffffffffffffff168152602001908152602001600020819055505050565b6000600760008373ffffffffffffffffffffffffffffffffffffffff1673ffffffffffffffffffffffffffffffffffffffff168152602001908152602001600020549050919050565b6000600360008373ffffffffffffffffffffffffffffffffffffffff1673ffffffffffffffffffffffffffffffffffffffff168152602001908152602001600020549050919050565b6000600460008373ffffffffffffffffffffffffffffffffffffffff1673ffffffffffffffffffffffffffffffffffffffff168152602001908152602001600020549050919050565b600080600090505b600854811015611912573373ffffffffffffffffffffffffffffffffffffffff166009600083815260200190815260200160002060009054906101000a900473ffffffffffffffffffffffffffffffffffffffff1673ffffffffffffffffffffffffffffffffffffffff1614156119075780915050611919565b80600101905061188d565b5060085490505b90565b6000600854905090565b60016020528060005260406000206000915090505481565b60046020528060005260406000206000915090505481565b80600560008473ffffffffffffffffffffffffffffffffffffffff1673ffffffffffffffffffffffffffffffffffffffff168152602001908152602001600020819055505050565b600080600a60003373ffffffffffffffffffffffffffffffffffffffff1673ffffffffffffffffffffffffffffffffffffffff1681526020019081526020016000205411156119f057600190506119f5565b600090505b90565b600f6020528060005260406000206000915090505481565b6000600160008373ffffffffffffffffffffffffffffffffffffffff1673ffffffffffffffffffffffffffffffffffffffff168152602001908152602001600020549050919050565b80600660008473ffffffffffffffffffffffffffffffffffffffff1673ffffffffffffffffffffffffffffffffffffffff168152602001908152602001600020819055505050565b80600360008473ffffffffffffffffffffffffffffffffffffffff1673ffffffffffffffffffffffffffffffffffffffff168152602001908152602001600020819055505050565b600d6020528060005260406000206000915090505481565b80600260008473ffffffffffffffffffffffffffffffffffffffff1673ffffffffffffffffffffffffffffffffffffffff168152602001908152602001600020819055505050565b60106020528060005260406000206000915090505481565b6000600460003373ffffffffffffffffffffffffffffffffffffffff1673ffffffffffffffffffffffffffffffffffffffff16815260200190815260200160002054905090565b600e6020528060005260406000206000915090505481565b80600760008473ffffffffffffffffffffffffffffffffffffffff1673ffffffffffffffffffffffffffffffffffffffff168152602001908152602001600020819055505050565b6000600d60008373ffffffffffffffffffffffffffffffffffffffff1673ffffffffffffffffffffffffffffffffffffffff168152602001908152602001600020549050919050565b60066020528060005260406000206000915090505481565b60006020528060005260406000206000915090505481565b60026020528060005260406000206000915090505481565b60076020528060005260406000206000915090505481565b806000808473ffffffffffffffffffffffffffffffffffffffff1673ffffffffffffffffffffffffffffffffffffffff168152602001908152602001600020819055505050565b60036020528060005260406000206000915090505481565b6000600a60008373ffffffffffffffffffffffffffffffffffffffff1673ffffffffffffffffffffffffffffffffffffffff1681526020019081526020016000205414611d5c57600080fd5b8060096000600854815260200190815260200160002060006101000a81548173ffffffffffffffffffffffffffffffffffffffff021916908373ffffffffffffffffffffffffffffffffffffffff160217905550600860008154809291906001019190505550600a60008273ffffffffffffffffffffffffffffffffffffffff1673ffffffffffffffffffffffffffffffffffffffff16815260200190815260200160002060008154809291906001019190505550612710600260008373ffffffffffffffffffffffffffffffffffffffff1673ffffffffffffffffffffffffffffffffffffffff16815260200190815260200160002081905550612710600460008373ffffffffffffffffffffffffffffffffffffffff1673ffffffffffffffffffffffffffffffffffffffff168152602001908152602001600020819055506127106000808373ffffffffffffffffffffffffffffffffffffffff1673ffffffffffffffffffffffffffffffffffffffff16815260200190815260200160002081905550612710600160008373ffffffffffffffffffffffffffffffffffffffff1673ffffffffffffffffffffffffffffffffffffffff16815260200190815260200160002081905550612710600360008373ffffffffffffffffffffffffffffffffffffffff1673ffffffffffffffffffffffffffffffffffffffff168152602001908152602001600020819055506000600560008373ffffffffffffffffffffffffffffffffffffffff1673ffffffffffffffffffffffffffffffffffffffff168152602001908152602001600020819055506000600660008373ffffffffffffffffffffffffffffffffffffffff1673ffffffffffffffffffffffffffffffffffffffff168152602001908152602001600020819055506000600760008373ffffffffffffffffffffffffffffffffffffffff1673ffffffffffffffffffffffffffffffffffffffff1681526020019081526020016000208190555050565b60096020528060005260406000206000915054906101000a900473ffffffffffffffffffffffffffffffffffffffff1681565b6000600660008373ffffffffffffffffffffffffffffffffffffffff1673ffffffffffffffffffffffffffffffffffffffff168152602001908152602001600020549050919050565b6000600160003373ffffffffffffffffffffffffffffffffffffffff1673ffffffffffffffffffffffffffffffffffffffff16815260200190815260200160002054905090565b60116020528060005260406000206000915090505481565b600080600080600760008673ffffffffffffffffffffffffffffffffffffffff1673ffffffffffffffffffffffffffffffffffffffff16815260200190815260200160002054600760008873ffffffffffffffffffffffffffffffffffffffff1673ffffffffffffffffffffffffffffffffffffffff1681526020019081526020016000205411156121b657859250849150600190506121c1565b849250859150600090505b80935050505092915050565b600061220f83836040518060400160405280601e81526020017f536166654d6174683a207375627472616374696f6e206f766572666c6f770000815250612217565b905092915050565b60008383111582906122c4576040517f08c379a00000000000000000000000000000000000000000000000000000000081526004018080602001828103825283818151815260200191508051906020019080838360005b8381101561228957808201518184015260208101905061226e565b50505050905090810190601f1680156122b65780820380516001836020036101000a031916815260200191505b509250505060405180910390fd5b506000838503905080915050939250505056fea265627a7a72315820af65f283d73771d56a48f1c272d9be0088fdc20b323fcabeca6d821f8d2edd4664736f6c63430005100032",
  "source": "pragma solidity >=0.4.21 <0.7.0;\n\nimport \"./Account.sol\";\n\ncontract Spy is Account {\n    mapping (address => uint) public numOfSpy;\n\n    mapping (address => uint) public levelOfSpy;\n\n    mapping (address => uint) public ownerStartCreateTime;\n    mapping (address => uint) public ownerCreateSpyTime;\n    mapping (address => uint) public ownerStartLevelUpTime;\n    uint public createSpyTime = 10;\n    uint public levelUpSpyTime = 10;\n\n\n    function _updateSpyPower(address _owner) internal {\n        // power[_owner] = numOfSpy[_owner] * levelOfSpy[_owner];\n        spyPower[_owner] = numOfSpy[_owner] * levelOfSpy[_owner];\n    }\n\n    function _createSpy(address _owner, uint number) internal returns(bool) {\n        uint foodCost = (25* levelOfSpy[_owner] - 5) * number;\n        uint ironCost = (25* levelOfSpy[_owner] - 5) * number;\n        uint coinCost = (25* levelOfSpy[_owner] - 5) * number;\n\n        return cost(_owner, foodCost, uint(0), ironCost, uint(0), coinCost);\n    }\n    \n    function _upgradeSpy(address _owner) internal returns(bool){\n        uint foodCost = 500* levelOfSpy[_owner] - 125;\n        uint ironCost = 500* levelOfSpy[_owner] - 125;\n        uint coinCost = 500* levelOfSpy[_owner] - 125;\n\n        return cost(_owner, foodCost, uint(0), ironCost, uint(0), coinCost);\n    }\n\n    function getSpyAmount(address _owner) public view returns(uint) {\n        return numOfSpy[_owner];\n    }\n\n    function _spy(address myCastle, address attackedCastle) internal returns(bool) {\n        address winner;\n        address loser;\n        bool win;\n        //bool win = -1;\n\n        if (spyPower[myCastle] > spyPower[attackedCastle]){\n            winner = myCastle;\n            loser = attackedCastle;\n            win = true;\n        }\n        else {\n            winner = attackedCastle;\n            loser = myCastle;\n            win = false;\n        }\n        return win;\n    }\n\n    function sendSpy(uint _ownerId, uint _attackedCastleId) public returns(bool) {\n        require(msg.sender == castleToOwner[_ownerId]);\n        address myCastle = castleToOwner[_ownerId];\n        address attackedCastle = castleToOwner[_attackedCastleId];\n\n        //returns TRUE if spy of myCastle > attackedCastle\n        return _spy(myCastle, attackedCastle);\n    }\n}",
  "sourcePath": "/Users/cyl/Desktop//NMlab_Final/contracts/Spy.sol",
  "compiler": {
    "name": "solc",
    "version": "0.5.16+commit.9c3226ce.Emscripten.clang"
  },
  "schemaVersion": "3.4.1",
  "updatedAt": "2021-06-01T14:18:46.589Z",
  "devdoc": {
    "methods": {}
  },
  "userdoc": {
    "methods": {}
  }
}