{
  "contractName": "Spy",
  "abi": [
    {
      "constant": true,
      "inputs": [
        {
          "internalType": "uint256",
          "name": "",
          "type": "uint256"
        }
      ],
      "name": "castleToOwner",
      "outputs": [
        {
          "internalType": "address",
          "name": "",
          "type": "address"
        }
      ],
      "payable": false,
      "stateMutability": "view",
      "type": "function"
    },
    {
      "constant": true,
      "inputs": [],
      "name": "checkUserAddress",
      "outputs": [
        {
          "internalType": "bool",
          "name": "",
          "type": "bool"
        }
      ],
      "payable": false,
      "stateMutability": "view",
      "type": "function"
    },
    {
      "constant": true,
      "inputs": [
        {
          "internalType": "address",
          "name": "",
          "type": "address"
        }
      ],
      "name": "coinOwnerCount",
      "outputs": [
        {
          "internalType": "uint256",
          "name": "",
          "type": "uint256"
        }
      ],
      "payable": false,
      "stateMutability": "view",
      "type": "function"
    },
    {
      "constant": false,
      "inputs": [
        {
          "internalType": "address",
          "name": "_owner",
          "type": "address"
        },
        {
          "internalType": "uint256",
          "name": "food",
          "type": "uint256"
        },
        {
          "internalType": "uint256",
          "name": "wood",
          "type": "uint256"
        },
        {
          "internalType": "uint256",
          "name": "iron",
          "type": "uint256"
        },
        {
          "internalType": "uint256",
          "name": "stone",
          "type": "uint256"
        },
        {
          "internalType": "uint256",
          "name": "coin",
          "type": "uint256"
        }
      ],
      "name": "cost",
      "outputs": [
        {
          "internalType": "bool",
          "name": "",
          "type": "bool"
        }
      ],
      "payable": false,
      "stateMutability": "nonpayable",
      "type": "function"
    },
    {
      "constant": true,
      "inputs": [],
      "name": "createSpyTime",
      "outputs": [
        {
          "internalType": "uint256",
          "name": "",
          "type": "uint256"
        }
      ],
      "payable": false,
      "stateMutability": "view",
      "type": "function"
    },
    {
      "constant": true,
      "inputs": [
        {
          "internalType": "address",
          "name": "",
          "type": "address"
        }
      ],
      "name": "foodOwnerCount",
      "outputs": [
        {
          "internalType": "uint256",
          "name": "",
          "type": "uint256"
        }
      ],
      "payable": false,
      "stateMutability": "view",
      "type": "function"
    },
    {
      "constant": true,
      "inputs": [],
      "name": "getCoinAmount",
      "outputs": [
        {
          "internalType": "uint256",
          "name": "",
          "type": "uint256"
        }
      ],
      "payable": false,
      "stateMutability": "view",
      "type": "function"
    },
    {
      "constant": true,
      "inputs": [
        {
          "internalType": "address",
          "name": "_owner",
          "type": "address"
        }
      ],
      "name": "getCoinOwnerCount",
      "outputs": [
        {
          "internalType": "uint256",
          "name": "",
          "type": "uint256"
        }
      ],
      "payable": false,
      "stateMutability": "view",
      "type": "function"
    },
    {
      "constant": true,
      "inputs": [],
      "name": "getFoodAmount",
      "outputs": [
        {
          "internalType": "uint256",
          "name": "",
          "type": "uint256"
        }
      ],
      "payable": false,
      "stateMutability": "view",
      "type": "function"
    },
    {
      "constant": true,
      "inputs": [
        {
          "internalType": "address",
          "name": "_owner",
          "type": "address"
        }
      ],
      "name": "getFoodOwnerCount",
      "outputs": [
        {
          "internalType": "uint256",
          "name": "",
          "type": "uint256"
        }
      ],
      "payable": false,
      "stateMutability": "view",
      "type": "function"
    },
    {
      "constant": true,
      "inputs": [],
      "name": "getIronAmount",
      "outputs": [
        {
          "internalType": "uint256",
          "name": "",
          "type": "uint256"
        }
      ],
      "payable": false,
      "stateMutability": "view",
      "type": "function"
    },
    {
      "constant": true,
      "inputs": [
        {
          "internalType": "address",
          "name": "_owner",
          "type": "address"
        }
      ],
      "name": "getIronOwnerCount",
      "outputs": [
        {
          "internalType": "uint256",
          "name": "",
          "type": "uint256"
        }
      ],
      "payable": false,
      "stateMutability": "view",
      "type": "function"
    },
    {
      "constant": true,
      "inputs": [],
      "name": "getKingdomAmount",
      "outputs": [
        {
          "internalType": "uint256",
          "name": "",
          "type": "uint256"
        }
      ],
      "payable": false,
      "stateMutability": "view",
      "type": "function"
    },
    {
      "constant": true,
      "inputs": [],
      "name": "getMyIdx",
      "outputs": [
        {
          "internalType": "uint256",
          "name": "",
          "type": "uint256"
        }
      ],
      "payable": false,
      "stateMutability": "view",
      "type": "function"
    },
    {
      "constant": true,
      "inputs": [],
      "name": "getStoneAmount",
      "outputs": [
        {
          "internalType": "uint256",
          "name": "",
          "type": "uint256"
        }
      ],
      "payable": false,
      "stateMutability": "view",
      "type": "function"
    },
    {
      "constant": true,
      "inputs": [
        {
          "internalType": "address",
          "name": "_owner",
          "type": "address"
        }
      ],
      "name": "getStoneOwnerCount",
      "outputs": [
        {
          "internalType": "uint256",
          "name": "",
          "type": "uint256"
        }
      ],
      "payable": false,
      "stateMutability": "view",
      "type": "function"
    },
    {
      "constant": true,
      "inputs": [
        {
          "internalType": "uint256",
          "name": "idx",
          "type": "uint256"
        }
      ],
      "name": "getUserHealth",
      "outputs": [
        {
          "internalType": "uint256",
          "name": "",
          "type": "uint256"
        }
      ],
      "payable": false,
      "stateMutability": "view",
      "type": "function"
    },
    {
      "constant": true,
      "inputs": [
        {
          "internalType": "uint256",
          "name": "idx",
          "type": "uint256"
        }
      ],
      "name": "getUserPower",
      "outputs": [
        {
          "internalType": "uint256",
          "name": "",
          "type": "uint256"
        }
      ],
      "payable": false,
      "stateMutability": "view",
      "type": "function"
    },
    {
      "constant": true,
      "inputs": [
        {
          "internalType": "uint256",
          "name": "idx",
          "type": "uint256"
        }
      ],
      "name": "getUserSpyPower",
      "outputs": [
        {
          "internalType": "uint256",
          "name": "",
          "type": "uint256"
        }
      ],
      "payable": false,
      "stateMutability": "view",
      "type": "function"
    },
    {
      "constant": true,
      "inputs": [],
      "name": "getWoodAmount",
      "outputs": [
        {
          "internalType": "uint256",
          "name": "",
          "type": "uint256"
        }
      ],
      "payable": false,
      "stateMutability": "view",
      "type": "function"
    },
    {
      "constant": true,
      "inputs": [
        {
          "internalType": "address",
          "name": "_owner",
          "type": "address"
        }
      ],
      "name": "getWoodOwnerCount",
      "outputs": [
        {
          "internalType": "uint256",
          "name": "",
          "type": "uint256"
        }
      ],
      "payable": false,
      "stateMutability": "view",
      "type": "function"
    },
    {
      "constant": true,
      "inputs": [
        {
          "internalType": "address",
          "name": "",
          "type": "address"
        }
      ],
      "name": "health",
      "outputs": [
        {
          "internalType": "uint256",
          "name": "",
          "type": "uint256"
        }
      ],
      "payable": false,
      "stateMutability": "view",
      "type": "function"
    },
    {
      "constant": false,
      "inputs": [
        {
          "internalType": "address",
          "name": "_owner",
          "type": "address"
        }
      ],
      "name": "initializeKingdom",
      "outputs": [],
      "payable": false,
      "stateMutability": "nonpayable",
      "type": "function"
    },
    {
      "constant": true,
      "inputs": [
        {
          "internalType": "address",
          "name": "",
          "type": "address"
        }
      ],
      "name": "ironOwnerCount",
      "outputs": [
        {
          "internalType": "uint256",
          "name": "",
          "type": "uint256"
        }
      ],
      "payable": false,
      "stateMutability": "view",
      "type": "function"
    },
    {
      "constant": true,
      "inputs": [],
      "name": "kingdomAmount",
      "outputs": [
        {
          "internalType": "uint256",
          "name": "",
          "type": "uint256"
        }
      ],
      "payable": false,
      "stateMutability": "view",
      "type": "function"
    },
    {
      "constant": true,
      "inputs": [
        {
          "internalType": "address",
          "name": "",
          "type": "address"
        }
      ],
      "name": "levelOfSpy",
      "outputs": [
        {
          "internalType": "uint256",
          "name": "",
          "type": "uint256"
        }
      ],
      "payable": false,
      "stateMutability": "view",
      "type": "function"
    },
    {
      "constant": true,
      "inputs": [],
      "name": "levelUpSpyTime",
      "outputs": [
        {
          "internalType": "uint256",
          "name": "",
          "type": "uint256"
        }
      ],
      "payable": false,
      "stateMutability": "view",
      "type": "function"
    },
    {
      "constant": true,
      "inputs": [
        {
          "internalType": "address",
          "name": "",
          "type": "address"
        }
      ],
      "name": "numOfSpy",
      "outputs": [
        {
          "internalType": "uint256",
          "name": "",
          "type": "uint256"
        }
      ],
      "payable": false,
      "stateMutability": "view",
      "type": "function"
    },
    {
      "constant": true,
      "inputs": [
        {
          "internalType": "address",
          "name": "",
          "type": "address"
        }
      ],
      "name": "ownerCastleCount",
      "outputs": [
        {
          "internalType": "uint256",
          "name": "",
          "type": "uint256"
        }
      ],
      "payable": false,
      "stateMutability": "view",
      "type": "function"
    },
    {
      "constant": true,
      "inputs": [
        {
          "internalType": "address",
          "name": "",
          "type": "address"
        }
      ],
      "name": "ownerCreateSpyTime",
      "outputs": [
        {
          "internalType": "uint256",
          "name": "",
          "type": "uint256"
        }
      ],
      "payable": false,
      "stateMutability": "view",
      "type": "function"
    },
    {
      "constant": true,
      "inputs": [
        {
          "internalType": "address",
          "name": "",
          "type": "address"
        }
      ],
      "name": "ownerStartCreateTime",
      "outputs": [
        {
          "internalType": "uint256",
          "name": "",
          "type": "uint256"
        }
      ],
      "payable": false,
      "stateMutability": "view",
      "type": "function"
    },
    {
      "constant": true,
      "inputs": [
        {
          "internalType": "address",
          "name": "",
          "type": "address"
        }
      ],
      "name": "ownerStartLevelUpTime",
      "outputs": [
        {
          "internalType": "uint256",
          "name": "",
          "type": "uint256"
        }
      ],
      "payable": false,
      "stateMutability": "view",
      "type": "function"
    },
    {
      "constant": true,
      "inputs": [
        {
          "internalType": "address",
          "name": "",
          "type": "address"
        }
      ],
      "name": "power",
      "outputs": [
        {
          "internalType": "uint256",
          "name": "",
          "type": "uint256"
        }
      ],
      "payable": false,
      "stateMutability": "view",
      "type": "function"
    },
    {
      "constant": false,
      "inputs": [
        {
          "internalType": "address",
          "name": "_owner",
          "type": "address"
        },
        {
          "internalType": "uint256",
          "name": "value",
          "type": "uint256"
        }
      ],
      "name": "setCoinOwnerCount",
      "outputs": [],
      "payable": false,
      "stateMutability": "nonpayable",
      "type": "function"
    },
    {
      "constant": false,
      "inputs": [
        {
          "internalType": "address",
          "name": "_owner",
          "type": "address"
        },
        {
          "internalType": "uint256",
          "name": "value",
          "type": "uint256"
        }
      ],
      "name": "setFoodOwnerCount",
      "outputs": [],
      "payable": false,
      "stateMutability": "nonpayable",
      "type": "function"
    },
    {
      "constant": false,
      "inputs": [
        {
          "internalType": "address",
          "name": "_owner",
          "type": "address"
        },
        {
          "internalType": "uint256",
          "name": "value",
          "type": "uint256"
        }
      ],
      "name": "setIronOwnerCount",
      "outputs": [],
      "payable": false,
      "stateMutability": "nonpayable",
      "type": "function"
    },
    {
      "constant": false,
      "inputs": [
        {
          "internalType": "address",
          "name": "_owner",
          "type": "address"
        },
        {
          "internalType": "uint256",
          "name": "value",
          "type": "uint256"
        }
      ],
      "name": "setStoneOwnerCount",
      "outputs": [],
      "payable": false,
      "stateMutability": "nonpayable",
      "type": "function"
    },
    {
      "constant": false,
      "inputs": [
        {
          "internalType": "address",
          "name": "_owner",
          "type": "address"
        },
        {
          "internalType": "uint256",
          "name": "value",
          "type": "uint256"
        }
      ],
      "name": "setWoodOwnerCount",
      "outputs": [],
      "payable": false,
      "stateMutability": "nonpayable",
      "type": "function"
    },
    {
      "constant": true,
      "inputs": [
        {
          "internalType": "address",
          "name": "",
          "type": "address"
        }
      ],
      "name": "spyPower",
      "outputs": [
        {
          "internalType": "uint256",
          "name": "",
          "type": "uint256"
        }
      ],
      "payable": false,
      "stateMutability": "view",
      "type": "function"
    },
    {
      "constant": true,
      "inputs": [
        {
          "internalType": "address",
          "name": "",
          "type": "address"
        }
      ],
      "name": "stoneOwnerCount",
      "outputs": [
        {
          "internalType": "uint256",
          "name": "",
          "type": "uint256"
        }
      ],
      "payable": false,
      "stateMutability": "view",
      "type": "function"
    },
    {
      "constant": true,
      "inputs": [
        {
          "internalType": "address",
          "name": "",
          "type": "address"
        }
      ],
      "name": "woodOwnerCount",
      "outputs": [
        {
          "internalType": "uint256",
          "name": "",
          "type": "uint256"
        }
      ],
      "payable": false,
      "stateMutability": "view",
      "type": "function"
    },
    {
      "constant": true,
      "inputs": [
        {
          "internalType": "address",
          "name": "_owner",
          "type": "address"
        }
      ],
      "name": "getSpyAmount",
      "outputs": [
        {
          "internalType": "uint256",
          "name": "",
          "type": "uint256"
        }
      ],
      "payable": false,
      "stateMutability": "view",
      "type": "function"
    },
    {
      "constant": false,
      "inputs": [
        {
          "internalType": "uint256",
          "name": "_ownerId",
          "type": "uint256"
        },
        {
          "internalType": "uint256",
          "name": "_attackedCastleId",
          "type": "uint256"
        }
      ],
      "name": "sendSpy",
      "outputs": [
        {
          "internalType": "bool",
          "name": "",
          "type": "bool"
        }
      ],
      "payable": false,
      "stateMutability": "nonpayable",
      "type": "function"
    }
  ],
  "bytecode": "0x60806040526010600b55600b54600a0a600c55600a601255600a60135534801561002857600080fd5b506121bc806100386000396000f3fe608060405234801561001057600080fd5b50600436106102695760003560e01c8063867b84e211610151578063e21843fd116100c3578063e9df149811610087578063e9df149814610caa578063ef78b6dc14610cf8578063f064b42b14610d50578063f4ab27f014610d94578063fd8ccf2714610e02578063ff4581f114610e2057610269565b8063e21843fd14610af2578063e2d8ebee14610b4a578063e428afa014610ba2578063e5b285f214610bfa578063e9933a4b14610c5257610269565b8063af3437ae11610115578063af3437ae1461093c578063af7cd0e514610994578063b5c3e402146109e2578063c8b4eeff14610a3a578063ccf358a414610a7c578063de63415214610a9a57610269565b8063867b84e2146107c45780638919a9ca1461081c5780639073af811461083e5780639e72301314610896578063a580af02146108ee57610269565b80634807c3d5116101ea5780636ed82fbb116101ae5780636ed82fbb1461063e5780636f60f1df14610696578063789630be146106ee5780637e2b875b1461070c5780638226e5301461072a578063834af9b61461078257610269565b80634807c3d51461053e578063503371a51461055c5780635ad60993146105b4578063623e9ba6146105d257806364afdf07146105f057610269565b8063323a468611610231578063323a4686146103a65780633c426599146103e857806341d42330146104405780634454be421461049857806346125f84146104e657610269565b80630194b6131461026e578063194c717b146102be5780631a653e8b146102dc5780631c980beb146102fa5780631e9ac0bf14610318575b600080fd5b6102a46004803603604081101561028457600080fd5b810190808035906020019092919080359060200190929190505050610e78565b604051808215151515815260200191505060405180910390f35b6102c6610f69565b6040518082815260200191505060405180910390f35b6102e4610f6f565b6040518082815260200191505060405180910390f35b610302610f75565b6040518082815260200191505060405180910390f35b61038c600480360360c081101561032e57600080fd5b81019080803573ffffffffffffffffffffffffffffffffffffffff1690602001909291908035906020019092919080359060200190929190803590602001909291908035906020019092919080359060200190929190505050610fbb565b604051808215151515815260200191505060405180910390f35b6103d2600480360360208110156103bc57600080fd5b810190808035906020019092919050505061142f565b6040518082815260200191505060405180910390f35b61042a600480360360208110156103fe57600080fd5b81019080803573ffffffffffffffffffffffffffffffffffffffff1690602001909291905050506114bf565b6040518082815260200191505060405180910390f35b6104826004803603602081101561045657600080fd5b81019080803573ffffffffffffffffffffffffffffffffffffffff169060200190929190505050611507565b6040518082815260200191505060405180910390f35b6104e4600480360360408110156104ae57600080fd5b81019080803573ffffffffffffffffffffffffffffffffffffffff16906020019092919080359060200190929190505050611550565b005b610528600480360360208110156104fc57600080fd5b81019080803573ffffffffffffffffffffffffffffffffffffffff169060200190929190505050611598565b6040518082815260200191505060405180910390f35b6105466115b0565b6040518082815260200191505060405180910390f35b61059e6004803603602081101561057257600080fd5b81019080803573ffffffffffffffffffffffffffffffffffffffff1690602001909291905050506115b6565b6040518082815260200191505060405180910390f35b6105bc6115ce565b6040518082815260200191505060405180910390f35b6105da611615565b6040518082815260200191505060405180910390f35b61063c6004803603604081101561060657600080fd5b81019080803573ffffffffffffffffffffffffffffffffffffffff1690602001909291908035906020019092919050505061165c565b005b6106806004803603602081101561065457600080fd5b81019080803573ffffffffffffffffffffffffffffffffffffffff1690602001909291905050506116a4565b6040518082815260200191505060405180910390f35b6106d8600480360360208110156106ac57600080fd5b81019080803573ffffffffffffffffffffffffffffffffffffffff1690602001909291905050506116ed565b6040518082815260200191505060405180910390f35b6106f6611736565b6040518082815260200191505060405180910390f35b6107146117cd565b6040518082815260200191505060405180910390f35b61076c6004803603602081101561074057600080fd5b81019080803573ffffffffffffffffffffffffffffffffffffffff1690602001909291905050506117d7565b6040518082815260200191505060405180910390f35b6107ae6004803603602081101561079857600080fd5b81019080803590602001909291905050506117ef565b6040518082815260200191505060405180910390f35b610806600480360360208110156107da57600080fd5b81019080803573ffffffffffffffffffffffffffffffffffffffff16906020019092919050505061187f565b6040518082815260200191505060405180910390f35b610824611897565b604051808215151515815260200191505060405180910390f35b6108806004803603602081101561085457600080fd5b81019080803573ffffffffffffffffffffffffffffffffffffffff1690602001909291905050506118f1565b6040518082815260200191505060405180910390f35b6108d8600480360360208110156108ac57600080fd5b81019080803573ffffffffffffffffffffffffffffffffffffffff169060200190929190505050611909565b6040518082815260200191505060405180910390f35b61093a6004803603604081101561090457600080fd5b81019080803573ffffffffffffffffffffffffffffffffffffffff16906020019092919080359060200190929190505050611952565b005b61097e6004803603602081101561095257600080fd5b81019080803573ffffffffffffffffffffffffffffffffffffffff16906020019092919050505061199a565b6040518082815260200191505060405180910390f35b6109e0600480360360408110156109aa57600080fd5b81019080803573ffffffffffffffffffffffffffffffffffffffff169060200190929190803590602001909291905050506119b2565b005b610a24600480360360208110156109f857600080fd5b81019080803573ffffffffffffffffffffffffffffffffffffffff1690602001909291905050506119fa565b6040518082815260200191505060405180910390f35b610a6660048036036020811015610a5057600080fd5b8101908080359060200190929190505050611a12565b6040518082815260200191505060405180910390f35b610a84611aa2565b6040518082815260200191505060405180910390f35b610adc60048036036020811015610ab057600080fd5b81019080803573ffffffffffffffffffffffffffffffffffffffff169060200190929190505050611ae9565b6040518082815260200191505060405180910390f35b610b3460048036036020811015610b0857600080fd5b81019080803573ffffffffffffffffffffffffffffffffffffffff169060200190929190505050611b01565b6040518082815260200191505060405180910390f35b610b8c60048036036020811015610b6057600080fd5b81019080803573ffffffffffffffffffffffffffffffffffffffff169060200190929190505050611b4a565b6040518082815260200191505060405180910390f35b610be460048036036020811015610bb857600080fd5b81019080803573ffffffffffffffffffffffffffffffffffffffff169060200190929190505050611b62565b6040518082815260200191505060405180910390f35b610c3c60048036036020811015610c1057600080fd5b81019080803573ffffffffffffffffffffffffffffffffffffffff169060200190929190505050611b7a565b6040518082815260200191505060405180910390f35b610c9460048036036020811015610c6857600080fd5b81019080803573ffffffffffffffffffffffffffffffffffffffff169060200190929190505050611b92565b6040518082815260200191505060405180910390f35b610cf660048036036040811015610cc057600080fd5b81019080803573ffffffffffffffffffffffffffffffffffffffff16906020019092919080359060200190929190505050611baa565b005b610d3a60048036036020811015610d0e57600080fd5b81019080803573ffffffffffffffffffffffffffffffffffffffff169060200190929190505050611bf1565b6040518082815260200191505060405180910390f35b610d9260048036036020811015610d6657600080fd5b81019080803573ffffffffffffffffffffffffffffffffffffffff169060200190929190505050611c09565b005b610dc060048036036020811015610daa57600080fd5b8101908080359060200190929190505050611f39565b604051808273ffffffffffffffffffffffffffffffffffffffff1673ffffffffffffffffffffffffffffffffffffffff16815260200191505060405180910390f35b610e0a611f6c565b6040518082815260200191505060405180910390f35b610e6260048036036020811015610e3657600080fd5b81019080803573ffffffffffffffffffffffffffffffffffffffff169060200190929190505050611fb3565b6040518082815260200191505060405180910390f35b60006009600084815260200190815260200160002060009054906101000a900473ffffffffffffffffffffffffffffffffffffffff1673ffffffffffffffffffffffffffffffffffffffff163373ffffffffffffffffffffffffffffffffffffffff1614610ee557600080fd5b60006009600085815260200190815260200160002060009054906101000a900473ffffffffffffffffffffffffffffffffffffffff16905060006009600085815260200190815260200160002060009054906101000a900473ffffffffffffffffffffffffffffffffffffffff169050610f5f8282611fcb565b9250505092915050565b60085481565b60135481565b60008060003373ffffffffffffffffffffffffffffffffffffffff1673ffffffffffffffffffffffffffffffffffffffff16815260200190815260200160002054905090565b600085600260008973ffffffffffffffffffffffffffffffffffffffff1673ffffffffffffffffffffffffffffffffffffffff168152602001908152602001600020541015801561104b575084600460008973ffffffffffffffffffffffffffffffffffffffff1673ffffffffffffffffffffffffffffffffffffffff1681526020019081526020016000205410155b8015611096575083600160008973ffffffffffffffffffffffffffffffffffffffff1673ffffffffffffffffffffffffffffffffffffffff1681526020019081526020016000205410155b80156110e05750826000808973ffffffffffffffffffffffffffffffffffffffff1673ffffffffffffffffffffffffffffffffffffffff1681526020019081526020016000205410155b801561112b575081600360008973ffffffffffffffffffffffffffffffffffffffff1673ffffffffffffffffffffffffffffffffffffffff1681526020019081526020016000205410155b156114205761118286600260008a73ffffffffffffffffffffffffffffffffffffffff1673ffffffffffffffffffffffffffffffffffffffff1681526020019081526020016000205461207d90919063ffffffff16565b600260008973ffffffffffffffffffffffffffffffffffffffff1673ffffffffffffffffffffffffffffffffffffffff1681526020019081526020016000208190555061121785600460008a73ffffffffffffffffffffffffffffffffffffffff1673ffffffffffffffffffffffffffffffffffffffff1681526020019081526020016000205461207d90919063ffffffff16565b600460008973ffffffffffffffffffffffffffffffffffffffff1673ffffffffffffffffffffffffffffffffffffffff168152602001908152602001600020819055506112ac84600160008a73ffffffffffffffffffffffffffffffffffffffff1673ffffffffffffffffffffffffffffffffffffffff1681526020019081526020016000205461207d90919063ffffffff16565b600160008973ffffffffffffffffffffffffffffffffffffffff1673ffffffffffffffffffffffffffffffffffffffff16815260200190815260200160002081905550611340836000808a73ffffffffffffffffffffffffffffffffffffffff1673ffffffffffffffffffffffffffffffffffffffff1681526020019081526020016000205461207d90919063ffffffff16565b6000808973ffffffffffffffffffffffffffffffffffffffff1673ffffffffffffffffffffffffffffffffffffffff168152602001908152602001600020819055506113d482600360008a73ffffffffffffffffffffffffffffffffffffffff1673ffffffffffffffffffffffffffffffffffffffff1681526020019081526020016000205461207d90919063ffffffff16565b600360008973ffffffffffffffffffffffffffffffffffffffff1673ffffffffffffffffffffffffffffffffffffffff1681526020019081526020016000208190555060019050611425565b600090505b9695505050505050565b60006008548210156114b557600760006009600085815260200190815260200160002060009054906101000a900473ffffffffffffffffffffffffffffffffffffffff1673ffffffffffffffffffffffffffffffffffffffff1673ffffffffffffffffffffffffffffffffffffffff1681526020019081526020016000205490506114ba565b600090505b919050565b60008060008373ffffffffffffffffffffffffffffffffffffffff1673ffffffffffffffffffffffffffffffffffffffff168152602001908152602001600020549050919050565b6000600260008373ffffffffffffffffffffffffffffffffffffffff1673ffffffffffffffffffffffffffffffffffffffff168152602001908152602001600020549050919050565b80600160008473ffffffffffffffffffffffffffffffffffffffff1673ffffffffffffffffffffffffffffffffffffffff168152602001908152602001600020819055505050565b600a6020528060005260406000206000915090505481565b60125481565b60056020528060005260406000206000915090505481565b6000600260003373ffffffffffffffffffffffffffffffffffffffff1673ffffffffffffffffffffffffffffffffffffffff16815260200190815260200160002054905090565b6000600360003373ffffffffffffffffffffffffffffffffffffffff1673ffffffffffffffffffffffffffffffffffffffff16815260200190815260200160002054905090565b80600460008473ffffffffffffffffffffffffffffffffffffffff1673ffffffffffffffffffffffffffffffffffffffff168152602001908152602001600020819055505050565b6000600360008373ffffffffffffffffffffffffffffffffffffffff1673ffffffffffffffffffffffffffffffffffffffff168152602001908152602001600020549050919050565b6000600460008373ffffffffffffffffffffffffffffffffffffffff1673ffffffffffffffffffffffffffffffffffffffff168152602001908152602001600020549050919050565b600080600090505b6008548110156117c3573373ffffffffffffffffffffffffffffffffffffffff166009600083815260200190815260200160002060009054906101000a900473ffffffffffffffffffffffffffffffffffffffff1673ffffffffffffffffffffffffffffffffffffffff1614156117b857809150506117ca565b80600101905061173e565b5060085490505b90565b6000600854905090565b60016020528060005260406000206000915090505481565b600060085482101561187557600660006009600085815260200190815260200160002060009054906101000a900473ffffffffffffffffffffffffffffffffffffffff1673ffffffffffffffffffffffffffffffffffffffff1673ffffffffffffffffffffffffffffffffffffffff16815260200190815260200160002054905061187a565b600090505b919050565b60046020528060005260406000206000915090505481565b600080600a60003373ffffffffffffffffffffffffffffffffffffffff1673ffffffffffffffffffffffffffffffffffffffff1681526020019081526020016000205411156118e957600190506118ee565b600090505b90565b600f6020528060005260406000206000915090505481565b6000600160008373ffffffffffffffffffffffffffffffffffffffff1673ffffffffffffffffffffffffffffffffffffffff168152602001908152602001600020549050919050565b80600360008473ffffffffffffffffffffffffffffffffffffffff1673ffffffffffffffffffffffffffffffffffffffff168152602001908152602001600020819055505050565b600d6020528060005260406000206000915090505481565b80600260008473ffffffffffffffffffffffffffffffffffffffff1673ffffffffffffffffffffffffffffffffffffffff168152602001908152602001600020819055505050565b60106020528060005260406000206000915090505481565b6000600854821015611a9857600560006009600085815260200190815260200160002060009054906101000a900473ffffffffffffffffffffffffffffffffffffffff1673ffffffffffffffffffffffffffffffffffffffff1673ffffffffffffffffffffffffffffffffffffffff168152602001908152602001600020549050611a9d565b600090505b919050565b6000600460003373ffffffffffffffffffffffffffffffffffffffff1673ffffffffffffffffffffffffffffffffffffffff16815260200190815260200160002054905090565b600e6020528060005260406000206000915090505481565b6000600d60008373ffffffffffffffffffffffffffffffffffffffff1673ffffffffffffffffffffffffffffffffffffffff168152602001908152602001600020549050919050565b60066020528060005260406000206000915090505481565b60006020528060005260406000206000915090505481565b60026020528060005260406000206000915090505481565b60076020528060005260406000206000915090505481565b806000808473ffffffffffffffffffffffffffffffffffffffff1673ffffffffffffffffffffffffffffffffffffffff168152602001908152602001600020819055505050565b60036020528060005260406000206000915090505481565b6000600a60008373ffffffffffffffffffffffffffffffffffffffff1673ffffffffffffffffffffffffffffffffffffffff1681526020019081526020016000205414611c5557600080fd5b8060096000600854815260200190815260200160002060006101000a81548173ffffffffffffffffffffffffffffffffffffffff021916908373ffffffffffffffffffffffffffffffffffffffff160217905550600860008154809291906001019190505550600a60008273ffffffffffffffffffffffffffffffffffffffff1673ffffffffffffffffffffffffffffffffffffffff16815260200190815260200160002060008154809291906001019190505550612710600260008373ffffffffffffffffffffffffffffffffffffffff1673ffffffffffffffffffffffffffffffffffffffff16815260200190815260200160002081905550612710600460008373ffffffffffffffffffffffffffffffffffffffff1673ffffffffffffffffffffffffffffffffffffffff168152602001908152602001600020819055506127106000808373ffffffffffffffffffffffffffffffffffffffff1673ffffffffffffffffffffffffffffffffffffffff16815260200190815260200160002081905550612710600160008373ffffffffffffffffffffffffffffffffffffffff1673ffffffffffffffffffffffffffffffffffffffff16815260200190815260200160002081905550612710600360008373ffffffffffffffffffffffffffffffffffffffff1673ffffffffffffffffffffffffffffffffffffffff168152602001908152602001600020819055506000600560008373ffffffffffffffffffffffffffffffffffffffff1673ffffffffffffffffffffffffffffffffffffffff168152602001908152602001600020819055506000600660008373ffffffffffffffffffffffffffffffffffffffff1673ffffffffffffffffffffffffffffffffffffffff168152602001908152602001600020819055506000600760008373ffffffffffffffffffffffffffffffffffffffff1673ffffffffffffffffffffffffffffffffffffffff1681526020019081526020016000208190555050565b60096020528060005260406000206000915054906101000a900473ffffffffffffffffffffffffffffffffffffffff1681565b6000600160003373ffffffffffffffffffffffffffffffffffffffff1673ffffffffffffffffffffffffffffffffffffffff16815260200190815260200160002054905090565b60116020528060005260406000206000915090505481565b600080600080600760008673ffffffffffffffffffffffffffffffffffffffff1673ffffffffffffffffffffffffffffffffffffffff16815260200190815260200160002054600760008873ffffffffffffffffffffffffffffffffffffffff1673ffffffffffffffffffffffffffffffffffffffff1681526020019081526020016000205411156120665785925084915060019050612071565b849250859150600090505b80935050505092915050565b60006120bf83836040518060400160405280601e81526020017f536166654d6174683a207375627472616374696f6e206f766572666c6f7700008152506120c7565b905092915050565b6000838311158290612174576040517f08c379a00000000000000000000000000000000000000000000000000000000081526004018080602001828103825283818151815260200191508051906020019080838360005b8381101561213957808201518184015260208101905061211e565b50505050905090810190601f1680156121665780820380516001836020036101000a031916815260200191505b509250505060405180910390fd5b506000838503905080915050939250505056fea265627a7a72315820e71ca7cfd6d6eaa5b6bd47cf05709826bdca66cfd6c7d26810c4a9ed365c576d64736f6c63430005100032",
  "source": "pragma solidity >=0.4.21 <0.7.0;\n\nimport \"./Account.sol\";\n\ncontract Spy is Account {\n    mapping (address => uint) public numOfSpy;\n\n    mapping (address => uint) public levelOfSpy;\n\n    mapping (address => uint) public ownerStartCreateTime;\n    mapping (address => uint) public ownerCreateSpyTime;\n    mapping (address => uint) public ownerStartLevelUpTime;\n    uint public createSpyTime = 10;\n    uint public levelUpSpyTime = 10;\n\n\n    function _updateSpyPower(address _owner) internal {\n        // power[_owner] = numOfSpy[_owner] * levelOfSpy[_owner];\n        spyPower[_owner] = numOfSpy[_owner] * levelOfSpy[_owner];\n    }\n\n    function _createSpy(address _owner, uint number) internal returns(bool) {\n        uint foodCost = (25* levelOfSpy[_owner] - 5) * number;\n        uint ironCost = (25* levelOfSpy[_owner] - 5) * number;\n        uint coinCost = (25* levelOfSpy[_owner] - 5) * number;\n\n        return cost(_owner, foodCost, uint(0), ironCost, uint(0), coinCost);\n    }\n    \n    function _upgradeSpy(address _owner) internal returns(bool){\n        uint foodCost = 500* levelOfSpy[_owner] - 125;\n        uint ironCost = 500* levelOfSpy[_owner] - 125;\n        uint coinCost = 500* levelOfSpy[_owner] - 125;\n\n        return cost(_owner, foodCost, uint(0), ironCost, uint(0), coinCost);\n    }\n\n    function getSpyAmount(address _owner) public view returns(uint) {\n        return numOfSpy[_owner];\n    }\n\n    function _spy(address myCastle, address attackedCastle) internal returns(bool) {\n        address winner;\n        address loser;\n        bool win;\n        //bool win = -1;\n\n        if (spyPower[myCastle] > spyPower[attackedCastle]){\n            winner = myCastle;\n            loser = attackedCastle;\n            win = true;\n        }\n        else {\n            winner = attackedCastle;\n            loser = myCastle;\n            win = false;\n        }\n        return win;\n    }\n\n    function sendSpy(uint _ownerId, uint _attackedCastleId) public returns(bool) {\n        require(msg.sender == castleToOwner[_ownerId]);\n        address myCastle = castleToOwner[_ownerId];\n        address attackedCastle = castleToOwner[_attackedCastleId];\n\n        //returns TRUE if spy of myCastle > attackedCastle\n        return _spy(myCastle, attackedCastle);\n    }\n}",
  "sourcePath": "/Users/seanwang0823/NMLab_Final/contracts/Spy.sol",
  "compiler": {
    "name": "solc",
    "version": "0.5.16+commit.9c3226ce.Emscripten.clang"
  },
  "schemaVersion": "3.4.0",
  "updatedAt": "2021-06-01T08:52:10.662Z",
  "devdoc": {
    "methods": {}
  },
  "userdoc": {
    "methods": {}
  }
}