{
  "contractName": "Spy",
  "abi": [
    {
      "inputs": [
        {
          "internalType": "address",
          "name": "_account_address",
          "type": "address"
        }
      ],
      "payable": false,
      "stateMutability": "nonpayable",
      "type": "constructor"
    },
    {
      "constant": true,
      "inputs": [],
      "name": "createSpyTime",
      "outputs": [
        {
          "internalType": "uint256",
          "name": "",
          "type": "uint256"
        }
      ],
      "payable": false,
      "stateMutability": "view",
      "type": "function"
    },
    {
      "constant": true,
      "inputs": [
        {
          "internalType": "address",
          "name": "",
          "type": "address"
        }
      ],
      "name": "levelOfSpy",
      "outputs": [
        {
          "internalType": "uint256",
          "name": "",
          "type": "uint256"
        }
      ],
      "payable": false,
      "stateMutability": "view",
      "type": "function"
    },
    {
      "constant": true,
      "inputs": [],
      "name": "levelUpSpyTime",
      "outputs": [
        {
          "internalType": "uint256",
          "name": "",
          "type": "uint256"
        }
      ],
      "payable": false,
      "stateMutability": "view",
      "type": "function"
    },
    {
      "constant": true,
      "inputs": [
        {
          "internalType": "address",
          "name": "",
          "type": "address"
        }
      ],
      "name": "numOfSpy",
      "outputs": [
        {
          "internalType": "uint256",
          "name": "",
          "type": "uint256"
        }
      ],
      "payable": false,
      "stateMutability": "view",
      "type": "function"
    },
    {
      "constant": true,
      "inputs": [
        {
          "internalType": "address",
          "name": "",
          "type": "address"
        }
      ],
      "name": "ownerCreateSpyTime",
      "outputs": [
        {
          "internalType": "uint256",
          "name": "",
          "type": "uint256"
        }
      ],
      "payable": false,
      "stateMutability": "view",
      "type": "function"
    },
    {
      "constant": true,
      "inputs": [
        {
          "internalType": "address",
          "name": "",
          "type": "address"
        }
      ],
      "name": "ownerStartCreateTime",
      "outputs": [
        {
          "internalType": "uint256",
          "name": "",
          "type": "uint256"
        }
      ],
      "payable": false,
      "stateMutability": "view",
      "type": "function"
    },
    {
      "constant": true,
      "inputs": [
        {
          "internalType": "address",
          "name": "",
          "type": "address"
        }
      ],
      "name": "ownerStartLevelUpTime",
      "outputs": [
        {
          "internalType": "uint256",
          "name": "",
          "type": "uint256"
        }
      ],
      "payable": false,
      "stateMutability": "view",
      "type": "function"
    },
    {
      "constant": true,
      "inputs": [
        {
          "internalType": "address",
          "name": "_owner",
          "type": "address"
        }
      ],
      "name": "getSpyAmount",
      "outputs": [
        {
          "internalType": "uint256",
          "name": "",
          "type": "uint256"
        }
      ],
      "payable": false,
      "stateMutability": "view",
      "type": "function"
    },
    {
      "constant": false,
      "inputs": [
        {
          "internalType": "uint256",
          "name": "_ownerId",
          "type": "uint256"
        },
        {
          "internalType": "uint256",
          "name": "_attackedCastleId",
          "type": "uint256"
        }
      ],
      "name": "sendSpy",
      "outputs": [
        {
          "internalType": "bool",
          "name": "",
          "type": "bool"
        }
      ],
      "payable": false,
      "stateMutability": "nonpayable",
      "type": "function"
    }
  ],
  "bytecode": "0x6080604052600a600655600a60075534801561001a57600080fd5b506040516109143803806109148339818101604052602081101561003d57600080fd5b8101908080519060200190929190505050806000806101000a81548173ffffffffffffffffffffffffffffffffffffffff021916908373ffffffffffffffffffffffffffffffffffffffff160217905550506108768061009e6000396000f3fe608060405234801561001057600080fd5b50600436106100935760003560e01c8063af3437ae11610066578063af3437ae1461017c578063b5c3e402146101d4578063de6341521461022c578063e21843fd14610284578063ff4581f1146102dc57610093565b80630194b613146100985780631a653e8b146100e85780634807c3d5146101065780639073af8114610124575b600080fd5b6100ce600480360360408110156100ae57600080fd5b810190808035906020019092919080359060200190929190505050610334565b604051808215151515815260200191505060405180910390f35b6100f0610590565b6040518082815260200191505060405180910390f35b61010e610596565b6040518082815260200191505060405180910390f35b6101666004803603602081101561013a57600080fd5b81019080803573ffffffffffffffffffffffffffffffffffffffff16906020019092919050505061059c565b6040518082815260200191505060405180910390f35b6101be6004803603602081101561019257600080fd5b81019080803573ffffffffffffffffffffffffffffffffffffffff1690602001909291905050506105b4565b6040518082815260200191505060405180910390f35b610216600480360360208110156101ea57600080fd5b81019080803573ffffffffffffffffffffffffffffffffffffffff1690602001909291905050506105cc565b6040518082815260200191505060405180910390f35b61026e6004803603602081101561024257600080fd5b81019080803573ffffffffffffffffffffffffffffffffffffffff1690602001909291905050506105e4565b6040518082815260200191505060405180910390f35b6102c66004803603602081101561029a57600080fd5b81019080803573ffffffffffffffffffffffffffffffffffffffff1690602001909291905050506105fc565b6040518082815260200191505060405180910390f35b61031e600480360360208110156102f257600080fd5b81019080803573ffffffffffffffffffffffffffffffffffffffff169060200190929190505050610645565b6040518082815260200191505060405180910390f35b60008060009054906101000a900473ffffffffffffffffffffffffffffffffffffffff1673ffffffffffffffffffffffffffffffffffffffff166383ef9eb1846040518263ffffffff1660e01b81526004018082815260200191505060206040518083038186803b1580156103a857600080fd5b505afa1580156103bc573d6000803e3d6000fd5b505050506040513d60208110156103d257600080fd5b810190808051906020019092919050505073ffffffffffffffffffffffffffffffffffffffff163373ffffffffffffffffffffffffffffffffffffffff161461041a57600080fd5b60008060009054906101000a900473ffffffffffffffffffffffffffffffffffffffff1673ffffffffffffffffffffffffffffffffffffffff166383ef9eb1856040518263ffffffff1660e01b81526004018082815260200191505060206040518083038186803b15801561048e57600080fd5b505afa1580156104a2573d6000803e3d6000fd5b505050506040513d60208110156104b857600080fd5b8101908080519060200190929190505050905060008060009054906101000a900473ffffffffffffffffffffffffffffffffffffffff1673ffffffffffffffffffffffffffffffffffffffff166383ef9eb1856040518263ffffffff1660e01b81526004018082815260200191505060206040518083038186803b15801561053f57600080fd5b505afa158015610553573d6000803e3d6000fd5b505050506040513d602081101561056957600080fd5b81019080805190602001909291905050509050610586828261065d565b9250505092915050565b60075481565b60065481565b60036020528060005260406000206000915090505481565b60016020528060005260406000206000915090505481565b60046020528060005260406000206000915090505481565b60026020528060005260406000206000915090505481565b6000600160008373ffffffffffffffffffffffffffffffffffffffff1673ffffffffffffffffffffffffffffffffffffffff168152602001908152602001600020549050919050565b60056020528060005260406000206000915090505481565b6000806000806000809054906101000a900473ffffffffffffffffffffffffffffffffffffffff1673ffffffffffffffffffffffffffffffffffffffff16636bf67718866040518263ffffffff1660e01b8152600401808273ffffffffffffffffffffffffffffffffffffffff1673ffffffffffffffffffffffffffffffffffffffff16815260200191505060206040518083038186803b15801561070157600080fd5b505afa158015610715573d6000803e3d6000fd5b505050506040513d602081101561072b57600080fd5b81019080805190602001909291905050506000809054906101000a900473ffffffffffffffffffffffffffffffffffffffff1673ffffffffffffffffffffffffffffffffffffffff16636bf67718886040518263ffffffff1660e01b8152600401808273ffffffffffffffffffffffffffffffffffffffff1673ffffffffffffffffffffffffffffffffffffffff16815260200191505060206040518083038186803b1580156107da57600080fd5b505afa1580156107ee573d6000803e3d6000fd5b505050506040513d602081101561080457600080fd5b8101908080519060200190929190505050111561082a5785925084915060019050610835565b849250859150600090505b8093505050509291505056fea265627a7a72315820b51c04535fbe2bc21f0f5d3ea9ed02055ececa8817cbc87e1b1d89212b77cd7d64736f6c63430005100032",
  "source": "pragma solidity >=0.4.21 <0.7.0;\n\nimport \"./Account.sol\";\n\ncontract Spy {\n\n    Account accountInstance;\n    constructor(address _account_address) public {\n        accountInstance = Account(_account_address);\n    }\n\n    mapping (address => uint) public numOfSpy;\n\n    mapping (address => uint) public levelOfSpy;\n\n    mapping (address => uint) public ownerStartCreateTime;\n    mapping (address => uint) public ownerCreateSpyTime;\n    mapping (address => uint) public ownerStartLevelUpTime;\n    uint public createSpyTime = 10;\n    uint public levelUpSpyTime = 10;\n\n\n    function _updateSpyPower(address _owner) internal {\n        // power[_owner] = numOfSpy[_owner] * levelOfSpy[_owner];\n        accountInstance.setUserSpyPower(_owner, numOfSpy[_owner] * levelOfSpy[_owner]);\n    }\n\n    function _createSpy(address _owner, uint number) internal returns(bool) {\n        uint foodCost = (25* levelOfSpy[_owner] - 5) * number;\n        uint ironCost = (25* levelOfSpy[_owner] - 5) * number;\n        uint coinCost = (25* levelOfSpy[_owner] - 5) * number;\n\n        return accountInstance.cost(_owner, foodCost, uint(0), ironCost, uint(0), coinCost);\n    }\n    \n    function _upgradeSpy(address _owner) internal returns(bool){\n        uint foodCost = 500* levelOfSpy[_owner] - 125;\n        uint ironCost = 500* levelOfSpy[_owner] - 125;\n        uint coinCost = 500* levelOfSpy[_owner] - 125;\n\n        return accountInstance.cost(_owner, foodCost, uint(0), ironCost, uint(0), coinCost);\n    }\n\n    function getSpyAmount(address _owner) public view returns(uint) {\n        return numOfSpy[_owner];\n    }\n\n    function _spy(address myCastle, address attackedCastle) internal returns(bool) {\n        address winner;\n        address loser;\n        bool win;\n        //bool win = -1;\n\n        if (accountInstance.getUserSpyPower(myCastle) > accountInstance.getUserSpyPower(attackedCastle)){\n            winner = myCastle;\n            loser = attackedCastle;\n            win = true;\n        }\n        else {\n            winner = attackedCastle;\n            loser = myCastle;\n            win = false;\n        }\n        return win;\n    }\n\n    function sendSpy(uint _ownerId, uint _attackedCastleId) public returns(bool) {\n        require(msg.sender == accountInstance.convertCastleToOwner(_ownerId));\n        address myCastle = accountInstance.convertCastleToOwner(_ownerId);\n        address attackedCastle = accountInstance.convertCastleToOwner(_attackedCastleId);\n\n        //returns TRUE if spy of myCastle > attackedCastle\n        return _spy(myCastle, attackedCastle);\n    }\n}",
  "sourcePath": "/Users/seanwang0823/NMLab_Final/contracts/Spy.sol",
  "compiler": {
    "name": "solc",
    "version": "0.5.16+commit.9c3226ce.Emscripten.clang"
  },
  "schemaVersion": "3.4.0",
  "updatedAt": "2021-06-02T05:16:33.533Z",
  "devdoc": {
    "methods": {}
  },
  "userdoc": {
    "methods": {}
  }
}